{
	"contracts/Hello.sol": {
		"MyFirstContract": {
			"abi": [
				{
					"inputs": [],
					"stateMutability": "nonpayable",
					"type": "constructor"
				},
				{
					"inputs": [],
					"name": "add",
					"outputs": [
						{
							"internalType": "address",
							"name": "",
							"type": "address"
						}
					],
					"stateMutability": "view",
					"type": "function"
				},
				{
					"inputs": [],
					"name": "blkhsh",
					"outputs": [
						{
							"internalType": "bytes32",
							"name": "",
							"type": "bytes32"
						}
					],
					"stateMutability": "view",
					"type": "function"
				},
				{
					"inputs": [],
					"name": "blknmbr",
					"outputs": [
						{
							"internalType": "uint256",
							"name": "",
							"type": "uint256"
						}
					],
					"stateMutability": "view",
					"type": "function"
				},
				{
					"inputs": [],
					"name": "diff",
					"outputs": [
						{
							"internalType": "uint256",
							"name": "",
							"type": "uint256"
						}
					],
					"stateMutability": "view",
					"type": "function"
				},
				{
					"inputs": [],
					"name": "here",
					"outputs": [
						{
							"internalType": "address",
							"name": "",
							"type": "address"
						}
					],
					"stateMutability": "view",
					"type": "function"
				},
				{
					"inputs": [],
					"name": "left",
					"outputs": [
						{
							"internalType": "uint256",
							"name": "",
							"type": "uint256"
						}
					],
					"stateMutability": "view",
					"type": "function"
				},
				{
					"inputs": [],
					"name": "noww",
					"outputs": [
						{
							"internalType": "bytes",
							"name": "",
							"type": "bytes"
						}
					],
					"stateMutability": "view",
					"type": "function"
				},
				{
					"inputs": [],
					"name": "sign",
					"outputs": [
						{
							"internalType": "bytes4",
							"name": "",
							"type": "bytes4"
						}
					],
					"stateMutability": "view",
					"type": "function"
				},
				{
					"inputs": [],
					"name": "time",
					"outputs": [
						{
							"internalType": "uint256",
							"name": "",
							"type": "uint256"
						}
					],
					"stateMutability": "view",
					"type": "function"
				}
			],
			"devdoc": {
				"kind": "dev",
				"methods": {},
				"version": 1
			},
			"evm": {
				"assembly": "    /* \"contracts/Hello.sol\":62:582  contract MyFirstContract{... */\n  mstore(0x40, 0x80)\n    /* \"contracts/Hello.sol\":325:579  constructor(... */\n  callvalue\n  dup1\n  iszero\n  tag_1\n  jumpi\n  0x00\n  dup1\n  revert\ntag_1:\n  pop\n    /* \"contracts/Hello.sol\":356:359  add */\n  0x00\n    /* \"contracts/Hello.sol\":356:374  add=block.coinbase */\n  dup1\n  sload\n  not(sub(shl(0xa0, 0x01), 0x01))\n  and\n    /* \"contracts/Hello.sol\":360:374  block.coinbase */\n  coinbase\n    /* \"contracts/Hello.sol\":356:374  add=block.coinbase */\n  or\n  swap1\n  sstore\n    /* \"contracts/Hello.sol\":383:399  block.prevrandao */\n  prevrandao\n    /* \"contracts/Hello.sol\":356:374  add=block.coinbase */\n  0x01\n    /* \"contracts/Hello.sol\":378:399  diff=block.prevrandao */\n  sstore\n    /* \"contracts/Hello.sol\":432:444  block.number */\n  number\n    /* \"contracts/Hello.sol\":424:431  blknmbr */\n  0x02\n    /* \"contracts/Hello.sol\":424:444  blknmbr=block.number */\n  dup2\n  swap1\n  sstore\n    /* \"contracts/Hello.sol\":455:473  blockhash(blknmbr) */\n  blockhash\n    /* \"contracts/Hello.sol\":448:454  blkhsh */\n  0x03\n    /* \"contracts/Hello.sol\":448:473  blkhsh=blockhash(blknmbr) */\n  sstore\n    /* \"contracts/Hello.sol\":482:497  block.timestamp */\n  timestamp\n    /* \"contracts/Hello.sol\":477:481  time */\n  0x04\n    /* \"contracts/Hello.sol\":477:497  time=block.timestamp */\n  sstore\n    /* \"contracts/Hello.sol\":506:515  gasleft() */\n  gas\n    /* \"contracts/Hello.sol\":501:505  left */\n  0x05\n    /* \"contracts/Hello.sol\":501:515  left=gasleft() */\n  sstore\n    /* \"contracts/Hello.sol\":518:522  here */\n  0x06\n    /* \"contracts/Hello.sol\":518:533  here=msg.sender */\n  dup1\n  sload\n  not(sub(shl(0xc0, 0x01), 0x01))\n    /* \"contracts/Hello.sol\":536:548  sign=msg.sig */\n  and\n    /* \"contracts/Hello.sol\":523:533  msg.sender */\n  caller\n  not(shl(0xa0, 0xffffffff))\n    /* \"contracts/Hello.sol\":536:548  sign=msg.sig */\n  and\n  or\n  shl(0xa0, 0x01)\n    /* \"contracts/Hello.sol\":518:522  here */\n  0x00\n    /* \"contracts/Hello.sol\":541:548  msg.sig */\n  dup1\n  calldataload\n    /* \"contracts/Hello.sol\":536:548  sign=msg.sig */\n  0xe0\n  shr\n  swap2\n  swap1\n  swap2\n  mul\n  swap2\n  swap1\n  swap2\n  or\n  swap1\n  swap2\n  sstore\n    /* \"contracts/Hello.sol\":551:555  noww */\n  0x07\n  swap1\n    /* \"contracts/Hello.sol\":551:564  noww=msg.data */\n  tag_4\n  swap1\n    /* \"contracts/Hello.sol\":556:564  msg.data */\n  calldatasize\n  swap1\n    /* \"contracts/Hello.sol\":551:555  noww */\n  dup4\n    /* \"contracts/Hello.sol\":551:564  noww=msg.data */\n  tag_5\n  jump\t// in\ntag_4:\n  pop\n    /* \"contracts/Hello.sol\":62:582  contract MyFirstContract{... */\n  jump(tag_12)\n    /* \"#utility.yul\":14:141   */\ntag_7:\n    /* \"#utility.yul\":75:85   */\n  0x4e487b71\n    /* \"#utility.yul\":70:73   */\n  0xe0\n    /* \"#utility.yul\":66:86   */\n  shl\n    /* \"#utility.yul\":63:64   */\n  0x00\n    /* \"#utility.yul\":56:87   */\n  mstore\n    /* \"#utility.yul\":106:110   */\n  0x41\n    /* \"#utility.yul\":103:104   */\n  0x04\n    /* \"#utility.yul\":96:111   */\n  mstore\n    /* \"#utility.yul\":130:134   */\n  0x24\n    /* \"#utility.yul\":127:128   */\n  0x00\n    /* \"#utility.yul\":120:135   */\n  revert\n    /* \"#utility.yul\":146:526   */\ntag_8:\n    /* \"#utility.yul\":225:226   */\n  0x01\n    /* \"#utility.yul\":221:233   */\n  dup2\n  dup2\n  shr\n  swap1\n    /* \"#utility.yul\":268:280   */\n  dup3\n  and\n  dup1\n    /* \"#utility.yul\":289:350   */\n  tag_15\n  jumpi\n    /* \"#utility.yul\":343:347   */\n  0x7f\n    /* \"#utility.yul\":335:341   */\n  dup3\n    /* \"#utility.yul\":331:348   */\n  and\n    /* \"#utility.yul\":321:348   */\n  swap2\n  pop\n    /* \"#utility.yul\":289:350   */\ntag_15:\n    /* \"#utility.yul\":396:398   */\n  0x20\n    /* \"#utility.yul\":388:394   */\n  dup3\n    /* \"#utility.yul\":385:399   */\n  lt\n    /* \"#utility.yul\":365:383   */\n  dup2\n    /* \"#utility.yul\":362:400   */\n  sub\n    /* \"#utility.yul\":359:520   */\n  tag_16\n  jumpi\n    /* \"#utility.yul\":442:452   */\n  0x4e487b71\n    /* \"#utility.yul\":437:440   */\n  0xe0\n    /* \"#utility.yul\":433:453   */\n  shl\n    /* \"#utility.yul\":430:431   */\n  0x00\n    /* \"#utility.yul\":423:454   */\n  mstore\n    /* \"#utility.yul\":477:481   */\n  0x22\n    /* \"#utility.yul\":474:475   */\n  0x04\n    /* \"#utility.yul\":467:482   */\n  mstore\n    /* \"#utility.yul\":505:509   */\n  0x24\n    /* \"#utility.yul\":502:503   */\n  0x00\n    /* \"#utility.yul\":495:510   */\n  revert\n    /* \"#utility.yul\":359:520   */\ntag_16:\n  pop\n    /* \"#utility.yul\":146:526   */\n  swap2\n  swap1\n  pop\n  jump\t// out\n    /* \"#utility.yul\":656:1173   */\ntag_10:\n    /* \"#utility.yul\":757:759   */\n  0x1f\n    /* \"#utility.yul\":752:755   */\n  dup3\n    /* \"#utility.yul\":749:760   */\n  gt\n    /* \"#utility.yul\":746:1167   */\n  iszero\n  tag_19\n  jumpi\n    /* \"#utility.yul\":793:798   */\n  dup1\n    /* \"#utility.yul\":790:791   */\n  0x00\n    /* \"#utility.yul\":783:799   */\n  mstore\n    /* \"#utility.yul\":837:841   */\n  0x20\n    /* \"#utility.yul\":834:835   */\n  0x00\n    /* \"#utility.yul\":824:842   */\n  keccak256\n    /* \"#utility.yul\":907:909   */\n  0x1f\n    /* \"#utility.yul\":895:905   */\n  dup5\n    /* \"#utility.yul\":891:910   */\n  add\n    /* \"#utility.yul\":888:889   */\n  0x05\n    /* \"#utility.yul\":884:911   */\n  shr\n    /* \"#utility.yul\":878:882   */\n  dup2\n    /* \"#utility.yul\":874:912   */\n  add\n    /* \"#utility.yul\":943:947   */\n  0x20\n    /* \"#utility.yul\":931:941   */\n  dup6\n    /* \"#utility.yul\":928:948   */\n  lt\n    /* \"#utility.yul\":925:972   */\n  iszero\n  tag_20\n  jumpi\n  pop\n    /* \"#utility.yul\":966:970   */\n  dup1\n    /* \"#utility.yul\":925:972   */\ntag_20:\n    /* \"#utility.yul\":1021:1023   */\n  0x1f\n    /* \"#utility.yul\":1016:1019   */\n  dup5\n    /* \"#utility.yul\":1012:1024   */\n  add\n    /* \"#utility.yul\":1009:1010   */\n  0x05\n    /* \"#utility.yul\":1005:1025   */\n  shr\n    /* \"#utility.yul\":999:1003   */\n  dup3\n    /* \"#utility.yul\":995:1026   */\n  add\n    /* \"#utility.yul\":985:1026   */\n  swap2\n  pop\n    /* \"#utility.yul\":1076:1157   */\ntag_21:\n    /* \"#utility.yul\":1094:1096   */\n  dup2\n    /* \"#utility.yul\":1087:1092   */\n  dup2\n    /* \"#utility.yul\":1084:1097   */\n  lt\n    /* \"#utility.yul\":1076:1157   */\n  iszero\n  tag_23\n  jumpi\n    /* \"#utility.yul\":1153:1154   */\n  0x00\n    /* \"#utility.yul\":1139:1155   */\n  dup2\n  sstore\n    /* \"#utility.yul\":1120:1121   */\n  0x01\n    /* \"#utility.yul\":1109:1122   */\n  add\n    /* \"#utility.yul\":1076:1157   */\n  jump(tag_21)\ntag_23:\n    /* \"#utility.yul\":1080:1083   */\n  pop\n  pop\n    /* \"#utility.yul\":746:1167   */\ntag_19:\n    /* \"#utility.yul\":656:1173   */\n  pop\n  pop\n  pop\n  jump\t// out\n    /* \"#utility.yul\":1349:2543   */\ntag_5:\n  sub(shl(0x40, 0x01), 0x01)\n    /* \"#utility.yul\":1463:1490   */\n  dup4\n  gt\n    /* \"#utility.yul\":1460:1513   */\n  iszero\n  tag_27\n  jumpi\n    /* \"#utility.yul\":1493:1511   */\n  tag_27\n  tag_7\n  jump\t// in\ntag_27:\n    /* \"#utility.yul\":1522:1615   */\n  tag_28\n    /* \"#utility.yul\":1611:1614   */\n  dup4\n    /* \"#utility.yul\":1571:1609   */\n  tag_29\n    /* \"#utility.yul\":1603:1607   */\n  dup4\n    /* \"#utility.yul\":1597:1608   */\n  sload\n    /* \"#utility.yul\":1571:1609   */\n  tag_8\n  jump\t// in\ntag_29:\n    /* \"#utility.yul\":1565:1569   */\n  dup4\n    /* \"#utility.yul\":1522:1615   */\n  tag_10\n  jump\t// in\ntag_28:\n    /* \"#utility.yul\":1641:1642   */\n  0x00\n    /* \"#utility.yul\":1666:1668   */\n  0x1f\n    /* \"#utility.yul\":1661:1664   */\n  dup5\n    /* \"#utility.yul\":1658:1669   */\n  gt\n    /* \"#utility.yul\":1683:1684   */\n  0x01\n    /* \"#utility.yul\":1678:2285   */\n  dup2\n  eq\n  tag_31\n  jumpi\n    /* \"#utility.yul\":2329:2330   */\n  0x00\n    /* \"#utility.yul\":2346:2349   */\n  dup6\n    /* \"#utility.yul\":2343:2436   */\n  iszero\n  tag_32\n  jumpi\n  pop\n    /* \"#utility.yul\":2402:2421   */\n  dup4\n  dup3\n  add\n    /* \"#utility.yul\":2389:2422   */\n  calldataload\n    /* \"#utility.yul\":2343:2436   */\ntag_32:\n  not(0x00)\n    /* \"#utility.yul\":1306:1307   */\n  0x03\n    /* \"#utility.yul\":1302:1313   */\n  dup8\n  swap1\n  shl\n    /* \"#utility.yul\":1298:1322   */\n  shr\n    /* \"#utility.yul\":1294:1323   */\n  not\n    /* \"#utility.yul\":1284:1324   */\n  and\n    /* \"#utility.yul\":1330:1331   */\n  0x01\n    /* \"#utility.yul\":1326:1337   */\n  dup7\n  swap1\n  shl\n    /* \"#utility.yul\":1281:1338   */\n  or\n    /* \"#utility.yul\":2449:2527   */\n  dup4\n  sstore\n    /* \"#utility.yul\":1651:2537   */\n  jump(tag_23)\n    /* \"#utility.yul\":1678:2285   */\ntag_31:\n    /* \"#utility.yul\":603:604   */\n  0x00\n    /* \"#utility.yul\":596:610   */\n  dup4\n  dup2\n  mstore\n    /* \"#utility.yul\":640:644   */\n  0x20\n    /* \"#utility.yul\":627:645   */\n  dup2\n  keccak256\n  not(0x1f)\n    /* \"#utility.yul\":1714:1731   */\n  dup8\n  and\n  swap2\n    /* \"#utility.yul\":1828:2057   */\ntag_35:\n    /* \"#utility.yul\":1842:1849   */\n  dup3\n    /* \"#utility.yul\":1839:1840   */\n  dup2\n    /* \"#utility.yul\":1836:1850   */\n  lt\n    /* \"#utility.yul\":1828:2057   */\n  iszero\n  tag_37\n  jumpi\n    /* \"#utility.yul\":1931:1950   */\n  dup7\n  dup6\n  add\n    /* \"#utility.yul\":1918:1951   */\n  calldataload\n    /* \"#utility.yul\":1903:1952   */\n  dup3\n  sstore\n    /* \"#utility.yul\":2038:2042   */\n  0x20\n    /* \"#utility.yul\":2023:2043   */\n  swap5\n  dup6\n  add\n  swap5\n    /* \"#utility.yul\":1991:1992   */\n  0x01\n    /* \"#utility.yul\":1979:1993   */\n  swap1\n  swap3\n  add\n  swap2\n    /* \"#utility.yul\":1858:1870   */\n  add\n    /* \"#utility.yul\":1828:2057   */\n  jump(tag_35)\ntag_37:\n    /* \"#utility.yul\":1832:1835   */\n  pop\n    /* \"#utility.yul\":2085:2088   */\n  dup7\n    /* \"#utility.yul\":2076:2083   */\n  dup3\n    /* \"#utility.yul\":2073:2089   */\n  lt\n    /* \"#utility.yul\":2070:2229   */\n  iszero\n  tag_38\n  jumpi\n    /* \"#utility.yul\":2209:2210   */\n  0x00\n    /* \"#utility.yul\":2205:2211   */\n  not\n    /* \"#utility.yul\":2199:2202   */\n  0xf8\n    /* \"#utility.yul\":2193:2196   */\n  dup9\n    /* \"#utility.yul\":2190:2191   */\n  0x03\n    /* \"#utility.yul\":2186:2197   */\n  shl\n    /* \"#utility.yul\":2182:2203   */\n  and\n    /* \"#utility.yul\":2178:2212   */\n  shr\n    /* \"#utility.yul\":2174:2213   */\n  not\n    /* \"#utility.yul\":2161:2170   */\n  dup5\n    /* \"#utility.yul\":2156:2159   */\n  dup8\n    /* \"#utility.yul\":2152:2171   */\n  add\n    /* \"#utility.yul\":2139:2172   */\n  calldataload\n    /* \"#utility.yul\":2135:2214   */\n  and\n    /* \"#utility.yul\":2127:2133   */\n  dup2\n    /* \"#utility.yul\":2120:2215   */\n  sstore\n    /* \"#utility.yul\":2070:2229   */\ntag_38:\n  pop\n  pop\n    /* \"#utility.yul\":2272:2273   */\n  0x01\n    /* \"#utility.yul\":2266:2269   */\n  dup6\n    /* \"#utility.yul\":2263:2264   */\n  0x01\n    /* \"#utility.yul\":2259:2270   */\n  shl\n    /* \"#utility.yul\":2255:2274   */\n  add\n    /* \"#utility.yul\":2249:2253   */\n  dup4\n    /* \"#utility.yul\":2242:2275   */\n  sstore\n    /* \"#utility.yul\":1651:2537   */\n  pop\n  pop\n    /* \"#utility.yul\":1349:2543   */\n  pop\n  pop\n  pop\n  jump\t// out\ntag_12:\n    /* \"contracts/Hello.sol\":62:582  contract MyFirstContract{... */\n  dataSize(sub_0)\n  dup1\n  dataOffset(sub_0)\n  0x00\n  codecopy\n  0x00\n  return\nstop\n\nsub_0: assembly {\n        /* \"contracts/Hello.sol\":62:582  contract MyFirstContract{... */\n      mstore(0x40, 0x80)\n      callvalue\n      dup1\n      iszero\n      tag_1\n      jumpi\n      0x00\n      dup1\n      revert\n    tag_1:\n      pop\n      jumpi(tag_2, lt(calldatasize, 0x04))\n      shr(0xe0, calldataload(0x00))\n      dup1\n      0x43ba0cb1\n      gt\n      tag_12\n      jumpi\n      dup1\n      0x43ba0cb1\n      eq\n      tag_7\n      jumpi\n      dup1\n      0x4f2be91f\n      eq\n      tag_8\n      jumpi\n      dup1\n      0xa0d7afb7\n      eq\n      tag_9\n      jumpi\n      dup1\n      0xcc5ea9c3\n      eq\n      tag_10\n      jumpi\n      dup1\n      0xe3139a4d\n      eq\n      tag_11\n      jumpi\n      0x00\n      dup1\n      revert\n    tag_12:\n      dup1\n      0x16ada547\n      eq\n      tag_3\n      jumpi\n      dup1\n      0x16e64048\n      eq\n      tag_4\n      jumpi\n      dup1\n      0x2ca15122\n      eq\n      tag_5\n      jumpi\n      dup1\n      0x3e84b02f\n      eq\n      tag_6\n      jumpi\n    tag_2:\n      0x00\n      dup1\n      revert\n        /* \"contracts/Hello.sol\":198:215  uint public  time */\n    tag_3:\n      tag_13\n      sload(0x04)\n      dup2\n      jump\n    tag_13:\n      mload(0x40)\n        /* \"#utility.yul\":160:185   */\n      swap1\n      dup2\n      mstore\n        /* \"#utility.yul\":148:150   */\n      0x20\n        /* \"#utility.yul\":133:151   */\n      add\n        /* \"contracts/Hello.sol\":198:215  uint public  time */\n    tag_15:\n      mload(0x40)\n      dup1\n      swap2\n      sub\n      swap1\n      return\n        /* \"contracts/Hello.sol\":223:240  uint public  left */\n    tag_4:\n      tag_13\n      sload(0x05)\n      dup2\n      jump\n        /* \"contracts/Hello.sol\":276:295  bytes4 public  sign */\n    tag_5:\n      sload(0x06)\n      tag_20\n      swap1\n      shl(0xa0, 0x01)\n      swap1\n      div\n      0xe0\n      shl\n      dup2\n      jump\n    tag_20:\n      mload(0x40)\n      not(sub(shl(0xe0, 0x01), 0x01))\n        /* \"#utility.yul\":358:391   */\n      swap1\n      swap2\n      and\n        /* \"#utility.yul\":340:392   */\n      dup2\n      mstore\n        /* \"#utility.yul\":328:330   */\n      0x20\n        /* \"#utility.yul\":313:331   */\n      add\n        /* \"contracts/Hello.sol\":276:295  bytes4 public  sign */\n      tag_15\n        /* \"#utility.yul\":196:398   */\n      jump\n        /* \"contracts/Hello.sol\":169:191  bytes32 public  blkhsh */\n    tag_6:\n      tag_13\n      sload(0x03)\n      dup2\n      jump\n        /* \"contracts/Hello.sol\":303:321  bytes public  noww */\n    tag_7:\n      tag_28\n      tag_29\n      jump\t// in\n    tag_28:\n      mload(0x40)\n      tag_15\n      swap2\n      swap1\n      tag_31\n      jump\t// in\n        /* \"contracts/Hello.sol\":90:108  address public add */\n    tag_8:\n      sload(0x00)\n      tag_32\n      swap1\n      sub(shl(0xa0, 0x01), 0x01)\n      and\n      dup2\n      jump\n    tag_32:\n      mload(0x40)\n      sub(shl(0xa0, 0x01), 0x01)\n        /* \"#utility.yul\":1300:1332   */\n      swap1\n      swap2\n      and\n        /* \"#utility.yul\":1282:1333   */\n      dup2\n      mstore\n        /* \"#utility.yul\":1270:1272   */\n      0x20\n        /* \"#utility.yul\":1255:1273   */\n      add\n        /* \"contracts/Hello.sol\":90:108  address public add */\n      tag_15\n        /* \"#utility.yul\":1136:1339   */\n      jump\n        /* \"contracts/Hello.sol\":117:134  uint public  diff */\n    tag_9:\n      tag_13\n      sload(0x01)\n      dup2\n      jump\n        /* \"contracts/Hello.sol\":248:268  address public  here */\n    tag_10:\n      sload(0x06)\n      tag_32\n      swap1\n      sub(shl(0xa0, 0x01), 0x01)\n      and\n      dup2\n      jump\n        /* \"contracts/Hello.sol\":142:162  uint public  blknmbr */\n    tag_11:\n      tag_13\n      sload(0x02)\n      dup2\n      jump\n        /* \"contracts/Hello.sol\":303:321  bytes public  noww */\n    tag_29:\n      0x07\n      dup1\n      sload\n      tag_45\n      swap1\n      tag_46\n      jump\t// in\n    tag_45:\n      dup1\n      0x1f\n      add\n      0x20\n      dup1\n      swap2\n      div\n      mul\n      0x20\n      add\n      mload(0x40)\n      swap1\n      dup2\n      add\n      0x40\n      mstore\n      dup1\n      swap3\n      swap2\n      swap1\n      dup2\n      dup2\n      mstore\n      0x20\n      add\n      dup3\n      dup1\n      sload\n      tag_47\n      swap1\n      tag_46\n      jump\t// in\n    tag_47:\n      dup1\n      iszero\n      tag_48\n      jumpi\n      dup1\n      0x1f\n      lt\n      tag_49\n      jumpi\n      0x0100\n      dup1\n      dup4\n      sload\n      div\n      mul\n      dup4\n      mstore\n      swap2\n      0x20\n      add\n      swap2\n      jump(tag_48)\n    tag_49:\n      dup3\n      add\n      swap2\n      swap1\n      0x00\n      mstore\n      keccak256(0x00, 0x20)\n      swap1\n    tag_50:\n      dup2\n      sload\n      dup2\n      mstore\n      swap1\n      0x01\n      add\n      swap1\n      0x20\n      add\n      dup1\n      dup4\n      gt\n      tag_50\n      jumpi\n      dup3\n      swap1\n      sub\n      0x1f\n      and\n      dup3\n      add\n      swap2\n    tag_48:\n      pop\n      pop\n      pop\n      pop\n      pop\n      dup2\n      jump\t// out\n        /* \"#utility.yul\":585:1131   */\n    tag_31:\n        /* \"#utility.yul\":695:699   */\n      0x00\n        /* \"#utility.yul\":724:726   */\n      0x20\n        /* \"#utility.yul\":753:755   */\n      dup1\n        /* \"#utility.yul\":742:751   */\n      dup4\n        /* \"#utility.yul\":735:756   */\n      mstore\n        /* \"#utility.yul\":785:791   */\n      dup4\n        /* \"#utility.yul\":779:792   */\n      mload\n        /* \"#utility.yul\":828:834   */\n      dup1\n        /* \"#utility.yul\":823:825   */\n      0x20\n        /* \"#utility.yul\":812:821   */\n      dup6\n        /* \"#utility.yul\":808:826   */\n      add\n        /* \"#utility.yul\":801:835   */\n      mstore\n        /* \"#utility.yul\":853:854   */\n      0x00\n        /* \"#utility.yul\":863:1003   */\n    tag_56:\n        /* \"#utility.yul\":877:883   */\n      dup2\n        /* \"#utility.yul\":874:875   */\n      dup2\n        /* \"#utility.yul\":871:884   */\n      lt\n        /* \"#utility.yul\":863:1003   */\n      iszero\n      tag_58\n      jumpi\n        /* \"#utility.yul\":972:986   */\n      dup6\n      dup2\n      add\n        /* \"#utility.yul\":968:991   */\n      dup4\n      add\n        /* \"#utility.yul\":962:992   */\n      mload\n        /* \"#utility.yul\":938:955   */\n      dup6\n      dup3\n      add\n        /* \"#utility.yul\":957:959   */\n      0x40\n        /* \"#utility.yul\":934:960   */\n      add\n        /* \"#utility.yul\":927:993   */\n      mstore\n        /* \"#utility.yul\":892:902   */\n      dup3\n      add\n        /* \"#utility.yul\":863:1003   */\n      jump(tag_56)\n    tag_58:\n        /* \"#utility.yul\":867:870   */\n      pop\n        /* \"#utility.yul\":1052:1053   */\n      0x00\n        /* \"#utility.yul\":1047:1049   */\n      0x40\n        /* \"#utility.yul\":1038:1044   */\n      dup3\n        /* \"#utility.yul\":1027:1036   */\n      dup7\n        /* \"#utility.yul\":1023:1045   */\n      add\n        /* \"#utility.yul\":1019:1050   */\n      add\n        /* \"#utility.yul\":1012:1054   */\n      mstore\n        /* \"#utility.yul\":1122:1124   */\n      0x40\n        /* \"#utility.yul\":1115:1117   */\n      0x1f\n        /* \"#utility.yul\":1111:1118   */\n      not\n        /* \"#utility.yul\":1106:1108   */\n      0x1f\n        /* \"#utility.yul\":1098:1104   */\n      dup4\n        /* \"#utility.yul\":1094:1109   */\n      add\n        /* \"#utility.yul\":1090:1119   */\n      and\n        /* \"#utility.yul\":1079:1088   */\n      dup6\n        /* \"#utility.yul\":1075:1120   */\n      add\n        /* \"#utility.yul\":1071:1125   */\n      add\n        /* \"#utility.yul\":1063:1125   */\n      swap3\n      pop\n      pop\n      pop\n        /* \"#utility.yul\":585:1131   */\n      swap3\n      swap2\n      pop\n      pop\n      jump\t// out\n        /* \"#utility.yul\":1344:1724   */\n    tag_46:\n        /* \"#utility.yul\":1423:1424   */\n      0x01\n        /* \"#utility.yul\":1419:1431   */\n      dup2\n      dup2\n      shr\n      swap1\n        /* \"#utility.yul\":1466:1478   */\n      dup3\n      and\n      dup1\n        /* \"#utility.yul\":1487:1548   */\n      tag_61\n      jumpi\n        /* \"#utility.yul\":1541:1545   */\n      0x7f\n        /* \"#utility.yul\":1533:1539   */\n      dup3\n        /* \"#utility.yul\":1529:1546   */\n      and\n        /* \"#utility.yul\":1519:1546   */\n      swap2\n      pop\n        /* \"#utility.yul\":1487:1548   */\n    tag_61:\n        /* \"#utility.yul\":1594:1596   */\n      0x20\n        /* \"#utility.yul\":1586:1592   */\n      dup3\n        /* \"#utility.yul\":1583:1597   */\n      lt\n        /* \"#utility.yul\":1563:1581   */\n      dup2\n        /* \"#utility.yul\":1560:1598   */\n      sub\n        /* \"#utility.yul\":1557:1718   */\n      tag_62\n      jumpi\n        /* \"#utility.yul\":1640:1650   */\n      0x4e487b71\n        /* \"#utility.yul\":1635:1638   */\n      0xe0\n        /* \"#utility.yul\":1631:1651   */\n      shl\n        /* \"#utility.yul\":1628:1629   */\n      0x00\n        /* \"#utility.yul\":1621:1652   */\n      mstore\n        /* \"#utility.yul\":1675:1679   */\n      0x22\n        /* \"#utility.yul\":1672:1673   */\n      0x04\n        /* \"#utility.yul\":1665:1680   */\n      mstore\n        /* \"#utility.yul\":1703:1707   */\n      0x24\n        /* \"#utility.yul\":1700:1701   */\n      0x00\n        /* \"#utility.yul\":1693:1708   */\n      revert\n        /* \"#utility.yul\":1557:1718   */\n    tag_62:\n      pop\n        /* \"#utility.yul\":1344:1724   */\n      swap2\n      swap1\n      pop\n      jump\t// out\n\n    auxdata: 0xa26469706673582212207d2b6ac8372af2a0f7e1533fcf7caac99043f7134aa0ff12c3009e6c9541167264736f6c63430008170033\n}\n",
				"bytecode": {
					"linkReferences": {},
					"object": "608060405234801561000f575f80fd5b505f80546001600160a01b031916411790554460015543600281905540600355426004555a600555600680546001600160c01b0319163363ffffffff60a01b191617600160a01b5f803560e01c919091029190911790915560079061007690369083610114565b506101cd565b634e487b7160e01b5f52604160045260245ffd5b600181811c908216806100a457607f821691505b6020821081036100c257634e487b7160e01b5f52602260045260245ffd5b50919050565b601f82111561010f57805f5260205f20601f840160051c810160208510156100ed5750805b601f840160051c820191505b8181101561010c575f81556001016100f9565b50505b505050565b6001600160401b0383111561012b5761012b61007c565b61013f836101398354610090565b836100c8565b5f601f841160018114610170575f85156101595750838201355b5f19600387901b1c1916600186901b17835561010c565b5f83815260208120601f198716915b8281101561019f578685013582556020948501946001909201910161017f565b50868210156101bb575f1960f88860031b161c19848701351681555b505060018560011b0183555050505050565b610299806101da5f395ff3fe608060405234801561000f575f80fd5b5060043610610090575f3560e01c806343ba0cb11161006357806343ba0cb1146100ef5780634f2be91f14610104578063a0d7afb71461012e578063cc5ea9c314610137578063e3139a4d1461014a575f80fd5b806316ada5471461009457806316e64048146100b05780632ca15122146100b95780633e84b02f146100e6575b5f80fd5b61009d60045481565b6040519081526020015b60405180910390f35b61009d60055481565b6006546100cd90600160a01b900460e01b81565b6040516001600160e01b031990911681526020016100a7565b61009d60035481565b6100f7610153565b6040516100a791906101df565b5f54610116906001600160a01b031681565b6040516001600160a01b0390911681526020016100a7565b61009d60015481565b600654610116906001600160a01b031681565b61009d60025481565b600780546101609061022b565b80601f016020809104026020016040519081016040528092919081815260200182805461018c9061022b565b80156101d75780601f106101ae576101008083540402835291602001916101d7565b820191905f5260205f20905b8154815290600101906020018083116101ba57829003601f168201915b505050505081565b5f602080835283518060208501525f5b8181101561020b578581018301518582016040015282016101ef565b505f604082860101526040601f19601f8301168501019250505092915050565b600181811c9082168061023f57607f821691505b60208210810361025d57634e487b7160e01b5f52602260045260245ffd5b5091905056fea26469706673582212207d2b6ac8372af2a0f7e1533fcf7caac99043f7134aa0ff12c3009e6c9541167264736f6c63430008170033",
					"opcodes": "PUSH1 0x80 PUSH1 0x40 MSTORE CALLVALUE DUP1 ISZERO PUSH2 0xF JUMPI PUSH0 DUP1 REVERT JUMPDEST POP PUSH0 DUP1 SLOAD PUSH1 0x1 PUSH1 0x1 PUSH1 0xA0 SHL SUB NOT AND COINBASE OR SWAP1 SSTORE PREVRANDAO PUSH1 0x1 SSTORE NUMBER PUSH1 0x2 DUP2 SWAP1 SSTORE BLOCKHASH PUSH1 0x3 SSTORE TIMESTAMP PUSH1 0x4 SSTORE GAS PUSH1 0x5 SSTORE PUSH1 0x6 DUP1 SLOAD PUSH1 0x1 PUSH1 0x1 PUSH1 0xC0 SHL SUB NOT AND CALLER PUSH4 0xFFFFFFFF PUSH1 0xA0 SHL NOT AND OR PUSH1 0x1 PUSH1 0xA0 SHL PUSH0 DUP1 CALLDATALOAD PUSH1 0xE0 SHR SWAP2 SWAP1 SWAP2 MUL SWAP2 SWAP1 SWAP2 OR SWAP1 SWAP2 SSTORE PUSH1 0x7 SWAP1 PUSH2 0x76 SWAP1 CALLDATASIZE SWAP1 DUP4 PUSH2 0x114 JUMP JUMPDEST POP PUSH2 0x1CD JUMP JUMPDEST PUSH4 0x4E487B71 PUSH1 0xE0 SHL PUSH0 MSTORE PUSH1 0x41 PUSH1 0x4 MSTORE PUSH1 0x24 PUSH0 REVERT JUMPDEST PUSH1 0x1 DUP2 DUP2 SHR SWAP1 DUP3 AND DUP1 PUSH2 0xA4 JUMPI PUSH1 0x7F DUP3 AND SWAP2 POP JUMPDEST PUSH1 0x20 DUP3 LT DUP2 SUB PUSH2 0xC2 JUMPI PUSH4 0x4E487B71 PUSH1 0xE0 SHL PUSH0 MSTORE PUSH1 0x22 PUSH1 0x4 MSTORE PUSH1 0x24 PUSH0 REVERT JUMPDEST POP SWAP2 SWAP1 POP JUMP JUMPDEST PUSH1 0x1F DUP3 GT ISZERO PUSH2 0x10F JUMPI DUP1 PUSH0 MSTORE PUSH1 0x20 PUSH0 KECCAK256 PUSH1 0x1F DUP5 ADD PUSH1 0x5 SHR DUP2 ADD PUSH1 0x20 DUP6 LT ISZERO PUSH2 0xED JUMPI POP DUP1 JUMPDEST PUSH1 0x1F DUP5 ADD PUSH1 0x5 SHR DUP3 ADD SWAP2 POP JUMPDEST DUP2 DUP2 LT ISZERO PUSH2 0x10C JUMPI PUSH0 DUP2 SSTORE PUSH1 0x1 ADD PUSH2 0xF9 JUMP JUMPDEST POP POP JUMPDEST POP POP POP JUMP JUMPDEST PUSH1 0x1 PUSH1 0x1 PUSH1 0x40 SHL SUB DUP4 GT ISZERO PUSH2 0x12B JUMPI PUSH2 0x12B PUSH2 0x7C JUMP JUMPDEST PUSH2 0x13F DUP4 PUSH2 0x139 DUP4 SLOAD PUSH2 0x90 JUMP JUMPDEST DUP4 PUSH2 0xC8 JUMP JUMPDEST PUSH0 PUSH1 0x1F DUP5 GT PUSH1 0x1 DUP2 EQ PUSH2 0x170 JUMPI PUSH0 DUP6 ISZERO PUSH2 0x159 JUMPI POP DUP4 DUP3 ADD CALLDATALOAD JUMPDEST PUSH0 NOT PUSH1 0x3 DUP8 SWAP1 SHL SHR NOT AND PUSH1 0x1 DUP7 SWAP1 SHL OR DUP4 SSTORE PUSH2 0x10C JUMP JUMPDEST PUSH0 DUP4 DUP2 MSTORE PUSH1 0x20 DUP2 KECCAK256 PUSH1 0x1F NOT DUP8 AND SWAP2 JUMPDEST DUP3 DUP2 LT ISZERO PUSH2 0x19F JUMPI DUP7 DUP6 ADD CALLDATALOAD DUP3 SSTORE PUSH1 0x20 SWAP5 DUP6 ADD SWAP5 PUSH1 0x1 SWAP1 SWAP3 ADD SWAP2 ADD PUSH2 0x17F JUMP JUMPDEST POP DUP7 DUP3 LT ISZERO PUSH2 0x1BB JUMPI PUSH0 NOT PUSH1 0xF8 DUP9 PUSH1 0x3 SHL AND SHR NOT DUP5 DUP8 ADD CALLDATALOAD AND DUP2 SSTORE JUMPDEST POP POP PUSH1 0x1 DUP6 PUSH1 0x1 SHL ADD DUP4 SSTORE POP POP POP POP POP JUMP JUMPDEST PUSH2 0x299 DUP1 PUSH2 0x1DA PUSH0 CODECOPY PUSH0 RETURN INVALID PUSH1 0x80 PUSH1 0x40 MSTORE CALLVALUE DUP1 ISZERO PUSH2 0xF JUMPI PUSH0 DUP1 REVERT JUMPDEST POP PUSH1 0x4 CALLDATASIZE LT PUSH2 0x90 JUMPI PUSH0 CALLDATALOAD PUSH1 0xE0 SHR DUP1 PUSH4 0x43BA0CB1 GT PUSH2 0x63 JUMPI DUP1 PUSH4 0x43BA0CB1 EQ PUSH2 0xEF JUMPI DUP1 PUSH4 0x4F2BE91F EQ PUSH2 0x104 JUMPI DUP1 PUSH4 0xA0D7AFB7 EQ PUSH2 0x12E JUMPI DUP1 PUSH4 0xCC5EA9C3 EQ PUSH2 0x137 JUMPI DUP1 PUSH4 0xE3139A4D EQ PUSH2 0x14A JUMPI PUSH0 DUP1 REVERT JUMPDEST DUP1 PUSH4 0x16ADA547 EQ PUSH2 0x94 JUMPI DUP1 PUSH4 0x16E64048 EQ PUSH2 0xB0 JUMPI DUP1 PUSH4 0x2CA15122 EQ PUSH2 0xB9 JUMPI DUP1 PUSH4 0x3E84B02F EQ PUSH2 0xE6 JUMPI JUMPDEST PUSH0 DUP1 REVERT JUMPDEST PUSH2 0x9D PUSH1 0x4 SLOAD DUP2 JUMP JUMPDEST PUSH1 0x40 MLOAD SWAP1 DUP2 MSTORE PUSH1 0x20 ADD JUMPDEST PUSH1 0x40 MLOAD DUP1 SWAP2 SUB SWAP1 RETURN JUMPDEST PUSH2 0x9D PUSH1 0x5 SLOAD DUP2 JUMP JUMPDEST PUSH1 0x6 SLOAD PUSH2 0xCD SWAP1 PUSH1 0x1 PUSH1 0xA0 SHL SWAP1 DIV PUSH1 0xE0 SHL DUP2 JUMP JUMPDEST PUSH1 0x40 MLOAD PUSH1 0x1 PUSH1 0x1 PUSH1 0xE0 SHL SUB NOT SWAP1 SWAP2 AND DUP2 MSTORE PUSH1 0x20 ADD PUSH2 0xA7 JUMP JUMPDEST PUSH2 0x9D PUSH1 0x3 SLOAD DUP2 JUMP JUMPDEST PUSH2 0xF7 PUSH2 0x153 JUMP JUMPDEST PUSH1 0x40 MLOAD PUSH2 0xA7 SWAP2 SWAP1 PUSH2 0x1DF JUMP JUMPDEST PUSH0 SLOAD PUSH2 0x116 SWAP1 PUSH1 0x1 PUSH1 0x1 PUSH1 0xA0 SHL SUB AND DUP2 JUMP JUMPDEST PUSH1 0x40 MLOAD PUSH1 0x1 PUSH1 0x1 PUSH1 0xA0 SHL SUB SWAP1 SWAP2 AND DUP2 MSTORE PUSH1 0x20 ADD PUSH2 0xA7 JUMP JUMPDEST PUSH2 0x9D PUSH1 0x1 SLOAD DUP2 JUMP JUMPDEST PUSH1 0x6 SLOAD PUSH2 0x116 SWAP1 PUSH1 0x1 PUSH1 0x1 PUSH1 0xA0 SHL SUB AND DUP2 JUMP JUMPDEST PUSH2 0x9D PUSH1 0x2 SLOAD DUP2 JUMP JUMPDEST PUSH1 0x7 DUP1 SLOAD PUSH2 0x160 SWAP1 PUSH2 0x22B JUMP JUMPDEST DUP1 PUSH1 0x1F ADD PUSH1 0x20 DUP1 SWAP2 DIV MUL PUSH1 0x20 ADD PUSH1 0x40 MLOAD SWAP1 DUP2 ADD PUSH1 0x40 MSTORE DUP1 SWAP3 SWAP2 SWAP1 DUP2 DUP2 MSTORE PUSH1 0x20 ADD DUP3 DUP1 SLOAD PUSH2 0x18C SWAP1 PUSH2 0x22B JUMP JUMPDEST DUP1 ISZERO PUSH2 0x1D7 JUMPI DUP1 PUSH1 0x1F LT PUSH2 0x1AE JUMPI PUSH2 0x100 DUP1 DUP4 SLOAD DIV MUL DUP4 MSTORE SWAP2 PUSH1 0x20 ADD SWAP2 PUSH2 0x1D7 JUMP JUMPDEST DUP3 ADD SWAP2 SWAP1 PUSH0 MSTORE PUSH1 0x20 PUSH0 KECCAK256 SWAP1 JUMPDEST DUP2 SLOAD DUP2 MSTORE SWAP1 PUSH1 0x1 ADD SWAP1 PUSH1 0x20 ADD DUP1 DUP4 GT PUSH2 0x1BA JUMPI DUP3 SWAP1 SUB PUSH1 0x1F AND DUP3 ADD SWAP2 JUMPDEST POP POP POP POP POP DUP2 JUMP JUMPDEST PUSH0 PUSH1 0x20 DUP1 DUP4 MSTORE DUP4 MLOAD DUP1 PUSH1 0x20 DUP6 ADD MSTORE PUSH0 JUMPDEST DUP2 DUP2 LT ISZERO PUSH2 0x20B JUMPI DUP6 DUP2 ADD DUP4 ADD MLOAD DUP6 DUP3 ADD PUSH1 0x40 ADD MSTORE DUP3 ADD PUSH2 0x1EF JUMP JUMPDEST POP PUSH0 PUSH1 0x40 DUP3 DUP7 ADD ADD MSTORE PUSH1 0x40 PUSH1 0x1F NOT PUSH1 0x1F DUP4 ADD AND DUP6 ADD ADD SWAP3 POP POP POP SWAP3 SWAP2 POP POP JUMP JUMPDEST PUSH1 0x1 DUP2 DUP2 SHR SWAP1 DUP3 AND DUP1 PUSH2 0x23F JUMPI PUSH1 0x7F DUP3 AND SWAP2 POP JUMPDEST PUSH1 0x20 DUP3 LT DUP2 SUB PUSH2 0x25D JUMPI PUSH4 0x4E487B71 PUSH1 0xE0 SHL PUSH0 MSTORE PUSH1 0x22 PUSH1 0x4 MSTORE PUSH1 0x24 PUSH0 REVERT JUMPDEST POP SWAP2 SWAP1 POP JUMP INVALID LOG2 PUSH5 0x6970667358 0x22 SLT KECCAK256 PUSH30 0x2B6AC8372AF2A0F7E1533FCF7CAAC99043F7134AA0FF12C3009E6C954116 PUSH19 0x64736F6C634300081700330000000000000000 "
				},
				"gasEstimates": {
					"creation": {
						"codeDepositCost": "133000",
						"executionCost": "infinite",
						"totalCost": "infinite"
					},
					"external": {
						"add()": "2357",
						"blkhsh()": "2350",
						"blknmbr()": "2371",
						"diff()": "2327",
						"here()": "2402",
						"left()": "2306",
						"noww()": "infinite",
						"sign()": "2389",
						"time()": "2284"
					}
				},
				"methodIdentifiers": {
					"add()": "4f2be91f",
					"blkhsh()": "3e84b02f",
					"blknmbr()": "e3139a4d",
					"diff()": "a0d7afb7",
					"here()": "cc5ea9c3",
					"left()": "16e64048",
					"noww()": "43ba0cb1",
					"sign()": "2ca15122",
					"time()": "16ada547"
				}
			},
			"storageLayout": {
				"storage": [
					{
						"astId": 3,
						"contract": "contracts/Hello.sol:MyFirstContract",
						"label": "add",
						"offset": 0,
						"slot": "0",
						"type": "t_address"
					},
					{
						"astId": 5,
						"contract": "contracts/Hello.sol:MyFirstContract",
						"label": "diff",
						"offset": 0,
						"slot": "1",
						"type": "t_uint256"
					},
					{
						"astId": 7,
						"contract": "contracts/Hello.sol:MyFirstContract",
						"label": "blknmbr",
						"offset": 0,
						"slot": "2",
						"type": "t_uint256"
					},
					{
						"astId": 9,
						"contract": "contracts/Hello.sol:MyFirstContract",
						"label": "blkhsh",
						"offset": 0,
						"slot": "3",
						"type": "t_bytes32"
					},
					{
						"astId": 11,
						"contract": "contracts/Hello.sol:MyFirstContract",
						"label": "time",
						"offset": 0,
						"slot": "4",
						"type": "t_uint256"
					},
					{
						"astId": 13,
						"contract": "contracts/Hello.sol:MyFirstContract",
						"label": "left",
						"offset": 0,
						"slot": "5",
						"type": "t_uint256"
					},
					{
						"astId": 15,
						"contract": "contracts/Hello.sol:MyFirstContract",
						"label": "here",
						"offset": 0,
						"slot": "6",
						"type": "t_address"
					},
					{
						"astId": 17,
						"contract": "contracts/Hello.sol:MyFirstContract",
						"label": "sign",
						"offset": 20,
						"slot": "6",
						"type": "t_bytes4"
					},
					{
						"astId": 19,
						"contract": "contracts/Hello.sol:MyFirstContract",
						"label": "noww",
						"offset": 0,
						"slot": "7",
						"type": "t_bytes_storage"
					}
				],
				"types": {
					"t_address": {
						"encoding": "inplace",
						"label": "address",
						"numberOfBytes": "20"
					},
					"t_bytes32": {
						"encoding": "inplace",
						"label": "bytes32",
						"numberOfBytes": "32"
					},
					"t_bytes4": {
						"encoding": "inplace",
						"label": "bytes4",
						"numberOfBytes": "4"
					},
					"t_bytes_storage": {
						"encoding": "bytes",
						"label": "bytes",
						"numberOfBytes": "32"
					},
					"t_uint256": {
						"encoding": "inplace",
						"label": "uint256",
						"numberOfBytes": "32"
					}
				}
			},
			"userdoc": {
				"kind": "user",
				"methods": {},
				"version": 1
			}
		}
	}
}