{
	"contracts/tryCatch.sol": {
		"TryCatch": {
			"abi": [
				{
					"inputs": [],
					"stateMutability": "nonpayable",
					"type": "constructor"
				},
				{
					"anonymous": false,
					"inputs": [
						{
							"indexed": false,
							"internalType": "bytes",
							"name": "data",
							"type": "bytes"
						}
					],
					"name": "Response",
					"type": "event"
				},
				{
					"anonymous": false,
					"inputs": [
						{
							"indexed": false,
							"internalType": "string",
							"name": "message",
							"type": "string"
						}
					],
					"name": "log",
					"type": "event"
				},
				{
					"inputs": [],
					"name": "normi",
					"outputs": [
						{
							"internalType": "contract Normal",
							"name": "",
							"type": "address"
						}
					],
					"stateMutability": "view",
					"type": "function"
				},
				{
					"inputs": [
						{
							"internalType": "uint256",
							"name": "_i",
							"type": "uint256"
						}
					],
					"name": "tryCatchExternalCall",
					"outputs": [],
					"stateMutability": "nonpayable",
					"type": "function"
				},
				{
					"inputs": [
						{
							"internalType": "address",
							"name": "_addr",
							"type": "address"
						}
					],
					"name": "tryCatchNewContract",
					"outputs": [],
					"stateMutability": "nonpayable",
					"type": "function"
				}
			],
			"devdoc": {
				"kind": "dev",
				"methods": {},
				"version": 1
			},
			"evm": {
				"assembly": "    /* \"contracts/tryCatch.sol\":441:1146  contract TryCatch{... */\n  mstore(0x40, 0x80)\n    /* \"contracts/tryCatch.sol\":556:613  constructor(){... */\n  callvalue\n  dup1\n  iszero\n  tag_1\n  jumpi\n  0x00\n  dup1\n  revert\ntag_1:\n  pop\n    /* \"contracts/tryCatch.sol\":593:603  msg.sender */\n  caller\n    /* \"contracts/tryCatch.sol\":582:604  new Normal(msg.sender) */\n  mload(0x40)\n  tag_4\n  swap1\n  tag_5\n  jump\t// in\ntag_4:\n  tag_6\n  swap2\n  swap1\n  tag_7\n  jump\t// in\ntag_6:\n  mload(0x40)\n  dup1\n  swap2\n  sub\n  swap1\n  0x00\n  create\n  dup1\n  iszero\n  dup1\n  iszero\n  tag_8\n  jumpi\n  returndatasize\n  0x00\n  dup1\n  returndatacopy\n  revert(0x00, returndatasize)\ntag_8:\n  pop\n    /* \"contracts/tryCatch.sol\":576:581  normi */\n  0x00\n  dup1\n    /* \"contracts/tryCatch.sol\":576:604  normi=new Normal(msg.sender) */\n  0x0100\n  exp\n  dup2\n  sload\n  dup2\n  0xffffffffffffffffffffffffffffffffffffffff\n  mul\n  not\n  and\n  swap1\n  dup4\n  0xffffffffffffffffffffffffffffffffffffffff\n  and\n  mul\n  or\n  swap1\n  sstore\n  pop\n    /* \"contracts/tryCatch.sol\":441:1146  contract TryCatch{... */\n  jump(tag_9)\ntag_5:\n  dataSize(sub_1)\n  dup1\n  dataOffset(sub_1)\n  dup4\n  codecopy\n  add\n  swap1\n  jump\t// out\n    /* \"#utility.yul\":7:133   */\ntag_10:\n    /* \"#utility.yul\":44:51   */\n  0x00\n    /* \"#utility.yul\":84:126   */\n  0xffffffffffffffffffffffffffffffffffffffff\n    /* \"#utility.yul\":77:82   */\n  dup3\n    /* \"#utility.yul\":73:127   */\n  and\n    /* \"#utility.yul\":62:127   */\n  swap1\n  pop\n    /* \"#utility.yul\":7:133   */\n  swap2\n  swap1\n  pop\n  jump\t// out\n    /* \"#utility.yul\":139:235   */\ntag_11:\n    /* \"#utility.yul\":176:183   */\n  0x00\n    /* \"#utility.yul\":205:229   */\n  tag_16\n    /* \"#utility.yul\":223:228   */\n  dup3\n    /* \"#utility.yul\":205:229   */\n  tag_10\n  jump\t// in\ntag_16:\n    /* \"#utility.yul\":194:229   */\n  swap1\n  pop\n    /* \"#utility.yul\":139:235   */\n  swap2\n  swap1\n  pop\n  jump\t// out\n    /* \"#utility.yul\":241:359   */\ntag_12:\n    /* \"#utility.yul\":328:352   */\n  tag_18\n    /* \"#utility.yul\":346:351   */\n  dup2\n    /* \"#utility.yul\":328:352   */\n  tag_11\n  jump\t// in\ntag_18:\n    /* \"#utility.yul\":323:326   */\n  dup3\n    /* \"#utility.yul\":316:353   */\n  mstore\n    /* \"#utility.yul\":241:359   */\n  pop\n  pop\n  jump\t// out\n    /* \"#utility.yul\":365:587   */\ntag_7:\n    /* \"#utility.yul\":458:462   */\n  0x00\n    /* \"#utility.yul\":496:498   */\n  0x20\n    /* \"#utility.yul\":485:494   */\n  dup3\n    /* \"#utility.yul\":481:499   */\n  add\n    /* \"#utility.yul\":473:499   */\n  swap1\n  pop\n    /* \"#utility.yul\":509:580   */\n  tag_20\n    /* \"#utility.yul\":577:578   */\n  0x00\n    /* \"#utility.yul\":566:575   */\n  dup4\n    /* \"#utility.yul\":562:579   */\n  add\n    /* \"#utility.yul\":553:559   */\n  dup5\n    /* \"#utility.yul\":509:580   */\n  tag_12\n  jump\t// in\ntag_20:\n    /* \"#utility.yul\":365:587   */\n  swap3\n  swap2\n  pop\n  pop\n  jump\t// out\n    /* \"contracts/tryCatch.sol\":441:1146  contract TryCatch{... */\ntag_9:\n  dataSize(sub_0)\n  dup1\n  dataOffset(sub_0)\n  0x00\n  codecopy\n  0x00\n  return\nstop\n\nsub_0: assembly {\n        /* \"contracts/tryCatch.sol\":441:1146  contract TryCatch{... */\n      mstore(0x40, 0x80)\n      callvalue\n      dup1\n      iszero\n      tag_1\n      jumpi\n      0x00\n      dup1\n      revert\n    tag_1:\n      pop\n      jumpi(tag_2, lt(calldatasize, 0x04))\n      shr(0xe0, calldataload(0x00))\n      dup1\n      0x77bdab83\n      eq\n      tag_3\n      jumpi\n      dup1\n      0x933ac084\n      eq\n      tag_4\n      jumpi\n      dup1\n      0xb131b300\n      eq\n      tag_5\n      jumpi\n    tag_2:\n      0x00\n      dup1\n      revert\n        /* \"contracts/tryCatch.sol\":830:1131  function tryCatchNewContract(address _addr)public {... */\n    tag_3:\n      tag_6\n      0x04\n      dup1\n      calldatasize\n      sub\n      dup2\n      add\n      swap1\n      tag_7\n      swap2\n      swap1\n      tag_8\n      jump\t// in\n    tag_7:\n      tag_9\n      jump\t// in\n    tag_6:\n      stop\n        /* \"contracts/tryCatch.sol\":618:828  function tryCatchExternalCall(uint _i) public {... */\n    tag_4:\n      tag_10\n      0x04\n      dup1\n      calldatasize\n      sub\n      dup2\n      add\n      swap1\n      tag_11\n      swap2\n      swap1\n      tag_12\n      jump\t// in\n    tag_11:\n      tag_13\n      jump\t// in\n    tag_10:\n      stop\n        /* \"contracts/tryCatch.sol\":530:550  Normal public  normi */\n    tag_5:\n      tag_14\n      tag_15\n      jump\t// in\n    tag_14:\n      mload(0x40)\n      tag_16\n      swap2\n      swap1\n      tag_17\n      jump\t// in\n    tag_16:\n      mload(0x40)\n      dup1\n      swap2\n      sub\n      swap1\n      return\n        /* \"contracts/tryCatch.sol\":830:1131  function tryCatchNewContract(address _addr)public {... */\n    tag_9:\n        /* \"contracts/tryCatch.sol\":902:907  _addr */\n      dup1\n        /* \"contracts/tryCatch.sol\":891:908  new Normal(_addr) */\n      mload(0x40)\n      tag_19\n      swap1\n      tag_20\n      jump\t// in\n    tag_19:\n      tag_21\n      swap2\n      swap1\n      tag_22\n      jump\t// in\n    tag_21:\n      mload(0x40)\n      dup1\n      swap2\n      sub\n      swap1\n      0x00\n      create\n      dup1\n      iszero\n      tag_23\n      jumpi\n      0x01\n    tag_23:\n        /* \"contracts/tryCatch.sol\":887:1128  try new Normal(_addr) returns (Normal norm){... */\n      tag_24\n      jumpi\n      tag_28\n      tag_29\n      jump\t// in\n    tag_28:\n      dup1\n      0x08c379a0\n      sub\n      tag_27\n      jumpi\n      pop\n      tag_30\n      tag_31\n      jump\t// in\n    tag_30:\n      dup1\n      tag_32\n      jumpi\n      pop\n      jump(tag_26)\n    tag_32:\n        /* \"contracts/tryCatch.sol\":1036:1047  log(result) */\n      0x41304facd9323d75b11bcdd609cb38effffdb05710f7caf0e9b16c6d9d709f50\n        /* \"contracts/tryCatch.sol\":1040:1046  result */\n      dup2\n        /* \"contracts/tryCatch.sol\":1036:1047  log(result) */\n      mload(0x40)\n      tag_33\n      swap2\n      swap1\n      tag_34\n      jump\t// in\n    tag_33:\n      mload(0x40)\n      dup1\n      swap2\n      sub\n      swap1\n      log1\n        /* \"contracts/tryCatch.sol\":987:1055  catch Error(string memory result){... */\n      pop\n        /* \"contracts/tryCatch.sol\":887:1128  try new Normal(_addr) returns (Normal norm){... */\n      jump(tag_25)\n    tag_27:\n      pop\n    tag_26:\n      returndatasize\n      dup1\n      0x00\n      dup2\n      eq\n      tag_36\n      jumpi\n      mload(0x40)\n      swap2\n      pop\n      and(add(returndatasize, 0x3f), not(0x1f))\n      dup3\n      add\n      0x40\n      mstore\n      returndatasize\n      dup3\n      mstore\n      returndatasize\n      0x00\n      0x20\n      dup5\n      add\n      returndatacopy\n      jump(tag_35)\n    tag_36:\n      0x60\n      swap2\n      pop\n    tag_35:\n      pop\n        /* \"contracts/tryCatch.sol\":1104:1120  Response(result) */\n      0x93864668e00bfeb0cafee67ab7145a622ae39e8045304432e9a0bfb97cc04d46\n        /* \"contracts/tryCatch.sol\":1113:1119  result */\n      dup2\n        /* \"contracts/tryCatch.sol\":1104:1120  Response(result) */\n      mload(0x40)\n      tag_37\n      swap2\n      swap1\n      tag_38\n      jump\t// in\n    tag_37:\n      mload(0x40)\n      dup1\n      swap2\n      sub\n      swap1\n      log1\n        /* \"contracts/tryCatch.sol\":1061:1128  catch (bytes memory result){... */\n      pop\n        /* \"contracts/tryCatch.sol\":887:1128  try new Normal(_addr) returns (Normal norm){... */\n    tag_25:\n      jump(tag_39)\n    tag_24:\n        /* \"contracts/tryCatch.sol\":946:973  log(\"my function createrd\") */\n      0x41304facd9323d75b11bcdd609cb38effffdb05710f7caf0e9b16c6d9d709f50\n      mload(0x40)\n      tag_40\n      swap1\n      tag_41\n      jump\t// in\n    tag_40:\n      mload(0x40)\n      dup1\n      swap2\n      sub\n      swap1\n      log1\n        /* \"contracts/tryCatch.sol\":909:981  returns (Normal norm){... */\n      pop\n        /* \"contracts/tryCatch.sol\":887:1128  try new Normal(_addr) returns (Normal norm){... */\n    tag_39:\n        /* \"contracts/tryCatch.sol\":830:1131  function tryCatchNewContract(address _addr)public {... */\n      pop\n      jump\t// out\n        /* \"contracts/tryCatch.sol\":618:828  function tryCatchExternalCall(uint _i) public {... */\n    tag_13:\n        /* \"contracts/tryCatch.sol\":675:680  normi */\n      0x00\n      dup1\n      sload\n      swap1\n      0x0100\n      exp\n      swap1\n      div\n      0xffffffffffffffffffffffffffffffffffffffff\n      and\n        /* \"contracts/tryCatch.sol\":675:687  normi.myFunc */\n      0xffffffffffffffffffffffffffffffffffffffff\n      and\n      0xa9bf5633\n        /* \"contracts/tryCatch.sol\":688:690  _i */\n      dup3\n        /* \"contracts/tryCatch.sol\":675:691  normi.myFunc(_i) */\n      mload(0x40)\n      dup3\n      0xffffffff\n      and\n      0xe0\n      shl\n      dup2\n      mstore\n      0x04\n      add\n      tag_43\n      swap2\n      swap1\n      tag_44\n      jump\t// in\n    tag_43:\n      0x00\n      mload(0x40)\n      dup1\n      dup4\n      sub\n      dup2\n      dup7\n      gas\n      staticcall\n      swap3\n      pop\n      pop\n      pop\n      dup1\n      iszero\n      tag_45\n      jumpi\n      pop\n      mload(0x40)\n      returndatasize\n      0x00\n      dup3\n      returndatacopy\n      returndatasize\n      not(0x1f)\n      0x1f\n      dup3\n      add\n      and\n      dup3\n      add\n      dup1\n      0x40\n      mstore\n      pop\n      dup2\n      add\n      swap1\n      tag_46\n      swap2\n      swap1\n      tag_47\n      jump\t// in\n    tag_46:\n      0x01\n    tag_45:\n        /* \"contracts/tryCatch.sol\":671:822  try normi.myFunc(_i) returns (string memory result){... */\n      tag_48\n      jumpi\n        /* \"contracts/tryCatch.sol\":785:814  log(\"ecternal called failed\") */\n      0x41304facd9323d75b11bcdd609cb38effffdb05710f7caf0e9b16c6d9d709f50\n      mload(0x40)\n      tag_52\n      swap1\n      tag_53\n      jump\t// in\n    tag_52:\n      mload(0x40)\n      dup1\n      swap2\n      sub\n      swap1\n      log1\n        /* \"contracts/tryCatch.sol\":671:822  try normi.myFunc(_i) returns (string memory result){... */\n      jump(tag_54)\n    tag_48:\n        /* \"contracts/tryCatch.sol\":738:749  log(result) */\n      0x41304facd9323d75b11bcdd609cb38effffdb05710f7caf0e9b16c6d9d709f50\n        /* \"contracts/tryCatch.sol\":742:748  result */\n      dup2\n        /* \"contracts/tryCatch.sol\":738:749  log(result) */\n      mload(0x40)\n      tag_55\n      swap2\n      swap1\n      tag_34\n      jump\t// in\n    tag_55:\n      mload(0x40)\n      dup1\n      swap2\n      sub\n      swap1\n      log1\n        /* \"contracts/tryCatch.sol\":692:757  returns (string memory result){... */\n      pop\n        /* \"contracts/tryCatch.sol\":671:822  try normi.myFunc(_i) returns (string memory result){... */\n    tag_54:\n        /* \"contracts/tryCatch.sol\":618:828  function tryCatchExternalCall(uint _i) public {... */\n      pop\n      jump\t// out\n        /* \"contracts/tryCatch.sol\":530:550  Normal public  normi */\n    tag_15:\n      0x00\n      dup1\n      sload\n      swap1\n      0x0100\n      exp\n      swap1\n      div\n      0xffffffffffffffffffffffffffffffffffffffff\n      and\n      dup2\n      jump\t// out\n    tag_20:\n      dataSize(sub_0)\n      dup1\n      dataOffset(sub_0)\n      dup4\n      codecopy\n      add\n      swap1\n      jump\t// out\n        /* \"#utility.yul\":7:82   */\n    tag_56:\n        /* \"#utility.yul\":40:46   */\n      0x00\n        /* \"#utility.yul\":73:75   */\n      0x40\n        /* \"#utility.yul\":67:76   */\n      mload\n        /* \"#utility.yul\":57:76   */\n      swap1\n      pop\n        /* \"#utility.yul\":7:82   */\n      swap1\n      jump\t// out\n        /* \"#utility.yul\":88:205   */\n    tag_57:\n        /* \"#utility.yul\":197:198   */\n      0x00\n        /* \"#utility.yul\":194:195   */\n      dup1\n        /* \"#utility.yul\":187:199   */\n      revert\n        /* \"#utility.yul\":211:328   */\n    tag_58:\n        /* \"#utility.yul\":320:321   */\n      0x00\n        /* \"#utility.yul\":317:318   */\n      dup1\n        /* \"#utility.yul\":310:322   */\n      revert\n        /* \"#utility.yul\":334:460   */\n    tag_59:\n        /* \"#utility.yul\":371:378   */\n      0x00\n        /* \"#utility.yul\":411:453   */\n      0xffffffffffffffffffffffffffffffffffffffff\n        /* \"#utility.yul\":404:409   */\n      dup3\n        /* \"#utility.yul\":400:454   */\n      and\n        /* \"#utility.yul\":389:454   */\n      swap1\n      pop\n        /* \"#utility.yul\":334:460   */\n      swap2\n      swap1\n      pop\n      jump\t// out\n        /* \"#utility.yul\":466:562   */\n    tag_60:\n        /* \"#utility.yul\":503:510   */\n      0x00\n        /* \"#utility.yul\":532:556   */\n      tag_100\n        /* \"#utility.yul\":550:555   */\n      dup3\n        /* \"#utility.yul\":532:556   */\n      tag_59\n      jump\t// in\n    tag_100:\n        /* \"#utility.yul\":521:556   */\n      swap1\n      pop\n        /* \"#utility.yul\":466:562   */\n      swap2\n      swap1\n      pop\n      jump\t// out\n        /* \"#utility.yul\":568:690   */\n    tag_61:\n        /* \"#utility.yul\":641:665   */\n      tag_102\n        /* \"#utility.yul\":659:664   */\n      dup2\n        /* \"#utility.yul\":641:665   */\n      tag_60\n      jump\t// in\n    tag_102:\n        /* \"#utility.yul\":634:639   */\n      dup2\n        /* \"#utility.yul\":631:666   */\n      eq\n        /* \"#utility.yul\":621:684   */\n      tag_103\n      jumpi\n        /* \"#utility.yul\":680:681   */\n      0x00\n        /* \"#utility.yul\":677:678   */\n      dup1\n        /* \"#utility.yul\":670:682   */\n      revert\n        /* \"#utility.yul\":621:684   */\n    tag_103:\n        /* \"#utility.yul\":568:690   */\n      pop\n      jump\t// out\n        /* \"#utility.yul\":696:835   */\n    tag_62:\n        /* \"#utility.yul\":742:747   */\n      0x00\n        /* \"#utility.yul\":780:786   */\n      dup2\n        /* \"#utility.yul\":767:787   */\n      calldataload\n        /* \"#utility.yul\":758:787   */\n      swap1\n      pop\n        /* \"#utility.yul\":796:829   */\n      tag_105\n        /* \"#utility.yul\":823:828   */\n      dup2\n        /* \"#utility.yul\":796:829   */\n      tag_61\n      jump\t// in\n    tag_105:\n        /* \"#utility.yul\":696:835   */\n      swap3\n      swap2\n      pop\n      pop\n      jump\t// out\n        /* \"#utility.yul\":841:1170   */\n    tag_8:\n        /* \"#utility.yul\":900:906   */\n      0x00\n        /* \"#utility.yul\":949:951   */\n      0x20\n        /* \"#utility.yul\":937:946   */\n      dup3\n        /* \"#utility.yul\":928:935   */\n      dup5\n        /* \"#utility.yul\":924:947   */\n      sub\n        /* \"#utility.yul\":920:952   */\n      slt\n        /* \"#utility.yul\":917:1036   */\n      iszero\n      tag_107\n      jumpi\n        /* \"#utility.yul\":955:1034   */\n      tag_108\n      tag_57\n      jump\t// in\n    tag_108:\n        /* \"#utility.yul\":917:1036   */\n    tag_107:\n        /* \"#utility.yul\":1075:1076   */\n      0x00\n        /* \"#utility.yul\":1100:1153   */\n      tag_109\n        /* \"#utility.yul\":1145:1152   */\n      dup5\n        /* \"#utility.yul\":1136:1142   */\n      dup3\n        /* \"#utility.yul\":1125:1134   */\n      dup6\n        /* \"#utility.yul\":1121:1143   */\n      add\n        /* \"#utility.yul\":1100:1153   */\n      tag_62\n      jump\t// in\n    tag_109:\n        /* \"#utility.yul\":1090:1153   */\n      swap2\n      pop\n        /* \"#utility.yul\":1046:1163   */\n      pop\n        /* \"#utility.yul\":841:1170   */\n      swap3\n      swap2\n      pop\n      pop\n      jump\t// out\n        /* \"#utility.yul\":1176:1253   */\n    tag_63:\n        /* \"#utility.yul\":1213:1220   */\n      0x00\n        /* \"#utility.yul\":1242:1247   */\n      dup2\n        /* \"#utility.yul\":1231:1247   */\n      swap1\n      pop\n        /* \"#utility.yul\":1176:1253   */\n      swap2\n      swap1\n      pop\n      jump\t// out\n        /* \"#utility.yul\":1259:1381   */\n    tag_64:\n        /* \"#utility.yul\":1332:1356   */\n      tag_112\n        /* \"#utility.yul\":1350:1355   */\n      dup2\n        /* \"#utility.yul\":1332:1356   */\n      tag_63\n      jump\t// in\n    tag_112:\n        /* \"#utility.yul\":1325:1330   */\n      dup2\n        /* \"#utility.yul\":1322:1357   */\n      eq\n        /* \"#utility.yul\":1312:1375   */\n      tag_113\n      jumpi\n        /* \"#utility.yul\":1371:1372   */\n      0x00\n        /* \"#utility.yul\":1368:1369   */\n      dup1\n        /* \"#utility.yul\":1361:1373   */\n      revert\n        /* \"#utility.yul\":1312:1375   */\n    tag_113:\n        /* \"#utility.yul\":1259:1381   */\n      pop\n      jump\t// out\n        /* \"#utility.yul\":1387:1526   */\n    tag_65:\n        /* \"#utility.yul\":1433:1438   */\n      0x00\n        /* \"#utility.yul\":1471:1477   */\n      dup2\n        /* \"#utility.yul\":1458:1478   */\n      calldataload\n        /* \"#utility.yul\":1449:1478   */\n      swap1\n      pop\n        /* \"#utility.yul\":1487:1520   */\n      tag_115\n        /* \"#utility.yul\":1514:1519   */\n      dup2\n        /* \"#utility.yul\":1487:1520   */\n      tag_64\n      jump\t// in\n    tag_115:\n        /* \"#utility.yul\":1387:1526   */\n      swap3\n      swap2\n      pop\n      pop\n      jump\t// out\n        /* \"#utility.yul\":1532:1861   */\n    tag_12:\n        /* \"#utility.yul\":1591:1597   */\n      0x00\n        /* \"#utility.yul\":1640:1642   */\n      0x20\n        /* \"#utility.yul\":1628:1637   */\n      dup3\n        /* \"#utility.yul\":1619:1626   */\n      dup5\n        /* \"#utility.yul\":1615:1638   */\n      sub\n        /* \"#utility.yul\":1611:1643   */\n      slt\n        /* \"#utility.yul\":1608:1727   */\n      iszero\n      tag_117\n      jumpi\n        /* \"#utility.yul\":1646:1725   */\n      tag_118\n      tag_57\n      jump\t// in\n    tag_118:\n        /* \"#utility.yul\":1608:1727   */\n    tag_117:\n        /* \"#utility.yul\":1766:1767   */\n      0x00\n        /* \"#utility.yul\":1791:1844   */\n      tag_119\n        /* \"#utility.yul\":1836:1843   */\n      dup5\n        /* \"#utility.yul\":1827:1833   */\n      dup3\n        /* \"#utility.yul\":1816:1825   */\n      dup6\n        /* \"#utility.yul\":1812:1834   */\n      add\n        /* \"#utility.yul\":1791:1844   */\n      tag_65\n      jump\t// in\n    tag_119:\n        /* \"#utility.yul\":1781:1844   */\n      swap2\n      pop\n        /* \"#utility.yul\":1737:1854   */\n      pop\n        /* \"#utility.yul\":1532:1861   */\n      swap3\n      swap2\n      pop\n      pop\n      jump\t// out\n        /* \"#utility.yul\":1867:1927   */\n    tag_66:\n        /* \"#utility.yul\":1895:1898   */\n      0x00\n        /* \"#utility.yul\":1916:1921   */\n      dup2\n        /* \"#utility.yul\":1909:1921   */\n      swap1\n      pop\n        /* \"#utility.yul\":1867:1927   */\n      swap2\n      swap1\n      pop\n      jump\t// out\n        /* \"#utility.yul\":1933:2075   */\n    tag_67:\n        /* \"#utility.yul\":1983:1992   */\n      0x00\n        /* \"#utility.yul\":2016:2069   */\n      tag_122\n        /* \"#utility.yul\":2034:2068   */\n      tag_123\n        /* \"#utility.yul\":2043:2067   */\n      tag_124\n        /* \"#utility.yul\":2061:2066   */\n      dup5\n        /* \"#utility.yul\":2043:2067   */\n      tag_59\n      jump\t// in\n    tag_124:\n        /* \"#utility.yul\":2034:2068   */\n      tag_66\n      jump\t// in\n    tag_123:\n        /* \"#utility.yul\":2016:2069   */\n      tag_59\n      jump\t// in\n    tag_122:\n        /* \"#utility.yul\":2003:2069   */\n      swap1\n      pop\n        /* \"#utility.yul\":1933:2075   */\n      swap2\n      swap1\n      pop\n      jump\t// out\n        /* \"#utility.yul\":2081:2207   */\n    tag_68:\n        /* \"#utility.yul\":2131:2140   */\n      0x00\n        /* \"#utility.yul\":2164:2201   */\n      tag_126\n        /* \"#utility.yul\":2195:2200   */\n      dup3\n        /* \"#utility.yul\":2164:2201   */\n      tag_67\n      jump\t// in\n    tag_126:\n        /* \"#utility.yul\":2151:2201   */\n      swap1\n      pop\n        /* \"#utility.yul\":2081:2207   */\n      swap2\n      swap1\n      pop\n      jump\t// out\n        /* \"#utility.yul\":2213:2352   */\n    tag_69:\n        /* \"#utility.yul\":2276:2285   */\n      0x00\n        /* \"#utility.yul\":2309:2346   */\n      tag_128\n        /* \"#utility.yul\":2340:2345   */\n      dup3\n        /* \"#utility.yul\":2309:2346   */\n      tag_68\n      jump\t// in\n    tag_128:\n        /* \"#utility.yul\":2296:2346   */\n      swap1\n      pop\n        /* \"#utility.yul\":2213:2352   */\n      swap2\n      swap1\n      pop\n      jump\t// out\n        /* \"#utility.yul\":2358:2515   */\n    tag_70:\n        /* \"#utility.yul\":2458:2508   */\n      tag_130\n        /* \"#utility.yul\":2502:2507   */\n      dup2\n        /* \"#utility.yul\":2458:2508   */\n      tag_69\n      jump\t// in\n    tag_130:\n        /* \"#utility.yul\":2453:2456   */\n      dup3\n        /* \"#utility.yul\":2446:2509   */\n      mstore\n        /* \"#utility.yul\":2358:2515   */\n      pop\n      pop\n      jump\t// out\n        /* \"#utility.yul\":2521:2769   */\n    tag_17:\n        /* \"#utility.yul\":2627:2631   */\n      0x00\n        /* \"#utility.yul\":2665:2667   */\n      0x20\n        /* \"#utility.yul\":2654:2663   */\n      dup3\n        /* \"#utility.yul\":2650:2668   */\n      add\n        /* \"#utility.yul\":2642:2668   */\n      swap1\n      pop\n        /* \"#utility.yul\":2678:2762   */\n      tag_132\n        /* \"#utility.yul\":2759:2760   */\n      0x00\n        /* \"#utility.yul\":2748:2757   */\n      dup4\n        /* \"#utility.yul\":2744:2761   */\n      add\n        /* \"#utility.yul\":2735:2741   */\n      dup5\n        /* \"#utility.yul\":2678:2762   */\n      tag_70\n      jump\t// in\n    tag_132:\n        /* \"#utility.yul\":2521:2769   */\n      swap3\n      swap2\n      pop\n      pop\n      jump\t// out\n        /* \"#utility.yul\":2775:2893   */\n    tag_71:\n        /* \"#utility.yul\":2862:2886   */\n      tag_134\n        /* \"#utility.yul\":2880:2885   */\n      dup2\n        /* \"#utility.yul\":2862:2886   */\n      tag_60\n      jump\t// in\n    tag_134:\n        /* \"#utility.yul\":2857:2860   */\n      dup3\n        /* \"#utility.yul\":2850:2887   */\n      mstore\n        /* \"#utility.yul\":2775:2893   */\n      pop\n      pop\n      jump\t// out\n        /* \"#utility.yul\":2899:3121   */\n    tag_22:\n        /* \"#utility.yul\":2992:2996   */\n      0x00\n        /* \"#utility.yul\":3030:3032   */\n      0x20\n        /* \"#utility.yul\":3019:3028   */\n      dup3\n        /* \"#utility.yul\":3015:3033   */\n      add\n        /* \"#utility.yul\":3007:3033   */\n      swap1\n      pop\n        /* \"#utility.yul\":3043:3114   */\n      tag_136\n        /* \"#utility.yul\":3111:3112   */\n      0x00\n        /* \"#utility.yul\":3100:3109   */\n      dup4\n        /* \"#utility.yul\":3096:3113   */\n      add\n        /* \"#utility.yul\":3087:3093   */\n      dup5\n        /* \"#utility.yul\":3043:3114   */\n      tag_71\n      jump\t// in\n    tag_136:\n        /* \"#utility.yul\":2899:3121   */\n      swap3\n      swap2\n      pop\n      pop\n      jump\t// out\n        /* \"#utility.yul\":3127:3233   */\n    tag_72:\n        /* \"#utility.yul\":3171:3179   */\n      0x00\n        /* \"#utility.yul\":3220:3225   */\n      dup2\n        /* \"#utility.yul\":3215:3218   */\n      0xe0\n        /* \"#utility.yul\":3211:3226   */\n      shr\n        /* \"#utility.yul\":3190:3226   */\n      swap1\n      pop\n        /* \"#utility.yul\":3127:3233   */\n      swap2\n      swap1\n      pop\n      jump\t// out\n        /* \"#utility.yul\":3239:3422   */\n    tag_29:\n        /* \"#utility.yul\":3274:3277   */\n      0x00\n        /* \"#utility.yul\":3312:3313   */\n      0x03\n        /* \"#utility.yul\":3294:3310   */\n      returndatasize\n        /* \"#utility.yul\":3291:3314   */\n      gt\n        /* \"#utility.yul\":3288:3416   */\n      iszero\n      tag_139\n      jumpi\n        /* \"#utility.yul\":3350:3351   */\n      0x04\n        /* \"#utility.yul\":3347:3348   */\n      0x00\n        /* \"#utility.yul\":3344:3345   */\n      dup1\n        /* \"#utility.yul\":3329:3352   */\n      returndatacopy\n        /* \"#utility.yul\":3372:3406   */\n      tag_140\n        /* \"#utility.yul\":3403:3404   */\n      0x00\n        /* \"#utility.yul\":3397:3405   */\n      mload\n        /* \"#utility.yul\":3372:3406   */\n      tag_72\n      jump\t// in\n    tag_140:\n        /* \"#utility.yul\":3365:3406   */\n      swap1\n      pop\n        /* \"#utility.yul\":3288:3416   */\n    tag_139:\n        /* \"#utility.yul\":3239:3422   */\n      swap1\n      jump\t// out\n        /* \"#utility.yul\":3428:3530   */\n    tag_73:\n        /* \"#utility.yul\":3469:3475   */\n      0x00\n        /* \"#utility.yul\":3520:3522   */\n      0x1f\n        /* \"#utility.yul\":3516:3523   */\n      not\n        /* \"#utility.yul\":3511:3513   */\n      0x1f\n        /* \"#utility.yul\":3504:3509   */\n      dup4\n        /* \"#utility.yul\":3500:3514   */\n      add\n        /* \"#utility.yul\":3496:3524   */\n      and\n        /* \"#utility.yul\":3486:3524   */\n      swap1\n      pop\n        /* \"#utility.yul\":3428:3530   */\n      swap2\n      swap1\n      pop\n      jump\t// out\n        /* \"#utility.yul\":3536:3716   */\n    tag_74:\n        /* \"#utility.yul\":3584:3661   */\n      0x4e487b7100000000000000000000000000000000000000000000000000000000\n        /* \"#utility.yul\":3581:3582   */\n      0x00\n        /* \"#utility.yul\":3574:3662   */\n      mstore\n        /* \"#utility.yul\":3681:3685   */\n      0x41\n        /* \"#utility.yul\":3678:3679   */\n      0x04\n        /* \"#utility.yul\":3671:3686   */\n      mstore\n        /* \"#utility.yul\":3705:3709   */\n      0x24\n        /* \"#utility.yul\":3702:3703   */\n      0x00\n        /* \"#utility.yul\":3695:3710   */\n      revert\n        /* \"#utility.yul\":3722:4003   */\n    tag_75:\n        /* \"#utility.yul\":3805:3832   */\n      tag_144\n        /* \"#utility.yul\":3827:3831   */\n      dup3\n        /* \"#utility.yul\":3805:3832   */\n      tag_73\n      jump\t// in\n    tag_144:\n        /* \"#utility.yul\":3797:3803   */\n      dup2\n        /* \"#utility.yul\":3793:3833   */\n      add\n        /* \"#utility.yul\":3935:3941   */\n      dup2\n        /* \"#utility.yul\":3923:3933   */\n      dup2\n        /* \"#utility.yul\":3920:3942   */\n      lt\n        /* \"#utility.yul\":3899:3917   */\n      0xffffffffffffffff\n        /* \"#utility.yul\":3887:3897   */\n      dup3\n        /* \"#utility.yul\":3884:3918   */\n      gt\n        /* \"#utility.yul\":3881:3943   */\n      or\n        /* \"#utility.yul\":3878:3966   */\n      iszero\n      tag_145\n      jumpi\n        /* \"#utility.yul\":3946:3964   */\n      tag_146\n      tag_74\n      jump\t// in\n    tag_146:\n        /* \"#utility.yul\":3878:3966   */\n    tag_145:\n        /* \"#utility.yul\":3986:3996   */\n      dup1\n        /* \"#utility.yul\":3982:3984   */\n      0x40\n        /* \"#utility.yul\":3975:3997   */\n      mstore\n        /* \"#utility.yul\":3765:4003   */\n      pop\n        /* \"#utility.yul\":3722:4003   */\n      pop\n      pop\n      jump\t// out\n        /* \"#utility.yul\":4009:4720   */\n    tag_31:\n        /* \"#utility.yul\":4048:4051   */\n      0x00\n        /* \"#utility.yul\":4086:4090   */\n      0x44\n        /* \"#utility.yul\":4068:4084   */\n      returndatasize\n        /* \"#utility.yul\":4065:4091   */\n      lt\n        /* \"#utility.yul\":4094:4099   */\n      tag_147\n        /* \"#utility.yul\":4062:4101   */\n      jumpi\n        /* \"#utility.yul\":4123:4143   */\n      tag_149\n      tag_56\n      jump\t// in\n    tag_149:\n        /* \"#utility.yul\":4198:4199   */\n      0x04\n        /* \"#utility.yul\":4180:4196   */\n      returndatasize\n        /* \"#utility.yul\":4176:4200   */\n      sub\n        /* \"#utility.yul\":4173:4174   */\n      0x04\n        /* \"#utility.yul\":4167:4171   */\n      dup3\n        /* \"#utility.yul\":4152:4201   */\n      returndatacopy\n        /* \"#utility.yul\":4231:4235   */\n      dup1\n        /* \"#utility.yul\":4225:4236   */\n      mload\n        /* \"#utility.yul\":4330:4346   */\n      returndatasize\n        /* \"#utility.yul\":4323:4327   */\n      0x24\n        /* \"#utility.yul\":4315:4321   */\n      dup3\n        /* \"#utility.yul\":4311:4328   */\n      add\n        /* \"#utility.yul\":4308:4347   */\n      gt\n        /* \"#utility.yul\":4275:4293   */\n      0xffffffffffffffff\n        /* \"#utility.yul\":4267:4273   */\n      dup3\n        /* \"#utility.yul\":4264:4294   */\n      gt\n        /* \"#utility.yul\":4248:4361   */\n      or\n        /* \"#utility.yul\":4245:4391   */\n      iszero\n      tag_150\n      jumpi\n        /* \"#utility.yul\":4376:4381   */\n      pop\n      pop\n      jump(tag_147)\n        /* \"#utility.yul\":4245:4391   */\n    tag_150:\n        /* \"#utility.yul\":4422:4428   */\n      dup1\n        /* \"#utility.yul\":4416:4420   */\n      dup3\n        /* \"#utility.yul\":4412:4429   */\n      add\n        /* \"#utility.yul\":4458:4461   */\n      dup1\n        /* \"#utility.yul\":4452:4462   */\n      mload\n        /* \"#utility.yul\":4485:4503   */\n      0xffffffffffffffff\n        /* \"#utility.yul\":4477:4483   */\n      dup2\n        /* \"#utility.yul\":4474:4504   */\n      gt\n        /* \"#utility.yul\":4471:4514   */\n      iszero\n      tag_151\n      jumpi\n        /* \"#utility.yul\":4507:4512   */\n      pop\n      pop\n      pop\n      pop\n      jump(tag_147)\n        /* \"#utility.yul\":4471:4514   */\n    tag_151:\n        /* \"#utility.yul\":4555:4561   */\n      dup1\n        /* \"#utility.yul\":4548:4552   */\n      0x20\n        /* \"#utility.yul\":4543:4546   */\n      dup4\n        /* \"#utility.yul\":4539:4553   */\n      add\n        /* \"#utility.yul\":4535:4562   */\n      add\n        /* \"#utility.yul\":4614:4615   */\n      0x04\n        /* \"#utility.yul\":4596:4612   */\n      returndatasize\n        /* \"#utility.yul\":4592:4616   */\n      sub\n        /* \"#utility.yul\":4586:4590   */\n      dup6\n        /* \"#utility.yul\":4582:4617   */\n      add\n        /* \"#utility.yul\":4577:4580   */\n      dup2\n        /* \"#utility.yul\":4574:4618   */\n      gt\n        /* \"#utility.yul\":4571:4628   */\n      iszero\n      tag_152\n      jumpi\n        /* \"#utility.yul\":4621:4626   */\n      pop\n      pop\n      pop\n      pop\n      pop\n      jump(tag_147)\n        /* \"#utility.yul\":4571:4628   */\n    tag_152:\n        /* \"#utility.yul\":4638:4695   */\n      tag_153\n        /* \"#utility.yul\":4686:4692   */\n      dup3\n        /* \"#utility.yul\":4680:4684   */\n      0x20\n        /* \"#utility.yul\":4676:4693   */\n      add\n        /* \"#utility.yul\":4668:4674   */\n      dup6\n        /* \"#utility.yul\":4664:4694   */\n      add\n        /* \"#utility.yul\":4658:4662   */\n      dup7\n        /* \"#utility.yul\":4638:4695   */\n      tag_75\n      jump\t// in\n    tag_153:\n        /* \"#utility.yul\":4711:4714   */\n      dup3\n        /* \"#utility.yul\":4704:4714   */\n      swap6\n      pop\n        /* \"#utility.yul\":4052:4720   */\n      pop\n      pop\n      pop\n      pop\n      pop\n        /* \"#utility.yul\":4009:4720   */\n    tag_147:\n      swap1\n      jump\t// out\n        /* \"#utility.yul\":4726:4825   */\n    tag_76:\n        /* \"#utility.yul\":4778:4784   */\n      0x00\n        /* \"#utility.yul\":4812:4817   */\n      dup2\n        /* \"#utility.yul\":4806:4818   */\n      mload\n        /* \"#utility.yul\":4796:4818   */\n      swap1\n      pop\n        /* \"#utility.yul\":4726:4825   */\n      swap2\n      swap1\n      pop\n      jump\t// out\n        /* \"#utility.yul\":4831:5000   */\n    tag_77:\n        /* \"#utility.yul\":4915:4926   */\n      0x00\n        /* \"#utility.yul\":4949:4955   */\n      dup3\n        /* \"#utility.yul\":4944:4947   */\n      dup3\n        /* \"#utility.yul\":4937:4956   */\n      mstore\n        /* \"#utility.yul\":4989:4993   */\n      0x20\n        /* \"#utility.yul\":4984:4987   */\n      dup3\n        /* \"#utility.yul\":4980:4994   */\n      add\n        /* \"#utility.yul\":4965:4994   */\n      swap1\n      pop\n        /* \"#utility.yul\":4831:5000   */\n      swap3\n      swap2\n      pop\n      pop\n      jump\t// out\n        /* \"#utility.yul\":5006:5252   */\n    tag_78:\n        /* \"#utility.yul\":5087:5088   */\n      0x00\n        /* \"#utility.yul\":5097:5210   */\n    tag_157:\n        /* \"#utility.yul\":5111:5117   */\n      dup4\n        /* \"#utility.yul\":5108:5109   */\n      dup2\n        /* \"#utility.yul\":5105:5118   */\n      lt\n        /* \"#utility.yul\":5097:5210   */\n      iszero\n      tag_159\n      jumpi\n        /* \"#utility.yul\":5196:5197   */\n      dup1\n        /* \"#utility.yul\":5191:5194   */\n      dup3\n        /* \"#utility.yul\":5187:5198   */\n      add\n        /* \"#utility.yul\":5181:5199   */\n      mload\n        /* \"#utility.yul\":5177:5178   */\n      dup2\n        /* \"#utility.yul\":5172:5175   */\n      dup5\n        /* \"#utility.yul\":5168:5179   */\n      add\n        /* \"#utility.yul\":5161:5200   */\n      mstore\n        /* \"#utility.yul\":5133:5135   */\n      0x20\n        /* \"#utility.yul\":5130:5131   */\n      dup2\n        /* \"#utility.yul\":5126:5136   */\n      add\n        /* \"#utility.yul\":5121:5136   */\n      swap1\n      pop\n        /* \"#utility.yul\":5097:5210   */\n      jump(tag_157)\n    tag_159:\n        /* \"#utility.yul\":5244:5245   */\n      0x00\n        /* \"#utility.yul\":5235:5241   */\n      dup5\n        /* \"#utility.yul\":5230:5233   */\n      dup5\n        /* \"#utility.yul\":5226:5242   */\n      add\n        /* \"#utility.yul\":5219:5246   */\n      mstore\n        /* \"#utility.yul\":5068:5252   */\n      pop\n        /* \"#utility.yul\":5006:5252   */\n      pop\n      pop\n      pop\n      jump\t// out\n        /* \"#utility.yul\":5258:5635   */\n    tag_79:\n        /* \"#utility.yul\":5346:5349   */\n      0x00\n        /* \"#utility.yul\":5374:5413   */\n      tag_161\n        /* \"#utility.yul\":5407:5412   */\n      dup3\n        /* \"#utility.yul\":5374:5413   */\n      tag_76\n      jump\t// in\n    tag_161:\n        /* \"#utility.yul\":5429:5500   */\n      tag_162\n        /* \"#utility.yul\":5493:5499   */\n      dup2\n        /* \"#utility.yul\":5488:5491   */\n      dup6\n        /* \"#utility.yul\":5429:5500   */\n      tag_77\n      jump\t// in\n    tag_162:\n        /* \"#utility.yul\":5422:5500   */\n      swap4\n      pop\n        /* \"#utility.yul\":5509:5574   */\n      tag_163\n        /* \"#utility.yul\":5567:5573   */\n      dup2\n        /* \"#utility.yul\":5562:5565   */\n      dup6\n        /* \"#utility.yul\":5555:5559   */\n      0x20\n        /* \"#utility.yul\":5548:5553   */\n      dup7\n        /* \"#utility.yul\":5544:5560   */\n      add\n        /* \"#utility.yul\":5509:5574   */\n      tag_78\n      jump\t// in\n    tag_163:\n        /* \"#utility.yul\":5599:5628   */\n      tag_164\n        /* \"#utility.yul\":5621:5627   */\n      dup2\n        /* \"#utility.yul\":5599:5628   */\n      tag_73\n      jump\t// in\n    tag_164:\n        /* \"#utility.yul\":5594:5597   */\n      dup5\n        /* \"#utility.yul\":5590:5629   */\n      add\n        /* \"#utility.yul\":5583:5629   */\n      swap2\n      pop\n        /* \"#utility.yul\":5350:5635   */\n      pop\n        /* \"#utility.yul\":5258:5635   */\n      swap3\n      swap2\n      pop\n      pop\n      jump\t// out\n        /* \"#utility.yul\":5641:5954   */\n    tag_34:\n        /* \"#utility.yul\":5754:5758   */\n      0x00\n        /* \"#utility.yul\":5792:5794   */\n      0x20\n        /* \"#utility.yul\":5781:5790   */\n      dup3\n        /* \"#utility.yul\":5777:5795   */\n      add\n        /* \"#utility.yul\":5769:5795   */\n      swap1\n      pop\n        /* \"#utility.yul\":5841:5850   */\n      dup2\n        /* \"#utility.yul\":5835:5839   */\n      dup2\n        /* \"#utility.yul\":5831:5851   */\n      sub\n        /* \"#utility.yul\":5827:5828   */\n      0x00\n        /* \"#utility.yul\":5816:5825   */\n      dup4\n        /* \"#utility.yul\":5812:5829   */\n      add\n        /* \"#utility.yul\":5805:5852   */\n      mstore\n        /* \"#utility.yul\":5869:5947   */\n      tag_166\n        /* \"#utility.yul\":5942:5946   */\n      dup2\n        /* \"#utility.yul\":5933:5939   */\n      dup5\n        /* \"#utility.yul\":5869:5947   */\n      tag_79\n      jump\t// in\n    tag_166:\n        /* \"#utility.yul\":5861:5947   */\n      swap1\n      pop\n        /* \"#utility.yul\":5641:5954   */\n      swap3\n      swap2\n      pop\n      pop\n      jump\t// out\n        /* \"#utility.yul\":5960:6058   */\n    tag_80:\n        /* \"#utility.yul\":6011:6017   */\n      0x00\n        /* \"#utility.yul\":6045:6050   */\n      dup2\n        /* \"#utility.yul\":6039:6051   */\n      mload\n        /* \"#utility.yul\":6029:6051   */\n      swap1\n      pop\n        /* \"#utility.yul\":5960:6058   */\n      swap2\n      swap1\n      pop\n      jump\t// out\n        /* \"#utility.yul\":6064:6232   */\n    tag_81:\n        /* \"#utility.yul\":6147:6158   */\n      0x00\n        /* \"#utility.yul\":6181:6187   */\n      dup3\n        /* \"#utility.yul\":6176:6179   */\n      dup3\n        /* \"#utility.yul\":6169:6188   */\n      mstore\n        /* \"#utility.yul\":6221:6225   */\n      0x20\n        /* \"#utility.yul\":6216:6219   */\n      dup3\n        /* \"#utility.yul\":6212:6226   */\n      add\n        /* \"#utility.yul\":6197:6226   */\n      swap1\n      pop\n        /* \"#utility.yul\":6064:6232   */\n      swap3\n      swap2\n      pop\n      pop\n      jump\t// out\n        /* \"#utility.yul\":6238:6611   */\n    tag_82:\n        /* \"#utility.yul\":6324:6327   */\n      0x00\n        /* \"#utility.yul\":6352:6390   */\n      tag_170\n        /* \"#utility.yul\":6384:6389   */\n      dup3\n        /* \"#utility.yul\":6352:6390   */\n      tag_80\n      jump\t// in\n    tag_170:\n        /* \"#utility.yul\":6406:6476   */\n      tag_171\n        /* \"#utility.yul\":6469:6475   */\n      dup2\n        /* \"#utility.yul\":6464:6467   */\n      dup6\n        /* \"#utility.yul\":6406:6476   */\n      tag_81\n      jump\t// in\n    tag_171:\n        /* \"#utility.yul\":6399:6476   */\n      swap4\n      pop\n        /* \"#utility.yul\":6485:6550   */\n      tag_172\n        /* \"#utility.yul\":6543:6549   */\n      dup2\n        /* \"#utility.yul\":6538:6541   */\n      dup6\n        /* \"#utility.yul\":6531:6535   */\n      0x20\n        /* \"#utility.yul\":6524:6529   */\n      dup7\n        /* \"#utility.yul\":6520:6536   */\n      add\n        /* \"#utility.yul\":6485:6550   */\n      tag_78\n      jump\t// in\n    tag_172:\n        /* \"#utility.yul\":6575:6604   */\n      tag_173\n        /* \"#utility.yul\":6597:6603   */\n      dup2\n        /* \"#utility.yul\":6575:6604   */\n      tag_73\n      jump\t// in\n    tag_173:\n        /* \"#utility.yul\":6570:6573   */\n      dup5\n        /* \"#utility.yul\":6566:6605   */\n      add\n        /* \"#utility.yul\":6559:6605   */\n      swap2\n      pop\n        /* \"#utility.yul\":6328:6611   */\n      pop\n        /* \"#utility.yul\":6238:6611   */\n      swap3\n      swap2\n      pop\n      pop\n      jump\t// out\n        /* \"#utility.yul\":6617:6926   */\n    tag_38:\n        /* \"#utility.yul\":6728:6732   */\n      0x00\n        /* \"#utility.yul\":6766:6768   */\n      0x20\n        /* \"#utility.yul\":6755:6764   */\n      dup3\n        /* \"#utility.yul\":6751:6769   */\n      add\n        /* \"#utility.yul\":6743:6769   */\n      swap1\n      pop\n        /* \"#utility.yul\":6815:6824   */\n      dup2\n        /* \"#utility.yul\":6809:6813   */\n      dup2\n        /* \"#utility.yul\":6805:6825   */\n      sub\n        /* \"#utility.yul\":6801:6802   */\n      0x00\n        /* \"#utility.yul\":6790:6799   */\n      dup4\n        /* \"#utility.yul\":6786:6803   */\n      add\n        /* \"#utility.yul\":6779:6826   */\n      mstore\n        /* \"#utility.yul\":6843:6919   */\n      tag_175\n        /* \"#utility.yul\":6914:6918   */\n      dup2\n        /* \"#utility.yul\":6905:6911   */\n      dup5\n        /* \"#utility.yul\":6843:6919   */\n      tag_82\n      jump\t// in\n    tag_175:\n        /* \"#utility.yul\":6835:6919   */\n      swap1\n      pop\n        /* \"#utility.yul\":6617:6926   */\n      swap3\n      swap2\n      pop\n      pop\n      jump\t// out\n        /* \"#utility.yul\":6932:7102   */\n    tag_83:\n        /* \"#utility.yul\":7072:7094   */\n      0x6d792066756e6374696f6e206372656174657264000000000000000000000000\n        /* \"#utility.yul\":7068:7069   */\n      0x00\n        /* \"#utility.yul\":7060:7066   */\n      dup3\n        /* \"#utility.yul\":7056:7070   */\n      add\n        /* \"#utility.yul\":7049:7095   */\n      mstore\n        /* \"#utility.yul\":6932:7102   */\n      pop\n      jump\t// out\n        /* \"#utility.yul\":7108:7474   */\n    tag_84:\n        /* \"#utility.yul\":7250:7253   */\n      0x00\n        /* \"#utility.yul\":7271:7338   */\n      tag_178\n        /* \"#utility.yul\":7335:7337   */\n      0x14\n        /* \"#utility.yul\":7330:7333   */\n      dup4\n        /* \"#utility.yul\":7271:7338   */\n      tag_77\n      jump\t// in\n    tag_178:\n        /* \"#utility.yul\":7264:7338   */\n      swap2\n      pop\n        /* \"#utility.yul\":7347:7440   */\n      tag_179\n        /* \"#utility.yul\":7436:7439   */\n      dup3\n        /* \"#utility.yul\":7347:7440   */\n      tag_83\n      jump\t// in\n    tag_179:\n        /* \"#utility.yul\":7465:7467   */\n      0x20\n        /* \"#utility.yul\":7460:7463   */\n      dup3\n        /* \"#utility.yul\":7456:7468   */\n      add\n        /* \"#utility.yul\":7449:7468   */\n      swap1\n      pop\n        /* \"#utility.yul\":7108:7474   */\n      swap2\n      swap1\n      pop\n      jump\t// out\n        /* \"#utility.yul\":7480:7899   */\n    tag_41:\n        /* \"#utility.yul\":7646:7650   */\n      0x00\n        /* \"#utility.yul\":7684:7686   */\n      0x20\n        /* \"#utility.yul\":7673:7682   */\n      dup3\n        /* \"#utility.yul\":7669:7687   */\n      add\n        /* \"#utility.yul\":7661:7687   */\n      swap1\n      pop\n        /* \"#utility.yul\":7733:7742   */\n      dup2\n        /* \"#utility.yul\":7727:7731   */\n      dup2\n        /* \"#utility.yul\":7723:7743   */\n      sub\n        /* \"#utility.yul\":7719:7720   */\n      0x00\n        /* \"#utility.yul\":7708:7717   */\n      dup4\n        /* \"#utility.yul\":7704:7721   */\n      add\n        /* \"#utility.yul\":7697:7744   */\n      mstore\n        /* \"#utility.yul\":7761:7892   */\n      tag_181\n        /* \"#utility.yul\":7887:7891   */\n      dup2\n        /* \"#utility.yul\":7761:7892   */\n      tag_84\n      jump\t// in\n    tag_181:\n        /* \"#utility.yul\":7753:7892   */\n      swap1\n      pop\n        /* \"#utility.yul\":7480:7899   */\n      swap2\n      swap1\n      pop\n      jump\t// out\n        /* \"#utility.yul\":7905:8023   */\n    tag_85:\n        /* \"#utility.yul\":7992:8016   */\n      tag_183\n        /* \"#utility.yul\":8010:8015   */\n      dup2\n        /* \"#utility.yul\":7992:8016   */\n      tag_63\n      jump\t// in\n    tag_183:\n        /* \"#utility.yul\":7987:7990   */\n      dup3\n        /* \"#utility.yul\":7980:8017   */\n      mstore\n        /* \"#utility.yul\":7905:8023   */\n      pop\n      pop\n      jump\t// out\n        /* \"#utility.yul\":8029:8251   */\n    tag_44:\n        /* \"#utility.yul\":8122:8126   */\n      0x00\n        /* \"#utility.yul\":8160:8162   */\n      0x20\n        /* \"#utility.yul\":8149:8158   */\n      dup3\n        /* \"#utility.yul\":8145:8163   */\n      add\n        /* \"#utility.yul\":8137:8163   */\n      swap1\n      pop\n        /* \"#utility.yul\":8173:8244   */\n      tag_185\n        /* \"#utility.yul\":8241:8242   */\n      0x00\n        /* \"#utility.yul\":8230:8239   */\n      dup4\n        /* \"#utility.yul\":8226:8243   */\n      add\n        /* \"#utility.yul\":8217:8223   */\n      dup5\n        /* \"#utility.yul\":8173:8244   */\n      tag_85\n      jump\t// in\n    tag_185:\n        /* \"#utility.yul\":8029:8251   */\n      swap3\n      swap2\n      pop\n      pop\n      jump\t// out\n        /* \"#utility.yul\":8257:8374   */\n    tag_86:\n        /* \"#utility.yul\":8366:8367   */\n      0x00\n        /* \"#utility.yul\":8363:8364   */\n      dup1\n        /* \"#utility.yul\":8356:8368   */\n      revert\n        /* \"#utility.yul\":8380:8497   */\n    tag_87:\n        /* \"#utility.yul\":8489:8490   */\n      0x00\n        /* \"#utility.yul\":8486:8487   */\n      dup1\n        /* \"#utility.yul\":8479:8491   */\n      revert\n        /* \"#utility.yul\":8503:8632   */\n    tag_88:\n        /* \"#utility.yul\":8537:8543   */\n      0x00\n        /* \"#utility.yul\":8564:8584   */\n      tag_189\n      tag_56\n      jump\t// in\n    tag_189:\n        /* \"#utility.yul\":8554:8584   */\n      swap1\n      pop\n        /* \"#utility.yul\":8593:8626   */\n      tag_190\n        /* \"#utility.yul\":8621:8625   */\n      dup3\n        /* \"#utility.yul\":8613:8619   */\n      dup3\n        /* \"#utility.yul\":8593:8626   */\n      tag_75\n      jump\t// in\n    tag_190:\n        /* \"#utility.yul\":8503:8632   */\n      swap2\n      swap1\n      pop\n      jump\t// out\n        /* \"#utility.yul\":8638:8946   */\n    tag_89:\n        /* \"#utility.yul\":8700:8704   */\n      0x00\n        /* \"#utility.yul\":8790:8808   */\n      0xffffffffffffffff\n        /* \"#utility.yul\":8782:8788   */\n      dup3\n        /* \"#utility.yul\":8779:8809   */\n      gt\n        /* \"#utility.yul\":8776:8832   */\n      iszero\n      tag_192\n      jumpi\n        /* \"#utility.yul\":8812:8830   */\n      tag_193\n      tag_74\n      jump\t// in\n    tag_193:\n        /* \"#utility.yul\":8776:8832   */\n    tag_192:\n        /* \"#utility.yul\":8850:8879   */\n      tag_194\n        /* \"#utility.yul\":8872:8878   */\n      dup3\n        /* \"#utility.yul\":8850:8879   */\n      tag_73\n      jump\t// in\n    tag_194:\n        /* \"#utility.yul\":8842:8879   */\n      swap1\n      pop\n        /* \"#utility.yul\":8934:8938   */\n      0x20\n        /* \"#utility.yul\":8928:8932   */\n      dup2\n        /* \"#utility.yul\":8924:8939   */\n      add\n        /* \"#utility.yul\":8916:8939   */\n      swap1\n      pop\n        /* \"#utility.yul\":8638:8946   */\n      swap2\n      swap1\n      pop\n      jump\t// out\n        /* \"#utility.yul\":8952:9386   */\n    tag_90:\n        /* \"#utility.yul\":9041:9046   */\n      0x00\n        /* \"#utility.yul\":9066:9132   */\n      tag_196\n        /* \"#utility.yul\":9082:9131   */\n      tag_197\n        /* \"#utility.yul\":9124:9130   */\n      dup5\n        /* \"#utility.yul\":9082:9131   */\n      tag_89\n      jump\t// in\n    tag_197:\n        /* \"#utility.yul\":9066:9132   */\n      tag_88\n      jump\t// in\n    tag_196:\n        /* \"#utility.yul\":9057:9132   */\n      swap1\n      pop\n        /* \"#utility.yul\":9155:9161   */\n      dup3\n        /* \"#utility.yul\":9148:9153   */\n      dup2\n        /* \"#utility.yul\":9141:9162   */\n      mstore\n        /* \"#utility.yul\":9193:9197   */\n      0x20\n        /* \"#utility.yul\":9186:9191   */\n      dup2\n        /* \"#utility.yul\":9182:9198   */\n      add\n        /* \"#utility.yul\":9231:9234   */\n      dup5\n        /* \"#utility.yul\":9222:9228   */\n      dup5\n        /* \"#utility.yul\":9217:9220   */\n      dup5\n        /* \"#utility.yul\":9213:9229   */\n      add\n        /* \"#utility.yul\":9210:9235   */\n      gt\n        /* \"#utility.yul\":9207:9319   */\n      iszero\n      tag_198\n      jumpi\n        /* \"#utility.yul\":9238:9317   */\n      tag_199\n      tag_87\n      jump\t// in\n    tag_199:\n        /* \"#utility.yul\":9207:9319   */\n    tag_198:\n        /* \"#utility.yul\":9328:9380   */\n      tag_200\n        /* \"#utility.yul\":9373:9379   */\n      dup5\n        /* \"#utility.yul\":9368:9371   */\n      dup3\n        /* \"#utility.yul\":9363:9366   */\n      dup6\n        /* \"#utility.yul\":9328:9380   */\n      tag_78\n      jump\t// in\n    tag_200:\n        /* \"#utility.yul\":9047:9386   */\n      pop\n        /* \"#utility.yul\":8952:9386   */\n      swap4\n      swap3\n      pop\n      pop\n      pop\n      jump\t// out\n        /* \"#utility.yul\":9406:9761   */\n    tag_91:\n        /* \"#utility.yul\":9473:9478   */\n      0x00\n        /* \"#utility.yul\":9522:9525   */\n      dup3\n        /* \"#utility.yul\":9515:9519   */\n      0x1f\n        /* \"#utility.yul\":9507:9513   */\n      dup4\n        /* \"#utility.yul\":9503:9520   */\n      add\n        /* \"#utility.yul\":9499:9526   */\n      slt\n        /* \"#utility.yul\":9489:9611   */\n      tag_202\n      jumpi\n        /* \"#utility.yul\":9530:9609   */\n      tag_203\n      tag_86\n      jump\t// in\n    tag_203:\n        /* \"#utility.yul\":9489:9611   */\n    tag_202:\n        /* \"#utility.yul\":9640:9646   */\n      dup2\n        /* \"#utility.yul\":9634:9647   */\n      mload\n        /* \"#utility.yul\":9665:9755   */\n      tag_204\n        /* \"#utility.yul\":9751:9754   */\n      dup5\n        /* \"#utility.yul\":9743:9749   */\n      dup3\n        /* \"#utility.yul\":9736:9740   */\n      0x20\n        /* \"#utility.yul\":9728:9734   */\n      dup7\n        /* \"#utility.yul\":9724:9741   */\n      add\n        /* \"#utility.yul\":9665:9755   */\n      tag_90\n      jump\t// in\n    tag_204:\n        /* \"#utility.yul\":9656:9755   */\n      swap2\n      pop\n        /* \"#utility.yul\":9479:9761   */\n      pop\n        /* \"#utility.yul\":9406:9761   */\n      swap3\n      swap2\n      pop\n      pop\n      jump\t// out\n        /* \"#utility.yul\":9767:10291   */\n    tag_47:\n        /* \"#utility.yul\":9847:9853   */\n      0x00\n        /* \"#utility.yul\":9896:9898   */\n      0x20\n        /* \"#utility.yul\":9884:9893   */\n      dup3\n        /* \"#utility.yul\":9875:9882   */\n      dup5\n        /* \"#utility.yul\":9871:9894   */\n      sub\n        /* \"#utility.yul\":9867:9899   */\n      slt\n        /* \"#utility.yul\":9864:9983   */\n      iszero\n      tag_206\n      jumpi\n        /* \"#utility.yul\":9902:9981   */\n      tag_207\n      tag_57\n      jump\t// in\n    tag_207:\n        /* \"#utility.yul\":9864:9983   */\n    tag_206:\n        /* \"#utility.yul\":10043:10044   */\n      0x00\n        /* \"#utility.yul\":10032:10041   */\n      dup3\n        /* \"#utility.yul\":10028:10045   */\n      add\n        /* \"#utility.yul\":10022:10046   */\n      mload\n        /* \"#utility.yul\":10073:10091   */\n      0xffffffffffffffff\n        /* \"#utility.yul\":10065:10071   */\n      dup2\n        /* \"#utility.yul\":10062:10092   */\n      gt\n        /* \"#utility.yul\":10059:10176   */\n      iszero\n      tag_208\n      jumpi\n        /* \"#utility.yul\":10095:10174   */\n      tag_209\n      tag_58\n      jump\t// in\n    tag_209:\n        /* \"#utility.yul\":10059:10176   */\n    tag_208:\n        /* \"#utility.yul\":10200:10274   */\n      tag_210\n        /* \"#utility.yul\":10266:10273   */\n      dup5\n        /* \"#utility.yul\":10257:10263   */\n      dup3\n        /* \"#utility.yul\":10246:10255   */\n      dup6\n        /* \"#utility.yul\":10242:10264   */\n      add\n        /* \"#utility.yul\":10200:10274   */\n      tag_91\n      jump\t// in\n    tag_210:\n        /* \"#utility.yul\":10190:10274   */\n      swap2\n      pop\n        /* \"#utility.yul\":9993:10284   */\n      pop\n        /* \"#utility.yul\":9767:10291   */\n      swap3\n      swap2\n      pop\n      pop\n      jump\t// out\n        /* \"#utility.yul\":10297:10469   */\n    tag_92:\n        /* \"#utility.yul\":10437:10461   */\n      0x65637465726e616c2063616c6c6564206661696c656400000000000000000000\n        /* \"#utility.yul\":10433:10434   */\n      0x00\n        /* \"#utility.yul\":10425:10431   */\n      dup3\n        /* \"#utility.yul\":10421:10435   */\n      add\n        /* \"#utility.yul\":10414:10462   */\n      mstore\n        /* \"#utility.yul\":10297:10469   */\n      pop\n      jump\t// out\n        /* \"#utility.yul\":10475:10841   */\n    tag_93:\n        /* \"#utility.yul\":10617:10620   */\n      0x00\n        /* \"#utility.yul\":10638:10705   */\n      tag_213\n        /* \"#utility.yul\":10702:10704   */\n      0x16\n        /* \"#utility.yul\":10697:10700   */\n      dup4\n        /* \"#utility.yul\":10638:10705   */\n      tag_77\n      jump\t// in\n    tag_213:\n        /* \"#utility.yul\":10631:10705   */\n      swap2\n      pop\n        /* \"#utility.yul\":10714:10807   */\n      tag_214\n        /* \"#utility.yul\":10803:10806   */\n      dup3\n        /* \"#utility.yul\":10714:10807   */\n      tag_92\n      jump\t// in\n    tag_214:\n        /* \"#utility.yul\":10832:10834   */\n      0x20\n        /* \"#utility.yul\":10827:10830   */\n      dup3\n        /* \"#utility.yul\":10823:10835   */\n      add\n        /* \"#utility.yul\":10816:10835   */\n      swap1\n      pop\n        /* \"#utility.yul\":10475:10841   */\n      swap2\n      swap1\n      pop\n      jump\t// out\n        /* \"#utility.yul\":10847:11266   */\n    tag_53:\n        /* \"#utility.yul\":11013:11017   */\n      0x00\n        /* \"#utility.yul\":11051:11053   */\n      0x20\n        /* \"#utility.yul\":11040:11049   */\n      dup3\n        /* \"#utility.yul\":11036:11054   */\n      add\n        /* \"#utility.yul\":11028:11054   */\n      swap1\n      pop\n        /* \"#utility.yul\":11100:11109   */\n      dup2\n        /* \"#utility.yul\":11094:11098   */\n      dup2\n        /* \"#utility.yul\":11090:11110   */\n      sub\n        /* \"#utility.yul\":11086:11087   */\n      0x00\n        /* \"#utility.yul\":11075:11084   */\n      dup4\n        /* \"#utility.yul\":11071:11088   */\n      add\n        /* \"#utility.yul\":11064:11111   */\n      mstore\n        /* \"#utility.yul\":11128:11259   */\n      tag_216\n        /* \"#utility.yul\":11254:11258   */\n      dup2\n        /* \"#utility.yul\":11128:11259   */\n      tag_93\n      jump\t// in\n    tag_216:\n        /* \"#utility.yul\":11120:11259   */\n      swap1\n      pop\n        /* \"#utility.yul\":10847:11266   */\n      swap2\n      swap1\n      pop\n      jump\t// out\n    stop\n\n    sub_0: assembly {\n            /* \"contracts/tryCatch.sol\":58:439  contract Normal{... */\n          mstore(0x40, 0x80)\n            /* \"contracts/tryCatch.sol\":109:296  constructor(address _addrr){... */\n          callvalue\n          dup1\n          iszero\n          tag_1\n          jumpi\n          0x00\n          dup1\n          revert\n        tag_1:\n          pop\n          mload(0x40)\n          sub(codesize, bytecodeSize)\n          dup1\n          bytecodeSize\n          dup4\n          codecopy\n          dup2\n          dup2\n          add\n          0x40\n          mstore\n          dup2\n          add\n          swap1\n          tag_2\n          swap2\n          swap1\n          tag_3\n          jump\t// in\n        tag_2:\n            /* \"contracts/tryCatch.sol\":171:172  0 */\n          0x00\n            /* \"contracts/tryCatch.sol\":155:173  _addrr!=address(0) */\n          0xffffffffffffffffffffffffffffffffffffffff\n          and\n            /* \"contracts/tryCatch.sol\":155:161  _addrr */\n          dup2\n            /* \"contracts/tryCatch.sol\":155:173  _addrr!=address(0) */\n          0xffffffffffffffffffffffffffffffffffffffff\n          and\n          sub\n            /* \"contracts/tryCatch.sol\":147:191  require(_addrr!=address(0),\"invalid adress\") */\n          tag_6\n          jumpi\n          mload(0x40)\n          0x08c379a000000000000000000000000000000000000000000000000000000000\n          dup2\n          mstore\n          0x04\n          add\n          tag_7\n          swap1\n          tag_8\n          jump\t// in\n        tag_7:\n          mload(0x40)\n          dup1\n          swap2\n          sub\n          swap1\n          revert\n        tag_6:\n            /* \"contracts/tryCatch.sol\":216:258  0x0000000000000000000000000000000000000001 */\n          0x01\n            /* \"contracts/tryCatch.sol\":208:258  _addrr!=0x0000000000000000000000000000000000000001 */\n          0xffffffffffffffffffffffffffffffffffffffff\n          and\n            /* \"contracts/tryCatch.sol\":208:214  _addrr */\n          dup2\n            /* \"contracts/tryCatch.sol\":208:258  _addrr!=0x0000000000000000000000000000000000000001 */\n          0xffffffffffffffffffffffffffffffffffffffff\n          and\n          sub\n            /* \"contracts/tryCatch.sol\":201:259  assert(_addrr!=0x0000000000000000000000000000000000000001) */\n          tag_9\n          jumpi\n          tag_10\n          tag_11\n          jump\t// in\n        tag_10:\n        tag_9:\n            /* \"contracts/tryCatch.sol\":276:282  _addrr */\n          dup1\n            /* \"contracts/tryCatch.sol\":270:275  owner */\n          0x00\n          dup1\n            /* \"contracts/tryCatch.sol\":270:282  owner=_addrr */\n          0x0100\n          exp\n          dup2\n          sload\n          dup2\n          0xffffffffffffffffffffffffffffffffffffffff\n          mul\n          not\n          and\n          swap1\n          dup4\n          0xffffffffffffffffffffffffffffffffffffffff\n          and\n          mul\n          or\n          swap1\n          sstore\n          pop\n            /* \"contracts/tryCatch.sol\":109:296  constructor(address _addrr){... */\n          pop\n            /* \"contracts/tryCatch.sol\":58:439  contract Normal{... */\n          jump(tag_12)\n            /* \"#utility.yul\":88:205   */\n        tag_14:\n            /* \"#utility.yul\":197:198   */\n          0x00\n            /* \"#utility.yul\":194:195   */\n          dup1\n            /* \"#utility.yul\":187:199   */\n          revert\n            /* \"#utility.yul\":334:460   */\n        tag_16:\n            /* \"#utility.yul\":371:378   */\n          0x00\n            /* \"#utility.yul\":411:453   */\n          0xffffffffffffffffffffffffffffffffffffffff\n            /* \"#utility.yul\":404:409   */\n          dup3\n            /* \"#utility.yul\":400:454   */\n          and\n            /* \"#utility.yul\":389:454   */\n          swap1\n          pop\n            /* \"#utility.yul\":334:460   */\n          swap2\n          swap1\n          pop\n          jump\t// out\n            /* \"#utility.yul\":466:562   */\n        tag_17:\n            /* \"#utility.yul\":503:510   */\n          0x00\n            /* \"#utility.yul\":532:556   */\n          tag_29\n            /* \"#utility.yul\":550:555   */\n          dup3\n            /* \"#utility.yul\":532:556   */\n          tag_16\n          jump\t// in\n        tag_29:\n            /* \"#utility.yul\":521:556   */\n          swap1\n          pop\n            /* \"#utility.yul\":466:562   */\n          swap2\n          swap1\n          pop\n          jump\t// out\n            /* \"#utility.yul\":568:690   */\n        tag_18:\n            /* \"#utility.yul\":641:665   */\n          tag_31\n            /* \"#utility.yul\":659:664   */\n          dup2\n            /* \"#utility.yul\":641:665   */\n          tag_17\n          jump\t// in\n        tag_31:\n            /* \"#utility.yul\":634:639   */\n          dup2\n            /* \"#utility.yul\":631:666   */\n          eq\n            /* \"#utility.yul\":621:684   */\n          tag_32\n          jumpi\n            /* \"#utility.yul\":680:681   */\n          0x00\n            /* \"#utility.yul\":677:678   */\n          dup1\n            /* \"#utility.yul\":670:682   */\n          revert\n            /* \"#utility.yul\":621:684   */\n        tag_32:\n            /* \"#utility.yul\":568:690   */\n          pop\n          jump\t// out\n            /* \"#utility.yul\":696:839   */\n        tag_19:\n            /* \"#utility.yul\":753:758   */\n          0x00\n            /* \"#utility.yul\":784:790   */\n          dup2\n            /* \"#utility.yul\":778:791   */\n          mload\n            /* \"#utility.yul\":769:791   */\n          swap1\n          pop\n            /* \"#utility.yul\":800:833   */\n          tag_34\n            /* \"#utility.yul\":827:832   */\n          dup2\n            /* \"#utility.yul\":800:833   */\n          tag_18\n          jump\t// in\n        tag_34:\n            /* \"#utility.yul\":696:839   */\n          swap3\n          swap2\n          pop\n          pop\n          jump\t// out\n            /* \"#utility.yul\":845:1196   */\n        tag_3:\n            /* \"#utility.yul\":915:921   */\n          0x00\n            /* \"#utility.yul\":964:966   */\n          0x20\n            /* \"#utility.yul\":952:961   */\n          dup3\n            /* \"#utility.yul\":943:950   */\n          dup5\n            /* \"#utility.yul\":939:962   */\n          sub\n            /* \"#utility.yul\":935:967   */\n          slt\n            /* \"#utility.yul\":932:1051   */\n          iszero\n          tag_36\n          jumpi\n            /* \"#utility.yul\":970:1049   */\n          tag_37\n          tag_14\n          jump\t// in\n        tag_37:\n            /* \"#utility.yul\":932:1051   */\n        tag_36:\n            /* \"#utility.yul\":1090:1091   */\n          0x00\n            /* \"#utility.yul\":1115:1179   */\n          tag_38\n            /* \"#utility.yul\":1171:1178   */\n          dup5\n            /* \"#utility.yul\":1162:1168   */\n          dup3\n            /* \"#utility.yul\":1151:1160   */\n          dup6\n            /* \"#utility.yul\":1147:1169   */\n          add\n            /* \"#utility.yul\":1115:1179   */\n          tag_19\n          jump\t// in\n        tag_38:\n            /* \"#utility.yul\":1105:1179   */\n          swap2\n          pop\n            /* \"#utility.yul\":1061:1189   */\n          pop\n            /* \"#utility.yul\":845:1196   */\n          swap3\n          swap2\n          pop\n          pop\n          jump\t// out\n            /* \"#utility.yul\":1202:1371   */\n        tag_20:\n            /* \"#utility.yul\":1286:1297   */\n          0x00\n            /* \"#utility.yul\":1320:1326   */\n          dup3\n            /* \"#utility.yul\":1315:1318   */\n          dup3\n            /* \"#utility.yul\":1308:1327   */\n          mstore\n            /* \"#utility.yul\":1360:1364   */\n          0x20\n            /* \"#utility.yul\":1355:1358   */\n          dup3\n            /* \"#utility.yul\":1351:1365   */\n          add\n            /* \"#utility.yul\":1336:1365   */\n          swap1\n          pop\n            /* \"#utility.yul\":1202:1371   */\n          swap3\n          swap2\n          pop\n          pop\n          jump\t// out\n            /* \"#utility.yul\":1377:1541   */\n        tag_21:\n            /* \"#utility.yul\":1517:1533   */\n          0x696e76616c696420616472657373000000000000000000000000000000000000\n            /* \"#utility.yul\":1513:1514   */\n          0x00\n            /* \"#utility.yul\":1505:1511   */\n          dup3\n            /* \"#utility.yul\":1501:1515   */\n          add\n            /* \"#utility.yul\":1494:1534   */\n          mstore\n            /* \"#utility.yul\":1377:1541   */\n          pop\n          jump\t// out\n            /* \"#utility.yul\":1547:1913   */\n        tag_22:\n            /* \"#utility.yul\":1689:1692   */\n          0x00\n            /* \"#utility.yul\":1710:1777   */\n          tag_42\n            /* \"#utility.yul\":1774:1776   */\n          0x0e\n            /* \"#utility.yul\":1769:1772   */\n          dup4\n            /* \"#utility.yul\":1710:1777   */\n          tag_20\n          jump\t// in\n        tag_42:\n            /* \"#utility.yul\":1703:1777   */\n          swap2\n          pop\n            /* \"#utility.yul\":1786:1879   */\n          tag_43\n            /* \"#utility.yul\":1875:1878   */\n          dup3\n            /* \"#utility.yul\":1786:1879   */\n          tag_21\n          jump\t// in\n        tag_43:\n            /* \"#utility.yul\":1904:1906   */\n          0x20\n            /* \"#utility.yul\":1899:1902   */\n          dup3\n            /* \"#utility.yul\":1895:1907   */\n          add\n            /* \"#utility.yul\":1888:1907   */\n          swap1\n          pop\n            /* \"#utility.yul\":1547:1913   */\n          swap2\n          swap1\n          pop\n          jump\t// out\n            /* \"#utility.yul\":1919:2338   */\n        tag_8:\n            /* \"#utility.yul\":2085:2089   */\n          0x00\n            /* \"#utility.yul\":2123:2125   */\n          0x20\n            /* \"#utility.yul\":2112:2121   */\n          dup3\n            /* \"#utility.yul\":2108:2126   */\n          add\n            /* \"#utility.yul\":2100:2126   */\n          swap1\n          pop\n            /* \"#utility.yul\":2172:2181   */\n          dup2\n            /* \"#utility.yul\":2166:2170   */\n          dup2\n            /* \"#utility.yul\":2162:2182   */\n          sub\n            /* \"#utility.yul\":2158:2159   */\n          0x00\n            /* \"#utility.yul\":2147:2156   */\n          dup4\n            /* \"#utility.yul\":2143:2160   */\n          add\n            /* \"#utility.yul\":2136:2183   */\n          mstore\n            /* \"#utility.yul\":2200:2331   */\n          tag_45\n            /* \"#utility.yul\":2326:2330   */\n          dup2\n            /* \"#utility.yul\":2200:2331   */\n          tag_22\n          jump\t// in\n        tag_45:\n            /* \"#utility.yul\":2192:2331   */\n          swap1\n          pop\n            /* \"#utility.yul\":1919:2338   */\n          swap2\n          swap1\n          pop\n          jump\t// out\n            /* \"#utility.yul\":2344:2524   */\n        tag_11:\n            /* \"#utility.yul\":2392:2469   */\n          0x4e487b7100000000000000000000000000000000000000000000000000000000\n            /* \"#utility.yul\":2389:2390   */\n          0x00\n            /* \"#utility.yul\":2382:2470   */\n          mstore\n            /* \"#utility.yul\":2489:2493   */\n          0x01\n            /* \"#utility.yul\":2486:2487   */\n          0x04\n            /* \"#utility.yul\":2479:2494   */\n          mstore\n            /* \"#utility.yul\":2513:2517   */\n          0x24\n            /* \"#utility.yul\":2510:2511   */\n          0x00\n            /* \"#utility.yul\":2503:2518   */\n          revert\n            /* \"contracts/tryCatch.sol\":58:439  contract Normal{... */\n        tag_12:\n          dataSize(sub_0)\n          dup1\n          dataOffset(sub_0)\n          0x00\n          codecopy\n          0x00\n          return\n        stop\n\n        sub_0: assembly {\n                /* \"contracts/tryCatch.sol\":58:439  contract Normal{... */\n              mstore(0x40, 0x80)\n              callvalue\n              dup1\n              iszero\n              tag_1\n              jumpi\n              0x00\n              dup1\n              revert\n            tag_1:\n              pop\n              jumpi(tag_2, lt(calldatasize, 0x04))\n              shr(0xe0, calldataload(0x00))\n              dup1\n              0x8da5cb5b\n              eq\n              tag_3\n              jumpi\n              dup1\n              0xa9bf5633\n              eq\n              tag_4\n              jumpi\n            tag_2:\n              0x00\n              dup1\n              revert\n                /* \"contracts/tryCatch.sol\":80:100  address public owner */\n            tag_3:\n              tag_5\n              tag_6\n              jump\t// in\n            tag_5:\n              mload(0x40)\n              tag_7\n              swap2\n              swap1\n              tag_8\n              jump\t// in\n            tag_7:\n              mload(0x40)\n              dup1\n              swap2\n              sub\n              swap1\n              return\n                /* \"contracts/tryCatch.sol\":298:436  function myFunc(uint _X)public pure returns(string memory){... */\n            tag_4:\n              tag_9\n              0x04\n              dup1\n              calldatasize\n              sub\n              dup2\n              add\n              swap1\n              tag_10\n              swap2\n              swap1\n              tag_11\n              jump\t// in\n            tag_10:\n              tag_12\n              jump\t// in\n            tag_9:\n              mload(0x40)\n              tag_13\n              swap2\n              swap1\n              tag_14\n              jump\t// in\n            tag_13:\n              mload(0x40)\n              dup1\n              swap2\n              sub\n              swap1\n              return\n                /* \"contracts/tryCatch.sol\":80:100  address public owner */\n            tag_6:\n              0x00\n              dup1\n              sload\n              swap1\n              0x0100\n              exp\n              swap1\n              div\n              0xffffffffffffffffffffffffffffffffffffffff\n              and\n              dup2\n              jump\t// out\n                /* \"contracts/tryCatch.sol\":298:436  function myFunc(uint _X)public pure returns(string memory){... */\n            tag_12:\n                /* \"contracts/tryCatch.sol\":342:355  string memory */\n              0x60\n                /* \"contracts/tryCatch.sol\":375:376  0 */\n              0x00\n                /* \"contracts/tryCatch.sol\":371:373  _X */\n              dup3\n                /* \"contracts/tryCatch.sol\":371:376  _X!=0 */\n              sub\n                /* \"contracts/tryCatch.sol\":363:394  require(_X!=0,\"require failed\") */\n              tag_16\n              jumpi\n              mload(0x40)\n              0x08c379a000000000000000000000000000000000000000000000000000000000\n              dup2\n              mstore\n              0x04\n              add\n              tag_17\n              swap1\n              tag_18\n              jump\t// in\n            tag_17:\n              mload(0x40)\n              dup1\n              swap2\n              sub\n              swap1\n              revert\n            tag_16:\n                /* \"contracts/tryCatch.sol\":401:432  return \"my function was called\" */\n              mload(0x40)\n              dup1\n              0x40\n              add\n              0x40\n              mstore\n              dup1\n              0x16\n              dup2\n              mstore\n              0x20\n              add\n              0x6d792066756e6374696f6e207761732063616c6c656400000000000000000000\n              dup2\n              mstore\n              pop\n              swap1\n              pop\n                /* \"contracts/tryCatch.sol\":298:436  function myFunc(uint _X)public pure returns(string memory){... */\n              swap2\n              swap1\n              pop\n              jump\t// out\n                /* \"#utility.yul\":7:133   */\n            tag_19:\n                /* \"#utility.yul\":44:51   */\n              0x00\n                /* \"#utility.yul\":84:126   */\n              0xffffffffffffffffffffffffffffffffffffffff\n                /* \"#utility.yul\":77:82   */\n              dup3\n                /* \"#utility.yul\":73:127   */\n              and\n                /* \"#utility.yul\":62:127   */\n              swap1\n              pop\n                /* \"#utility.yul\":7:133   */\n              swap2\n              swap1\n              pop\n              jump\t// out\n                /* \"#utility.yul\":139:235   */\n            tag_20:\n                /* \"#utility.yul\":176:183   */\n              0x00\n                /* \"#utility.yul\":205:229   */\n              tag_38\n                /* \"#utility.yul\":223:228   */\n              dup3\n                /* \"#utility.yul\":205:229   */\n              tag_19\n              jump\t// in\n            tag_38:\n                /* \"#utility.yul\":194:229   */\n              swap1\n              pop\n                /* \"#utility.yul\":139:235   */\n              swap2\n              swap1\n              pop\n              jump\t// out\n                /* \"#utility.yul\":241:359   */\n            tag_21:\n                /* \"#utility.yul\":328:352   */\n              tag_40\n                /* \"#utility.yul\":346:351   */\n              dup2\n                /* \"#utility.yul\":328:352   */\n              tag_20\n              jump\t// in\n            tag_40:\n                /* \"#utility.yul\":323:326   */\n              dup3\n                /* \"#utility.yul\":316:353   */\n              mstore\n                /* \"#utility.yul\":241:359   */\n              pop\n              pop\n              jump\t// out\n                /* \"#utility.yul\":365:587   */\n            tag_8:\n                /* \"#utility.yul\":458:462   */\n              0x00\n                /* \"#utility.yul\":496:498   */\n              0x20\n                /* \"#utility.yul\":485:494   */\n              dup3\n                /* \"#utility.yul\":481:499   */\n              add\n                /* \"#utility.yul\":473:499   */\n              swap1\n              pop\n                /* \"#utility.yul\":509:580   */\n              tag_42\n                /* \"#utility.yul\":577:578   */\n              0x00\n                /* \"#utility.yul\":566:575   */\n              dup4\n                /* \"#utility.yul\":562:579   */\n              add\n                /* \"#utility.yul\":553:559   */\n              dup5\n                /* \"#utility.yul\":509:580   */\n              tag_21\n              jump\t// in\n            tag_42:\n                /* \"#utility.yul\":365:587   */\n              swap3\n              swap2\n              pop\n              pop\n              jump\t// out\n                /* \"#utility.yul\":674:791   */\n            tag_23:\n                /* \"#utility.yul\":783:784   */\n              0x00\n                /* \"#utility.yul\":780:781   */\n              dup1\n                /* \"#utility.yul\":773:785   */\n              revert\n                /* \"#utility.yul\":920:997   */\n            tag_25:\n                /* \"#utility.yul\":957:964   */\n              0x00\n                /* \"#utility.yul\":986:991   */\n              dup2\n                /* \"#utility.yul\":975:991   */\n              swap1\n              pop\n                /* \"#utility.yul\":920:997   */\n              swap2\n              swap1\n              pop\n              jump\t// out\n                /* \"#utility.yul\":1003:1125   */\n            tag_26:\n                /* \"#utility.yul\":1076:1100   */\n              tag_48\n                /* \"#utility.yul\":1094:1099   */\n              dup2\n                /* \"#utility.yul\":1076:1100   */\n              tag_25\n              jump\t// in\n            tag_48:\n                /* \"#utility.yul\":1069:1074   */\n              dup2\n                /* \"#utility.yul\":1066:1101   */\n              eq\n                /* \"#utility.yul\":1056:1119   */\n              tag_49\n              jumpi\n                /* \"#utility.yul\":1115:1116   */\n              0x00\n                /* \"#utility.yul\":1112:1113   */\n              dup1\n                /* \"#utility.yul\":1105:1117   */\n              revert\n                /* \"#utility.yul\":1056:1119   */\n            tag_49:\n                /* \"#utility.yul\":1003:1125   */\n              pop\n              jump\t// out\n                /* \"#utility.yul\":1131:1270   */\n            tag_27:\n                /* \"#utility.yul\":1177:1182   */\n              0x00\n                /* \"#utility.yul\":1215:1221   */\n              dup2\n                /* \"#utility.yul\":1202:1222   */\n              calldataload\n                /* \"#utility.yul\":1193:1222   */\n              swap1\n              pop\n                /* \"#utility.yul\":1231:1264   */\n              tag_51\n                /* \"#utility.yul\":1258:1263   */\n              dup2\n                /* \"#utility.yul\":1231:1264   */\n              tag_26\n              jump\t// in\n            tag_51:\n                /* \"#utility.yul\":1131:1270   */\n              swap3\n              swap2\n              pop\n              pop\n              jump\t// out\n                /* \"#utility.yul\":1276:1605   */\n            tag_11:\n                /* \"#utility.yul\":1335:1341   */\n              0x00\n                /* \"#utility.yul\":1384:1386   */\n              0x20\n                /* \"#utility.yul\":1372:1381   */\n              dup3\n                /* \"#utility.yul\":1363:1370   */\n              dup5\n                /* \"#utility.yul\":1359:1382   */\n              sub\n                /* \"#utility.yul\":1355:1387   */\n              slt\n                /* \"#utility.yul\":1352:1471   */\n              iszero\n              tag_53\n              jumpi\n                /* \"#utility.yul\":1390:1469   */\n              tag_54\n              tag_23\n              jump\t// in\n            tag_54:\n                /* \"#utility.yul\":1352:1471   */\n            tag_53:\n                /* \"#utility.yul\":1510:1511   */\n              0x00\n                /* \"#utility.yul\":1535:1588   */\n              tag_55\n                /* \"#utility.yul\":1580:1587   */\n              dup5\n                /* \"#utility.yul\":1571:1577   */\n              dup3\n                /* \"#utility.yul\":1560:1569   */\n              dup6\n                /* \"#utility.yul\":1556:1578   */\n              add\n                /* \"#utility.yul\":1535:1588   */\n              tag_27\n              jump\t// in\n            tag_55:\n                /* \"#utility.yul\":1525:1588   */\n              swap2\n              pop\n                /* \"#utility.yul\":1481:1598   */\n              pop\n                /* \"#utility.yul\":1276:1605   */\n              swap3\n              swap2\n              pop\n              pop\n              jump\t// out\n                /* \"#utility.yul\":1611:1710   */\n            tag_28:\n                /* \"#utility.yul\":1663:1669   */\n              0x00\n                /* \"#utility.yul\":1697:1702   */\n              dup2\n                /* \"#utility.yul\":1691:1703   */\n              mload\n                /* \"#utility.yul\":1681:1703   */\n              swap1\n              pop\n                /* \"#utility.yul\":1611:1710   */\n              swap2\n              swap1\n              pop\n              jump\t// out\n                /* \"#utility.yul\":1716:1885   */\n            tag_29:\n                /* \"#utility.yul\":1800:1811   */\n              0x00\n                /* \"#utility.yul\":1834:1840   */\n              dup3\n                /* \"#utility.yul\":1829:1832   */\n              dup3\n                /* \"#utility.yul\":1822:1841   */\n              mstore\n                /* \"#utility.yul\":1874:1878   */\n              0x20\n                /* \"#utility.yul\":1869:1872   */\n              dup3\n                /* \"#utility.yul\":1865:1879   */\n              add\n                /* \"#utility.yul\":1850:1879   */\n              swap1\n              pop\n                /* \"#utility.yul\":1716:1885   */\n              swap3\n              swap2\n              pop\n              pop\n              jump\t// out\n                /* \"#utility.yul\":1891:2137   */\n            tag_30:\n                /* \"#utility.yul\":1972:1973   */\n              0x00\n                /* \"#utility.yul\":1982:2095   */\n            tag_59:\n                /* \"#utility.yul\":1996:2002   */\n              dup4\n                /* \"#utility.yul\":1993:1994   */\n              dup2\n                /* \"#utility.yul\":1990:2003   */\n              lt\n                /* \"#utility.yul\":1982:2095   */\n              iszero\n              tag_61\n              jumpi\n                /* \"#utility.yul\":2081:2082   */\n              dup1\n                /* \"#utility.yul\":2076:2079   */\n              dup3\n                /* \"#utility.yul\":2072:2083   */\n              add\n                /* \"#utility.yul\":2066:2084   */\n              mload\n                /* \"#utility.yul\":2062:2063   */\n              dup2\n                /* \"#utility.yul\":2057:2060   */\n              dup5\n                /* \"#utility.yul\":2053:2064   */\n              add\n                /* \"#utility.yul\":2046:2085   */\n              mstore\n                /* \"#utility.yul\":2018:2020   */\n              0x20\n                /* \"#utility.yul\":2015:2016   */\n              dup2\n                /* \"#utility.yul\":2011:2021   */\n              add\n                /* \"#utility.yul\":2006:2021   */\n              swap1\n              pop\n                /* \"#utility.yul\":1982:2095   */\n              jump(tag_59)\n            tag_61:\n                /* \"#utility.yul\":2129:2130   */\n              0x00\n                /* \"#utility.yul\":2120:2126   */\n              dup5\n                /* \"#utility.yul\":2115:2118   */\n              dup5\n                /* \"#utility.yul\":2111:2127   */\n              add\n                /* \"#utility.yul\":2104:2131   */\n              mstore\n                /* \"#utility.yul\":1953:2137   */\n              pop\n                /* \"#utility.yul\":1891:2137   */\n              pop\n              pop\n              pop\n              jump\t// out\n                /* \"#utility.yul\":2143:2245   */\n            tag_31:\n                /* \"#utility.yul\":2184:2190   */\n              0x00\n                /* \"#utility.yul\":2235:2237   */\n              0x1f\n                /* \"#utility.yul\":2231:2238   */\n              not\n                /* \"#utility.yul\":2226:2228   */\n              0x1f\n                /* \"#utility.yul\":2219:2224   */\n              dup4\n                /* \"#utility.yul\":2215:2229   */\n              add\n                /* \"#utility.yul\":2211:2239   */\n              and\n                /* \"#utility.yul\":2201:2239   */\n              swap1\n              pop\n                /* \"#utility.yul\":2143:2245   */\n              swap2\n              swap1\n              pop\n              jump\t// out\n                /* \"#utility.yul\":2251:2628   */\n            tag_32:\n                /* \"#utility.yul\":2339:2342   */\n              0x00\n                /* \"#utility.yul\":2367:2406   */\n              tag_64\n                /* \"#utility.yul\":2400:2405   */\n              dup3\n                /* \"#utility.yul\":2367:2406   */\n              tag_28\n              jump\t// in\n            tag_64:\n                /* \"#utility.yul\":2422:2493   */\n              tag_65\n                /* \"#utility.yul\":2486:2492   */\n              dup2\n                /* \"#utility.yul\":2481:2484   */\n              dup6\n                /* \"#utility.yul\":2422:2493   */\n              tag_29\n              jump\t// in\n            tag_65:\n                /* \"#utility.yul\":2415:2493   */\n              swap4\n              pop\n                /* \"#utility.yul\":2502:2567   */\n              tag_66\n                /* \"#utility.yul\":2560:2566   */\n              dup2\n                /* \"#utility.yul\":2555:2558   */\n              dup6\n                /* \"#utility.yul\":2548:2552   */\n              0x20\n                /* \"#utility.yul\":2541:2546   */\n              dup7\n                /* \"#utility.yul\":2537:2553   */\n              add\n                /* \"#utility.yul\":2502:2567   */\n              tag_30\n              jump\t// in\n            tag_66:\n                /* \"#utility.yul\":2592:2621   */\n              tag_67\n                /* \"#utility.yul\":2614:2620   */\n              dup2\n                /* \"#utility.yul\":2592:2621   */\n              tag_31\n              jump\t// in\n            tag_67:\n                /* \"#utility.yul\":2587:2590   */\n              dup5\n                /* \"#utility.yul\":2583:2622   */\n              add\n                /* \"#utility.yul\":2576:2622   */\n              swap2\n              pop\n                /* \"#utility.yul\":2343:2628   */\n              pop\n                /* \"#utility.yul\":2251:2628   */\n              swap3\n              swap2\n              pop\n              pop\n              jump\t// out\n                /* \"#utility.yul\":2634:2947   */\n            tag_14:\n                /* \"#utility.yul\":2747:2751   */\n              0x00\n                /* \"#utility.yul\":2785:2787   */\n              0x20\n                /* \"#utility.yul\":2774:2783   */\n              dup3\n                /* \"#utility.yul\":2770:2788   */\n              add\n                /* \"#utility.yul\":2762:2788   */\n              swap1\n              pop\n                /* \"#utility.yul\":2834:2843   */\n              dup2\n                /* \"#utility.yul\":2828:2832   */\n              dup2\n                /* \"#utility.yul\":2824:2844   */\n              sub\n                /* \"#utility.yul\":2820:2821   */\n              0x00\n                /* \"#utility.yul\":2809:2818   */\n              dup4\n                /* \"#utility.yul\":2805:2822   */\n              add\n                /* \"#utility.yul\":2798:2845   */\n              mstore\n                /* \"#utility.yul\":2862:2940   */\n              tag_69\n                /* \"#utility.yul\":2935:2939   */\n              dup2\n                /* \"#utility.yul\":2926:2932   */\n              dup5\n                /* \"#utility.yul\":2862:2940   */\n              tag_32\n              jump\t// in\n            tag_69:\n                /* \"#utility.yul\":2854:2940   */\n              swap1\n              pop\n                /* \"#utility.yul\":2634:2947   */\n              swap3\n              swap2\n              pop\n              pop\n              jump\t// out\n                /* \"#utility.yul\":2953:3117   */\n            tag_33:\n                /* \"#utility.yul\":3093:3109   */\n              0x72657175697265206661696c6564000000000000000000000000000000000000\n                /* \"#utility.yul\":3089:3090   */\n              0x00\n                /* \"#utility.yul\":3081:3087   */\n              dup3\n                /* \"#utility.yul\":3077:3091   */\n              add\n                /* \"#utility.yul\":3070:3110   */\n              mstore\n                /* \"#utility.yul\":2953:3117   */\n              pop\n              jump\t// out\n                /* \"#utility.yul\":3123:3489   */\n            tag_34:\n                /* \"#utility.yul\":3265:3268   */\n              0x00\n                /* \"#utility.yul\":3286:3353   */\n              tag_72\n                /* \"#utility.yul\":3350:3352   */\n              0x0e\n                /* \"#utility.yul\":3345:3348   */\n              dup4\n                /* \"#utility.yul\":3286:3353   */\n              tag_29\n              jump\t// in\n            tag_72:\n                /* \"#utility.yul\":3279:3353   */\n              swap2\n              pop\n                /* \"#utility.yul\":3362:3455   */\n              tag_73\n                /* \"#utility.yul\":3451:3454   */\n              dup3\n                /* \"#utility.yul\":3362:3455   */\n              tag_33\n              jump\t// in\n            tag_73:\n                /* \"#utility.yul\":3480:3482   */\n              0x20\n                /* \"#utility.yul\":3475:3478   */\n              dup3\n                /* \"#utility.yul\":3471:3483   */\n              add\n                /* \"#utility.yul\":3464:3483   */\n              swap1\n              pop\n                /* \"#utility.yul\":3123:3489   */\n              swap2\n              swap1\n              pop\n              jump\t// out\n                /* \"#utility.yul\":3495:3914   */\n            tag_18:\n                /* \"#utility.yul\":3661:3665   */\n              0x00\n                /* \"#utility.yul\":3699:3701   */\n              0x20\n                /* \"#utility.yul\":3688:3697   */\n              dup3\n                /* \"#utility.yul\":3684:3702   */\n              add\n                /* \"#utility.yul\":3676:3702   */\n              swap1\n              pop\n                /* \"#utility.yul\":3748:3757   */\n              dup2\n                /* \"#utility.yul\":3742:3746   */\n              dup2\n                /* \"#utility.yul\":3738:3758   */\n              sub\n                /* \"#utility.yul\":3734:3735   */\n              0x00\n                /* \"#utility.yul\":3723:3732   */\n              dup4\n                /* \"#utility.yul\":3719:3736   */\n              add\n                /* \"#utility.yul\":3712:3759   */\n              mstore\n                /* \"#utility.yul\":3776:3907   */\n              tag_75\n                /* \"#utility.yul\":3902:3906   */\n              dup2\n                /* \"#utility.yul\":3776:3907   */\n              tag_34\n              jump\t// in\n            tag_75:\n                /* \"#utility.yul\":3768:3907   */\n              swap1\n              pop\n                /* \"#utility.yul\":3495:3914   */\n              swap2\n              swap1\n              pop\n              jump\t// out\n\n            auxdata: 0xa2646970667358221220f1bf1ae0fdc640b8782117fbf2bc4266e1ea16cab9a7e7863851ea0dfcf50bf364736f6c63430008160033\n        }\n    }\n\n    auxdata: 0xa264697066735822122093f407ab8fbaaa831f828e8c37edf3a82a84b99a7cae2f0b3f368e47af708fa064736f6c63430008160033\n}\n\nsub_1: assembly {\n        /* \"contracts/tryCatch.sol\":58:439  contract Normal{... */\n      mstore(0x40, 0x80)\n        /* \"contracts/tryCatch.sol\":109:296  constructor(address _addrr){... */\n      callvalue\n      dup1\n      iszero\n      tag_1\n      jumpi\n      0x00\n      dup1\n      revert\n    tag_1:\n      pop\n      mload(0x40)\n      sub(codesize, bytecodeSize)\n      dup1\n      bytecodeSize\n      dup4\n      codecopy\n      dup2\n      dup2\n      add\n      0x40\n      mstore\n      dup2\n      add\n      swap1\n      tag_2\n      swap2\n      swap1\n      tag_3\n      jump\t// in\n    tag_2:\n        /* \"contracts/tryCatch.sol\":171:172  0 */\n      0x00\n        /* \"contracts/tryCatch.sol\":155:173  _addrr!=address(0) */\n      0xffffffffffffffffffffffffffffffffffffffff\n      and\n        /* \"contracts/tryCatch.sol\":155:161  _addrr */\n      dup2\n        /* \"contracts/tryCatch.sol\":155:173  _addrr!=address(0) */\n      0xffffffffffffffffffffffffffffffffffffffff\n      and\n      sub\n        /* \"contracts/tryCatch.sol\":147:191  require(_addrr!=address(0),\"invalid adress\") */\n      tag_6\n      jumpi\n      mload(0x40)\n      0x08c379a000000000000000000000000000000000000000000000000000000000\n      dup2\n      mstore\n      0x04\n      add\n      tag_7\n      swap1\n      tag_8\n      jump\t// in\n    tag_7:\n      mload(0x40)\n      dup1\n      swap2\n      sub\n      swap1\n      revert\n    tag_6:\n        /* \"contracts/tryCatch.sol\":216:258  0x0000000000000000000000000000000000000001 */\n      0x01\n        /* \"contracts/tryCatch.sol\":208:258  _addrr!=0x0000000000000000000000000000000000000001 */\n      0xffffffffffffffffffffffffffffffffffffffff\n      and\n        /* \"contracts/tryCatch.sol\":208:214  _addrr */\n      dup2\n        /* \"contracts/tryCatch.sol\":208:258  _addrr!=0x0000000000000000000000000000000000000001 */\n      0xffffffffffffffffffffffffffffffffffffffff\n      and\n      sub\n        /* \"contracts/tryCatch.sol\":201:259  assert(_addrr!=0x0000000000000000000000000000000000000001) */\n      tag_9\n      jumpi\n      tag_10\n      tag_11\n      jump\t// in\n    tag_10:\n    tag_9:\n        /* \"contracts/tryCatch.sol\":276:282  _addrr */\n      dup1\n        /* \"contracts/tryCatch.sol\":270:275  owner */\n      0x00\n      dup1\n        /* \"contracts/tryCatch.sol\":270:282  owner=_addrr */\n      0x0100\n      exp\n      dup2\n      sload\n      dup2\n      0xffffffffffffffffffffffffffffffffffffffff\n      mul\n      not\n      and\n      swap1\n      dup4\n      0xffffffffffffffffffffffffffffffffffffffff\n      and\n      mul\n      or\n      swap1\n      sstore\n      pop\n        /* \"contracts/tryCatch.sol\":109:296  constructor(address _addrr){... */\n      pop\n        /* \"contracts/tryCatch.sol\":58:439  contract Normal{... */\n      jump(tag_12)\n        /* \"#utility.yul\":88:205   */\n    tag_14:\n        /* \"#utility.yul\":197:198   */\n      0x00\n        /* \"#utility.yul\":194:195   */\n      dup1\n        /* \"#utility.yul\":187:199   */\n      revert\n        /* \"#utility.yul\":334:460   */\n    tag_16:\n        /* \"#utility.yul\":371:378   */\n      0x00\n        /* \"#utility.yul\":411:453   */\n      0xffffffffffffffffffffffffffffffffffffffff\n        /* \"#utility.yul\":404:409   */\n      dup3\n        /* \"#utility.yul\":400:454   */\n      and\n        /* \"#utility.yul\":389:454   */\n      swap1\n      pop\n        /* \"#utility.yul\":334:460   */\n      swap2\n      swap1\n      pop\n      jump\t// out\n        /* \"#utility.yul\":466:562   */\n    tag_17:\n        /* \"#utility.yul\":503:510   */\n      0x00\n        /* \"#utility.yul\":532:556   */\n      tag_29\n        /* \"#utility.yul\":550:555   */\n      dup3\n        /* \"#utility.yul\":532:556   */\n      tag_16\n      jump\t// in\n    tag_29:\n        /* \"#utility.yul\":521:556   */\n      swap1\n      pop\n        /* \"#utility.yul\":466:562   */\n      swap2\n      swap1\n      pop\n      jump\t// out\n        /* \"#utility.yul\":568:690   */\n    tag_18:\n        /* \"#utility.yul\":641:665   */\n      tag_31\n        /* \"#utility.yul\":659:664   */\n      dup2\n        /* \"#utility.yul\":641:665   */\n      tag_17\n      jump\t// in\n    tag_31:\n        /* \"#utility.yul\":634:639   */\n      dup2\n        /* \"#utility.yul\":631:666   */\n      eq\n        /* \"#utility.yul\":621:684   */\n      tag_32\n      jumpi\n        /* \"#utility.yul\":680:681   */\n      0x00\n        /* \"#utility.yul\":677:678   */\n      dup1\n        /* \"#utility.yul\":670:682   */\n      revert\n        /* \"#utility.yul\":621:684   */\n    tag_32:\n        /* \"#utility.yul\":568:690   */\n      pop\n      jump\t// out\n        /* \"#utility.yul\":696:839   */\n    tag_19:\n        /* \"#utility.yul\":753:758   */\n      0x00\n        /* \"#utility.yul\":784:790   */\n      dup2\n        /* \"#utility.yul\":778:791   */\n      mload\n        /* \"#utility.yul\":769:791   */\n      swap1\n      pop\n        /* \"#utility.yul\":800:833   */\n      tag_34\n        /* \"#utility.yul\":827:832   */\n      dup2\n        /* \"#utility.yul\":800:833   */\n      tag_18\n      jump\t// in\n    tag_34:\n        /* \"#utility.yul\":696:839   */\n      swap3\n      swap2\n      pop\n      pop\n      jump\t// out\n        /* \"#utility.yul\":845:1196   */\n    tag_3:\n        /* \"#utility.yul\":915:921   */\n      0x00\n        /* \"#utility.yul\":964:966   */\n      0x20\n        /* \"#utility.yul\":952:961   */\n      dup3\n        /* \"#utility.yul\":943:950   */\n      dup5\n        /* \"#utility.yul\":939:962   */\n      sub\n        /* \"#utility.yul\":935:967   */\n      slt\n        /* \"#utility.yul\":932:1051   */\n      iszero\n      tag_36\n      jumpi\n        /* \"#utility.yul\":970:1049   */\n      tag_37\n      tag_14\n      jump\t// in\n    tag_37:\n        /* \"#utility.yul\":932:1051   */\n    tag_36:\n        /* \"#utility.yul\":1090:1091   */\n      0x00\n        /* \"#utility.yul\":1115:1179   */\n      tag_38\n        /* \"#utility.yul\":1171:1178   */\n      dup5\n        /* \"#utility.yul\":1162:1168   */\n      dup3\n        /* \"#utility.yul\":1151:1160   */\n      dup6\n        /* \"#utility.yul\":1147:1169   */\n      add\n        /* \"#utility.yul\":1115:1179   */\n      tag_19\n      jump\t// in\n    tag_38:\n        /* \"#utility.yul\":1105:1179   */\n      swap2\n      pop\n        /* \"#utility.yul\":1061:1189   */\n      pop\n        /* \"#utility.yul\":845:1196   */\n      swap3\n      swap2\n      pop\n      pop\n      jump\t// out\n        /* \"#utility.yul\":1202:1371   */\n    tag_20:\n        /* \"#utility.yul\":1286:1297   */\n      0x00\n        /* \"#utility.yul\":1320:1326   */\n      dup3\n        /* \"#utility.yul\":1315:1318   */\n      dup3\n        /* \"#utility.yul\":1308:1327   */\n      mstore\n        /* \"#utility.yul\":1360:1364   */\n      0x20\n        /* \"#utility.yul\":1355:1358   */\n      dup3\n        /* \"#utility.yul\":1351:1365   */\n      add\n        /* \"#utility.yul\":1336:1365   */\n      swap1\n      pop\n        /* \"#utility.yul\":1202:1371   */\n      swap3\n      swap2\n      pop\n      pop\n      jump\t// out\n        /* \"#utility.yul\":1377:1541   */\n    tag_21:\n        /* \"#utility.yul\":1517:1533   */\n      0x696e76616c696420616472657373000000000000000000000000000000000000\n        /* \"#utility.yul\":1513:1514   */\n      0x00\n        /* \"#utility.yul\":1505:1511   */\n      dup3\n        /* \"#utility.yul\":1501:1515   */\n      add\n        /* \"#utility.yul\":1494:1534   */\n      mstore\n        /* \"#utility.yul\":1377:1541   */\n      pop\n      jump\t// out\n        /* \"#utility.yul\":1547:1913   */\n    tag_22:\n        /* \"#utility.yul\":1689:1692   */\n      0x00\n        /* \"#utility.yul\":1710:1777   */\n      tag_42\n        /* \"#utility.yul\":1774:1776   */\n      0x0e\n        /* \"#utility.yul\":1769:1772   */\n      dup4\n        /* \"#utility.yul\":1710:1777   */\n      tag_20\n      jump\t// in\n    tag_42:\n        /* \"#utility.yul\":1703:1777   */\n      swap2\n      pop\n        /* \"#utility.yul\":1786:1879   */\n      tag_43\n        /* \"#utility.yul\":1875:1878   */\n      dup3\n        /* \"#utility.yul\":1786:1879   */\n      tag_21\n      jump\t// in\n    tag_43:\n        /* \"#utility.yul\":1904:1906   */\n      0x20\n        /* \"#utility.yul\":1899:1902   */\n      dup3\n        /* \"#utility.yul\":1895:1907   */\n      add\n        /* \"#utility.yul\":1888:1907   */\n      swap1\n      pop\n        /* \"#utility.yul\":1547:1913   */\n      swap2\n      swap1\n      pop\n      jump\t// out\n        /* \"#utility.yul\":1919:2338   */\n    tag_8:\n        /* \"#utility.yul\":2085:2089   */\n      0x00\n        /* \"#utility.yul\":2123:2125   */\n      0x20\n        /* \"#utility.yul\":2112:2121   */\n      dup3\n        /* \"#utility.yul\":2108:2126   */\n      add\n        /* \"#utility.yul\":2100:2126   */\n      swap1\n      pop\n        /* \"#utility.yul\":2172:2181   */\n      dup2\n        /* \"#utility.yul\":2166:2170   */\n      dup2\n        /* \"#utility.yul\":2162:2182   */\n      sub\n        /* \"#utility.yul\":2158:2159   */\n      0x00\n        /* \"#utility.yul\":2147:2156   */\n      dup4\n        /* \"#utility.yul\":2143:2160   */\n      add\n        /* \"#utility.yul\":2136:2183   */\n      mstore\n        /* \"#utility.yul\":2200:2331   */\n      tag_45\n        /* \"#utility.yul\":2326:2330   */\n      dup2\n        /* \"#utility.yul\":2200:2331   */\n      tag_22\n      jump\t// in\n    tag_45:\n        /* \"#utility.yul\":2192:2331   */\n      swap1\n      pop\n        /* \"#utility.yul\":1919:2338   */\n      swap2\n      swap1\n      pop\n      jump\t// out\n        /* \"#utility.yul\":2344:2524   */\n    tag_11:\n        /* \"#utility.yul\":2392:2469   */\n      0x4e487b7100000000000000000000000000000000000000000000000000000000\n        /* \"#utility.yul\":2389:2390   */\n      0x00\n        /* \"#utility.yul\":2382:2470   */\n      mstore\n        /* \"#utility.yul\":2489:2493   */\n      0x01\n        /* \"#utility.yul\":2486:2487   */\n      0x04\n        /* \"#utility.yul\":2479:2494   */\n      mstore\n        /* \"#utility.yul\":2513:2517   */\n      0x24\n        /* \"#utility.yul\":2510:2511   */\n      0x00\n        /* \"#utility.yul\":2503:2518   */\n      revert\n        /* \"contracts/tryCatch.sol\":58:439  contract Normal{... */\n    tag_12:\n      dataSize(sub_0)\n      dup1\n      dataOffset(sub_0)\n      0x00\n      codecopy\n      0x00\n      return\n    stop\n\n    sub_0: assembly {\n            /* \"contracts/tryCatch.sol\":58:439  contract Normal{... */\n          mstore(0x40, 0x80)\n          callvalue\n          dup1\n          iszero\n          tag_1\n          jumpi\n          0x00\n          dup1\n          revert\n        tag_1:\n          pop\n          jumpi(tag_2, lt(calldatasize, 0x04))\n          shr(0xe0, calldataload(0x00))\n          dup1\n          0x8da5cb5b\n          eq\n          tag_3\n          jumpi\n          dup1\n          0xa9bf5633\n          eq\n          tag_4\n          jumpi\n        tag_2:\n          0x00\n          dup1\n          revert\n            /* \"contracts/tryCatch.sol\":80:100  address public owner */\n        tag_3:\n          tag_5\n          tag_6\n          jump\t// in\n        tag_5:\n          mload(0x40)\n          tag_7\n          swap2\n          swap1\n          tag_8\n          jump\t// in\n        tag_7:\n          mload(0x40)\n          dup1\n          swap2\n          sub\n          swap1\n          return\n            /* \"contracts/tryCatch.sol\":298:436  function myFunc(uint _X)public pure returns(string memory){... */\n        tag_4:\n          tag_9\n          0x04\n          dup1\n          calldatasize\n          sub\n          dup2\n          add\n          swap1\n          tag_10\n          swap2\n          swap1\n          tag_11\n          jump\t// in\n        tag_10:\n          tag_12\n          jump\t// in\n        tag_9:\n          mload(0x40)\n          tag_13\n          swap2\n          swap1\n          tag_14\n          jump\t// in\n        tag_13:\n          mload(0x40)\n          dup1\n          swap2\n          sub\n          swap1\n          return\n            /* \"contracts/tryCatch.sol\":80:100  address public owner */\n        tag_6:\n          0x00\n          dup1\n          sload\n          swap1\n          0x0100\n          exp\n          swap1\n          div\n          0xffffffffffffffffffffffffffffffffffffffff\n          and\n          dup2\n          jump\t// out\n            /* \"contracts/tryCatch.sol\":298:436  function myFunc(uint _X)public pure returns(string memory){... */\n        tag_12:\n            /* \"contracts/tryCatch.sol\":342:355  string memory */\n          0x60\n            /* \"contracts/tryCatch.sol\":375:376  0 */\n          0x00\n            /* \"contracts/tryCatch.sol\":371:373  _X */\n          dup3\n            /* \"contracts/tryCatch.sol\":371:376  _X!=0 */\n          sub\n            /* \"contracts/tryCatch.sol\":363:394  require(_X!=0,\"require failed\") */\n          tag_16\n          jumpi\n          mload(0x40)\n          0x08c379a000000000000000000000000000000000000000000000000000000000\n          dup2\n          mstore\n          0x04\n          add\n          tag_17\n          swap1\n          tag_18\n          jump\t// in\n        tag_17:\n          mload(0x40)\n          dup1\n          swap2\n          sub\n          swap1\n          revert\n        tag_16:\n            /* \"contracts/tryCatch.sol\":401:432  return \"my function was called\" */\n          mload(0x40)\n          dup1\n          0x40\n          add\n          0x40\n          mstore\n          dup1\n          0x16\n          dup2\n          mstore\n          0x20\n          add\n          0x6d792066756e6374696f6e207761732063616c6c656400000000000000000000\n          dup2\n          mstore\n          pop\n          swap1\n          pop\n            /* \"contracts/tryCatch.sol\":298:436  function myFunc(uint _X)public pure returns(string memory){... */\n          swap2\n          swap1\n          pop\n          jump\t// out\n            /* \"#utility.yul\":7:133   */\n        tag_19:\n            /* \"#utility.yul\":44:51   */\n          0x00\n            /* \"#utility.yul\":84:126   */\n          0xffffffffffffffffffffffffffffffffffffffff\n            /* \"#utility.yul\":77:82   */\n          dup3\n            /* \"#utility.yul\":73:127   */\n          and\n            /* \"#utility.yul\":62:127   */\n          swap1\n          pop\n            /* \"#utility.yul\":7:133   */\n          swap2\n          swap1\n          pop\n          jump\t// out\n            /* \"#utility.yul\":139:235   */\n        tag_20:\n            /* \"#utility.yul\":176:183   */\n          0x00\n            /* \"#utility.yul\":205:229   */\n          tag_38\n            /* \"#utility.yul\":223:228   */\n          dup3\n            /* \"#utility.yul\":205:229   */\n          tag_19\n          jump\t// in\n        tag_38:\n            /* \"#utility.yul\":194:229   */\n          swap1\n          pop\n            /* \"#utility.yul\":139:235   */\n          swap2\n          swap1\n          pop\n          jump\t// out\n            /* \"#utility.yul\":241:359   */\n        tag_21:\n            /* \"#utility.yul\":328:352   */\n          tag_40\n            /* \"#utility.yul\":346:351   */\n          dup2\n            /* \"#utility.yul\":328:352   */\n          tag_20\n          jump\t// in\n        tag_40:\n            /* \"#utility.yul\":323:326   */\n          dup3\n            /* \"#utility.yul\":316:353   */\n          mstore\n            /* \"#utility.yul\":241:359   */\n          pop\n          pop\n          jump\t// out\n            /* \"#utility.yul\":365:587   */\n        tag_8:\n            /* \"#utility.yul\":458:462   */\n          0x00\n            /* \"#utility.yul\":496:498   */\n          0x20\n            /* \"#utility.yul\":485:494   */\n          dup3\n            /* \"#utility.yul\":481:499   */\n          add\n            /* \"#utility.yul\":473:499   */\n          swap1\n          pop\n            /* \"#utility.yul\":509:580   */\n          tag_42\n            /* \"#utility.yul\":577:578   */\n          0x00\n            /* \"#utility.yul\":566:575   */\n          dup4\n            /* \"#utility.yul\":562:579   */\n          add\n            /* \"#utility.yul\":553:559   */\n          dup5\n            /* \"#utility.yul\":509:580   */\n          tag_21\n          jump\t// in\n        tag_42:\n            /* \"#utility.yul\":365:587   */\n          swap3\n          swap2\n          pop\n          pop\n          jump\t// out\n            /* \"#utility.yul\":674:791   */\n        tag_23:\n            /* \"#utility.yul\":783:784   */\n          0x00\n            /* \"#utility.yul\":780:781   */\n          dup1\n            /* \"#utility.yul\":773:785   */\n          revert\n            /* \"#utility.yul\":920:997   */\n        tag_25:\n            /* \"#utility.yul\":957:964   */\n          0x00\n            /* \"#utility.yul\":986:991   */\n          dup2\n            /* \"#utility.yul\":975:991   */\n          swap1\n          pop\n            /* \"#utility.yul\":920:997   */\n          swap2\n          swap1\n          pop\n          jump\t// out\n            /* \"#utility.yul\":1003:1125   */\n        tag_26:\n            /* \"#utility.yul\":1076:1100   */\n          tag_48\n            /* \"#utility.yul\":1094:1099   */\n          dup2\n            /* \"#utility.yul\":1076:1100   */\n          tag_25\n          jump\t// in\n        tag_48:\n            /* \"#utility.yul\":1069:1074   */\n          dup2\n            /* \"#utility.yul\":1066:1101   */\n          eq\n            /* \"#utility.yul\":1056:1119   */\n          tag_49\n          jumpi\n            /* \"#utility.yul\":1115:1116   */\n          0x00\n            /* \"#utility.yul\":1112:1113   */\n          dup1\n            /* \"#utility.yul\":1105:1117   */\n          revert\n            /* \"#utility.yul\":1056:1119   */\n        tag_49:\n            /* \"#utility.yul\":1003:1125   */\n          pop\n          jump\t// out\n            /* \"#utility.yul\":1131:1270   */\n        tag_27:\n            /* \"#utility.yul\":1177:1182   */\n          0x00\n            /* \"#utility.yul\":1215:1221   */\n          dup2\n            /* \"#utility.yul\":1202:1222   */\n          calldataload\n            /* \"#utility.yul\":1193:1222   */\n          swap1\n          pop\n            /* \"#utility.yul\":1231:1264   */\n          tag_51\n            /* \"#utility.yul\":1258:1263   */\n          dup2\n            /* \"#utility.yul\":1231:1264   */\n          tag_26\n          jump\t// in\n        tag_51:\n            /* \"#utility.yul\":1131:1270   */\n          swap3\n          swap2\n          pop\n          pop\n          jump\t// out\n            /* \"#utility.yul\":1276:1605   */\n        tag_11:\n            /* \"#utility.yul\":1335:1341   */\n          0x00\n            /* \"#utility.yul\":1384:1386   */\n          0x20\n            /* \"#utility.yul\":1372:1381   */\n          dup3\n            /* \"#utility.yul\":1363:1370   */\n          dup5\n            /* \"#utility.yul\":1359:1382   */\n          sub\n            /* \"#utility.yul\":1355:1387   */\n          slt\n            /* \"#utility.yul\":1352:1471   */\n          iszero\n          tag_53\n          jumpi\n            /* \"#utility.yul\":1390:1469   */\n          tag_54\n          tag_23\n          jump\t// in\n        tag_54:\n            /* \"#utility.yul\":1352:1471   */\n        tag_53:\n            /* \"#utility.yul\":1510:1511   */\n          0x00\n            /* \"#utility.yul\":1535:1588   */\n          tag_55\n            /* \"#utility.yul\":1580:1587   */\n          dup5\n            /* \"#utility.yul\":1571:1577   */\n          dup3\n            /* \"#utility.yul\":1560:1569   */\n          dup6\n            /* \"#utility.yul\":1556:1578   */\n          add\n            /* \"#utility.yul\":1535:1588   */\n          tag_27\n          jump\t// in\n        tag_55:\n            /* \"#utility.yul\":1525:1588   */\n          swap2\n          pop\n            /* \"#utility.yul\":1481:1598   */\n          pop\n            /* \"#utility.yul\":1276:1605   */\n          swap3\n          swap2\n          pop\n          pop\n          jump\t// out\n            /* \"#utility.yul\":1611:1710   */\n        tag_28:\n            /* \"#utility.yul\":1663:1669   */\n          0x00\n            /* \"#utility.yul\":1697:1702   */\n          dup2\n            /* \"#utility.yul\":1691:1703   */\n          mload\n            /* \"#utility.yul\":1681:1703   */\n          swap1\n          pop\n            /* \"#utility.yul\":1611:1710   */\n          swap2\n          swap1\n          pop\n          jump\t// out\n            /* \"#utility.yul\":1716:1885   */\n        tag_29:\n            /* \"#utility.yul\":1800:1811   */\n          0x00\n            /* \"#utility.yul\":1834:1840   */\n          dup3\n            /* \"#utility.yul\":1829:1832   */\n          dup3\n            /* \"#utility.yul\":1822:1841   */\n          mstore\n            /* \"#utility.yul\":1874:1878   */\n          0x20\n            /* \"#utility.yul\":1869:1872   */\n          dup3\n            /* \"#utility.yul\":1865:1879   */\n          add\n            /* \"#utility.yul\":1850:1879   */\n          swap1\n          pop\n            /* \"#utility.yul\":1716:1885   */\n          swap3\n          swap2\n          pop\n          pop\n          jump\t// out\n            /* \"#utility.yul\":1891:2137   */\n        tag_30:\n            /* \"#utility.yul\":1972:1973   */\n          0x00\n            /* \"#utility.yul\":1982:2095   */\n        tag_59:\n            /* \"#utility.yul\":1996:2002   */\n          dup4\n            /* \"#utility.yul\":1993:1994   */\n          dup2\n            /* \"#utility.yul\":1990:2003   */\n          lt\n            /* \"#utility.yul\":1982:2095   */\n          iszero\n          tag_61\n          jumpi\n            /* \"#utility.yul\":2081:2082   */\n          dup1\n            /* \"#utility.yul\":2076:2079   */\n          dup3\n            /* \"#utility.yul\":2072:2083   */\n          add\n            /* \"#utility.yul\":2066:2084   */\n          mload\n            /* \"#utility.yul\":2062:2063   */\n          dup2\n            /* \"#utility.yul\":2057:2060   */\n          dup5\n            /* \"#utility.yul\":2053:2064   */\n          add\n            /* \"#utility.yul\":2046:2085   */\n          mstore\n            /* \"#utility.yul\":2018:2020   */\n          0x20\n            /* \"#utility.yul\":2015:2016   */\n          dup2\n            /* \"#utility.yul\":2011:2021   */\n          add\n            /* \"#utility.yul\":2006:2021   */\n          swap1\n          pop\n            /* \"#utility.yul\":1982:2095   */\n          jump(tag_59)\n        tag_61:\n            /* \"#utility.yul\":2129:2130   */\n          0x00\n            /* \"#utility.yul\":2120:2126   */\n          dup5\n            /* \"#utility.yul\":2115:2118   */\n          dup5\n            /* \"#utility.yul\":2111:2127   */\n          add\n            /* \"#utility.yul\":2104:2131   */\n          mstore\n            /* \"#utility.yul\":1953:2137   */\n          pop\n            /* \"#utility.yul\":1891:2137   */\n          pop\n          pop\n          pop\n          jump\t// out\n            /* \"#utility.yul\":2143:2245   */\n        tag_31:\n            /* \"#utility.yul\":2184:2190   */\n          0x00\n            /* \"#utility.yul\":2235:2237   */\n          0x1f\n            /* \"#utility.yul\":2231:2238   */\n          not\n            /* \"#utility.yul\":2226:2228   */\n          0x1f\n            /* \"#utility.yul\":2219:2224   */\n          dup4\n            /* \"#utility.yul\":2215:2229   */\n          add\n            /* \"#utility.yul\":2211:2239   */\n          and\n            /* \"#utility.yul\":2201:2239   */\n          swap1\n          pop\n            /* \"#utility.yul\":2143:2245   */\n          swap2\n          swap1\n          pop\n          jump\t// out\n            /* \"#utility.yul\":2251:2628   */\n        tag_32:\n            /* \"#utility.yul\":2339:2342   */\n          0x00\n            /* \"#utility.yul\":2367:2406   */\n          tag_64\n            /* \"#utility.yul\":2400:2405   */\n          dup3\n            /* \"#utility.yul\":2367:2406   */\n          tag_28\n          jump\t// in\n        tag_64:\n            /* \"#utility.yul\":2422:2493   */\n          tag_65\n            /* \"#utility.yul\":2486:2492   */\n          dup2\n            /* \"#utility.yul\":2481:2484   */\n          dup6\n            /* \"#utility.yul\":2422:2493   */\n          tag_29\n          jump\t// in\n        tag_65:\n            /* \"#utility.yul\":2415:2493   */\n          swap4\n          pop\n            /* \"#utility.yul\":2502:2567   */\n          tag_66\n            /* \"#utility.yul\":2560:2566   */\n          dup2\n            /* \"#utility.yul\":2555:2558   */\n          dup6\n            /* \"#utility.yul\":2548:2552   */\n          0x20\n            /* \"#utility.yul\":2541:2546   */\n          dup7\n            /* \"#utility.yul\":2537:2553   */\n          add\n            /* \"#utility.yul\":2502:2567   */\n          tag_30\n          jump\t// in\n        tag_66:\n            /* \"#utility.yul\":2592:2621   */\n          tag_67\n            /* \"#utility.yul\":2614:2620   */\n          dup2\n            /* \"#utility.yul\":2592:2621   */\n          tag_31\n          jump\t// in\n        tag_67:\n            /* \"#utility.yul\":2587:2590   */\n          dup5\n            /* \"#utility.yul\":2583:2622   */\n          add\n            /* \"#utility.yul\":2576:2622   */\n          swap2\n          pop\n            /* \"#utility.yul\":2343:2628   */\n          pop\n            /* \"#utility.yul\":2251:2628   */\n          swap3\n          swap2\n          pop\n          pop\n          jump\t// out\n            /* \"#utility.yul\":2634:2947   */\n        tag_14:\n            /* \"#utility.yul\":2747:2751   */\n          0x00\n            /* \"#utility.yul\":2785:2787   */\n          0x20\n            /* \"#utility.yul\":2774:2783   */\n          dup3\n            /* \"#utility.yul\":2770:2788   */\n          add\n            /* \"#utility.yul\":2762:2788   */\n          swap1\n          pop\n            /* \"#utility.yul\":2834:2843   */\n          dup2\n            /* \"#utility.yul\":2828:2832   */\n          dup2\n            /* \"#utility.yul\":2824:2844   */\n          sub\n            /* \"#utility.yul\":2820:2821   */\n          0x00\n            /* \"#utility.yul\":2809:2818   */\n          dup4\n            /* \"#utility.yul\":2805:2822   */\n          add\n            /* \"#utility.yul\":2798:2845   */\n          mstore\n            /* \"#utility.yul\":2862:2940   */\n          tag_69\n            /* \"#utility.yul\":2935:2939   */\n          dup2\n            /* \"#utility.yul\":2926:2932   */\n          dup5\n            /* \"#utility.yul\":2862:2940   */\n          tag_32\n          jump\t// in\n        tag_69:\n            /* \"#utility.yul\":2854:2940   */\n          swap1\n          pop\n            /* \"#utility.yul\":2634:2947   */\n          swap3\n          swap2\n          pop\n          pop\n          jump\t// out\n            /* \"#utility.yul\":2953:3117   */\n        tag_33:\n            /* \"#utility.yul\":3093:3109   */\n          0x72657175697265206661696c6564000000000000000000000000000000000000\n            /* \"#utility.yul\":3089:3090   */\n          0x00\n            /* \"#utility.yul\":3081:3087   */\n          dup3\n            /* \"#utility.yul\":3077:3091   */\n          add\n            /* \"#utility.yul\":3070:3110   */\n          mstore\n            /* \"#utility.yul\":2953:3117   */\n          pop\n          jump\t// out\n            /* \"#utility.yul\":3123:3489   */\n        tag_34:\n            /* \"#utility.yul\":3265:3268   */\n          0x00\n            /* \"#utility.yul\":3286:3353   */\n          tag_72\n            /* \"#utility.yul\":3350:3352   */\n          0x0e\n            /* \"#utility.yul\":3345:3348   */\n          dup4\n            /* \"#utility.yul\":3286:3353   */\n          tag_29\n          jump\t// in\n        tag_72:\n            /* \"#utility.yul\":3279:3353   */\n          swap2\n          pop\n            /* \"#utility.yul\":3362:3455   */\n          tag_73\n            /* \"#utility.yul\":3451:3454   */\n          dup3\n            /* \"#utility.yul\":3362:3455   */\n          tag_33\n          jump\t// in\n        tag_73:\n            /* \"#utility.yul\":3480:3482   */\n          0x20\n            /* \"#utility.yul\":3475:3478   */\n          dup3\n            /* \"#utility.yul\":3471:3483   */\n          add\n            /* \"#utility.yul\":3464:3483   */\n          swap1\n          pop\n            /* \"#utility.yul\":3123:3489   */\n          swap2\n          swap1\n          pop\n          jump\t// out\n            /* \"#utility.yul\":3495:3914   */\n        tag_18:\n            /* \"#utility.yul\":3661:3665   */\n          0x00\n            /* \"#utility.yul\":3699:3701   */\n          0x20\n            /* \"#utility.yul\":3688:3697   */\n          dup3\n            /* \"#utility.yul\":3684:3702   */\n          add\n            /* \"#utility.yul\":3676:3702   */\n          swap1\n          pop\n            /* \"#utility.yul\":3748:3757   */\n          dup2\n            /* \"#utility.yul\":3742:3746   */\n          dup2\n            /* \"#utility.yul\":3738:3758   */\n          sub\n            /* \"#utility.yul\":3734:3735   */\n          0x00\n            /* \"#utility.yul\":3723:3732   */\n          dup4\n            /* \"#utility.yul\":3719:3736   */\n          add\n            /* \"#utility.yul\":3712:3759   */\n          mstore\n            /* \"#utility.yul\":3776:3907   */\n          tag_75\n            /* \"#utility.yul\":3902:3906   */\n          dup2\n            /* \"#utility.yul\":3776:3907   */\n          tag_34\n          jump\t// in\n        tag_75:\n            /* \"#utility.yul\":3768:3907   */\n          swap1\n          pop\n            /* \"#utility.yul\":3495:3914   */\n          swap2\n          swap1\n          pop\n          jump\t// out\n\n        auxdata: 0xa2646970667358221220f1bf1ae0fdc640b8782117fbf2bc4266e1ea16cab9a7e7863851ea0dfcf50bf364736f6c63430008160033\n    }\n}\n",
				"bytecode": {
					"linkReferences": {},
					"object": "608060405234801561000f575f80fd5b503360405161001d90610084565b61002791906100d0565b604051809103905ff080158015610040573d5f803e3d5ffd5b505f806101000a81548173ffffffffffffffffffffffffffffffffffffffff021916908373ffffffffffffffffffffffffffffffffffffffff1602179055506100e9565b6105888061103e83390190565b5f73ffffffffffffffffffffffffffffffffffffffff82169050919050565b5f6100ba82610091565b9050919050565b6100ca816100b0565b82525050565b5f6020820190506100e35f8301846100c1565b92915050565b610f48806100f65f395ff3fe608060405234801562000010575f80fd5b506004361062000044575f3560e01c806377bdab831462000048578063933ac0841462000068578063b131b3001462000088575b5f80fd5b620000666004803603810190620000609190620003b9565b620000aa565b005b62000086600480360381019062000080919062000421565b620001fc565b005b6200009262000316565b604051620000a19190620004b8565b60405180910390f35b80604051620000b99062000339565b620000c59190620004e4565b604051809103905ff08015620000d85760015b620001c057620000e76200050b565b806308c379a0036200014b5750620000fe620005a0565b806200010b57506200014d565b7f41304facd9323d75b11bcdd609cb38effffdb05710f7caf0e9b16c6d9d709f50816040516200013c9190620006be565b60405180910390a150620001ba565b505b3d805f811462000179576040519150601f19603f3d011682016040523d82523d5f602084013e6200017e565b606091505b507f93864668e00bfeb0cafee67ab7145a622ae39e8045304432e9a0bfb97cc04d4681604051620001b091906200073a565b60405180910390a1505b620001f9565b7f41304facd9323d75b11bcdd609cb38effffdb05710f7caf0e9b16c6d9d709f50604051620001ef90620007aa565b60405180910390a1505b50565b5f8054906101000a900473ffffffffffffffffffffffffffffffffffffffff1673ffffffffffffffffffffffffffffffffffffffff1663a9bf5633826040518263ffffffff1660e01b8152600401620002569190620007db565b5f60405180830381865afa9250505080156200029657506040513d5f823e3d601f19601f82011682018060405250810190620002939190620008cd565b60015b620002d8577f41304facd9323d75b11bcdd609cb38effffdb05710f7caf0e9b16c6d9d709f50604051620002ca906200096a565b60405180910390a162000313565b7f41304facd9323d75b11bcdd609cb38effffdb05710f7caf0e9b16c6d9d709f5081604051620003099190620006be565b60405180910390a1505b50565b5f8054906101000a900473ffffffffffffffffffffffffffffffffffffffff1681565b610588806200098b83390190565b5f604051905090565b5f80fd5b5f80fd5b5f73ffffffffffffffffffffffffffffffffffffffff82169050919050565b5f620003838262000358565b9050919050565b620003958162000377565b8114620003a0575f80fd5b50565b5f81359050620003b3816200038a565b92915050565b5f60208284031215620003d157620003d062000350565b5b5f620003e084828501620003a3565b91505092915050565b5f819050919050565b620003fd81620003e9565b811462000408575f80fd5b50565b5f813590506200041b81620003f2565b92915050565b5f6020828403121562000439576200043862000350565b5b5f62000448848285016200040b565b91505092915050565b5f819050919050565b5f6200047a620004746200046e8462000358565b62000451565b62000358565b9050919050565b5f6200048d826200045a565b9050919050565b5f620004a08262000481565b9050919050565b620004b28162000494565b82525050565b5f602082019050620004cd5f830184620004a7565b92915050565b620004de8162000377565b82525050565b5f602082019050620004f95f830184620004d3565b92915050565b5f8160e01c9050919050565b5f60033d11156200052a5760045f803e620005275f51620004ff565b90505b90565b5f601f19601f8301169050919050565b7f4e487b71000000000000000000000000000000000000000000000000000000005f52604160045260245ffd5b62000575826200052d565b810181811067ffffffffffffffff821117156200059757620005966200053d565b5b80604052505050565b5f60443d106200063757620005b462000347565b60043d036004823e80513d602482011167ffffffffffffffff82111715620005de57505062000637565b808201805167ffffffffffffffff811115620005fe575050505062000637565b80602083010160043d0385018111156200061d57505050505062000637565b6200062e826020018501866200056a565b82955050505050505b90565b5f81519050919050565b5f82825260208201905092915050565b5f5b838110156200067357808201518184015260208101905062000656565b5f8484015250505050565b5f6200068a826200063a565b62000696818562000644565b9350620006a881856020860162000654565b620006b3816200052d565b840191505092915050565b5f6020820190508181035f830152620006d881846200067e565b905092915050565b5f81519050919050565b5f82825260208201905092915050565b5f6200070682620006e0565b620007128185620006ea565b93506200072481856020860162000654565b6200072f816200052d565b840191505092915050565b5f6020820190508181035f830152620007548184620006fa565b905092915050565b7f6d792066756e6374696f6e2063726561746572640000000000000000000000005f82015250565b5f6200079260148362000644565b91506200079f826200075c565b602082019050919050565b5f6020820190508181035f830152620007c38162000784565b9050919050565b620007d581620003e9565b82525050565b5f602082019050620007f05f830184620007ca565b92915050565b5f80fd5b5f80fd5b5f6200080962000347565b90506200081782826200056a565b919050565b5f67ffffffffffffffff8211156200083957620008386200053d565b5b62000844826200052d565b9050602081019050919050565b5f6200086762000861846200081c565b620007fe565b905082815260208101848484011115620008865762000885620007fa565b5b6200089384828562000654565b509392505050565b5f82601f830112620008b257620008b1620007f6565b5b8151620008c484826020860162000851565b91505092915050565b5f60208284031215620008e557620008e462000350565b5b5f82015167ffffffffffffffff81111562000905576200090462000354565b5b62000913848285016200089b565b91505092915050565b7f65637465726e616c2063616c6c6564206661696c6564000000000000000000005f82015250565b5f6200095260168362000644565b91506200095f826200091c565b602082019050919050565b5f6020820190508181035f830152620009838162000944565b905091905056fe608060405234801561000f575f80fd5b506040516105883803806105888339818101604052810190610031919061017f565b5f73ffffffffffffffffffffffffffffffffffffffff168173ffffffffffffffffffffffffffffffffffffffff160361009f576040517f08c379a000000000000000000000000000000000000000000000000000000000815260040161009690610204565b60405180910390fd5b600173ffffffffffffffffffffffffffffffffffffffff168173ffffffffffffffffffffffffffffffffffffffff16036100dc576100db610222565b5b805f806101000a81548173ffffffffffffffffffffffffffffffffffffffff021916908373ffffffffffffffffffffffffffffffffffffffff1602179055505061024f565b5f80fd5b5f73ffffffffffffffffffffffffffffffffffffffff82169050919050565b5f61014e82610125565b9050919050565b61015e81610144565b8114610168575f80fd5b50565b5f8151905061017981610155565b92915050565b5f6020828403121561019457610193610121565b5b5f6101a18482850161016b565b91505092915050565b5f82825260208201905092915050565b7f696e76616c6964206164726573730000000000000000000000000000000000005f82015250565b5f6101ee600e836101aa565b91506101f9826101ba565b602082019050919050565b5f6020820190508181035f83015261021b816101e2565b9050919050565b7f4e487b71000000000000000000000000000000000000000000000000000000005f52600160045260245ffd5b61032c8061025c5f395ff3fe608060405234801561000f575f80fd5b5060043610610034575f3560e01c80638da5cb5b14610038578063a9bf563314610056575b5f80fd5b610040610086565b60405161004d9190610169565b60405180910390f35b610070600480360381019061006b91906101b9565b6100a9565b60405161007d919061026e565b60405180910390f35b5f8054906101000a900473ffffffffffffffffffffffffffffffffffffffff1681565b60605f82036100ed576040517f08c379a00000000000000000000000000000000000000000000000000000000081526004016100e4906102d8565b60405180910390fd5b6040518060400160405280601681526020017f6d792066756e6374696f6e207761732063616c6c6564000000000000000000008152509050919050565b5f73ffffffffffffffffffffffffffffffffffffffff82169050919050565b5f6101538261012a565b9050919050565b61016381610149565b82525050565b5f60208201905061017c5f83018461015a565b92915050565b5f80fd5b5f819050919050565b61019881610186565b81146101a2575f80fd5b50565b5f813590506101b38161018f565b92915050565b5f602082840312156101ce576101cd610182565b5b5f6101db848285016101a5565b91505092915050565b5f81519050919050565b5f82825260208201905092915050565b5f5b8381101561021b578082015181840152602081019050610200565b5f8484015250505050565b5f601f19601f8301169050919050565b5f610240826101e4565b61024a81856101ee565b935061025a8185602086016101fe565b61026381610226565b840191505092915050565b5f6020820190508181035f8301526102868184610236565b905092915050565b7f72657175697265206661696c65640000000000000000000000000000000000005f82015250565b5f6102c2600e836101ee565b91506102cd8261028e565b602082019050919050565b5f6020820190508181035f8301526102ef816102b6565b905091905056fea2646970667358221220f1bf1ae0fdc640b8782117fbf2bc4266e1ea16cab9a7e7863851ea0dfcf50bf364736f6c63430008160033a264697066735822122093f407ab8fbaaa831f828e8c37edf3a82a84b99a7cae2f0b3f368e47af708fa064736f6c63430008160033608060405234801561000f575f80fd5b506040516105883803806105888339818101604052810190610031919061017f565b5f73ffffffffffffffffffffffffffffffffffffffff168173ffffffffffffffffffffffffffffffffffffffff160361009f576040517f08c379a000000000000000000000000000000000000000000000000000000000815260040161009690610204565b60405180910390fd5b600173ffffffffffffffffffffffffffffffffffffffff168173ffffffffffffffffffffffffffffffffffffffff16036100dc576100db610222565b5b805f806101000a81548173ffffffffffffffffffffffffffffffffffffffff021916908373ffffffffffffffffffffffffffffffffffffffff1602179055505061024f565b5f80fd5b5f73ffffffffffffffffffffffffffffffffffffffff82169050919050565b5f61014e82610125565b9050919050565b61015e81610144565b8114610168575f80fd5b50565b5f8151905061017981610155565b92915050565b5f6020828403121561019457610193610121565b5b5f6101a18482850161016b565b91505092915050565b5f82825260208201905092915050565b7f696e76616c6964206164726573730000000000000000000000000000000000005f82015250565b5f6101ee600e836101aa565b91506101f9826101ba565b602082019050919050565b5f6020820190508181035f83015261021b816101e2565b9050919050565b7f4e487b71000000000000000000000000000000000000000000000000000000005f52600160045260245ffd5b61032c8061025c5f395ff3fe608060405234801561000f575f80fd5b5060043610610034575f3560e01c80638da5cb5b14610038578063a9bf563314610056575b5f80fd5b610040610086565b60405161004d9190610169565b60405180910390f35b610070600480360381019061006b91906101b9565b6100a9565b60405161007d919061026e565b60405180910390f35b5f8054906101000a900473ffffffffffffffffffffffffffffffffffffffff1681565b60605f82036100ed576040517f08c379a00000000000000000000000000000000000000000000000000000000081526004016100e4906102d8565b60405180910390fd5b6040518060400160405280601681526020017f6d792066756e6374696f6e207761732063616c6c6564000000000000000000008152509050919050565b5f73ffffffffffffffffffffffffffffffffffffffff82169050919050565b5f6101538261012a565b9050919050565b61016381610149565b82525050565b5f60208201905061017c5f83018461015a565b92915050565b5f80fd5b5f819050919050565b61019881610186565b81146101a2575f80fd5b50565b5f813590506101b38161018f565b92915050565b5f602082840312156101ce576101cd610182565b5b5f6101db848285016101a5565b91505092915050565b5f81519050919050565b5f82825260208201905092915050565b5f5b8381101561021b578082015181840152602081019050610200565b5f8484015250505050565b5f601f19601f8301169050919050565b5f610240826101e4565b61024a81856101ee565b935061025a8185602086016101fe565b61026381610226565b840191505092915050565b5f6020820190508181035f8301526102868184610236565b905092915050565b7f72657175697265206661696c65640000000000000000000000000000000000005f82015250565b5f6102c2600e836101ee565b91506102cd8261028e565b602082019050919050565b5f6020820190508181035f8301526102ef816102b6565b905091905056fea2646970667358221220f1bf1ae0fdc640b8782117fbf2bc4266e1ea16cab9a7e7863851ea0dfcf50bf364736f6c63430008160033",
					"opcodes": "PUSH1 0x80 PUSH1 0x40 MSTORE CALLVALUE DUP1 ISZERO PUSH2 0xF JUMPI PUSH0 DUP1 REVERT JUMPDEST POP CALLER PUSH1 0x40 MLOAD PUSH2 0x1D SWAP1 PUSH2 0x84 JUMP JUMPDEST PUSH2 0x27 SWAP2 SWAP1 PUSH2 0xD0 JUMP JUMPDEST PUSH1 0x40 MLOAD DUP1 SWAP2 SUB SWAP1 PUSH0 CREATE DUP1 ISZERO DUP1 ISZERO PUSH2 0x40 JUMPI RETURNDATASIZE PUSH0 DUP1 RETURNDATACOPY RETURNDATASIZE PUSH0 REVERT JUMPDEST POP PUSH0 DUP1 PUSH2 0x100 EXP DUP2 SLOAD DUP2 PUSH20 0xFFFFFFFFFFFFFFFFFFFFFFFFFFFFFFFFFFFFFFFF MUL NOT AND SWAP1 DUP4 PUSH20 0xFFFFFFFFFFFFFFFFFFFFFFFFFFFFFFFFFFFFFFFF AND MUL OR SWAP1 SSTORE POP PUSH2 0xE9 JUMP JUMPDEST PUSH2 0x588 DUP1 PUSH2 0x103E DUP4 CODECOPY ADD SWAP1 JUMP JUMPDEST PUSH0 PUSH20 0xFFFFFFFFFFFFFFFFFFFFFFFFFFFFFFFFFFFFFFFF DUP3 AND SWAP1 POP SWAP2 SWAP1 POP JUMP JUMPDEST PUSH0 PUSH2 0xBA DUP3 PUSH2 0x91 JUMP JUMPDEST SWAP1 POP SWAP2 SWAP1 POP JUMP JUMPDEST PUSH2 0xCA DUP2 PUSH2 0xB0 JUMP JUMPDEST DUP3 MSTORE POP POP JUMP JUMPDEST PUSH0 PUSH1 0x20 DUP3 ADD SWAP1 POP PUSH2 0xE3 PUSH0 DUP4 ADD DUP5 PUSH2 0xC1 JUMP JUMPDEST SWAP3 SWAP2 POP POP JUMP JUMPDEST PUSH2 0xF48 DUP1 PUSH2 0xF6 PUSH0 CODECOPY PUSH0 RETURN INVALID PUSH1 0x80 PUSH1 0x40 MSTORE CALLVALUE DUP1 ISZERO PUSH3 0x10 JUMPI PUSH0 DUP1 REVERT JUMPDEST POP PUSH1 0x4 CALLDATASIZE LT PUSH3 0x44 JUMPI PUSH0 CALLDATALOAD PUSH1 0xE0 SHR DUP1 PUSH4 0x77BDAB83 EQ PUSH3 0x48 JUMPI DUP1 PUSH4 0x933AC084 EQ PUSH3 0x68 JUMPI DUP1 PUSH4 0xB131B300 EQ PUSH3 0x88 JUMPI JUMPDEST PUSH0 DUP1 REVERT JUMPDEST PUSH3 0x66 PUSH1 0x4 DUP1 CALLDATASIZE SUB DUP2 ADD SWAP1 PUSH3 0x60 SWAP2 SWAP1 PUSH3 0x3B9 JUMP JUMPDEST PUSH3 0xAA JUMP JUMPDEST STOP JUMPDEST PUSH3 0x86 PUSH1 0x4 DUP1 CALLDATASIZE SUB DUP2 ADD SWAP1 PUSH3 0x80 SWAP2 SWAP1 PUSH3 0x421 JUMP JUMPDEST PUSH3 0x1FC JUMP JUMPDEST STOP JUMPDEST PUSH3 0x92 PUSH3 0x316 JUMP JUMPDEST PUSH1 0x40 MLOAD PUSH3 0xA1 SWAP2 SWAP1 PUSH3 0x4B8 JUMP JUMPDEST PUSH1 0x40 MLOAD DUP1 SWAP2 SUB SWAP1 RETURN JUMPDEST DUP1 PUSH1 0x40 MLOAD PUSH3 0xB9 SWAP1 PUSH3 0x339 JUMP JUMPDEST PUSH3 0xC5 SWAP2 SWAP1 PUSH3 0x4E4 JUMP JUMPDEST PUSH1 0x40 MLOAD DUP1 SWAP2 SUB SWAP1 PUSH0 CREATE DUP1 ISZERO PUSH3 0xD8 JUMPI PUSH1 0x1 JUMPDEST PUSH3 0x1C0 JUMPI PUSH3 0xE7 PUSH3 0x50B JUMP JUMPDEST DUP1 PUSH4 0x8C379A0 SUB PUSH3 0x14B JUMPI POP PUSH3 0xFE PUSH3 0x5A0 JUMP JUMPDEST DUP1 PUSH3 0x10B JUMPI POP PUSH3 0x14D JUMP JUMPDEST PUSH32 0x41304FACD9323D75B11BCDD609CB38EFFFFDB05710F7CAF0E9B16C6D9D709F50 DUP2 PUSH1 0x40 MLOAD PUSH3 0x13C SWAP2 SWAP1 PUSH3 0x6BE JUMP JUMPDEST PUSH1 0x40 MLOAD DUP1 SWAP2 SUB SWAP1 LOG1 POP PUSH3 0x1BA JUMP JUMPDEST POP JUMPDEST RETURNDATASIZE DUP1 PUSH0 DUP2 EQ PUSH3 0x179 JUMPI PUSH1 0x40 MLOAD SWAP2 POP PUSH1 0x1F NOT PUSH1 0x3F RETURNDATASIZE ADD AND DUP3 ADD PUSH1 0x40 MSTORE RETURNDATASIZE DUP3 MSTORE RETURNDATASIZE PUSH0 PUSH1 0x20 DUP5 ADD RETURNDATACOPY PUSH3 0x17E JUMP JUMPDEST PUSH1 0x60 SWAP2 POP JUMPDEST POP PUSH32 0x93864668E00BFEB0CAFEE67AB7145A622AE39E8045304432E9A0BFB97CC04D46 DUP2 PUSH1 0x40 MLOAD PUSH3 0x1B0 SWAP2 SWAP1 PUSH3 0x73A JUMP JUMPDEST PUSH1 0x40 MLOAD DUP1 SWAP2 SUB SWAP1 LOG1 POP JUMPDEST PUSH3 0x1F9 JUMP JUMPDEST PUSH32 0x41304FACD9323D75B11BCDD609CB38EFFFFDB05710F7CAF0E9B16C6D9D709F50 PUSH1 0x40 MLOAD PUSH3 0x1EF SWAP1 PUSH3 0x7AA JUMP JUMPDEST PUSH1 0x40 MLOAD DUP1 SWAP2 SUB SWAP1 LOG1 POP JUMPDEST POP JUMP JUMPDEST PUSH0 DUP1 SLOAD SWAP1 PUSH2 0x100 EXP SWAP1 DIV PUSH20 0xFFFFFFFFFFFFFFFFFFFFFFFFFFFFFFFFFFFFFFFF AND PUSH20 0xFFFFFFFFFFFFFFFFFFFFFFFFFFFFFFFFFFFFFFFF AND PUSH4 0xA9BF5633 DUP3 PUSH1 0x40 MLOAD DUP3 PUSH4 0xFFFFFFFF AND PUSH1 0xE0 SHL DUP2 MSTORE PUSH1 0x4 ADD PUSH3 0x256 SWAP2 SWAP1 PUSH3 0x7DB JUMP JUMPDEST PUSH0 PUSH1 0x40 MLOAD DUP1 DUP4 SUB DUP2 DUP7 GAS STATICCALL SWAP3 POP POP POP DUP1 ISZERO PUSH3 0x296 JUMPI POP PUSH1 0x40 MLOAD RETURNDATASIZE PUSH0 DUP3 RETURNDATACOPY RETURNDATASIZE PUSH1 0x1F NOT PUSH1 0x1F DUP3 ADD AND DUP3 ADD DUP1 PUSH1 0x40 MSTORE POP DUP2 ADD SWAP1 PUSH3 0x293 SWAP2 SWAP1 PUSH3 0x8CD JUMP JUMPDEST PUSH1 0x1 JUMPDEST PUSH3 0x2D8 JUMPI PUSH32 0x41304FACD9323D75B11BCDD609CB38EFFFFDB05710F7CAF0E9B16C6D9D709F50 PUSH1 0x40 MLOAD PUSH3 0x2CA SWAP1 PUSH3 0x96A JUMP JUMPDEST PUSH1 0x40 MLOAD DUP1 SWAP2 SUB SWAP1 LOG1 PUSH3 0x313 JUMP JUMPDEST PUSH32 0x41304FACD9323D75B11BCDD609CB38EFFFFDB05710F7CAF0E9B16C6D9D709F50 DUP2 PUSH1 0x40 MLOAD PUSH3 0x309 SWAP2 SWAP1 PUSH3 0x6BE JUMP JUMPDEST PUSH1 0x40 MLOAD DUP1 SWAP2 SUB SWAP1 LOG1 POP JUMPDEST POP JUMP JUMPDEST PUSH0 DUP1 SLOAD SWAP1 PUSH2 0x100 EXP SWAP1 DIV PUSH20 0xFFFFFFFFFFFFFFFFFFFFFFFFFFFFFFFFFFFFFFFF AND DUP2 JUMP JUMPDEST PUSH2 0x588 DUP1 PUSH3 0x98B DUP4 CODECOPY ADD SWAP1 JUMP JUMPDEST PUSH0 PUSH1 0x40 MLOAD SWAP1 POP SWAP1 JUMP JUMPDEST PUSH0 DUP1 REVERT JUMPDEST PUSH0 DUP1 REVERT JUMPDEST PUSH0 PUSH20 0xFFFFFFFFFFFFFFFFFFFFFFFFFFFFFFFFFFFFFFFF DUP3 AND SWAP1 POP SWAP2 SWAP1 POP JUMP JUMPDEST PUSH0 PUSH3 0x383 DUP3 PUSH3 0x358 JUMP JUMPDEST SWAP1 POP SWAP2 SWAP1 POP JUMP JUMPDEST PUSH3 0x395 DUP2 PUSH3 0x377 JUMP JUMPDEST DUP2 EQ PUSH3 0x3A0 JUMPI PUSH0 DUP1 REVERT JUMPDEST POP JUMP JUMPDEST PUSH0 DUP2 CALLDATALOAD SWAP1 POP PUSH3 0x3B3 DUP2 PUSH3 0x38A JUMP JUMPDEST SWAP3 SWAP2 POP POP JUMP JUMPDEST PUSH0 PUSH1 0x20 DUP3 DUP5 SUB SLT ISZERO PUSH3 0x3D1 JUMPI PUSH3 0x3D0 PUSH3 0x350 JUMP JUMPDEST JUMPDEST PUSH0 PUSH3 0x3E0 DUP5 DUP3 DUP6 ADD PUSH3 0x3A3 JUMP JUMPDEST SWAP2 POP POP SWAP3 SWAP2 POP POP JUMP JUMPDEST PUSH0 DUP2 SWAP1 POP SWAP2 SWAP1 POP JUMP JUMPDEST PUSH3 0x3FD DUP2 PUSH3 0x3E9 JUMP JUMPDEST DUP2 EQ PUSH3 0x408 JUMPI PUSH0 DUP1 REVERT JUMPDEST POP JUMP JUMPDEST PUSH0 DUP2 CALLDATALOAD SWAP1 POP PUSH3 0x41B DUP2 PUSH3 0x3F2 JUMP JUMPDEST SWAP3 SWAP2 POP POP JUMP JUMPDEST PUSH0 PUSH1 0x20 DUP3 DUP5 SUB SLT ISZERO PUSH3 0x439 JUMPI PUSH3 0x438 PUSH3 0x350 JUMP JUMPDEST JUMPDEST PUSH0 PUSH3 0x448 DUP5 DUP3 DUP6 ADD PUSH3 0x40B JUMP JUMPDEST SWAP2 POP POP SWAP3 SWAP2 POP POP JUMP JUMPDEST PUSH0 DUP2 SWAP1 POP SWAP2 SWAP1 POP JUMP JUMPDEST PUSH0 PUSH3 0x47A PUSH3 0x474 PUSH3 0x46E DUP5 PUSH3 0x358 JUMP JUMPDEST PUSH3 0x451 JUMP JUMPDEST PUSH3 0x358 JUMP JUMPDEST SWAP1 POP SWAP2 SWAP1 POP JUMP JUMPDEST PUSH0 PUSH3 0x48D DUP3 PUSH3 0x45A JUMP JUMPDEST SWAP1 POP SWAP2 SWAP1 POP JUMP JUMPDEST PUSH0 PUSH3 0x4A0 DUP3 PUSH3 0x481 JUMP JUMPDEST SWAP1 POP SWAP2 SWAP1 POP JUMP JUMPDEST PUSH3 0x4B2 DUP2 PUSH3 0x494 JUMP JUMPDEST DUP3 MSTORE POP POP JUMP JUMPDEST PUSH0 PUSH1 0x20 DUP3 ADD SWAP1 POP PUSH3 0x4CD PUSH0 DUP4 ADD DUP5 PUSH3 0x4A7 JUMP JUMPDEST SWAP3 SWAP2 POP POP JUMP JUMPDEST PUSH3 0x4DE DUP2 PUSH3 0x377 JUMP JUMPDEST DUP3 MSTORE POP POP JUMP JUMPDEST PUSH0 PUSH1 0x20 DUP3 ADD SWAP1 POP PUSH3 0x4F9 PUSH0 DUP4 ADD DUP5 PUSH3 0x4D3 JUMP JUMPDEST SWAP3 SWAP2 POP POP JUMP JUMPDEST PUSH0 DUP2 PUSH1 0xE0 SHR SWAP1 POP SWAP2 SWAP1 POP JUMP JUMPDEST PUSH0 PUSH1 0x3 RETURNDATASIZE GT ISZERO PUSH3 0x52A JUMPI PUSH1 0x4 PUSH0 DUP1 RETURNDATACOPY PUSH3 0x527 PUSH0 MLOAD PUSH3 0x4FF JUMP JUMPDEST SWAP1 POP JUMPDEST SWAP1 JUMP JUMPDEST PUSH0 PUSH1 0x1F NOT PUSH1 0x1F DUP4 ADD AND SWAP1 POP SWAP2 SWAP1 POP JUMP JUMPDEST PUSH32 0x4E487B7100000000000000000000000000000000000000000000000000000000 PUSH0 MSTORE PUSH1 0x41 PUSH1 0x4 MSTORE PUSH1 0x24 PUSH0 REVERT JUMPDEST PUSH3 0x575 DUP3 PUSH3 0x52D JUMP JUMPDEST DUP2 ADD DUP2 DUP2 LT PUSH8 0xFFFFFFFFFFFFFFFF DUP3 GT OR ISZERO PUSH3 0x597 JUMPI PUSH3 0x596 PUSH3 0x53D JUMP JUMPDEST JUMPDEST DUP1 PUSH1 0x40 MSTORE POP POP POP JUMP JUMPDEST PUSH0 PUSH1 0x44 RETURNDATASIZE LT PUSH3 0x637 JUMPI PUSH3 0x5B4 PUSH3 0x347 JUMP JUMPDEST PUSH1 0x4 RETURNDATASIZE SUB PUSH1 0x4 DUP3 RETURNDATACOPY DUP1 MLOAD RETURNDATASIZE PUSH1 0x24 DUP3 ADD GT PUSH8 0xFFFFFFFFFFFFFFFF DUP3 GT OR ISZERO PUSH3 0x5DE JUMPI POP POP PUSH3 0x637 JUMP JUMPDEST DUP1 DUP3 ADD DUP1 MLOAD PUSH8 0xFFFFFFFFFFFFFFFF DUP2 GT ISZERO PUSH3 0x5FE JUMPI POP POP POP POP PUSH3 0x637 JUMP JUMPDEST DUP1 PUSH1 0x20 DUP4 ADD ADD PUSH1 0x4 RETURNDATASIZE SUB DUP6 ADD DUP2 GT ISZERO PUSH3 0x61D JUMPI POP POP POP POP POP PUSH3 0x637 JUMP JUMPDEST PUSH3 0x62E DUP3 PUSH1 0x20 ADD DUP6 ADD DUP7 PUSH3 0x56A JUMP JUMPDEST DUP3 SWAP6 POP POP POP POP POP POP JUMPDEST SWAP1 JUMP JUMPDEST PUSH0 DUP2 MLOAD SWAP1 POP SWAP2 SWAP1 POP JUMP JUMPDEST PUSH0 DUP3 DUP3 MSTORE PUSH1 0x20 DUP3 ADD SWAP1 POP SWAP3 SWAP2 POP POP JUMP JUMPDEST PUSH0 JUMPDEST DUP4 DUP2 LT ISZERO PUSH3 0x673 JUMPI DUP1 DUP3 ADD MLOAD DUP2 DUP5 ADD MSTORE PUSH1 0x20 DUP2 ADD SWAP1 POP PUSH3 0x656 JUMP JUMPDEST PUSH0 DUP5 DUP5 ADD MSTORE POP POP POP POP JUMP JUMPDEST PUSH0 PUSH3 0x68A DUP3 PUSH3 0x63A JUMP JUMPDEST PUSH3 0x696 DUP2 DUP6 PUSH3 0x644 JUMP JUMPDEST SWAP4 POP PUSH3 0x6A8 DUP2 DUP6 PUSH1 0x20 DUP7 ADD PUSH3 0x654 JUMP JUMPDEST PUSH3 0x6B3 DUP2 PUSH3 0x52D JUMP JUMPDEST DUP5 ADD SWAP2 POP POP SWAP3 SWAP2 POP POP JUMP JUMPDEST PUSH0 PUSH1 0x20 DUP3 ADD SWAP1 POP DUP2 DUP2 SUB PUSH0 DUP4 ADD MSTORE PUSH3 0x6D8 DUP2 DUP5 PUSH3 0x67E JUMP JUMPDEST SWAP1 POP SWAP3 SWAP2 POP POP JUMP JUMPDEST PUSH0 DUP2 MLOAD SWAP1 POP SWAP2 SWAP1 POP JUMP JUMPDEST PUSH0 DUP3 DUP3 MSTORE PUSH1 0x20 DUP3 ADD SWAP1 POP SWAP3 SWAP2 POP POP JUMP JUMPDEST PUSH0 PUSH3 0x706 DUP3 PUSH3 0x6E0 JUMP JUMPDEST PUSH3 0x712 DUP2 DUP6 PUSH3 0x6EA JUMP JUMPDEST SWAP4 POP PUSH3 0x724 DUP2 DUP6 PUSH1 0x20 DUP7 ADD PUSH3 0x654 JUMP JUMPDEST PUSH3 0x72F DUP2 PUSH3 0x52D JUMP JUMPDEST DUP5 ADD SWAP2 POP POP SWAP3 SWAP2 POP POP JUMP JUMPDEST PUSH0 PUSH1 0x20 DUP3 ADD SWAP1 POP DUP2 DUP2 SUB PUSH0 DUP4 ADD MSTORE PUSH3 0x754 DUP2 DUP5 PUSH3 0x6FA JUMP JUMPDEST SWAP1 POP SWAP3 SWAP2 POP POP JUMP JUMPDEST PUSH32 0x6D792066756E6374696F6E206372656174657264000000000000000000000000 PUSH0 DUP3 ADD MSTORE POP JUMP JUMPDEST PUSH0 PUSH3 0x792 PUSH1 0x14 DUP4 PUSH3 0x644 JUMP JUMPDEST SWAP2 POP PUSH3 0x79F DUP3 PUSH3 0x75C JUMP JUMPDEST PUSH1 0x20 DUP3 ADD SWAP1 POP SWAP2 SWAP1 POP JUMP JUMPDEST PUSH0 PUSH1 0x20 DUP3 ADD SWAP1 POP DUP2 DUP2 SUB PUSH0 DUP4 ADD MSTORE PUSH3 0x7C3 DUP2 PUSH3 0x784 JUMP JUMPDEST SWAP1 POP SWAP2 SWAP1 POP JUMP JUMPDEST PUSH3 0x7D5 DUP2 PUSH3 0x3E9 JUMP JUMPDEST DUP3 MSTORE POP POP JUMP JUMPDEST PUSH0 PUSH1 0x20 DUP3 ADD SWAP1 POP PUSH3 0x7F0 PUSH0 DUP4 ADD DUP5 PUSH3 0x7CA JUMP JUMPDEST SWAP3 SWAP2 POP POP JUMP JUMPDEST PUSH0 DUP1 REVERT JUMPDEST PUSH0 DUP1 REVERT JUMPDEST PUSH0 PUSH3 0x809 PUSH3 0x347 JUMP JUMPDEST SWAP1 POP PUSH3 0x817 DUP3 DUP3 PUSH3 0x56A JUMP JUMPDEST SWAP2 SWAP1 POP JUMP JUMPDEST PUSH0 PUSH8 0xFFFFFFFFFFFFFFFF DUP3 GT ISZERO PUSH3 0x839 JUMPI PUSH3 0x838 PUSH3 0x53D JUMP JUMPDEST JUMPDEST PUSH3 0x844 DUP3 PUSH3 0x52D JUMP JUMPDEST SWAP1 POP PUSH1 0x20 DUP2 ADD SWAP1 POP SWAP2 SWAP1 POP JUMP JUMPDEST PUSH0 PUSH3 0x867 PUSH3 0x861 DUP5 PUSH3 0x81C JUMP JUMPDEST PUSH3 0x7FE JUMP JUMPDEST SWAP1 POP DUP3 DUP2 MSTORE PUSH1 0x20 DUP2 ADD DUP5 DUP5 DUP5 ADD GT ISZERO PUSH3 0x886 JUMPI PUSH3 0x885 PUSH3 0x7FA JUMP JUMPDEST JUMPDEST PUSH3 0x893 DUP5 DUP3 DUP6 PUSH3 0x654 JUMP JUMPDEST POP SWAP4 SWAP3 POP POP POP JUMP JUMPDEST PUSH0 DUP3 PUSH1 0x1F DUP4 ADD SLT PUSH3 0x8B2 JUMPI PUSH3 0x8B1 PUSH3 0x7F6 JUMP JUMPDEST JUMPDEST DUP2 MLOAD PUSH3 0x8C4 DUP5 DUP3 PUSH1 0x20 DUP7 ADD PUSH3 0x851 JUMP JUMPDEST SWAP2 POP POP SWAP3 SWAP2 POP POP JUMP JUMPDEST PUSH0 PUSH1 0x20 DUP3 DUP5 SUB SLT ISZERO PUSH3 0x8E5 JUMPI PUSH3 0x8E4 PUSH3 0x350 JUMP JUMPDEST JUMPDEST PUSH0 DUP3 ADD MLOAD PUSH8 0xFFFFFFFFFFFFFFFF DUP2 GT ISZERO PUSH3 0x905 JUMPI PUSH3 0x904 PUSH3 0x354 JUMP JUMPDEST JUMPDEST PUSH3 0x913 DUP5 DUP3 DUP6 ADD PUSH3 0x89B JUMP JUMPDEST SWAP2 POP POP SWAP3 SWAP2 POP POP JUMP JUMPDEST PUSH32 0x65637465726E616C2063616C6C6564206661696C656400000000000000000000 PUSH0 DUP3 ADD MSTORE POP JUMP JUMPDEST PUSH0 PUSH3 0x952 PUSH1 0x16 DUP4 PUSH3 0x644 JUMP JUMPDEST SWAP2 POP PUSH3 0x95F DUP3 PUSH3 0x91C JUMP JUMPDEST PUSH1 0x20 DUP3 ADD SWAP1 POP SWAP2 SWAP1 POP JUMP JUMPDEST PUSH0 PUSH1 0x20 DUP3 ADD SWAP1 POP DUP2 DUP2 SUB PUSH0 DUP4 ADD MSTORE PUSH3 0x983 DUP2 PUSH3 0x944 JUMP JUMPDEST SWAP1 POP SWAP2 SWAP1 POP JUMP INVALID PUSH1 0x80 PUSH1 0x40 MSTORE CALLVALUE DUP1 ISZERO PUSH2 0xF JUMPI PUSH0 DUP1 REVERT JUMPDEST POP PUSH1 0x40 MLOAD PUSH2 0x588 CODESIZE SUB DUP1 PUSH2 0x588 DUP4 CODECOPY DUP2 DUP2 ADD PUSH1 0x40 MSTORE DUP2 ADD SWAP1 PUSH2 0x31 SWAP2 SWAP1 PUSH2 0x17F JUMP JUMPDEST PUSH0 PUSH20 0xFFFFFFFFFFFFFFFFFFFFFFFFFFFFFFFFFFFFFFFF AND DUP2 PUSH20 0xFFFFFFFFFFFFFFFFFFFFFFFFFFFFFFFFFFFFFFFF AND SUB PUSH2 0x9F JUMPI PUSH1 0x40 MLOAD PUSH32 0x8C379A000000000000000000000000000000000000000000000000000000000 DUP2 MSTORE PUSH1 0x4 ADD PUSH2 0x96 SWAP1 PUSH2 0x204 JUMP JUMPDEST PUSH1 0x40 MLOAD DUP1 SWAP2 SUB SWAP1 REVERT JUMPDEST PUSH1 0x1 PUSH20 0xFFFFFFFFFFFFFFFFFFFFFFFFFFFFFFFFFFFFFFFF AND DUP2 PUSH20 0xFFFFFFFFFFFFFFFFFFFFFFFFFFFFFFFFFFFFFFFF AND SUB PUSH2 0xDC JUMPI PUSH2 0xDB PUSH2 0x222 JUMP JUMPDEST JUMPDEST DUP1 PUSH0 DUP1 PUSH2 0x100 EXP DUP2 SLOAD DUP2 PUSH20 0xFFFFFFFFFFFFFFFFFFFFFFFFFFFFFFFFFFFFFFFF MUL NOT AND SWAP1 DUP4 PUSH20 0xFFFFFFFFFFFFFFFFFFFFFFFFFFFFFFFFFFFFFFFF AND MUL OR SWAP1 SSTORE POP POP PUSH2 0x24F JUMP JUMPDEST PUSH0 DUP1 REVERT JUMPDEST PUSH0 PUSH20 0xFFFFFFFFFFFFFFFFFFFFFFFFFFFFFFFFFFFFFFFF DUP3 AND SWAP1 POP SWAP2 SWAP1 POP JUMP JUMPDEST PUSH0 PUSH2 0x14E DUP3 PUSH2 0x125 JUMP JUMPDEST SWAP1 POP SWAP2 SWAP1 POP JUMP JUMPDEST PUSH2 0x15E DUP2 PUSH2 0x144 JUMP JUMPDEST DUP2 EQ PUSH2 0x168 JUMPI PUSH0 DUP1 REVERT JUMPDEST POP JUMP JUMPDEST PUSH0 DUP2 MLOAD SWAP1 POP PUSH2 0x179 DUP2 PUSH2 0x155 JUMP JUMPDEST SWAP3 SWAP2 POP POP JUMP JUMPDEST PUSH0 PUSH1 0x20 DUP3 DUP5 SUB SLT ISZERO PUSH2 0x194 JUMPI PUSH2 0x193 PUSH2 0x121 JUMP JUMPDEST JUMPDEST PUSH0 PUSH2 0x1A1 DUP5 DUP3 DUP6 ADD PUSH2 0x16B JUMP JUMPDEST SWAP2 POP POP SWAP3 SWAP2 POP POP JUMP JUMPDEST PUSH0 DUP3 DUP3 MSTORE PUSH1 0x20 DUP3 ADD SWAP1 POP SWAP3 SWAP2 POP POP JUMP JUMPDEST PUSH32 0x696E76616C696420616472657373000000000000000000000000000000000000 PUSH0 DUP3 ADD MSTORE POP JUMP JUMPDEST PUSH0 PUSH2 0x1EE PUSH1 0xE DUP4 PUSH2 0x1AA JUMP JUMPDEST SWAP2 POP PUSH2 0x1F9 DUP3 PUSH2 0x1BA JUMP JUMPDEST PUSH1 0x20 DUP3 ADD SWAP1 POP SWAP2 SWAP1 POP JUMP JUMPDEST PUSH0 PUSH1 0x20 DUP3 ADD SWAP1 POP DUP2 DUP2 SUB PUSH0 DUP4 ADD MSTORE PUSH2 0x21B DUP2 PUSH2 0x1E2 JUMP JUMPDEST SWAP1 POP SWAP2 SWAP1 POP JUMP JUMPDEST PUSH32 0x4E487B7100000000000000000000000000000000000000000000000000000000 PUSH0 MSTORE PUSH1 0x1 PUSH1 0x4 MSTORE PUSH1 0x24 PUSH0 REVERT JUMPDEST PUSH2 0x32C DUP1 PUSH2 0x25C PUSH0 CODECOPY PUSH0 RETURN INVALID PUSH1 0x80 PUSH1 0x40 MSTORE CALLVALUE DUP1 ISZERO PUSH2 0xF JUMPI PUSH0 DUP1 REVERT JUMPDEST POP PUSH1 0x4 CALLDATASIZE LT PUSH2 0x34 JUMPI PUSH0 CALLDATALOAD PUSH1 0xE0 SHR DUP1 PUSH4 0x8DA5CB5B EQ PUSH2 0x38 JUMPI DUP1 PUSH4 0xA9BF5633 EQ PUSH2 0x56 JUMPI JUMPDEST PUSH0 DUP1 REVERT JUMPDEST PUSH2 0x40 PUSH2 0x86 JUMP JUMPDEST PUSH1 0x40 MLOAD PUSH2 0x4D SWAP2 SWAP1 PUSH2 0x169 JUMP JUMPDEST PUSH1 0x40 MLOAD DUP1 SWAP2 SUB SWAP1 RETURN JUMPDEST PUSH2 0x70 PUSH1 0x4 DUP1 CALLDATASIZE SUB DUP2 ADD SWAP1 PUSH2 0x6B SWAP2 SWAP1 PUSH2 0x1B9 JUMP JUMPDEST PUSH2 0xA9 JUMP JUMPDEST PUSH1 0x40 MLOAD PUSH2 0x7D SWAP2 SWAP1 PUSH2 0x26E JUMP JUMPDEST PUSH1 0x40 MLOAD DUP1 SWAP2 SUB SWAP1 RETURN JUMPDEST PUSH0 DUP1 SLOAD SWAP1 PUSH2 0x100 EXP SWAP1 DIV PUSH20 0xFFFFFFFFFFFFFFFFFFFFFFFFFFFFFFFFFFFFFFFF AND DUP2 JUMP JUMPDEST PUSH1 0x60 PUSH0 DUP3 SUB PUSH2 0xED JUMPI PUSH1 0x40 MLOAD PUSH32 0x8C379A000000000000000000000000000000000000000000000000000000000 DUP2 MSTORE PUSH1 0x4 ADD PUSH2 0xE4 SWAP1 PUSH2 0x2D8 JUMP JUMPDEST PUSH1 0x40 MLOAD DUP1 SWAP2 SUB SWAP1 REVERT JUMPDEST PUSH1 0x40 MLOAD DUP1 PUSH1 0x40 ADD PUSH1 0x40 MSTORE DUP1 PUSH1 0x16 DUP2 MSTORE PUSH1 0x20 ADD PUSH32 0x6D792066756E6374696F6E207761732063616C6C656400000000000000000000 DUP2 MSTORE POP SWAP1 POP SWAP2 SWAP1 POP JUMP JUMPDEST PUSH0 PUSH20 0xFFFFFFFFFFFFFFFFFFFFFFFFFFFFFFFFFFFFFFFF DUP3 AND SWAP1 POP SWAP2 SWAP1 POP JUMP JUMPDEST PUSH0 PUSH2 0x153 DUP3 PUSH2 0x12A JUMP JUMPDEST SWAP1 POP SWAP2 SWAP1 POP JUMP JUMPDEST PUSH2 0x163 DUP2 PUSH2 0x149 JUMP JUMPDEST DUP3 MSTORE POP POP JUMP JUMPDEST PUSH0 PUSH1 0x20 DUP3 ADD SWAP1 POP PUSH2 0x17C PUSH0 DUP4 ADD DUP5 PUSH2 0x15A JUMP JUMPDEST SWAP3 SWAP2 POP POP JUMP JUMPDEST PUSH0 DUP1 REVERT JUMPDEST PUSH0 DUP2 SWAP1 POP SWAP2 SWAP1 POP JUMP JUMPDEST PUSH2 0x198 DUP2 PUSH2 0x186 JUMP JUMPDEST DUP2 EQ PUSH2 0x1A2 JUMPI PUSH0 DUP1 REVERT JUMPDEST POP JUMP JUMPDEST PUSH0 DUP2 CALLDATALOAD SWAP1 POP PUSH2 0x1B3 DUP2 PUSH2 0x18F JUMP JUMPDEST SWAP3 SWAP2 POP POP JUMP JUMPDEST PUSH0 PUSH1 0x20 DUP3 DUP5 SUB SLT ISZERO PUSH2 0x1CE JUMPI PUSH2 0x1CD PUSH2 0x182 JUMP JUMPDEST JUMPDEST PUSH0 PUSH2 0x1DB DUP5 DUP3 DUP6 ADD PUSH2 0x1A5 JUMP JUMPDEST SWAP2 POP POP SWAP3 SWAP2 POP POP JUMP JUMPDEST PUSH0 DUP2 MLOAD SWAP1 POP SWAP2 SWAP1 POP JUMP JUMPDEST PUSH0 DUP3 DUP3 MSTORE PUSH1 0x20 DUP3 ADD SWAP1 POP SWAP3 SWAP2 POP POP JUMP JUMPDEST PUSH0 JUMPDEST DUP4 DUP2 LT ISZERO PUSH2 0x21B JUMPI DUP1 DUP3 ADD MLOAD DUP2 DUP5 ADD MSTORE PUSH1 0x20 DUP2 ADD SWAP1 POP PUSH2 0x200 JUMP JUMPDEST PUSH0 DUP5 DUP5 ADD MSTORE POP POP POP POP JUMP JUMPDEST PUSH0 PUSH1 0x1F NOT PUSH1 0x1F DUP4 ADD AND SWAP1 POP SWAP2 SWAP1 POP JUMP JUMPDEST PUSH0 PUSH2 0x240 DUP3 PUSH2 0x1E4 JUMP JUMPDEST PUSH2 0x24A DUP2 DUP6 PUSH2 0x1EE JUMP JUMPDEST SWAP4 POP PUSH2 0x25A DUP2 DUP6 PUSH1 0x20 DUP7 ADD PUSH2 0x1FE JUMP JUMPDEST PUSH2 0x263 DUP2 PUSH2 0x226 JUMP JUMPDEST DUP5 ADD SWAP2 POP POP SWAP3 SWAP2 POP POP JUMP JUMPDEST PUSH0 PUSH1 0x20 DUP3 ADD SWAP1 POP DUP2 DUP2 SUB PUSH0 DUP4 ADD MSTORE PUSH2 0x286 DUP2 DUP5 PUSH2 0x236 JUMP JUMPDEST SWAP1 POP SWAP3 SWAP2 POP POP JUMP JUMPDEST PUSH32 0x72657175697265206661696C6564000000000000000000000000000000000000 PUSH0 DUP3 ADD MSTORE POP JUMP JUMPDEST PUSH0 PUSH2 0x2C2 PUSH1 0xE DUP4 PUSH2 0x1EE JUMP JUMPDEST SWAP2 POP PUSH2 0x2CD DUP3 PUSH2 0x28E JUMP JUMPDEST PUSH1 0x20 DUP3 ADD SWAP1 POP SWAP2 SWAP1 POP JUMP JUMPDEST PUSH0 PUSH1 0x20 DUP3 ADD SWAP1 POP DUP2 DUP2 SUB PUSH0 DUP4 ADD MSTORE PUSH2 0x2EF DUP2 PUSH2 0x2B6 JUMP JUMPDEST SWAP1 POP SWAP2 SWAP1 POP JUMP INVALID LOG2 PUSH5 0x6970667358 0x22 SLT KECCAK256 CALL 0xBF BYTE 0xE0 REVERT 0xC6 BLOCKHASH 0xB8 PUSH25 0x2117FBF2BC4266E1EA16CAB9A7E7863851EA0DFCF50BF36473 PUSH16 0x6C63430008160033A264697066735822 SLT KECCAK256 SWAP4 DELEGATECALL SMOD 0xAB DUP16 0xBA 0xAA DUP4 0x1F DUP3 DUP15 DUP13 CALLDATACOPY 0xED RETURN 0xA8 0x2A DUP5 0xB9 SWAP11 PUSH29 0xAE2F0B3F368E47AF708FA064736F6C6343000816003360806040523480 ISZERO PUSH2 0xF JUMPI PUSH0 DUP1 REVERT JUMPDEST POP PUSH1 0x40 MLOAD PUSH2 0x588 CODESIZE SUB DUP1 PUSH2 0x588 DUP4 CODECOPY DUP2 DUP2 ADD PUSH1 0x40 MSTORE DUP2 ADD SWAP1 PUSH2 0x31 SWAP2 SWAP1 PUSH2 0x17F JUMP JUMPDEST PUSH0 PUSH20 0xFFFFFFFFFFFFFFFFFFFFFFFFFFFFFFFFFFFFFFFF AND DUP2 PUSH20 0xFFFFFFFFFFFFFFFFFFFFFFFFFFFFFFFFFFFFFFFF AND SUB PUSH2 0x9F JUMPI PUSH1 0x40 MLOAD PUSH32 0x8C379A000000000000000000000000000000000000000000000000000000000 DUP2 MSTORE PUSH1 0x4 ADD PUSH2 0x96 SWAP1 PUSH2 0x204 JUMP JUMPDEST PUSH1 0x40 MLOAD DUP1 SWAP2 SUB SWAP1 REVERT JUMPDEST PUSH1 0x1 PUSH20 0xFFFFFFFFFFFFFFFFFFFFFFFFFFFFFFFFFFFFFFFF AND DUP2 PUSH20 0xFFFFFFFFFFFFFFFFFFFFFFFFFFFFFFFFFFFFFFFF AND SUB PUSH2 0xDC JUMPI PUSH2 0xDB PUSH2 0x222 JUMP JUMPDEST JUMPDEST DUP1 PUSH0 DUP1 PUSH2 0x100 EXP DUP2 SLOAD DUP2 PUSH20 0xFFFFFFFFFFFFFFFFFFFFFFFFFFFFFFFFFFFFFFFF MUL NOT AND SWAP1 DUP4 PUSH20 0xFFFFFFFFFFFFFFFFFFFFFFFFFFFFFFFFFFFFFFFF AND MUL OR SWAP1 SSTORE POP POP PUSH2 0x24F JUMP JUMPDEST PUSH0 DUP1 REVERT JUMPDEST PUSH0 PUSH20 0xFFFFFFFFFFFFFFFFFFFFFFFFFFFFFFFFFFFFFFFF DUP3 AND SWAP1 POP SWAP2 SWAP1 POP JUMP JUMPDEST PUSH0 PUSH2 0x14E DUP3 PUSH2 0x125 JUMP JUMPDEST SWAP1 POP SWAP2 SWAP1 POP JUMP JUMPDEST PUSH2 0x15E DUP2 PUSH2 0x144 JUMP JUMPDEST DUP2 EQ PUSH2 0x168 JUMPI PUSH0 DUP1 REVERT JUMPDEST POP JUMP JUMPDEST PUSH0 DUP2 MLOAD SWAP1 POP PUSH2 0x179 DUP2 PUSH2 0x155 JUMP JUMPDEST SWAP3 SWAP2 POP POP JUMP JUMPDEST PUSH0 PUSH1 0x20 DUP3 DUP5 SUB SLT ISZERO PUSH2 0x194 JUMPI PUSH2 0x193 PUSH2 0x121 JUMP JUMPDEST JUMPDEST PUSH0 PUSH2 0x1A1 DUP5 DUP3 DUP6 ADD PUSH2 0x16B JUMP JUMPDEST SWAP2 POP POP SWAP3 SWAP2 POP POP JUMP JUMPDEST PUSH0 DUP3 DUP3 MSTORE PUSH1 0x20 DUP3 ADD SWAP1 POP SWAP3 SWAP2 POP POP JUMP JUMPDEST PUSH32 0x696E76616C696420616472657373000000000000000000000000000000000000 PUSH0 DUP3 ADD MSTORE POP JUMP JUMPDEST PUSH0 PUSH2 0x1EE PUSH1 0xE DUP4 PUSH2 0x1AA JUMP JUMPDEST SWAP2 POP PUSH2 0x1F9 DUP3 PUSH2 0x1BA JUMP JUMPDEST PUSH1 0x20 DUP3 ADD SWAP1 POP SWAP2 SWAP1 POP JUMP JUMPDEST PUSH0 PUSH1 0x20 DUP3 ADD SWAP1 POP DUP2 DUP2 SUB PUSH0 DUP4 ADD MSTORE PUSH2 0x21B DUP2 PUSH2 0x1E2 JUMP JUMPDEST SWAP1 POP SWAP2 SWAP1 POP JUMP JUMPDEST PUSH32 0x4E487B7100000000000000000000000000000000000000000000000000000000 PUSH0 MSTORE PUSH1 0x1 PUSH1 0x4 MSTORE PUSH1 0x24 PUSH0 REVERT JUMPDEST PUSH2 0x32C DUP1 PUSH2 0x25C PUSH0 CODECOPY PUSH0 RETURN INVALID PUSH1 0x80 PUSH1 0x40 MSTORE CALLVALUE DUP1 ISZERO PUSH2 0xF JUMPI PUSH0 DUP1 REVERT JUMPDEST POP PUSH1 0x4 CALLDATASIZE LT PUSH2 0x34 JUMPI PUSH0 CALLDATALOAD PUSH1 0xE0 SHR DUP1 PUSH4 0x8DA5CB5B EQ PUSH2 0x38 JUMPI DUP1 PUSH4 0xA9BF5633 EQ PUSH2 0x56 JUMPI JUMPDEST PUSH0 DUP1 REVERT JUMPDEST PUSH2 0x40 PUSH2 0x86 JUMP JUMPDEST PUSH1 0x40 MLOAD PUSH2 0x4D SWAP2 SWAP1 PUSH2 0x169 JUMP JUMPDEST PUSH1 0x40 MLOAD DUP1 SWAP2 SUB SWAP1 RETURN JUMPDEST PUSH2 0x70 PUSH1 0x4 DUP1 CALLDATASIZE SUB DUP2 ADD SWAP1 PUSH2 0x6B SWAP2 SWAP1 PUSH2 0x1B9 JUMP JUMPDEST PUSH2 0xA9 JUMP JUMPDEST PUSH1 0x40 MLOAD PUSH2 0x7D SWAP2 SWAP1 PUSH2 0x26E JUMP JUMPDEST PUSH1 0x40 MLOAD DUP1 SWAP2 SUB SWAP1 RETURN JUMPDEST PUSH0 DUP1 SLOAD SWAP1 PUSH2 0x100 EXP SWAP1 DIV PUSH20 0xFFFFFFFFFFFFFFFFFFFFFFFFFFFFFFFFFFFFFFFF AND DUP2 JUMP JUMPDEST PUSH1 0x60 PUSH0 DUP3 SUB PUSH2 0xED JUMPI PUSH1 0x40 MLOAD PUSH32 0x8C379A000000000000000000000000000000000000000000000000000000000 DUP2 MSTORE PUSH1 0x4 ADD PUSH2 0xE4 SWAP1 PUSH2 0x2D8 JUMP JUMPDEST PUSH1 0x40 MLOAD DUP1 SWAP2 SUB SWAP1 REVERT JUMPDEST PUSH1 0x40 MLOAD DUP1 PUSH1 0x40 ADD PUSH1 0x40 MSTORE DUP1 PUSH1 0x16 DUP2 MSTORE PUSH1 0x20 ADD PUSH32 0x6D792066756E6374696F6E207761732063616C6C656400000000000000000000 DUP2 MSTORE POP SWAP1 POP SWAP2 SWAP1 POP JUMP JUMPDEST PUSH0 PUSH20 0xFFFFFFFFFFFFFFFFFFFFFFFFFFFFFFFFFFFFFFFF DUP3 AND SWAP1 POP SWAP2 SWAP1 POP JUMP JUMPDEST PUSH0 PUSH2 0x153 DUP3 PUSH2 0x12A JUMP JUMPDEST SWAP1 POP SWAP2 SWAP1 POP JUMP JUMPDEST PUSH2 0x163 DUP2 PUSH2 0x149 JUMP JUMPDEST DUP3 MSTORE POP POP JUMP JUMPDEST PUSH0 PUSH1 0x20 DUP3 ADD SWAP1 POP PUSH2 0x17C PUSH0 DUP4 ADD DUP5 PUSH2 0x15A JUMP JUMPDEST SWAP3 SWAP2 POP POP JUMP JUMPDEST PUSH0 DUP1 REVERT JUMPDEST PUSH0 DUP2 SWAP1 POP SWAP2 SWAP1 POP JUMP JUMPDEST PUSH2 0x198 DUP2 PUSH2 0x186 JUMP JUMPDEST DUP2 EQ PUSH2 0x1A2 JUMPI PUSH0 DUP1 REVERT JUMPDEST POP JUMP JUMPDEST PUSH0 DUP2 CALLDATALOAD SWAP1 POP PUSH2 0x1B3 DUP2 PUSH2 0x18F JUMP JUMPDEST SWAP3 SWAP2 POP POP JUMP JUMPDEST PUSH0 PUSH1 0x20 DUP3 DUP5 SUB SLT ISZERO PUSH2 0x1CE JUMPI PUSH2 0x1CD PUSH2 0x182 JUMP JUMPDEST JUMPDEST PUSH0 PUSH2 0x1DB DUP5 DUP3 DUP6 ADD PUSH2 0x1A5 JUMP JUMPDEST SWAP2 POP POP SWAP3 SWAP2 POP POP JUMP JUMPDEST PUSH0 DUP2 MLOAD SWAP1 POP SWAP2 SWAP1 POP JUMP JUMPDEST PUSH0 DUP3 DUP3 MSTORE PUSH1 0x20 DUP3 ADD SWAP1 POP SWAP3 SWAP2 POP POP JUMP JUMPDEST PUSH0 JUMPDEST DUP4 DUP2 LT ISZERO PUSH2 0x21B JUMPI DUP1 DUP3 ADD MLOAD DUP2 DUP5 ADD MSTORE PUSH1 0x20 DUP2 ADD SWAP1 POP PUSH2 0x200 JUMP JUMPDEST PUSH0 DUP5 DUP5 ADD MSTORE POP POP POP POP JUMP JUMPDEST PUSH0 PUSH1 0x1F NOT PUSH1 0x1F DUP4 ADD AND SWAP1 POP SWAP2 SWAP1 POP JUMP JUMPDEST PUSH0 PUSH2 0x240 DUP3 PUSH2 0x1E4 JUMP JUMPDEST PUSH2 0x24A DUP2 DUP6 PUSH2 0x1EE JUMP JUMPDEST SWAP4 POP PUSH2 0x25A DUP2 DUP6 PUSH1 0x20 DUP7 ADD PUSH2 0x1FE JUMP JUMPDEST PUSH2 0x263 DUP2 PUSH2 0x226 JUMP JUMPDEST DUP5 ADD SWAP2 POP POP SWAP3 SWAP2 POP POP JUMP JUMPDEST PUSH0 PUSH1 0x20 DUP3 ADD SWAP1 POP DUP2 DUP2 SUB PUSH0 DUP4 ADD MSTORE PUSH2 0x286 DUP2 DUP5 PUSH2 0x236 JUMP JUMPDEST SWAP1 POP SWAP3 SWAP2 POP POP JUMP JUMPDEST PUSH32 0x72657175697265206661696C6564000000000000000000000000000000000000 PUSH0 DUP3 ADD MSTORE POP JUMP JUMPDEST PUSH0 PUSH2 0x2C2 PUSH1 0xE DUP4 PUSH2 0x1EE JUMP JUMPDEST SWAP2 POP PUSH2 0x2CD DUP3 PUSH2 0x28E JUMP JUMPDEST PUSH1 0x20 DUP3 ADD SWAP1 POP SWAP2 SWAP1 POP JUMP JUMPDEST PUSH0 PUSH1 0x20 DUP3 ADD SWAP1 POP DUP2 DUP2 SUB PUSH0 DUP4 ADD MSTORE PUSH2 0x2EF DUP2 PUSH2 0x2B6 JUMP JUMPDEST SWAP1 POP SWAP2 SWAP1 POP JUMP INVALID LOG2 PUSH5 0x6970667358 0x22 SLT KECCAK256 CALL 0xBF BYTE 0xE0 REVERT 0xC6 BLOCKHASH 0xB8 PUSH25 0x2117FBF2BC4266E1EA16CAB9A7E7863851EA0DFCF50BF36473 PUSH16 0x6C634300081600330000000000000000 "
				},
				"gasEstimates": {
					"creation": {
						"codeDepositCost": "782400",
						"executionCost": "infinite",
						"totalCost": "infinite"
					},
					"external": {
						"normi()": "infinite",
						"tryCatchExternalCall(uint256)": "infinite",
						"tryCatchNewContract(address)": "infinite"
					}
				},
				"methodIdentifiers": {
					"normi()": "b131b300",
					"tryCatchExternalCall(uint256)": "933ac084",
					"tryCatchNewContract(address)": "77bdab83"
				}
			},
			"storageLayout": {
				"storage": [
					{
						"astId": 58,
						"contract": "contracts/tryCatch.sol:TryCatch",
						"label": "normi",
						"offset": 0,
						"slot": "0",
						"type": "t_contract(Normal)47"
					}
				],
				"types": {
					"t_contract(Normal)47": {
						"encoding": "inplace",
						"label": "contract Normal",
						"numberOfBytes": "20"
					}
				}
			},
			"userdoc": {
				"kind": "user",
				"methods": {},
				"version": 1
			}
		}
	}
}