{
	"contracts/viewPure.sol": {
		"ViewPure": {
			"abi": [
				{
					"inputs": [],
					"name": "getNumbypure",
					"outputs": [
						{
							"internalType": "uint256",
							"name": "",
							"type": "uint256"
						}
					],
					"stateMutability": "pure",
					"type": "function"
				},
				{
					"inputs": [],
					"name": "getNumbyview",
					"outputs": [
						{
							"internalType": "uint256",
							"name": "product",
							"type": "uint256"
						},
						{
							"internalType": "uint256",
							"name": "total",
							"type": "uint256"
						}
					],
					"stateMutability": "view",
					"type": "function"
				},
				{
					"inputs": [
						{
							"internalType": "uint256",
							"name": "product",
							"type": "uint256"
						}
					],
					"name": "getnumacces",
					"outputs": [],
					"stateMutability": "nonpayable",
					"type": "function"
				},
				{
					"inputs": [],
					"name": "getnummodify",
					"outputs": [
						{
							"internalType": "uint256",
							"name": "product",
							"type": "uint256"
						}
					],
					"stateMutability": "nonpayable",
					"type": "function"
				}
			],
			"devdoc": {
				"kind": "dev",
				"methods": {},
				"version": 1
			},
			"evm": {
				"assembly": "    /* \"contracts/viewPure.sol\":60:945  contract ViewPure{... */\n  mstore(0x40, 0x80)\n    /* \"contracts/viewPure.sol\":95:96  9 */\n  0x09\n    /* \"contracts/viewPure.sol\":84:96  uint  Num1=9 */\n  0x00\n  sstore\n    /* \"contracts/viewPure.sol\":114:116  10 */\n  0x0a\n    /* \"contracts/viewPure.sol\":103:116  uint  Num2=10 */\n  0x01\n  sstore\n    /* \"contracts/viewPure.sol\":60:945  contract ViewPure{... */\n  callvalue\n  dup1\n  iszero\n  tag_1\n  jumpi\n  0x00\n  dup1\n  revert\ntag_1:\n  pop\n  dataSize(sub_0)\n  dup1\n  dataOffset(sub_0)\n  0x00\n  codecopy\n  0x00\n  return\nstop\n\nsub_0: assembly {\n        /* \"contracts/viewPure.sol\":60:945  contract ViewPure{... */\n      mstore(0x40, 0x80)\n      callvalue\n      dup1\n      iszero\n      tag_1\n      jumpi\n      0x00\n      dup1\n      revert\n    tag_1:\n      pop\n      jumpi(tag_2, lt(calldatasize, 0x04))\n      shr(0xe0, calldataload(0x00))\n      dup1\n      0x2df6c25a\n      eq\n      tag_3\n      jumpi\n      dup1\n      0x7393e295\n      eq\n      tag_4\n      jumpi\n      dup1\n      0x77025d45\n      eq\n      tag_5\n      jumpi\n      dup1\n      0xeda5a9f4\n      eq\n      tag_6\n      jumpi\n    tag_2:\n      0x00\n      dup1\n      revert\n        /* \"contracts/viewPure.sol\":729:842  function getnummodify() public returns(uint product) {... */\n    tag_3:\n        /* \"contracts/viewPure.sol\":794:796  10 */\n      0x0a\n        /* \"contracts/viewPure.sol\":789:793  Num2 */\n      0x01\n        /* \"contracts/viewPure.sol\":789:796  Num2=10 */\n      sstore\n        /* \"contracts/viewPure.sol\":768:780  uint product */\n      0x00\n        /* \"contracts/viewPure.sol\":803:815  Num1=product */\n      dup1\n      dup1\n      sstore\n        /* \"contracts/viewPure.sol\":729:842  function getnummodify() public returns(uint product) {... */\n    tag_7:\n      mload(0x40)\n        /* \"#utility.yul\":160:185   */\n      swap1\n      dup2\n      mstore\n        /* \"#utility.yul\":148:150   */\n      0x20\n        /* \"#utility.yul\":133:151   */\n      add\n        /* \"contracts/viewPure.sol\":729:842  function getnummodify() public returns(uint product) {... */\n    tag_9:\n      mload(0x40)\n      dup1\n      swap2\n      sub\n      swap1\n      return\n        /* \"contracts/viewPure.sol\":530:722  function getNumbypure() public pure returns (uint){... */\n    tag_4:\n        /* \"contracts/viewPure.sol\":668:670  20 */\n      0x14\n        /* \"contracts/viewPure.sol\":530:722  function getNumbypure() public pure returns (uint){... */\n      jump(tag_7)\n        /* \"contracts/viewPure.sol\":122:525  function getNumbyview()public view returns(uint product, uint total){... */\n    tag_5:\n      tag_14\n      tag_15\n      jump\t// in\n    tag_14:\n      0x40\n      dup1\n      mload\n        /* \"#utility.yul\":370:395   */\n      swap3\n      dup4\n      mstore\n        /* \"#utility.yul\":426:428   */\n      0x20\n        /* \"#utility.yul\":411:429   */\n      dup4\n      add\n        /* \"#utility.yul\":404:438   */\n      swap2\n      swap1\n      swap2\n      mstore\n        /* \"#utility.yul\":343:361   */\n      add\n        /* \"contracts/viewPure.sol\":122:525  function getNumbyview()public view returns(uint product, uint total){... */\n      tag_9\n        /* \"#utility.yul\":196:444   */\n      jump\n        /* \"contracts/viewPure.sol\":848:934  function getnumacces(uint product) public {... */\n    tag_6:\n      tag_18\n      tag_19\n      calldatasize\n      0x04\n      tag_20\n      jump\t// in\n    tag_19:\n        /* \"contracts/viewPure.sol\":903:907  Num1 */\n      0x00\n        /* \"contracts/viewPure.sol\":903:915  Num1=product */\n      sstore\n        /* \"contracts/viewPure.sol\":848:934  function getnumacces(uint product) public {... */\n      jump\n    tag_18:\n      stop\n        /* \"contracts/viewPure.sol\":122:525  function getNumbyview()public view returns(uint product, uint total){... */\n    tag_15:\n        /* \"contracts/viewPure.sol\":165:177  uint product */\n      0x00\n        /* \"contracts/viewPure.sol\":179:189  uint total */\n      dup1\n        /* \"contracts/viewPure.sol\":305:309  Num2 */\n      sload(0x01)\n        /* \"contracts/viewPure.sol\":300:304  Num1 */\n      sload(0x00)\n        /* \"contracts/viewPure.sol\":300:309  Num1*Num2 */\n      tag_25\n      swap2\n      swap1\n      tag_26\n      jump\t// in\n    tag_25:\n        /* \"contracts/viewPure.sol\":292:309  product=Num1*Num2 */\n      swap2\n      pop\n        /* \"contracts/viewPure.sol\":386:390  Num2 */\n      sload(0x01)\n        /* \"contracts/viewPure.sol\":381:385  Num1 */\n      sload(0x00)\n        /* \"contracts/viewPure.sol\":381:390  Num1+Num2 */\n      tag_27\n      swap2\n      swap1\n      tag_28\n      jump\t// in\n    tag_27:\n        /* \"contracts/viewPure.sol\":375:390  total=Num1+Num2 */\n      swap1\n      pop\n        /* \"contracts/viewPure.sol\":122:525  function getNumbyview()public view returns(uint product, uint total){... */\n      swap1\n      swap2\n      jump\t// out\n        /* \"#utility.yul\":449:629   */\n    tag_20:\n        /* \"#utility.yul\":508:514   */\n      0x00\n        /* \"#utility.yul\":561:563   */\n      0x20\n        /* \"#utility.yul\":549:558   */\n      dup3\n        /* \"#utility.yul\":540:547   */\n      dup5\n        /* \"#utility.yul\":536:559   */\n      sub\n        /* \"#utility.yul\":532:564   */\n      slt\n        /* \"#utility.yul\":529:581   */\n      iszero\n      tag_35\n      jumpi\n        /* \"#utility.yul\":577:578   */\n      0x00\n        /* \"#utility.yul\":574:575   */\n      dup1\n        /* \"#utility.yul\":567:579   */\n      revert\n        /* \"#utility.yul\":529:581   */\n    tag_35:\n      pop\n        /* \"#utility.yul\":600:623   */\n      calldataload\n      swap2\n        /* \"#utility.yul\":449:629   */\n      swap1\n      pop\n      jump\t// out\n        /* \"#utility.yul\":634:761   */\n    tag_30:\n        /* \"#utility.yul\":695:705   */\n      0x4e487b71\n        /* \"#utility.yul\":690:693   */\n      0xe0\n        /* \"#utility.yul\":686:706   */\n      shl\n        /* \"#utility.yul\":683:684   */\n      0x00\n        /* \"#utility.yul\":676:707   */\n      mstore\n        /* \"#utility.yul\":726:730   */\n      0x11\n        /* \"#utility.yul\":723:724   */\n      0x04\n        /* \"#utility.yul\":716:731   */\n      mstore\n        /* \"#utility.yul\":750:754   */\n      0x24\n        /* \"#utility.yul\":747:748   */\n      0x00\n        /* \"#utility.yul\":740:755   */\n      revert\n        /* \"#utility.yul\":766:934   */\n    tag_26:\n        /* \"#utility.yul\":839:848   */\n      dup1\n      dup3\n      mul\n        /* \"#utility.yul\":870:879   */\n      dup2\n      iszero\n        /* \"#utility.yul\":887:902   */\n      dup3\n      dup3\n      div\n        /* \"#utility.yul\":881:903   */\n      dup5\n      eq\n        /* \"#utility.yul\":867:904   */\n      or\n        /* \"#utility.yul\":857:928   */\n      tag_39\n      jumpi\n        /* \"#utility.yul\":908:926   */\n      tag_39\n      tag_30\n      jump\t// in\n    tag_39:\n        /* \"#utility.yul\":766:934   */\n      swap3\n      swap2\n      pop\n      pop\n      jump\t// out\n        /* \"#utility.yul\":939:1064   */\n    tag_28:\n        /* \"#utility.yul\":1004:1013   */\n      dup1\n      dup3\n      add\n        /* \"#utility.yul\":1025:1035   */\n      dup1\n      dup3\n      gt\n        /* \"#utility.yul\":1022:1058   */\n      iszero\n      tag_39\n      jumpi\n        /* \"#utility.yul\":1038:1056   */\n      tag_39\n      tag_30\n      jump\t// in\n\n    auxdata: 0xa264697066735822122012e74c58de9998628e3fbb3d69e6a1b47bd14b9eacb07b06f3225d0ed03cf25464736f6c63430008170033\n}\n",
				"bytecode": {
					"linkReferences": {},
					"object": "608060405260095f55600a600155348015610018575f80fd5b5061015c806100265f395ff3fe608060405234801561000f575f80fd5b506004361061004a575f3560e01c80632df6c25a1461004e5780637393e2951461006b57806377025d4514610072578063eda5a9f41461008f575b5f80fd5b600a6001555f8080555b6040519081526020015b60405180910390f35b6014610058565b61007a6100a3565b60408051928352602083019190915201610062565b6100a161009d3660046100cb565b5f55565b005b5f806001545f546100b491906100f6565b91506001545f546100c59190610113565b90509091565b5f602082840312156100db575f80fd5b5035919050565b634e487b7160e01b5f52601160045260245ffd5b808202811582820484141761010d5761010d6100e2565b92915050565b8082018082111561010d5761010d6100e256fea264697066735822122012e74c58de9998628e3fbb3d69e6a1b47bd14b9eacb07b06f3225d0ed03cf25464736f6c63430008170033",
					"opcodes": "PUSH1 0x80 PUSH1 0x40 MSTORE PUSH1 0x9 PUSH0 SSTORE PUSH1 0xA PUSH1 0x1 SSTORE CALLVALUE DUP1 ISZERO PUSH2 0x18 JUMPI PUSH0 DUP1 REVERT JUMPDEST POP PUSH2 0x15C DUP1 PUSH2 0x26 PUSH0 CODECOPY PUSH0 RETURN INVALID PUSH1 0x80 PUSH1 0x40 MSTORE CALLVALUE DUP1 ISZERO PUSH2 0xF JUMPI PUSH0 DUP1 REVERT JUMPDEST POP PUSH1 0x4 CALLDATASIZE LT PUSH2 0x4A JUMPI PUSH0 CALLDATALOAD PUSH1 0xE0 SHR DUP1 PUSH4 0x2DF6C25A EQ PUSH2 0x4E JUMPI DUP1 PUSH4 0x7393E295 EQ PUSH2 0x6B JUMPI DUP1 PUSH4 0x77025D45 EQ PUSH2 0x72 JUMPI DUP1 PUSH4 0xEDA5A9F4 EQ PUSH2 0x8F JUMPI JUMPDEST PUSH0 DUP1 REVERT JUMPDEST PUSH1 0xA PUSH1 0x1 SSTORE PUSH0 DUP1 DUP1 SSTORE JUMPDEST PUSH1 0x40 MLOAD SWAP1 DUP2 MSTORE PUSH1 0x20 ADD JUMPDEST PUSH1 0x40 MLOAD DUP1 SWAP2 SUB SWAP1 RETURN JUMPDEST PUSH1 0x14 PUSH2 0x58 JUMP JUMPDEST PUSH2 0x7A PUSH2 0xA3 JUMP JUMPDEST PUSH1 0x40 DUP1 MLOAD SWAP3 DUP4 MSTORE PUSH1 0x20 DUP4 ADD SWAP2 SWAP1 SWAP2 MSTORE ADD PUSH2 0x62 JUMP JUMPDEST PUSH2 0xA1 PUSH2 0x9D CALLDATASIZE PUSH1 0x4 PUSH2 0xCB JUMP JUMPDEST PUSH0 SSTORE JUMP JUMPDEST STOP JUMPDEST PUSH0 DUP1 PUSH1 0x1 SLOAD PUSH0 SLOAD PUSH2 0xB4 SWAP2 SWAP1 PUSH2 0xF6 JUMP JUMPDEST SWAP2 POP PUSH1 0x1 SLOAD PUSH0 SLOAD PUSH2 0xC5 SWAP2 SWAP1 PUSH2 0x113 JUMP JUMPDEST SWAP1 POP SWAP1 SWAP2 JUMP JUMPDEST PUSH0 PUSH1 0x20 DUP3 DUP5 SUB SLT ISZERO PUSH2 0xDB JUMPI PUSH0 DUP1 REVERT JUMPDEST POP CALLDATALOAD SWAP2 SWAP1 POP JUMP JUMPDEST PUSH4 0x4E487B71 PUSH1 0xE0 SHL PUSH0 MSTORE PUSH1 0x11 PUSH1 0x4 MSTORE PUSH1 0x24 PUSH0 REVERT JUMPDEST DUP1 DUP3 MUL DUP2 ISZERO DUP3 DUP3 DIV DUP5 EQ OR PUSH2 0x10D JUMPI PUSH2 0x10D PUSH2 0xE2 JUMP JUMPDEST SWAP3 SWAP2 POP POP JUMP JUMPDEST DUP1 DUP3 ADD DUP1 DUP3 GT ISZERO PUSH2 0x10D JUMPI PUSH2 0x10D PUSH2 0xE2 JUMP INVALID LOG2 PUSH5 0x6970667358 0x22 SLT KECCAK256 SLT 0xE7 0x4C PC 0xDE SWAP10 SWAP9 PUSH3 0x8E3FBB RETURNDATASIZE PUSH10 0xE6A1B47BD14B9EACB07B MOD RETURN 0x22 0x5D 0xE 0xD0 EXTCODECOPY CALLCODE SLOAD PUSH5 0x736F6C6343 STOP ADDMOD OR STOP CALLER "
				},
				"gasEstimates": {
					"creation": {
						"codeDepositCost": "69600",
						"executionCost": "44326",
						"totalCost": "113926"
					},
					"external": {
						"getNumbypure()": "180",
						"getNumbyview()": "infinite",
						"getnumacces(uint256)": "22353",
						"getnummodify()": "27258"
					}
				},
				"methodIdentifiers": {
					"getNumbypure()": "7393e295",
					"getNumbyview()": "77025d45",
					"getnumacces(uint256)": "eda5a9f4",
					"getnummodify()": "2df6c25a"
				}
			},
			"storageLayout": {
				"storage": [
					{
						"astId": 4,
						"contract": "contracts/viewPure.sol:ViewPure",
						"label": "Num1",
						"offset": 0,
						"slot": "0",
						"type": "t_uint256"
					},
					{
						"astId": 7,
						"contract": "contracts/viewPure.sol:ViewPure",
						"label": "Num2",
						"offset": 0,
						"slot": "1",
						"type": "t_uint256"
					}
				],
				"types": {
					"t_uint256": {
						"encoding": "inplace",
						"label": "uint256",
						"numberOfBytes": "32"
					}
				}
			},
			"userdoc": {
				"kind": "user",
				"methods": {},
				"version": 1
			}
		}
	}
}