{
	"contracts/MedicalIndustry.sol": {
		"MedicalIndustry": {
			"abi": [
				{
					"inputs": [
						{
							"internalType": "string",
							"name": "_name",
							"type": "string"
						},
						{
							"internalType": "uint256",
							"name": "_age",
							"type": "uint256"
						},
						{
							"internalType": "string",
							"name": "_gender",
							"type": "string"
						},
						{
							"internalType": "string[]",
							"name": "_doctor",
							"type": "string[]"
						},
						{
							"internalType": "string[]",
							"name": "_conditions",
							"type": "string[]"
						},
						{
							"internalType": "string[]",
							"name": "_departments",
							"type": "string[]"
						},
						{
							"internalType": "string[]",
							"name": "_procedures",
							"type": "string[]"
						},
						{
							"internalType": "string[]",
							"name": "_medication",
							"type": "string[]"
						}
					],
					"name": "addPatient",
					"outputs": [],
					"stateMutability": "nonpayable",
					"type": "function"
				},
				{
					"inputs": [
						{
							"internalType": "address",
							"name": "_patientAddr",
							"type": "address"
						}
					],
					"name": "getPatient",
					"outputs": [
						{
							"internalType": "string",
							"name": "",
							"type": "string"
						},
						{
							"internalType": "uint256",
							"name": "",
							"type": "uint256"
						},
						{
							"internalType": "string",
							"name": "",
							"type": "string"
						},
						{
							"internalType": "string[]",
							"name": "",
							"type": "string[]"
						},
						{
							"internalType": "string[]",
							"name": "",
							"type": "string[]"
						},
						{
							"internalType": "string[]",
							"name": "",
							"type": "string[]"
						},
						{
							"internalType": "string[]",
							"name": "",
							"type": "string[]"
						},
						{
							"internalType": "string[]",
							"name": "",
							"type": "string[]"
						},
						{
							"internalType": "bool",
							"name": "",
							"type": "bool"
						}
					],
					"stateMutability": "view",
					"type": "function"
				},
				{
					"inputs": [
						{
							"internalType": "address",
							"name": "",
							"type": "address"
						}
					],
					"name": "patientData",
					"outputs": [
						{
							"internalType": "string",
							"name": "name",
							"type": "string"
						},
						{
							"internalType": "uint256",
							"name": "age",
							"type": "uint256"
						},
						{
							"internalType": "string",
							"name": "gender",
							"type": "string"
						},
						{
							"internalType": "bool",
							"name": "isAlive",
							"type": "bool"
						}
					],
					"stateMutability": "view",
					"type": "function"
				},
				{
					"inputs": [
						{
							"internalType": "address",
							"name": "_addr",
							"type": "address"
						}
					],
					"name": "patientIsAlive",
					"outputs": [
						{
							"internalType": "bool",
							"name": "",
							"type": "bool"
						}
					],
					"stateMutability": "view",
					"type": "function"
				},
				{
					"inputs": [
						{
							"internalType": "uint256",
							"name": "_age",
							"type": "uint256"
						},
						{
							"internalType": "string[]",
							"name": "_doctor",
							"type": "string[]"
						},
						{
							"internalType": "string[]",
							"name": "_conditions",
							"type": "string[]"
						},
						{
							"internalType": "string[]",
							"name": "_departments",
							"type": "string[]"
						},
						{
							"internalType": "string[]",
							"name": "_procedures",
							"type": "string[]"
						},
						{
							"internalType": "string[]",
							"name": "_medication",
							"type": "string[]"
						},
						{
							"internalType": "bool",
							"name": "_isAlive",
							"type": "bool"
						}
					],
					"name": "updatePatient",
					"outputs": [],
					"stateMutability": "view",
					"type": "function"
				}
			],
			"devdoc": {
				"kind": "dev",
				"methods": {},
				"version": 1
			},
			"evm": {
				"assembly": "    /* \"contracts/MedicalIndustry.sol\":58:3275  contract MedicalIndustry {... */\n  mstore(0x40, 0x80)\n  callvalue\n  dup1\n  iszero\n  tag_1\n  jumpi\n  0x00\n  dup1\n  revert\ntag_1:\n  pop\n  dataSize(sub_0)\n  dup1\n  dataOffset(sub_0)\n  0x00\n  codecopy\n  0x00\n  return\nstop\n\nsub_0: assembly {\n        /* \"contracts/MedicalIndustry.sol\":58:3275  contract MedicalIndustry {... */\n      mstore(0x40, 0x80)\n      callvalue\n      dup1\n      iszero\n      tag_1\n      jumpi\n      0x00\n      dup1\n      revert\n    tag_1:\n      pop\n      jumpi(tag_2, lt(calldatasize, 0x04))\n      shr(0xe0, calldataload(0x00))\n      dup1\n      0x2e608c02\n      eq\n      tag_3\n      jumpi\n      dup1\n      0x3ac36221\n      eq\n      tag_4\n      jumpi\n      dup1\n      0x5a81e61b\n      eq\n      tag_5\n      jumpi\n      dup1\n      0x5ebcf7b3\n      eq\n      tag_6\n      jumpi\n      dup1\n      0xb5368e20\n      eq\n      tag_7\n      jumpi\n    tag_2:\n      0x00\n      dup1\n      revert\n        /* \"contracts/MedicalIndustry.sol\":465:512  mapping(address => Patient) public  patientData */\n    tag_3:\n      tag_8\n      0x04\n      dup1\n      calldatasize\n      sub\n      dup2\n      add\n      swap1\n      tag_9\n      swap2\n      swap1\n      tag_10\n      jump\t// in\n    tag_9:\n      tag_11\n      jump\t// in\n    tag_8:\n      mload(0x40)\n      tag_12\n      swap5\n      swap4\n      swap3\n      swap2\n      swap1\n      tag_13\n      jump\t// in\n    tag_12:\n      mload(0x40)\n      dup1\n      swap2\n      sub\n      swap1\n      return\n        /* \"contracts/MedicalIndustry.sol\":2570:3268  function updatePatient(... */\n    tag_4:\n      tag_14\n      0x04\n      dup1\n      calldatasize\n      sub\n      dup2\n      add\n      swap1\n      tag_15\n      swap2\n      swap1\n      tag_16\n      jump\t// in\n    tag_15:\n      tag_17\n      jump\t// in\n    tag_14:\n      stop\n        /* \"contracts/MedicalIndustry.sol\":559:1428  function addPatient(... */\n    tag_5:\n      tag_18\n      0x04\n      dup1\n      calldatasize\n      sub\n      dup2\n      add\n      swap1\n      tag_19\n      swap2\n      swap1\n      tag_20\n      jump\t// in\n    tag_19:\n      tag_21\n      jump\t// in\n    tag_18:\n      stop\n        /* \"contracts/MedicalIndustry.sol\":2329:2525  function patientIsAlive(address _addr)public view returns(bool){... */\n    tag_6:\n      tag_22\n      0x04\n      dup1\n      calldatasize\n      sub\n      dup2\n      add\n      swap1\n      tag_23\n      swap2\n      swap1\n      tag_10\n      jump\t// in\n    tag_23:\n      tag_24\n      jump\t// in\n    tag_22:\n      mload(0x40)\n      tag_25\n      swap2\n      swap1\n      tag_26\n      jump\t// in\n    tag_25:\n      mload(0x40)\n      dup1\n      swap2\n      sub\n      swap1\n      return\n        /* \"contracts/MedicalIndustry.sol\":1477:2040  function getPatient(address  _patientAddr)public view returns(... */\n    tag_7:\n      tag_27\n      0x04\n      dup1\n      calldatasize\n      sub\n      dup2\n      add\n      swap1\n      tag_28\n      swap2\n      swap1\n      tag_10\n      jump\t// in\n    tag_28:\n      tag_29\n      jump\t// in\n    tag_27:\n      mload(0x40)\n      tag_30\n      swap10\n      swap9\n      swap8\n      swap7\n      swap6\n      swap5\n      swap4\n      swap3\n      swap2\n      swap1\n      tag_31\n      jump\t// in\n    tag_30:\n      mload(0x40)\n      dup1\n      swap2\n      sub\n      swap1\n      return\n        /* \"contracts/MedicalIndustry.sol\":465:512  mapping(address => Patient) public  patientData */\n    tag_11:\n      mstore(0x20, 0x00)\n      dup1\n      0x00\n      mstore\n      keccak256(0x00, 0x40)\n      0x00\n      swap2\n      pop\n      swap1\n      pop\n      dup1\n      0x00\n      add\n      dup1\n      sload\n      tag_32\n      swap1\n      tag_33\n      jump\t// in\n    tag_32:\n      dup1\n      0x1f\n      add\n      0x20\n      dup1\n      swap2\n      div\n      mul\n      0x20\n      add\n      mload(0x40)\n      swap1\n      dup2\n      add\n      0x40\n      mstore\n      dup1\n      swap3\n      swap2\n      swap1\n      dup2\n      dup2\n      mstore\n      0x20\n      add\n      dup3\n      dup1\n      sload\n      tag_34\n      swap1\n      tag_33\n      jump\t// in\n    tag_34:\n      dup1\n      iszero\n      tag_35\n      jumpi\n      dup1\n      0x1f\n      lt\n      tag_36\n      jumpi\n      0x0100\n      dup1\n      dup4\n      sload\n      div\n      mul\n      dup4\n      mstore\n      swap2\n      0x20\n      add\n      swap2\n      jump(tag_35)\n    tag_36:\n      dup3\n      add\n      swap2\n      swap1\n      0x00\n      mstore\n      keccak256(0x00, 0x20)\n      swap1\n    tag_37:\n      dup2\n      sload\n      dup2\n      mstore\n      swap1\n      0x01\n      add\n      swap1\n      0x20\n      add\n      dup1\n      dup4\n      gt\n      tag_37\n      jumpi\n      dup3\n      swap1\n      sub\n      0x1f\n      and\n      dup3\n      add\n      swap2\n    tag_35:\n      pop\n      pop\n      pop\n      pop\n      pop\n      swap1\n      dup1\n      0x01\n      add\n      sload\n      swap1\n      dup1\n      0x02\n      add\n      dup1\n      sload\n      tag_38\n      swap1\n      tag_33\n      jump\t// in\n    tag_38:\n      dup1\n      0x1f\n      add\n      0x20\n      dup1\n      swap2\n      div\n      mul\n      0x20\n      add\n      mload(0x40)\n      swap1\n      dup2\n      add\n      0x40\n      mstore\n      dup1\n      swap3\n      swap2\n      swap1\n      dup2\n      dup2\n      mstore\n      0x20\n      add\n      dup3\n      dup1\n      sload\n      tag_39\n      swap1\n      tag_33\n      jump\t// in\n    tag_39:\n      dup1\n      iszero\n      tag_40\n      jumpi\n      dup1\n      0x1f\n      lt\n      tag_41\n      jumpi\n      0x0100\n      dup1\n      dup4\n      sload\n      div\n      mul\n      dup4\n      mstore\n      swap2\n      0x20\n      add\n      swap2\n      jump(tag_40)\n    tag_41:\n      dup3\n      add\n      swap2\n      swap1\n      0x00\n      mstore\n      keccak256(0x00, 0x20)\n      swap1\n    tag_42:\n      dup2\n      sload\n      dup2\n      mstore\n      swap1\n      0x01\n      add\n      swap1\n      0x20\n      add\n      dup1\n      dup4\n      gt\n      tag_42\n      jumpi\n      dup3\n      swap1\n      sub\n      0x1f\n      and\n      dup3\n      add\n      swap2\n    tag_40:\n      pop\n      pop\n      pop\n      pop\n      pop\n      swap1\n      dup1\n      0x08\n      add\n      0x00\n      swap1\n      sload\n      swap1\n      0x0100\n      exp\n      swap1\n      div\n      0xff\n      and\n      swap1\n      pop\n      dup5\n      jump\t// out\n        /* \"contracts/MedicalIndustry.sol\":2570:3268  function updatePatient(... */\n    tag_17:\n        /* \"contracts/MedicalIndustry.sol\":2894:2916  Patient memory patient */\n      0x00\n        /* \"contracts/MedicalIndustry.sol\":2917:2928  patientData */\n      dup1\n        /* \"contracts/MedicalIndustry.sol\":2917:2940  patientData[msg.sender] */\n      0x00\n        /* \"contracts/MedicalIndustry.sol\":2929:2939  msg.sender */\n      caller\n        /* \"contracts/MedicalIndustry.sol\":2917:2940  patientData[msg.sender] */\n      0xffffffffffffffffffffffffffffffffffffffff\n      and\n      0xffffffffffffffffffffffffffffffffffffffff\n      and\n      dup2\n      mstore\n      0x20\n      add\n      swap1\n      dup2\n      mstore\n      0x20\n      add\n      0x00\n      keccak256\n        /* \"contracts/MedicalIndustry.sol\":2894:2940  Patient memory patient=patientData[msg.sender] */\n      mload(0x40)\n      dup1\n      0x0120\n      add\n      0x40\n      mstore\n      swap1\n      dup2\n      0x00\n      dup3\n      add\n      dup1\n      sload\n      tag_44\n      swap1\n      tag_33\n      jump\t// in\n    tag_44:\n      dup1\n      0x1f\n      add\n      0x20\n      dup1\n      swap2\n      div\n      mul\n      0x20\n      add\n      mload(0x40)\n      swap1\n      dup2\n      add\n      0x40\n      mstore\n      dup1\n      swap3\n      swap2\n      swap1\n      dup2\n      dup2\n      mstore\n      0x20\n      add\n      dup3\n      dup1\n      sload\n      tag_45\n      swap1\n      tag_33\n      jump\t// in\n    tag_45:\n      dup1\n      iszero\n      tag_46\n      jumpi\n      dup1\n      0x1f\n      lt\n      tag_47\n      jumpi\n      0x0100\n      dup1\n      dup4\n      sload\n      div\n      mul\n      dup4\n      mstore\n      swap2\n      0x20\n      add\n      swap2\n      jump(tag_46)\n    tag_47:\n      dup3\n      add\n      swap2\n      swap1\n      0x00\n      mstore\n      keccak256(0x00, 0x20)\n      swap1\n    tag_48:\n      dup2\n      sload\n      dup2\n      mstore\n      swap1\n      0x01\n      add\n      swap1\n      0x20\n      add\n      dup1\n      dup4\n      gt\n      tag_48\n      jumpi\n      dup3\n      swap1\n      sub\n      0x1f\n      and\n      dup3\n      add\n      swap2\n    tag_46:\n      pop\n      pop\n      pop\n      pop\n      pop\n      dup2\n      mstore\n      0x20\n      add\n      0x01\n      dup3\n      add\n      sload\n      dup2\n      mstore\n      0x20\n      add\n      0x02\n      dup3\n      add\n      dup1\n      sload\n      tag_49\n      swap1\n      tag_33\n      jump\t// in\n    tag_49:\n      dup1\n      0x1f\n      add\n      0x20\n      dup1\n      swap2\n      div\n      mul\n      0x20\n      add\n      mload(0x40)\n      swap1\n      dup2\n      add\n      0x40\n      mstore\n      dup1\n      swap3\n      swap2\n      swap1\n      dup2\n      dup2\n      mstore\n      0x20\n      add\n      dup3\n      dup1\n      sload\n      tag_50\n      swap1\n      tag_33\n      jump\t// in\n    tag_50:\n      dup1\n      iszero\n      tag_51\n      jumpi\n      dup1\n      0x1f\n      lt\n      tag_52\n      jumpi\n      0x0100\n      dup1\n      dup4\n      sload\n      div\n      mul\n      dup4\n      mstore\n      swap2\n      0x20\n      add\n      swap2\n      jump(tag_51)\n    tag_52:\n      dup3\n      add\n      swap2\n      swap1\n      0x00\n      mstore\n      keccak256(0x00, 0x20)\n      swap1\n    tag_53:\n      dup2\n      sload\n      dup2\n      mstore\n      swap1\n      0x01\n      add\n      swap1\n      0x20\n      add\n      dup1\n      dup4\n      gt\n      tag_53\n      jumpi\n      dup3\n      swap1\n      sub\n      0x1f\n      and\n      dup3\n      add\n      swap2\n    tag_51:\n      pop\n      pop\n      pop\n      pop\n      pop\n      dup2\n      mstore\n      0x20\n      add\n      0x03\n      dup3\n      add\n      dup1\n      sload\n      dup1\n      0x20\n      mul\n      0x20\n      add\n      mload(0x40)\n      swap1\n      dup2\n      add\n      0x40\n      mstore\n      dup1\n      swap3\n      swap2\n      swap1\n      dup2\n      dup2\n      mstore\n      0x20\n      add\n      0x00\n      swap1\n    tag_54:\n      dup3\n      dup3\n      lt\n      iszero\n      tag_55\n      jumpi\n      dup4\n      dup3\n      swap1\n      0x00\n      mstore\n      keccak256(0x00, 0x20)\n      add\n      dup1\n      sload\n      tag_57\n      swap1\n      tag_33\n      jump\t// in\n    tag_57:\n      dup1\n      0x1f\n      add\n      0x20\n      dup1\n      swap2\n      div\n      mul\n      0x20\n      add\n      mload(0x40)\n      swap1\n      dup2\n      add\n      0x40\n      mstore\n      dup1\n      swap3\n      swap2\n      swap1\n      dup2\n      dup2\n      mstore\n      0x20\n      add\n      dup3\n      dup1\n      sload\n      tag_58\n      swap1\n      tag_33\n      jump\t// in\n    tag_58:\n      dup1\n      iszero\n      tag_59\n      jumpi\n      dup1\n      0x1f\n      lt\n      tag_60\n      jumpi\n      0x0100\n      dup1\n      dup4\n      sload\n      div\n      mul\n      dup4\n      mstore\n      swap2\n      0x20\n      add\n      swap2\n      jump(tag_59)\n    tag_60:\n      dup3\n      add\n      swap2\n      swap1\n      0x00\n      mstore\n      keccak256(0x00, 0x20)\n      swap1\n    tag_61:\n      dup2\n      sload\n      dup2\n      mstore\n      swap1\n      0x01\n      add\n      swap1\n      0x20\n      add\n      dup1\n      dup4\n      gt\n      tag_61\n      jumpi\n      dup3\n      swap1\n      sub\n      0x1f\n      and\n      dup3\n      add\n      swap2\n    tag_59:\n      pop\n      pop\n      pop\n      pop\n      pop\n      dup2\n      mstore\n      0x20\n      add\n      swap1\n      0x01\n      add\n      swap1\n      jump(tag_54)\n    tag_55:\n      pop\n      pop\n      pop\n      pop\n      dup2\n      mstore\n      0x20\n      add\n      0x04\n      dup3\n      add\n      dup1\n      sload\n      dup1\n      0x20\n      mul\n      0x20\n      add\n      mload(0x40)\n      swap1\n      dup2\n      add\n      0x40\n      mstore\n      dup1\n      swap3\n      swap2\n      swap1\n      dup2\n      dup2\n      mstore\n      0x20\n      add\n      0x00\n      swap1\n    tag_62:\n      dup3\n      dup3\n      lt\n      iszero\n      tag_63\n      jumpi\n      dup4\n      dup3\n      swap1\n      0x00\n      mstore\n      keccak256(0x00, 0x20)\n      add\n      dup1\n      sload\n      tag_65\n      swap1\n      tag_33\n      jump\t// in\n    tag_65:\n      dup1\n      0x1f\n      add\n      0x20\n      dup1\n      swap2\n      div\n      mul\n      0x20\n      add\n      mload(0x40)\n      swap1\n      dup2\n      add\n      0x40\n      mstore\n      dup1\n      swap3\n      swap2\n      swap1\n      dup2\n      dup2\n      mstore\n      0x20\n      add\n      dup3\n      dup1\n      sload\n      tag_66\n      swap1\n      tag_33\n      jump\t// in\n    tag_66:\n      dup1\n      iszero\n      tag_67\n      jumpi\n      dup1\n      0x1f\n      lt\n      tag_68\n      jumpi\n      0x0100\n      dup1\n      dup4\n      sload\n      div\n      mul\n      dup4\n      mstore\n      swap2\n      0x20\n      add\n      swap2\n      jump(tag_67)\n    tag_68:\n      dup3\n      add\n      swap2\n      swap1\n      0x00\n      mstore\n      keccak256(0x00, 0x20)\n      swap1\n    tag_69:\n      dup2\n      sload\n      dup2\n      mstore\n      swap1\n      0x01\n      add\n      swap1\n      0x20\n      add\n      dup1\n      dup4\n      gt\n      tag_69\n      jumpi\n      dup3\n      swap1\n      sub\n      0x1f\n      and\n      dup3\n      add\n      swap2\n    tag_67:\n      pop\n      pop\n      pop\n      pop\n      pop\n      dup2\n      mstore\n      0x20\n      add\n      swap1\n      0x01\n      add\n      swap1\n      jump(tag_62)\n    tag_63:\n      pop\n      pop\n      pop\n      pop\n      dup2\n      mstore\n      0x20\n      add\n      0x05\n      dup3\n      add\n      dup1\n      sload\n      dup1\n      0x20\n      mul\n      0x20\n      add\n      mload(0x40)\n      swap1\n      dup2\n      add\n      0x40\n      mstore\n      dup1\n      swap3\n      swap2\n      swap1\n      dup2\n      dup2\n      mstore\n      0x20\n      add\n      0x00\n      swap1\n    tag_70:\n      dup3\n      dup3\n      lt\n      iszero\n      tag_71\n      jumpi\n      dup4\n      dup3\n      swap1\n      0x00\n      mstore\n      keccak256(0x00, 0x20)\n      add\n      dup1\n      sload\n      tag_73\n      swap1\n      tag_33\n      jump\t// in\n    tag_73:\n      dup1\n      0x1f\n      add\n      0x20\n      dup1\n      swap2\n      div\n      mul\n      0x20\n      add\n      mload(0x40)\n      swap1\n      dup2\n      add\n      0x40\n      mstore\n      dup1\n      swap3\n      swap2\n      swap1\n      dup2\n      dup2\n      mstore\n      0x20\n      add\n      dup3\n      dup1\n      sload\n      tag_74\n      swap1\n      tag_33\n      jump\t// in\n    tag_74:\n      dup1\n      iszero\n      tag_75\n      jumpi\n      dup1\n      0x1f\n      lt\n      tag_76\n      jumpi\n      0x0100\n      dup1\n      dup4\n      sload\n      div\n      mul\n      dup4\n      mstore\n      swap2\n      0x20\n      add\n      swap2\n      jump(tag_75)\n    tag_76:\n      dup3\n      add\n      swap2\n      swap1\n      0x00\n      mstore\n      keccak256(0x00, 0x20)\n      swap1\n    tag_77:\n      dup2\n      sload\n      dup2\n      mstore\n      swap1\n      0x01\n      add\n      swap1\n      0x20\n      add\n      dup1\n      dup4\n      gt\n      tag_77\n      jumpi\n      dup3\n      swap1\n      sub\n      0x1f\n      and\n      dup3\n      add\n      swap2\n    tag_75:\n      pop\n      pop\n      pop\n      pop\n      pop\n      dup2\n      mstore\n      0x20\n      add\n      swap1\n      0x01\n      add\n      swap1\n      jump(tag_70)\n    tag_71:\n      pop\n      pop\n      pop\n      pop\n      dup2\n      mstore\n      0x20\n      add\n      0x06\n      dup3\n      add\n      dup1\n      sload\n      dup1\n      0x20\n      mul\n      0x20\n      add\n      mload(0x40)\n      swap1\n      dup2\n      add\n      0x40\n      mstore\n      dup1\n      swap3\n      swap2\n      swap1\n      dup2\n      dup2\n      mstore\n      0x20\n      add\n      0x00\n      swap1\n    tag_78:\n      dup3\n      dup3\n      lt\n      iszero\n      tag_79\n      jumpi\n      dup4\n      dup3\n      swap1\n      0x00\n      mstore\n      keccak256(0x00, 0x20)\n      add\n      dup1\n      sload\n      tag_81\n      swap1\n      tag_33\n      jump\t// in\n    tag_81:\n      dup1\n      0x1f\n      add\n      0x20\n      dup1\n      swap2\n      div\n      mul\n      0x20\n      add\n      mload(0x40)\n      swap1\n      dup2\n      add\n      0x40\n      mstore\n      dup1\n      swap3\n      swap2\n      swap1\n      dup2\n      dup2\n      mstore\n      0x20\n      add\n      dup3\n      dup1\n      sload\n      tag_82\n      swap1\n      tag_33\n      jump\t// in\n    tag_82:\n      dup1\n      iszero\n      tag_83\n      jumpi\n      dup1\n      0x1f\n      lt\n      tag_84\n      jumpi\n      0x0100\n      dup1\n      dup4\n      sload\n      div\n      mul\n      dup4\n      mstore\n      swap2\n      0x20\n      add\n      swap2\n      jump(tag_83)\n    tag_84:\n      dup3\n      add\n      swap2\n      swap1\n      0x00\n      mstore\n      keccak256(0x00, 0x20)\n      swap1\n    tag_85:\n      dup2\n      sload\n      dup2\n      mstore\n      swap1\n      0x01\n      add\n      swap1\n      0x20\n      add\n      dup1\n      dup4\n      gt\n      tag_85\n      jumpi\n      dup3\n      swap1\n      sub\n      0x1f\n      and\n      dup3\n      add\n      swap2\n    tag_83:\n      pop\n      pop\n      pop\n      pop\n      pop\n      dup2\n      mstore\n      0x20\n      add\n      swap1\n      0x01\n      add\n      swap1\n      jump(tag_78)\n    tag_79:\n      pop\n      pop\n      pop\n      pop\n      dup2\n      mstore\n      0x20\n      add\n      0x07\n      dup3\n      add\n      dup1\n      sload\n      dup1\n      0x20\n      mul\n      0x20\n      add\n      mload(0x40)\n      swap1\n      dup2\n      add\n      0x40\n      mstore\n      dup1\n      swap3\n      swap2\n      swap1\n      dup2\n      dup2\n      mstore\n      0x20\n      add\n      0x00\n      swap1\n    tag_86:\n      dup3\n      dup3\n      lt\n      iszero\n      tag_87\n      jumpi\n      dup4\n      dup3\n      swap1\n      0x00\n      mstore\n      keccak256(0x00, 0x20)\n      add\n      dup1\n      sload\n      tag_89\n      swap1\n      tag_33\n      jump\t// in\n    tag_89:\n      dup1\n      0x1f\n      add\n      0x20\n      dup1\n      swap2\n      div\n      mul\n      0x20\n      add\n      mload(0x40)\n      swap1\n      dup2\n      add\n      0x40\n      mstore\n      dup1\n      swap3\n      swap2\n      swap1\n      dup2\n      dup2\n      mstore\n      0x20\n      add\n      dup3\n      dup1\n      sload\n      tag_90\n      swap1\n      tag_33\n      jump\t// in\n    tag_90:\n      dup1\n      iszero\n      tag_91\n      jumpi\n      dup1\n      0x1f\n      lt\n      tag_92\n      jumpi\n      0x0100\n      dup1\n      dup4\n      sload\n      div\n      mul\n      dup4\n      mstore\n      swap2\n      0x20\n      add\n      swap2\n      jump(tag_91)\n    tag_92:\n      dup3\n      add\n      swap2\n      swap1\n      0x00\n      mstore\n      keccak256(0x00, 0x20)\n      swap1\n    tag_93:\n      dup2\n      sload\n      dup2\n      mstore\n      swap1\n      0x01\n      add\n      swap1\n      0x20\n      add\n      dup1\n      dup4\n      gt\n      tag_93\n      jumpi\n      dup3\n      swap1\n      sub\n      0x1f\n      and\n      dup3\n      add\n      swap2\n    tag_91:\n      pop\n      pop\n      pop\n      pop\n      pop\n      dup2\n      mstore\n      0x20\n      add\n      swap1\n      0x01\n      add\n      swap1\n      jump(tag_86)\n    tag_87:\n      pop\n      pop\n      pop\n      pop\n      dup2\n      mstore\n      0x20\n      add\n      0x08\n      dup3\n      add\n      0x00\n      swap1\n      sload\n      swap1\n      0x0100\n      exp\n      swap1\n      div\n      0xff\n      and\n      iszero\n      iszero\n      iszero\n      iszero\n      dup2\n      mstore\n      pop\n      pop\n      swap1\n      pop\n        /* \"contracts/MedicalIndustry.sol\":2983:2987  true */\n      0x01\n        /* \"contracts/MedicalIndustry.sol\":2955:2987  patientIsAlive(msg.sender)==true */\n      iszero\n      iszero\n        /* \"contracts/MedicalIndustry.sol\":2955:2981  patientIsAlive(msg.sender) */\n      tag_94\n        /* \"contracts/MedicalIndustry.sol\":2970:2980  msg.sender */\n      caller\n        /* \"contracts/MedicalIndustry.sol\":2955:2969  patientIsAlive */\n      tag_24\n        /* \"contracts/MedicalIndustry.sol\":2955:2981  patientIsAlive(msg.sender) */\n      jump\t// in\n    tag_94:\n        /* \"contracts/MedicalIndustry.sol\":2955:2987  patientIsAlive(msg.sender)==true */\n      iszero\n      iszero\n      eq\n        /* \"contracts/MedicalIndustry.sol\":2947:3022  require(patientIsAlive(msg.sender)==true, \"Sorry! The patient is Deceased\") */\n      tag_95\n      jumpi\n      mload(0x40)\n      0x08c379a000000000000000000000000000000000000000000000000000000000\n      dup2\n      mstore\n      0x04\n      add\n      tag_96\n      swap1\n      tag_97\n      jump\t// in\n    tag_96:\n      mload(0x40)\n      dup1\n      swap2\n      sub\n      swap1\n      revert\n    tag_95:\n        /* \"contracts/MedicalIndustry.sol\":3042:3046  _age */\n      dup8\n        /* \"contracts/MedicalIndustry.sol\":3029:3036  patient */\n      dup2\n        /* \"contracts/MedicalIndustry.sol\":3029:3040  patient.age */\n      0x20\n      add\n        /* \"contracts/MedicalIndustry.sol\":3029:3046  patient.age= _age */\n      dup2\n      dup2\n      mstore\n      pop\n      pop\n        /* \"contracts/MedicalIndustry.sol\":3069:3076  _doctor */\n      dup7\n        /* \"contracts/MedicalIndustry.sol\":3053:3060  patient */\n      dup2\n        /* \"contracts/MedicalIndustry.sol\":3053:3067  patient.doctor */\n      0x60\n      add\n        /* \"contracts/MedicalIndustry.sol\":3053:3076  patient.doctor= _doctor */\n      dup2\n      swap1\n      mstore\n      pop\n        /* \"contracts/MedicalIndustry.sol\":3103:3114  _conditions */\n      dup6\n        /* \"contracts/MedicalIndustry.sol\":3083:3090  patient */\n      dup2\n        /* \"contracts/MedicalIndustry.sol\":3083:3101  patient.conditions */\n      0x80\n      add\n        /* \"contracts/MedicalIndustry.sol\":3083:3114  patient.conditions= _conditions */\n      dup2\n      swap1\n      mstore\n      pop\n        /* \"contracts/MedicalIndustry.sol\":3142:3154  _departments */\n      dup5\n        /* \"contracts/MedicalIndustry.sol\":3121:3128  patient */\n      dup2\n        /* \"contracts/MedicalIndustry.sol\":3121:3140  patient.departments */\n      0xa0\n      add\n        /* \"contracts/MedicalIndustry.sol\":3121:3154  patient.departments= _departments */\n      dup2\n      swap1\n      mstore\n      pop\n        /* \"contracts/MedicalIndustry.sol\":3181:3192  _procedures */\n      dup4\n        /* \"contracts/MedicalIndustry.sol\":3161:3168  patient */\n      dup2\n        /* \"contracts/MedicalIndustry.sol\":3161:3179  patient.procedures */\n      0xc0\n      add\n        /* \"contracts/MedicalIndustry.sol\":3161:3192  patient.procedures= _procedures */\n      dup2\n      swap1\n      mstore\n      pop\n        /* \"contracts/MedicalIndustry.sol\":3220:3231  _medication */\n      dup3\n        /* \"contracts/MedicalIndustry.sol\":3199:3206  patient */\n      dup2\n        /* \"contracts/MedicalIndustry.sol\":3199:3218  patient.medications */\n      0xe0\n      add\n        /* \"contracts/MedicalIndustry.sol\":3199:3231  patient.medications= _medication */\n      dup2\n      swap1\n      mstore\n      pop\n        /* \"contracts/MedicalIndustry.sol\":3255:3263  _isAlive */\n      dup2\n        /* \"contracts/MedicalIndustry.sol\":3238:3245  patient */\n      dup2\n        /* \"contracts/MedicalIndustry.sol\":3238:3253  patient.isAlive */\n      0x0100\n      add\n        /* \"contracts/MedicalIndustry.sol\":3238:3263  patient.isAlive= _isAlive */\n      swap1\n      iszero\n      iszero\n      swap1\n      dup2\n      iszero\n      iszero\n      dup2\n      mstore\n      pop\n      pop\n        /* \"contracts/MedicalIndustry.sol\":2815:3268  {... */\n      pop\n        /* \"contracts/MedicalIndustry.sol\":2570:3268  function updatePatient(... */\n      pop\n      pop\n      pop\n      pop\n      pop\n      pop\n      pop\n      jump\t// out\n        /* \"contracts/MedicalIndustry.sol\":559:1428  function addPatient(... */\n    tag_21:\n        /* \"contracts/MedicalIndustry.sol\":879:901  Patient memory patient */\n      0x00\n        /* \"contracts/MedicalIndustry.sol\":904:1204  Patient({... */\n      mload(0x40)\n      dup1\n      0x0120\n      add\n      0x40\n      mstore\n      dup1\n        /* \"contracts/MedicalIndustry.sol\":932:937  _name */\n      dup11\n        /* \"contracts/MedicalIndustry.sol\":904:1204  Patient({... */\n      dup2\n      mstore\n      0x20\n      add\n        /* \"contracts/MedicalIndustry.sol\":956:960  _age */\n      dup10\n        /* \"contracts/MedicalIndustry.sol\":904:1204  Patient({... */\n      dup2\n      mstore\n      0x20\n      add\n        /* \"contracts/MedicalIndustry.sol\":982:989  _gender */\n      dup9\n        /* \"contracts/MedicalIndustry.sol\":904:1204  Patient({... */\n      dup2\n      mstore\n      0x20\n      add\n        /* \"contracts/MedicalIndustry.sol\":1011:1018  _doctor */\n      dup8\n        /* \"contracts/MedicalIndustry.sol\":904:1204  Patient({... */\n      dup2\n      mstore\n      0x20\n      add\n        /* \"contracts/MedicalIndustry.sol\":1044:1055  _conditions */\n      dup7\n        /* \"contracts/MedicalIndustry.sol\":904:1204  Patient({... */\n      dup2\n      mstore\n      0x20\n      add\n        /* \"contracts/MedicalIndustry.sol\":1082:1094  _departments */\n      dup6\n        /* \"contracts/MedicalIndustry.sol\":904:1204  Patient({... */\n      dup2\n      mstore\n      0x20\n      add\n        /* \"contracts/MedicalIndustry.sol\":1120:1131  _procedures */\n      dup5\n        /* \"contracts/MedicalIndustry.sol\":904:1204  Patient({... */\n      dup2\n      mstore\n      0x20\n      add\n        /* \"contracts/MedicalIndustry.sol\":1158:1169  _medication */\n      dup4\n        /* \"contracts/MedicalIndustry.sol\":904:1204  Patient({... */\n      dup2\n      mstore\n      0x20\n      add\n        /* \"contracts/MedicalIndustry.sol\":1192:1196  true */\n      0x01\n        /* \"contracts/MedicalIndustry.sol\":904:1204  Patient({... */\n      iszero\n      iszero\n      dup2\n      mstore\n      pop\n        /* \"contracts/MedicalIndustry.sol\":879:1204  Patient memory patient = Patient({... */\n      swap1\n      pop\n        /* \"contracts/MedicalIndustry.sol\":1413:1420  patient */\n      dup1\n        /* \"contracts/MedicalIndustry.sol\":1389:1400  patientData */\n      0x00\n        /* \"contracts/MedicalIndustry.sol\":1389:1412  patientData[msg.sender] */\n      dup1\n        /* \"contracts/MedicalIndustry.sol\":1401:1411  msg.sender */\n      caller\n        /* \"contracts/MedicalIndustry.sol\":1389:1412  patientData[msg.sender] */\n      0xffffffffffffffffffffffffffffffffffffffff\n      and\n      0xffffffffffffffffffffffffffffffffffffffff\n      and\n      dup2\n      mstore\n      0x20\n      add\n      swap1\n      dup2\n      mstore\n      0x20\n      add\n      0x00\n      keccak256\n        /* \"contracts/MedicalIndustry.sol\":1389:1420  patientData[msg.sender]=patient */\n      0x00\n      dup3\n      add\n      mload\n      dup2\n      0x00\n      add\n      swap1\n      dup2\n      tag_99\n      swap2\n      swap1\n      tag_100\n      jump\t// in\n    tag_99:\n      pop\n      0x20\n      dup3\n      add\n      mload\n      dup2\n      0x01\n      add\n      sstore\n      0x40\n      dup3\n      add\n      mload\n      dup2\n      0x02\n      add\n      swap1\n      dup2\n      tag_101\n      swap2\n      swap1\n      tag_100\n      jump\t// in\n    tag_101:\n      pop\n      0x60\n      dup3\n      add\n      mload\n      dup2\n      0x03\n      add\n      swap1\n      dup1\n      mload\n      swap1\n      0x20\n      add\n      swap1\n      tag_102\n      swap3\n      swap2\n      swap1\n      tag_103\n      jump\t// in\n    tag_102:\n      pop\n      0x80\n      dup3\n      add\n      mload\n      dup2\n      0x04\n      add\n      swap1\n      dup1\n      mload\n      swap1\n      0x20\n      add\n      swap1\n      tag_104\n      swap3\n      swap2\n      swap1\n      tag_103\n      jump\t// in\n    tag_104:\n      pop\n      0xa0\n      dup3\n      add\n      mload\n      dup2\n      0x05\n      add\n      swap1\n      dup1\n      mload\n      swap1\n      0x20\n      add\n      swap1\n      tag_105\n      swap3\n      swap2\n      swap1\n      tag_103\n      jump\t// in\n    tag_105:\n      pop\n      0xc0\n      dup3\n      add\n      mload\n      dup2\n      0x06\n      add\n      swap1\n      dup1\n      mload\n      swap1\n      0x20\n      add\n      swap1\n      tag_106\n      swap3\n      swap2\n      swap1\n      tag_103\n      jump\t// in\n    tag_106:\n      pop\n      0xe0\n      dup3\n      add\n      mload\n      dup2\n      0x07\n      add\n      swap1\n      dup1\n      mload\n      swap1\n      0x20\n      add\n      swap1\n      tag_107\n      swap3\n      swap2\n      swap1\n      tag_103\n      jump\t// in\n    tag_107:\n      pop\n      0x0100\n      dup3\n      add\n      mload\n      dup2\n      0x08\n      add\n      exp(0x0100, 0x00)\n      dup2\n      sload\n      dup2\n      0xff\n      mul\n      not\n      and\n      swap1\n      dup4\n      iszero\n      iszero\n      mul\n      or\n      swap1\n      sstore\n      pop\n      swap1\n      pop\n      pop\n        /* \"contracts/MedicalIndustry.sol\":866:1428  {  ... */\n      pop\n        /* \"contracts/MedicalIndustry.sol\":559:1428  function addPatient(... */\n      pop\n      pop\n      pop\n      pop\n      pop\n      pop\n      pop\n      pop\n      jump\t// out\n        /* \"contracts/MedicalIndustry.sol\":2329:2525  function patientIsAlive(address _addr)public view returns(bool){... */\n    tag_24:\n        /* \"contracts/MedicalIndustry.sol\":2387:2391  bool */\n      0x00\n        /* \"contracts/MedicalIndustry.sol\":2399:2421  Patient memory patient */\n      dup1\n        /* \"contracts/MedicalIndustry.sol\":2422:2433  patientData */\n      0x00\n        /* \"contracts/MedicalIndustry.sol\":2422:2440  patientData[_addr] */\n      dup1\n        /* \"contracts/MedicalIndustry.sol\":2434:2439  _addr */\n      dup5\n        /* \"contracts/MedicalIndustry.sol\":2422:2440  patientData[_addr] */\n      0xffffffffffffffffffffffffffffffffffffffff\n      and\n      0xffffffffffffffffffffffffffffffffffffffff\n      and\n      dup2\n      mstore\n      0x20\n      add\n      swap1\n      dup2\n      mstore\n      0x20\n      add\n      0x00\n      keccak256\n        /* \"contracts/MedicalIndustry.sol\":2399:2440  Patient memory patient=patientData[_addr] */\n      mload(0x40)\n      dup1\n      0x0120\n      add\n      0x40\n      mstore\n      swap1\n      dup2\n      0x00\n      dup3\n      add\n      dup1\n      sload\n      tag_109\n      swap1\n      tag_33\n      jump\t// in\n    tag_109:\n      dup1\n      0x1f\n      add\n      0x20\n      dup1\n      swap2\n      div\n      mul\n      0x20\n      add\n      mload(0x40)\n      swap1\n      dup2\n      add\n      0x40\n      mstore\n      dup1\n      swap3\n      swap2\n      swap1\n      dup2\n      dup2\n      mstore\n      0x20\n      add\n      dup3\n      dup1\n      sload\n      tag_110\n      swap1\n      tag_33\n      jump\t// in\n    tag_110:\n      dup1\n      iszero\n      tag_111\n      jumpi\n      dup1\n      0x1f\n      lt\n      tag_112\n      jumpi\n      0x0100\n      dup1\n      dup4\n      sload\n      div\n      mul\n      dup4\n      mstore\n      swap2\n      0x20\n      add\n      swap2\n      jump(tag_111)\n    tag_112:\n      dup3\n      add\n      swap2\n      swap1\n      0x00\n      mstore\n      keccak256(0x00, 0x20)\n      swap1\n    tag_113:\n      dup2\n      sload\n      dup2\n      mstore\n      swap1\n      0x01\n      add\n      swap1\n      0x20\n      add\n      dup1\n      dup4\n      gt\n      tag_113\n      jumpi\n      dup3\n      swap1\n      sub\n      0x1f\n      and\n      dup3\n      add\n      swap2\n    tag_111:\n      pop\n      pop\n      pop\n      pop\n      pop\n      dup2\n      mstore\n      0x20\n      add\n      0x01\n      dup3\n      add\n      sload\n      dup2\n      mstore\n      0x20\n      add\n      0x02\n      dup3\n      add\n      dup1\n      sload\n      tag_114\n      swap1\n      tag_33\n      jump\t// in\n    tag_114:\n      dup1\n      0x1f\n      add\n      0x20\n      dup1\n      swap2\n      div\n      mul\n      0x20\n      add\n      mload(0x40)\n      swap1\n      dup2\n      add\n      0x40\n      mstore\n      dup1\n      swap3\n      swap2\n      swap1\n      dup2\n      dup2\n      mstore\n      0x20\n      add\n      dup3\n      dup1\n      sload\n      tag_115\n      swap1\n      tag_33\n      jump\t// in\n    tag_115:\n      dup1\n      iszero\n      tag_116\n      jumpi\n      dup1\n      0x1f\n      lt\n      tag_117\n      jumpi\n      0x0100\n      dup1\n      dup4\n      sload\n      div\n      mul\n      dup4\n      mstore\n      swap2\n      0x20\n      add\n      swap2\n      jump(tag_116)\n    tag_117:\n      dup3\n      add\n      swap2\n      swap1\n      0x00\n      mstore\n      keccak256(0x00, 0x20)\n      swap1\n    tag_118:\n      dup2\n      sload\n      dup2\n      mstore\n      swap1\n      0x01\n      add\n      swap1\n      0x20\n      add\n      dup1\n      dup4\n      gt\n      tag_118\n      jumpi\n      dup3\n      swap1\n      sub\n      0x1f\n      and\n      dup3\n      add\n      swap2\n    tag_116:\n      pop\n      pop\n      pop\n      pop\n      pop\n      dup2\n      mstore\n      0x20\n      add\n      0x03\n      dup3\n      add\n      dup1\n      sload\n      dup1\n      0x20\n      mul\n      0x20\n      add\n      mload(0x40)\n      swap1\n      dup2\n      add\n      0x40\n      mstore\n      dup1\n      swap3\n      swap2\n      swap1\n      dup2\n      dup2\n      mstore\n      0x20\n      add\n      0x00\n      swap1\n    tag_119:\n      dup3\n      dup3\n      lt\n      iszero\n      tag_120\n      jumpi\n      dup4\n      dup3\n      swap1\n      0x00\n      mstore\n      keccak256(0x00, 0x20)\n      add\n      dup1\n      sload\n      tag_122\n      swap1\n      tag_33\n      jump\t// in\n    tag_122:\n      dup1\n      0x1f\n      add\n      0x20\n      dup1\n      swap2\n      div\n      mul\n      0x20\n      add\n      mload(0x40)\n      swap1\n      dup2\n      add\n      0x40\n      mstore\n      dup1\n      swap3\n      swap2\n      swap1\n      dup2\n      dup2\n      mstore\n      0x20\n      add\n      dup3\n      dup1\n      sload\n      tag_123\n      swap1\n      tag_33\n      jump\t// in\n    tag_123:\n      dup1\n      iszero\n      tag_124\n      jumpi\n      dup1\n      0x1f\n      lt\n      tag_125\n      jumpi\n      0x0100\n      dup1\n      dup4\n      sload\n      div\n      mul\n      dup4\n      mstore\n      swap2\n      0x20\n      add\n      swap2\n      jump(tag_124)\n    tag_125:\n      dup3\n      add\n      swap2\n      swap1\n      0x00\n      mstore\n      keccak256(0x00, 0x20)\n      swap1\n    tag_126:\n      dup2\n      sload\n      dup2\n      mstore\n      swap1\n      0x01\n      add\n      swap1\n      0x20\n      add\n      dup1\n      dup4\n      gt\n      tag_126\n      jumpi\n      dup3\n      swap1\n      sub\n      0x1f\n      and\n      dup3\n      add\n      swap2\n    tag_124:\n      pop\n      pop\n      pop\n      pop\n      pop\n      dup2\n      mstore\n      0x20\n      add\n      swap1\n      0x01\n      add\n      swap1\n      jump(tag_119)\n    tag_120:\n      pop\n      pop\n      pop\n      pop\n      dup2\n      mstore\n      0x20\n      add\n      0x04\n      dup3\n      add\n      dup1\n      sload\n      dup1\n      0x20\n      mul\n      0x20\n      add\n      mload(0x40)\n      swap1\n      dup2\n      add\n      0x40\n      mstore\n      dup1\n      swap3\n      swap2\n      swap1\n      dup2\n      dup2\n      mstore\n      0x20\n      add\n      0x00\n      swap1\n    tag_127:\n      dup3\n      dup3\n      lt\n      iszero\n      tag_128\n      jumpi\n      dup4\n      dup3\n      swap1\n      0x00\n      mstore\n      keccak256(0x00, 0x20)\n      add\n      dup1\n      sload\n      tag_130\n      swap1\n      tag_33\n      jump\t// in\n    tag_130:\n      dup1\n      0x1f\n      add\n      0x20\n      dup1\n      swap2\n      div\n      mul\n      0x20\n      add\n      mload(0x40)\n      swap1\n      dup2\n      add\n      0x40\n      mstore\n      dup1\n      swap3\n      swap2\n      swap1\n      dup2\n      dup2\n      mstore\n      0x20\n      add\n      dup3\n      dup1\n      sload\n      tag_131\n      swap1\n      tag_33\n      jump\t// in\n    tag_131:\n      dup1\n      iszero\n      tag_132\n      jumpi\n      dup1\n      0x1f\n      lt\n      tag_133\n      jumpi\n      0x0100\n      dup1\n      dup4\n      sload\n      div\n      mul\n      dup4\n      mstore\n      swap2\n      0x20\n      add\n      swap2\n      jump(tag_132)\n    tag_133:\n      dup3\n      add\n      swap2\n      swap1\n      0x00\n      mstore\n      keccak256(0x00, 0x20)\n      swap1\n    tag_134:\n      dup2\n      sload\n      dup2\n      mstore\n      swap1\n      0x01\n      add\n      swap1\n      0x20\n      add\n      dup1\n      dup4\n      gt\n      tag_134\n      jumpi\n      dup3\n      swap1\n      sub\n      0x1f\n      and\n      dup3\n      add\n      swap2\n    tag_132:\n      pop\n      pop\n      pop\n      pop\n      pop\n      dup2\n      mstore\n      0x20\n      add\n      swap1\n      0x01\n      add\n      swap1\n      jump(tag_127)\n    tag_128:\n      pop\n      pop\n      pop\n      pop\n      dup2\n      mstore\n      0x20\n      add\n      0x05\n      dup3\n      add\n      dup1\n      sload\n      dup1\n      0x20\n      mul\n      0x20\n      add\n      mload(0x40)\n      swap1\n      dup2\n      add\n      0x40\n      mstore\n      dup1\n      swap3\n      swap2\n      swap1\n      dup2\n      dup2\n      mstore\n      0x20\n      add\n      0x00\n      swap1\n    tag_135:\n      dup3\n      dup3\n      lt\n      iszero\n      tag_136\n      jumpi\n      dup4\n      dup3\n      swap1\n      0x00\n      mstore\n      keccak256(0x00, 0x20)\n      add\n      dup1\n      sload\n      tag_138\n      swap1\n      tag_33\n      jump\t// in\n    tag_138:\n      dup1\n      0x1f\n      add\n      0x20\n      dup1\n      swap2\n      div\n      mul\n      0x20\n      add\n      mload(0x40)\n      swap1\n      dup2\n      add\n      0x40\n      mstore\n      dup1\n      swap3\n      swap2\n      swap1\n      dup2\n      dup2\n      mstore\n      0x20\n      add\n      dup3\n      dup1\n      sload\n      tag_139\n      swap1\n      tag_33\n      jump\t// in\n    tag_139:\n      dup1\n      iszero\n      tag_140\n      jumpi\n      dup1\n      0x1f\n      lt\n      tag_141\n      jumpi\n      0x0100\n      dup1\n      dup4\n      sload\n      div\n      mul\n      dup4\n      mstore\n      swap2\n      0x20\n      add\n      swap2\n      jump(tag_140)\n    tag_141:\n      dup3\n      add\n      swap2\n      swap1\n      0x00\n      mstore\n      keccak256(0x00, 0x20)\n      swap1\n    tag_142:\n      dup2\n      sload\n      dup2\n      mstore\n      swap1\n      0x01\n      add\n      swap1\n      0x20\n      add\n      dup1\n      dup4\n      gt\n      tag_142\n      jumpi\n      dup3\n      swap1\n      sub\n      0x1f\n      and\n      dup3\n      add\n      swap2\n    tag_140:\n      pop\n      pop\n      pop\n      pop\n      pop\n      dup2\n      mstore\n      0x20\n      add\n      swap1\n      0x01\n      add\n      swap1\n      jump(tag_135)\n    tag_136:\n      pop\n      pop\n      pop\n      pop\n      dup2\n      mstore\n      0x20\n      add\n      0x06\n      dup3\n      add\n      dup1\n      sload\n      dup1\n      0x20\n      mul\n      0x20\n      add\n      mload(0x40)\n      swap1\n      dup2\n      add\n      0x40\n      mstore\n      dup1\n      swap3\n      swap2\n      swap1\n      dup2\n      dup2\n      mstore\n      0x20\n      add\n      0x00\n      swap1\n    tag_143:\n      dup3\n      dup3\n      lt\n      iszero\n      tag_144\n      jumpi\n      dup4\n      dup3\n      swap1\n      0x00\n      mstore\n      keccak256(0x00, 0x20)\n      add\n      dup1\n      sload\n      tag_146\n      swap1\n      tag_33\n      jump\t// in\n    tag_146:\n      dup1\n      0x1f\n      add\n      0x20\n      dup1\n      swap2\n      div\n      mul\n      0x20\n      add\n      mload(0x40)\n      swap1\n      dup2\n      add\n      0x40\n      mstore\n      dup1\n      swap3\n      swap2\n      swap1\n      dup2\n      dup2\n      mstore\n      0x20\n      add\n      dup3\n      dup1\n      sload\n      tag_147\n      swap1\n      tag_33\n      jump\t// in\n    tag_147:\n      dup1\n      iszero\n      tag_148\n      jumpi\n      dup1\n      0x1f\n      lt\n      tag_149\n      jumpi\n      0x0100\n      dup1\n      dup4\n      sload\n      div\n      mul\n      dup4\n      mstore\n      swap2\n      0x20\n      add\n      swap2\n      jump(tag_148)\n    tag_149:\n      dup3\n      add\n      swap2\n      swap1\n      0x00\n      mstore\n      keccak256(0x00, 0x20)\n      swap1\n    tag_150:\n      dup2\n      sload\n      dup2\n      mstore\n      swap1\n      0x01\n      add\n      swap1\n      0x20\n      add\n      dup1\n      dup4\n      gt\n      tag_150\n      jumpi\n      dup3\n      swap1\n      sub\n      0x1f\n      and\n      dup3\n      add\n      swap2\n    tag_148:\n      pop\n      pop\n      pop\n      pop\n      pop\n      dup2\n      mstore\n      0x20\n      add\n      swap1\n      0x01\n      add\n      swap1\n      jump(tag_143)\n    tag_144:\n      pop\n      pop\n      pop\n      pop\n      dup2\n      mstore\n      0x20\n      add\n      0x07\n      dup3\n      add\n      dup1\n      sload\n      dup1\n      0x20\n      mul\n      0x20\n      add\n      mload(0x40)\n      swap1\n      dup2\n      add\n      0x40\n      mstore\n      dup1\n      swap3\n      swap2\n      swap1\n      dup2\n      dup2\n      mstore\n      0x20\n      add\n      0x00\n      swap1\n    tag_151:\n      dup3\n      dup3\n      lt\n      iszero\n      tag_152\n      jumpi\n      dup4\n      dup3\n      swap1\n      0x00\n      mstore\n      keccak256(0x00, 0x20)\n      add\n      dup1\n      sload\n      tag_154\n      swap1\n      tag_33\n      jump\t// in\n    tag_154:\n      dup1\n      0x1f\n      add\n      0x20\n      dup1\n      swap2\n      div\n      mul\n      0x20\n      add\n      mload(0x40)\n      swap1\n      dup2\n      add\n      0x40\n      mstore\n      dup1\n      swap3\n      swap2\n      swap1\n      dup2\n      dup2\n      mstore\n      0x20\n      add\n      dup3\n      dup1\n      sload\n      tag_155\n      swap1\n      tag_33\n      jump\t// in\n    tag_155:\n      dup1\n      iszero\n      tag_156\n      jumpi\n      dup1\n      0x1f\n      lt\n      tag_157\n      jumpi\n      0x0100\n      dup1\n      dup4\n      sload\n      div\n      mul\n      dup4\n      mstore\n      swap2\n      0x20\n      add\n      swap2\n      jump(tag_156)\n    tag_157:\n      dup3\n      add\n      swap2\n      swap1\n      0x00\n      mstore\n      keccak256(0x00, 0x20)\n      swap1\n    tag_158:\n      dup2\n      sload\n      dup2\n      mstore\n      swap1\n      0x01\n      add\n      swap1\n      0x20\n      add\n      dup1\n      dup4\n      gt\n      tag_158\n      jumpi\n      dup3\n      swap1\n      sub\n      0x1f\n      and\n      dup3\n      add\n      swap2\n    tag_156:\n      pop\n      pop\n      pop\n      pop\n      pop\n      dup2\n      mstore\n      0x20\n      add\n      swap1\n      0x01\n      add\n      swap1\n      jump(tag_151)\n    tag_152:\n      pop\n      pop\n      pop\n      pop\n      dup2\n      mstore\n      0x20\n      add\n      0x08\n      dup3\n      add\n      0x00\n      swap1\n      sload\n      swap1\n      0x0100\n      exp\n      swap1\n      div\n      0xff\n      and\n      iszero\n      iszero\n      iszero\n      iszero\n      dup2\n      mstore\n      pop\n      pop\n      swap1\n      pop\n        /* \"contracts/MedicalIndustry.sol\":2467:2471  true */\n      0x01\n        /* \"contracts/MedicalIndustry.sol\":2450:2471  patient.isAlive==true */\n      iszero\n      iszero\n        /* \"contracts/MedicalIndustry.sol\":2450:2457  patient */\n      dup2\n        /* \"contracts/MedicalIndustry.sol\":2450:2465  patient.isAlive */\n      0x0100\n      add\n      mload\n        /* \"contracts/MedicalIndustry.sol\":2450:2471  patient.isAlive==true */\n      iszero\n      iszero\n      sub\n        /* \"contracts/MedicalIndustry.sol\":2447:2519  if(patient.isAlive==true)... */\n      tag_159\n      jumpi\n        /* \"contracts/MedicalIndustry.sol\":2485:2489  true */\n      0x01\n        /* \"contracts/MedicalIndustry.sol\":2478:2489  return true */\n      swap2\n      pop\n      pop\n      jump(tag_108)\n        /* \"contracts/MedicalIndustry.sol\":2447:2519  if(patient.isAlive==true)... */\n    tag_159:\n        /* \"contracts/MedicalIndustry.sol\":2514:2519  false */\n      0x00\n        /* \"contracts/MedicalIndustry.sol\":2507:2519  return false */\n      swap2\n      pop\n      pop\n        /* \"contracts/MedicalIndustry.sol\":2329:2525  function patientIsAlive(address _addr)public view returns(bool){... */\n    tag_108:\n      swap2\n      swap1\n      pop\n      jump\t// out\n        /* \"contracts/MedicalIndustry.sol\":1477:2040  function getPatient(address  _patientAddr)public view returns(... */\n    tag_29:\n        /* \"contracts/MedicalIndustry.sol\":1545:1558  string memory */\n      0x60\n        /* \"contracts/MedicalIndustry.sol\":1565:1572  uint256 */\n      0x00\n        /* \"contracts/MedicalIndustry.sol\":1579:1592  string memory */\n      0x60\n        /* \"contracts/MedicalIndustry.sol\":1599:1614  string[] memory */\n      dup1\n        /* \"contracts/MedicalIndustry.sol\":1621:1636  string[] memory */\n      0x60\n        /* \"contracts/MedicalIndustry.sol\":1643:1658  string[] memory */\n      dup1\n        /* \"contracts/MedicalIndustry.sol\":1665:1680  string[] memory */\n      0x60\n        /* \"contracts/MedicalIndustry.sol\":1687:1702  string[] memory */\n      dup1\n        /* \"contracts/MedicalIndustry.sol\":1709:1713  bool */\n      0x00\n        /* \"contracts/MedicalIndustry.sol\":1725:1747  Patient memory patient */\n      dup1\n        /* \"contracts/MedicalIndustry.sol\":1750:1761  patientData */\n      0x00\n        /* \"contracts/MedicalIndustry.sol\":1750:1775  patientData[_patientAddr] */\n      dup1\n        /* \"contracts/MedicalIndustry.sol\":1762:1774  _patientAddr */\n      dup13\n        /* \"contracts/MedicalIndustry.sol\":1750:1775  patientData[_patientAddr] */\n      0xffffffffffffffffffffffffffffffffffffffff\n      and\n      0xffffffffffffffffffffffffffffffffffffffff\n      and\n      dup2\n      mstore\n      0x20\n      add\n      swap1\n      dup2\n      mstore\n      0x20\n      add\n      0x00\n      keccak256\n        /* \"contracts/MedicalIndustry.sol\":1725:1775  Patient memory patient = patientData[_patientAddr] */\n      mload(0x40)\n      dup1\n      0x0120\n      add\n      0x40\n      mstore\n      swap1\n      dup2\n      0x00\n      dup3\n      add\n      dup1\n      sload\n      tag_162\n      swap1\n      tag_33\n      jump\t// in\n    tag_162:\n      dup1\n      0x1f\n      add\n      0x20\n      dup1\n      swap2\n      div\n      mul\n      0x20\n      add\n      mload(0x40)\n      swap1\n      dup2\n      add\n      0x40\n      mstore\n      dup1\n      swap3\n      swap2\n      swap1\n      dup2\n      dup2\n      mstore\n      0x20\n      add\n      dup3\n      dup1\n      sload\n      tag_163\n      swap1\n      tag_33\n      jump\t// in\n    tag_163:\n      dup1\n      iszero\n      tag_164\n      jumpi\n      dup1\n      0x1f\n      lt\n      tag_165\n      jumpi\n      0x0100\n      dup1\n      dup4\n      sload\n      div\n      mul\n      dup4\n      mstore\n      swap2\n      0x20\n      add\n      swap2\n      jump(tag_164)\n    tag_165:\n      dup3\n      add\n      swap2\n      swap1\n      0x00\n      mstore\n      keccak256(0x00, 0x20)\n      swap1\n    tag_166:\n      dup2\n      sload\n      dup2\n      mstore\n      swap1\n      0x01\n      add\n      swap1\n      0x20\n      add\n      dup1\n      dup4\n      gt\n      tag_166\n      jumpi\n      dup3\n      swap1\n      sub\n      0x1f\n      and\n      dup3\n      add\n      swap2\n    tag_164:\n      pop\n      pop\n      pop\n      pop\n      pop\n      dup2\n      mstore\n      0x20\n      add\n      0x01\n      dup3\n      add\n      sload\n      dup2\n      mstore\n      0x20\n      add\n      0x02\n      dup3\n      add\n      dup1\n      sload\n      tag_167\n      swap1\n      tag_33\n      jump\t// in\n    tag_167:\n      dup1\n      0x1f\n      add\n      0x20\n      dup1\n      swap2\n      div\n      mul\n      0x20\n      add\n      mload(0x40)\n      swap1\n      dup2\n      add\n      0x40\n      mstore\n      dup1\n      swap3\n      swap2\n      swap1\n      dup2\n      dup2\n      mstore\n      0x20\n      add\n      dup3\n      dup1\n      sload\n      tag_168\n      swap1\n      tag_33\n      jump\t// in\n    tag_168:\n      dup1\n      iszero\n      tag_169\n      jumpi\n      dup1\n      0x1f\n      lt\n      tag_170\n      jumpi\n      0x0100\n      dup1\n      dup4\n      sload\n      div\n      mul\n      dup4\n      mstore\n      swap2\n      0x20\n      add\n      swap2\n      jump(tag_169)\n    tag_170:\n      dup3\n      add\n      swap2\n      swap1\n      0x00\n      mstore\n      keccak256(0x00, 0x20)\n      swap1\n    tag_171:\n      dup2\n      sload\n      dup2\n      mstore\n      swap1\n      0x01\n      add\n      swap1\n      0x20\n      add\n      dup1\n      dup4\n      gt\n      tag_171\n      jumpi\n      dup3\n      swap1\n      sub\n      0x1f\n      and\n      dup3\n      add\n      swap2\n    tag_169:\n      pop\n      pop\n      pop\n      pop\n      pop\n      dup2\n      mstore\n      0x20\n      add\n      0x03\n      dup3\n      add\n      dup1\n      sload\n      dup1\n      0x20\n      mul\n      0x20\n      add\n      mload(0x40)\n      swap1\n      dup2\n      add\n      0x40\n      mstore\n      dup1\n      swap3\n      swap2\n      swap1\n      dup2\n      dup2\n      mstore\n      0x20\n      add\n      0x00\n      swap1\n    tag_172:\n      dup3\n      dup3\n      lt\n      iszero\n      tag_173\n      jumpi\n      dup4\n      dup3\n      swap1\n      0x00\n      mstore\n      keccak256(0x00, 0x20)\n      add\n      dup1\n      sload\n      tag_175\n      swap1\n      tag_33\n      jump\t// in\n    tag_175:\n      dup1\n      0x1f\n      add\n      0x20\n      dup1\n      swap2\n      div\n      mul\n      0x20\n      add\n      mload(0x40)\n      swap1\n      dup2\n      add\n      0x40\n      mstore\n      dup1\n      swap3\n      swap2\n      swap1\n      dup2\n      dup2\n      mstore\n      0x20\n      add\n      dup3\n      dup1\n      sload\n      tag_176\n      swap1\n      tag_33\n      jump\t// in\n    tag_176:\n      dup1\n      iszero\n      tag_177\n      jumpi\n      dup1\n      0x1f\n      lt\n      tag_178\n      jumpi\n      0x0100\n      dup1\n      dup4\n      sload\n      div\n      mul\n      dup4\n      mstore\n      swap2\n      0x20\n      add\n      swap2\n      jump(tag_177)\n    tag_178:\n      dup3\n      add\n      swap2\n      swap1\n      0x00\n      mstore\n      keccak256(0x00, 0x20)\n      swap1\n    tag_179:\n      dup2\n      sload\n      dup2\n      mstore\n      swap1\n      0x01\n      add\n      swap1\n      0x20\n      add\n      dup1\n      dup4\n      gt\n      tag_179\n      jumpi\n      dup3\n      swap1\n      sub\n      0x1f\n      and\n      dup3\n      add\n      swap2\n    tag_177:\n      pop\n      pop\n      pop\n      pop\n      pop\n      dup2\n      mstore\n      0x20\n      add\n      swap1\n      0x01\n      add\n      swap1\n      jump(tag_172)\n    tag_173:\n      pop\n      pop\n      pop\n      pop\n      dup2\n      mstore\n      0x20\n      add\n      0x04\n      dup3\n      add\n      dup1\n      sload\n      dup1\n      0x20\n      mul\n      0x20\n      add\n      mload(0x40)\n      swap1\n      dup2\n      add\n      0x40\n      mstore\n      dup1\n      swap3\n      swap2\n      swap1\n      dup2\n      dup2\n      mstore\n      0x20\n      add\n      0x00\n      swap1\n    tag_180:\n      dup3\n      dup3\n      lt\n      iszero\n      tag_181\n      jumpi\n      dup4\n      dup3\n      swap1\n      0x00\n      mstore\n      keccak256(0x00, 0x20)\n      add\n      dup1\n      sload\n      tag_183\n      swap1\n      tag_33\n      jump\t// in\n    tag_183:\n      dup1\n      0x1f\n      add\n      0x20\n      dup1\n      swap2\n      div\n      mul\n      0x20\n      add\n      mload(0x40)\n      swap1\n      dup2\n      add\n      0x40\n      mstore\n      dup1\n      swap3\n      swap2\n      swap1\n      dup2\n      dup2\n      mstore\n      0x20\n      add\n      dup3\n      dup1\n      sload\n      tag_184\n      swap1\n      tag_33\n      jump\t// in\n    tag_184:\n      dup1\n      iszero\n      tag_185\n      jumpi\n      dup1\n      0x1f\n      lt\n      tag_186\n      jumpi\n      0x0100\n      dup1\n      dup4\n      sload\n      div\n      mul\n      dup4\n      mstore\n      swap2\n      0x20\n      add\n      swap2\n      jump(tag_185)\n    tag_186:\n      dup3\n      add\n      swap2\n      swap1\n      0x00\n      mstore\n      keccak256(0x00, 0x20)\n      swap1\n    tag_187:\n      dup2\n      sload\n      dup2\n      mstore\n      swap1\n      0x01\n      add\n      swap1\n      0x20\n      add\n      dup1\n      dup4\n      gt\n      tag_187\n      jumpi\n      dup3\n      swap1\n      sub\n      0x1f\n      and\n      dup3\n      add\n      swap2\n    tag_185:\n      pop\n      pop\n      pop\n      pop\n      pop\n      dup2\n      mstore\n      0x20\n      add\n      swap1\n      0x01\n      add\n      swap1\n      jump(tag_180)\n    tag_181:\n      pop\n      pop\n      pop\n      pop\n      dup2\n      mstore\n      0x20\n      add\n      0x05\n      dup3\n      add\n      dup1\n      sload\n      dup1\n      0x20\n      mul\n      0x20\n      add\n      mload(0x40)\n      swap1\n      dup2\n      add\n      0x40\n      mstore\n      dup1\n      swap3\n      swap2\n      swap1\n      dup2\n      dup2\n      mstore\n      0x20\n      add\n      0x00\n      swap1\n    tag_188:\n      dup3\n      dup3\n      lt\n      iszero\n      tag_189\n      jumpi\n      dup4\n      dup3\n      swap1\n      0x00\n      mstore\n      keccak256(0x00, 0x20)\n      add\n      dup1\n      sload\n      tag_191\n      swap1\n      tag_33\n      jump\t// in\n    tag_191:\n      dup1\n      0x1f\n      add\n      0x20\n      dup1\n      swap2\n      div\n      mul\n      0x20\n      add\n      mload(0x40)\n      swap1\n      dup2\n      add\n      0x40\n      mstore\n      dup1\n      swap3\n      swap2\n      swap1\n      dup2\n      dup2\n      mstore\n      0x20\n      add\n      dup3\n      dup1\n      sload\n      tag_192\n      swap1\n      tag_33\n      jump\t// in\n    tag_192:\n      dup1\n      iszero\n      tag_193\n      jumpi\n      dup1\n      0x1f\n      lt\n      tag_194\n      jumpi\n      0x0100\n      dup1\n      dup4\n      sload\n      div\n      mul\n      dup4\n      mstore\n      swap2\n      0x20\n      add\n      swap2\n      jump(tag_193)\n    tag_194:\n      dup3\n      add\n      swap2\n      swap1\n      0x00\n      mstore\n      keccak256(0x00, 0x20)\n      swap1\n    tag_195:\n      dup2\n      sload\n      dup2\n      mstore\n      swap1\n      0x01\n      add\n      swap1\n      0x20\n      add\n      dup1\n      dup4\n      gt\n      tag_195\n      jumpi\n      dup3\n      swap1\n      sub\n      0x1f\n      and\n      dup3\n      add\n      swap2\n    tag_193:\n      pop\n      pop\n      pop\n      pop\n      pop\n      dup2\n      mstore\n      0x20\n      add\n      swap1\n      0x01\n      add\n      swap1\n      jump(tag_188)\n    tag_189:\n      pop\n      pop\n      pop\n      pop\n      dup2\n      mstore\n      0x20\n      add\n      0x06\n      dup3\n      add\n      dup1\n      sload\n      dup1\n      0x20\n      mul\n      0x20\n      add\n      mload(0x40)\n      swap1\n      dup2\n      add\n      0x40\n      mstore\n      dup1\n      swap3\n      swap2\n      swap1\n      dup2\n      dup2\n      mstore\n      0x20\n      add\n      0x00\n      swap1\n    tag_196:\n      dup3\n      dup3\n      lt\n      iszero\n      tag_197\n      jumpi\n      dup4\n      dup3\n      swap1\n      0x00\n      mstore\n      keccak256(0x00, 0x20)\n      add\n      dup1\n      sload\n      tag_199\n      swap1\n      tag_33\n      jump\t// in\n    tag_199:\n      dup1\n      0x1f\n      add\n      0x20\n      dup1\n      swap2\n      div\n      mul\n      0x20\n      add\n      mload(0x40)\n      swap1\n      dup2\n      add\n      0x40\n      mstore\n      dup1\n      swap3\n      swap2\n      swap1\n      dup2\n      dup2\n      mstore\n      0x20\n      add\n      dup3\n      dup1\n      sload\n      tag_200\n      swap1\n      tag_33\n      jump\t// in\n    tag_200:\n      dup1\n      iszero\n      tag_201\n      jumpi\n      dup1\n      0x1f\n      lt\n      tag_202\n      jumpi\n      0x0100\n      dup1\n      dup4\n      sload\n      div\n      mul\n      dup4\n      mstore\n      swap2\n      0x20\n      add\n      swap2\n      jump(tag_201)\n    tag_202:\n      dup3\n      add\n      swap2\n      swap1\n      0x00\n      mstore\n      keccak256(0x00, 0x20)\n      swap1\n    tag_203:\n      dup2\n      sload\n      dup2\n      mstore\n      swap1\n      0x01\n      add\n      swap1\n      0x20\n      add\n      dup1\n      dup4\n      gt\n      tag_203\n      jumpi\n      dup3\n      swap1\n      sub\n      0x1f\n      and\n      dup3\n      add\n      swap2\n    tag_201:\n      pop\n      pop\n      pop\n      pop\n      pop\n      dup2\n      mstore\n      0x20\n      add\n      swap1\n      0x01\n      add\n      swap1\n      jump(tag_196)\n    tag_197:\n      pop\n      pop\n      pop\n      pop\n      dup2\n      mstore\n      0x20\n      add\n      0x07\n      dup3\n      add\n      dup1\n      sload\n      dup1\n      0x20\n      mul\n      0x20\n      add\n      mload(0x40)\n      swap1\n      dup2\n      add\n      0x40\n      mstore\n      dup1\n      swap3\n      swap2\n      swap1\n      dup2\n      dup2\n      mstore\n      0x20\n      add\n      0x00\n      swap1\n    tag_204:\n      dup3\n      dup3\n      lt\n      iszero\n      tag_205\n      jumpi\n      dup4\n      dup3\n      swap1\n      0x00\n      mstore\n      keccak256(0x00, 0x20)\n      add\n      dup1\n      sload\n      tag_207\n      swap1\n      tag_33\n      jump\t// in\n    tag_207:\n      dup1\n      0x1f\n      add\n      0x20\n      dup1\n      swap2\n      div\n      mul\n      0x20\n      add\n      mload(0x40)\n      swap1\n      dup2\n      add\n      0x40\n      mstore\n      dup1\n      swap3\n      swap2\n      swap1\n      dup2\n      dup2\n      mstore\n      0x20\n      add\n      dup3\n      dup1\n      sload\n      tag_208\n      swap1\n      tag_33\n      jump\t// in\n    tag_208:\n      dup1\n      iszero\n      tag_209\n      jumpi\n      dup1\n      0x1f\n      lt\n      tag_210\n      jumpi\n      0x0100\n      dup1\n      dup4\n      sload\n      div\n      mul\n      dup4\n      mstore\n      swap2\n      0x20\n      add\n      swap2\n      jump(tag_209)\n    tag_210:\n      dup3\n      add\n      swap2\n      swap1\n      0x00\n      mstore\n      keccak256(0x00, 0x20)\n      swap1\n    tag_211:\n      dup2\n      sload\n      dup2\n      mstore\n      swap1\n      0x01\n      add\n      swap1\n      0x20\n      add\n      dup1\n      dup4\n      gt\n      tag_211\n      jumpi\n      dup3\n      swap1\n      sub\n      0x1f\n      and\n      dup3\n      add\n      swap2\n    tag_209:\n      pop\n      pop\n      pop\n      pop\n      pop\n      dup2\n      mstore\n      0x20\n      add\n      swap1\n      0x01\n      add\n      swap1\n      jump(tag_204)\n    tag_205:\n      pop\n      pop\n      pop\n      pop\n      dup2\n      mstore\n      0x20\n      add\n      0x08\n      dup3\n      add\n      0x00\n      swap1\n      sload\n      swap1\n      0x0100\n      exp\n      swap1\n      div\n      0xff\n      and\n      iszero\n      iszero\n      iszero\n      iszero\n      dup2\n      mstore\n      pop\n      pop\n      swap1\n      pop\n        /* \"contracts/MedicalIndustry.sol\":1800:1807  patient */\n      dup1\n        /* \"contracts/MedicalIndustry.sol\":1800:1812  patient.name */\n      0x00\n      add\n      mload\n        /* \"contracts/MedicalIndustry.sol\":1823:1830  patient */\n      dup2\n        /* \"contracts/MedicalIndustry.sol\":1823:1834  patient.age */\n      0x20\n      add\n      mload\n        /* \"contracts/MedicalIndustry.sol\":1845:1852  patient */\n      dup3\n        /* \"contracts/MedicalIndustry.sol\":1845:1859  patient.gender */\n      0x40\n      add\n      mload\n        /* \"contracts/MedicalIndustry.sol\":1870:1877  patient */\n      dup4\n        /* \"contracts/MedicalIndustry.sol\":1870:1884  patient.doctor */\n      0x60\n      add\n      mload\n        /* \"contracts/MedicalIndustry.sol\":1895:1902  patient */\n      dup5\n        /* \"contracts/MedicalIndustry.sol\":1895:1913  patient.conditions */\n      0x80\n      add\n      mload\n        /* \"contracts/MedicalIndustry.sol\":1924:1931  patient */\n      dup6\n        /* \"contracts/MedicalIndustry.sol\":1924:1942  patient.procedures */\n      0xc0\n      add\n      mload\n        /* \"contracts/MedicalIndustry.sol\":1953:1960  patient */\n      dup7\n        /* \"contracts/MedicalIndustry.sol\":1953:1972  patient.departments */\n      0xa0\n      add\n      mload\n        /* \"contracts/MedicalIndustry.sol\":1983:1990  patient */\n      dup8\n        /* \"contracts/MedicalIndustry.sol\":1983:2002  patient.medications */\n      0xe0\n      add\n      mload\n        /* \"contracts/MedicalIndustry.sol\":2013:2020  patient */\n      dup9\n        /* \"contracts/MedicalIndustry.sol\":2013:2028  patient.isAlive */\n      0x0100\n      add\n      mload\n        /* \"contracts/MedicalIndustry.sol\":1782:2035  return (... */\n      swap10\n      pop\n      swap10\n      pop\n      swap10\n      pop\n      swap10\n      pop\n      swap10\n      pop\n      swap10\n      pop\n      swap10\n      pop\n      swap10\n      pop\n      swap10\n      pop\n      pop\n        /* \"contracts/MedicalIndustry.sol\":1477:2040  function getPatient(address  _patientAddr)public view returns(... */\n      swap2\n      swap4\n      swap6\n      swap8\n      swap10\n      swap1\n      swap3\n      swap5\n      swap7\n      swap9\n      pop\n      jump\t// out\n    tag_103:\n      dup3\n      dup1\n      sload\n      dup3\n      dup3\n      sstore\n      swap1\n      0x00\n      mstore\n      keccak256(0x00, 0x20)\n      swap1\n      dup2\n      add\n      swap3\n      dup3\n      iszero\n      tag_212\n      jumpi\n      swap2\n      0x20\n      mul\n      dup3\n      add\n    tag_213:\n      dup3\n      dup2\n      gt\n      iszero\n      tag_214\n      jumpi\n      dup3\n      mload\n      dup3\n      swap1\n      dup2\n      tag_215\n      swap2\n      swap1\n      tag_100\n      jump\t// in\n    tag_215:\n      pop\n      swap2\n      0x20\n      add\n      swap2\n      swap1\n      0x01\n      add\n      swap1\n      jump(tag_213)\n    tag_214:\n    tag_212:\n      pop\n      swap1\n      pop\n      tag_216\n      swap2\n      swap1\n      tag_217\n      jump\t// in\n    tag_216:\n      pop\n      swap1\n      jump\t// out\n    tag_217:\n    tag_218:\n      dup1\n      dup3\n      gt\n      iszero\n      tag_219\n      jumpi\n      0x00\n      dup2\n      dup2\n      tag_220\n      swap2\n      swap1\n      tag_221\n      jump\t// in\n    tag_220:\n      pop\n      0x01\n      add\n      jump(tag_218)\n    tag_219:\n      pop\n      swap1\n      jump\t// out\n    tag_221:\n      pop\n      dup1\n      sload\n      tag_222\n      swap1\n      tag_33\n      jump\t// in\n    tag_222:\n      0x00\n      dup3\n      sstore\n      dup1\n      0x1f\n      lt\n      tag_224\n      jumpi\n      pop\n      jump(tag_223)\n    tag_224:\n      0x1f\n      add\n      0x20\n      swap1\n      div\n      swap1\n      0x00\n      mstore\n      keccak256(0x00, 0x20)\n      swap1\n      dup2\n      add\n      swap1\n      tag_225\n      swap2\n      swap1\n      tag_226\n      jump\t// in\n    tag_225:\n    tag_223:\n      pop\n      jump\t// out\n    tag_226:\n    tag_227:\n      dup1\n      dup3\n      gt\n      iszero\n      tag_228\n      jumpi\n      0x00\n      dup2\n      0x00\n      swap1\n      sstore\n      pop\n      0x01\n      add\n      jump(tag_227)\n    tag_228:\n      pop\n      swap1\n      jump\t// out\n        /* \"#utility.yul\":7:82   */\n    tag_229:\n        /* \"#utility.yul\":40:46   */\n      0x00\n        /* \"#utility.yul\":73:75   */\n      0x40\n        /* \"#utility.yul\":67:76   */\n      mload\n        /* \"#utility.yul\":57:76   */\n      swap1\n      pop\n        /* \"#utility.yul\":7:82   */\n      swap1\n      jump\t// out\n        /* \"#utility.yul\":88:205   */\n    tag_230:\n        /* \"#utility.yul\":197:198   */\n      0x00\n        /* \"#utility.yul\":194:195   */\n      dup1\n        /* \"#utility.yul\":187:199   */\n      revert\n        /* \"#utility.yul\":211:328   */\n    tag_231:\n        /* \"#utility.yul\":320:321   */\n      0x00\n        /* \"#utility.yul\":317:318   */\n      dup1\n        /* \"#utility.yul\":310:322   */\n      revert\n        /* \"#utility.yul\":334:460   */\n    tag_232:\n        /* \"#utility.yul\":371:378   */\n      0x00\n        /* \"#utility.yul\":411:453   */\n      0xffffffffffffffffffffffffffffffffffffffff\n        /* \"#utility.yul\":404:409   */\n      dup3\n        /* \"#utility.yul\":400:454   */\n      and\n        /* \"#utility.yul\":389:454   */\n      swap1\n      pop\n        /* \"#utility.yul\":334:460   */\n      swap2\n      swap1\n      pop\n      jump\t// out\n        /* \"#utility.yul\":466:562   */\n    tag_233:\n        /* \"#utility.yul\":503:510   */\n      0x00\n        /* \"#utility.yul\":532:556   */\n      tag_294\n        /* \"#utility.yul\":550:555   */\n      dup3\n        /* \"#utility.yul\":532:556   */\n      tag_232\n      jump\t// in\n    tag_294:\n        /* \"#utility.yul\":521:556   */\n      swap1\n      pop\n        /* \"#utility.yul\":466:562   */\n      swap2\n      swap1\n      pop\n      jump\t// out\n        /* \"#utility.yul\":568:690   */\n    tag_234:\n        /* \"#utility.yul\":641:665   */\n      tag_296\n        /* \"#utility.yul\":659:664   */\n      dup2\n        /* \"#utility.yul\":641:665   */\n      tag_233\n      jump\t// in\n    tag_296:\n        /* \"#utility.yul\":634:639   */\n      dup2\n        /* \"#utility.yul\":631:666   */\n      eq\n        /* \"#utility.yul\":621:684   */\n      tag_297\n      jumpi\n        /* \"#utility.yul\":680:681   */\n      0x00\n        /* \"#utility.yul\":677:678   */\n      dup1\n        /* \"#utility.yul\":670:682   */\n      revert\n        /* \"#utility.yul\":621:684   */\n    tag_297:\n        /* \"#utility.yul\":568:690   */\n      pop\n      jump\t// out\n        /* \"#utility.yul\":696:835   */\n    tag_235:\n        /* \"#utility.yul\":742:747   */\n      0x00\n        /* \"#utility.yul\":780:786   */\n      dup2\n        /* \"#utility.yul\":767:787   */\n      calldataload\n        /* \"#utility.yul\":758:787   */\n      swap1\n      pop\n        /* \"#utility.yul\":796:829   */\n      tag_299\n        /* \"#utility.yul\":823:828   */\n      dup2\n        /* \"#utility.yul\":796:829   */\n      tag_234\n      jump\t// in\n    tag_299:\n        /* \"#utility.yul\":696:835   */\n      swap3\n      swap2\n      pop\n      pop\n      jump\t// out\n        /* \"#utility.yul\":841:1170   */\n    tag_10:\n        /* \"#utility.yul\":900:906   */\n      0x00\n        /* \"#utility.yul\":949:951   */\n      0x20\n        /* \"#utility.yul\":937:946   */\n      dup3\n        /* \"#utility.yul\":928:935   */\n      dup5\n        /* \"#utility.yul\":924:947   */\n      sub\n        /* \"#utility.yul\":920:952   */\n      slt\n        /* \"#utility.yul\":917:1036   */\n      iszero\n      tag_301\n      jumpi\n        /* \"#utility.yul\":955:1034   */\n      tag_302\n      tag_230\n      jump\t// in\n    tag_302:\n        /* \"#utility.yul\":917:1036   */\n    tag_301:\n        /* \"#utility.yul\":1075:1076   */\n      0x00\n        /* \"#utility.yul\":1100:1153   */\n      tag_303\n        /* \"#utility.yul\":1145:1152   */\n      dup5\n        /* \"#utility.yul\":1136:1142   */\n      dup3\n        /* \"#utility.yul\":1125:1134   */\n      dup6\n        /* \"#utility.yul\":1121:1143   */\n      add\n        /* \"#utility.yul\":1100:1153   */\n      tag_235\n      jump\t// in\n    tag_303:\n        /* \"#utility.yul\":1090:1153   */\n      swap2\n      pop\n        /* \"#utility.yul\":1046:1163   */\n      pop\n        /* \"#utility.yul\":841:1170   */\n      swap3\n      swap2\n      pop\n      pop\n      jump\t// out\n        /* \"#utility.yul\":1176:1275   */\n    tag_236:\n        /* \"#utility.yul\":1228:1234   */\n      0x00\n        /* \"#utility.yul\":1262:1267   */\n      dup2\n        /* \"#utility.yul\":1256:1268   */\n      mload\n        /* \"#utility.yul\":1246:1268   */\n      swap1\n      pop\n        /* \"#utility.yul\":1176:1275   */\n      swap2\n      swap1\n      pop\n      jump\t// out\n        /* \"#utility.yul\":1281:1450   */\n    tag_237:\n        /* \"#utility.yul\":1365:1376   */\n      0x00\n        /* \"#utility.yul\":1399:1405   */\n      dup3\n        /* \"#utility.yul\":1394:1397   */\n      dup3\n        /* \"#utility.yul\":1387:1406   */\n      mstore\n        /* \"#utility.yul\":1439:1443   */\n      0x20\n        /* \"#utility.yul\":1434:1437   */\n      dup3\n        /* \"#utility.yul\":1430:1444   */\n      add\n        /* \"#utility.yul\":1415:1444   */\n      swap1\n      pop\n        /* \"#utility.yul\":1281:1450   */\n      swap3\n      swap2\n      pop\n      pop\n      jump\t// out\n        /* \"#utility.yul\":1456:1702   */\n    tag_238:\n        /* \"#utility.yul\":1537:1538   */\n      0x00\n        /* \"#utility.yul\":1547:1660   */\n    tag_307:\n        /* \"#utility.yul\":1561:1567   */\n      dup4\n        /* \"#utility.yul\":1558:1559   */\n      dup2\n        /* \"#utility.yul\":1555:1568   */\n      lt\n        /* \"#utility.yul\":1547:1660   */\n      iszero\n      tag_309\n      jumpi\n        /* \"#utility.yul\":1646:1647   */\n      dup1\n        /* \"#utility.yul\":1641:1644   */\n      dup3\n        /* \"#utility.yul\":1637:1648   */\n      add\n        /* \"#utility.yul\":1631:1649   */\n      mload\n        /* \"#utility.yul\":1627:1628   */\n      dup2\n        /* \"#utility.yul\":1622:1625   */\n      dup5\n        /* \"#utility.yul\":1618:1629   */\n      add\n        /* \"#utility.yul\":1611:1650   */\n      mstore\n        /* \"#utility.yul\":1583:1585   */\n      0x20\n        /* \"#utility.yul\":1580:1581   */\n      dup2\n        /* \"#utility.yul\":1576:1586   */\n      add\n        /* \"#utility.yul\":1571:1586   */\n      swap1\n      pop\n        /* \"#utility.yul\":1547:1660   */\n      jump(tag_307)\n    tag_309:\n        /* \"#utility.yul\":1694:1695   */\n      0x00\n        /* \"#utility.yul\":1685:1691   */\n      dup5\n        /* \"#utility.yul\":1680:1683   */\n      dup5\n        /* \"#utility.yul\":1676:1692   */\n      add\n        /* \"#utility.yul\":1669:1696   */\n      mstore\n        /* \"#utility.yul\":1518:1702   */\n      pop\n        /* \"#utility.yul\":1456:1702   */\n      pop\n      pop\n      pop\n      jump\t// out\n        /* \"#utility.yul\":1708:1810   */\n    tag_239:\n        /* \"#utility.yul\":1749:1755   */\n      0x00\n        /* \"#utility.yul\":1800:1802   */\n      0x1f\n        /* \"#utility.yul\":1796:1803   */\n      not\n        /* \"#utility.yul\":1791:1793   */\n      0x1f\n        /* \"#utility.yul\":1784:1789   */\n      dup4\n        /* \"#utility.yul\":1780:1794   */\n      add\n        /* \"#utility.yul\":1776:1804   */\n      and\n        /* \"#utility.yul\":1766:1804   */\n      swap1\n      pop\n        /* \"#utility.yul\":1708:1810   */\n      swap2\n      swap1\n      pop\n      jump\t// out\n        /* \"#utility.yul\":1816:2193   */\n    tag_240:\n        /* \"#utility.yul\":1904:1907   */\n      0x00\n        /* \"#utility.yul\":1932:1971   */\n      tag_312\n        /* \"#utility.yul\":1965:1970   */\n      dup3\n        /* \"#utility.yul\":1932:1971   */\n      tag_236\n      jump\t// in\n    tag_312:\n        /* \"#utility.yul\":1987:2058   */\n      tag_313\n        /* \"#utility.yul\":2051:2057   */\n      dup2\n        /* \"#utility.yul\":2046:2049   */\n      dup6\n        /* \"#utility.yul\":1987:2058   */\n      tag_237\n      jump\t// in\n    tag_313:\n        /* \"#utility.yul\":1980:2058   */\n      swap4\n      pop\n        /* \"#utility.yul\":2067:2132   */\n      tag_314\n        /* \"#utility.yul\":2125:2131   */\n      dup2\n        /* \"#utility.yul\":2120:2123   */\n      dup6\n        /* \"#utility.yul\":2113:2117   */\n      0x20\n        /* \"#utility.yul\":2106:2111   */\n      dup7\n        /* \"#utility.yul\":2102:2118   */\n      add\n        /* \"#utility.yul\":2067:2132   */\n      tag_238\n      jump\t// in\n    tag_314:\n        /* \"#utility.yul\":2157:2186   */\n      tag_315\n        /* \"#utility.yul\":2179:2185   */\n      dup2\n        /* \"#utility.yul\":2157:2186   */\n      tag_239\n      jump\t// in\n    tag_315:\n        /* \"#utility.yul\":2152:2155   */\n      dup5\n        /* \"#utility.yul\":2148:2187   */\n      add\n        /* \"#utility.yul\":2141:2187   */\n      swap2\n      pop\n        /* \"#utility.yul\":1908:2193   */\n      pop\n        /* \"#utility.yul\":1816:2193   */\n      swap3\n      swap2\n      pop\n      pop\n      jump\t// out\n        /* \"#utility.yul\":2199:2276   */\n    tag_241:\n        /* \"#utility.yul\":2236:2243   */\n      0x00\n        /* \"#utility.yul\":2265:2270   */\n      dup2\n        /* \"#utility.yul\":2254:2270   */\n      swap1\n      pop\n        /* \"#utility.yul\":2199:2276   */\n      swap2\n      swap1\n      pop\n      jump\t// out\n        /* \"#utility.yul\":2282:2400   */\n    tag_242:\n        /* \"#utility.yul\":2369:2393   */\n      tag_318\n        /* \"#utility.yul\":2387:2392   */\n      dup2\n        /* \"#utility.yul\":2369:2393   */\n      tag_241\n      jump\t// in\n    tag_318:\n        /* \"#utility.yul\":2364:2367   */\n      dup3\n        /* \"#utility.yul\":2357:2394   */\n      mstore\n        /* \"#utility.yul\":2282:2400   */\n      pop\n      pop\n      jump\t// out\n        /* \"#utility.yul\":2406:2496   */\n    tag_243:\n        /* \"#utility.yul\":2440:2447   */\n      0x00\n        /* \"#utility.yul\":2483:2488   */\n      dup2\n        /* \"#utility.yul\":2476:2489   */\n      iszero\n        /* \"#utility.yul\":2469:2490   */\n      iszero\n        /* \"#utility.yul\":2458:2490   */\n      swap1\n      pop\n        /* \"#utility.yul\":2406:2496   */\n      swap2\n      swap1\n      pop\n      jump\t// out\n        /* \"#utility.yul\":2502:2611   */\n    tag_244:\n        /* \"#utility.yul\":2583:2604   */\n      tag_321\n        /* \"#utility.yul\":2598:2603   */\n      dup2\n        /* \"#utility.yul\":2583:2604   */\n      tag_243\n      jump\t// in\n    tag_321:\n        /* \"#utility.yul\":2578:2581   */\n      dup3\n        /* \"#utility.yul\":2571:2605   */\n      mstore\n        /* \"#utility.yul\":2502:2611   */\n      pop\n      pop\n      jump\t// out\n        /* \"#utility.yul\":2617:3340   */\n    tag_13:\n        /* \"#utility.yul\":2828:2832   */\n      0x00\n        /* \"#utility.yul\":2866:2869   */\n      0x80\n        /* \"#utility.yul\":2855:2864   */\n      dup3\n        /* \"#utility.yul\":2851:2870   */\n      add\n        /* \"#utility.yul\":2843:2870   */\n      swap1\n      pop\n        /* \"#utility.yul\":2916:2925   */\n      dup2\n        /* \"#utility.yul\":2910:2914   */\n      dup2\n        /* \"#utility.yul\":2906:2926   */\n      sub\n        /* \"#utility.yul\":2902:2903   */\n      0x00\n        /* \"#utility.yul\":2891:2900   */\n      dup4\n        /* \"#utility.yul\":2887:2904   */\n      add\n        /* \"#utility.yul\":2880:2927   */\n      mstore\n        /* \"#utility.yul\":2944:3022   */\n      tag_323\n        /* \"#utility.yul\":3017:3021   */\n      dup2\n        /* \"#utility.yul\":3008:3014   */\n      dup8\n        /* \"#utility.yul\":2944:3022   */\n      tag_240\n      jump\t// in\n    tag_323:\n        /* \"#utility.yul\":2936:3022   */\n      swap1\n      pop\n        /* \"#utility.yul\":3032:3104   */\n      tag_324\n        /* \"#utility.yul\":3100:3102   */\n      0x20\n        /* \"#utility.yul\":3089:3098   */\n      dup4\n        /* \"#utility.yul\":3085:3103   */\n      add\n        /* \"#utility.yul\":3076:3082   */\n      dup7\n        /* \"#utility.yul\":3032:3104   */\n      tag_242\n      jump\t// in\n    tag_324:\n        /* \"#utility.yul\":3151:3160   */\n      dup2\n        /* \"#utility.yul\":3145:3149   */\n      dup2\n        /* \"#utility.yul\":3141:3161   */\n      sub\n        /* \"#utility.yul\":3136:3138   */\n      0x40\n        /* \"#utility.yul\":3125:3134   */\n      dup4\n        /* \"#utility.yul\":3121:3139   */\n      add\n        /* \"#utility.yul\":3114:3162   */\n      mstore\n        /* \"#utility.yul\":3179:3257   */\n      tag_325\n        /* \"#utility.yul\":3252:3256   */\n      dup2\n        /* \"#utility.yul\":3243:3249   */\n      dup6\n        /* \"#utility.yul\":3179:3257   */\n      tag_240\n      jump\t// in\n    tag_325:\n        /* \"#utility.yul\":3171:3257   */\n      swap1\n      pop\n        /* \"#utility.yul\":3267:3333   */\n      tag_326\n        /* \"#utility.yul\":3329:3331   */\n      0x60\n        /* \"#utility.yul\":3318:3327   */\n      dup4\n        /* \"#utility.yul\":3314:3332   */\n      add\n        /* \"#utility.yul\":3305:3311   */\n      dup5\n        /* \"#utility.yul\":3267:3333   */\n      tag_244\n      jump\t// in\n    tag_326:\n        /* \"#utility.yul\":2617:3340   */\n      swap6\n      swap5\n      pop\n      pop\n      pop\n      pop\n      pop\n      jump\t// out\n        /* \"#utility.yul\":3346:3468   */\n    tag_245:\n        /* \"#utility.yul\":3419:3443   */\n      tag_328\n        /* \"#utility.yul\":3437:3442   */\n      dup2\n        /* \"#utility.yul\":3419:3443   */\n      tag_241\n      jump\t// in\n    tag_328:\n        /* \"#utility.yul\":3412:3417   */\n      dup2\n        /* \"#utility.yul\":3409:3444   */\n      eq\n        /* \"#utility.yul\":3399:3462   */\n      tag_329\n      jumpi\n        /* \"#utility.yul\":3458:3459   */\n      0x00\n        /* \"#utility.yul\":3455:3456   */\n      dup1\n        /* \"#utility.yul\":3448:3460   */\n      revert\n        /* \"#utility.yul\":3399:3462   */\n    tag_329:\n        /* \"#utility.yul\":3346:3468   */\n      pop\n      jump\t// out\n        /* \"#utility.yul\":3474:3613   */\n    tag_246:\n        /* \"#utility.yul\":3520:3525   */\n      0x00\n        /* \"#utility.yul\":3558:3564   */\n      dup2\n        /* \"#utility.yul\":3545:3565   */\n      calldataload\n        /* \"#utility.yul\":3536:3565   */\n      swap1\n      pop\n        /* \"#utility.yul\":3574:3607   */\n      tag_331\n        /* \"#utility.yul\":3601:3606   */\n      dup2\n        /* \"#utility.yul\":3574:3607   */\n      tag_245\n      jump\t// in\n    tag_331:\n        /* \"#utility.yul\":3474:3613   */\n      swap3\n      swap2\n      pop\n      pop\n      jump\t// out\n        /* \"#utility.yul\":3619:3736   */\n    tag_247:\n        /* \"#utility.yul\":3728:3729   */\n      0x00\n        /* \"#utility.yul\":3725:3726   */\n      dup1\n        /* \"#utility.yul\":3718:3730   */\n      revert\n        /* \"#utility.yul\":3742:3922   */\n    tag_248:\n        /* \"#utility.yul\":3790:3867   */\n      0x4e487b7100000000000000000000000000000000000000000000000000000000\n        /* \"#utility.yul\":3787:3788   */\n      0x00\n        /* \"#utility.yul\":3780:3868   */\n      mstore\n        /* \"#utility.yul\":3887:3891   */\n      0x41\n        /* \"#utility.yul\":3884:3885   */\n      0x04\n        /* \"#utility.yul\":3877:3892   */\n      mstore\n        /* \"#utility.yul\":3911:3915   */\n      0x24\n        /* \"#utility.yul\":3908:3909   */\n      0x00\n        /* \"#utility.yul\":3901:3916   */\n      revert\n        /* \"#utility.yul\":3928:4209   */\n    tag_249:\n        /* \"#utility.yul\":4011:4038   */\n      tag_335\n        /* \"#utility.yul\":4033:4037   */\n      dup3\n        /* \"#utility.yul\":4011:4038   */\n      tag_239\n      jump\t// in\n    tag_335:\n        /* \"#utility.yul\":4003:4009   */\n      dup2\n        /* \"#utility.yul\":3999:4039   */\n      add\n        /* \"#utility.yul\":4141:4147   */\n      dup2\n        /* \"#utility.yul\":4129:4139   */\n      dup2\n        /* \"#utility.yul\":4126:4148   */\n      lt\n        /* \"#utility.yul\":4105:4123   */\n      0xffffffffffffffff\n        /* \"#utility.yul\":4093:4103   */\n      dup3\n        /* \"#utility.yul\":4090:4124   */\n      gt\n        /* \"#utility.yul\":4087:4149   */\n      or\n        /* \"#utility.yul\":4084:4172   */\n      iszero\n      tag_336\n      jumpi\n        /* \"#utility.yul\":4152:4170   */\n      tag_337\n      tag_248\n      jump\t// in\n    tag_337:\n        /* \"#utility.yul\":4084:4172   */\n    tag_336:\n        /* \"#utility.yul\":4192:4202   */\n      dup1\n        /* \"#utility.yul\":4188:4190   */\n      0x40\n        /* \"#utility.yul\":4181:4203   */\n      mstore\n        /* \"#utility.yul\":3971:4209   */\n      pop\n        /* \"#utility.yul\":3928:4209   */\n      pop\n      pop\n      jump\t// out\n        /* \"#utility.yul\":4215:4344   */\n    tag_250:\n        /* \"#utility.yul\":4249:4255   */\n      0x00\n        /* \"#utility.yul\":4276:4296   */\n      tag_339\n      tag_229\n      jump\t// in\n    tag_339:\n        /* \"#utility.yul\":4266:4296   */\n      swap1\n      pop\n        /* \"#utility.yul\":4305:4338   */\n      tag_340\n        /* \"#utility.yul\":4333:4337   */\n      dup3\n        /* \"#utility.yul\":4325:4331   */\n      dup3\n        /* \"#utility.yul\":4305:4338   */\n      tag_249\n      jump\t// in\n    tag_340:\n        /* \"#utility.yul\":4215:4344   */\n      swap2\n      swap1\n      pop\n      jump\t// out\n        /* \"#utility.yul\":4350:4671   */\n    tag_251:\n        /* \"#utility.yul\":4437:4441   */\n      0x00\n        /* \"#utility.yul\":4527:4545   */\n      0xffffffffffffffff\n        /* \"#utility.yul\":4519:4525   */\n      dup3\n        /* \"#utility.yul\":4516:4546   */\n      gt\n        /* \"#utility.yul\":4513:4569   */\n      iszero\n      tag_342\n      jumpi\n        /* \"#utility.yul\":4549:4567   */\n      tag_343\n      tag_248\n      jump\t// in\n    tag_343:\n        /* \"#utility.yul\":4513:4569   */\n    tag_342:\n        /* \"#utility.yul\":4599:4603   */\n      0x20\n        /* \"#utility.yul\":4591:4597   */\n      dup3\n        /* \"#utility.yul\":4587:4604   */\n      mul\n        /* \"#utility.yul\":4579:4604   */\n      swap1\n      pop\n        /* \"#utility.yul\":4659:4663   */\n      0x20\n        /* \"#utility.yul\":4653:4657   */\n      dup2\n        /* \"#utility.yul\":4649:4664   */\n      add\n        /* \"#utility.yul\":4641:4664   */\n      swap1\n      pop\n        /* \"#utility.yul\":4350:4671   */\n      swap2\n      swap1\n      pop\n      jump\t// out\n        /* \"#utility.yul\":4677:4794   */\n    tag_252:\n        /* \"#utility.yul\":4786:4787   */\n      0x00\n        /* \"#utility.yul\":4783:4784   */\n      dup1\n        /* \"#utility.yul\":4776:4788   */\n      revert\n        /* \"#utility.yul\":4800:4917   */\n    tag_253:\n        /* \"#utility.yul\":4909:4910   */\n      0x00\n        /* \"#utility.yul\":4906:4907   */\n      dup1\n        /* \"#utility.yul\":4899:4911   */\n      revert\n        /* \"#utility.yul\":4923:5231   */\n    tag_254:\n        /* \"#utility.yul\":4985:4989   */\n      0x00\n        /* \"#utility.yul\":5075:5093   */\n      0xffffffffffffffff\n        /* \"#utility.yul\":5067:5073   */\n      dup3\n        /* \"#utility.yul\":5064:5094   */\n      gt\n        /* \"#utility.yul\":5061:5117   */\n      iszero\n      tag_347\n      jumpi\n        /* \"#utility.yul\":5097:5115   */\n      tag_348\n      tag_248\n      jump\t// in\n    tag_348:\n        /* \"#utility.yul\":5061:5117   */\n    tag_347:\n        /* \"#utility.yul\":5135:5164   */\n      tag_349\n        /* \"#utility.yul\":5157:5163   */\n      dup3\n        /* \"#utility.yul\":5135:5164   */\n      tag_239\n      jump\t// in\n    tag_349:\n        /* \"#utility.yul\":5127:5164   */\n      swap1\n      pop\n        /* \"#utility.yul\":5219:5223   */\n      0x20\n        /* \"#utility.yul\":5213:5217   */\n      dup2\n        /* \"#utility.yul\":5209:5224   */\n      add\n        /* \"#utility.yul\":5201:5224   */\n      swap1\n      pop\n        /* \"#utility.yul\":4923:5231   */\n      swap2\n      swap1\n      pop\n      jump\t// out\n        /* \"#utility.yul\":5237:5383   */\n    tag_255:\n        /* \"#utility.yul\":5334:5340   */\n      dup3\n        /* \"#utility.yul\":5329:5332   */\n      dup2\n        /* \"#utility.yul\":5324:5327   */\n      dup4\n        /* \"#utility.yul\":5311:5341   */\n      calldatacopy\n        /* \"#utility.yul\":5375:5376   */\n      0x00\n        /* \"#utility.yul\":5366:5372   */\n      dup4\n        /* \"#utility.yul\":5361:5364   */\n      dup4\n        /* \"#utility.yul\":5357:5373   */\n      add\n        /* \"#utility.yul\":5350:5377   */\n      mstore\n        /* \"#utility.yul\":5237:5383   */\n      pop\n      pop\n      pop\n      jump\t// out\n        /* \"#utility.yul\":5389:5814   */\n    tag_256:\n        /* \"#utility.yul\":5467:5472   */\n      0x00\n        /* \"#utility.yul\":5492:5558   */\n      tag_352\n        /* \"#utility.yul\":5508:5557   */\n      tag_353\n        /* \"#utility.yul\":5550:5556   */\n      dup5\n        /* \"#utility.yul\":5508:5557   */\n      tag_254\n      jump\t// in\n    tag_353:\n        /* \"#utility.yul\":5492:5558   */\n      tag_250\n      jump\t// in\n    tag_352:\n        /* \"#utility.yul\":5483:5558   */\n      swap1\n      pop\n        /* \"#utility.yul\":5581:5587   */\n      dup3\n        /* \"#utility.yul\":5574:5579   */\n      dup2\n        /* \"#utility.yul\":5567:5588   */\n      mstore\n        /* \"#utility.yul\":5619:5623   */\n      0x20\n        /* \"#utility.yul\":5612:5617   */\n      dup2\n        /* \"#utility.yul\":5608:5624   */\n      add\n        /* \"#utility.yul\":5657:5660   */\n      dup5\n        /* \"#utility.yul\":5648:5654   */\n      dup5\n        /* \"#utility.yul\":5643:5646   */\n      dup5\n        /* \"#utility.yul\":5639:5655   */\n      add\n        /* \"#utility.yul\":5636:5661   */\n      gt\n        /* \"#utility.yul\":5633:5745   */\n      iszero\n      tag_354\n      jumpi\n        /* \"#utility.yul\":5664:5743   */\n      tag_355\n      tag_253\n      jump\t// in\n    tag_355:\n        /* \"#utility.yul\":5633:5745   */\n    tag_354:\n        /* \"#utility.yul\":5754:5808   */\n      tag_356\n        /* \"#utility.yul\":5801:5807   */\n      dup5\n        /* \"#utility.yul\":5796:5799   */\n      dup3\n        /* \"#utility.yul\":5791:5794   */\n      dup6\n        /* \"#utility.yul\":5754:5808   */\n      tag_255\n      jump\t// in\n    tag_356:\n        /* \"#utility.yul\":5473:5814   */\n      pop\n        /* \"#utility.yul\":5389:5814   */\n      swap4\n      swap3\n      pop\n      pop\n      pop\n      jump\t// out\n        /* \"#utility.yul\":5834:6174   */\n    tag_257:\n        /* \"#utility.yul\":5890:5895   */\n      0x00\n        /* \"#utility.yul\":5939:5942   */\n      dup3\n        /* \"#utility.yul\":5932:5936   */\n      0x1f\n        /* \"#utility.yul\":5924:5930   */\n      dup4\n        /* \"#utility.yul\":5920:5937   */\n      add\n        /* \"#utility.yul\":5916:5943   */\n      slt\n        /* \"#utility.yul\":5906:6028   */\n      tag_358\n      jumpi\n        /* \"#utility.yul\":5947:6026   */\n      tag_359\n      tag_247\n      jump\t// in\n    tag_359:\n        /* \"#utility.yul\":5906:6028   */\n    tag_358:\n        /* \"#utility.yul\":6064:6070   */\n      dup2\n        /* \"#utility.yul\":6051:6071   */\n      calldataload\n        /* \"#utility.yul\":6089:6168   */\n      tag_360\n        /* \"#utility.yul\":6164:6167   */\n      dup5\n        /* \"#utility.yul\":6156:6162   */\n      dup3\n        /* \"#utility.yul\":6149:6153   */\n      0x20\n        /* \"#utility.yul\":6141:6147   */\n      dup7\n        /* \"#utility.yul\":6137:6154   */\n      add\n        /* \"#utility.yul\":6089:6168   */\n      tag_256\n      jump\t// in\n    tag_360:\n        /* \"#utility.yul\":6080:6168   */\n      swap2\n      pop\n        /* \"#utility.yul\":5896:6174   */\n      pop\n        /* \"#utility.yul\":5834:6174   */\n      swap3\n      swap2\n      pop\n      pop\n      jump\t// out\n        /* \"#utility.yul\":6196:7141   */\n    tag_258:\n        /* \"#utility.yul\":6302:6307   */\n      0x00\n        /* \"#utility.yul\":6327:6418   */\n      tag_362\n        /* \"#utility.yul\":6343:6417   */\n      tag_363\n        /* \"#utility.yul\":6410:6416   */\n      dup5\n        /* \"#utility.yul\":6343:6417   */\n      tag_251\n      jump\t// in\n    tag_363:\n        /* \"#utility.yul\":6327:6418   */\n      tag_250\n      jump\t// in\n    tag_362:\n        /* \"#utility.yul\":6318:6418   */\n      swap1\n      pop\n        /* \"#utility.yul\":6438:6443   */\n      dup1\n        /* \"#utility.yul\":6467:6473   */\n      dup4\n        /* \"#utility.yul\":6460:6465   */\n      dup3\n        /* \"#utility.yul\":6453:6474   */\n      mstore\n        /* \"#utility.yul\":6501:6505   */\n      0x20\n        /* \"#utility.yul\":6494:6499   */\n      dup3\n        /* \"#utility.yul\":6490:6506   */\n      add\n        /* \"#utility.yul\":6483:6506   */\n      swap1\n      pop\n        /* \"#utility.yul\":6554:6558   */\n      0x20\n        /* \"#utility.yul\":6546:6552   */\n      dup5\n        /* \"#utility.yul\":6542:6559   */\n      mul\n        /* \"#utility.yul\":6534:6540   */\n      dup4\n        /* \"#utility.yul\":6530:6560   */\n      add\n        /* \"#utility.yul\":6583:6586   */\n      dup6\n        /* \"#utility.yul\":6575:6581   */\n      dup2\n        /* \"#utility.yul\":6572:6587   */\n      gt\n        /* \"#utility.yul\":6569:6691   */\n      iszero\n      tag_364\n      jumpi\n        /* \"#utility.yul\":6602:6681   */\n      tag_365\n      tag_252\n      jump\t// in\n    tag_365:\n        /* \"#utility.yul\":6569:6691   */\n    tag_364:\n        /* \"#utility.yul\":6717:6723   */\n      dup4\n        /* \"#utility.yul\":6700:7135   */\n    tag_366:\n        /* \"#utility.yul\":6734:6740   */\n      dup2\n        /* \"#utility.yul\":6729:6732   */\n      dup2\n        /* \"#utility.yul\":6726:6741   */\n      lt\n        /* \"#utility.yul\":6700:7135   */\n      iszero\n      tag_368\n      jumpi\n        /* \"#utility.yul\":6823:6826   */\n      dup1\n        /* \"#utility.yul\":6810:6827   */\n      calldataload\n        /* \"#utility.yul\":6859:6877   */\n      0xffffffffffffffff\n        /* \"#utility.yul\":6846:6857   */\n      dup2\n        /* \"#utility.yul\":6843:6878   */\n      gt\n        /* \"#utility.yul\":6840:6962   */\n      iszero\n      tag_369\n      jumpi\n        /* \"#utility.yul\":6881:6960   */\n      tag_370\n      tag_247\n      jump\t// in\n    tag_370:\n        /* \"#utility.yul\":6840:6962   */\n    tag_369:\n        /* \"#utility.yul\":7005:7016   */\n      dup1\n        /* \"#utility.yul\":6997:7003   */\n      dup7\n        /* \"#utility.yul\":6993:7017   */\n      add\n        /* \"#utility.yul\":7043:7090   */\n      tag_371\n        /* \"#utility.yul\":7086:7089   */\n      dup10\n        /* \"#utility.yul\":7074:7084   */\n      dup3\n        /* \"#utility.yul\":7043:7090   */\n      tag_257\n      jump\t// in\n    tag_371:\n        /* \"#utility.yul\":7038:7041   */\n      dup6\n        /* \"#utility.yul\":7031:7091   */\n      mstore\n        /* \"#utility.yul\":7120:7124   */\n      0x20\n        /* \"#utility.yul\":7115:7118   */\n      dup6\n        /* \"#utility.yul\":7111:7125   */\n      add\n        /* \"#utility.yul\":7104:7125   */\n      swap5\n      pop\n        /* \"#utility.yul\":6776:7135   */\n      pop\n      pop\n        /* \"#utility.yul\":6760:6764   */\n      0x20\n        /* \"#utility.yul\":6755:6758   */\n      dup2\n        /* \"#utility.yul\":6751:6765   */\n      add\n        /* \"#utility.yul\":6744:6765   */\n      swap1\n      pop\n        /* \"#utility.yul\":6700:7135   */\n      jump(tag_366)\n    tag_368:\n        /* \"#utility.yul\":6704:6725   */\n      pop\n        /* \"#utility.yul\":6308:7141   */\n      pop\n      pop\n        /* \"#utility.yul\":6196:7141   */\n      swap4\n      swap3\n      pop\n      pop\n      pop\n      jump\t// out\n        /* \"#utility.yul\":7163:7553   */\n    tag_259:\n        /* \"#utility.yul\":7244:7249   */\n      0x00\n        /* \"#utility.yul\":7293:7296   */\n      dup3\n        /* \"#utility.yul\":7286:7290   */\n      0x1f\n        /* \"#utility.yul\":7278:7284   */\n      dup4\n        /* \"#utility.yul\":7274:7291   */\n      add\n        /* \"#utility.yul\":7270:7297   */\n      slt\n        /* \"#utility.yul\":7260:7382   */\n      tag_373\n      jumpi\n        /* \"#utility.yul\":7301:7380   */\n      tag_374\n      tag_247\n      jump\t// in\n    tag_374:\n        /* \"#utility.yul\":7260:7382   */\n    tag_373:\n        /* \"#utility.yul\":7418:7424   */\n      dup2\n        /* \"#utility.yul\":7405:7425   */\n      calldataload\n        /* \"#utility.yul\":7443:7547   */\n      tag_375\n        /* \"#utility.yul\":7543:7546   */\n      dup5\n        /* \"#utility.yul\":7535:7541   */\n      dup3\n        /* \"#utility.yul\":7528:7532   */\n      0x20\n        /* \"#utility.yul\":7520:7526   */\n      dup7\n        /* \"#utility.yul\":7516:7533   */\n      add\n        /* \"#utility.yul\":7443:7547   */\n      tag_258\n      jump\t// in\n    tag_375:\n        /* \"#utility.yul\":7434:7547   */\n      swap2\n      pop\n        /* \"#utility.yul\":7250:7553   */\n      pop\n        /* \"#utility.yul\":7163:7553   */\n      swap3\n      swap2\n      pop\n      pop\n      jump\t// out\n        /* \"#utility.yul\":7559:7675   */\n    tag_260:\n        /* \"#utility.yul\":7629:7650   */\n      tag_377\n        /* \"#utility.yul\":7644:7649   */\n      dup2\n        /* \"#utility.yul\":7629:7650   */\n      tag_243\n      jump\t// in\n    tag_377:\n        /* \"#utility.yul\":7622:7627   */\n      dup2\n        /* \"#utility.yul\":7619:7651   */\n      eq\n        /* \"#utility.yul\":7609:7669   */\n      tag_378\n      jumpi\n        /* \"#utility.yul\":7665:7666   */\n      0x00\n        /* \"#utility.yul\":7662:7663   */\n      dup1\n        /* \"#utility.yul\":7655:7667   */\n      revert\n        /* \"#utility.yul\":7609:7669   */\n    tag_378:\n        /* \"#utility.yul\":7559:7675   */\n      pop\n      jump\t// out\n        /* \"#utility.yul\":7681:7814   */\n    tag_261:\n        /* \"#utility.yul\":7724:7729   */\n      0x00\n        /* \"#utility.yul\":7762:7768   */\n      dup2\n        /* \"#utility.yul\":7749:7769   */\n      calldataload\n        /* \"#utility.yul\":7740:7769   */\n      swap1\n      pop\n        /* \"#utility.yul\":7778:7808   */\n      tag_380\n        /* \"#utility.yul\":7802:7807   */\n      dup2\n        /* \"#utility.yul\":7778:7808   */\n      tag_260\n      jump\t// in\n    tag_380:\n        /* \"#utility.yul\":7681:7814   */\n      swap3\n      swap2\n      pop\n      pop\n      jump\t// out\n        /* \"#utility.yul\":7820:10167   */\n    tag_16:\n        /* \"#utility.yul\":8105:8111   */\n      0x00\n        /* \"#utility.yul\":8113:8119   */\n      dup1\n        /* \"#utility.yul\":8121:8127   */\n      0x00\n        /* \"#utility.yul\":8129:8135   */\n      dup1\n        /* \"#utility.yul\":8137:8143   */\n      0x00\n        /* \"#utility.yul\":8145:8151   */\n      dup1\n        /* \"#utility.yul\":8153:8159   */\n      0x00\n        /* \"#utility.yul\":8202:8205   */\n      0xe0\n        /* \"#utility.yul\":8190:8199   */\n      dup9\n        /* \"#utility.yul\":8181:8188   */\n      dup11\n        /* \"#utility.yul\":8177:8200   */\n      sub\n        /* \"#utility.yul\":8173:8206   */\n      slt\n        /* \"#utility.yul\":8170:8290   */\n      iszero\n      tag_382\n      jumpi\n        /* \"#utility.yul\":8209:8288   */\n      tag_383\n      tag_230\n      jump\t// in\n    tag_383:\n        /* \"#utility.yul\":8170:8290   */\n    tag_382:\n        /* \"#utility.yul\":8329:8330   */\n      0x00\n        /* \"#utility.yul\":8354:8407   */\n      tag_384\n        /* \"#utility.yul\":8399:8406   */\n      dup11\n        /* \"#utility.yul\":8390:8396   */\n      dup3\n        /* \"#utility.yul\":8379:8388   */\n      dup12\n        /* \"#utility.yul\":8375:8397   */\n      add\n        /* \"#utility.yul\":8354:8407   */\n      tag_246\n      jump\t// in\n    tag_384:\n        /* \"#utility.yul\":8344:8407   */\n      swap8\n      pop\n        /* \"#utility.yul\":8300:8417   */\n      pop\n        /* \"#utility.yul\":8484:8486   */\n      0x20\n        /* \"#utility.yul\":8473:8482   */\n      dup9\n        /* \"#utility.yul\":8469:8487   */\n      add\n        /* \"#utility.yul\":8456:8488   */\n      calldataload\n        /* \"#utility.yul\":8515:8533   */\n      0xffffffffffffffff\n        /* \"#utility.yul\":8507:8513   */\n      dup2\n        /* \"#utility.yul\":8504:8534   */\n      gt\n        /* \"#utility.yul\":8501:8618   */\n      iszero\n      tag_385\n      jumpi\n        /* \"#utility.yul\":8537:8616   */\n      tag_386\n      tag_231\n      jump\t// in\n    tag_386:\n        /* \"#utility.yul\":8501:8618   */\n    tag_385:\n        /* \"#utility.yul\":8642:8730   */\n      tag_387\n        /* \"#utility.yul\":8722:8729   */\n      dup11\n        /* \"#utility.yul\":8713:8719   */\n      dup3\n        /* \"#utility.yul\":8702:8711   */\n      dup12\n        /* \"#utility.yul\":8698:8720   */\n      add\n        /* \"#utility.yul\":8642:8730   */\n      tag_259\n      jump\t// in\n    tag_387:\n        /* \"#utility.yul\":8632:8730   */\n      swap7\n      pop\n        /* \"#utility.yul\":8427:8740   */\n      pop\n        /* \"#utility.yul\":8807:8809   */\n      0x40\n        /* \"#utility.yul\":8796:8805   */\n      dup9\n        /* \"#utility.yul\":8792:8810   */\n      add\n        /* \"#utility.yul\":8779:8811   */\n      calldataload\n        /* \"#utility.yul\":8838:8856   */\n      0xffffffffffffffff\n        /* \"#utility.yul\":8830:8836   */\n      dup2\n        /* \"#utility.yul\":8827:8857   */\n      gt\n        /* \"#utility.yul\":8824:8941   */\n      iszero\n      tag_388\n      jumpi\n        /* \"#utility.yul\":8860:8939   */\n      tag_389\n      tag_231\n      jump\t// in\n    tag_389:\n        /* \"#utility.yul\":8824:8941   */\n    tag_388:\n        /* \"#utility.yul\":8965:9053   */\n      tag_390\n        /* \"#utility.yul\":9045:9052   */\n      dup11\n        /* \"#utility.yul\":9036:9042   */\n      dup3\n        /* \"#utility.yul\":9025:9034   */\n      dup12\n        /* \"#utility.yul\":9021:9043   */\n      add\n        /* \"#utility.yul\":8965:9053   */\n      tag_259\n      jump\t// in\n    tag_390:\n        /* \"#utility.yul\":8955:9053   */\n      swap6\n      pop\n        /* \"#utility.yul\":8750:9063   */\n      pop\n        /* \"#utility.yul\":9130:9132   */\n      0x60\n        /* \"#utility.yul\":9119:9128   */\n      dup9\n        /* \"#utility.yul\":9115:9133   */\n      add\n        /* \"#utility.yul\":9102:9134   */\n      calldataload\n        /* \"#utility.yul\":9161:9179   */\n      0xffffffffffffffff\n        /* \"#utility.yul\":9153:9159   */\n      dup2\n        /* \"#utility.yul\":9150:9180   */\n      gt\n        /* \"#utility.yul\":9147:9264   */\n      iszero\n      tag_391\n      jumpi\n        /* \"#utility.yul\":9183:9262   */\n      tag_392\n      tag_231\n      jump\t// in\n    tag_392:\n        /* \"#utility.yul\":9147:9264   */\n    tag_391:\n        /* \"#utility.yul\":9288:9376   */\n      tag_393\n        /* \"#utility.yul\":9368:9375   */\n      dup11\n        /* \"#utility.yul\":9359:9365   */\n      dup3\n        /* \"#utility.yul\":9348:9357   */\n      dup12\n        /* \"#utility.yul\":9344:9366   */\n      add\n        /* \"#utility.yul\":9288:9376   */\n      tag_259\n      jump\t// in\n    tag_393:\n        /* \"#utility.yul\":9278:9376   */\n      swap5\n      pop\n        /* \"#utility.yul\":9073:9386   */\n      pop\n        /* \"#utility.yul\":9453:9456   */\n      0x80\n        /* \"#utility.yul\":9442:9451   */\n      dup9\n        /* \"#utility.yul\":9438:9457   */\n      add\n        /* \"#utility.yul\":9425:9458   */\n      calldataload\n        /* \"#utility.yul\":9485:9503   */\n      0xffffffffffffffff\n        /* \"#utility.yul\":9477:9483   */\n      dup2\n        /* \"#utility.yul\":9474:9504   */\n      gt\n        /* \"#utility.yul\":9471:9588   */\n      iszero\n      tag_394\n      jumpi\n        /* \"#utility.yul\":9507:9586   */\n      tag_395\n      tag_231\n      jump\t// in\n    tag_395:\n        /* \"#utility.yul\":9471:9588   */\n    tag_394:\n        /* \"#utility.yul\":9612:9700   */\n      tag_396\n        /* \"#utility.yul\":9692:9699   */\n      dup11\n        /* \"#utility.yul\":9683:9689   */\n      dup3\n        /* \"#utility.yul\":9672:9681   */\n      dup12\n        /* \"#utility.yul\":9668:9690   */\n      add\n        /* \"#utility.yul\":9612:9700   */\n      tag_259\n      jump\t// in\n    tag_396:\n        /* \"#utility.yul\":9602:9700   */\n      swap4\n      pop\n        /* \"#utility.yul\":9396:9710   */\n      pop\n        /* \"#utility.yul\":9777:9780   */\n      0xa0\n        /* \"#utility.yul\":9766:9775   */\n      dup9\n        /* \"#utility.yul\":9762:9781   */\n      add\n        /* \"#utility.yul\":9749:9782   */\n      calldataload\n        /* \"#utility.yul\":9809:9827   */\n      0xffffffffffffffff\n        /* \"#utility.yul\":9801:9807   */\n      dup2\n        /* \"#utility.yul\":9798:9828   */\n      gt\n        /* \"#utility.yul\":9795:9912   */\n      iszero\n      tag_397\n      jumpi\n        /* \"#utility.yul\":9831:9910   */\n      tag_398\n      tag_231\n      jump\t// in\n    tag_398:\n        /* \"#utility.yul\":9795:9912   */\n    tag_397:\n        /* \"#utility.yul\":9936:10024   */\n      tag_399\n        /* \"#utility.yul\":10016:10023   */\n      dup11\n        /* \"#utility.yul\":10007:10013   */\n      dup3\n        /* \"#utility.yul\":9996:10005   */\n      dup12\n        /* \"#utility.yul\":9992:10014   */\n      add\n        /* \"#utility.yul\":9936:10024   */\n      tag_259\n      jump\t// in\n    tag_399:\n        /* \"#utility.yul\":9926:10024   */\n      swap3\n      pop\n        /* \"#utility.yul\":9720:10034   */\n      pop\n        /* \"#utility.yul\":10073:10076   */\n      0xc0\n        /* \"#utility.yul\":10100:10150   */\n      tag_400\n        /* \"#utility.yul\":10142:10149   */\n      dup11\n        /* \"#utility.yul\":10133:10139   */\n      dup3\n        /* \"#utility.yul\":10122:10131   */\n      dup12\n        /* \"#utility.yul\":10118:10140   */\n      add\n        /* \"#utility.yul\":10100:10150   */\n      tag_261\n      jump\t// in\n    tag_400:\n        /* \"#utility.yul\":10090:10150   */\n      swap2\n      pop\n        /* \"#utility.yul\":10044:10160   */\n      pop\n        /* \"#utility.yul\":7820:10167   */\n      swap3\n      swap6\n      swap9\n      swap2\n      swap5\n      swap8\n      pop\n      swap3\n      swap6\n      pop\n      jump\t// out\n        /* \"#utility.yul\":10173:13032   */\n    tag_20:\n        /* \"#utility.yul\":10490:10496   */\n      0x00\n        /* \"#utility.yul\":10498:10504   */\n      dup1\n        /* \"#utility.yul\":10506:10512   */\n      0x00\n        /* \"#utility.yul\":10514:10520   */\n      dup1\n        /* \"#utility.yul\":10522:10528   */\n      0x00\n        /* \"#utility.yul\":10530:10536   */\n      dup1\n        /* \"#utility.yul\":10538:10544   */\n      0x00\n        /* \"#utility.yul\":10546:10552   */\n      dup1\n        /* \"#utility.yul\":10595:10598   */\n      0x0100\n        /* \"#utility.yul\":10583:10592   */\n      dup10\n        /* \"#utility.yul\":10574:10581   */\n      dup12\n        /* \"#utility.yul\":10570:10593   */\n      sub\n        /* \"#utility.yul\":10566:10599   */\n      slt\n        /* \"#utility.yul\":10563:10683   */\n      iszero\n      tag_402\n      jumpi\n        /* \"#utility.yul\":10602:10681   */\n      tag_403\n      tag_230\n      jump\t// in\n    tag_403:\n        /* \"#utility.yul\":10563:10683   */\n    tag_402:\n        /* \"#utility.yul\":10750:10751   */\n      0x00\n        /* \"#utility.yul\":10739:10748   */\n      dup10\n        /* \"#utility.yul\":10735:10752   */\n      add\n        /* \"#utility.yul\":10722:10753   */\n      calldataload\n        /* \"#utility.yul\":10780:10798   */\n      0xffffffffffffffff\n        /* \"#utility.yul\":10772:10778   */\n      dup2\n        /* \"#utility.yul\":10769:10799   */\n      gt\n        /* \"#utility.yul\":10766:10883   */\n      iszero\n      tag_404\n      jumpi\n        /* \"#utility.yul\":10802:10881   */\n      tag_405\n      tag_231\n      jump\t// in\n    tag_405:\n        /* \"#utility.yul\":10766:10883   */\n    tag_404:\n        /* \"#utility.yul\":10907:10970   */\n      tag_406\n        /* \"#utility.yul\":10962:10969   */\n      dup12\n        /* \"#utility.yul\":10953:10959   */\n      dup3\n        /* \"#utility.yul\":10942:10951   */\n      dup13\n        /* \"#utility.yul\":10938:10960   */\n      add\n        /* \"#utility.yul\":10907:10970   */\n      tag_257\n      jump\t// in\n    tag_406:\n        /* \"#utility.yul\":10897:10970   */\n      swap9\n      pop\n        /* \"#utility.yul\":10693:10980   */\n      pop\n        /* \"#utility.yul\":11019:11021   */\n      0x20\n        /* \"#utility.yul\":11045:11098   */\n      tag_407\n        /* \"#utility.yul\":11090:11097   */\n      dup12\n        /* \"#utility.yul\":11081:11087   */\n      dup3\n        /* \"#utility.yul\":11070:11079   */\n      dup13\n        /* \"#utility.yul\":11066:11088   */\n      add\n        /* \"#utility.yul\":11045:11098   */\n      tag_246\n      jump\t// in\n    tag_407:\n        /* \"#utility.yul\":11035:11098   */\n      swap8\n      pop\n        /* \"#utility.yul\":10990:11108   */\n      pop\n        /* \"#utility.yul\":11175:11177   */\n      0x40\n        /* \"#utility.yul\":11164:11173   */\n      dup10\n        /* \"#utility.yul\":11160:11178   */\n      add\n        /* \"#utility.yul\":11147:11179   */\n      calldataload\n        /* \"#utility.yul\":11206:11224   */\n      0xffffffffffffffff\n        /* \"#utility.yul\":11198:11204   */\n      dup2\n        /* \"#utility.yul\":11195:11225   */\n      gt\n        /* \"#utility.yul\":11192:11309   */\n      iszero\n      tag_408\n      jumpi\n        /* \"#utility.yul\":11228:11307   */\n      tag_409\n      tag_231\n      jump\t// in\n    tag_409:\n        /* \"#utility.yul\":11192:11309   */\n    tag_408:\n        /* \"#utility.yul\":11333:11396   */\n      tag_410\n        /* \"#utility.yul\":11388:11395   */\n      dup12\n        /* \"#utility.yul\":11379:11385   */\n      dup3\n        /* \"#utility.yul\":11368:11377   */\n      dup13\n        /* \"#utility.yul\":11364:11386   */\n      add\n        /* \"#utility.yul\":11333:11396   */\n      tag_257\n      jump\t// in\n    tag_410:\n        /* \"#utility.yul\":11323:11396   */\n      swap7\n      pop\n        /* \"#utility.yul\":11118:11406   */\n      pop\n        /* \"#utility.yul\":11473:11475   */\n      0x60\n        /* \"#utility.yul\":11462:11471   */\n      dup10\n        /* \"#utility.yul\":11458:11476   */\n      add\n        /* \"#utility.yul\":11445:11477   */\n      calldataload\n        /* \"#utility.yul\":11504:11522   */\n      0xffffffffffffffff\n        /* \"#utility.yul\":11496:11502   */\n      dup2\n        /* \"#utility.yul\":11493:11523   */\n      gt\n        /* \"#utility.yul\":11490:11607   */\n      iszero\n      tag_411\n      jumpi\n        /* \"#utility.yul\":11526:11605   */\n      tag_412\n      tag_231\n      jump\t// in\n    tag_412:\n        /* \"#utility.yul\":11490:11607   */\n    tag_411:\n        /* \"#utility.yul\":11631:11719   */\n      tag_413\n        /* \"#utility.yul\":11711:11718   */\n      dup12\n        /* \"#utility.yul\":11702:11708   */\n      dup3\n        /* \"#utility.yul\":11691:11700   */\n      dup13\n        /* \"#utility.yul\":11687:11709   */\n      add\n        /* \"#utility.yul\":11631:11719   */\n      tag_259\n      jump\t// in\n    tag_413:\n        /* \"#utility.yul\":11621:11719   */\n      swap6\n      pop\n        /* \"#utility.yul\":11416:11729   */\n      pop\n        /* \"#utility.yul\":11796:11799   */\n      0x80\n        /* \"#utility.yul\":11785:11794   */\n      dup10\n        /* \"#utility.yul\":11781:11800   */\n      add\n        /* \"#utility.yul\":11768:11801   */\n      calldataload\n        /* \"#utility.yul\":11828:11846   */\n      0xffffffffffffffff\n        /* \"#utility.yul\":11820:11826   */\n      dup2\n        /* \"#utility.yul\":11817:11847   */\n      gt\n        /* \"#utility.yul\":11814:11931   */\n      iszero\n      tag_414\n      jumpi\n        /* \"#utility.yul\":11850:11929   */\n      tag_415\n      tag_231\n      jump\t// in\n    tag_415:\n        /* \"#utility.yul\":11814:11931   */\n    tag_414:\n        /* \"#utility.yul\":11955:12043   */\n      tag_416\n        /* \"#utility.yul\":12035:12042   */\n      dup12\n        /* \"#utility.yul\":12026:12032   */\n      dup3\n        /* \"#utility.yul\":12015:12024   */\n      dup13\n        /* \"#utility.yul\":12011:12033   */\n      add\n        /* \"#utility.yul\":11955:12043   */\n      tag_259\n      jump\t// in\n    tag_416:\n        /* \"#utility.yul\":11945:12043   */\n      swap5\n      pop\n        /* \"#utility.yul\":11739:12053   */\n      pop\n        /* \"#utility.yul\":12120:12123   */\n      0xa0\n        /* \"#utility.yul\":12109:12118   */\n      dup10\n        /* \"#utility.yul\":12105:12124   */\n      add\n        /* \"#utility.yul\":12092:12125   */\n      calldataload\n        /* \"#utility.yul\":12152:12170   */\n      0xffffffffffffffff\n        /* \"#utility.yul\":12144:12150   */\n      dup2\n        /* \"#utility.yul\":12141:12171   */\n      gt\n        /* \"#utility.yul\":12138:12255   */\n      iszero\n      tag_417\n      jumpi\n        /* \"#utility.yul\":12174:12253   */\n      tag_418\n      tag_231\n      jump\t// in\n    tag_418:\n        /* \"#utility.yul\":12138:12255   */\n    tag_417:\n        /* \"#utility.yul\":12279:12367   */\n      tag_419\n        /* \"#utility.yul\":12359:12366   */\n      dup12\n        /* \"#utility.yul\":12350:12356   */\n      dup3\n        /* \"#utility.yul\":12339:12348   */\n      dup13\n        /* \"#utility.yul\":12335:12357   */\n      add\n        /* \"#utility.yul\":12279:12367   */\n      tag_259\n      jump\t// in\n    tag_419:\n        /* \"#utility.yul\":12269:12367   */\n      swap4\n      pop\n        /* \"#utility.yul\":12063:12377   */\n      pop\n        /* \"#utility.yul\":12444:12447   */\n      0xc0\n        /* \"#utility.yul\":12433:12442   */\n      dup10\n        /* \"#utility.yul\":12429:12448   */\n      add\n        /* \"#utility.yul\":12416:12449   */\n      calldataload\n        /* \"#utility.yul\":12476:12494   */\n      0xffffffffffffffff\n        /* \"#utility.yul\":12468:12474   */\n      dup2\n        /* \"#utility.yul\":12465:12495   */\n      gt\n        /* \"#utility.yul\":12462:12579   */\n      iszero\n      tag_420\n      jumpi\n        /* \"#utility.yul\":12498:12577   */\n      tag_421\n      tag_231\n      jump\t// in\n    tag_421:\n        /* \"#utility.yul\":12462:12579   */\n    tag_420:\n        /* \"#utility.yul\":12603:12691   */\n      tag_422\n        /* \"#utility.yul\":12683:12690   */\n      dup12\n        /* \"#utility.yul\":12674:12680   */\n      dup3\n        /* \"#utility.yul\":12663:12672   */\n      dup13\n        /* \"#utility.yul\":12659:12681   */\n      add\n        /* \"#utility.yul\":12603:12691   */\n      tag_259\n      jump\t// in\n    tag_422:\n        /* \"#utility.yul\":12593:12691   */\n      swap3\n      pop\n        /* \"#utility.yul\":12387:12701   */\n      pop\n        /* \"#utility.yul\":12768:12771   */\n      0xe0\n        /* \"#utility.yul\":12757:12766   */\n      dup10\n        /* \"#utility.yul\":12753:12772   */\n      add\n        /* \"#utility.yul\":12740:12773   */\n      calldataload\n        /* \"#utility.yul\":12800:12818   */\n      0xffffffffffffffff\n        /* \"#utility.yul\":12792:12798   */\n      dup2\n        /* \"#utility.yul\":12789:12819   */\n      gt\n        /* \"#utility.yul\":12786:12903   */\n      iszero\n      tag_423\n      jumpi\n        /* \"#utility.yul\":12822:12901   */\n      tag_424\n      tag_231\n      jump\t// in\n    tag_424:\n        /* \"#utility.yul\":12786:12903   */\n    tag_423:\n        /* \"#utility.yul\":12927:13015   */\n      tag_425\n        /* \"#utility.yul\":13007:13014   */\n      dup12\n        /* \"#utility.yul\":12998:13004   */\n      dup3\n        /* \"#utility.yul\":12987:12996   */\n      dup13\n        /* \"#utility.yul\":12983:13005   */\n      add\n        /* \"#utility.yul\":12927:13015   */\n      tag_259\n      jump\t// in\n    tag_425:\n        /* \"#utility.yul\":12917:13015   */\n      swap2\n      pop\n        /* \"#utility.yul\":12711:13025   */\n      pop\n        /* \"#utility.yul\":10173:13032   */\n      swap3\n      swap6\n      swap9\n      pop\n      swap3\n      swap6\n      swap9\n      swap1\n      swap4\n      swap7\n      pop\n      jump\t// out\n        /* \"#utility.yul\":13038:13248   */\n    tag_26:\n        /* \"#utility.yul\":13125:13129   */\n      0x00\n        /* \"#utility.yul\":13163:13165   */\n      0x20\n        /* \"#utility.yul\":13152:13161   */\n      dup3\n        /* \"#utility.yul\":13148:13166   */\n      add\n        /* \"#utility.yul\":13140:13166   */\n      swap1\n      pop\n        /* \"#utility.yul\":13176:13241   */\n      tag_427\n        /* \"#utility.yul\":13238:13239   */\n      0x00\n        /* \"#utility.yul\":13227:13236   */\n      dup4\n        /* \"#utility.yul\":13223:13240   */\n      add\n        /* \"#utility.yul\":13214:13220   */\n      dup5\n        /* \"#utility.yul\":13176:13241   */\n      tag_244\n      jump\t// in\n    tag_427:\n        /* \"#utility.yul\":13038:13248   */\n      swap3\n      swap2\n      pop\n      pop\n      jump\t// out\n        /* \"#utility.yul\":13254:13378   */\n    tag_262:\n        /* \"#utility.yul\":13331:13337   */\n      0x00\n        /* \"#utility.yul\":13365:13370   */\n      dup2\n        /* \"#utility.yul\":13359:13371   */\n      mload\n        /* \"#utility.yul\":13349:13371   */\n      swap1\n      pop\n        /* \"#utility.yul\":13254:13378   */\n      swap2\n      swap1\n      pop\n      jump\t// out\n        /* \"#utility.yul\":13384:13578   */\n    tag_263:\n        /* \"#utility.yul\":13493:13504   */\n      0x00\n        /* \"#utility.yul\":13527:13533   */\n      dup3\n        /* \"#utility.yul\":13522:13525   */\n      dup3\n        /* \"#utility.yul\":13515:13534   */\n      mstore\n        /* \"#utility.yul\":13567:13571   */\n      0x20\n        /* \"#utility.yul\":13562:13565   */\n      dup3\n        /* \"#utility.yul\":13558:13572   */\n      add\n        /* \"#utility.yul\":13543:13572   */\n      swap1\n      pop\n        /* \"#utility.yul\":13384:13578   */\n      swap3\n      swap2\n      pop\n      pop\n      jump\t// out\n        /* \"#utility.yul\":13584:13726   */\n    tag_264:\n        /* \"#utility.yul\":13661:13665   */\n      0x00\n        /* \"#utility.yul\":13684:13687   */\n      dup2\n        /* \"#utility.yul\":13676:13687   */\n      swap1\n      pop\n        /* \"#utility.yul\":13714:13718   */\n      0x20\n        /* \"#utility.yul\":13709:13712   */\n      dup3\n        /* \"#utility.yul\":13705:13719   */\n      add\n        /* \"#utility.yul\":13697:13719   */\n      swap1\n      pop\n        /* \"#utility.yul\":13584:13726   */\n      swap2\n      swap1\n      pop\n      jump\t// out\n        /* \"#utility.yul\":13732:13891   */\n    tag_265:\n        /* \"#utility.yul\":13806:13817   */\n      0x00\n        /* \"#utility.yul\":13840:13846   */\n      dup3\n        /* \"#utility.yul\":13835:13838   */\n      dup3\n        /* \"#utility.yul\":13828:13847   */\n      mstore\n        /* \"#utility.yul\":13880:13884   */\n      0x20\n        /* \"#utility.yul\":13875:13878   */\n      dup3\n        /* \"#utility.yul\":13871:13885   */\n      add\n        /* \"#utility.yul\":13856:13885   */\n      swap1\n      pop\n        /* \"#utility.yul\":13732:13891   */\n      swap3\n      swap2\n      pop\n      pop\n      jump\t// out\n        /* \"#utility.yul\":13897:14254   */\n    tag_266:\n        /* \"#utility.yul\":13975:13978   */\n      0x00\n        /* \"#utility.yul\":14003:14042   */\n      tag_433\n        /* \"#utility.yul\":14036:14041   */\n      dup3\n        /* \"#utility.yul\":14003:14042   */\n      tag_236\n      jump\t// in\n    tag_433:\n        /* \"#utility.yul\":14058:14119   */\n      tag_434\n        /* \"#utility.yul\":14112:14118   */\n      dup2\n        /* \"#utility.yul\":14107:14110   */\n      dup6\n        /* \"#utility.yul\":14058:14119   */\n      tag_265\n      jump\t// in\n    tag_434:\n        /* \"#utility.yul\":14051:14119   */\n      swap4\n      pop\n        /* \"#utility.yul\":14128:14193   */\n      tag_435\n        /* \"#utility.yul\":14186:14192   */\n      dup2\n        /* \"#utility.yul\":14181:14184   */\n      dup6\n        /* \"#utility.yul\":14174:14178   */\n      0x20\n        /* \"#utility.yul\":14167:14172   */\n      dup7\n        /* \"#utility.yul\":14163:14179   */\n      add\n        /* \"#utility.yul\":14128:14193   */\n      tag_238\n      jump\t// in\n    tag_435:\n        /* \"#utility.yul\":14218:14247   */\n      tag_436\n        /* \"#utility.yul\":14240:14246   */\n      dup2\n        /* \"#utility.yul\":14218:14247   */\n      tag_239\n      jump\t// in\n    tag_436:\n        /* \"#utility.yul\":14213:14216   */\n      dup5\n        /* \"#utility.yul\":14209:14248   */\n      add\n        /* \"#utility.yul\":14202:14248   */\n      swap2\n      pop\n        /* \"#utility.yul\":13979:14254   */\n      pop\n        /* \"#utility.yul\":13897:14254   */\n      swap3\n      swap2\n      pop\n      pop\n      jump\t// out\n        /* \"#utility.yul\":14260:14456   */\n    tag_267:\n        /* \"#utility.yul\":14349:14359   */\n      0x00\n        /* \"#utility.yul\":14384:14450   */\n      tag_438\n        /* \"#utility.yul\":14446:14449   */\n      dup4\n        /* \"#utility.yul\":14438:14444   */\n      dup4\n        /* \"#utility.yul\":14384:14450   */\n      tag_266\n      jump\t// in\n    tag_438:\n        /* \"#utility.yul\":14370:14450   */\n      swap1\n      pop\n        /* \"#utility.yul\":14260:14456   */\n      swap3\n      swap2\n      pop\n      pop\n      jump\t// out\n        /* \"#utility.yul\":14462:14585   */\n    tag_268:\n        /* \"#utility.yul\":14542:14546   */\n      0x00\n        /* \"#utility.yul\":14574:14578   */\n      0x20\n        /* \"#utility.yul\":14569:14572   */\n      dup3\n        /* \"#utility.yul\":14565:14579   */\n      add\n        /* \"#utility.yul\":14557:14579   */\n      swap1\n      pop\n        /* \"#utility.yul\":14462:14585   */\n      swap2\n      swap1\n      pop\n      jump\t// out\n        /* \"#utility.yul\":14619:15610   */\n    tag_269:\n        /* \"#utility.yul\":14758:14761   */\n      0x00\n        /* \"#utility.yul\":14787:14851   */\n      tag_441\n        /* \"#utility.yul\":14845:14850   */\n      dup3\n        /* \"#utility.yul\":14787:14851   */\n      tag_262\n      jump\t// in\n    tag_441:\n        /* \"#utility.yul\":14867:14963   */\n      tag_442\n        /* \"#utility.yul\":14956:14962   */\n      dup2\n        /* \"#utility.yul\":14951:14954   */\n      dup6\n        /* \"#utility.yul\":14867:14963   */\n      tag_263\n      jump\t// in\n    tag_442:\n        /* \"#utility.yul\":14860:14963   */\n      swap4\n      pop\n        /* \"#utility.yul\":14989:14992   */\n      dup4\n        /* \"#utility.yul\":15034:15038   */\n      0x20\n        /* \"#utility.yul\":15026:15032   */\n      dup3\n        /* \"#utility.yul\":15022:15039   */\n      mul\n        /* \"#utility.yul\":15017:15020   */\n      dup6\n        /* \"#utility.yul\":15013:15040   */\n      add\n        /* \"#utility.yul\":15064:15130   */\n      tag_443\n        /* \"#utility.yul\":15124:15129   */\n      dup6\n        /* \"#utility.yul\":15064:15130   */\n      tag_264\n      jump\t// in\n    tag_443:\n        /* \"#utility.yul\":15153:15160   */\n      dup1\n        /* \"#utility.yul\":15184:15185   */\n      0x00\n        /* \"#utility.yul\":15169:15565   */\n    tag_444:\n        /* \"#utility.yul\":15194:15200   */\n      dup6\n        /* \"#utility.yul\":15191:15192   */\n      dup2\n        /* \"#utility.yul\":15188:15201   */\n      lt\n        /* \"#utility.yul\":15169:15565   */\n      iszero\n      tag_446\n      jumpi\n        /* \"#utility.yul\":15265:15274   */\n      dup5\n        /* \"#utility.yul\":15259:15263   */\n      dup5\n        /* \"#utility.yul\":15255:15275   */\n      sub\n        /* \"#utility.yul\":15250:15253   */\n      dup10\n        /* \"#utility.yul\":15243:15276   */\n      mstore\n        /* \"#utility.yul\":15316:15322   */\n      dup2\n        /* \"#utility.yul\":15310:15323   */\n      mload\n        /* \"#utility.yul\":15344:15428   */\n      tag_447\n        /* \"#utility.yul\":15423:15427   */\n      dup6\n        /* \"#utility.yul\":15408:15421   */\n      dup3\n        /* \"#utility.yul\":15344:15428   */\n      tag_267\n      jump\t// in\n    tag_447:\n        /* \"#utility.yul\":15336:15428   */\n      swap5\n      pop\n        /* \"#utility.yul\":15451:15521   */\n      tag_448\n        /* \"#utility.yul\":15514:15520   */\n      dup4\n        /* \"#utility.yul\":15451:15521   */\n      tag_268\n      jump\t// in\n    tag_448:\n        /* \"#utility.yul\":15441:15521   */\n      swap3\n      pop\n        /* \"#utility.yul\":15550:15554   */\n      0x20\n        /* \"#utility.yul\":15545:15548   */\n      dup11\n        /* \"#utility.yul\":15541:15555   */\n      add\n        /* \"#utility.yul\":15534:15555   */\n      swap10\n      pop\n        /* \"#utility.yul\":15229:15565   */\n      pop\n        /* \"#utility.yul\":15216:15217   */\n      0x01\n        /* \"#utility.yul\":15213:15214   */\n      dup2\n        /* \"#utility.yul\":15209:15218   */\n      add\n        /* \"#utility.yul\":15204:15218   */\n      swap1\n      pop\n        /* \"#utility.yul\":15169:15565   */\n      jump(tag_444)\n    tag_446:\n        /* \"#utility.yul\":15173:15187   */\n      pop\n        /* \"#utility.yul\":15581:15585   */\n      dup3\n        /* \"#utility.yul\":15574:15585   */\n      swap8\n      pop\n        /* \"#utility.yul\":15601:15604   */\n      dup8\n        /* \"#utility.yul\":15594:15604   */\n      swap6\n      pop\n        /* \"#utility.yul\":14763:15610   */\n      pop\n      pop\n      pop\n      pop\n      pop\n        /* \"#utility.yul\":14619:15610   */\n      swap3\n      swap2\n      pop\n      pop\n      jump\t// out\n        /* \"#utility.yul\":15616:17849   */\n    tag_31:\n        /* \"#utility.yul\":16317:16321   */\n      0x00\n        /* \"#utility.yul\":16355:16358   */\n      0x0120\n        /* \"#utility.yul\":16344:16353   */\n      dup3\n        /* \"#utility.yul\":16340:16359   */\n      add\n        /* \"#utility.yul\":16332:16359   */\n      swap1\n      pop\n        /* \"#utility.yul\":16405:16414   */\n      dup2\n        /* \"#utility.yul\":16399:16403   */\n      dup2\n        /* \"#utility.yul\":16395:16415   */\n      sub\n        /* \"#utility.yul\":16391:16392   */\n      0x00\n        /* \"#utility.yul\":16380:16389   */\n      dup4\n        /* \"#utility.yul\":16376:16393   */\n      add\n        /* \"#utility.yul\":16369:16416   */\n      mstore\n        /* \"#utility.yul\":16433:16511   */\n      tag_450\n        /* \"#utility.yul\":16506:16510   */\n      dup2\n        /* \"#utility.yul\":16497:16503   */\n      dup13\n        /* \"#utility.yul\":16433:16511   */\n      tag_240\n      jump\t// in\n    tag_450:\n        /* \"#utility.yul\":16425:16511   */\n      swap1\n      pop\n        /* \"#utility.yul\":16521:16593   */\n      tag_451\n        /* \"#utility.yul\":16589:16591   */\n      0x20\n        /* \"#utility.yul\":16578:16587   */\n      dup4\n        /* \"#utility.yul\":16574:16592   */\n      add\n        /* \"#utility.yul\":16565:16571   */\n      dup12\n        /* \"#utility.yul\":16521:16593   */\n      tag_242\n      jump\t// in\n    tag_451:\n        /* \"#utility.yul\":16640:16649   */\n      dup2\n        /* \"#utility.yul\":16634:16638   */\n      dup2\n        /* \"#utility.yul\":16630:16650   */\n      sub\n        /* \"#utility.yul\":16625:16627   */\n      0x40\n        /* \"#utility.yul\":16614:16623   */\n      dup4\n        /* \"#utility.yul\":16610:16628   */\n      add\n        /* \"#utility.yul\":16603:16651   */\n      mstore\n        /* \"#utility.yul\":16668:16746   */\n      tag_452\n        /* \"#utility.yul\":16741:16745   */\n      dup2\n        /* \"#utility.yul\":16732:16738   */\n      dup11\n        /* \"#utility.yul\":16668:16746   */\n      tag_240\n      jump\t// in\n    tag_452:\n        /* \"#utility.yul\":16660:16746   */\n      swap1\n      pop\n        /* \"#utility.yul\":16793:16802   */\n      dup2\n        /* \"#utility.yul\":16787:16791   */\n      dup2\n        /* \"#utility.yul\":16783:16803   */\n      sub\n        /* \"#utility.yul\":16778:16780   */\n      0x60\n        /* \"#utility.yul\":16767:16776   */\n      dup4\n        /* \"#utility.yul\":16763:16781   */\n      add\n        /* \"#utility.yul\":16756:16804   */\n      mstore\n        /* \"#utility.yul\":16821:16949   */\n      tag_453\n        /* \"#utility.yul\":16944:16948   */\n      dup2\n        /* \"#utility.yul\":16935:16941   */\n      dup10\n        /* \"#utility.yul\":16821:16949   */\n      tag_269\n      jump\t// in\n    tag_453:\n        /* \"#utility.yul\":16813:16949   */\n      swap1\n      pop\n        /* \"#utility.yul\":16997:17006   */\n      dup2\n        /* \"#utility.yul\":16991:16995   */\n      dup2\n        /* \"#utility.yul\":16987:17007   */\n      sub\n        /* \"#utility.yul\":16981:16984   */\n      0x80\n        /* \"#utility.yul\":16970:16979   */\n      dup4\n        /* \"#utility.yul\":16966:16985   */\n      add\n        /* \"#utility.yul\":16959:17008   */\n      mstore\n        /* \"#utility.yul\":17025:17153   */\n      tag_454\n        /* \"#utility.yul\":17148:17152   */\n      dup2\n        /* \"#utility.yul\":17139:17145   */\n      dup9\n        /* \"#utility.yul\":17025:17153   */\n      tag_269\n      jump\t// in\n    tag_454:\n        /* \"#utility.yul\":17017:17153   */\n      swap1\n      pop\n        /* \"#utility.yul\":17201:17210   */\n      dup2\n        /* \"#utility.yul\":17195:17199   */\n      dup2\n        /* \"#utility.yul\":17191:17211   */\n      sub\n        /* \"#utility.yul\":17185:17188   */\n      0xa0\n        /* \"#utility.yul\":17174:17183   */\n      dup4\n        /* \"#utility.yul\":17170:17189   */\n      add\n        /* \"#utility.yul\":17163:17212   */\n      mstore\n        /* \"#utility.yul\":17229:17357   */\n      tag_455\n        /* \"#utility.yul\":17352:17356   */\n      dup2\n        /* \"#utility.yul\":17343:17349   */\n      dup8\n        /* \"#utility.yul\":17229:17357   */\n      tag_269\n      jump\t// in\n    tag_455:\n        /* \"#utility.yul\":17221:17357   */\n      swap1\n      pop\n        /* \"#utility.yul\":17405:17414   */\n      dup2\n        /* \"#utility.yul\":17399:17403   */\n      dup2\n        /* \"#utility.yul\":17395:17415   */\n      sub\n        /* \"#utility.yul\":17389:17392   */\n      0xc0\n        /* \"#utility.yul\":17378:17387   */\n      dup4\n        /* \"#utility.yul\":17374:17393   */\n      add\n        /* \"#utility.yul\":17367:17416   */\n      mstore\n        /* \"#utility.yul\":17433:17561   */\n      tag_456\n        /* \"#utility.yul\":17556:17560   */\n      dup2\n        /* \"#utility.yul\":17547:17553   */\n      dup7\n        /* \"#utility.yul\":17433:17561   */\n      tag_269\n      jump\t// in\n    tag_456:\n        /* \"#utility.yul\":17425:17561   */\n      swap1\n      pop\n        /* \"#utility.yul\":17609:17618   */\n      dup2\n        /* \"#utility.yul\":17603:17607   */\n      dup2\n        /* \"#utility.yul\":17599:17619   */\n      sub\n        /* \"#utility.yul\":17593:17596   */\n      0xe0\n        /* \"#utility.yul\":17582:17591   */\n      dup4\n        /* \"#utility.yul\":17578:17597   */\n      add\n        /* \"#utility.yul\":17571:17620   */\n      mstore\n        /* \"#utility.yul\":17637:17765   */\n      tag_457\n        /* \"#utility.yul\":17760:17764   */\n      dup2\n        /* \"#utility.yul\":17751:17757   */\n      dup6\n        /* \"#utility.yul\":17637:17765   */\n      tag_269\n      jump\t// in\n    tag_457:\n        /* \"#utility.yul\":17629:17765   */\n      swap1\n      pop\n        /* \"#utility.yul\":17775:17842   */\n      tag_458\n        /* \"#utility.yul\":17837:17840   */\n      0x0100\n        /* \"#utility.yul\":17826:17835   */\n      dup4\n        /* \"#utility.yul\":17822:17841   */\n      add\n        /* \"#utility.yul\":17813:17819   */\n      dup5\n        /* \"#utility.yul\":17775:17842   */\n      tag_244\n      jump\t// in\n    tag_458:\n        /* \"#utility.yul\":15616:17849   */\n      swap11\n      swap10\n      pop\n      pop\n      pop\n      pop\n      pop\n      pop\n      pop\n      pop\n      pop\n      pop\n      jump\t// out\n        /* \"#utility.yul\":17855:18035   */\n    tag_270:\n        /* \"#utility.yul\":17903:17980   */\n      0x4e487b7100000000000000000000000000000000000000000000000000000000\n        /* \"#utility.yul\":17900:17901   */\n      0x00\n        /* \"#utility.yul\":17893:17981   */\n      mstore\n        /* \"#utility.yul\":18000:18004   */\n      0x22\n        /* \"#utility.yul\":17997:17998   */\n      0x04\n        /* \"#utility.yul\":17990:18005   */\n      mstore\n        /* \"#utility.yul\":18024:18028   */\n      0x24\n        /* \"#utility.yul\":18021:18022   */\n      0x00\n        /* \"#utility.yul\":18014:18029   */\n      revert\n        /* \"#utility.yul\":18041:18361   */\n    tag_33:\n        /* \"#utility.yul\":18085:18091   */\n      0x00\n        /* \"#utility.yul\":18122:18123   */\n      0x02\n        /* \"#utility.yul\":18116:18120   */\n      dup3\n        /* \"#utility.yul\":18112:18124   */\n      div\n        /* \"#utility.yul\":18102:18124   */\n      swap1\n      pop\n        /* \"#utility.yul\":18169:18170   */\n      0x01\n        /* \"#utility.yul\":18163:18167   */\n      dup3\n        /* \"#utility.yul\":18159:18171   */\n      and\n        /* \"#utility.yul\":18190:18208   */\n      dup1\n        /* \"#utility.yul\":18180:18261   */\n      tag_461\n      jumpi\n        /* \"#utility.yul\":18246:18250   */\n      0x7f\n        /* \"#utility.yul\":18238:18244   */\n      dup3\n        /* \"#utility.yul\":18234:18251   */\n      and\n        /* \"#utility.yul\":18224:18251   */\n      swap2\n      pop\n        /* \"#utility.yul\":18180:18261   */\n    tag_461:\n        /* \"#utility.yul\":18308:18310   */\n      0x20\n        /* \"#utility.yul\":18300:18306   */\n      dup3\n        /* \"#utility.yul\":18297:18311   */\n      lt\n        /* \"#utility.yul\":18277:18295   */\n      dup2\n        /* \"#utility.yul\":18274:18312   */\n      sub\n        /* \"#utility.yul\":18271:18355   */\n      tag_462\n      jumpi\n        /* \"#utility.yul\":18327:18345   */\n      tag_463\n      tag_270\n      jump\t// in\n    tag_463:\n        /* \"#utility.yul\":18271:18355   */\n    tag_462:\n        /* \"#utility.yul\":18092:18361   */\n      pop\n        /* \"#utility.yul\":18041:18361   */\n      swap2\n      swap1\n      pop\n      jump\t// out\n        /* \"#utility.yul\":18367:18547   */\n    tag_271:\n        /* \"#utility.yul\":18507:18539   */\n      0x536f72727921205468652070617469656e742069732044656365617365640000\n        /* \"#utility.yul\":18503:18504   */\n      0x00\n        /* \"#utility.yul\":18495:18501   */\n      dup3\n        /* \"#utility.yul\":18491:18505   */\n      add\n        /* \"#utility.yul\":18484:18540   */\n      mstore\n        /* \"#utility.yul\":18367:18547   */\n      pop\n      jump\t// out\n        /* \"#utility.yul\":18553:18919   */\n    tag_272:\n        /* \"#utility.yul\":18695:18698   */\n      0x00\n        /* \"#utility.yul\":18716:18783   */\n      tag_466\n        /* \"#utility.yul\":18780:18782   */\n      0x1e\n        /* \"#utility.yul\":18775:18778   */\n      dup4\n        /* \"#utility.yul\":18716:18783   */\n      tag_237\n      jump\t// in\n    tag_466:\n        /* \"#utility.yul\":18709:18783   */\n      swap2\n      pop\n        /* \"#utility.yul\":18792:18885   */\n      tag_467\n        /* \"#utility.yul\":18881:18884   */\n      dup3\n        /* \"#utility.yul\":18792:18885   */\n      tag_271\n      jump\t// in\n    tag_467:\n        /* \"#utility.yul\":18910:18912   */\n      0x20\n        /* \"#utility.yul\":18905:18908   */\n      dup3\n        /* \"#utility.yul\":18901:18913   */\n      add\n        /* \"#utility.yul\":18894:18913   */\n      swap1\n      pop\n        /* \"#utility.yul\":18553:18919   */\n      swap2\n      swap1\n      pop\n      jump\t// out\n        /* \"#utility.yul\":18925:19344   */\n    tag_97:\n        /* \"#utility.yul\":19091:19095   */\n      0x00\n        /* \"#utility.yul\":19129:19131   */\n      0x20\n        /* \"#utility.yul\":19118:19127   */\n      dup3\n        /* \"#utility.yul\":19114:19132   */\n      add\n        /* \"#utility.yul\":19106:19132   */\n      swap1\n      pop\n        /* \"#utility.yul\":19178:19187   */\n      dup2\n        /* \"#utility.yul\":19172:19176   */\n      dup2\n        /* \"#utility.yul\":19168:19188   */\n      sub\n        /* \"#utility.yul\":19164:19165   */\n      0x00\n        /* \"#utility.yul\":19153:19162   */\n      dup4\n        /* \"#utility.yul\":19149:19166   */\n      add\n        /* \"#utility.yul\":19142:19189   */\n      mstore\n        /* \"#utility.yul\":19206:19337   */\n      tag_469\n        /* \"#utility.yul\":19332:19336   */\n      dup2\n        /* \"#utility.yul\":19206:19337   */\n      tag_272\n      jump\t// in\n    tag_469:\n        /* \"#utility.yul\":19198:19337   */\n      swap1\n      pop\n        /* \"#utility.yul\":18925:19344   */\n      swap2\n      swap1\n      pop\n      jump\t// out\n        /* \"#utility.yul\":19350:19491   */\n    tag_273:\n        /* \"#utility.yul\":19399:19403   */\n      0x00\n        /* \"#utility.yul\":19422:19425   */\n      dup2\n        /* \"#utility.yul\":19414:19425   */\n      swap1\n      pop\n        /* \"#utility.yul\":19445:19448   */\n      dup2\n        /* \"#utility.yul\":19442:19443   */\n      0x00\n        /* \"#utility.yul\":19435:19449   */\n      mstore\n        /* \"#utility.yul\":19479:19483   */\n      0x20\n        /* \"#utility.yul\":19476:19477   */\n      0x00\n        /* \"#utility.yul\":19466:19484   */\n      keccak256\n        /* \"#utility.yul\":19458:19484   */\n      swap1\n      pop\n        /* \"#utility.yul\":19350:19491   */\n      swap2\n      swap1\n      pop\n      jump\t// out\n        /* \"#utility.yul\":19497:19590   */\n    tag_274:\n        /* \"#utility.yul\":19534:19540   */\n      0x00\n        /* \"#utility.yul\":19581:19583   */\n      0x20\n        /* \"#utility.yul\":19576:19578   */\n      0x1f\n        /* \"#utility.yul\":19569:19574   */\n      dup4\n        /* \"#utility.yul\":19565:19579   */\n      add\n        /* \"#utility.yul\":19561:19584   */\n      div\n        /* \"#utility.yul\":19551:19584   */\n      swap1\n      pop\n        /* \"#utility.yul\":19497:19590   */\n      swap2\n      swap1\n      pop\n      jump\t// out\n        /* \"#utility.yul\":19596:19703   */\n    tag_275:\n        /* \"#utility.yul\":19640:19648   */\n      0x00\n        /* \"#utility.yul\":19690:19695   */\n      dup3\n        /* \"#utility.yul\":19684:19688   */\n      dup3\n        /* \"#utility.yul\":19680:19696   */\n      shl\n        /* \"#utility.yul\":19659:19696   */\n      swap1\n      pop\n        /* \"#utility.yul\":19596:19703   */\n      swap3\n      swap2\n      pop\n      pop\n      jump\t// out\n        /* \"#utility.yul\":19709:20102   */\n    tag_276:\n        /* \"#utility.yul\":19778:19784   */\n      0x00\n        /* \"#utility.yul\":19828:19829   */\n      0x08\n        /* \"#utility.yul\":19816:19826   */\n      dup4\n        /* \"#utility.yul\":19812:19830   */\n      mul\n        /* \"#utility.yul\":19851:19948   */\n      tag_474\n        /* \"#utility.yul\":19881:19947   */\n      0xffffffffffffffffffffffffffffffffffffffffffffffffffffffffffffffff\n        /* \"#utility.yul\":19870:19879   */\n      dup3\n        /* \"#utility.yul\":19851:19948   */\n      tag_275\n      jump\t// in\n    tag_474:\n        /* \"#utility.yul\":19969:20008   */\n      tag_475\n        /* \"#utility.yul\":19999:20007   */\n      dup7\n        /* \"#utility.yul\":19988:19997   */\n      dup4\n        /* \"#utility.yul\":19969:20008   */\n      tag_275\n      jump\t// in\n    tag_475:\n        /* \"#utility.yul\":19957:20008   */\n      swap6\n      pop\n        /* \"#utility.yul\":20041:20045   */\n      dup1\n        /* \"#utility.yul\":20037:20046   */\n      not\n        /* \"#utility.yul\":20030:20035   */\n      dup5\n        /* \"#utility.yul\":20026:20047   */\n      and\n        /* \"#utility.yul\":20017:20047   */\n      swap4\n      pop\n        /* \"#utility.yul\":20090:20094   */\n      dup1\n        /* \"#utility.yul\":20080:20088   */\n      dup7\n        /* \"#utility.yul\":20076:20095   */\n      and\n        /* \"#utility.yul\":20069:20074   */\n      dup5\n        /* \"#utility.yul\":20066:20096   */\n      or\n        /* \"#utility.yul\":20056:20096   */\n      swap3\n      pop\n        /* \"#utility.yul\":19785:20102   */\n      pop\n      pop\n        /* \"#utility.yul\":19709:20102   */\n      swap4\n      swap3\n      pop\n      pop\n      pop\n      jump\t// out\n        /* \"#utility.yul\":20108:20168   */\n    tag_277:\n        /* \"#utility.yul\":20136:20139   */\n      0x00\n        /* \"#utility.yul\":20157:20162   */\n      dup2\n        /* \"#utility.yul\":20150:20162   */\n      swap1\n      pop\n        /* \"#utility.yul\":20108:20168   */\n      swap2\n      swap1\n      pop\n      jump\t// out\n        /* \"#utility.yul\":20174:20316   */\n    tag_278:\n        /* \"#utility.yul\":20224:20233   */\n      0x00\n        /* \"#utility.yul\":20257:20310   */\n      tag_478\n        /* \"#utility.yul\":20275:20309   */\n      tag_479\n        /* \"#utility.yul\":20284:20308   */\n      tag_480\n        /* \"#utility.yul\":20302:20307   */\n      dup5\n        /* \"#utility.yul\":20284:20308   */\n      tag_241\n      jump\t// in\n    tag_480:\n        /* \"#utility.yul\":20275:20309   */\n      tag_277\n      jump\t// in\n    tag_479:\n        /* \"#utility.yul\":20257:20310   */\n      tag_241\n      jump\t// in\n    tag_478:\n        /* \"#utility.yul\":20244:20310   */\n      swap1\n      pop\n        /* \"#utility.yul\":20174:20316   */\n      swap2\n      swap1\n      pop\n      jump\t// out\n        /* \"#utility.yul\":20322:20397   */\n    tag_279:\n        /* \"#utility.yul\":20365:20368   */\n      0x00\n        /* \"#utility.yul\":20386:20391   */\n      dup2\n        /* \"#utility.yul\":20379:20391   */\n      swap1\n      pop\n        /* \"#utility.yul\":20322:20397   */\n      swap2\n      swap1\n      pop\n      jump\t// out\n        /* \"#utility.yul\":20403:20672   */\n    tag_280:\n        /* \"#utility.yul\":20513:20552   */\n      tag_483\n        /* \"#utility.yul\":20544:20551   */\n      dup4\n        /* \"#utility.yul\":20513:20552   */\n      tag_278\n      jump\t// in\n    tag_483:\n        /* \"#utility.yul\":20574:20665   */\n      tag_484\n        /* \"#utility.yul\":20623:20664   */\n      tag_485\n        /* \"#utility.yul\":20647:20663   */\n      dup3\n        /* \"#utility.yul\":20623:20664   */\n      tag_279\n      jump\t// in\n    tag_485:\n        /* \"#utility.yul\":20615:20621   */\n      dup5\n        /* \"#utility.yul\":20608:20612   */\n      dup5\n        /* \"#utility.yul\":20602:20613   */\n      sload\n        /* \"#utility.yul\":20574:20665   */\n      tag_276\n      jump\t// in\n    tag_484:\n        /* \"#utility.yul\":20568:20572   */\n      dup3\n        /* \"#utility.yul\":20561:20666   */\n      sstore\n        /* \"#utility.yul\":20479:20672   */\n      pop\n        /* \"#utility.yul\":20403:20672   */\n      pop\n      pop\n      pop\n      jump\t// out\n        /* \"#utility.yul\":20678:20751   */\n    tag_281:\n        /* \"#utility.yul\":20723:20726   */\n      0x00\n        /* \"#utility.yul\":20678:20751   */\n      swap1\n      jump\t// out\n        /* \"#utility.yul\":20757:20946   */\n    tag_282:\n        /* \"#utility.yul\":20834:20866   */\n      tag_488\n      tag_281\n      jump\t// in\n    tag_488:\n        /* \"#utility.yul\":20875:20940   */\n      tag_489\n        /* \"#utility.yul\":20933:20939   */\n      dup2\n        /* \"#utility.yul\":20925:20931   */\n      dup5\n        /* \"#utility.yul\":20919:20923   */\n      dup5\n        /* \"#utility.yul\":20875:20940   */\n      tag_280\n      jump\t// in\n    tag_489:\n        /* \"#utility.yul\":20810:20946   */\n      pop\n        /* \"#utility.yul\":20757:20946   */\n      pop\n      pop\n      jump\t// out\n        /* \"#utility.yul\":20952:21138   */\n    tag_283:\n        /* \"#utility.yul\":21012:21132   */\n    tag_491:\n        /* \"#utility.yul\":21029:21032   */\n      dup2\n        /* \"#utility.yul\":21022:21027   */\n      dup2\n        /* \"#utility.yul\":21019:21033   */\n      lt\n        /* \"#utility.yul\":21012:21132   */\n      iszero\n      tag_493\n      jumpi\n        /* \"#utility.yul\":21083:21122   */\n      tag_494\n        /* \"#utility.yul\":21120:21121   */\n      0x00\n        /* \"#utility.yul\":21113:21118   */\n      dup3\n        /* \"#utility.yul\":21083:21122   */\n      tag_282\n      jump\t// in\n    tag_494:\n        /* \"#utility.yul\":21056:21057   */\n      0x01\n        /* \"#utility.yul\":21049:21054   */\n      dup2\n        /* \"#utility.yul\":21045:21058   */\n      add\n        /* \"#utility.yul\":21036:21058   */\n      swap1\n      pop\n        /* \"#utility.yul\":21012:21132   */\n      jump(tag_491)\n    tag_493:\n        /* \"#utility.yul\":20952:21138   */\n      pop\n      pop\n      jump\t// out\n        /* \"#utility.yul\":21144:21687   */\n    tag_284:\n        /* \"#utility.yul\":21245:21247   */\n      0x1f\n        /* \"#utility.yul\":21240:21243   */\n      dup3\n        /* \"#utility.yul\":21237:21248   */\n      gt\n        /* \"#utility.yul\":21234:21680   */\n      iszero\n      tag_496\n      jumpi\n        /* \"#utility.yul\":21279:21317   */\n      tag_497\n        /* \"#utility.yul\":21311:21316   */\n      dup2\n        /* \"#utility.yul\":21279:21317   */\n      tag_273\n      jump\t// in\n    tag_497:\n        /* \"#utility.yul\":21363:21392   */\n      tag_498\n        /* \"#utility.yul\":21381:21391   */\n      dup5\n        /* \"#utility.yul\":21363:21392   */\n      tag_274\n      jump\t// in\n    tag_498:\n        /* \"#utility.yul\":21353:21361   */\n      dup2\n        /* \"#utility.yul\":21349:21393   */\n      add\n        /* \"#utility.yul\":21546:21548   */\n      0x20\n        /* \"#utility.yul\":21534:21544   */\n      dup6\n        /* \"#utility.yul\":21531:21549   */\n      lt\n        /* \"#utility.yul\":21528:21577   */\n      iszero\n      tag_499\n      jumpi\n        /* \"#utility.yul\":21567:21575   */\n      dup2\n        /* \"#utility.yul\":21552:21575   */\n      swap1\n      pop\n        /* \"#utility.yul\":21528:21577   */\n    tag_499:\n        /* \"#utility.yul\":21590:21670   */\n      tag_500\n        /* \"#utility.yul\":21646:21668   */\n      tag_501\n        /* \"#utility.yul\":21664:21667   */\n      dup6\n        /* \"#utility.yul\":21646:21668   */\n      tag_274\n      jump\t// in\n    tag_501:\n        /* \"#utility.yul\":21636:21644   */\n      dup4\n        /* \"#utility.yul\":21632:21669   */\n      add\n        /* \"#utility.yul\":21619:21630   */\n      dup3\n        /* \"#utility.yul\":21590:21670   */\n      tag_283\n      jump\t// in\n    tag_500:\n        /* \"#utility.yul\":21249:21680   */\n      pop\n      pop\n        /* \"#utility.yul\":21234:21680   */\n    tag_496:\n        /* \"#utility.yul\":21144:21687   */\n      pop\n      pop\n      pop\n      jump\t// out\n        /* \"#utility.yul\":21693:21810   */\n    tag_285:\n        /* \"#utility.yul\":21747:21755   */\n      0x00\n        /* \"#utility.yul\":21797:21802   */\n      dup3\n        /* \"#utility.yul\":21791:21795   */\n      dup3\n        /* \"#utility.yul\":21787:21803   */\n      shr\n        /* \"#utility.yul\":21766:21803   */\n      swap1\n      pop\n        /* \"#utility.yul\":21693:21810   */\n      swap3\n      swap2\n      pop\n      pop\n      jump\t// out\n        /* \"#utility.yul\":21816:21985   */\n    tag_286:\n        /* \"#utility.yul\":21860:21866   */\n      0x00\n        /* \"#utility.yul\":21893:21944   */\n      tag_504\n        /* \"#utility.yul\":21941:21942   */\n      0x00\n        /* \"#utility.yul\":21937:21943   */\n      not\n        /* \"#utility.yul\":21929:21934   */\n      dup5\n        /* \"#utility.yul\":21926:21927   */\n      0x08\n        /* \"#utility.yul\":21922:21935   */\n      mul\n        /* \"#utility.yul\":21893:21944   */\n      tag_285\n      jump\t// in\n    tag_504:\n        /* \"#utility.yul\":21889:21945   */\n      not\n        /* \"#utility.yul\":21974:21978   */\n      dup1\n        /* \"#utility.yul\":21968:21972   */\n      dup4\n        /* \"#utility.yul\":21964:21979   */\n      and\n        /* \"#utility.yul\":21954:21979   */\n      swap2\n      pop\n        /* \"#utility.yul\":21867:21985   */\n      pop\n        /* \"#utility.yul\":21816:21985   */\n      swap3\n      swap2\n      pop\n      pop\n      jump\t// out\n        /* \"#utility.yul\":21990:22285   */\n    tag_287:\n        /* \"#utility.yul\":22066:22070   */\n      0x00\n        /* \"#utility.yul\":22212:22241   */\n      tag_506\n        /* \"#utility.yul\":22237:22240   */\n      dup4\n        /* \"#utility.yul\":22231:22235   */\n      dup4\n        /* \"#utility.yul\":22212:22241   */\n      tag_286\n      jump\t// in\n    tag_506:\n        /* \"#utility.yul\":22204:22241   */\n      swap2\n      pop\n        /* \"#utility.yul\":22274:22277   */\n      dup3\n        /* \"#utility.yul\":22271:22272   */\n      0x02\n        /* \"#utility.yul\":22267:22278   */\n      mul\n        /* \"#utility.yul\":22261:22265   */\n      dup3\n        /* \"#utility.yul\":22258:22279   */\n      or\n        /* \"#utility.yul\":22250:22279   */\n      swap1\n      pop\n        /* \"#utility.yul\":21990:22285   */\n      swap3\n      swap2\n      pop\n      pop\n      jump\t// out\n        /* \"#utility.yul\":22290:23685   */\n    tag_100:\n        /* \"#utility.yul\":22407:22444   */\n      tag_508\n        /* \"#utility.yul\":22440:22443   */\n      dup3\n        /* \"#utility.yul\":22407:22444   */\n      tag_236\n      jump\t// in\n    tag_508:\n        /* \"#utility.yul\":22509:22527   */\n      0xffffffffffffffff\n        /* \"#utility.yul\":22501:22507   */\n      dup2\n        /* \"#utility.yul\":22498:22528   */\n      gt\n        /* \"#utility.yul\":22495:22551   */\n      iszero\n      tag_509\n      jumpi\n        /* \"#utility.yul\":22531:22549   */\n      tag_510\n      tag_248\n      jump\t// in\n    tag_510:\n        /* \"#utility.yul\":22495:22551   */\n    tag_509:\n        /* \"#utility.yul\":22575:22613   */\n      tag_511\n        /* \"#utility.yul\":22607:22611   */\n      dup3\n        /* \"#utility.yul\":22601:22612   */\n      sload\n        /* \"#utility.yul\":22575:22613   */\n      tag_33\n      jump\t// in\n    tag_511:\n        /* \"#utility.yul\":22660:22727   */\n      tag_512\n        /* \"#utility.yul\":22720:22726   */\n      dup3\n        /* \"#utility.yul\":22712:22718   */\n      dup3\n        /* \"#utility.yul\":22706:22710   */\n      dup6\n        /* \"#utility.yul\":22660:22727   */\n      tag_284\n      jump\t// in\n    tag_512:\n        /* \"#utility.yul\":22754:22755   */\n      0x00\n        /* \"#utility.yul\":22778:22782   */\n      0x20\n        /* \"#utility.yul\":22765:22782   */\n      swap1\n      pop\n        /* \"#utility.yul\":22810:22812   */\n      0x1f\n        /* \"#utility.yul\":22802:22808   */\n      dup4\n        /* \"#utility.yul\":22799:22813   */\n      gt\n        /* \"#utility.yul\":22827:22828   */\n      0x01\n        /* \"#utility.yul\":22822:23440   */\n      dup2\n      eq\n      tag_514\n      jumpi\n        /* \"#utility.yul\":23484:23485   */\n      0x00\n        /* \"#utility.yul\":23501:23507   */\n      dup5\n        /* \"#utility.yul\":23498:23575   */\n      iszero\n      tag_515\n      jumpi\n        /* \"#utility.yul\":23550:23559   */\n      dup3\n        /* \"#utility.yul\":23545:23548   */\n      dup8\n        /* \"#utility.yul\":23541:23560   */\n      add\n        /* \"#utility.yul\":23535:23561   */\n      mload\n        /* \"#utility.yul\":23526:23561   */\n      swap1\n      pop\n        /* \"#utility.yul\":23498:23575   */\n    tag_515:\n        /* \"#utility.yul\":23601:23668   */\n      tag_516\n        /* \"#utility.yul\":23661:23667   */\n      dup6\n        /* \"#utility.yul\":23654:23659   */\n      dup3\n        /* \"#utility.yul\":23601:23668   */\n      tag_287\n      jump\t// in\n    tag_516:\n        /* \"#utility.yul\":23595:23599   */\n      dup7\n        /* \"#utility.yul\":23588:23669   */\n      sstore\n        /* \"#utility.yul\":23457:23679   */\n      pop\n        /* \"#utility.yul\":22792:23679   */\n      jump(tag_513)\n        /* \"#utility.yul\":22822:23440   */\n    tag_514:\n        /* \"#utility.yul\":22874:22878   */\n      0x1f\n        /* \"#utility.yul\":22870:22879   */\n      not\n        /* \"#utility.yul\":22862:22868   */\n      dup5\n        /* \"#utility.yul\":22858:22880   */\n      and\n        /* \"#utility.yul\":22908:22945   */\n      tag_517\n        /* \"#utility.yul\":22940:22944   */\n      dup7\n        /* \"#utility.yul\":22908:22945   */\n      tag_273\n      jump\t// in\n    tag_517:\n        /* \"#utility.yul\":22967:22968   */\n      0x00\n        /* \"#utility.yul\":22981:23189   */\n    tag_518:\n        /* \"#utility.yul\":22995:23002   */\n      dup3\n        /* \"#utility.yul\":22992:22993   */\n      dup2\n        /* \"#utility.yul\":22989:23003   */\n      lt\n        /* \"#utility.yul\":22981:23189   */\n      iszero\n      tag_520\n      jumpi\n        /* \"#utility.yul\":23074:23083   */\n      dup5\n        /* \"#utility.yul\":23069:23072   */\n      dup10\n        /* \"#utility.yul\":23065:23084   */\n      add\n        /* \"#utility.yul\":23059:23085   */\n      mload\n        /* \"#utility.yul\":23051:23057   */\n      dup3\n        /* \"#utility.yul\":23044:23086   */\n      sstore\n        /* \"#utility.yul\":23125:23126   */\n      0x01\n        /* \"#utility.yul\":23117:23123   */\n      dup3\n        /* \"#utility.yul\":23113:23127   */\n      add\n        /* \"#utility.yul\":23103:23127   */\n      swap2\n      pop\n        /* \"#utility.yul\":23172:23174   */\n      0x20\n        /* \"#utility.yul\":23161:23170   */\n      dup6\n        /* \"#utility.yul\":23157:23175   */\n      add\n        /* \"#utility.yul\":23144:23175   */\n      swap5\n      pop\n        /* \"#utility.yul\":23018:23022   */\n      0x20\n        /* \"#utility.yul\":23015:23016   */\n      dup2\n        /* \"#utility.yul\":23011:23023   */\n      add\n        /* \"#utility.yul\":23006:23023   */\n      swap1\n      pop\n        /* \"#utility.yul\":22981:23189   */\n      jump(tag_518)\n    tag_520:\n        /* \"#utility.yul\":23217:23223   */\n      dup7\n        /* \"#utility.yul\":23208:23215   */\n      dup4\n        /* \"#utility.yul\":23205:23224   */\n      lt\n        /* \"#utility.yul\":23202:23381   */\n      iszero\n      tag_521\n      jumpi\n        /* \"#utility.yul\":23275:23284   */\n      dup5\n        /* \"#utility.yul\":23270:23273   */\n      dup10\n        /* \"#utility.yul\":23266:23285   */\n      add\n        /* \"#utility.yul\":23260:23286   */\n      mload\n        /* \"#utility.yul\":23318:23366   */\n      tag_522\n        /* \"#utility.yul\":23360:23364   */\n      0x1f\n        /* \"#utility.yul\":23352:23358   */\n      dup10\n        /* \"#utility.yul\":23348:23365   */\n      and\n        /* \"#utility.yul\":23337:23346   */\n      dup3\n        /* \"#utility.yul\":23318:23366   */\n      tag_286\n      jump\t// in\n    tag_522:\n        /* \"#utility.yul\":23310:23316   */\n      dup4\n        /* \"#utility.yul\":23303:23367   */\n      sstore\n        /* \"#utility.yul\":23225:23381   */\n      pop\n        /* \"#utility.yul\":23202:23381   */\n    tag_521:\n        /* \"#utility.yul\":23427:23428   */\n      0x01\n        /* \"#utility.yul\":23423:23424   */\n      0x02\n        /* \"#utility.yul\":23415:23421   */\n      dup9\n        /* \"#utility.yul\":23411:23425   */\n      mul\n        /* \"#utility.yul\":23407:23429   */\n      add\n        /* \"#utility.yul\":23401:23405   */\n      dup9\n        /* \"#utility.yul\":23394:23430   */\n      sstore\n        /* \"#utility.yul\":22829:23440   */\n      pop\n      pop\n      pop\n        /* \"#utility.yul\":22792:23679   */\n    tag_513:\n      pop\n        /* \"#utility.yul\":22382:23685   */\n      pop\n      pop\n      pop\n        /* \"#utility.yul\":22290:23685   */\n      pop\n      pop\n      jump\t// out\n\n    auxdata: 0xa2646970667358221220c084c93c0c443dc6837b52964da56a88af22a24e6aeb4e6ae40e52dfd55c06ee64736f6c63430008170033\n}\n",
				"bytecode": {
					"linkReferences": {},
					"object": "608060405234801561000f575f80fd5b506122d08061001d5f395ff3fe608060405234801561000f575f80fd5b5060043610610055575f3560e01c80632e608c02146100595780633ac362211461008c5780635a81e61b146100a85780635ebcf7b3146100c4578063b5368e20146100f4575b5f80fd5b610073600480360381019061006e9190611759565b61012c565b6040516100839493929190611840565b60405180910390f35b6100a660048036038101906100a19190611af3565b61026f565b005b6100c260048036038101906100bd9190611c1c565b6108c2565b005b6100de60048036038101906100d99190611759565b610a38565b6040516100eb9190611d91565b60405180910390f35b61010e60048036038101906101099190611759565b611010565b60405161012399989796959493929190611ead565b60405180910390f35b5f602052805f5260405f205f91509050805f01805461014a90611f96565b80601f016020809104026020016040519081016040528092919081815260200182805461017690611f96565b80156101c15780601f10610198576101008083540402835291602001916101c1565b820191905f5260205f20905b8154815290600101906020018083116101a457829003601f168201915b5050505050908060010154908060020180546101dc90611f96565b80601f016020809104026020016040519081016040528092919081815260200182805461020890611f96565b80156102535780601f1061022a57610100808354040283529160200191610253565b820191905f5260205f20905b81548152906001019060200180831161023657829003601f168201915b505050505090806008015f9054906101000a900460ff16905084565b5f805f3373ffffffffffffffffffffffffffffffffffffffff1673ffffffffffffffffffffffffffffffffffffffff1681526020019081526020015f20604051806101200160405290815f820180546102c790611f96565b80601f01602080910402602001604051908101604052809291908181526020018280546102f390611f96565b801561033e5780601f106103155761010080835404028352916020019161033e565b820191905f5260205f20905b81548152906001019060200180831161032157829003601f168201915b505050505081526020016001820154815260200160028201805461036190611f96565b80601f016020809104026020016040519081016040528092919081815260200182805461038d90611f96565b80156103d85780601f106103af576101008083540402835291602001916103d8565b820191905f5260205f20905b8154815290600101906020018083116103bb57829003601f168201915b5050505050815260200160038201805480602002602001604051908101604052809291908181526020015f905b828210156104ad578382905f5260205f2001805461042290611f96565b80601f016020809104026020016040519081016040528092919081815260200182805461044e90611f96565b80156104995780601f1061047057610100808354040283529160200191610499565b820191905f5260205f20905b81548152906001019060200180831161047c57829003601f168201915b505050505081526020019060010190610405565b50505050815260200160048201805480602002602001604051908101604052809291908181526020015f905b82821015610581578382905f5260205f200180546104f690611f96565b80601f016020809104026020016040519081016040528092919081815260200182805461052290611f96565b801561056d5780601f106105445761010080835404028352916020019161056d565b820191905f5260205f20905b81548152906001019060200180831161055057829003601f168201915b5050505050815260200190600101906104d9565b50505050815260200160058201805480602002602001604051908101604052809291908181526020015f905b82821015610655578382905f5260205f200180546105ca90611f96565b80601f01602080910402602001604051908101604052809291908181526020018280546105f690611f96565b80156106415780601f1061061857610100808354040283529160200191610641565b820191905f5260205f20905b81548152906001019060200180831161062457829003601f168201915b5050505050815260200190600101906105ad565b50505050815260200160068201805480602002602001604051908101604052809291908181526020015f905b82821015610729578382905f5260205f2001805461069e90611f96565b80601f01602080910402602001604051908101604052809291908181526020018280546106ca90611f96565b80156107155780601f106106ec57610100808354040283529160200191610715565b820191905f5260205f20905b8154815290600101906020018083116106f857829003601f168201915b505050505081526020019060010190610681565b50505050815260200160078201805480602002602001604051908101604052809291908181526020015f905b828210156107fd578382905f5260205f2001805461077290611f96565b80601f016020809104026020016040519081016040528092919081815260200182805461079e90611f96565b80156107e95780601f106107c0576101008083540402835291602001916107e9565b820191905f5260205f20905b8154815290600101906020018083116107cc57829003601f168201915b505050505081526020019060010190610755565b505050508152602001600882015f9054906101000a900460ff16151515158152505090506001151561082e33610a38565b151514610870576040517f08c379a000000000000000000000000000000000000000000000000000000000815260040161086790612010565b60405180910390fd5b87816020018181525050868160600181905250858160800181905250848160a00181905250838160c00181905250828160e0018190525081816101000190151590811515815250505050505050505050565b5f6040518061012001604052808a8152602001898152602001888152602001878152602001868152602001858152602001848152602001838152602001600115158152509050805f803373ffffffffffffffffffffffffffffffffffffffff1673ffffffffffffffffffffffffffffffffffffffff1681526020019081526020015f205f820151815f01908161095891906121cb565b5060208201518160010155604082015181600201908161097891906121cb565b50606082015181600301908051906020019061099592919061161c565b5060808201518160040190805190602001906109b292919061161c565b5060a08201518160050190805190602001906109cf92919061161c565b5060c08201518160060190805190602001906109ec92919061161c565b5060e0820151816007019080519060200190610a0992919061161c565b50610100820151816008015f6101000a81548160ff021916908315150217905550905050505050505050505050565b5f805f808473ffffffffffffffffffffffffffffffffffffffff1673ffffffffffffffffffffffffffffffffffffffff1681526020019081526020015f20604051806101200160405290815f82018054610a9190611f96565b80601f0160208091040260200160405190810160405280929190818152602001828054610abd90611f96565b8015610b085780601f10610adf57610100808354040283529160200191610b08565b820191905f5260205f20905b815481529060010190602001808311610aeb57829003601f168201915b5050505050815260200160018201548152602001600282018054610b2b90611f96565b80601f0160208091040260200160405190810160405280929190818152602001828054610b5790611f96565b8015610ba25780601f10610b7957610100808354040283529160200191610ba2565b820191905f5260205f20905b815481529060010190602001808311610b8557829003601f168201915b5050505050815260200160038201805480602002602001604051908101604052809291908181526020015f905b82821015610c77578382905f5260205f20018054610bec90611f96565b80601f0160208091040260200160405190810160405280929190818152602001828054610c1890611f96565b8015610c635780601f10610c3a57610100808354040283529160200191610c63565b820191905f5260205f20905b815481529060010190602001808311610c4657829003601f168201915b505050505081526020019060010190610bcf565b50505050815260200160048201805480602002602001604051908101604052809291908181526020015f905b82821015610d4b578382905f5260205f20018054610cc090611f96565b80601f0160208091040260200160405190810160405280929190818152602001828054610cec90611f96565b8015610d375780601f10610d0e57610100808354040283529160200191610d37565b820191905f5260205f20905b815481529060010190602001808311610d1a57829003601f168201915b505050505081526020019060010190610ca3565b50505050815260200160058201805480602002602001604051908101604052809291908181526020015f905b82821015610e1f578382905f5260205f20018054610d9490611f96565b80601f0160208091040260200160405190810160405280929190818152602001828054610dc090611f96565b8015610e0b5780601f10610de257610100808354040283529160200191610e0b565b820191905f5260205f20905b815481529060010190602001808311610dee57829003601f168201915b505050505081526020019060010190610d77565b50505050815260200160068201805480602002602001604051908101604052809291908181526020015f905b82821015610ef3578382905f5260205f20018054610e6890611f96565b80601f0160208091040260200160405190810160405280929190818152602001828054610e9490611f96565b8015610edf5780601f10610eb657610100808354040283529160200191610edf565b820191905f5260205f20905b815481529060010190602001808311610ec257829003601f168201915b505050505081526020019060010190610e4b565b50505050815260200160078201805480602002602001604051908101604052809291908181526020015f905b82821015610fc7578382905f5260205f20018054610f3c90611f96565b80601f0160208091040260200160405190810160405280929190818152602001828054610f6890611f96565b8015610fb35780601f10610f8a57610100808354040283529160200191610fb3565b820191905f5260205f20905b815481529060010190602001808311610f9657829003601f168201915b505050505081526020019060010190610f1f565b505050508152602001600882015f9054906101000a900460ff16151515158152505090506001151581610100015115150361100657600191505061100b565b5f9150505b919050565b60605f6060806060806060805f805f808c73ffffffffffffffffffffffffffffffffffffffff1673ffffffffffffffffffffffffffffffffffffffff1681526020019081526020015f20604051806101200160405290815f8201805461107590611f96565b80601f01602080910402602001604051908101604052809291908181526020018280546110a190611f96565b80156110ec5780601f106110c3576101008083540402835291602001916110ec565b820191905f5260205f20905b8154815290600101906020018083116110cf57829003601f168201915b505050505081526020016001820154815260200160028201805461110f90611f96565b80601f016020809104026020016040519081016040528092919081815260200182805461113b90611f96565b80156111865780601f1061115d57610100808354040283529160200191611186565b820191905f5260205f20905b81548152906001019060200180831161116957829003601f168201915b5050505050815260200160038201805480602002602001604051908101604052809291908181526020015f905b8282101561125b578382905f5260205f200180546111d090611f96565b80601f01602080910402602001604051908101604052809291908181526020018280546111fc90611f96565b80156112475780601f1061121e57610100808354040283529160200191611247565b820191905f5260205f20905b81548152906001019060200180831161122a57829003601f168201915b5050505050815260200190600101906111b3565b50505050815260200160048201805480602002602001604051908101604052809291908181526020015f905b8282101561132f578382905f5260205f200180546112a490611f96565b80601f01602080910402602001604051908101604052809291908181526020018280546112d090611f96565b801561131b5780601f106112f25761010080835404028352916020019161131b565b820191905f5260205f20905b8154815290600101906020018083116112fe57829003601f168201915b505050505081526020019060010190611287565b50505050815260200160058201805480602002602001604051908101604052809291908181526020015f905b82821015611403578382905f5260205f2001805461137890611f96565b80601f01602080910402602001604051908101604052809291908181526020018280546113a490611f96565b80156113ef5780601f106113c6576101008083540402835291602001916113ef565b820191905f5260205f20905b8154815290600101906020018083116113d257829003601f168201915b50505050508152602001906001019061135b565b50505050815260200160068201805480602002602001604051908101604052809291908181526020015f905b828210156114d7578382905f5260205f2001805461144c90611f96565b80601f016020809104026020016040519081016040528092919081815260200182805461147890611f96565b80156114c35780601f1061149a576101008083540402835291602001916114c3565b820191905f5260205f20905b8154815290600101906020018083116114a657829003601f168201915b50505050508152602001906001019061142f565b50505050815260200160078201805480602002602001604051908101604052809291908181526020015f905b828210156115ab578382905f5260205f2001805461152090611f96565b80601f016020809104026020016040519081016040528092919081815260200182805461154c90611f96565b80156115975780601f1061156e57610100808354040283529160200191611597565b820191905f5260205f20905b81548152906001019060200180831161157a57829003601f168201915b505050505081526020019060010190611503565b505050508152602001600882015f9054906101000a900460ff1615151515815250509050805f015181602001518260400151836060015184608001518560c001518660a001518760e00151886101000151995099509950995099509950995099509950509193959799909294969850565b828054828255905f5260205f20908101928215611662579160200282015b8281111561166157825182908161165191906121cb565b509160200191906001019061163a565b5b50905061166f9190611673565b5090565b5b80821115611692575f81816116899190611696565b50600101611674565b5090565b5080546116a290611f96565b5f825580601f106116b357506116d0565b601f0160209004905f5260205f20908101906116cf91906116d3565b5b50565b5b808211156116ea575f815f9055506001016116d4565b5090565b5f604051905090565b5f80fd5b5f80fd5b5f73ffffffffffffffffffffffffffffffffffffffff82169050919050565b5f611728826116ff565b9050919050565b6117388161171e565b8114611742575f80fd5b50565b5f813590506117538161172f565b92915050565b5f6020828403121561176e5761176d6116f7565b5b5f61177b84828501611745565b91505092915050565b5f81519050919050565b5f82825260208201905092915050565b5f5b838110156117bb5780820151818401526020810190506117a0565b5f8484015250505050565b5f601f19601f8301169050919050565b5f6117e082611784565b6117ea818561178e565b93506117fa81856020860161179e565b611803816117c6565b840191505092915050565b5f819050919050565b6118208161180e565b82525050565b5f8115159050919050565b61183a81611826565b82525050565b5f6080820190508181035f83015261185881876117d6565b90506118676020830186611817565b818103604083015261187981856117d6565b90506118886060830184611831565b95945050505050565b61189a8161180e565b81146118a4575f80fd5b50565b5f813590506118b581611891565b92915050565b5f80fd5b7f4e487b71000000000000000000000000000000000000000000000000000000005f52604160045260245ffd5b6118f5826117c6565b810181811067ffffffffffffffff82111715611914576119136118bf565b5b80604052505050565b5f6119266116ee565b905061193282826118ec565b919050565b5f67ffffffffffffffff821115611951576119506118bf565b5b602082029050602081019050919050565b5f80fd5b5f80fd5b5f67ffffffffffffffff821115611984576119836118bf565b5b61198d826117c6565b9050602081019050919050565b828183375f83830152505050565b5f6119ba6119b58461196a565b61191d565b9050828152602081018484840111156119d6576119d5611966565b5b6119e184828561199a565b509392505050565b5f82601f8301126119fd576119fc6118bb565b5b8135611a0d8482602086016119a8565b91505092915050565b5f611a28611a2384611937565b61191d565b90508083825260208201905060208402830185811115611a4b57611a4a611962565b5b835b81811015611a9257803567ffffffffffffffff811115611a7057611a6f6118bb565b5b808601611a7d89826119e9565b85526020850194505050602081019050611a4d565b5050509392505050565b5f82601f830112611ab057611aaf6118bb565b5b8135611ac0848260208601611a16565b91505092915050565b611ad281611826565b8114611adc575f80fd5b50565b5f81359050611aed81611ac9565b92915050565b5f805f805f805f60e0888a031215611b0e57611b0d6116f7565b5b5f611b1b8a828b016118a7565b975050602088013567ffffffffffffffff811115611b3c57611b3b6116fb565b5b611b488a828b01611a9c565b965050604088013567ffffffffffffffff811115611b6957611b686116fb565b5b611b758a828b01611a9c565b955050606088013567ffffffffffffffff811115611b9657611b956116fb565b5b611ba28a828b01611a9c565b945050608088013567ffffffffffffffff811115611bc357611bc26116fb565b5b611bcf8a828b01611a9c565b93505060a088013567ffffffffffffffff811115611bf057611bef6116fb565b5b611bfc8a828b01611a9c565b92505060c0611c0d8a828b01611adf565b91505092959891949750929550565b5f805f805f805f80610100898b031215611c3957611c386116f7565b5b5f89013567ffffffffffffffff811115611c5657611c556116fb565b5b611c628b828c016119e9565b9850506020611c738b828c016118a7565b975050604089013567ffffffffffffffff811115611c9457611c936116fb565b5b611ca08b828c016119e9565b965050606089013567ffffffffffffffff811115611cc157611cc06116fb565b5b611ccd8b828c01611a9c565b955050608089013567ffffffffffffffff811115611cee57611ced6116fb565b5b611cfa8b828c01611a9c565b94505060a089013567ffffffffffffffff811115611d1b57611d1a6116fb565b5b611d278b828c01611a9c565b93505060c089013567ffffffffffffffff811115611d4857611d476116fb565b5b611d548b828c01611a9c565b92505060e089013567ffffffffffffffff811115611d7557611d746116fb565b5b611d818b828c01611a9c565b9150509295985092959890939650565b5f602082019050611da45f830184611831565b92915050565b5f81519050919050565b5f82825260208201905092915050565b5f819050602082019050919050565b5f82825260208201905092915050565b5f611ded82611784565b611df78185611dd3565b9350611e0781856020860161179e565b611e10816117c6565b840191505092915050565b5f611e268383611de3565b905092915050565b5f602082019050919050565b5f611e4482611daa565b611e4e8185611db4565b935083602082028501611e6085611dc4565b805f5b85811015611e9b5784840389528151611e7c8582611e1b565b9450611e8783611e2e565b925060208a01995050600181019050611e63565b50829750879550505050505092915050565b5f610120820190508181035f830152611ec6818c6117d6565b9050611ed5602083018b611817565b8181036040830152611ee7818a6117d6565b90508181036060830152611efb8189611e3a565b90508181036080830152611f0f8188611e3a565b905081810360a0830152611f238187611e3a565b905081810360c0830152611f378186611e3a565b905081810360e0830152611f4b8185611e3a565b9050611f5b610100830184611831565b9a9950505050505050505050565b7f4e487b71000000000000000000000000000000000000000000000000000000005f52602260045260245ffd5b5f6002820490506001821680611fad57607f821691505b602082108103611fc057611fbf611f69565b5b50919050565b7f536f72727921205468652070617469656e7420697320446563656173656400005f82015250565b5f611ffa601e8361178e565b915061200582611fc6565b602082019050919050565b5f6020820190508181035f83015261202781611fee565b9050919050565b5f819050815f5260205f209050919050565b5f6020601f8301049050919050565b5f82821b905092915050565b5f6008830261208a7fffffffffffffffffffffffffffffffffffffffffffffffffffffffffffffffff8261204f565b612094868361204f565b95508019841693508086168417925050509392505050565b5f819050919050565b5f6120cf6120ca6120c58461180e565b6120ac565b61180e565b9050919050565b5f819050919050565b6120e8836120b5565b6120fc6120f4826120d6565b84845461205b565b825550505050565b5f90565b612110612104565b61211b8184846120df565b505050565b5b8181101561213e576121335f82612108565b600181019050612121565b5050565b601f821115612183576121548161202e565b61215d84612040565b8101602085101561216c578190505b61218061217885612040565b830182612120565b50505b505050565b5f82821c905092915050565b5f6121a35f1984600802612188565b1980831691505092915050565b5f6121bb8383612194565b9150826002028217905092915050565b6121d482611784565b67ffffffffffffffff8111156121ed576121ec6118bf565b5b6121f78254611f96565b612202828285612142565b5f60209050601f831160018114612233575f8415612221578287015190505b61222b85826121b0565b865550612292565b601f1984166122418661202e565b5f5b8281101561226857848901518255600182019150602085019450602081019050612243565b868310156122855784890151612281601f891682612194565b8355505b6001600288020188555050505b50505050505056fea2646970667358221220c084c93c0c443dc6837b52964da56a88af22a24e6aeb4e6ae40e52dfd55c06ee64736f6c63430008170033",
					"opcodes": "PUSH1 0x80 PUSH1 0x40 MSTORE CALLVALUE DUP1 ISZERO PUSH2 0xF JUMPI PUSH0 DUP1 REVERT JUMPDEST POP PUSH2 0x22D0 DUP1 PUSH2 0x1D PUSH0 CODECOPY PUSH0 RETURN INVALID PUSH1 0x80 PUSH1 0x40 MSTORE CALLVALUE DUP1 ISZERO PUSH2 0xF JUMPI PUSH0 DUP1 REVERT JUMPDEST POP PUSH1 0x4 CALLDATASIZE LT PUSH2 0x55 JUMPI PUSH0 CALLDATALOAD PUSH1 0xE0 SHR DUP1 PUSH4 0x2E608C02 EQ PUSH2 0x59 JUMPI DUP1 PUSH4 0x3AC36221 EQ PUSH2 0x8C JUMPI DUP1 PUSH4 0x5A81E61B EQ PUSH2 0xA8 JUMPI DUP1 PUSH4 0x5EBCF7B3 EQ PUSH2 0xC4 JUMPI DUP1 PUSH4 0xB5368E20 EQ PUSH2 0xF4 JUMPI JUMPDEST PUSH0 DUP1 REVERT JUMPDEST PUSH2 0x73 PUSH1 0x4 DUP1 CALLDATASIZE SUB DUP2 ADD SWAP1 PUSH2 0x6E SWAP2 SWAP1 PUSH2 0x1759 JUMP JUMPDEST PUSH2 0x12C JUMP JUMPDEST PUSH1 0x40 MLOAD PUSH2 0x83 SWAP5 SWAP4 SWAP3 SWAP2 SWAP1 PUSH2 0x1840 JUMP JUMPDEST PUSH1 0x40 MLOAD DUP1 SWAP2 SUB SWAP1 RETURN JUMPDEST PUSH2 0xA6 PUSH1 0x4 DUP1 CALLDATASIZE SUB DUP2 ADD SWAP1 PUSH2 0xA1 SWAP2 SWAP1 PUSH2 0x1AF3 JUMP JUMPDEST PUSH2 0x26F JUMP JUMPDEST STOP JUMPDEST PUSH2 0xC2 PUSH1 0x4 DUP1 CALLDATASIZE SUB DUP2 ADD SWAP1 PUSH2 0xBD SWAP2 SWAP1 PUSH2 0x1C1C JUMP JUMPDEST PUSH2 0x8C2 JUMP JUMPDEST STOP JUMPDEST PUSH2 0xDE PUSH1 0x4 DUP1 CALLDATASIZE SUB DUP2 ADD SWAP1 PUSH2 0xD9 SWAP2 SWAP1 PUSH2 0x1759 JUMP JUMPDEST PUSH2 0xA38 JUMP JUMPDEST PUSH1 0x40 MLOAD PUSH2 0xEB SWAP2 SWAP1 PUSH2 0x1D91 JUMP JUMPDEST PUSH1 0x40 MLOAD DUP1 SWAP2 SUB SWAP1 RETURN JUMPDEST PUSH2 0x10E PUSH1 0x4 DUP1 CALLDATASIZE SUB DUP2 ADD SWAP1 PUSH2 0x109 SWAP2 SWAP1 PUSH2 0x1759 JUMP JUMPDEST PUSH2 0x1010 JUMP JUMPDEST PUSH1 0x40 MLOAD PUSH2 0x123 SWAP10 SWAP9 SWAP8 SWAP7 SWAP6 SWAP5 SWAP4 SWAP3 SWAP2 SWAP1 PUSH2 0x1EAD JUMP JUMPDEST PUSH1 0x40 MLOAD DUP1 SWAP2 SUB SWAP1 RETURN JUMPDEST PUSH0 PUSH1 0x20 MSTORE DUP1 PUSH0 MSTORE PUSH1 0x40 PUSH0 KECCAK256 PUSH0 SWAP2 POP SWAP1 POP DUP1 PUSH0 ADD DUP1 SLOAD PUSH2 0x14A SWAP1 PUSH2 0x1F96 JUMP JUMPDEST DUP1 PUSH1 0x1F ADD PUSH1 0x20 DUP1 SWAP2 DIV MUL PUSH1 0x20 ADD PUSH1 0x40 MLOAD SWAP1 DUP2 ADD PUSH1 0x40 MSTORE DUP1 SWAP3 SWAP2 SWAP1 DUP2 DUP2 MSTORE PUSH1 0x20 ADD DUP3 DUP1 SLOAD PUSH2 0x176 SWAP1 PUSH2 0x1F96 JUMP JUMPDEST DUP1 ISZERO PUSH2 0x1C1 JUMPI DUP1 PUSH1 0x1F LT PUSH2 0x198 JUMPI PUSH2 0x100 DUP1 DUP4 SLOAD DIV MUL DUP4 MSTORE SWAP2 PUSH1 0x20 ADD SWAP2 PUSH2 0x1C1 JUMP JUMPDEST DUP3 ADD SWAP2 SWAP1 PUSH0 MSTORE PUSH1 0x20 PUSH0 KECCAK256 SWAP1 JUMPDEST DUP2 SLOAD DUP2 MSTORE SWAP1 PUSH1 0x1 ADD SWAP1 PUSH1 0x20 ADD DUP1 DUP4 GT PUSH2 0x1A4 JUMPI DUP3 SWAP1 SUB PUSH1 0x1F AND DUP3 ADD SWAP2 JUMPDEST POP POP POP POP POP SWAP1 DUP1 PUSH1 0x1 ADD SLOAD SWAP1 DUP1 PUSH1 0x2 ADD DUP1 SLOAD PUSH2 0x1DC SWAP1 PUSH2 0x1F96 JUMP JUMPDEST DUP1 PUSH1 0x1F ADD PUSH1 0x20 DUP1 SWAP2 DIV MUL PUSH1 0x20 ADD PUSH1 0x40 MLOAD SWAP1 DUP2 ADD PUSH1 0x40 MSTORE DUP1 SWAP3 SWAP2 SWAP1 DUP2 DUP2 MSTORE PUSH1 0x20 ADD DUP3 DUP1 SLOAD PUSH2 0x208 SWAP1 PUSH2 0x1F96 JUMP JUMPDEST DUP1 ISZERO PUSH2 0x253 JUMPI DUP1 PUSH1 0x1F LT PUSH2 0x22A JUMPI PUSH2 0x100 DUP1 DUP4 SLOAD DIV MUL DUP4 MSTORE SWAP2 PUSH1 0x20 ADD SWAP2 PUSH2 0x253 JUMP JUMPDEST DUP3 ADD SWAP2 SWAP1 PUSH0 MSTORE PUSH1 0x20 PUSH0 KECCAK256 SWAP1 JUMPDEST DUP2 SLOAD DUP2 MSTORE SWAP1 PUSH1 0x1 ADD SWAP1 PUSH1 0x20 ADD DUP1 DUP4 GT PUSH2 0x236 JUMPI DUP3 SWAP1 SUB PUSH1 0x1F AND DUP3 ADD SWAP2 JUMPDEST POP POP POP POP POP SWAP1 DUP1 PUSH1 0x8 ADD PUSH0 SWAP1 SLOAD SWAP1 PUSH2 0x100 EXP SWAP1 DIV PUSH1 0xFF AND SWAP1 POP DUP5 JUMP JUMPDEST PUSH0 DUP1 PUSH0 CALLER PUSH20 0xFFFFFFFFFFFFFFFFFFFFFFFFFFFFFFFFFFFFFFFF AND PUSH20 0xFFFFFFFFFFFFFFFFFFFFFFFFFFFFFFFFFFFFFFFF AND DUP2 MSTORE PUSH1 0x20 ADD SWAP1 DUP2 MSTORE PUSH1 0x20 ADD PUSH0 KECCAK256 PUSH1 0x40 MLOAD DUP1 PUSH2 0x120 ADD PUSH1 0x40 MSTORE SWAP1 DUP2 PUSH0 DUP3 ADD DUP1 SLOAD PUSH2 0x2C7 SWAP1 PUSH2 0x1F96 JUMP JUMPDEST DUP1 PUSH1 0x1F ADD PUSH1 0x20 DUP1 SWAP2 DIV MUL PUSH1 0x20 ADD PUSH1 0x40 MLOAD SWAP1 DUP2 ADD PUSH1 0x40 MSTORE DUP1 SWAP3 SWAP2 SWAP1 DUP2 DUP2 MSTORE PUSH1 0x20 ADD DUP3 DUP1 SLOAD PUSH2 0x2F3 SWAP1 PUSH2 0x1F96 JUMP JUMPDEST DUP1 ISZERO PUSH2 0x33E JUMPI DUP1 PUSH1 0x1F LT PUSH2 0x315 JUMPI PUSH2 0x100 DUP1 DUP4 SLOAD DIV MUL DUP4 MSTORE SWAP2 PUSH1 0x20 ADD SWAP2 PUSH2 0x33E JUMP JUMPDEST DUP3 ADD SWAP2 SWAP1 PUSH0 MSTORE PUSH1 0x20 PUSH0 KECCAK256 SWAP1 JUMPDEST DUP2 SLOAD DUP2 MSTORE SWAP1 PUSH1 0x1 ADD SWAP1 PUSH1 0x20 ADD DUP1 DUP4 GT PUSH2 0x321 JUMPI DUP3 SWAP1 SUB PUSH1 0x1F AND DUP3 ADD SWAP2 JUMPDEST POP POP POP POP POP DUP2 MSTORE PUSH1 0x20 ADD PUSH1 0x1 DUP3 ADD SLOAD DUP2 MSTORE PUSH1 0x20 ADD PUSH1 0x2 DUP3 ADD DUP1 SLOAD PUSH2 0x361 SWAP1 PUSH2 0x1F96 JUMP JUMPDEST DUP1 PUSH1 0x1F ADD PUSH1 0x20 DUP1 SWAP2 DIV MUL PUSH1 0x20 ADD PUSH1 0x40 MLOAD SWAP1 DUP2 ADD PUSH1 0x40 MSTORE DUP1 SWAP3 SWAP2 SWAP1 DUP2 DUP2 MSTORE PUSH1 0x20 ADD DUP3 DUP1 SLOAD PUSH2 0x38D SWAP1 PUSH2 0x1F96 JUMP JUMPDEST DUP1 ISZERO PUSH2 0x3D8 JUMPI DUP1 PUSH1 0x1F LT PUSH2 0x3AF JUMPI PUSH2 0x100 DUP1 DUP4 SLOAD DIV MUL DUP4 MSTORE SWAP2 PUSH1 0x20 ADD SWAP2 PUSH2 0x3D8 JUMP JUMPDEST DUP3 ADD SWAP2 SWAP1 PUSH0 MSTORE PUSH1 0x20 PUSH0 KECCAK256 SWAP1 JUMPDEST DUP2 SLOAD DUP2 MSTORE SWAP1 PUSH1 0x1 ADD SWAP1 PUSH1 0x20 ADD DUP1 DUP4 GT PUSH2 0x3BB JUMPI DUP3 SWAP1 SUB PUSH1 0x1F AND DUP3 ADD SWAP2 JUMPDEST POP POP POP POP POP DUP2 MSTORE PUSH1 0x20 ADD PUSH1 0x3 DUP3 ADD DUP1 SLOAD DUP1 PUSH1 0x20 MUL PUSH1 0x20 ADD PUSH1 0x40 MLOAD SWAP1 DUP2 ADD PUSH1 0x40 MSTORE DUP1 SWAP3 SWAP2 SWAP1 DUP2 DUP2 MSTORE PUSH1 0x20 ADD PUSH0 SWAP1 JUMPDEST DUP3 DUP3 LT ISZERO PUSH2 0x4AD JUMPI DUP4 DUP3 SWAP1 PUSH0 MSTORE PUSH1 0x20 PUSH0 KECCAK256 ADD DUP1 SLOAD PUSH2 0x422 SWAP1 PUSH2 0x1F96 JUMP JUMPDEST DUP1 PUSH1 0x1F ADD PUSH1 0x20 DUP1 SWAP2 DIV MUL PUSH1 0x20 ADD PUSH1 0x40 MLOAD SWAP1 DUP2 ADD PUSH1 0x40 MSTORE DUP1 SWAP3 SWAP2 SWAP1 DUP2 DUP2 MSTORE PUSH1 0x20 ADD DUP3 DUP1 SLOAD PUSH2 0x44E SWAP1 PUSH2 0x1F96 JUMP JUMPDEST DUP1 ISZERO PUSH2 0x499 JUMPI DUP1 PUSH1 0x1F LT PUSH2 0x470 JUMPI PUSH2 0x100 DUP1 DUP4 SLOAD DIV MUL DUP4 MSTORE SWAP2 PUSH1 0x20 ADD SWAP2 PUSH2 0x499 JUMP JUMPDEST DUP3 ADD SWAP2 SWAP1 PUSH0 MSTORE PUSH1 0x20 PUSH0 KECCAK256 SWAP1 JUMPDEST DUP2 SLOAD DUP2 MSTORE SWAP1 PUSH1 0x1 ADD SWAP1 PUSH1 0x20 ADD DUP1 DUP4 GT PUSH2 0x47C JUMPI DUP3 SWAP1 SUB PUSH1 0x1F AND DUP3 ADD SWAP2 JUMPDEST POP POP POP POP POP DUP2 MSTORE PUSH1 0x20 ADD SWAP1 PUSH1 0x1 ADD SWAP1 PUSH2 0x405 JUMP JUMPDEST POP POP POP POP DUP2 MSTORE PUSH1 0x20 ADD PUSH1 0x4 DUP3 ADD DUP1 SLOAD DUP1 PUSH1 0x20 MUL PUSH1 0x20 ADD PUSH1 0x40 MLOAD SWAP1 DUP2 ADD PUSH1 0x40 MSTORE DUP1 SWAP3 SWAP2 SWAP1 DUP2 DUP2 MSTORE PUSH1 0x20 ADD PUSH0 SWAP1 JUMPDEST DUP3 DUP3 LT ISZERO PUSH2 0x581 JUMPI DUP4 DUP3 SWAP1 PUSH0 MSTORE PUSH1 0x20 PUSH0 KECCAK256 ADD DUP1 SLOAD PUSH2 0x4F6 SWAP1 PUSH2 0x1F96 JUMP JUMPDEST DUP1 PUSH1 0x1F ADD PUSH1 0x20 DUP1 SWAP2 DIV MUL PUSH1 0x20 ADD PUSH1 0x40 MLOAD SWAP1 DUP2 ADD PUSH1 0x40 MSTORE DUP1 SWAP3 SWAP2 SWAP1 DUP2 DUP2 MSTORE PUSH1 0x20 ADD DUP3 DUP1 SLOAD PUSH2 0x522 SWAP1 PUSH2 0x1F96 JUMP JUMPDEST DUP1 ISZERO PUSH2 0x56D JUMPI DUP1 PUSH1 0x1F LT PUSH2 0x544 JUMPI PUSH2 0x100 DUP1 DUP4 SLOAD DIV MUL DUP4 MSTORE SWAP2 PUSH1 0x20 ADD SWAP2 PUSH2 0x56D JUMP JUMPDEST DUP3 ADD SWAP2 SWAP1 PUSH0 MSTORE PUSH1 0x20 PUSH0 KECCAK256 SWAP1 JUMPDEST DUP2 SLOAD DUP2 MSTORE SWAP1 PUSH1 0x1 ADD SWAP1 PUSH1 0x20 ADD DUP1 DUP4 GT PUSH2 0x550 JUMPI DUP3 SWAP1 SUB PUSH1 0x1F AND DUP3 ADD SWAP2 JUMPDEST POP POP POP POP POP DUP2 MSTORE PUSH1 0x20 ADD SWAP1 PUSH1 0x1 ADD SWAP1 PUSH2 0x4D9 JUMP JUMPDEST POP POP POP POP DUP2 MSTORE PUSH1 0x20 ADD PUSH1 0x5 DUP3 ADD DUP1 SLOAD DUP1 PUSH1 0x20 MUL PUSH1 0x20 ADD PUSH1 0x40 MLOAD SWAP1 DUP2 ADD PUSH1 0x40 MSTORE DUP1 SWAP3 SWAP2 SWAP1 DUP2 DUP2 MSTORE PUSH1 0x20 ADD PUSH0 SWAP1 JUMPDEST DUP3 DUP3 LT ISZERO PUSH2 0x655 JUMPI DUP4 DUP3 SWAP1 PUSH0 MSTORE PUSH1 0x20 PUSH0 KECCAK256 ADD DUP1 SLOAD PUSH2 0x5CA SWAP1 PUSH2 0x1F96 JUMP JUMPDEST DUP1 PUSH1 0x1F ADD PUSH1 0x20 DUP1 SWAP2 DIV MUL PUSH1 0x20 ADD PUSH1 0x40 MLOAD SWAP1 DUP2 ADD PUSH1 0x40 MSTORE DUP1 SWAP3 SWAP2 SWAP1 DUP2 DUP2 MSTORE PUSH1 0x20 ADD DUP3 DUP1 SLOAD PUSH2 0x5F6 SWAP1 PUSH2 0x1F96 JUMP JUMPDEST DUP1 ISZERO PUSH2 0x641 JUMPI DUP1 PUSH1 0x1F LT PUSH2 0x618 JUMPI PUSH2 0x100 DUP1 DUP4 SLOAD DIV MUL DUP4 MSTORE SWAP2 PUSH1 0x20 ADD SWAP2 PUSH2 0x641 JUMP JUMPDEST DUP3 ADD SWAP2 SWAP1 PUSH0 MSTORE PUSH1 0x20 PUSH0 KECCAK256 SWAP1 JUMPDEST DUP2 SLOAD DUP2 MSTORE SWAP1 PUSH1 0x1 ADD SWAP1 PUSH1 0x20 ADD DUP1 DUP4 GT PUSH2 0x624 JUMPI DUP3 SWAP1 SUB PUSH1 0x1F AND DUP3 ADD SWAP2 JUMPDEST POP POP POP POP POP DUP2 MSTORE PUSH1 0x20 ADD SWAP1 PUSH1 0x1 ADD SWAP1 PUSH2 0x5AD JUMP JUMPDEST POP POP POP POP DUP2 MSTORE PUSH1 0x20 ADD PUSH1 0x6 DUP3 ADD DUP1 SLOAD DUP1 PUSH1 0x20 MUL PUSH1 0x20 ADD PUSH1 0x40 MLOAD SWAP1 DUP2 ADD PUSH1 0x40 MSTORE DUP1 SWAP3 SWAP2 SWAP1 DUP2 DUP2 MSTORE PUSH1 0x20 ADD PUSH0 SWAP1 JUMPDEST DUP3 DUP3 LT ISZERO PUSH2 0x729 JUMPI DUP4 DUP3 SWAP1 PUSH0 MSTORE PUSH1 0x20 PUSH0 KECCAK256 ADD DUP1 SLOAD PUSH2 0x69E SWAP1 PUSH2 0x1F96 JUMP JUMPDEST DUP1 PUSH1 0x1F ADD PUSH1 0x20 DUP1 SWAP2 DIV MUL PUSH1 0x20 ADD PUSH1 0x40 MLOAD SWAP1 DUP2 ADD PUSH1 0x40 MSTORE DUP1 SWAP3 SWAP2 SWAP1 DUP2 DUP2 MSTORE PUSH1 0x20 ADD DUP3 DUP1 SLOAD PUSH2 0x6CA SWAP1 PUSH2 0x1F96 JUMP JUMPDEST DUP1 ISZERO PUSH2 0x715 JUMPI DUP1 PUSH1 0x1F LT PUSH2 0x6EC JUMPI PUSH2 0x100 DUP1 DUP4 SLOAD DIV MUL DUP4 MSTORE SWAP2 PUSH1 0x20 ADD SWAP2 PUSH2 0x715 JUMP JUMPDEST DUP3 ADD SWAP2 SWAP1 PUSH0 MSTORE PUSH1 0x20 PUSH0 KECCAK256 SWAP1 JUMPDEST DUP2 SLOAD DUP2 MSTORE SWAP1 PUSH1 0x1 ADD SWAP1 PUSH1 0x20 ADD DUP1 DUP4 GT PUSH2 0x6F8 JUMPI DUP3 SWAP1 SUB PUSH1 0x1F AND DUP3 ADD SWAP2 JUMPDEST POP POP POP POP POP DUP2 MSTORE PUSH1 0x20 ADD SWAP1 PUSH1 0x1 ADD SWAP1 PUSH2 0x681 JUMP JUMPDEST POP POP POP POP DUP2 MSTORE PUSH1 0x20 ADD PUSH1 0x7 DUP3 ADD DUP1 SLOAD DUP1 PUSH1 0x20 MUL PUSH1 0x20 ADD PUSH1 0x40 MLOAD SWAP1 DUP2 ADD PUSH1 0x40 MSTORE DUP1 SWAP3 SWAP2 SWAP1 DUP2 DUP2 MSTORE PUSH1 0x20 ADD PUSH0 SWAP1 JUMPDEST DUP3 DUP3 LT ISZERO PUSH2 0x7FD JUMPI DUP4 DUP3 SWAP1 PUSH0 MSTORE PUSH1 0x20 PUSH0 KECCAK256 ADD DUP1 SLOAD PUSH2 0x772 SWAP1 PUSH2 0x1F96 JUMP JUMPDEST DUP1 PUSH1 0x1F ADD PUSH1 0x20 DUP1 SWAP2 DIV MUL PUSH1 0x20 ADD PUSH1 0x40 MLOAD SWAP1 DUP2 ADD PUSH1 0x40 MSTORE DUP1 SWAP3 SWAP2 SWAP1 DUP2 DUP2 MSTORE PUSH1 0x20 ADD DUP3 DUP1 SLOAD PUSH2 0x79E SWAP1 PUSH2 0x1F96 JUMP JUMPDEST DUP1 ISZERO PUSH2 0x7E9 JUMPI DUP1 PUSH1 0x1F LT PUSH2 0x7C0 JUMPI PUSH2 0x100 DUP1 DUP4 SLOAD DIV MUL DUP4 MSTORE SWAP2 PUSH1 0x20 ADD SWAP2 PUSH2 0x7E9 JUMP JUMPDEST DUP3 ADD SWAP2 SWAP1 PUSH0 MSTORE PUSH1 0x20 PUSH0 KECCAK256 SWAP1 JUMPDEST DUP2 SLOAD DUP2 MSTORE SWAP1 PUSH1 0x1 ADD SWAP1 PUSH1 0x20 ADD DUP1 DUP4 GT PUSH2 0x7CC JUMPI DUP3 SWAP1 SUB PUSH1 0x1F AND DUP3 ADD SWAP2 JUMPDEST POP POP POP POP POP DUP2 MSTORE PUSH1 0x20 ADD SWAP1 PUSH1 0x1 ADD SWAP1 PUSH2 0x755 JUMP JUMPDEST POP POP POP POP DUP2 MSTORE PUSH1 0x20 ADD PUSH1 0x8 DUP3 ADD PUSH0 SWAP1 SLOAD SWAP1 PUSH2 0x100 EXP SWAP1 DIV PUSH1 0xFF AND ISZERO ISZERO ISZERO ISZERO DUP2 MSTORE POP POP SWAP1 POP PUSH1 0x1 ISZERO ISZERO PUSH2 0x82E CALLER PUSH2 0xA38 JUMP JUMPDEST ISZERO ISZERO EQ PUSH2 0x870 JUMPI PUSH1 0x40 MLOAD PUSH32 0x8C379A000000000000000000000000000000000000000000000000000000000 DUP2 MSTORE PUSH1 0x4 ADD PUSH2 0x867 SWAP1 PUSH2 0x2010 JUMP JUMPDEST PUSH1 0x40 MLOAD DUP1 SWAP2 SUB SWAP1 REVERT JUMPDEST DUP8 DUP2 PUSH1 0x20 ADD DUP2 DUP2 MSTORE POP POP DUP7 DUP2 PUSH1 0x60 ADD DUP2 SWAP1 MSTORE POP DUP6 DUP2 PUSH1 0x80 ADD DUP2 SWAP1 MSTORE POP DUP5 DUP2 PUSH1 0xA0 ADD DUP2 SWAP1 MSTORE POP DUP4 DUP2 PUSH1 0xC0 ADD DUP2 SWAP1 MSTORE POP DUP3 DUP2 PUSH1 0xE0 ADD DUP2 SWAP1 MSTORE POP DUP2 DUP2 PUSH2 0x100 ADD SWAP1 ISZERO ISZERO SWAP1 DUP2 ISZERO ISZERO DUP2 MSTORE POP POP POP POP POP POP POP POP POP POP JUMP JUMPDEST PUSH0 PUSH1 0x40 MLOAD DUP1 PUSH2 0x120 ADD PUSH1 0x40 MSTORE DUP1 DUP11 DUP2 MSTORE PUSH1 0x20 ADD DUP10 DUP2 MSTORE PUSH1 0x20 ADD DUP9 DUP2 MSTORE PUSH1 0x20 ADD DUP8 DUP2 MSTORE PUSH1 0x20 ADD DUP7 DUP2 MSTORE PUSH1 0x20 ADD DUP6 DUP2 MSTORE PUSH1 0x20 ADD DUP5 DUP2 MSTORE PUSH1 0x20 ADD DUP4 DUP2 MSTORE PUSH1 0x20 ADD PUSH1 0x1 ISZERO ISZERO DUP2 MSTORE POP SWAP1 POP DUP1 PUSH0 DUP1 CALLER PUSH20 0xFFFFFFFFFFFFFFFFFFFFFFFFFFFFFFFFFFFFFFFF AND PUSH20 0xFFFFFFFFFFFFFFFFFFFFFFFFFFFFFFFFFFFFFFFF AND DUP2 MSTORE PUSH1 0x20 ADD SWAP1 DUP2 MSTORE PUSH1 0x20 ADD PUSH0 KECCAK256 PUSH0 DUP3 ADD MLOAD DUP2 PUSH0 ADD SWAP1 DUP2 PUSH2 0x958 SWAP2 SWAP1 PUSH2 0x21CB JUMP JUMPDEST POP PUSH1 0x20 DUP3 ADD MLOAD DUP2 PUSH1 0x1 ADD SSTORE PUSH1 0x40 DUP3 ADD MLOAD DUP2 PUSH1 0x2 ADD SWAP1 DUP2 PUSH2 0x978 SWAP2 SWAP1 PUSH2 0x21CB JUMP JUMPDEST POP PUSH1 0x60 DUP3 ADD MLOAD DUP2 PUSH1 0x3 ADD SWAP1 DUP1 MLOAD SWAP1 PUSH1 0x20 ADD SWAP1 PUSH2 0x995 SWAP3 SWAP2 SWAP1 PUSH2 0x161C JUMP JUMPDEST POP PUSH1 0x80 DUP3 ADD MLOAD DUP2 PUSH1 0x4 ADD SWAP1 DUP1 MLOAD SWAP1 PUSH1 0x20 ADD SWAP1 PUSH2 0x9B2 SWAP3 SWAP2 SWAP1 PUSH2 0x161C JUMP JUMPDEST POP PUSH1 0xA0 DUP3 ADD MLOAD DUP2 PUSH1 0x5 ADD SWAP1 DUP1 MLOAD SWAP1 PUSH1 0x20 ADD SWAP1 PUSH2 0x9CF SWAP3 SWAP2 SWAP1 PUSH2 0x161C JUMP JUMPDEST POP PUSH1 0xC0 DUP3 ADD MLOAD DUP2 PUSH1 0x6 ADD SWAP1 DUP1 MLOAD SWAP1 PUSH1 0x20 ADD SWAP1 PUSH2 0x9EC SWAP3 SWAP2 SWAP1 PUSH2 0x161C JUMP JUMPDEST POP PUSH1 0xE0 DUP3 ADD MLOAD DUP2 PUSH1 0x7 ADD SWAP1 DUP1 MLOAD SWAP1 PUSH1 0x20 ADD SWAP1 PUSH2 0xA09 SWAP3 SWAP2 SWAP1 PUSH2 0x161C JUMP JUMPDEST POP PUSH2 0x100 DUP3 ADD MLOAD DUP2 PUSH1 0x8 ADD PUSH0 PUSH2 0x100 EXP DUP2 SLOAD DUP2 PUSH1 0xFF MUL NOT AND SWAP1 DUP4 ISZERO ISZERO MUL OR SWAP1 SSTORE POP SWAP1 POP POP POP POP POP POP POP POP POP POP POP JUMP JUMPDEST PUSH0 DUP1 PUSH0 DUP1 DUP5 PUSH20 0xFFFFFFFFFFFFFFFFFFFFFFFFFFFFFFFFFFFFFFFF AND PUSH20 0xFFFFFFFFFFFFFFFFFFFFFFFFFFFFFFFFFFFFFFFF AND DUP2 MSTORE PUSH1 0x20 ADD SWAP1 DUP2 MSTORE PUSH1 0x20 ADD PUSH0 KECCAK256 PUSH1 0x40 MLOAD DUP1 PUSH2 0x120 ADD PUSH1 0x40 MSTORE SWAP1 DUP2 PUSH0 DUP3 ADD DUP1 SLOAD PUSH2 0xA91 SWAP1 PUSH2 0x1F96 JUMP JUMPDEST DUP1 PUSH1 0x1F ADD PUSH1 0x20 DUP1 SWAP2 DIV MUL PUSH1 0x20 ADD PUSH1 0x40 MLOAD SWAP1 DUP2 ADD PUSH1 0x40 MSTORE DUP1 SWAP3 SWAP2 SWAP1 DUP2 DUP2 MSTORE PUSH1 0x20 ADD DUP3 DUP1 SLOAD PUSH2 0xABD SWAP1 PUSH2 0x1F96 JUMP JUMPDEST DUP1 ISZERO PUSH2 0xB08 JUMPI DUP1 PUSH1 0x1F LT PUSH2 0xADF JUMPI PUSH2 0x100 DUP1 DUP4 SLOAD DIV MUL DUP4 MSTORE SWAP2 PUSH1 0x20 ADD SWAP2 PUSH2 0xB08 JUMP JUMPDEST DUP3 ADD SWAP2 SWAP1 PUSH0 MSTORE PUSH1 0x20 PUSH0 KECCAK256 SWAP1 JUMPDEST DUP2 SLOAD DUP2 MSTORE SWAP1 PUSH1 0x1 ADD SWAP1 PUSH1 0x20 ADD DUP1 DUP4 GT PUSH2 0xAEB JUMPI DUP3 SWAP1 SUB PUSH1 0x1F AND DUP3 ADD SWAP2 JUMPDEST POP POP POP POP POP DUP2 MSTORE PUSH1 0x20 ADD PUSH1 0x1 DUP3 ADD SLOAD DUP2 MSTORE PUSH1 0x20 ADD PUSH1 0x2 DUP3 ADD DUP1 SLOAD PUSH2 0xB2B SWAP1 PUSH2 0x1F96 JUMP JUMPDEST DUP1 PUSH1 0x1F ADD PUSH1 0x20 DUP1 SWAP2 DIV MUL PUSH1 0x20 ADD PUSH1 0x40 MLOAD SWAP1 DUP2 ADD PUSH1 0x40 MSTORE DUP1 SWAP3 SWAP2 SWAP1 DUP2 DUP2 MSTORE PUSH1 0x20 ADD DUP3 DUP1 SLOAD PUSH2 0xB57 SWAP1 PUSH2 0x1F96 JUMP JUMPDEST DUP1 ISZERO PUSH2 0xBA2 JUMPI DUP1 PUSH1 0x1F LT PUSH2 0xB79 JUMPI PUSH2 0x100 DUP1 DUP4 SLOAD DIV MUL DUP4 MSTORE SWAP2 PUSH1 0x20 ADD SWAP2 PUSH2 0xBA2 JUMP JUMPDEST DUP3 ADD SWAP2 SWAP1 PUSH0 MSTORE PUSH1 0x20 PUSH0 KECCAK256 SWAP1 JUMPDEST DUP2 SLOAD DUP2 MSTORE SWAP1 PUSH1 0x1 ADD SWAP1 PUSH1 0x20 ADD DUP1 DUP4 GT PUSH2 0xB85 JUMPI DUP3 SWAP1 SUB PUSH1 0x1F AND DUP3 ADD SWAP2 JUMPDEST POP POP POP POP POP DUP2 MSTORE PUSH1 0x20 ADD PUSH1 0x3 DUP3 ADD DUP1 SLOAD DUP1 PUSH1 0x20 MUL PUSH1 0x20 ADD PUSH1 0x40 MLOAD SWAP1 DUP2 ADD PUSH1 0x40 MSTORE DUP1 SWAP3 SWAP2 SWAP1 DUP2 DUP2 MSTORE PUSH1 0x20 ADD PUSH0 SWAP1 JUMPDEST DUP3 DUP3 LT ISZERO PUSH2 0xC77 JUMPI DUP4 DUP3 SWAP1 PUSH0 MSTORE PUSH1 0x20 PUSH0 KECCAK256 ADD DUP1 SLOAD PUSH2 0xBEC SWAP1 PUSH2 0x1F96 JUMP JUMPDEST DUP1 PUSH1 0x1F ADD PUSH1 0x20 DUP1 SWAP2 DIV MUL PUSH1 0x20 ADD PUSH1 0x40 MLOAD SWAP1 DUP2 ADD PUSH1 0x40 MSTORE DUP1 SWAP3 SWAP2 SWAP1 DUP2 DUP2 MSTORE PUSH1 0x20 ADD DUP3 DUP1 SLOAD PUSH2 0xC18 SWAP1 PUSH2 0x1F96 JUMP JUMPDEST DUP1 ISZERO PUSH2 0xC63 JUMPI DUP1 PUSH1 0x1F LT PUSH2 0xC3A JUMPI PUSH2 0x100 DUP1 DUP4 SLOAD DIV MUL DUP4 MSTORE SWAP2 PUSH1 0x20 ADD SWAP2 PUSH2 0xC63 JUMP JUMPDEST DUP3 ADD SWAP2 SWAP1 PUSH0 MSTORE PUSH1 0x20 PUSH0 KECCAK256 SWAP1 JUMPDEST DUP2 SLOAD DUP2 MSTORE SWAP1 PUSH1 0x1 ADD SWAP1 PUSH1 0x20 ADD DUP1 DUP4 GT PUSH2 0xC46 JUMPI DUP3 SWAP1 SUB PUSH1 0x1F AND DUP3 ADD SWAP2 JUMPDEST POP POP POP POP POP DUP2 MSTORE PUSH1 0x20 ADD SWAP1 PUSH1 0x1 ADD SWAP1 PUSH2 0xBCF JUMP JUMPDEST POP POP POP POP DUP2 MSTORE PUSH1 0x20 ADD PUSH1 0x4 DUP3 ADD DUP1 SLOAD DUP1 PUSH1 0x20 MUL PUSH1 0x20 ADD PUSH1 0x40 MLOAD SWAP1 DUP2 ADD PUSH1 0x40 MSTORE DUP1 SWAP3 SWAP2 SWAP1 DUP2 DUP2 MSTORE PUSH1 0x20 ADD PUSH0 SWAP1 JUMPDEST DUP3 DUP3 LT ISZERO PUSH2 0xD4B JUMPI DUP4 DUP3 SWAP1 PUSH0 MSTORE PUSH1 0x20 PUSH0 KECCAK256 ADD DUP1 SLOAD PUSH2 0xCC0 SWAP1 PUSH2 0x1F96 JUMP JUMPDEST DUP1 PUSH1 0x1F ADD PUSH1 0x20 DUP1 SWAP2 DIV MUL PUSH1 0x20 ADD PUSH1 0x40 MLOAD SWAP1 DUP2 ADD PUSH1 0x40 MSTORE DUP1 SWAP3 SWAP2 SWAP1 DUP2 DUP2 MSTORE PUSH1 0x20 ADD DUP3 DUP1 SLOAD PUSH2 0xCEC SWAP1 PUSH2 0x1F96 JUMP JUMPDEST DUP1 ISZERO PUSH2 0xD37 JUMPI DUP1 PUSH1 0x1F LT PUSH2 0xD0E JUMPI PUSH2 0x100 DUP1 DUP4 SLOAD DIV MUL DUP4 MSTORE SWAP2 PUSH1 0x20 ADD SWAP2 PUSH2 0xD37 JUMP JUMPDEST DUP3 ADD SWAP2 SWAP1 PUSH0 MSTORE PUSH1 0x20 PUSH0 KECCAK256 SWAP1 JUMPDEST DUP2 SLOAD DUP2 MSTORE SWAP1 PUSH1 0x1 ADD SWAP1 PUSH1 0x20 ADD DUP1 DUP4 GT PUSH2 0xD1A JUMPI DUP3 SWAP1 SUB PUSH1 0x1F AND DUP3 ADD SWAP2 JUMPDEST POP POP POP POP POP DUP2 MSTORE PUSH1 0x20 ADD SWAP1 PUSH1 0x1 ADD SWAP1 PUSH2 0xCA3 JUMP JUMPDEST POP POP POP POP DUP2 MSTORE PUSH1 0x20 ADD PUSH1 0x5 DUP3 ADD DUP1 SLOAD DUP1 PUSH1 0x20 MUL PUSH1 0x20 ADD PUSH1 0x40 MLOAD SWAP1 DUP2 ADD PUSH1 0x40 MSTORE DUP1 SWAP3 SWAP2 SWAP1 DUP2 DUP2 MSTORE PUSH1 0x20 ADD PUSH0 SWAP1 JUMPDEST DUP3 DUP3 LT ISZERO PUSH2 0xE1F JUMPI DUP4 DUP3 SWAP1 PUSH0 MSTORE PUSH1 0x20 PUSH0 KECCAK256 ADD DUP1 SLOAD PUSH2 0xD94 SWAP1 PUSH2 0x1F96 JUMP JUMPDEST DUP1 PUSH1 0x1F ADD PUSH1 0x20 DUP1 SWAP2 DIV MUL PUSH1 0x20 ADD PUSH1 0x40 MLOAD SWAP1 DUP2 ADD PUSH1 0x40 MSTORE DUP1 SWAP3 SWAP2 SWAP1 DUP2 DUP2 MSTORE PUSH1 0x20 ADD DUP3 DUP1 SLOAD PUSH2 0xDC0 SWAP1 PUSH2 0x1F96 JUMP JUMPDEST DUP1 ISZERO PUSH2 0xE0B JUMPI DUP1 PUSH1 0x1F LT PUSH2 0xDE2 JUMPI PUSH2 0x100 DUP1 DUP4 SLOAD DIV MUL DUP4 MSTORE SWAP2 PUSH1 0x20 ADD SWAP2 PUSH2 0xE0B JUMP JUMPDEST DUP3 ADD SWAP2 SWAP1 PUSH0 MSTORE PUSH1 0x20 PUSH0 KECCAK256 SWAP1 JUMPDEST DUP2 SLOAD DUP2 MSTORE SWAP1 PUSH1 0x1 ADD SWAP1 PUSH1 0x20 ADD DUP1 DUP4 GT PUSH2 0xDEE JUMPI DUP3 SWAP1 SUB PUSH1 0x1F AND DUP3 ADD SWAP2 JUMPDEST POP POP POP POP POP DUP2 MSTORE PUSH1 0x20 ADD SWAP1 PUSH1 0x1 ADD SWAP1 PUSH2 0xD77 JUMP JUMPDEST POP POP POP POP DUP2 MSTORE PUSH1 0x20 ADD PUSH1 0x6 DUP3 ADD DUP1 SLOAD DUP1 PUSH1 0x20 MUL PUSH1 0x20 ADD PUSH1 0x40 MLOAD SWAP1 DUP2 ADD PUSH1 0x40 MSTORE DUP1 SWAP3 SWAP2 SWAP1 DUP2 DUP2 MSTORE PUSH1 0x20 ADD PUSH0 SWAP1 JUMPDEST DUP3 DUP3 LT ISZERO PUSH2 0xEF3 JUMPI DUP4 DUP3 SWAP1 PUSH0 MSTORE PUSH1 0x20 PUSH0 KECCAK256 ADD DUP1 SLOAD PUSH2 0xE68 SWAP1 PUSH2 0x1F96 JUMP JUMPDEST DUP1 PUSH1 0x1F ADD PUSH1 0x20 DUP1 SWAP2 DIV MUL PUSH1 0x20 ADD PUSH1 0x40 MLOAD SWAP1 DUP2 ADD PUSH1 0x40 MSTORE DUP1 SWAP3 SWAP2 SWAP1 DUP2 DUP2 MSTORE PUSH1 0x20 ADD DUP3 DUP1 SLOAD PUSH2 0xE94 SWAP1 PUSH2 0x1F96 JUMP JUMPDEST DUP1 ISZERO PUSH2 0xEDF JUMPI DUP1 PUSH1 0x1F LT PUSH2 0xEB6 JUMPI PUSH2 0x100 DUP1 DUP4 SLOAD DIV MUL DUP4 MSTORE SWAP2 PUSH1 0x20 ADD SWAP2 PUSH2 0xEDF JUMP JUMPDEST DUP3 ADD SWAP2 SWAP1 PUSH0 MSTORE PUSH1 0x20 PUSH0 KECCAK256 SWAP1 JUMPDEST DUP2 SLOAD DUP2 MSTORE SWAP1 PUSH1 0x1 ADD SWAP1 PUSH1 0x20 ADD DUP1 DUP4 GT PUSH2 0xEC2 JUMPI DUP3 SWAP1 SUB PUSH1 0x1F AND DUP3 ADD SWAP2 JUMPDEST POP POP POP POP POP DUP2 MSTORE PUSH1 0x20 ADD SWAP1 PUSH1 0x1 ADD SWAP1 PUSH2 0xE4B JUMP JUMPDEST POP POP POP POP DUP2 MSTORE PUSH1 0x20 ADD PUSH1 0x7 DUP3 ADD DUP1 SLOAD DUP1 PUSH1 0x20 MUL PUSH1 0x20 ADD PUSH1 0x40 MLOAD SWAP1 DUP2 ADD PUSH1 0x40 MSTORE DUP1 SWAP3 SWAP2 SWAP1 DUP2 DUP2 MSTORE PUSH1 0x20 ADD PUSH0 SWAP1 JUMPDEST DUP3 DUP3 LT ISZERO PUSH2 0xFC7 JUMPI DUP4 DUP3 SWAP1 PUSH0 MSTORE PUSH1 0x20 PUSH0 KECCAK256 ADD DUP1 SLOAD PUSH2 0xF3C SWAP1 PUSH2 0x1F96 JUMP JUMPDEST DUP1 PUSH1 0x1F ADD PUSH1 0x20 DUP1 SWAP2 DIV MUL PUSH1 0x20 ADD PUSH1 0x40 MLOAD SWAP1 DUP2 ADD PUSH1 0x40 MSTORE DUP1 SWAP3 SWAP2 SWAP1 DUP2 DUP2 MSTORE PUSH1 0x20 ADD DUP3 DUP1 SLOAD PUSH2 0xF68 SWAP1 PUSH2 0x1F96 JUMP JUMPDEST DUP1 ISZERO PUSH2 0xFB3 JUMPI DUP1 PUSH1 0x1F LT PUSH2 0xF8A JUMPI PUSH2 0x100 DUP1 DUP4 SLOAD DIV MUL DUP4 MSTORE SWAP2 PUSH1 0x20 ADD SWAP2 PUSH2 0xFB3 JUMP JUMPDEST DUP3 ADD SWAP2 SWAP1 PUSH0 MSTORE PUSH1 0x20 PUSH0 KECCAK256 SWAP1 JUMPDEST DUP2 SLOAD DUP2 MSTORE SWAP1 PUSH1 0x1 ADD SWAP1 PUSH1 0x20 ADD DUP1 DUP4 GT PUSH2 0xF96 JUMPI DUP3 SWAP1 SUB PUSH1 0x1F AND DUP3 ADD SWAP2 JUMPDEST POP POP POP POP POP DUP2 MSTORE PUSH1 0x20 ADD SWAP1 PUSH1 0x1 ADD SWAP1 PUSH2 0xF1F JUMP JUMPDEST POP POP POP POP DUP2 MSTORE PUSH1 0x20 ADD PUSH1 0x8 DUP3 ADD PUSH0 SWAP1 SLOAD SWAP1 PUSH2 0x100 EXP SWAP1 DIV PUSH1 0xFF AND ISZERO ISZERO ISZERO ISZERO DUP2 MSTORE POP POP SWAP1 POP PUSH1 0x1 ISZERO ISZERO DUP2 PUSH2 0x100 ADD MLOAD ISZERO ISZERO SUB PUSH2 0x1006 JUMPI PUSH1 0x1 SWAP2 POP POP PUSH2 0x100B JUMP JUMPDEST PUSH0 SWAP2 POP POP JUMPDEST SWAP2 SWAP1 POP JUMP JUMPDEST PUSH1 0x60 PUSH0 PUSH1 0x60 DUP1 PUSH1 0x60 DUP1 PUSH1 0x60 DUP1 PUSH0 DUP1 PUSH0 DUP1 DUP13 PUSH20 0xFFFFFFFFFFFFFFFFFFFFFFFFFFFFFFFFFFFFFFFF AND PUSH20 0xFFFFFFFFFFFFFFFFFFFFFFFFFFFFFFFFFFFFFFFF AND DUP2 MSTORE PUSH1 0x20 ADD SWAP1 DUP2 MSTORE PUSH1 0x20 ADD PUSH0 KECCAK256 PUSH1 0x40 MLOAD DUP1 PUSH2 0x120 ADD PUSH1 0x40 MSTORE SWAP1 DUP2 PUSH0 DUP3 ADD DUP1 SLOAD PUSH2 0x1075 SWAP1 PUSH2 0x1F96 JUMP JUMPDEST DUP1 PUSH1 0x1F ADD PUSH1 0x20 DUP1 SWAP2 DIV MUL PUSH1 0x20 ADD PUSH1 0x40 MLOAD SWAP1 DUP2 ADD PUSH1 0x40 MSTORE DUP1 SWAP3 SWAP2 SWAP1 DUP2 DUP2 MSTORE PUSH1 0x20 ADD DUP3 DUP1 SLOAD PUSH2 0x10A1 SWAP1 PUSH2 0x1F96 JUMP JUMPDEST DUP1 ISZERO PUSH2 0x10EC JUMPI DUP1 PUSH1 0x1F LT PUSH2 0x10C3 JUMPI PUSH2 0x100 DUP1 DUP4 SLOAD DIV MUL DUP4 MSTORE SWAP2 PUSH1 0x20 ADD SWAP2 PUSH2 0x10EC JUMP JUMPDEST DUP3 ADD SWAP2 SWAP1 PUSH0 MSTORE PUSH1 0x20 PUSH0 KECCAK256 SWAP1 JUMPDEST DUP2 SLOAD DUP2 MSTORE SWAP1 PUSH1 0x1 ADD SWAP1 PUSH1 0x20 ADD DUP1 DUP4 GT PUSH2 0x10CF JUMPI DUP3 SWAP1 SUB PUSH1 0x1F AND DUP3 ADD SWAP2 JUMPDEST POP POP POP POP POP DUP2 MSTORE PUSH1 0x20 ADD PUSH1 0x1 DUP3 ADD SLOAD DUP2 MSTORE PUSH1 0x20 ADD PUSH1 0x2 DUP3 ADD DUP1 SLOAD PUSH2 0x110F SWAP1 PUSH2 0x1F96 JUMP JUMPDEST DUP1 PUSH1 0x1F ADD PUSH1 0x20 DUP1 SWAP2 DIV MUL PUSH1 0x20 ADD PUSH1 0x40 MLOAD SWAP1 DUP2 ADD PUSH1 0x40 MSTORE DUP1 SWAP3 SWAP2 SWAP1 DUP2 DUP2 MSTORE PUSH1 0x20 ADD DUP3 DUP1 SLOAD PUSH2 0x113B SWAP1 PUSH2 0x1F96 JUMP JUMPDEST DUP1 ISZERO PUSH2 0x1186 JUMPI DUP1 PUSH1 0x1F LT PUSH2 0x115D JUMPI PUSH2 0x100 DUP1 DUP4 SLOAD DIV MUL DUP4 MSTORE SWAP2 PUSH1 0x20 ADD SWAP2 PUSH2 0x1186 JUMP JUMPDEST DUP3 ADD SWAP2 SWAP1 PUSH0 MSTORE PUSH1 0x20 PUSH0 KECCAK256 SWAP1 JUMPDEST DUP2 SLOAD DUP2 MSTORE SWAP1 PUSH1 0x1 ADD SWAP1 PUSH1 0x20 ADD DUP1 DUP4 GT PUSH2 0x1169 JUMPI DUP3 SWAP1 SUB PUSH1 0x1F AND DUP3 ADD SWAP2 JUMPDEST POP POP POP POP POP DUP2 MSTORE PUSH1 0x20 ADD PUSH1 0x3 DUP3 ADD DUP1 SLOAD DUP1 PUSH1 0x20 MUL PUSH1 0x20 ADD PUSH1 0x40 MLOAD SWAP1 DUP2 ADD PUSH1 0x40 MSTORE DUP1 SWAP3 SWAP2 SWAP1 DUP2 DUP2 MSTORE PUSH1 0x20 ADD PUSH0 SWAP1 JUMPDEST DUP3 DUP3 LT ISZERO PUSH2 0x125B JUMPI DUP4 DUP3 SWAP1 PUSH0 MSTORE PUSH1 0x20 PUSH0 KECCAK256 ADD DUP1 SLOAD PUSH2 0x11D0 SWAP1 PUSH2 0x1F96 JUMP JUMPDEST DUP1 PUSH1 0x1F ADD PUSH1 0x20 DUP1 SWAP2 DIV MUL PUSH1 0x20 ADD PUSH1 0x40 MLOAD SWAP1 DUP2 ADD PUSH1 0x40 MSTORE DUP1 SWAP3 SWAP2 SWAP1 DUP2 DUP2 MSTORE PUSH1 0x20 ADD DUP3 DUP1 SLOAD PUSH2 0x11FC SWAP1 PUSH2 0x1F96 JUMP JUMPDEST DUP1 ISZERO PUSH2 0x1247 JUMPI DUP1 PUSH1 0x1F LT PUSH2 0x121E JUMPI PUSH2 0x100 DUP1 DUP4 SLOAD DIV MUL DUP4 MSTORE SWAP2 PUSH1 0x20 ADD SWAP2 PUSH2 0x1247 JUMP JUMPDEST DUP3 ADD SWAP2 SWAP1 PUSH0 MSTORE PUSH1 0x20 PUSH0 KECCAK256 SWAP1 JUMPDEST DUP2 SLOAD DUP2 MSTORE SWAP1 PUSH1 0x1 ADD SWAP1 PUSH1 0x20 ADD DUP1 DUP4 GT PUSH2 0x122A JUMPI DUP3 SWAP1 SUB PUSH1 0x1F AND DUP3 ADD SWAP2 JUMPDEST POP POP POP POP POP DUP2 MSTORE PUSH1 0x20 ADD SWAP1 PUSH1 0x1 ADD SWAP1 PUSH2 0x11B3 JUMP JUMPDEST POP POP POP POP DUP2 MSTORE PUSH1 0x20 ADD PUSH1 0x4 DUP3 ADD DUP1 SLOAD DUP1 PUSH1 0x20 MUL PUSH1 0x20 ADD PUSH1 0x40 MLOAD SWAP1 DUP2 ADD PUSH1 0x40 MSTORE DUP1 SWAP3 SWAP2 SWAP1 DUP2 DUP2 MSTORE PUSH1 0x20 ADD PUSH0 SWAP1 JUMPDEST DUP3 DUP3 LT ISZERO PUSH2 0x132F JUMPI DUP4 DUP3 SWAP1 PUSH0 MSTORE PUSH1 0x20 PUSH0 KECCAK256 ADD DUP1 SLOAD PUSH2 0x12A4 SWAP1 PUSH2 0x1F96 JUMP JUMPDEST DUP1 PUSH1 0x1F ADD PUSH1 0x20 DUP1 SWAP2 DIV MUL PUSH1 0x20 ADD PUSH1 0x40 MLOAD SWAP1 DUP2 ADD PUSH1 0x40 MSTORE DUP1 SWAP3 SWAP2 SWAP1 DUP2 DUP2 MSTORE PUSH1 0x20 ADD DUP3 DUP1 SLOAD PUSH2 0x12D0 SWAP1 PUSH2 0x1F96 JUMP JUMPDEST DUP1 ISZERO PUSH2 0x131B JUMPI DUP1 PUSH1 0x1F LT PUSH2 0x12F2 JUMPI PUSH2 0x100 DUP1 DUP4 SLOAD DIV MUL DUP4 MSTORE SWAP2 PUSH1 0x20 ADD SWAP2 PUSH2 0x131B JUMP JUMPDEST DUP3 ADD SWAP2 SWAP1 PUSH0 MSTORE PUSH1 0x20 PUSH0 KECCAK256 SWAP1 JUMPDEST DUP2 SLOAD DUP2 MSTORE SWAP1 PUSH1 0x1 ADD SWAP1 PUSH1 0x20 ADD DUP1 DUP4 GT PUSH2 0x12FE JUMPI DUP3 SWAP1 SUB PUSH1 0x1F AND DUP3 ADD SWAP2 JUMPDEST POP POP POP POP POP DUP2 MSTORE PUSH1 0x20 ADD SWAP1 PUSH1 0x1 ADD SWAP1 PUSH2 0x1287 JUMP JUMPDEST POP POP POP POP DUP2 MSTORE PUSH1 0x20 ADD PUSH1 0x5 DUP3 ADD DUP1 SLOAD DUP1 PUSH1 0x20 MUL PUSH1 0x20 ADD PUSH1 0x40 MLOAD SWAP1 DUP2 ADD PUSH1 0x40 MSTORE DUP1 SWAP3 SWAP2 SWAP1 DUP2 DUP2 MSTORE PUSH1 0x20 ADD PUSH0 SWAP1 JUMPDEST DUP3 DUP3 LT ISZERO PUSH2 0x1403 JUMPI DUP4 DUP3 SWAP1 PUSH0 MSTORE PUSH1 0x20 PUSH0 KECCAK256 ADD DUP1 SLOAD PUSH2 0x1378 SWAP1 PUSH2 0x1F96 JUMP JUMPDEST DUP1 PUSH1 0x1F ADD PUSH1 0x20 DUP1 SWAP2 DIV MUL PUSH1 0x20 ADD PUSH1 0x40 MLOAD SWAP1 DUP2 ADD PUSH1 0x40 MSTORE DUP1 SWAP3 SWAP2 SWAP1 DUP2 DUP2 MSTORE PUSH1 0x20 ADD DUP3 DUP1 SLOAD PUSH2 0x13A4 SWAP1 PUSH2 0x1F96 JUMP JUMPDEST DUP1 ISZERO PUSH2 0x13EF JUMPI DUP1 PUSH1 0x1F LT PUSH2 0x13C6 JUMPI PUSH2 0x100 DUP1 DUP4 SLOAD DIV MUL DUP4 MSTORE SWAP2 PUSH1 0x20 ADD SWAP2 PUSH2 0x13EF JUMP JUMPDEST DUP3 ADD SWAP2 SWAP1 PUSH0 MSTORE PUSH1 0x20 PUSH0 KECCAK256 SWAP1 JUMPDEST DUP2 SLOAD DUP2 MSTORE SWAP1 PUSH1 0x1 ADD SWAP1 PUSH1 0x20 ADD DUP1 DUP4 GT PUSH2 0x13D2 JUMPI DUP3 SWAP1 SUB PUSH1 0x1F AND DUP3 ADD SWAP2 JUMPDEST POP POP POP POP POP DUP2 MSTORE PUSH1 0x20 ADD SWAP1 PUSH1 0x1 ADD SWAP1 PUSH2 0x135B JUMP JUMPDEST POP POP POP POP DUP2 MSTORE PUSH1 0x20 ADD PUSH1 0x6 DUP3 ADD DUP1 SLOAD DUP1 PUSH1 0x20 MUL PUSH1 0x20 ADD PUSH1 0x40 MLOAD SWAP1 DUP2 ADD PUSH1 0x40 MSTORE DUP1 SWAP3 SWAP2 SWAP1 DUP2 DUP2 MSTORE PUSH1 0x20 ADD PUSH0 SWAP1 JUMPDEST DUP3 DUP3 LT ISZERO PUSH2 0x14D7 JUMPI DUP4 DUP3 SWAP1 PUSH0 MSTORE PUSH1 0x20 PUSH0 KECCAK256 ADD DUP1 SLOAD PUSH2 0x144C SWAP1 PUSH2 0x1F96 JUMP JUMPDEST DUP1 PUSH1 0x1F ADD PUSH1 0x20 DUP1 SWAP2 DIV MUL PUSH1 0x20 ADD PUSH1 0x40 MLOAD SWAP1 DUP2 ADD PUSH1 0x40 MSTORE DUP1 SWAP3 SWAP2 SWAP1 DUP2 DUP2 MSTORE PUSH1 0x20 ADD DUP3 DUP1 SLOAD PUSH2 0x1478 SWAP1 PUSH2 0x1F96 JUMP JUMPDEST DUP1 ISZERO PUSH2 0x14C3 JUMPI DUP1 PUSH1 0x1F LT PUSH2 0x149A JUMPI PUSH2 0x100 DUP1 DUP4 SLOAD DIV MUL DUP4 MSTORE SWAP2 PUSH1 0x20 ADD SWAP2 PUSH2 0x14C3 JUMP JUMPDEST DUP3 ADD SWAP2 SWAP1 PUSH0 MSTORE PUSH1 0x20 PUSH0 KECCAK256 SWAP1 JUMPDEST DUP2 SLOAD DUP2 MSTORE SWAP1 PUSH1 0x1 ADD SWAP1 PUSH1 0x20 ADD DUP1 DUP4 GT PUSH2 0x14A6 JUMPI DUP3 SWAP1 SUB PUSH1 0x1F AND DUP3 ADD SWAP2 JUMPDEST POP POP POP POP POP DUP2 MSTORE PUSH1 0x20 ADD SWAP1 PUSH1 0x1 ADD SWAP1 PUSH2 0x142F JUMP JUMPDEST POP POP POP POP DUP2 MSTORE PUSH1 0x20 ADD PUSH1 0x7 DUP3 ADD DUP1 SLOAD DUP1 PUSH1 0x20 MUL PUSH1 0x20 ADD PUSH1 0x40 MLOAD SWAP1 DUP2 ADD PUSH1 0x40 MSTORE DUP1 SWAP3 SWAP2 SWAP1 DUP2 DUP2 MSTORE PUSH1 0x20 ADD PUSH0 SWAP1 JUMPDEST DUP3 DUP3 LT ISZERO PUSH2 0x15AB JUMPI DUP4 DUP3 SWAP1 PUSH0 MSTORE PUSH1 0x20 PUSH0 KECCAK256 ADD DUP1 SLOAD PUSH2 0x1520 SWAP1 PUSH2 0x1F96 JUMP JUMPDEST DUP1 PUSH1 0x1F ADD PUSH1 0x20 DUP1 SWAP2 DIV MUL PUSH1 0x20 ADD PUSH1 0x40 MLOAD SWAP1 DUP2 ADD PUSH1 0x40 MSTORE DUP1 SWAP3 SWAP2 SWAP1 DUP2 DUP2 MSTORE PUSH1 0x20 ADD DUP3 DUP1 SLOAD PUSH2 0x154C SWAP1 PUSH2 0x1F96 JUMP JUMPDEST DUP1 ISZERO PUSH2 0x1597 JUMPI DUP1 PUSH1 0x1F LT PUSH2 0x156E JUMPI PUSH2 0x100 DUP1 DUP4 SLOAD DIV MUL DUP4 MSTORE SWAP2 PUSH1 0x20 ADD SWAP2 PUSH2 0x1597 JUMP JUMPDEST DUP3 ADD SWAP2 SWAP1 PUSH0 MSTORE PUSH1 0x20 PUSH0 KECCAK256 SWAP1 JUMPDEST DUP2 SLOAD DUP2 MSTORE SWAP1 PUSH1 0x1 ADD SWAP1 PUSH1 0x20 ADD DUP1 DUP4 GT PUSH2 0x157A JUMPI DUP3 SWAP1 SUB PUSH1 0x1F AND DUP3 ADD SWAP2 JUMPDEST POP POP POP POP POP DUP2 MSTORE PUSH1 0x20 ADD SWAP1 PUSH1 0x1 ADD SWAP1 PUSH2 0x1503 JUMP JUMPDEST POP POP POP POP DUP2 MSTORE PUSH1 0x20 ADD PUSH1 0x8 DUP3 ADD PUSH0 SWAP1 SLOAD SWAP1 PUSH2 0x100 EXP SWAP1 DIV PUSH1 0xFF AND ISZERO ISZERO ISZERO ISZERO DUP2 MSTORE POP POP SWAP1 POP DUP1 PUSH0 ADD MLOAD DUP2 PUSH1 0x20 ADD MLOAD DUP3 PUSH1 0x40 ADD MLOAD DUP4 PUSH1 0x60 ADD MLOAD DUP5 PUSH1 0x80 ADD MLOAD DUP6 PUSH1 0xC0 ADD MLOAD DUP7 PUSH1 0xA0 ADD MLOAD DUP8 PUSH1 0xE0 ADD MLOAD DUP9 PUSH2 0x100 ADD MLOAD SWAP10 POP SWAP10 POP SWAP10 POP SWAP10 POP SWAP10 POP SWAP10 POP SWAP10 POP SWAP10 POP SWAP10 POP POP SWAP2 SWAP4 SWAP6 SWAP8 SWAP10 SWAP1 SWAP3 SWAP5 SWAP7 SWAP9 POP JUMP JUMPDEST DUP3 DUP1 SLOAD DUP3 DUP3 SSTORE SWAP1 PUSH0 MSTORE PUSH1 0x20 PUSH0 KECCAK256 SWAP1 DUP2 ADD SWAP3 DUP3 ISZERO PUSH2 0x1662 JUMPI SWAP2 PUSH1 0x20 MUL DUP3 ADD JUMPDEST DUP3 DUP2 GT ISZERO PUSH2 0x1661 JUMPI DUP3 MLOAD DUP3 SWAP1 DUP2 PUSH2 0x1651 SWAP2 SWAP1 PUSH2 0x21CB JUMP JUMPDEST POP SWAP2 PUSH1 0x20 ADD SWAP2 SWAP1 PUSH1 0x1 ADD SWAP1 PUSH2 0x163A JUMP JUMPDEST JUMPDEST POP SWAP1 POP PUSH2 0x166F SWAP2 SWAP1 PUSH2 0x1673 JUMP JUMPDEST POP SWAP1 JUMP JUMPDEST JUMPDEST DUP1 DUP3 GT ISZERO PUSH2 0x1692 JUMPI PUSH0 DUP2 DUP2 PUSH2 0x1689 SWAP2 SWAP1 PUSH2 0x1696 JUMP JUMPDEST POP PUSH1 0x1 ADD PUSH2 0x1674 JUMP JUMPDEST POP SWAP1 JUMP JUMPDEST POP DUP1 SLOAD PUSH2 0x16A2 SWAP1 PUSH2 0x1F96 JUMP JUMPDEST PUSH0 DUP3 SSTORE DUP1 PUSH1 0x1F LT PUSH2 0x16B3 JUMPI POP PUSH2 0x16D0 JUMP JUMPDEST PUSH1 0x1F ADD PUSH1 0x20 SWAP1 DIV SWAP1 PUSH0 MSTORE PUSH1 0x20 PUSH0 KECCAK256 SWAP1 DUP2 ADD SWAP1 PUSH2 0x16CF SWAP2 SWAP1 PUSH2 0x16D3 JUMP JUMPDEST JUMPDEST POP JUMP JUMPDEST JUMPDEST DUP1 DUP3 GT ISZERO PUSH2 0x16EA JUMPI PUSH0 DUP2 PUSH0 SWAP1 SSTORE POP PUSH1 0x1 ADD PUSH2 0x16D4 JUMP JUMPDEST POP SWAP1 JUMP JUMPDEST PUSH0 PUSH1 0x40 MLOAD SWAP1 POP SWAP1 JUMP JUMPDEST PUSH0 DUP1 REVERT JUMPDEST PUSH0 DUP1 REVERT JUMPDEST PUSH0 PUSH20 0xFFFFFFFFFFFFFFFFFFFFFFFFFFFFFFFFFFFFFFFF DUP3 AND SWAP1 POP SWAP2 SWAP1 POP JUMP JUMPDEST PUSH0 PUSH2 0x1728 DUP3 PUSH2 0x16FF JUMP JUMPDEST SWAP1 POP SWAP2 SWAP1 POP JUMP JUMPDEST PUSH2 0x1738 DUP2 PUSH2 0x171E JUMP JUMPDEST DUP2 EQ PUSH2 0x1742 JUMPI PUSH0 DUP1 REVERT JUMPDEST POP JUMP JUMPDEST PUSH0 DUP2 CALLDATALOAD SWAP1 POP PUSH2 0x1753 DUP2 PUSH2 0x172F JUMP JUMPDEST SWAP3 SWAP2 POP POP JUMP JUMPDEST PUSH0 PUSH1 0x20 DUP3 DUP5 SUB SLT ISZERO PUSH2 0x176E JUMPI PUSH2 0x176D PUSH2 0x16F7 JUMP JUMPDEST JUMPDEST PUSH0 PUSH2 0x177B DUP5 DUP3 DUP6 ADD PUSH2 0x1745 JUMP JUMPDEST SWAP2 POP POP SWAP3 SWAP2 POP POP JUMP JUMPDEST PUSH0 DUP2 MLOAD SWAP1 POP SWAP2 SWAP1 POP JUMP JUMPDEST PUSH0 DUP3 DUP3 MSTORE PUSH1 0x20 DUP3 ADD SWAP1 POP SWAP3 SWAP2 POP POP JUMP JUMPDEST PUSH0 JUMPDEST DUP4 DUP2 LT ISZERO PUSH2 0x17BB JUMPI DUP1 DUP3 ADD MLOAD DUP2 DUP5 ADD MSTORE PUSH1 0x20 DUP2 ADD SWAP1 POP PUSH2 0x17A0 JUMP JUMPDEST PUSH0 DUP5 DUP5 ADD MSTORE POP POP POP POP JUMP JUMPDEST PUSH0 PUSH1 0x1F NOT PUSH1 0x1F DUP4 ADD AND SWAP1 POP SWAP2 SWAP1 POP JUMP JUMPDEST PUSH0 PUSH2 0x17E0 DUP3 PUSH2 0x1784 JUMP JUMPDEST PUSH2 0x17EA DUP2 DUP6 PUSH2 0x178E JUMP JUMPDEST SWAP4 POP PUSH2 0x17FA DUP2 DUP6 PUSH1 0x20 DUP7 ADD PUSH2 0x179E JUMP JUMPDEST PUSH2 0x1803 DUP2 PUSH2 0x17C6 JUMP JUMPDEST DUP5 ADD SWAP2 POP POP SWAP3 SWAP2 POP POP JUMP JUMPDEST PUSH0 DUP2 SWAP1 POP SWAP2 SWAP1 POP JUMP JUMPDEST PUSH2 0x1820 DUP2 PUSH2 0x180E JUMP JUMPDEST DUP3 MSTORE POP POP JUMP JUMPDEST PUSH0 DUP2 ISZERO ISZERO SWAP1 POP SWAP2 SWAP1 POP JUMP JUMPDEST PUSH2 0x183A DUP2 PUSH2 0x1826 JUMP JUMPDEST DUP3 MSTORE POP POP JUMP JUMPDEST PUSH0 PUSH1 0x80 DUP3 ADD SWAP1 POP DUP2 DUP2 SUB PUSH0 DUP4 ADD MSTORE PUSH2 0x1858 DUP2 DUP8 PUSH2 0x17D6 JUMP JUMPDEST SWAP1 POP PUSH2 0x1867 PUSH1 0x20 DUP4 ADD DUP7 PUSH2 0x1817 JUMP JUMPDEST DUP2 DUP2 SUB PUSH1 0x40 DUP4 ADD MSTORE PUSH2 0x1879 DUP2 DUP6 PUSH2 0x17D6 JUMP JUMPDEST SWAP1 POP PUSH2 0x1888 PUSH1 0x60 DUP4 ADD DUP5 PUSH2 0x1831 JUMP JUMPDEST SWAP6 SWAP5 POP POP POP POP POP JUMP JUMPDEST PUSH2 0x189A DUP2 PUSH2 0x180E JUMP JUMPDEST DUP2 EQ PUSH2 0x18A4 JUMPI PUSH0 DUP1 REVERT JUMPDEST POP JUMP JUMPDEST PUSH0 DUP2 CALLDATALOAD SWAP1 POP PUSH2 0x18B5 DUP2 PUSH2 0x1891 JUMP JUMPDEST SWAP3 SWAP2 POP POP JUMP JUMPDEST PUSH0 DUP1 REVERT JUMPDEST PUSH32 0x4E487B7100000000000000000000000000000000000000000000000000000000 PUSH0 MSTORE PUSH1 0x41 PUSH1 0x4 MSTORE PUSH1 0x24 PUSH0 REVERT JUMPDEST PUSH2 0x18F5 DUP3 PUSH2 0x17C6 JUMP JUMPDEST DUP2 ADD DUP2 DUP2 LT PUSH8 0xFFFFFFFFFFFFFFFF DUP3 GT OR ISZERO PUSH2 0x1914 JUMPI PUSH2 0x1913 PUSH2 0x18BF JUMP JUMPDEST JUMPDEST DUP1 PUSH1 0x40 MSTORE POP POP POP JUMP JUMPDEST PUSH0 PUSH2 0x1926 PUSH2 0x16EE JUMP JUMPDEST SWAP1 POP PUSH2 0x1932 DUP3 DUP3 PUSH2 0x18EC JUMP JUMPDEST SWAP2 SWAP1 POP JUMP JUMPDEST PUSH0 PUSH8 0xFFFFFFFFFFFFFFFF DUP3 GT ISZERO PUSH2 0x1951 JUMPI PUSH2 0x1950 PUSH2 0x18BF JUMP JUMPDEST JUMPDEST PUSH1 0x20 DUP3 MUL SWAP1 POP PUSH1 0x20 DUP2 ADD SWAP1 POP SWAP2 SWAP1 POP JUMP JUMPDEST PUSH0 DUP1 REVERT JUMPDEST PUSH0 DUP1 REVERT JUMPDEST PUSH0 PUSH8 0xFFFFFFFFFFFFFFFF DUP3 GT ISZERO PUSH2 0x1984 JUMPI PUSH2 0x1983 PUSH2 0x18BF JUMP JUMPDEST JUMPDEST PUSH2 0x198D DUP3 PUSH2 0x17C6 JUMP JUMPDEST SWAP1 POP PUSH1 0x20 DUP2 ADD SWAP1 POP SWAP2 SWAP1 POP JUMP JUMPDEST DUP3 DUP2 DUP4 CALLDATACOPY PUSH0 DUP4 DUP4 ADD MSTORE POP POP POP JUMP JUMPDEST PUSH0 PUSH2 0x19BA PUSH2 0x19B5 DUP5 PUSH2 0x196A JUMP JUMPDEST PUSH2 0x191D JUMP JUMPDEST SWAP1 POP DUP3 DUP2 MSTORE PUSH1 0x20 DUP2 ADD DUP5 DUP5 DUP5 ADD GT ISZERO PUSH2 0x19D6 JUMPI PUSH2 0x19D5 PUSH2 0x1966 JUMP JUMPDEST JUMPDEST PUSH2 0x19E1 DUP5 DUP3 DUP6 PUSH2 0x199A JUMP JUMPDEST POP SWAP4 SWAP3 POP POP POP JUMP JUMPDEST PUSH0 DUP3 PUSH1 0x1F DUP4 ADD SLT PUSH2 0x19FD JUMPI PUSH2 0x19FC PUSH2 0x18BB JUMP JUMPDEST JUMPDEST DUP2 CALLDATALOAD PUSH2 0x1A0D DUP5 DUP3 PUSH1 0x20 DUP7 ADD PUSH2 0x19A8 JUMP JUMPDEST SWAP2 POP POP SWAP3 SWAP2 POP POP JUMP JUMPDEST PUSH0 PUSH2 0x1A28 PUSH2 0x1A23 DUP5 PUSH2 0x1937 JUMP JUMPDEST PUSH2 0x191D JUMP JUMPDEST SWAP1 POP DUP1 DUP4 DUP3 MSTORE PUSH1 0x20 DUP3 ADD SWAP1 POP PUSH1 0x20 DUP5 MUL DUP4 ADD DUP6 DUP2 GT ISZERO PUSH2 0x1A4B JUMPI PUSH2 0x1A4A PUSH2 0x1962 JUMP JUMPDEST JUMPDEST DUP4 JUMPDEST DUP2 DUP2 LT ISZERO PUSH2 0x1A92 JUMPI DUP1 CALLDATALOAD PUSH8 0xFFFFFFFFFFFFFFFF DUP2 GT ISZERO PUSH2 0x1A70 JUMPI PUSH2 0x1A6F PUSH2 0x18BB JUMP JUMPDEST JUMPDEST DUP1 DUP7 ADD PUSH2 0x1A7D DUP10 DUP3 PUSH2 0x19E9 JUMP JUMPDEST DUP6 MSTORE PUSH1 0x20 DUP6 ADD SWAP5 POP POP POP PUSH1 0x20 DUP2 ADD SWAP1 POP PUSH2 0x1A4D JUMP JUMPDEST POP POP POP SWAP4 SWAP3 POP POP POP JUMP JUMPDEST PUSH0 DUP3 PUSH1 0x1F DUP4 ADD SLT PUSH2 0x1AB0 JUMPI PUSH2 0x1AAF PUSH2 0x18BB JUMP JUMPDEST JUMPDEST DUP2 CALLDATALOAD PUSH2 0x1AC0 DUP5 DUP3 PUSH1 0x20 DUP7 ADD PUSH2 0x1A16 JUMP JUMPDEST SWAP2 POP POP SWAP3 SWAP2 POP POP JUMP JUMPDEST PUSH2 0x1AD2 DUP2 PUSH2 0x1826 JUMP JUMPDEST DUP2 EQ PUSH2 0x1ADC JUMPI PUSH0 DUP1 REVERT JUMPDEST POP JUMP JUMPDEST PUSH0 DUP2 CALLDATALOAD SWAP1 POP PUSH2 0x1AED DUP2 PUSH2 0x1AC9 JUMP JUMPDEST SWAP3 SWAP2 POP POP JUMP JUMPDEST PUSH0 DUP1 PUSH0 DUP1 PUSH0 DUP1 PUSH0 PUSH1 0xE0 DUP9 DUP11 SUB SLT ISZERO PUSH2 0x1B0E JUMPI PUSH2 0x1B0D PUSH2 0x16F7 JUMP JUMPDEST JUMPDEST PUSH0 PUSH2 0x1B1B DUP11 DUP3 DUP12 ADD PUSH2 0x18A7 JUMP JUMPDEST SWAP8 POP POP PUSH1 0x20 DUP9 ADD CALLDATALOAD PUSH8 0xFFFFFFFFFFFFFFFF DUP2 GT ISZERO PUSH2 0x1B3C JUMPI PUSH2 0x1B3B PUSH2 0x16FB JUMP JUMPDEST JUMPDEST PUSH2 0x1B48 DUP11 DUP3 DUP12 ADD PUSH2 0x1A9C JUMP JUMPDEST SWAP7 POP POP PUSH1 0x40 DUP9 ADD CALLDATALOAD PUSH8 0xFFFFFFFFFFFFFFFF DUP2 GT ISZERO PUSH2 0x1B69 JUMPI PUSH2 0x1B68 PUSH2 0x16FB JUMP JUMPDEST JUMPDEST PUSH2 0x1B75 DUP11 DUP3 DUP12 ADD PUSH2 0x1A9C JUMP JUMPDEST SWAP6 POP POP PUSH1 0x60 DUP9 ADD CALLDATALOAD PUSH8 0xFFFFFFFFFFFFFFFF DUP2 GT ISZERO PUSH2 0x1B96 JUMPI PUSH2 0x1B95 PUSH2 0x16FB JUMP JUMPDEST JUMPDEST PUSH2 0x1BA2 DUP11 DUP3 DUP12 ADD PUSH2 0x1A9C JUMP JUMPDEST SWAP5 POP POP PUSH1 0x80 DUP9 ADD CALLDATALOAD PUSH8 0xFFFFFFFFFFFFFFFF DUP2 GT ISZERO PUSH2 0x1BC3 JUMPI PUSH2 0x1BC2 PUSH2 0x16FB JUMP JUMPDEST JUMPDEST PUSH2 0x1BCF DUP11 DUP3 DUP12 ADD PUSH2 0x1A9C JUMP JUMPDEST SWAP4 POP POP PUSH1 0xA0 DUP9 ADD CALLDATALOAD PUSH8 0xFFFFFFFFFFFFFFFF DUP2 GT ISZERO PUSH2 0x1BF0 JUMPI PUSH2 0x1BEF PUSH2 0x16FB JUMP JUMPDEST JUMPDEST PUSH2 0x1BFC DUP11 DUP3 DUP12 ADD PUSH2 0x1A9C JUMP JUMPDEST SWAP3 POP POP PUSH1 0xC0 PUSH2 0x1C0D DUP11 DUP3 DUP12 ADD PUSH2 0x1ADF JUMP JUMPDEST SWAP2 POP POP SWAP3 SWAP6 SWAP9 SWAP2 SWAP5 SWAP8 POP SWAP3 SWAP6 POP JUMP JUMPDEST PUSH0 DUP1 PUSH0 DUP1 PUSH0 DUP1 PUSH0 DUP1 PUSH2 0x100 DUP10 DUP12 SUB SLT ISZERO PUSH2 0x1C39 JUMPI PUSH2 0x1C38 PUSH2 0x16F7 JUMP JUMPDEST JUMPDEST PUSH0 DUP10 ADD CALLDATALOAD PUSH8 0xFFFFFFFFFFFFFFFF DUP2 GT ISZERO PUSH2 0x1C56 JUMPI PUSH2 0x1C55 PUSH2 0x16FB JUMP JUMPDEST JUMPDEST PUSH2 0x1C62 DUP12 DUP3 DUP13 ADD PUSH2 0x19E9 JUMP JUMPDEST SWAP9 POP POP PUSH1 0x20 PUSH2 0x1C73 DUP12 DUP3 DUP13 ADD PUSH2 0x18A7 JUMP JUMPDEST SWAP8 POP POP PUSH1 0x40 DUP10 ADD CALLDATALOAD PUSH8 0xFFFFFFFFFFFFFFFF DUP2 GT ISZERO PUSH2 0x1C94 JUMPI PUSH2 0x1C93 PUSH2 0x16FB JUMP JUMPDEST JUMPDEST PUSH2 0x1CA0 DUP12 DUP3 DUP13 ADD PUSH2 0x19E9 JUMP JUMPDEST SWAP7 POP POP PUSH1 0x60 DUP10 ADD CALLDATALOAD PUSH8 0xFFFFFFFFFFFFFFFF DUP2 GT ISZERO PUSH2 0x1CC1 JUMPI PUSH2 0x1CC0 PUSH2 0x16FB JUMP JUMPDEST JUMPDEST PUSH2 0x1CCD DUP12 DUP3 DUP13 ADD PUSH2 0x1A9C JUMP JUMPDEST SWAP6 POP POP PUSH1 0x80 DUP10 ADD CALLDATALOAD PUSH8 0xFFFFFFFFFFFFFFFF DUP2 GT ISZERO PUSH2 0x1CEE JUMPI PUSH2 0x1CED PUSH2 0x16FB JUMP JUMPDEST JUMPDEST PUSH2 0x1CFA DUP12 DUP3 DUP13 ADD PUSH2 0x1A9C JUMP JUMPDEST SWAP5 POP POP PUSH1 0xA0 DUP10 ADD CALLDATALOAD PUSH8 0xFFFFFFFFFFFFFFFF DUP2 GT ISZERO PUSH2 0x1D1B JUMPI PUSH2 0x1D1A PUSH2 0x16FB JUMP JUMPDEST JUMPDEST PUSH2 0x1D27 DUP12 DUP3 DUP13 ADD PUSH2 0x1A9C JUMP JUMPDEST SWAP4 POP POP PUSH1 0xC0 DUP10 ADD CALLDATALOAD PUSH8 0xFFFFFFFFFFFFFFFF DUP2 GT ISZERO PUSH2 0x1D48 JUMPI PUSH2 0x1D47 PUSH2 0x16FB JUMP JUMPDEST JUMPDEST PUSH2 0x1D54 DUP12 DUP3 DUP13 ADD PUSH2 0x1A9C JUMP JUMPDEST SWAP3 POP POP PUSH1 0xE0 DUP10 ADD CALLDATALOAD PUSH8 0xFFFFFFFFFFFFFFFF DUP2 GT ISZERO PUSH2 0x1D75 JUMPI PUSH2 0x1D74 PUSH2 0x16FB JUMP JUMPDEST JUMPDEST PUSH2 0x1D81 DUP12 DUP3 DUP13 ADD PUSH2 0x1A9C JUMP JUMPDEST SWAP2 POP POP SWAP3 SWAP6 SWAP9 POP SWAP3 SWAP6 SWAP9 SWAP1 SWAP4 SWAP7 POP JUMP JUMPDEST PUSH0 PUSH1 0x20 DUP3 ADD SWAP1 POP PUSH2 0x1DA4 PUSH0 DUP4 ADD DUP5 PUSH2 0x1831 JUMP JUMPDEST SWAP3 SWAP2 POP POP JUMP JUMPDEST PUSH0 DUP2 MLOAD SWAP1 POP SWAP2 SWAP1 POP JUMP JUMPDEST PUSH0 DUP3 DUP3 MSTORE PUSH1 0x20 DUP3 ADD SWAP1 POP SWAP3 SWAP2 POP POP JUMP JUMPDEST PUSH0 DUP2 SWAP1 POP PUSH1 0x20 DUP3 ADD SWAP1 POP SWAP2 SWAP1 POP JUMP JUMPDEST PUSH0 DUP3 DUP3 MSTORE PUSH1 0x20 DUP3 ADD SWAP1 POP SWAP3 SWAP2 POP POP JUMP JUMPDEST PUSH0 PUSH2 0x1DED DUP3 PUSH2 0x1784 JUMP JUMPDEST PUSH2 0x1DF7 DUP2 DUP6 PUSH2 0x1DD3 JUMP JUMPDEST SWAP4 POP PUSH2 0x1E07 DUP2 DUP6 PUSH1 0x20 DUP7 ADD PUSH2 0x179E JUMP JUMPDEST PUSH2 0x1E10 DUP2 PUSH2 0x17C6 JUMP JUMPDEST DUP5 ADD SWAP2 POP POP SWAP3 SWAP2 POP POP JUMP JUMPDEST PUSH0 PUSH2 0x1E26 DUP4 DUP4 PUSH2 0x1DE3 JUMP JUMPDEST SWAP1 POP SWAP3 SWAP2 POP POP JUMP JUMPDEST PUSH0 PUSH1 0x20 DUP3 ADD SWAP1 POP SWAP2 SWAP1 POP JUMP JUMPDEST PUSH0 PUSH2 0x1E44 DUP3 PUSH2 0x1DAA JUMP JUMPDEST PUSH2 0x1E4E DUP2 DUP6 PUSH2 0x1DB4 JUMP JUMPDEST SWAP4 POP DUP4 PUSH1 0x20 DUP3 MUL DUP6 ADD PUSH2 0x1E60 DUP6 PUSH2 0x1DC4 JUMP JUMPDEST DUP1 PUSH0 JUMPDEST DUP6 DUP2 LT ISZERO PUSH2 0x1E9B JUMPI DUP5 DUP5 SUB DUP10 MSTORE DUP2 MLOAD PUSH2 0x1E7C DUP6 DUP3 PUSH2 0x1E1B JUMP JUMPDEST SWAP5 POP PUSH2 0x1E87 DUP4 PUSH2 0x1E2E JUMP JUMPDEST SWAP3 POP PUSH1 0x20 DUP11 ADD SWAP10 POP POP PUSH1 0x1 DUP2 ADD SWAP1 POP PUSH2 0x1E63 JUMP JUMPDEST POP DUP3 SWAP8 POP DUP8 SWAP6 POP POP POP POP POP POP SWAP3 SWAP2 POP POP JUMP JUMPDEST PUSH0 PUSH2 0x120 DUP3 ADD SWAP1 POP DUP2 DUP2 SUB PUSH0 DUP4 ADD MSTORE PUSH2 0x1EC6 DUP2 DUP13 PUSH2 0x17D6 JUMP JUMPDEST SWAP1 POP PUSH2 0x1ED5 PUSH1 0x20 DUP4 ADD DUP12 PUSH2 0x1817 JUMP JUMPDEST DUP2 DUP2 SUB PUSH1 0x40 DUP4 ADD MSTORE PUSH2 0x1EE7 DUP2 DUP11 PUSH2 0x17D6 JUMP JUMPDEST SWAP1 POP DUP2 DUP2 SUB PUSH1 0x60 DUP4 ADD MSTORE PUSH2 0x1EFB DUP2 DUP10 PUSH2 0x1E3A JUMP JUMPDEST SWAP1 POP DUP2 DUP2 SUB PUSH1 0x80 DUP4 ADD MSTORE PUSH2 0x1F0F DUP2 DUP9 PUSH2 0x1E3A JUMP JUMPDEST SWAP1 POP DUP2 DUP2 SUB PUSH1 0xA0 DUP4 ADD MSTORE PUSH2 0x1F23 DUP2 DUP8 PUSH2 0x1E3A JUMP JUMPDEST SWAP1 POP DUP2 DUP2 SUB PUSH1 0xC0 DUP4 ADD MSTORE PUSH2 0x1F37 DUP2 DUP7 PUSH2 0x1E3A JUMP JUMPDEST SWAP1 POP DUP2 DUP2 SUB PUSH1 0xE0 DUP4 ADD MSTORE PUSH2 0x1F4B DUP2 DUP6 PUSH2 0x1E3A JUMP JUMPDEST SWAP1 POP PUSH2 0x1F5B PUSH2 0x100 DUP4 ADD DUP5 PUSH2 0x1831 JUMP JUMPDEST SWAP11 SWAP10 POP POP POP POP POP POP POP POP POP POP JUMP JUMPDEST PUSH32 0x4E487B7100000000000000000000000000000000000000000000000000000000 PUSH0 MSTORE PUSH1 0x22 PUSH1 0x4 MSTORE PUSH1 0x24 PUSH0 REVERT JUMPDEST PUSH0 PUSH1 0x2 DUP3 DIV SWAP1 POP PUSH1 0x1 DUP3 AND DUP1 PUSH2 0x1FAD JUMPI PUSH1 0x7F DUP3 AND SWAP2 POP JUMPDEST PUSH1 0x20 DUP3 LT DUP2 SUB PUSH2 0x1FC0 JUMPI PUSH2 0x1FBF PUSH2 0x1F69 JUMP JUMPDEST JUMPDEST POP SWAP2 SWAP1 POP JUMP JUMPDEST PUSH32 0x536F72727921205468652070617469656E742069732044656365617365640000 PUSH0 DUP3 ADD MSTORE POP JUMP JUMPDEST PUSH0 PUSH2 0x1FFA PUSH1 0x1E DUP4 PUSH2 0x178E JUMP JUMPDEST SWAP2 POP PUSH2 0x2005 DUP3 PUSH2 0x1FC6 JUMP JUMPDEST PUSH1 0x20 DUP3 ADD SWAP1 POP SWAP2 SWAP1 POP JUMP JUMPDEST PUSH0 PUSH1 0x20 DUP3 ADD SWAP1 POP DUP2 DUP2 SUB PUSH0 DUP4 ADD MSTORE PUSH2 0x2027 DUP2 PUSH2 0x1FEE JUMP JUMPDEST SWAP1 POP SWAP2 SWAP1 POP JUMP JUMPDEST PUSH0 DUP2 SWAP1 POP DUP2 PUSH0 MSTORE PUSH1 0x20 PUSH0 KECCAK256 SWAP1 POP SWAP2 SWAP1 POP JUMP JUMPDEST PUSH0 PUSH1 0x20 PUSH1 0x1F DUP4 ADD DIV SWAP1 POP SWAP2 SWAP1 POP JUMP JUMPDEST PUSH0 DUP3 DUP3 SHL SWAP1 POP SWAP3 SWAP2 POP POP JUMP JUMPDEST PUSH0 PUSH1 0x8 DUP4 MUL PUSH2 0x208A PUSH32 0xFFFFFFFFFFFFFFFFFFFFFFFFFFFFFFFFFFFFFFFFFFFFFFFFFFFFFFFFFFFFFFFF DUP3 PUSH2 0x204F JUMP JUMPDEST PUSH2 0x2094 DUP7 DUP4 PUSH2 0x204F JUMP JUMPDEST SWAP6 POP DUP1 NOT DUP5 AND SWAP4 POP DUP1 DUP7 AND DUP5 OR SWAP3 POP POP POP SWAP4 SWAP3 POP POP POP JUMP JUMPDEST PUSH0 DUP2 SWAP1 POP SWAP2 SWAP1 POP JUMP JUMPDEST PUSH0 PUSH2 0x20CF PUSH2 0x20CA PUSH2 0x20C5 DUP5 PUSH2 0x180E JUMP JUMPDEST PUSH2 0x20AC JUMP JUMPDEST PUSH2 0x180E JUMP JUMPDEST SWAP1 POP SWAP2 SWAP1 POP JUMP JUMPDEST PUSH0 DUP2 SWAP1 POP SWAP2 SWAP1 POP JUMP JUMPDEST PUSH2 0x20E8 DUP4 PUSH2 0x20B5 JUMP JUMPDEST PUSH2 0x20FC PUSH2 0x20F4 DUP3 PUSH2 0x20D6 JUMP JUMPDEST DUP5 DUP5 SLOAD PUSH2 0x205B JUMP JUMPDEST DUP3 SSTORE POP POP POP POP JUMP JUMPDEST PUSH0 SWAP1 JUMP JUMPDEST PUSH2 0x2110 PUSH2 0x2104 JUMP JUMPDEST PUSH2 0x211B DUP2 DUP5 DUP5 PUSH2 0x20DF JUMP JUMPDEST POP POP POP JUMP JUMPDEST JUMPDEST DUP2 DUP2 LT ISZERO PUSH2 0x213E JUMPI PUSH2 0x2133 PUSH0 DUP3 PUSH2 0x2108 JUMP JUMPDEST PUSH1 0x1 DUP2 ADD SWAP1 POP PUSH2 0x2121 JUMP JUMPDEST POP POP JUMP JUMPDEST PUSH1 0x1F DUP3 GT ISZERO PUSH2 0x2183 JUMPI PUSH2 0x2154 DUP2 PUSH2 0x202E JUMP JUMPDEST PUSH2 0x215D DUP5 PUSH2 0x2040 JUMP JUMPDEST DUP2 ADD PUSH1 0x20 DUP6 LT ISZERO PUSH2 0x216C JUMPI DUP2 SWAP1 POP JUMPDEST PUSH2 0x2180 PUSH2 0x2178 DUP6 PUSH2 0x2040 JUMP JUMPDEST DUP4 ADD DUP3 PUSH2 0x2120 JUMP JUMPDEST POP POP JUMPDEST POP POP POP JUMP JUMPDEST PUSH0 DUP3 DUP3 SHR SWAP1 POP SWAP3 SWAP2 POP POP JUMP JUMPDEST PUSH0 PUSH2 0x21A3 PUSH0 NOT DUP5 PUSH1 0x8 MUL PUSH2 0x2188 JUMP JUMPDEST NOT DUP1 DUP4 AND SWAP2 POP POP SWAP3 SWAP2 POP POP JUMP JUMPDEST PUSH0 PUSH2 0x21BB DUP4 DUP4 PUSH2 0x2194 JUMP JUMPDEST SWAP2 POP DUP3 PUSH1 0x2 MUL DUP3 OR SWAP1 POP SWAP3 SWAP2 POP POP JUMP JUMPDEST PUSH2 0x21D4 DUP3 PUSH2 0x1784 JUMP JUMPDEST PUSH8 0xFFFFFFFFFFFFFFFF DUP2 GT ISZERO PUSH2 0x21ED JUMPI PUSH2 0x21EC PUSH2 0x18BF JUMP JUMPDEST JUMPDEST PUSH2 0x21F7 DUP3 SLOAD PUSH2 0x1F96 JUMP JUMPDEST PUSH2 0x2202 DUP3 DUP3 DUP6 PUSH2 0x2142 JUMP JUMPDEST PUSH0 PUSH1 0x20 SWAP1 POP PUSH1 0x1F DUP4 GT PUSH1 0x1 DUP2 EQ PUSH2 0x2233 JUMPI PUSH0 DUP5 ISZERO PUSH2 0x2221 JUMPI DUP3 DUP8 ADD MLOAD SWAP1 POP JUMPDEST PUSH2 0x222B DUP6 DUP3 PUSH2 0x21B0 JUMP JUMPDEST DUP7 SSTORE POP PUSH2 0x2292 JUMP JUMPDEST PUSH1 0x1F NOT DUP5 AND PUSH2 0x2241 DUP7 PUSH2 0x202E JUMP JUMPDEST PUSH0 JUMPDEST DUP3 DUP2 LT ISZERO PUSH2 0x2268 JUMPI DUP5 DUP10 ADD MLOAD DUP3 SSTORE PUSH1 0x1 DUP3 ADD SWAP2 POP PUSH1 0x20 DUP6 ADD SWAP5 POP PUSH1 0x20 DUP2 ADD SWAP1 POP PUSH2 0x2243 JUMP JUMPDEST DUP7 DUP4 LT ISZERO PUSH2 0x2285 JUMPI DUP5 DUP10 ADD MLOAD PUSH2 0x2281 PUSH1 0x1F DUP10 AND DUP3 PUSH2 0x2194 JUMP JUMPDEST DUP4 SSTORE POP JUMPDEST PUSH1 0x1 PUSH1 0x2 DUP9 MUL ADD DUP9 SSTORE POP POP POP JUMPDEST POP POP POP POP POP POP JUMP INVALID LOG2 PUSH5 0x6970667358 0x22 SLT KECCAK256 0xC0 DUP5 0xC9 EXTCODECOPY 0xC PREVRANDAO RETURNDATASIZE 0xC6 DUP4 PUSH28 0x52964DA56A88AF22A24E6AEB4E6AE40E52DFD55C06EE64736F6C6343 STOP ADDMOD OR STOP CALLER "
				},
				"gasEstimates": {
					"creation": {
						"codeDepositCost": "1782400",
						"executionCost": "1875",
						"totalCost": "1784275"
					},
					"external": {
						"addPatient(string,uint256,string,string[],string[],string[],string[],string[])": "infinite",
						"getPatient(address)": "infinite",
						"patientData(address)": "infinite",
						"patientIsAlive(address)": "infinite",
						"updatePatient(uint256,string[],string[],string[],string[],string[],bool)": "infinite"
					}
				},
				"methodIdentifiers": {
					"addPatient(string,uint256,string,string[],string[],string[],string[],string[])": "5a81e61b",
					"getPatient(address)": "b5368e20",
					"patientData(address)": "2e608c02",
					"patientIsAlive(address)": "5ebcf7b3",
					"updatePatient(uint256,string[],string[],string[],string[],string[],bool)": "3ac36221"
				}
			},
			"storageLayout": {
				"storage": [
					{
						"astId": 30,
						"contract": "contracts/MedicalIndustry.sol:MedicalIndustry",
						"label": "patientData",
						"offset": 0,
						"slot": "0",
						"type": "t_mapping(t_address,t_struct(Patient)25_storage)"
					}
				],
				"types": {
					"t_address": {
						"encoding": "inplace",
						"label": "address",
						"numberOfBytes": "20"
					},
					"t_array(t_string_storage)dyn_storage": {
						"base": "t_string_storage",
						"encoding": "dynamic_array",
						"label": "string[]",
						"numberOfBytes": "32"
					},
					"t_bool": {
						"encoding": "inplace",
						"label": "bool",
						"numberOfBytes": "1"
					},
					"t_mapping(t_address,t_struct(Patient)25_storage)": {
						"encoding": "mapping",
						"key": "t_address",
						"label": "mapping(address => struct MedicalIndustry.Patient)",
						"numberOfBytes": "32",
						"value": "t_struct(Patient)25_storage"
					},
					"t_string_storage": {
						"encoding": "bytes",
						"label": "string",
						"numberOfBytes": "32"
					},
					"t_struct(Patient)25_storage": {
						"encoding": "inplace",
						"label": "struct MedicalIndustry.Patient",
						"members": [
							{
								"astId": 3,
								"contract": "contracts/MedicalIndustry.sol:MedicalIndustry",
								"label": "name",
								"offset": 0,
								"slot": "0",
								"type": "t_string_storage"
							},
							{
								"astId": 5,
								"contract": "contracts/MedicalIndustry.sol:MedicalIndustry",
								"label": "age",
								"offset": 0,
								"slot": "1",
								"type": "t_uint256"
							},
							{
								"astId": 7,
								"contract": "contracts/MedicalIndustry.sol:MedicalIndustry",
								"label": "gender",
								"offset": 0,
								"slot": "2",
								"type": "t_string_storage"
							},
							{
								"astId": 10,
								"contract": "contracts/MedicalIndustry.sol:MedicalIndustry",
								"label": "doctor",
								"offset": 0,
								"slot": "3",
								"type": "t_array(t_string_storage)dyn_storage"
							},
							{
								"astId": 13,
								"contract": "contracts/MedicalIndustry.sol:MedicalIndustry",
								"label": "conditions",
								"offset": 0,
								"slot": "4",
								"type": "t_array(t_string_storage)dyn_storage"
							},
							{
								"astId": 16,
								"contract": "contracts/MedicalIndustry.sol:MedicalIndustry",
								"label": "departments",
								"offset": 0,
								"slot": "5",
								"type": "t_array(t_string_storage)dyn_storage"
							},
							{
								"astId": 19,
								"contract": "contracts/MedicalIndustry.sol:MedicalIndustry",
								"label": "procedures",
								"offset": 0,
								"slot": "6",
								"type": "t_array(t_string_storage)dyn_storage"
							},
							{
								"astId": 22,
								"contract": "contracts/MedicalIndustry.sol:MedicalIndustry",
								"label": "medications",
								"offset": 0,
								"slot": "7",
								"type": "t_array(t_string_storage)dyn_storage"
							},
							{
								"astId": 24,
								"contract": "contracts/MedicalIndustry.sol:MedicalIndustry",
								"label": "isAlive",
								"offset": 0,
								"slot": "8",
								"type": "t_bool"
							}
						],
						"numberOfBytes": "288"
					},
					"t_uint256": {
						"encoding": "inplace",
						"label": "uint256",
						"numberOfBytes": "32"
					}
				}
			},
			"userdoc": {
				"kind": "user",
				"methods": {},
				"version": 1
			}
		}
	}
}