{
	"contracts/Tickets.sol": {
		"EventTicket": {
			"abi": [
				{
					"inputs": [
						{
							"internalType": "uint256",
							"name": "_ticektAmount",
							"type": "uint256"
						}
					],
					"stateMutability": "nonpayable",
					"type": "constructor"
				},
				{
					"inputs": [
						{
							"internalType": "uint256",
							"name": "_value",
							"type": "uint256"
						}
					],
					"name": "BuyTicket",
					"outputs": [
						{
							"internalType": "uint256",
							"name": "_ticketId",
							"type": "uint256"
						}
					],
					"stateMutability": "nonpayable",
					"type": "function"
				},
				{
					"inputs": [],
					"name": "getAmount",
					"outputs": [
						{
							"internalType": "uint256",
							"name": "",
							"type": "uint256"
						}
					],
					"stateMutability": "view",
					"type": "function"
				}
			],
			"devdoc": {
				"kind": "dev",
				"methods": {},
				"version": 1
			},
			"evm": {
				"assembly": "    /* \"contracts/Tickets.sol\":325:370  string   message=\"Buy your First Ticket here\" */\n  0xc0\n    /* \"contracts/Tickets.sol\":58:929  contract EventTicket{ //bit of vague... */\n  0x40\n    /* \"contracts/Tickets.sol\":325:370  string   message=\"Buy your First Ticket here\" */\n  mstore\n  0x1a\n    /* \"contracts/Tickets.sol\":58:929  contract EventTicket{ //bit of vague... */\n  0x80\n    /* \"contracts/Tickets.sol\":325:370  string   message=\"Buy your First Ticket here\" */\n  swap1\n  dup2\n  mstore\n  mstore(0xa0, 0x42757920796f7572204669727374205469636b65742068657265000000000000)\n  0x06\n  swap1\n  tag_1\n  swap1\n  dup3\n  tag_2\n  jump\t// in\ntag_1:\n  pop\n    /* \"contracts/Tickets.sol\":379:582  constructor(uint _ticektAmount){   //initialize values... */\n  callvalue\n  dup1\n  iszero\n  tag_3\n  jumpi\n  0x00\n  dup1\n  revert\ntag_3:\n  pop\n  mload(0x40)\n  sub(codesize, bytecodeSize)\n  dup1\n  bytecodeSize\n  dup4\n  codecopy\n  dup2\n  add\n  0x40\n  dup2\n  swap1\n  mstore\n  tag_4\n  swap2\n  tag_5\n  jump\t// in\ntag_4:\n    /* \"contracts/Tickets.sol\":440:452  ticketAmount */\n  0x00\n    /* \"contracts/Tickets.sol\":440:466  ticketAmount=_ticektAmount */\n  dup2\n  swap1\n  sstore\n    /* \"contracts/Tickets.sol\":482:497  block.timestamp */\n  timestamp\n    /* \"contracts/Tickets.sol\":474:481  startAt */\n  0x01\n    /* \"contracts/Tickets.sol\":474:497  startAt=block.timestamp */\n  dup2\n  swap1\n  sstore\n    /* \"contracts/Tickets.sol\":511:533  block.timestamp+7 days */\n  tag_8\n  swap1\n    /* \"contracts/Tickets.sol\":527:533  7 days */\n  0x093a80\n    /* \"contracts/Tickets.sol\":511:533  block.timestamp+7 days */\n  tag_9\n  jump\t// in\ntag_8:\n    /* \"contracts/Tickets.sol\":505:510  endAt */\n  0x02\n    /* \"contracts/Tickets.sol\":505:533  endAt=block.timestamp+7 days */\n  dup2\n  swap1\n  sstore\n  pop\n    /* \"contracts/Tickets.sol\":573:575  24 */\n  0x18\n    /* \"contracts/Tickets.sol\":570:572  60 */\n  0x3c\n    /* \"contracts/Tickets.sol\":567:569  60 */\n  dup1\n    /* \"contracts/Tickets.sol\":558:565  startAt */\n  sload(0x01)\n    /* \"contracts/Tickets.sol\":552:557  endAt */\n  sload(0x02)\n    /* \"contracts/Tickets.sol\":552:565  endAt-startAt */\n  tag_10\n  swap2\n  swap1\n  tag_11\n  jump\t// in\ntag_10:\n    /* \"contracts/Tickets.sol\":551:569  (endAt-startAt)/60 */\n  tag_12\n  swap2\n  swap1\n  tag_13\n  jump\t// in\ntag_12:\n    /* \"contracts/Tickets.sol\":551:572  (endAt-startAt)/60/60 */\n  tag_14\n  swap2\n  swap1\n  tag_13\n  jump\t// in\ntag_14:\n    /* \"contracts/Tickets.sol\":551:575  (endAt-startAt)/60/60/24 */\n  tag_15\n  swap2\n  swap1\n  tag_13\n  jump\t// in\ntag_15:\n    /* \"contracts/Tickets.sol\":541:550  timeRange */\n  0x03\n    /* \"contracts/Tickets.sol\":541:575  timeRange=(endAt-startAt)/60/60/24 */\n  sstore\n  pop\n    /* \"contracts/Tickets.sol\":58:929  contract EventTicket{ //bit of vague... */\n  jump(tag_23)\n    /* \"#utility.yul\":14:141   */\ntag_17:\n    /* \"#utility.yul\":75:85   */\n  0x4e487b71\n    /* \"#utility.yul\":70:73   */\n  0xe0\n    /* \"#utility.yul\":66:86   */\n  shl\n    /* \"#utility.yul\":63:64   */\n  0x00\n    /* \"#utility.yul\":56:87   */\n  mstore\n    /* \"#utility.yul\":106:110   */\n  0x41\n    /* \"#utility.yul\":103:104   */\n  0x04\n    /* \"#utility.yul\":96:111   */\n  mstore\n    /* \"#utility.yul\":130:134   */\n  0x24\n    /* \"#utility.yul\":127:128   */\n  0x00\n    /* \"#utility.yul\":120:135   */\n  revert\n    /* \"#utility.yul\":146:526   */\ntag_18:\n    /* \"#utility.yul\":225:226   */\n  0x01\n    /* \"#utility.yul\":221:233   */\n  dup2\n  dup2\n  shr\n  swap1\n    /* \"#utility.yul\":268:280   */\n  dup3\n  and\n  dup1\n    /* \"#utility.yul\":289:350   */\n  tag_26\n  jumpi\n    /* \"#utility.yul\":343:347   */\n  0x7f\n    /* \"#utility.yul\":335:341   */\n  dup3\n    /* \"#utility.yul\":331:348   */\n  and\n    /* \"#utility.yul\":321:348   */\n  swap2\n  pop\n    /* \"#utility.yul\":289:350   */\ntag_26:\n    /* \"#utility.yul\":396:398   */\n  0x20\n    /* \"#utility.yul\":388:394   */\n  dup3\n    /* \"#utility.yul\":385:399   */\n  lt\n    /* \"#utility.yul\":365:383   */\n  dup2\n    /* \"#utility.yul\":362:400   */\n  sub\n    /* \"#utility.yul\":359:520   */\n  tag_27\n  jumpi\n    /* \"#utility.yul\":442:452   */\n  0x4e487b71\n    /* \"#utility.yul\":437:440   */\n  0xe0\n    /* \"#utility.yul\":433:453   */\n  shl\n    /* \"#utility.yul\":430:431   */\n  0x00\n    /* \"#utility.yul\":423:454   */\n  mstore\n    /* \"#utility.yul\":477:481   */\n  0x22\n    /* \"#utility.yul\":474:475   */\n  0x04\n    /* \"#utility.yul\":467:482   */\n  mstore\n    /* \"#utility.yul\":505:509   */\n  0x24\n    /* \"#utility.yul\":502:503   */\n  0x00\n    /* \"#utility.yul\":495:510   */\n  revert\n    /* \"#utility.yul\":359:520   */\ntag_27:\n  pop\n    /* \"#utility.yul\":146:526   */\n  swap2\n  swap1\n  pop\n  jump\t// out\n    /* \"#utility.yul\":657:1175   */\ntag_20:\n    /* \"#utility.yul\":759:761   */\n  0x1f\n    /* \"#utility.yul\":754:757   */\n  dup3\n    /* \"#utility.yul\":751:762   */\n  gt\n    /* \"#utility.yul\":748:1169   */\n  iszero\n  tag_30\n  jumpi\n    /* \"#utility.yul\":795:800   */\n  dup1\n    /* \"#utility.yul\":792:793   */\n  0x00\n    /* \"#utility.yul\":785:801   */\n  mstore\n    /* \"#utility.yul\":839:843   */\n  0x20\n    /* \"#utility.yul\":836:837   */\n  0x00\n    /* \"#utility.yul\":826:844   */\n  keccak256\n    /* \"#utility.yul\":909:911   */\n  0x1f\n    /* \"#utility.yul\":897:907   */\n  dup5\n    /* \"#utility.yul\":893:912   */\n  add\n    /* \"#utility.yul\":890:891   */\n  0x05\n    /* \"#utility.yul\":886:913   */\n  shr\n    /* \"#utility.yul\":880:884   */\n  dup2\n    /* \"#utility.yul\":876:914   */\n  add\n    /* \"#utility.yul\":945:949   */\n  0x20\n    /* \"#utility.yul\":933:943   */\n  dup6\n    /* \"#utility.yul\":930:950   */\n  lt\n    /* \"#utility.yul\":927:974   */\n  iszero\n  tag_31\n  jumpi\n  pop\n    /* \"#utility.yul\":968:972   */\n  dup1\n    /* \"#utility.yul\":927:974   */\ntag_31:\n    /* \"#utility.yul\":1023:1025   */\n  0x1f\n    /* \"#utility.yul\":1018:1021   */\n  dup5\n    /* \"#utility.yul\":1014:1026   */\n  add\n    /* \"#utility.yul\":1011:1012   */\n  0x05\n    /* \"#utility.yul\":1007:1027   */\n  shr\n    /* \"#utility.yul\":1001:1005   */\n  dup3\n    /* \"#utility.yul\":997:1028   */\n  add\n    /* \"#utility.yul\":987:1028   */\n  swap2\n  pop\n    /* \"#utility.yul\":1078:1159   */\ntag_32:\n    /* \"#utility.yul\":1096:1098   */\n  dup2\n    /* \"#utility.yul\":1089:1094   */\n  dup2\n    /* \"#utility.yul\":1086:1099   */\n  lt\n    /* \"#utility.yul\":1078:1159   */\n  iszero\n  tag_34\n  jumpi\n    /* \"#utility.yul\":1155:1156   */\n  0x00\n    /* \"#utility.yul\":1141:1157   */\n  dup2\n  sstore\n    /* \"#utility.yul\":1122:1123   */\n  0x01\n    /* \"#utility.yul\":1111:1124   */\n  add\n    /* \"#utility.yul\":1078:1159   */\n  jump(tag_32)\ntag_34:\n    /* \"#utility.yul\":1082:1085   */\n  pop\n  pop\n    /* \"#utility.yul\":748:1169   */\ntag_30:\n    /* \"#utility.yul\":657:1175   */\n  pop\n  pop\n  pop\n  jump\t// out\n    /* \"#utility.yul\":1351:2696   */\ntag_2:\n    /* \"#utility.yul\":1471:1481   */\n  dup2\n  mload\n  sub(shl(0x40, 0x01), 0x01)\n    /* \"#utility.yul\":1493:1523   */\n  dup2\n  gt\n    /* \"#utility.yul\":1490:1546   */\n  iszero\n  tag_38\n  jumpi\n    /* \"#utility.yul\":1526:1544   */\n  tag_38\n  tag_17\n  jump\t// in\ntag_38:\n    /* \"#utility.yul\":1555:1652   */\n  tag_39\n    /* \"#utility.yul\":1645:1651   */\n  dup2\n    /* \"#utility.yul\":1605:1643   */\n  tag_40\n    /* \"#utility.yul\":1637:1641   */\n  dup5\n    /* \"#utility.yul\":1631:1642   */\n  sload\n    /* \"#utility.yul\":1605:1643   */\n  tag_18\n  jump\t// in\ntag_40:\n    /* \"#utility.yul\":1599:1603   */\n  dup5\n    /* \"#utility.yul\":1555:1652   */\n  tag_20\n  jump\t// in\ntag_39:\n    /* \"#utility.yul\":1707:1711   */\n  0x20\n  dup1\n    /* \"#utility.yul\":1764:1766   */\n  0x1f\n    /* \"#utility.yul\":1753:1767   */\n  dup4\n  gt\n    /* \"#utility.yul\":1781:1782   */\n  0x01\n    /* \"#utility.yul\":1776:2439   */\n  dup2\n  eq\n  tag_42\n  jumpi\n    /* \"#utility.yul\":2483:2484   */\n  0x00\n    /* \"#utility.yul\":2500:2506   */\n  dup5\n    /* \"#utility.yul\":2497:2586   */\n  iszero\n  tag_43\n  jumpi\n  pop\n    /* \"#utility.yul\":2552:2571   */\n  dup6\n  dup4\n  add\n    /* \"#utility.yul\":2546:2572   */\n  mload\n    /* \"#utility.yul\":2497:2586   */\ntag_43:\n  not(0x00)\n    /* \"#utility.yul\":1308:1309   */\n  0x03\n    /* \"#utility.yul\":1304:1315   */\n  dup7\n  swap1\n  shl\n    /* \"#utility.yul\":1300:1324   */\n  shr\n    /* \"#utility.yul\":1296:1325   */\n  not\n    /* \"#utility.yul\":1286:1326   */\n  and\n    /* \"#utility.yul\":1332:1333   */\n  0x01\n    /* \"#utility.yul\":1328:1339   */\n  dup6\n  swap1\n  shl\n    /* \"#utility.yul\":1283:1340   */\n  or\n    /* \"#utility.yul\":2599:2680   */\n  dup6\n  sstore\n    /* \"#utility.yul\":1746:2690   */\n  jump(tag_41)\n    /* \"#utility.yul\":1776:2439   */\ntag_42:\n    /* \"#utility.yul\":604:605   */\n  0x00\n    /* \"#utility.yul\":597:611   */\n  dup6\n  dup2\n  mstore\n    /* \"#utility.yul\":641:645   */\n  0x20\n    /* \"#utility.yul\":628:646   */\n  dup2\n  keccak256\n  not(0x1f)\n    /* \"#utility.yul\":1812:1832   */\n  dup7\n  and\n  swap2\n    /* \"#utility.yul\":1930:2166   */\ntag_46:\n    /* \"#utility.yul\":1944:1951   */\n  dup3\n    /* \"#utility.yul\":1941:1942   */\n  dup2\n    /* \"#utility.yul\":1938:1952   */\n  lt\n    /* \"#utility.yul\":1930:2166   */\n  iszero\n  tag_48\n  jumpi\n    /* \"#utility.yul\":2033:2052   */\n  dup9\n  dup7\n  add\n    /* \"#utility.yul\":2027:2053   */\n  mload\n    /* \"#utility.yul\":2012:2054   */\n  dup3\n  sstore\n    /* \"#utility.yul\":2125:2152   */\n  swap5\n  dup5\n  add\n  swap5\n    /* \"#utility.yul\":2093:2094   */\n  0x01\n    /* \"#utility.yul\":2081:2095   */\n  swap1\n  swap2\n  add\n  swap1\n    /* \"#utility.yul\":1960:1979   */\n  dup5\n  add\n    /* \"#utility.yul\":1930:2166   */\n  jump(tag_46)\ntag_48:\n    /* \"#utility.yul\":1934:1937   */\n  pop\n    /* \"#utility.yul\":2194:2200   */\n  dup6\n    /* \"#utility.yul\":2185:2192   */\n  dup3\n    /* \"#utility.yul\":2182:2201   */\n  lt\n    /* \"#utility.yul\":2179:2380   */\n  iszero\n  tag_49\n  jumpi\n    /* \"#utility.yul\":2255:2274   */\n  dup8\n  dup6\n  add\n    /* \"#utility.yul\":2249:2275   */\n  mload\n  not(0x00)\n    /* \"#utility.yul\":2338:2339   */\n  0x03\n    /* \"#utility.yul\":2334:2348   */\n  dup9\n  swap1\n  shl\n    /* \"#utility.yul\":2350:2353   */\n  0xf8\n    /* \"#utility.yul\":2330:2354   */\n  and\n    /* \"#utility.yul\":2326:2363   */\n  shr\n    /* \"#utility.yul\":2322:2364   */\n  not\n    /* \"#utility.yul\":2307:2365   */\n  and\n    /* \"#utility.yul\":2292:2366   */\n  dup2\n  sstore\n    /* \"#utility.yul\":2179:2380   */\ntag_49:\n  pop\n  pop\n    /* \"#utility.yul\":2426:2427   */\n  0x01\n    /* \"#utility.yul\":2417:2423   */\n  dup5\n    /* \"#utility.yul\":2414:2415   */\n  0x01\n    /* \"#utility.yul\":2410:2424   */\n  shl\n    /* \"#utility.yul\":2406:2428   */\n  add\n    /* \"#utility.yul\":2400:2404   */\n  dup6\n    /* \"#utility.yul\":2393:2429   */\n  sstore\n    /* \"#utility.yul\":1746:2690   */\ntag_41:\n  pop\n  pop\n  pop\n  pop\n    /* \"#utility.yul\":1351:2696   */\n  pop\n  pop\n  jump\t// out\n    /* \"#utility.yul\":2701:2885   */\ntag_5:\n    /* \"#utility.yul\":2771:2777   */\n  0x00\n    /* \"#utility.yul\":2824:2826   */\n  0x20\n    /* \"#utility.yul\":2812:2821   */\n  dup3\n    /* \"#utility.yul\":2803:2810   */\n  dup5\n    /* \"#utility.yul\":2799:2822   */\n  sub\n    /* \"#utility.yul\":2795:2827   */\n  slt\n    /* \"#utility.yul\":2792:2844   */\n  iszero\n  tag_51\n  jumpi\n    /* \"#utility.yul\":2840:2841   */\n  0x00\n    /* \"#utility.yul\":2837:2838   */\n  dup1\n    /* \"#utility.yul\":2830:2842   */\n  revert\n    /* \"#utility.yul\":2792:2844   */\ntag_51:\n  pop\n    /* \"#utility.yul\":2863:2879   */\n  mload\n  swap2\n    /* \"#utility.yul\":2701:2885   */\n  swap1\n  pop\n  jump\t// out\n    /* \"#utility.yul\":2890:3017   */\ntag_22:\n    /* \"#utility.yul\":2951:2961   */\n  0x4e487b71\n    /* \"#utility.yul\":2946:2949   */\n  0xe0\n    /* \"#utility.yul\":2942:2962   */\n  shl\n    /* \"#utility.yul\":2939:2940   */\n  0x00\n    /* \"#utility.yul\":2932:2963   */\n  mstore\n    /* \"#utility.yul\":2982:2986   */\n  0x11\n    /* \"#utility.yul\":2979:2980   */\n  0x04\n    /* \"#utility.yul\":2972:2987   */\n  mstore\n    /* \"#utility.yul\":3006:3010   */\n  0x24\n    /* \"#utility.yul\":3003:3004   */\n  0x00\n    /* \"#utility.yul\":2996:3011   */\n  revert\n    /* \"#utility.yul\":3022:3147   */\ntag_9:\n    /* \"#utility.yul\":3087:3096   */\n  dup1\n  dup3\n  add\n    /* \"#utility.yul\":3108:3118   */\n  dup1\n  dup3\n  gt\n    /* \"#utility.yul\":3105:3141   */\n  iszero\n  tag_55\n  jumpi\n    /* \"#utility.yul\":3121:3139   */\n  tag_55\n  tag_22\n  jump\t// in\ntag_55:\n    /* \"#utility.yul\":3022:3147   */\n  swap3\n  swap2\n  pop\n  pop\n  jump\t// out\n    /* \"#utility.yul\":3152:3280   */\ntag_11:\n    /* \"#utility.yul\":3219:3228   */\n  dup2\n  dup2\n  sub\n    /* \"#utility.yul\":3240:3251   */\n  dup2\n  dup2\n  gt\n    /* \"#utility.yul\":3237:3274   */\n  iszero\n  tag_55\n  jumpi\n    /* \"#utility.yul\":3254:3272   */\n  tag_55\n  tag_22\n  jump\t// in\n    /* \"#utility.yul\":3285:3502   */\ntag_13:\n    /* \"#utility.yul\":3325:3326   */\n  0x00\n    /* \"#utility.yul\":3351:3352   */\n  dup3\n    /* \"#utility.yul\":3341:3473   */\n  tag_60\n  jumpi\n    /* \"#utility.yul\":3395:3405   */\n  0x4e487b71\n    /* \"#utility.yul\":3390:3393   */\n  0xe0\n    /* \"#utility.yul\":3386:3406   */\n  shl\n    /* \"#utility.yul\":3383:3384   */\n  0x00\n    /* \"#utility.yul\":3376:3407   */\n  mstore\n    /* \"#utility.yul\":3430:3434   */\n  0x12\n    /* \"#utility.yul\":3427:3428   */\n  0x04\n    /* \"#utility.yul\":3420:3435   */\n  mstore\n    /* \"#utility.yul\":3458:3462   */\n  0x24\n    /* \"#utility.yul\":3455:3456   */\n  0x00\n    /* \"#utility.yul\":3448:3463   */\n  revert\n    /* \"#utility.yul\":3341:3473   */\ntag_60:\n  pop\n    /* \"#utility.yul\":3487:3496   */\n  div\n  swap1\n    /* \"#utility.yul\":3285:3502   */\n  jump\t// out\ntag_23:\n    /* \"contracts/Tickets.sol\":58:929  contract EventTicket{ //bit of vague... */\n  dataSize(sub_0)\n  dup1\n  dataOffset(sub_0)\n  0x00\n  codecopy\n  0x00\n  return\nstop\n\nsub_0: assembly {\n        /* \"contracts/Tickets.sol\":58:929  contract EventTicket{ //bit of vague... */\n      mstore(0x40, 0x80)\n      callvalue\n      dup1\n      iszero\n      tag_1\n      jumpi\n      0x00\n      dup1\n      revert\n    tag_1:\n      pop\n      jumpi(tag_2, lt(calldatasize, 0x04))\n      shr(0xe0, calldataload(0x00))\n      dup1\n      0x76acb5e8\n      eq\n      tag_3\n      jumpi\n      dup1\n      0xd321fe29\n      eq\n      tag_4\n      jumpi\n    tag_2:\n      0x00\n      dup1\n      revert\n        /* \"contracts/Tickets.sol\":620:839  function BuyTicket(uint _value) public returns (uint _ticketId){... */\n    tag_3:\n      tag_5\n      tag_6\n      calldatasize\n      0x04\n      tag_7\n      jump\t// in\n    tag_6:\n      tag_8\n      jump\t// in\n    tag_5:\n      mload(0x40)\n        /* \"#utility.yul\":345:370   */\n      swap1\n      dup2\n      mstore\n        /* \"#utility.yul\":333:335   */\n      0x20\n        /* \"#utility.yul\":318:336   */\n      add\n        /* \"contracts/Tickets.sol\":620:839  function BuyTicket(uint _value) public returns (uint _ticketId){... */\n      mload(0x40)\n      dup1\n      swap2\n      sub\n      swap1\n      return\n        /* \"contracts/Tickets.sol\":844:922  function getAmount()public view returns (uint ){... */\n    tag_4:\n        /* \"contracts/Tickets.sol\":906:917  totalAmount */\n      sload(0x04)\n        /* \"contracts/Tickets.sol\":844:922  function getAmount()public view returns (uint ){... */\n      jump(tag_5)\n        /* \"contracts/Tickets.sol\":620:839  function BuyTicket(uint _value) public returns (uint _ticketId){... */\n    tag_8:\n        /* \"contracts/Tickets.sol\":691:706  numberOfTickets */\n      0x05\n        /* \"contracts/Tickets.sol\":691:708  numberOfTickets++ */\n      dup1\n      sload\n        /* \"contracts/Tickets.sol\":668:682  uint _ticketId */\n      0x00\n      swap2\n      dup3\n        /* \"contracts/Tickets.sol\":691:708  numberOfTickets++ */\n      tag_15\n      dup4\n      tag_16\n      jump\t// in\n    tag_15:\n      swap1\n      swap2\n      sstore\n      pop\n      pop\n        /* \"contracts/Tickets.sol\":736:747  totalAmount */\n      sload(0x04)\n        /* \"contracts/Tickets.sol\":729:747  _value+totalAmount */\n      tag_17\n      swap1\n        /* \"contracts/Tickets.sol\":729:735  _value */\n      dup4\n        /* \"contracts/Tickets.sol\":729:747  _value+totalAmount */\n      tag_18\n      jump\t// in\n    tag_17:\n        /* \"contracts/Tickets.sol\":717:728  totalAmount */\n      0x04\n        /* \"contracts/Tickets.sol\":717:747  totalAmount=_value+totalAmount */\n      sstore\n      pop\n      pop\n        /* \"contracts/Tickets.sol\":765:780  numberOfTickets */\n      sload(0x05)\n      swap1\n        /* \"contracts/Tickets.sol\":620:839  function BuyTicket(uint _value) public returns (uint _ticketId){... */\n      jump\t// out\n        /* \"#utility.yul\":14:194   */\n    tag_7:\n        /* \"#utility.yul\":73:79   */\n      0x00\n        /* \"#utility.yul\":126:128   */\n      0x20\n        /* \"#utility.yul\":114:123   */\n      dup3\n        /* \"#utility.yul\":105:112   */\n      dup5\n        /* \"#utility.yul\":101:124   */\n      sub\n        /* \"#utility.yul\":97:129   */\n      slt\n        /* \"#utility.yul\":94:146   */\n      iszero\n      tag_23\n      jumpi\n        /* \"#utility.yul\":142:143   */\n      0x00\n        /* \"#utility.yul\":139:140   */\n      dup1\n        /* \"#utility.yul\":132:144   */\n      revert\n        /* \"#utility.yul\":94:146   */\n    tag_23:\n      pop\n        /* \"#utility.yul\":165:188   */\n      calldataload\n      swap2\n        /* \"#utility.yul\":14:194   */\n      swap1\n      pop\n      jump\t// out\n        /* \"#utility.yul\":381:508   */\n    tag_20:\n        /* \"#utility.yul\":442:452   */\n      0x4e487b71\n        /* \"#utility.yul\":437:440   */\n      0xe0\n        /* \"#utility.yul\":433:453   */\n      shl\n        /* \"#utility.yul\":430:431   */\n      0x00\n        /* \"#utility.yul\":423:454   */\n      mstore\n        /* \"#utility.yul\":473:477   */\n      0x11\n        /* \"#utility.yul\":470:471   */\n      0x04\n        /* \"#utility.yul\":463:478   */\n      mstore\n        /* \"#utility.yul\":497:501   */\n      0x24\n        /* \"#utility.yul\":494:495   */\n      0x00\n        /* \"#utility.yul\":487:502   */\n      revert\n        /* \"#utility.yul\":513:648   */\n    tag_16:\n        /* \"#utility.yul\":552:555   */\n      0x00\n        /* \"#utility.yul\":573:590   */\n      0x01\n      dup3\n      add\n        /* \"#utility.yul\":570:613   */\n      tag_28\n      jumpi\n        /* \"#utility.yul\":593:611   */\n      tag_28\n      tag_20\n      jump\t// in\n    tag_28:\n      pop\n        /* \"#utility.yul\":640:641   */\n      0x01\n        /* \"#utility.yul\":629:642   */\n      add\n      swap1\n        /* \"#utility.yul\":513:648   */\n      jump\t// out\n        /* \"#utility.yul\":653:778   */\n    tag_18:\n        /* \"#utility.yul\":718:727   */\n      dup1\n      dup3\n      add\n        /* \"#utility.yul\":739:749   */\n      dup1\n      dup3\n      gt\n        /* \"#utility.yul\":736:772   */\n      iszero\n      tag_31\n      jumpi\n        /* \"#utility.yul\":752:770   */\n      tag_31\n      tag_20\n      jump\t// in\n    tag_31:\n        /* \"#utility.yul\":653:778   */\n      swap3\n      swap2\n      pop\n      pop\n      jump\t// out\n\n    auxdata: 0xa2646970667358221220f29aa4b34085ced6abf2d846fc0e600377790be91201d4cfdedad68c608286d264736f6c63430008170033\n}\n",
				"bytecode": {
					"linkReferences": {},
					"object": "60c0604052601a60809081527f42757920796f7572204669727374205469636b6574206865726500000000000060a05260069061003c9082610158565b50348015610048575f80fd5b506040516103aa3803806103aa83398101604081905261006791610217565b5f81905542600181905561007e9062093a80610242565b6002819055506018603c80600154600254610099919061025b565b6100a3919061026e565b6100ad919061026e565b6100b7919061026e565b6003555061028d565b634e487b7160e01b5f52604160045260245ffd5b600181811c908216806100e857607f821691505b60208210810361010657634e487b7160e01b5f52602260045260245ffd5b50919050565b601f82111561015357805f5260205f20601f840160051c810160208510156101315750805b601f840160051c820191505b81811015610150575f815560010161013d565b50505b505050565b81516001600160401b03811115610171576101716100c0565b6101858161017f84546100d4565b8461010c565b602080601f8311600181146101b8575f84156101a15750858301515b5f19600386901b1c1916600185901b17855561020f565b5f85815260208120601f198616915b828110156101e6578886015182559484019460019091019084016101c7565b508582101561020357878501515f19600388901b60f8161c191681555b505060018460011b0185555b505050505050565b5f60208284031215610227575f80fd5b5051919050565b634e487b7160e01b5f52601160045260245ffd5b808201808211156102555761025561022e565b92915050565b818103818111156102555761025561022e565b5f8261028857634e487b7160e01b5f52601260045260245ffd5b500490565b6101108061029a5f395ff3fe6080604052348015600e575f80fd5b50600436106030575f3560e01c806376acb5e8146034578063d321fe29146055575b5f80fd5b6043603f3660046085565b605c565b60405190815260200160405180910390f35b6004546043565b600580545f9182606a8360af565b9091555050600454607a908360c4565b600455505060055490565b5f602082840312156094575f80fd5b5035919050565b634e487b7160e01b5f52601160045260245ffd5b5f6001820160bd5760bd609b565b5060010190565b8082018082111560d45760d4609b565b9291505056fea2646970667358221220f29aa4b34085ced6abf2d846fc0e600377790be91201d4cfdedad68c608286d264736f6c63430008170033",
					"opcodes": "PUSH1 0xC0 PUSH1 0x40 MSTORE PUSH1 0x1A PUSH1 0x80 SWAP1 DUP2 MSTORE PUSH32 0x42757920796F7572204669727374205469636B65742068657265000000000000 PUSH1 0xA0 MSTORE PUSH1 0x6 SWAP1 PUSH2 0x3C SWAP1 DUP3 PUSH2 0x158 JUMP JUMPDEST POP CALLVALUE DUP1 ISZERO PUSH2 0x48 JUMPI PUSH0 DUP1 REVERT JUMPDEST POP PUSH1 0x40 MLOAD PUSH2 0x3AA CODESIZE SUB DUP1 PUSH2 0x3AA DUP4 CODECOPY DUP2 ADD PUSH1 0x40 DUP2 SWAP1 MSTORE PUSH2 0x67 SWAP2 PUSH2 0x217 JUMP JUMPDEST PUSH0 DUP2 SWAP1 SSTORE TIMESTAMP PUSH1 0x1 DUP2 SWAP1 SSTORE PUSH2 0x7E SWAP1 PUSH3 0x93A80 PUSH2 0x242 JUMP JUMPDEST PUSH1 0x2 DUP2 SWAP1 SSTORE POP PUSH1 0x18 PUSH1 0x3C DUP1 PUSH1 0x1 SLOAD PUSH1 0x2 SLOAD PUSH2 0x99 SWAP2 SWAP1 PUSH2 0x25B JUMP JUMPDEST PUSH2 0xA3 SWAP2 SWAP1 PUSH2 0x26E JUMP JUMPDEST PUSH2 0xAD SWAP2 SWAP1 PUSH2 0x26E JUMP JUMPDEST PUSH2 0xB7 SWAP2 SWAP1 PUSH2 0x26E JUMP JUMPDEST PUSH1 0x3 SSTORE POP PUSH2 0x28D JUMP JUMPDEST PUSH4 0x4E487B71 PUSH1 0xE0 SHL PUSH0 MSTORE PUSH1 0x41 PUSH1 0x4 MSTORE PUSH1 0x24 PUSH0 REVERT JUMPDEST PUSH1 0x1 DUP2 DUP2 SHR SWAP1 DUP3 AND DUP1 PUSH2 0xE8 JUMPI PUSH1 0x7F DUP3 AND SWAP2 POP JUMPDEST PUSH1 0x20 DUP3 LT DUP2 SUB PUSH2 0x106 JUMPI PUSH4 0x4E487B71 PUSH1 0xE0 SHL PUSH0 MSTORE PUSH1 0x22 PUSH1 0x4 MSTORE PUSH1 0x24 PUSH0 REVERT JUMPDEST POP SWAP2 SWAP1 POP JUMP JUMPDEST PUSH1 0x1F DUP3 GT ISZERO PUSH2 0x153 JUMPI DUP1 PUSH0 MSTORE PUSH1 0x20 PUSH0 KECCAK256 PUSH1 0x1F DUP5 ADD PUSH1 0x5 SHR DUP2 ADD PUSH1 0x20 DUP6 LT ISZERO PUSH2 0x131 JUMPI POP DUP1 JUMPDEST PUSH1 0x1F DUP5 ADD PUSH1 0x5 SHR DUP3 ADD SWAP2 POP JUMPDEST DUP2 DUP2 LT ISZERO PUSH2 0x150 JUMPI PUSH0 DUP2 SSTORE PUSH1 0x1 ADD PUSH2 0x13D JUMP JUMPDEST POP POP JUMPDEST POP POP POP JUMP JUMPDEST DUP2 MLOAD PUSH1 0x1 PUSH1 0x1 PUSH1 0x40 SHL SUB DUP2 GT ISZERO PUSH2 0x171 JUMPI PUSH2 0x171 PUSH2 0xC0 JUMP JUMPDEST PUSH2 0x185 DUP2 PUSH2 0x17F DUP5 SLOAD PUSH2 0xD4 JUMP JUMPDEST DUP5 PUSH2 0x10C JUMP JUMPDEST PUSH1 0x20 DUP1 PUSH1 0x1F DUP4 GT PUSH1 0x1 DUP2 EQ PUSH2 0x1B8 JUMPI PUSH0 DUP5 ISZERO PUSH2 0x1A1 JUMPI POP DUP6 DUP4 ADD MLOAD JUMPDEST PUSH0 NOT PUSH1 0x3 DUP7 SWAP1 SHL SHR NOT AND PUSH1 0x1 DUP6 SWAP1 SHL OR DUP6 SSTORE PUSH2 0x20F JUMP JUMPDEST PUSH0 DUP6 DUP2 MSTORE PUSH1 0x20 DUP2 KECCAK256 PUSH1 0x1F NOT DUP7 AND SWAP2 JUMPDEST DUP3 DUP2 LT ISZERO PUSH2 0x1E6 JUMPI DUP9 DUP7 ADD MLOAD DUP3 SSTORE SWAP5 DUP5 ADD SWAP5 PUSH1 0x1 SWAP1 SWAP2 ADD SWAP1 DUP5 ADD PUSH2 0x1C7 JUMP JUMPDEST POP DUP6 DUP3 LT ISZERO PUSH2 0x203 JUMPI DUP8 DUP6 ADD MLOAD PUSH0 NOT PUSH1 0x3 DUP9 SWAP1 SHL PUSH1 0xF8 AND SHR NOT AND DUP2 SSTORE JUMPDEST POP POP PUSH1 0x1 DUP5 PUSH1 0x1 SHL ADD DUP6 SSTORE JUMPDEST POP POP POP POP POP POP JUMP JUMPDEST PUSH0 PUSH1 0x20 DUP3 DUP5 SUB SLT ISZERO PUSH2 0x227 JUMPI PUSH0 DUP1 REVERT JUMPDEST POP MLOAD SWAP2 SWAP1 POP JUMP JUMPDEST PUSH4 0x4E487B71 PUSH1 0xE0 SHL PUSH0 MSTORE PUSH1 0x11 PUSH1 0x4 MSTORE PUSH1 0x24 PUSH0 REVERT JUMPDEST DUP1 DUP3 ADD DUP1 DUP3 GT ISZERO PUSH2 0x255 JUMPI PUSH2 0x255 PUSH2 0x22E JUMP JUMPDEST SWAP3 SWAP2 POP POP JUMP JUMPDEST DUP2 DUP2 SUB DUP2 DUP2 GT ISZERO PUSH2 0x255 JUMPI PUSH2 0x255 PUSH2 0x22E JUMP JUMPDEST PUSH0 DUP3 PUSH2 0x288 JUMPI PUSH4 0x4E487B71 PUSH1 0xE0 SHL PUSH0 MSTORE PUSH1 0x12 PUSH1 0x4 MSTORE PUSH1 0x24 PUSH0 REVERT JUMPDEST POP DIV SWAP1 JUMP JUMPDEST PUSH2 0x110 DUP1 PUSH2 0x29A PUSH0 CODECOPY PUSH0 RETURN INVALID PUSH1 0x80 PUSH1 0x40 MSTORE CALLVALUE DUP1 ISZERO PUSH1 0xE JUMPI PUSH0 DUP1 REVERT JUMPDEST POP PUSH1 0x4 CALLDATASIZE LT PUSH1 0x30 JUMPI PUSH0 CALLDATALOAD PUSH1 0xE0 SHR DUP1 PUSH4 0x76ACB5E8 EQ PUSH1 0x34 JUMPI DUP1 PUSH4 0xD321FE29 EQ PUSH1 0x55 JUMPI JUMPDEST PUSH0 DUP1 REVERT JUMPDEST PUSH1 0x43 PUSH1 0x3F CALLDATASIZE PUSH1 0x4 PUSH1 0x85 JUMP JUMPDEST PUSH1 0x5C JUMP JUMPDEST PUSH1 0x40 MLOAD SWAP1 DUP2 MSTORE PUSH1 0x20 ADD PUSH1 0x40 MLOAD DUP1 SWAP2 SUB SWAP1 RETURN JUMPDEST PUSH1 0x4 SLOAD PUSH1 0x43 JUMP JUMPDEST PUSH1 0x5 DUP1 SLOAD PUSH0 SWAP2 DUP3 PUSH1 0x6A DUP4 PUSH1 0xAF JUMP JUMPDEST SWAP1 SWAP2 SSTORE POP POP PUSH1 0x4 SLOAD PUSH1 0x7A SWAP1 DUP4 PUSH1 0xC4 JUMP JUMPDEST PUSH1 0x4 SSTORE POP POP PUSH1 0x5 SLOAD SWAP1 JUMP JUMPDEST PUSH0 PUSH1 0x20 DUP3 DUP5 SUB SLT ISZERO PUSH1 0x94 JUMPI PUSH0 DUP1 REVERT JUMPDEST POP CALLDATALOAD SWAP2 SWAP1 POP JUMP JUMPDEST PUSH4 0x4E487B71 PUSH1 0xE0 SHL PUSH0 MSTORE PUSH1 0x11 PUSH1 0x4 MSTORE PUSH1 0x24 PUSH0 REVERT JUMPDEST PUSH0 PUSH1 0x1 DUP3 ADD PUSH1 0xBD JUMPI PUSH1 0xBD PUSH1 0x9B JUMP JUMPDEST POP PUSH1 0x1 ADD SWAP1 JUMP JUMPDEST DUP1 DUP3 ADD DUP1 DUP3 GT ISZERO PUSH1 0xD4 JUMPI PUSH1 0xD4 PUSH1 0x9B JUMP JUMPDEST SWAP3 SWAP2 POP POP JUMP INVALID LOG2 PUSH5 0x6970667358 0x22 SLT KECCAK256 CALLCODE SWAP11 LOG4 0xB3 BLOCKHASH DUP6 0xCE 0xD6 0xAB CALLCODE 0xD8 CHAINID 0xFC 0xE PUSH1 0x3 PUSH24 0x790BE91201D4CFDEDAD68C608286D264736F6C6343000817 STOP CALLER "
				},
				"gasEstimates": {
					"creation": {
						"codeDepositCost": "54400",
						"executionCost": "infinite",
						"totalCost": "infinite"
					},
					"external": {
						"BuyTicket(uint256)": "50920",
						"getAmount()": "2279"
					}
				},
				"methodIdentifiers": {
					"BuyTicket(uint256)": "76acb5e8",
					"getAmount()": "d321fe29"
				}
			},
			"storageLayout": {
				"storage": [
					{
						"astId": 3,
						"contract": "contracts/Tickets.sol:EventTicket",
						"label": "ticketAmount",
						"offset": 0,
						"slot": "0",
						"type": "t_uint256"
					},
					{
						"astId": 5,
						"contract": "contracts/Tickets.sol:EventTicket",
						"label": "startAt",
						"offset": 0,
						"slot": "1",
						"type": "t_uint256"
					},
					{
						"astId": 7,
						"contract": "contracts/Tickets.sol:EventTicket",
						"label": "endAt",
						"offset": 0,
						"slot": "2",
						"type": "t_uint256"
					},
					{
						"astId": 9,
						"contract": "contracts/Tickets.sol:EventTicket",
						"label": "timeRange",
						"offset": 0,
						"slot": "3",
						"type": "t_uint256"
					},
					{
						"astId": 11,
						"contract": "contracts/Tickets.sol:EventTicket",
						"label": "totalAmount",
						"offset": 0,
						"slot": "4",
						"type": "t_uint256"
					},
					{
						"astId": 13,
						"contract": "contracts/Tickets.sol:EventTicket",
						"label": "numberOfTickets",
						"offset": 0,
						"slot": "5",
						"type": "t_uint256"
					},
					{
						"astId": 16,
						"contract": "contracts/Tickets.sol:EventTicket",
						"label": "message",
						"offset": 0,
						"slot": "6",
						"type": "t_string_storage"
					}
				],
				"types": {
					"t_string_storage": {
						"encoding": "bytes",
						"label": "string",
						"numberOfBytes": "32"
					},
					"t_uint256": {
						"encoding": "inplace",
						"label": "uint256",
						"numberOfBytes": "32"
					}
				}
			},
			"userdoc": {
				"kind": "user",
				"methods": {},
				"version": 1
			}
		}
	}
}