{
	"contracts/Decode.sol": {
		"AbiDecode": {
			"abi": [
				{
					"inputs": [
						{
							"internalType": "bytes",
							"name": "data",
							"type": "bytes"
						}
					],
					"name": "deCode",
					"outputs": [
						{
							"internalType": "uint256",
							"name": "_amount",
							"type": "uint256"
						},
						{
							"internalType": "address",
							"name": "_addr",
							"type": "address"
						},
						{
							"internalType": "uint256[]",
							"name": "_arr",
							"type": "uint256[]"
						},
						{
							"components": [
								{
									"internalType": "string",
									"name": "name",
									"type": "string"
								},
								{
									"internalType": "uint256[2]",
									"name": "nums",
									"type": "uint256[2]"
								}
							],
							"internalType": "struct AbiDecode.MyStruct",
							"name": "_myStruct",
							"type": "tuple"
						}
					],
					"stateMutability": "pure",
					"type": "function"
				},
				{
					"inputs": [
						{
							"internalType": "uint256",
							"name": "_amount",
							"type": "uint256"
						},
						{
							"internalType": "address",
							"name": "_addr",
							"type": "address"
						},
						{
							"internalType": "uint256[]",
							"name": "_arr",
							"type": "uint256[]"
						},
						{
							"components": [
								{
									"internalType": "string",
									"name": "name",
									"type": "string"
								},
								{
									"internalType": "uint256[2]",
									"name": "nums",
									"type": "uint256[2]"
								}
							],
							"internalType": "struct AbiDecode.MyStruct",
							"name": "_mystruct",
							"type": "tuple"
						}
					],
					"name": "encodeDate",
					"outputs": [
						{
							"internalType": "bytes",
							"name": "",
							"type": "bytes"
						}
					],
					"stateMutability": "pure",
					"type": "function"
				}
			],
			"devdoc": {
				"kind": "dev",
				"methods": {},
				"version": 1
			},
			"evm": {
				"assembly": "    /* \"contracts/Decode.sol\":58:706  contract AbiDecode{... */\n  mstore(0x40, 0x80)\n  callvalue\n  dup1\n  iszero\n  tag_1\n  jumpi\n  0x00\n  dup1\n  revert\ntag_1:\n  pop\n  dataSize(sub_0)\n  dup1\n  dataOffset(sub_0)\n  0x00\n  codecopy\n  0x00\n  return\nstop\n\nsub_0: assembly {\n        /* \"contracts/Decode.sol\":58:706  contract AbiDecode{... */\n      mstore(0x40, 0x80)\n      callvalue\n      dup1\n      iszero\n      tag_1\n      jumpi\n      0x00\n      dup1\n      revert\n    tag_1:\n      pop\n      jumpi(tag_2, lt(calldatasize, 0x04))\n      shr(0xe0, calldataload(0x00))\n      dup1\n      0xd097af29\n      eq\n      tag_3\n      jumpi\n      dup1\n      0xdb3335fc\n      eq\n      tag_4\n      jumpi\n    tag_2:\n      0x00\n      dup1\n      revert\n        /* \"contracts/Decode.sol\":444:703  function deCode(bytes calldata data)external pure returns(... */\n    tag_3:\n      tag_5\n      0x04\n      dup1\n      calldatasize\n      sub\n      dup2\n      add\n      swap1\n      tag_6\n      swap2\n      swap1\n      tag_7\n      jump\t// in\n    tag_6:\n      tag_8\n      jump\t// in\n    tag_5:\n      mload(0x40)\n      tag_9\n      swap5\n      swap4\n      swap3\n      swap2\n      swap1\n      tag_10\n      jump\t// in\n    tag_9:\n      mload(0x40)\n      dup1\n      swap2\n      sub\n      swap1\n      return\n        /* \"contracts/Decode.sol\":186:406  function encodeDate(... */\n    tag_4:\n      tag_11\n      0x04\n      dup1\n      calldatasize\n      sub\n      dup2\n      add\n      swap1\n      tag_12\n      swap2\n      swap1\n      tag_13\n      jump\t// in\n    tag_12:\n      tag_14\n      jump\t// in\n    tag_11:\n      mload(0x40)\n      tag_15\n      swap2\n      swap1\n      tag_16\n      jump\t// in\n    tag_15:\n      mload(0x40)\n      dup1\n      swap2\n      sub\n      swap1\n      return\n        /* \"contracts/Decode.sol\":444:703  function deCode(bytes calldata data)external pure returns(... */\n    tag_8:\n        /* \"contracts/Decode.sol\":508:520  uint _amount */\n      0x00\n        /* \"contracts/Decode.sol\":528:541  address _addr */\n      dup1\n        /* \"contracts/Decode.sol\":548:566  uint[] memory _arr */\n      0x60\n        /* \"contracts/Decode.sol\":573:598  MyStruct memory _myStruct */\n      tag_17\n      tag_18\n      jump\t// in\n    tag_17:\n        /* \"contracts/Decode.sol\":652:656  data */\n      dup6\n      dup6\n        /* \"contracts/Decode.sol\":641:693  abi.decode(data, (uint, address , uint[], MyStruct)) */\n      dup2\n      add\n      swap1\n      tag_20\n      swap2\n      swap1\n      tag_21\n      jump\t// in\n    tag_20:\n        /* \"contracts/Decode.sol\":610:693  (_amount,_addr,_arr,_myStruct)=abi.decode(data, (uint, address , uint[], MyStruct)) */\n      dup1\n      swap5\n      pop\n      dup2\n      swap6\n      pop\n      dup3\n      swap7\n      pop\n      dup4\n      swap8\n      pop\n      pop\n      pop\n      pop\n      pop\n        /* \"contracts/Decode.sol\":444:703  function deCode(bytes calldata data)external pure returns(... */\n      swap3\n      swap6\n      swap2\n      swap5\n      pop\n      swap3\n      pop\n      jump\t// out\n        /* \"contracts/Decode.sol\":186:406  function encodeDate(... */\n    tag_14:\n        /* \"contracts/Decode.sol\":336:348  bytes memory */\n      0x60\n        /* \"contracts/Decode.sol\":372:379  _amount */\n      dup6\n        /* \"contracts/Decode.sol\":380:385  _addr */\n      dup6\n        /* \"contracts/Decode.sol\":386:390  _arr */\n      dup6\n      dup6\n        /* \"contracts/Decode.sol\":391:400  _mystruct */\n      dup6\n        /* \"contracts/Decode.sol\":361:401  abi.encode(_amount,_addr,_arr,_mystruct) */\n      add(0x20, mload(0x40))\n      tag_23\n      swap6\n      swap5\n      swap4\n      swap3\n      swap2\n      swap1\n      tag_24\n      jump\t// in\n    tag_23:\n      mload(0x40)\n      0x20\n      dup2\n      dup4\n      sub\n      sub\n      dup2\n      mstore\n      swap1\n      0x40\n      mstore\n        /* \"contracts/Decode.sol\":354:401  return abi.encode(_amount,_addr,_arr,_mystruct) */\n      swap1\n      pop\n        /* \"contracts/Decode.sol\":186:406  function encodeDate(... */\n      swap6\n      swap5\n      pop\n      pop\n      pop\n      pop\n      pop\n      jump\t// out\n    tag_18:\n      mload(0x40)\n      dup1\n      0x40\n      add\n      0x40\n      mstore\n      dup1\n      0x60\n      dup2\n      mstore\n      0x20\n      add\n      tag_25\n      tag_26\n      jump\t// in\n    tag_25:\n      dup2\n      mstore\n      pop\n      swap1\n      jump\t// out\n    tag_26:\n      mload(0x40)\n      dup1\n      0x40\n      add\n      0x40\n      mstore\n      dup1\n      0x02\n      swap1\n      0x20\n      dup3\n      mul\n      dup1\n      calldatasize\n      dup4\n      calldatacopy\n      dup1\n      dup3\n      add\n      swap2\n      pop\n      pop\n      swap1\n      pop\n      pop\n      swap1\n      jump\t// out\n        /* \"#utility.yul\":7:82   */\n    tag_27:\n        /* \"#utility.yul\":40:46   */\n      0x00\n        /* \"#utility.yul\":73:75   */\n      0x40\n        /* \"#utility.yul\":67:76   */\n      mload\n        /* \"#utility.yul\":57:76   */\n      swap1\n      pop\n        /* \"#utility.yul\":7:82   */\n      swap1\n      jump\t// out\n        /* \"#utility.yul\":88:205   */\n    tag_28:\n        /* \"#utility.yul\":197:198   */\n      0x00\n        /* \"#utility.yul\":194:195   */\n      dup1\n        /* \"#utility.yul\":187:199   */\n      revert\n        /* \"#utility.yul\":211:328   */\n    tag_29:\n        /* \"#utility.yul\":320:321   */\n      0x00\n        /* \"#utility.yul\":317:318   */\n      dup1\n        /* \"#utility.yul\":310:322   */\n      revert\n        /* \"#utility.yul\":334:451   */\n    tag_30:\n        /* \"#utility.yul\":443:444   */\n      0x00\n        /* \"#utility.yul\":440:441   */\n      dup1\n        /* \"#utility.yul\":433:445   */\n      revert\n        /* \"#utility.yul\":457:574   */\n    tag_31:\n        /* \"#utility.yul\":566:567   */\n      0x00\n        /* \"#utility.yul\":563:564   */\n      dup1\n        /* \"#utility.yul\":556:568   */\n      revert\n        /* \"#utility.yul\":580:697   */\n    tag_32:\n        /* \"#utility.yul\":689:690   */\n      0x00\n        /* \"#utility.yul\":686:687   */\n      dup1\n        /* \"#utility.yul\":679:691   */\n      revert\n        /* \"#utility.yul\":716:1268   */\n    tag_33:\n        /* \"#utility.yul\":773:781   */\n      0x00\n        /* \"#utility.yul\":783:789   */\n      dup1\n        /* \"#utility.yul\":833:836   */\n      dup4\n        /* \"#utility.yul\":826:830   */\n      0x1f\n        /* \"#utility.yul\":818:824   */\n      dup5\n        /* \"#utility.yul\":814:831   */\n      add\n        /* \"#utility.yul\":810:837   */\n      slt\n        /* \"#utility.yul\":800:922   */\n      tag_106\n      jumpi\n        /* \"#utility.yul\":841:920   */\n      tag_107\n      tag_30\n      jump\t// in\n    tag_107:\n        /* \"#utility.yul\":800:922   */\n    tag_106:\n        /* \"#utility.yul\":954:960   */\n      dup3\n        /* \"#utility.yul\":941:961   */\n      calldataload\n        /* \"#utility.yul\":931:961   */\n      swap1\n      pop\n        /* \"#utility.yul\":984:1002   */\n      0xffffffffffffffff\n        /* \"#utility.yul\":976:982   */\n      dup2\n        /* \"#utility.yul\":973:1003   */\n      gt\n        /* \"#utility.yul\":970:1087   */\n      iszero\n      tag_108\n      jumpi\n        /* \"#utility.yul\":1006:1085   */\n      tag_109\n      tag_31\n      jump\t// in\n    tag_109:\n        /* \"#utility.yul\":970:1087   */\n    tag_108:\n        /* \"#utility.yul\":1120:1124   */\n      0x20\n        /* \"#utility.yul\":1112:1118   */\n      dup4\n        /* \"#utility.yul\":1108:1125   */\n      add\n        /* \"#utility.yul\":1096:1125   */\n      swap2\n      pop\n        /* \"#utility.yul\":1174:1177   */\n      dup4\n        /* \"#utility.yul\":1166:1170   */\n      0x01\n        /* \"#utility.yul\":1158:1164   */\n      dup3\n        /* \"#utility.yul\":1154:1171   */\n      mul\n        /* \"#utility.yul\":1144:1152   */\n      dup4\n        /* \"#utility.yul\":1140:1172   */\n      add\n        /* \"#utility.yul\":1137:1178   */\n      gt\n        /* \"#utility.yul\":1134:1262   */\n      iszero\n      tag_110\n      jumpi\n        /* \"#utility.yul\":1181:1260   */\n      tag_111\n      tag_32\n      jump\t// in\n    tag_111:\n        /* \"#utility.yul\":1134:1262   */\n    tag_110:\n        /* \"#utility.yul\":716:1268   */\n      swap3\n      pop\n      swap3\n      swap1\n      pop\n      jump\t// out\n        /* \"#utility.yul\":1274:1801   */\n    tag_7:\n        /* \"#utility.yul\":1344:1350   */\n      0x00\n        /* \"#utility.yul\":1352:1358   */\n      dup1\n        /* \"#utility.yul\":1401:1403   */\n      0x20\n        /* \"#utility.yul\":1389:1398   */\n      dup4\n        /* \"#utility.yul\":1380:1387   */\n      dup6\n        /* \"#utility.yul\":1376:1399   */\n      sub\n        /* \"#utility.yul\":1372:1404   */\n      slt\n        /* \"#utility.yul\":1369:1488   */\n      iszero\n      tag_113\n      jumpi\n        /* \"#utility.yul\":1407:1486   */\n      tag_114\n      tag_28\n      jump\t// in\n    tag_114:\n        /* \"#utility.yul\":1369:1488   */\n    tag_113:\n        /* \"#utility.yul\":1555:1556   */\n      0x00\n        /* \"#utility.yul\":1544:1553   */\n      dup4\n        /* \"#utility.yul\":1540:1557   */\n      add\n        /* \"#utility.yul\":1527:1558   */\n      calldataload\n        /* \"#utility.yul\":1585:1603   */\n      0xffffffffffffffff\n        /* \"#utility.yul\":1577:1583   */\n      dup2\n        /* \"#utility.yul\":1574:1604   */\n      gt\n        /* \"#utility.yul\":1571:1688   */\n      iszero\n      tag_115\n      jumpi\n        /* \"#utility.yul\":1607:1686   */\n      tag_116\n      tag_29\n      jump\t// in\n    tag_116:\n        /* \"#utility.yul\":1571:1688   */\n    tag_115:\n        /* \"#utility.yul\":1720:1784   */\n      tag_117\n        /* \"#utility.yul\":1776:1783   */\n      dup6\n        /* \"#utility.yul\":1767:1773   */\n      dup3\n        /* \"#utility.yul\":1756:1765   */\n      dup7\n        /* \"#utility.yul\":1752:1774   */\n      add\n        /* \"#utility.yul\":1720:1784   */\n      tag_33\n      jump\t// in\n    tag_117:\n        /* \"#utility.yul\":1702:1784   */\n      swap3\n      pop\n      swap3\n      pop\n        /* \"#utility.yul\":1498:1794   */\n      pop\n        /* \"#utility.yul\":1274:1801   */\n      swap3\n      pop\n      swap3\n      swap1\n      pop\n      jump\t// out\n        /* \"#utility.yul\":1807:1884   */\n    tag_34:\n        /* \"#utility.yul\":1844:1851   */\n      0x00\n        /* \"#utility.yul\":1873:1878   */\n      dup2\n        /* \"#utility.yul\":1862:1878   */\n      swap1\n      pop\n        /* \"#utility.yul\":1807:1884   */\n      swap2\n      swap1\n      pop\n      jump\t// out\n        /* \"#utility.yul\":1890:2008   */\n    tag_35:\n        /* \"#utility.yul\":1977:2001   */\n      tag_120\n        /* \"#utility.yul\":1995:2000   */\n      dup2\n        /* \"#utility.yul\":1977:2001   */\n      tag_34\n      jump\t// in\n    tag_120:\n        /* \"#utility.yul\":1972:1975   */\n      dup3\n        /* \"#utility.yul\":1965:2002   */\n      mstore\n        /* \"#utility.yul\":1890:2008   */\n      pop\n      pop\n      jump\t// out\n        /* \"#utility.yul\":2014:2140   */\n    tag_36:\n        /* \"#utility.yul\":2051:2058   */\n      0x00\n        /* \"#utility.yul\":2091:2133   */\n      0xffffffffffffffffffffffffffffffffffffffff\n        /* \"#utility.yul\":2084:2089   */\n      dup3\n        /* \"#utility.yul\":2080:2134   */\n      and\n        /* \"#utility.yul\":2069:2134   */\n      swap1\n      pop\n        /* \"#utility.yul\":2014:2140   */\n      swap2\n      swap1\n      pop\n      jump\t// out\n        /* \"#utility.yul\":2146:2242   */\n    tag_37:\n        /* \"#utility.yul\":2183:2190   */\n      0x00\n        /* \"#utility.yul\":2212:2236   */\n      tag_123\n        /* \"#utility.yul\":2230:2235   */\n      dup3\n        /* \"#utility.yul\":2212:2236   */\n      tag_36\n      jump\t// in\n    tag_123:\n        /* \"#utility.yul\":2201:2236   */\n      swap1\n      pop\n        /* \"#utility.yul\":2146:2242   */\n      swap2\n      swap1\n      pop\n      jump\t// out\n        /* \"#utility.yul\":2248:2366   */\n    tag_38:\n        /* \"#utility.yul\":2335:2359   */\n      tag_125\n        /* \"#utility.yul\":2353:2358   */\n      dup2\n        /* \"#utility.yul\":2335:2359   */\n      tag_37\n      jump\t// in\n    tag_125:\n        /* \"#utility.yul\":2330:2333   */\n      dup3\n        /* \"#utility.yul\":2323:2360   */\n      mstore\n        /* \"#utility.yul\":2248:2366   */\n      pop\n      pop\n      jump\t// out\n        /* \"#utility.yul\":2372:2486   */\n    tag_39:\n        /* \"#utility.yul\":2439:2445   */\n      0x00\n        /* \"#utility.yul\":2473:2478   */\n      dup2\n        /* \"#utility.yul\":2467:2479   */\n      mload\n        /* \"#utility.yul\":2457:2479   */\n      swap1\n      pop\n        /* \"#utility.yul\":2372:2486   */\n      swap2\n      swap1\n      pop\n      jump\t// out\n        /* \"#utility.yul\":2492:2676   */\n    tag_40:\n        /* \"#utility.yul\":2591:2602   */\n      0x00\n        /* \"#utility.yul\":2625:2631   */\n      dup3\n        /* \"#utility.yul\":2620:2623   */\n      dup3\n        /* \"#utility.yul\":2613:2632   */\n      mstore\n        /* \"#utility.yul\":2665:2669   */\n      0x20\n        /* \"#utility.yul\":2660:2663   */\n      dup3\n        /* \"#utility.yul\":2656:2670   */\n      add\n        /* \"#utility.yul\":2641:2670   */\n      swap1\n      pop\n        /* \"#utility.yul\":2492:2676   */\n      swap3\n      swap2\n      pop\n      pop\n      jump\t// out\n        /* \"#utility.yul\":2682:2814   */\n    tag_41:\n        /* \"#utility.yul\":2749:2753   */\n      0x00\n        /* \"#utility.yul\":2772:2775   */\n      dup2\n        /* \"#utility.yul\":2764:2775   */\n      swap1\n      pop\n        /* \"#utility.yul\":2802:2806   */\n      0x20\n        /* \"#utility.yul\":2797:2800   */\n      dup3\n        /* \"#utility.yul\":2793:2807   */\n      add\n        /* \"#utility.yul\":2785:2807   */\n      swap1\n      pop\n        /* \"#utility.yul\":2682:2814   */\n      swap2\n      swap1\n      pop\n      jump\t// out\n        /* \"#utility.yul\":2820:2928   */\n    tag_42:\n        /* \"#utility.yul\":2897:2921   */\n      tag_130\n        /* \"#utility.yul\":2915:2920   */\n      dup2\n        /* \"#utility.yul\":2897:2921   */\n      tag_34\n      jump\t// in\n    tag_130:\n        /* \"#utility.yul\":2892:2895   */\n      dup3\n        /* \"#utility.yul\":2885:2922   */\n      mstore\n        /* \"#utility.yul\":2820:2928   */\n      pop\n      pop\n      jump\t// out\n        /* \"#utility.yul\":2934:3113   */\n    tag_43:\n        /* \"#utility.yul\":3003:3013   */\n      0x00\n        /* \"#utility.yul\":3024:3070   */\n      tag_132\n        /* \"#utility.yul\":3066:3069   */\n      dup4\n        /* \"#utility.yul\":3058:3064   */\n      dup4\n        /* \"#utility.yul\":3024:3070   */\n      tag_42\n      jump\t// in\n    tag_132:\n        /* \"#utility.yul\":3102:3106   */\n      0x20\n        /* \"#utility.yul\":3097:3100   */\n      dup4\n        /* \"#utility.yul\":3093:3107   */\n      add\n        /* \"#utility.yul\":3079:3107   */\n      swap1\n      pop\n        /* \"#utility.yul\":2934:3113   */\n      swap3\n      swap2\n      pop\n      pop\n      jump\t// out\n        /* \"#utility.yul\":3119:3232   */\n    tag_44:\n        /* \"#utility.yul\":3189:3193   */\n      0x00\n        /* \"#utility.yul\":3221:3225   */\n      0x20\n        /* \"#utility.yul\":3216:3219   */\n      dup3\n        /* \"#utility.yul\":3212:3226   */\n      add\n        /* \"#utility.yul\":3204:3226   */\n      swap1\n      pop\n        /* \"#utility.yul\":3119:3232   */\n      swap2\n      swap1\n      pop\n      jump\t// out\n        /* \"#utility.yul\":3268:4000   */\n    tag_45:\n        /* \"#utility.yul\":3387:3390   */\n      0x00\n        /* \"#utility.yul\":3416:3470   */\n      tag_135\n        /* \"#utility.yul\":3464:3469   */\n      dup3\n        /* \"#utility.yul\":3416:3470   */\n      tag_39\n      jump\t// in\n    tag_135:\n        /* \"#utility.yul\":3486:3572   */\n      tag_136\n        /* \"#utility.yul\":3565:3571   */\n      dup2\n        /* \"#utility.yul\":3560:3563   */\n      dup6\n        /* \"#utility.yul\":3486:3572   */\n      tag_40\n      jump\t// in\n    tag_136:\n        /* \"#utility.yul\":3479:3572   */\n      swap4\n      pop\n        /* \"#utility.yul\":3596:3652   */\n      tag_137\n        /* \"#utility.yul\":3646:3651   */\n      dup4\n        /* \"#utility.yul\":3596:3652   */\n      tag_41\n      jump\t// in\n    tag_137:\n        /* \"#utility.yul\":3675:3682   */\n      dup1\n        /* \"#utility.yul\":3706:3707   */\n      0x00\n        /* \"#utility.yul\":3691:3975   */\n    tag_138:\n        /* \"#utility.yul\":3716:3722   */\n      dup4\n        /* \"#utility.yul\":3713:3714   */\n      dup2\n        /* \"#utility.yul\":3710:3723   */\n      lt\n        /* \"#utility.yul\":3691:3975   */\n      iszero\n      tag_140\n      jumpi\n        /* \"#utility.yul\":3792:3798   */\n      dup2\n        /* \"#utility.yul\":3786:3799   */\n      mload\n        /* \"#utility.yul\":3819:3882   */\n      tag_141\n        /* \"#utility.yul\":3878:3881   */\n      dup9\n        /* \"#utility.yul\":3863:3876   */\n      dup3\n        /* \"#utility.yul\":3819:3882   */\n      tag_43\n      jump\t// in\n    tag_141:\n        /* \"#utility.yul\":3812:3882   */\n      swap8\n      pop\n        /* \"#utility.yul\":3905:3965   */\n      tag_142\n        /* \"#utility.yul\":3958:3964   */\n      dup4\n        /* \"#utility.yul\":3905:3965   */\n      tag_44\n      jump\t// in\n    tag_142:\n        /* \"#utility.yul\":3895:3965   */\n      swap3\n      pop\n        /* \"#utility.yul\":3751:3975   */\n      pop\n        /* \"#utility.yul\":3738:3739   */\n      0x01\n        /* \"#utility.yul\":3735:3736   */\n      dup2\n        /* \"#utility.yul\":3731:3740   */\n      add\n        /* \"#utility.yul\":3726:3740   */\n      swap1\n      pop\n        /* \"#utility.yul\":3691:3975   */\n      jump(tag_138)\n    tag_140:\n        /* \"#utility.yul\":3695:3709   */\n      pop\n        /* \"#utility.yul\":3991:3994   */\n      dup6\n        /* \"#utility.yul\":3984:3994   */\n      swap4\n      pop\n        /* \"#utility.yul\":3392:4000   */\n      pop\n      pop\n      pop\n        /* \"#utility.yul\":3268:4000   */\n      swap3\n      swap2\n      pop\n      pop\n      jump\t// out\n        /* \"#utility.yul\":4006:4105   */\n    tag_46:\n        /* \"#utility.yul\":4058:4064   */\n      0x00\n        /* \"#utility.yul\":4092:4097   */\n      dup2\n        /* \"#utility.yul\":4086:4098   */\n      mload\n        /* \"#utility.yul\":4076:4098   */\n      swap1\n      pop\n        /* \"#utility.yul\":4006:4105   */\n      swap2\n      swap1\n      pop\n      jump\t// out\n        /* \"#utility.yul\":4111:4270   */\n    tag_47:\n        /* \"#utility.yul\":4185:4196   */\n      0x00\n        /* \"#utility.yul\":4219:4225   */\n      dup3\n        /* \"#utility.yul\":4214:4217   */\n      dup3\n        /* \"#utility.yul\":4207:4226   */\n      mstore\n        /* \"#utility.yul\":4259:4263   */\n      0x20\n        /* \"#utility.yul\":4254:4257   */\n      dup3\n        /* \"#utility.yul\":4250:4264   */\n      add\n        /* \"#utility.yul\":4235:4264   */\n      swap1\n      pop\n        /* \"#utility.yul\":4111:4270   */\n      swap3\n      swap2\n      pop\n      pop\n      jump\t// out\n        /* \"#utility.yul\":4276:4522   */\n    tag_48:\n        /* \"#utility.yul\":4357:4358   */\n      0x00\n        /* \"#utility.yul\":4367:4480   */\n    tag_146:\n        /* \"#utility.yul\":4381:4387   */\n      dup4\n        /* \"#utility.yul\":4378:4379   */\n      dup2\n        /* \"#utility.yul\":4375:4388   */\n      lt\n        /* \"#utility.yul\":4367:4480   */\n      iszero\n      tag_148\n      jumpi\n        /* \"#utility.yul\":4466:4467   */\n      dup1\n        /* \"#utility.yul\":4461:4464   */\n      dup3\n        /* \"#utility.yul\":4457:4468   */\n      add\n        /* \"#utility.yul\":4451:4469   */\n      mload\n        /* \"#utility.yul\":4447:4448   */\n      dup2\n        /* \"#utility.yul\":4442:4445   */\n      dup5\n        /* \"#utility.yul\":4438:4449   */\n      add\n        /* \"#utility.yul\":4431:4470   */\n      mstore\n        /* \"#utility.yul\":4403:4405   */\n      0x20\n        /* \"#utility.yul\":4400:4401   */\n      dup2\n        /* \"#utility.yul\":4396:4406   */\n      add\n        /* \"#utility.yul\":4391:4406   */\n      swap1\n      pop\n        /* \"#utility.yul\":4367:4480   */\n      jump(tag_146)\n    tag_148:\n        /* \"#utility.yul\":4514:4515   */\n      0x00\n        /* \"#utility.yul\":4505:4511   */\n      dup5\n        /* \"#utility.yul\":4500:4503   */\n      dup5\n        /* \"#utility.yul\":4496:4512   */\n      add\n        /* \"#utility.yul\":4489:4516   */\n      mstore\n        /* \"#utility.yul\":4338:4522   */\n      pop\n        /* \"#utility.yul\":4276:4522   */\n      pop\n      pop\n      pop\n      jump\t// out\n        /* \"#utility.yul\":4528:4630   */\n    tag_49:\n        /* \"#utility.yul\":4569:4575   */\n      0x00\n        /* \"#utility.yul\":4620:4622   */\n      0x1f\n        /* \"#utility.yul\":4616:4623   */\n      not\n        /* \"#utility.yul\":4611:4613   */\n      0x1f\n        /* \"#utility.yul\":4604:4609   */\n      dup4\n        /* \"#utility.yul\":4600:4614   */\n      add\n        /* \"#utility.yul\":4596:4624   */\n      and\n        /* \"#utility.yul\":4586:4624   */\n      swap1\n      pop\n        /* \"#utility.yul\":4528:4630   */\n      swap2\n      swap1\n      pop\n      jump\t// out\n        /* \"#utility.yul\":4636:4993   */\n    tag_50:\n        /* \"#utility.yul\":4714:4717   */\n      0x00\n        /* \"#utility.yul\":4742:4781   */\n      tag_151\n        /* \"#utility.yul\":4775:4780   */\n      dup3\n        /* \"#utility.yul\":4742:4781   */\n      tag_46\n      jump\t// in\n    tag_151:\n        /* \"#utility.yul\":4797:4858   */\n      tag_152\n        /* \"#utility.yul\":4851:4857   */\n      dup2\n        /* \"#utility.yul\":4846:4849   */\n      dup6\n        /* \"#utility.yul\":4797:4858   */\n      tag_47\n      jump\t// in\n    tag_152:\n        /* \"#utility.yul\":4790:4858   */\n      swap4\n      pop\n        /* \"#utility.yul\":4867:4932   */\n      tag_153\n        /* \"#utility.yul\":4925:4931   */\n      dup2\n        /* \"#utility.yul\":4920:4923   */\n      dup6\n        /* \"#utility.yul\":4913:4917   */\n      0x20\n        /* \"#utility.yul\":4906:4911   */\n      dup7\n        /* \"#utility.yul\":4902:4918   */\n      add\n        /* \"#utility.yul\":4867:4932   */\n      tag_48\n      jump\t// in\n    tag_153:\n        /* \"#utility.yul\":4957:4986   */\n      tag_154\n        /* \"#utility.yul\":4979:4985   */\n      dup2\n        /* \"#utility.yul\":4957:4986   */\n      tag_49\n      jump\t// in\n    tag_154:\n        /* \"#utility.yul\":4952:4955   */\n      dup5\n        /* \"#utility.yul\":4948:4987   */\n      add\n        /* \"#utility.yul\":4941:4987   */\n      swap2\n      pop\n        /* \"#utility.yul\":4718:4993   */\n      pop\n        /* \"#utility.yul\":4636:4993   */\n      swap3\n      swap2\n      pop\n      pop\n      jump\t// out\n        /* \"#utility.yul\":4999:5103   */\n    tag_51:\n        /* \"#utility.yul\":5064:5070   */\n      0x00\n        /* \"#utility.yul\":5092:5096   */\n      0x02\n        /* \"#utility.yul\":5082:5096   */\n      swap1\n      pop\n        /* \"#utility.yul\":4999:5103   */\n      swap2\n      swap1\n      pop\n      jump\t// out\n        /* \"#utility.yul\":5109:5242   */\n    tag_52:\n        /* \"#utility.yul\":5196:5207   */\n      0x00\n        /* \"#utility.yul\":5233:5236   */\n      dup2\n        /* \"#utility.yul\":5218:5236   */\n      swap1\n      pop\n        /* \"#utility.yul\":5109:5242   */\n      swap3\n      swap2\n      pop\n      pop\n      jump\t// out\n        /* \"#utility.yul\":5248:5346   */\n    tag_53:\n        /* \"#utility.yul\":5313:5317   */\n      0x00\n        /* \"#utility.yul\":5336:5339   */\n      dup2\n        /* \"#utility.yul\":5328:5339   */\n      swap1\n      pop\n        /* \"#utility.yul\":5248:5346   */\n      swap2\n      swap1\n      pop\n      jump\t// out\n        /* \"#utility.yul\":5352:5463   */\n    tag_54:\n        /* \"#utility.yul\":5420:5424   */\n      0x00\n        /* \"#utility.yul\":5452:5456   */\n      0x20\n        /* \"#utility.yul\":5447:5450   */\n      dup3\n        /* \"#utility.yul\":5443:5457   */\n      add\n        /* \"#utility.yul\":5435:5457   */\n      swap1\n      pop\n        /* \"#utility.yul\":5352:5463   */\n      swap2\n      swap1\n      pop\n      jump\t// out\n        /* \"#utility.yul\":5501:6175   */\n    tag_55:\n        /* \"#utility.yul\":5627:5679   */\n      tag_160\n        /* \"#utility.yul\":5673:5678   */\n      dup2\n        /* \"#utility.yul\":5627:5679   */\n      tag_51\n      jump\t// in\n    tag_160:\n        /* \"#utility.yul\":5695:5769   */\n      tag_161\n        /* \"#utility.yul\":5762:5768   */\n      dup2\n        /* \"#utility.yul\":5757:5760   */\n      dup5\n        /* \"#utility.yul\":5695:5769   */\n      tag_52\n      jump\t// in\n    tag_161:\n        /* \"#utility.yul\":5688:5769   */\n      swap3\n      pop\n        /* \"#utility.yul\":5793:5847   */\n      tag_162\n        /* \"#utility.yul\":5841:5846   */\n      dup3\n        /* \"#utility.yul\":5793:5847   */\n      tag_53\n      jump\t// in\n    tag_162:\n        /* \"#utility.yul\":5870:5877   */\n      dup1\n        /* \"#utility.yul\":5901:5902   */\n      0x00\n        /* \"#utility.yul\":5886:6168   */\n    tag_163:\n        /* \"#utility.yul\":5911:5917   */\n      dup4\n        /* \"#utility.yul\":5908:5909   */\n      dup2\n        /* \"#utility.yul\":5905:5918   */\n      lt\n        /* \"#utility.yul\":5886:6168   */\n      iszero\n      tag_165\n      jumpi\n        /* \"#utility.yul\":5987:5993   */\n      dup2\n        /* \"#utility.yul\":5981:5994   */\n      mload\n        /* \"#utility.yul\":6014:6077   */\n      tag_166\n        /* \"#utility.yul\":6073:6076   */\n      dup8\n        /* \"#utility.yul\":6058:6071   */\n      dup3\n        /* \"#utility.yul\":6014:6077   */\n      tag_43\n      jump\t// in\n    tag_166:\n        /* \"#utility.yul\":6007:6077   */\n      swap7\n      pop\n        /* \"#utility.yul\":6100:6158   */\n      tag_167\n        /* \"#utility.yul\":6151:6157   */\n      dup4\n        /* \"#utility.yul\":6100:6158   */\n      tag_54\n      jump\t// in\n    tag_167:\n        /* \"#utility.yul\":6090:6158   */\n      swap3\n      pop\n        /* \"#utility.yul\":5946:6168   */\n      pop\n        /* \"#utility.yul\":5933:5934   */\n      0x01\n        /* \"#utility.yul\":5930:5931   */\n      dup2\n        /* \"#utility.yul\":5926:5935   */\n      add\n        /* \"#utility.yul\":5921:5935   */\n      swap1\n      pop\n        /* \"#utility.yul\":5886:6168   */\n      jump(tag_163)\n    tag_165:\n        /* \"#utility.yul\":5890:5904   */\n      pop\n        /* \"#utility.yul\":5603:6175   */\n      pop\n      pop\n      pop\n        /* \"#utility.yul\":5501:6175   */\n      pop\n      pop\n      jump\t// out\n        /* \"#utility.yul\":6243:6891   */\n    tag_56:\n        /* \"#utility.yul\":6358:6361   */\n      0x00\n        /* \"#utility.yul\":6394:6398   */\n      0x60\n        /* \"#utility.yul\":6389:6392   */\n      dup4\n        /* \"#utility.yul\":6385:6399   */\n      add\n        /* \"#utility.yul\":6481:6485   */\n      0x00\n        /* \"#utility.yul\":6474:6479   */\n      dup4\n        /* \"#utility.yul\":6470:6486   */\n      add\n        /* \"#utility.yul\":6464:6487   */\n      mload\n        /* \"#utility.yul\":6534:6537   */\n      dup5\n        /* \"#utility.yul\":6528:6532   */\n      dup3\n        /* \"#utility.yul\":6524:6538   */\n      sub\n        /* \"#utility.yul\":6517:6521   */\n      0x00\n        /* \"#utility.yul\":6512:6515   */\n      dup7\n        /* \"#utility.yul\":6508:6522   */\n      add\n        /* \"#utility.yul\":6501:6539   */\n      mstore\n        /* \"#utility.yul\":6560:6633   */\n      tag_169\n        /* \"#utility.yul\":6628:6632   */\n      dup3\n        /* \"#utility.yul\":6614:6626   */\n      dup3\n        /* \"#utility.yul\":6560:6633   */\n      tag_50\n      jump\t// in\n    tag_169:\n        /* \"#utility.yul\":6552:6633   */\n      swap2\n      pop\n        /* \"#utility.yul\":6409:6644   */\n      pop\n        /* \"#utility.yul\":6726:6730   */\n      0x20\n        /* \"#utility.yul\":6719:6724   */\n      dup4\n        /* \"#utility.yul\":6715:6731   */\n      add\n        /* \"#utility.yul\":6709:6732   */\n      mload\n        /* \"#utility.yul\":6745:6854   */\n      tag_170\n        /* \"#utility.yul\":6848:6852   */\n      0x20\n        /* \"#utility.yul\":6843:6846   */\n      dup7\n        /* \"#utility.yul\":6839:6853   */\n      add\n        /* \"#utility.yul\":6825:6837   */\n      dup3\n        /* \"#utility.yul\":6745:6854   */\n      tag_55\n      jump\t// in\n    tag_170:\n        /* \"#utility.yul\":6654:6864   */\n      pop\n        /* \"#utility.yul\":6881:6885   */\n      dup1\n        /* \"#utility.yul\":6874:6885   */\n      swap2\n      pop\n        /* \"#utility.yul\":6363:6891   */\n      pop\n        /* \"#utility.yul\":6243:6891   */\n      swap3\n      swap2\n      pop\n      pop\n      jump\t// out\n        /* \"#utility.yul\":6897:7744   */\n    tag_10:\n        /* \"#utility.yul\":7170:7174   */\n      0x00\n        /* \"#utility.yul\":7208:7211   */\n      0x80\n        /* \"#utility.yul\":7197:7206   */\n      dup3\n        /* \"#utility.yul\":7193:7212   */\n      add\n        /* \"#utility.yul\":7185:7212   */\n      swap1\n      pop\n        /* \"#utility.yul\":7222:7293   */\n      tag_172\n        /* \"#utility.yul\":7290:7291   */\n      0x00\n        /* \"#utility.yul\":7279:7288   */\n      dup4\n        /* \"#utility.yul\":7275:7292   */\n      add\n        /* \"#utility.yul\":7266:7272   */\n      dup8\n        /* \"#utility.yul\":7222:7293   */\n      tag_35\n      jump\t// in\n    tag_172:\n        /* \"#utility.yul\":7303:7375   */\n      tag_173\n        /* \"#utility.yul\":7371:7373   */\n      0x20\n        /* \"#utility.yul\":7360:7369   */\n      dup4\n        /* \"#utility.yul\":7356:7374   */\n      add\n        /* \"#utility.yul\":7347:7353   */\n      dup7\n        /* \"#utility.yul\":7303:7375   */\n      tag_38\n      jump\t// in\n    tag_173:\n        /* \"#utility.yul\":7422:7431   */\n      dup2\n        /* \"#utility.yul\":7416:7420   */\n      dup2\n        /* \"#utility.yul\":7412:7432   */\n      sub\n        /* \"#utility.yul\":7407:7409   */\n      0x40\n        /* \"#utility.yul\":7396:7405   */\n      dup4\n        /* \"#utility.yul\":7392:7410   */\n      add\n        /* \"#utility.yul\":7385:7433   */\n      mstore\n        /* \"#utility.yul\":7450:7558   */\n      tag_174\n        /* \"#utility.yul\":7553:7557   */\n      dup2\n        /* \"#utility.yul\":7544:7550   */\n      dup6\n        /* \"#utility.yul\":7450:7558   */\n      tag_45\n      jump\t// in\n    tag_174:\n        /* \"#utility.yul\":7442:7558   */\n      swap1\n      pop\n        /* \"#utility.yul\":7605:7614   */\n      dup2\n        /* \"#utility.yul\":7599:7603   */\n      dup2\n        /* \"#utility.yul\":7595:7615   */\n      sub\n        /* \"#utility.yul\":7590:7592   */\n      0x60\n        /* \"#utility.yul\":7579:7588   */\n      dup4\n        /* \"#utility.yul\":7575:7593   */\n      add\n        /* \"#utility.yul\":7568:7616   */\n      mstore\n        /* \"#utility.yul\":7633:7737   */\n      tag_175\n        /* \"#utility.yul\":7732:7736   */\n      dup2\n        /* \"#utility.yul\":7723:7729   */\n      dup5\n        /* \"#utility.yul\":7633:7737   */\n      tag_56\n      jump\t// in\n    tag_175:\n        /* \"#utility.yul\":7625:7737   */\n      swap1\n      pop\n        /* \"#utility.yul\":6897:7744   */\n      swap6\n      swap5\n      pop\n      pop\n      pop\n      pop\n      pop\n      jump\t// out\n        /* \"#utility.yul\":7750:7872   */\n    tag_57:\n        /* \"#utility.yul\":7823:7847   */\n      tag_177\n        /* \"#utility.yul\":7841:7846   */\n      dup2\n        /* \"#utility.yul\":7823:7847   */\n      tag_34\n      jump\t// in\n    tag_177:\n        /* \"#utility.yul\":7816:7821   */\n      dup2\n        /* \"#utility.yul\":7813:7848   */\n      eq\n        /* \"#utility.yul\":7803:7866   */\n      tag_178\n      jumpi\n        /* \"#utility.yul\":7862:7863   */\n      0x00\n        /* \"#utility.yul\":7859:7860   */\n      dup1\n        /* \"#utility.yul\":7852:7864   */\n      revert\n        /* \"#utility.yul\":7803:7866   */\n    tag_178:\n        /* \"#utility.yul\":7750:7872   */\n      pop\n      jump\t// out\n        /* \"#utility.yul\":7878:8017   */\n    tag_58:\n        /* \"#utility.yul\":7924:7929   */\n      0x00\n        /* \"#utility.yul\":7962:7968   */\n      dup2\n        /* \"#utility.yul\":7949:7969   */\n      calldataload\n        /* \"#utility.yul\":7940:7969   */\n      swap1\n      pop\n        /* \"#utility.yul\":7978:8011   */\n      tag_180\n        /* \"#utility.yul\":8005:8010   */\n      dup2\n        /* \"#utility.yul\":7978:8011   */\n      tag_57\n      jump\t// in\n    tag_180:\n        /* \"#utility.yul\":7878:8017   */\n      swap3\n      swap2\n      pop\n      pop\n      jump\t// out\n        /* \"#utility.yul\":8023:8145   */\n    tag_59:\n        /* \"#utility.yul\":8096:8120   */\n      tag_182\n        /* \"#utility.yul\":8114:8119   */\n      dup2\n        /* \"#utility.yul\":8096:8120   */\n      tag_37\n      jump\t// in\n    tag_182:\n        /* \"#utility.yul\":8089:8094   */\n      dup2\n        /* \"#utility.yul\":8086:8121   */\n      eq\n        /* \"#utility.yul\":8076:8139   */\n      tag_183\n      jumpi\n        /* \"#utility.yul\":8135:8136   */\n      0x00\n        /* \"#utility.yul\":8132:8133   */\n      dup1\n        /* \"#utility.yul\":8125:8137   */\n      revert\n        /* \"#utility.yul\":8076:8139   */\n    tag_183:\n        /* \"#utility.yul\":8023:8145   */\n      pop\n      jump\t// out\n        /* \"#utility.yul\":8151:8290   */\n    tag_60:\n        /* \"#utility.yul\":8197:8202   */\n      0x00\n        /* \"#utility.yul\":8235:8241   */\n      dup2\n        /* \"#utility.yul\":8222:8242   */\n      calldataload\n        /* \"#utility.yul\":8213:8242   */\n      swap1\n      pop\n        /* \"#utility.yul\":8251:8284   */\n      tag_185\n        /* \"#utility.yul\":8278:8283   */\n      dup2\n        /* \"#utility.yul\":8251:8284   */\n      tag_59\n      jump\t// in\n    tag_185:\n        /* \"#utility.yul\":8151:8290   */\n      swap3\n      swap2\n      pop\n      pop\n      jump\t// out\n        /* \"#utility.yul\":8313:8881   */\n    tag_61:\n        /* \"#utility.yul\":8386:8394   */\n      0x00\n        /* \"#utility.yul\":8396:8402   */\n      dup1\n        /* \"#utility.yul\":8446:8449   */\n      dup4\n        /* \"#utility.yul\":8439:8443   */\n      0x1f\n        /* \"#utility.yul\":8431:8437   */\n      dup5\n        /* \"#utility.yul\":8427:8444   */\n      add\n        /* \"#utility.yul\":8423:8450   */\n      slt\n        /* \"#utility.yul\":8413:8535   */\n      tag_187\n      jumpi\n        /* \"#utility.yul\":8454:8533   */\n      tag_188\n      tag_30\n      jump\t// in\n    tag_188:\n        /* \"#utility.yul\":8413:8535   */\n    tag_187:\n        /* \"#utility.yul\":8567:8573   */\n      dup3\n        /* \"#utility.yul\":8554:8574   */\n      calldataload\n        /* \"#utility.yul\":8544:8574   */\n      swap1\n      pop\n        /* \"#utility.yul\":8597:8615   */\n      0xffffffffffffffff\n        /* \"#utility.yul\":8589:8595   */\n      dup2\n        /* \"#utility.yul\":8586:8616   */\n      gt\n        /* \"#utility.yul\":8583:8700   */\n      iszero\n      tag_189\n      jumpi\n        /* \"#utility.yul\":8619:8698   */\n      tag_190\n      tag_31\n      jump\t// in\n    tag_190:\n        /* \"#utility.yul\":8583:8700   */\n    tag_189:\n        /* \"#utility.yul\":8733:8737   */\n      0x20\n        /* \"#utility.yul\":8725:8731   */\n      dup4\n        /* \"#utility.yul\":8721:8738   */\n      add\n        /* \"#utility.yul\":8709:8738   */\n      swap2\n      pop\n        /* \"#utility.yul\":8787:8790   */\n      dup4\n        /* \"#utility.yul\":8779:8783   */\n      0x20\n        /* \"#utility.yul\":8771:8777   */\n      dup3\n        /* \"#utility.yul\":8767:8784   */\n      mul\n        /* \"#utility.yul\":8757:8765   */\n      dup4\n        /* \"#utility.yul\":8753:8785   */\n      add\n        /* \"#utility.yul\":8750:8791   */\n      gt\n        /* \"#utility.yul\":8747:8875   */\n      iszero\n      tag_191\n      jumpi\n        /* \"#utility.yul\":8794:8873   */\n      tag_192\n      tag_32\n      jump\t// in\n    tag_192:\n        /* \"#utility.yul\":8747:8875   */\n    tag_191:\n        /* \"#utility.yul\":8313:8881   */\n      swap3\n      pop\n      swap3\n      swap1\n      pop\n      jump\t// out\n        /* \"#utility.yul\":8887:9004   */\n    tag_62:\n        /* \"#utility.yul\":8996:8997   */\n      0x00\n        /* \"#utility.yul\":8993:8994   */\n      dup1\n        /* \"#utility.yul\":8986:8998   */\n      revert\n        /* \"#utility.yul\":9043:9272   */\n    tag_63:\n        /* \"#utility.yul\":9114:9119   */\n      0x00\n        /* \"#utility.yul\":9155:9157   */\n      0x60\n        /* \"#utility.yul\":9146:9152   */\n      dup3\n        /* \"#utility.yul\":9141:9144   */\n      dup5\n        /* \"#utility.yul\":9137:9153   */\n      sub\n        /* \"#utility.yul\":9133:9158   */\n      slt\n        /* \"#utility.yul\":9130:9242   */\n      iszero\n      tag_195\n      jumpi\n        /* \"#utility.yul\":9161:9240   */\n      tag_196\n      tag_62\n      jump\t// in\n    tag_196:\n        /* \"#utility.yul\":9130:9242   */\n    tag_195:\n        /* \"#utility.yul\":9260:9266   */\n      dup2\n        /* \"#utility.yul\":9251:9266   */\n      swap1\n      pop\n        /* \"#utility.yul\":9043:9272   */\n      swap3\n      swap2\n      pop\n      pop\n      jump\t// out\n        /* \"#utility.yul\":9278:10483   */\n    tag_13:\n        /* \"#utility.yul\":9416:9422   */\n      0x00\n        /* \"#utility.yul\":9424:9430   */\n      dup1\n        /* \"#utility.yul\":9432:9438   */\n      0x00\n        /* \"#utility.yul\":9440:9446   */\n      dup1\n        /* \"#utility.yul\":9448:9454   */\n      0x00\n        /* \"#utility.yul\":9497:9500   */\n      0x80\n        /* \"#utility.yul\":9485:9494   */\n      dup7\n        /* \"#utility.yul\":9476:9483   */\n      dup9\n        /* \"#utility.yul\":9472:9495   */\n      sub\n        /* \"#utility.yul\":9468:9501   */\n      slt\n        /* \"#utility.yul\":9465:9585   */\n      iszero\n      tag_198\n      jumpi\n        /* \"#utility.yul\":9504:9583   */\n      tag_199\n      tag_28\n      jump\t// in\n    tag_199:\n        /* \"#utility.yul\":9465:9585   */\n    tag_198:\n        /* \"#utility.yul\":9624:9625   */\n      0x00\n        /* \"#utility.yul\":9649:9702   */\n      tag_200\n        /* \"#utility.yul\":9694:9701   */\n      dup9\n        /* \"#utility.yul\":9685:9691   */\n      dup3\n        /* \"#utility.yul\":9674:9683   */\n      dup10\n        /* \"#utility.yul\":9670:9692   */\n      add\n        /* \"#utility.yul\":9649:9702   */\n      tag_58\n      jump\t// in\n    tag_200:\n        /* \"#utility.yul\":9639:9702   */\n      swap6\n      pop\n        /* \"#utility.yul\":9595:9712   */\n      pop\n        /* \"#utility.yul\":9751:9753   */\n      0x20\n        /* \"#utility.yul\":9777:9830   */\n      tag_201\n        /* \"#utility.yul\":9822:9829   */\n      dup9\n        /* \"#utility.yul\":9813:9819   */\n      dup3\n        /* \"#utility.yul\":9802:9811   */\n      dup10\n        /* \"#utility.yul\":9798:9820   */\n      add\n        /* \"#utility.yul\":9777:9830   */\n      tag_60\n      jump\t// in\n    tag_201:\n        /* \"#utility.yul\":9767:9830   */\n      swap5\n      pop\n        /* \"#utility.yul\":9722:9840   */\n      pop\n        /* \"#utility.yul\":9907:9909   */\n      0x40\n        /* \"#utility.yul\":9896:9905   */\n      dup7\n        /* \"#utility.yul\":9892:9910   */\n      add\n        /* \"#utility.yul\":9879:9911   */\n      calldataload\n        /* \"#utility.yul\":9938:9956   */\n      0xffffffffffffffff\n        /* \"#utility.yul\":9930:9936   */\n      dup2\n        /* \"#utility.yul\":9927:9957   */\n      gt\n        /* \"#utility.yul\":9924:10041   */\n      iszero\n      tag_202\n      jumpi\n        /* \"#utility.yul\":9960:10039   */\n      tag_203\n      tag_29\n      jump\t// in\n    tag_203:\n        /* \"#utility.yul\":9924:10041   */\n    tag_202:\n        /* \"#utility.yul\":10073:10153   */\n      tag_204\n        /* \"#utility.yul\":10145:10152   */\n      dup9\n        /* \"#utility.yul\":10136:10142   */\n      dup3\n        /* \"#utility.yul\":10125:10134   */\n      dup10\n        /* \"#utility.yul\":10121:10143   */\n      add\n        /* \"#utility.yul\":10073:10153   */\n      tag_61\n      jump\t// in\n    tag_204:\n        /* \"#utility.yul\":10055:10153   */\n      swap4\n      pop\n      swap4\n      pop\n        /* \"#utility.yul\":9850:10163   */\n      pop\n        /* \"#utility.yul\":10230:10232   */\n      0x60\n        /* \"#utility.yul\":10219:10228   */\n      dup7\n        /* \"#utility.yul\":10215:10233   */\n      add\n        /* \"#utility.yul\":10202:10234   */\n      calldataload\n        /* \"#utility.yul\":10261:10279   */\n      0xffffffffffffffff\n        /* \"#utility.yul\":10253:10259   */\n      dup2\n        /* \"#utility.yul\":10250:10280   */\n      gt\n        /* \"#utility.yul\":10247:10364   */\n      iszero\n      tag_205\n      jumpi\n        /* \"#utility.yul\":10283:10362   */\n      tag_206\n      tag_29\n      jump\t// in\n    tag_206:\n        /* \"#utility.yul\":10247:10364   */\n    tag_205:\n        /* \"#utility.yul\":10388:10466   */\n      tag_207\n        /* \"#utility.yul\":10458:10465   */\n      dup9\n        /* \"#utility.yul\":10449:10455   */\n      dup3\n        /* \"#utility.yul\":10438:10447   */\n      dup10\n        /* \"#utility.yul\":10434:10456   */\n      add\n        /* \"#utility.yul\":10388:10466   */\n      tag_63\n      jump\t// in\n    tag_207:\n        /* \"#utility.yul\":10378:10466   */\n      swap2\n      pop\n        /* \"#utility.yul\":10173:10476   */\n      pop\n        /* \"#utility.yul\":9278:10483   */\n      swap3\n      swap6\n      pop\n      swap3\n      swap6\n      swap1\n      swap4\n      pop\n      jump\t// out\n        /* \"#utility.yul\":10489:10587   */\n    tag_64:\n        /* \"#utility.yul\":10540:10546   */\n      0x00\n        /* \"#utility.yul\":10574:10579   */\n      dup2\n        /* \"#utility.yul\":10568:10580   */\n      mload\n        /* \"#utility.yul\":10558:10580   */\n      swap1\n      pop\n        /* \"#utility.yul\":10489:10587   */\n      swap2\n      swap1\n      pop\n      jump\t// out\n        /* \"#utility.yul\":10593:10761   */\n    tag_65:\n        /* \"#utility.yul\":10676:10687   */\n      0x00\n        /* \"#utility.yul\":10710:10716   */\n      dup3\n        /* \"#utility.yul\":10705:10708   */\n      dup3\n        /* \"#utility.yul\":10698:10717   */\n      mstore\n        /* \"#utility.yul\":10750:10754   */\n      0x20\n        /* \"#utility.yul\":10745:10748   */\n      dup3\n        /* \"#utility.yul\":10741:10755   */\n      add\n        /* \"#utility.yul\":10726:10755   */\n      swap1\n      pop\n        /* \"#utility.yul\":10593:10761   */\n      swap3\n      swap2\n      pop\n      pop\n      jump\t// out\n        /* \"#utility.yul\":10767:11140   */\n    tag_66:\n        /* \"#utility.yul\":10853:10856   */\n      0x00\n        /* \"#utility.yul\":10881:10919   */\n      tag_211\n        /* \"#utility.yul\":10913:10918   */\n      dup3\n        /* \"#utility.yul\":10881:10919   */\n      tag_64\n      jump\t// in\n    tag_211:\n        /* \"#utility.yul\":10935:11005   */\n      tag_212\n        /* \"#utility.yul\":10998:11004   */\n      dup2\n        /* \"#utility.yul\":10993:10996   */\n      dup6\n        /* \"#utility.yul\":10935:11005   */\n      tag_65\n      jump\t// in\n    tag_212:\n        /* \"#utility.yul\":10928:11005   */\n      swap4\n      pop\n        /* \"#utility.yul\":11014:11079   */\n      tag_213\n        /* \"#utility.yul\":11072:11078   */\n      dup2\n        /* \"#utility.yul\":11067:11070   */\n      dup6\n        /* \"#utility.yul\":11060:11064   */\n      0x20\n        /* \"#utility.yul\":11053:11058   */\n      dup7\n        /* \"#utility.yul\":11049:11065   */\n      add\n        /* \"#utility.yul\":11014:11079   */\n      tag_48\n      jump\t// in\n    tag_213:\n        /* \"#utility.yul\":11104:11133   */\n      tag_214\n        /* \"#utility.yul\":11126:11132   */\n      dup2\n        /* \"#utility.yul\":11104:11133   */\n      tag_49\n      jump\t// in\n    tag_214:\n        /* \"#utility.yul\":11099:11102   */\n      dup5\n        /* \"#utility.yul\":11095:11134   */\n      add\n        /* \"#utility.yul\":11088:11134   */\n      swap2\n      pop\n        /* \"#utility.yul\":10857:11140   */\n      pop\n        /* \"#utility.yul\":10767:11140   */\n      swap3\n      swap2\n      pop\n      pop\n      jump\t// out\n        /* \"#utility.yul\":11146:11455   */\n    tag_16:\n        /* \"#utility.yul\":11257:11261   */\n      0x00\n        /* \"#utility.yul\":11295:11297   */\n      0x20\n        /* \"#utility.yul\":11284:11293   */\n      dup3\n        /* \"#utility.yul\":11280:11298   */\n      add\n        /* \"#utility.yul\":11272:11298   */\n      swap1\n      pop\n        /* \"#utility.yul\":11344:11353   */\n      dup2\n        /* \"#utility.yul\":11338:11342   */\n      dup2\n        /* \"#utility.yul\":11334:11354   */\n      sub\n        /* \"#utility.yul\":11330:11331   */\n      0x00\n        /* \"#utility.yul\":11319:11328   */\n      dup4\n        /* \"#utility.yul\":11315:11332   */\n      add\n        /* \"#utility.yul\":11308:11355   */\n      mstore\n        /* \"#utility.yul\":11372:11448   */\n      tag_216\n        /* \"#utility.yul\":11443:11447   */\n      dup2\n        /* \"#utility.yul\":11434:11440   */\n      dup5\n        /* \"#utility.yul\":11372:11448   */\n      tag_66\n      jump\t// in\n    tag_216:\n        /* \"#utility.yul\":11364:11448   */\n      swap1\n      pop\n        /* \"#utility.yul\":11146:11455   */\n      swap3\n      swap2\n      pop\n      pop\n      jump\t// out\n        /* \"#utility.yul\":11461:11565   */\n    tag_67:\n        /* \"#utility.yul\":11506:11513   */\n      0x00\n        /* \"#utility.yul\":11535:11559   */\n      tag_218\n        /* \"#utility.yul\":11553:11558   */\n      dup3\n        /* \"#utility.yul\":11535:11559   */\n      tag_36\n      jump\t// in\n    tag_218:\n        /* \"#utility.yul\":11524:11559   */\n      swap1\n      pop\n        /* \"#utility.yul\":11461:11565   */\n      swap2\n      swap1\n      pop\n      jump\t// out\n        /* \"#utility.yul\":11571:11709   */\n    tag_68:\n        /* \"#utility.yul\":11652:11684   */\n      tag_220\n        /* \"#utility.yul\":11678:11683   */\n      dup2\n        /* \"#utility.yul\":11652:11684   */\n      tag_67\n      jump\t// in\n    tag_220:\n        /* \"#utility.yul\":11645:11650   */\n      dup2\n        /* \"#utility.yul\":11642:11685   */\n      eq\n        /* \"#utility.yul\":11632:11703   */\n      tag_221\n      jumpi\n        /* \"#utility.yul\":11699:11700   */\n      0x00\n        /* \"#utility.yul\":11696:11697   */\n      dup1\n        /* \"#utility.yul\":11689:11701   */\n      revert\n        /* \"#utility.yul\":11632:11703   */\n    tag_221:\n        /* \"#utility.yul\":11571:11709   */\n      pop\n      jump\t// out\n        /* \"#utility.yul\":11715:11870   */\n    tag_69:\n        /* \"#utility.yul\":11769:11774   */\n      0x00\n        /* \"#utility.yul\":11807:11813   */\n      dup2\n        /* \"#utility.yul\":11794:11814   */\n      calldataload\n        /* \"#utility.yul\":11785:11814   */\n      swap1\n      pop\n        /* \"#utility.yul\":11823:11864   */\n      tag_223\n        /* \"#utility.yul\":11858:11863   */\n      dup2\n        /* \"#utility.yul\":11823:11864   */\n      tag_68\n      jump\t// in\n    tag_223:\n        /* \"#utility.yul\":11715:11870   */\n      swap3\n      swap2\n      pop\n      pop\n      jump\t// out\n        /* \"#utility.yul\":11876:12056   */\n    tag_70:\n        /* \"#utility.yul\":11924:12001   */\n      0x4e487b7100000000000000000000000000000000000000000000000000000000\n        /* \"#utility.yul\":11921:11922   */\n      0x00\n        /* \"#utility.yul\":11914:12002   */\n      mstore\n        /* \"#utility.yul\":12021:12025   */\n      0x41\n        /* \"#utility.yul\":12018:12019   */\n      0x04\n        /* \"#utility.yul\":12011:12026   */\n      mstore\n        /* \"#utility.yul\":12045:12049   */\n      0x24\n        /* \"#utility.yul\":12042:12043   */\n      0x00\n        /* \"#utility.yul\":12035:12050   */\n      revert\n        /* \"#utility.yul\":12062:12343   */\n    tag_71:\n        /* \"#utility.yul\":12145:12172   */\n      tag_226\n        /* \"#utility.yul\":12167:12171   */\n      dup3\n        /* \"#utility.yul\":12145:12172   */\n      tag_49\n      jump\t// in\n    tag_226:\n        /* \"#utility.yul\":12137:12143   */\n      dup2\n        /* \"#utility.yul\":12133:12173   */\n      add\n        /* \"#utility.yul\":12275:12281   */\n      dup2\n        /* \"#utility.yul\":12263:12273   */\n      dup2\n        /* \"#utility.yul\":12260:12282   */\n      lt\n        /* \"#utility.yul\":12239:12257   */\n      0xffffffffffffffff\n        /* \"#utility.yul\":12227:12237   */\n      dup3\n        /* \"#utility.yul\":12224:12258   */\n      gt\n        /* \"#utility.yul\":12221:12283   */\n      or\n        /* \"#utility.yul\":12218:12306   */\n      iszero\n      tag_227\n      jumpi\n        /* \"#utility.yul\":12286:12304   */\n      tag_228\n      tag_70\n      jump\t// in\n    tag_228:\n        /* \"#utility.yul\":12218:12306   */\n    tag_227:\n        /* \"#utility.yul\":12326:12336   */\n      dup1\n        /* \"#utility.yul\":12322:12324   */\n      0x40\n        /* \"#utility.yul\":12315:12337   */\n      mstore\n        /* \"#utility.yul\":12105:12343   */\n      pop\n        /* \"#utility.yul\":12062:12343   */\n      pop\n      pop\n      jump\t// out\n        /* \"#utility.yul\":12349:12478   */\n    tag_72:\n        /* \"#utility.yul\":12383:12389   */\n      0x00\n        /* \"#utility.yul\":12410:12430   */\n      tag_230\n      tag_27\n      jump\t// in\n    tag_230:\n        /* \"#utility.yul\":12400:12430   */\n      swap1\n      pop\n        /* \"#utility.yul\":12439:12472   */\n      tag_231\n        /* \"#utility.yul\":12467:12471   */\n      dup3\n        /* \"#utility.yul\":12459:12465   */\n      dup3\n        /* \"#utility.yul\":12439:12472   */\n      tag_71\n      jump\t// in\n    tag_231:\n        /* \"#utility.yul\":12349:12478   */\n      swap2\n      swap1\n      pop\n      jump\t// out\n        /* \"#utility.yul\":12484:12795   */\n    tag_73:\n        /* \"#utility.yul\":12561:12565   */\n      0x00\n        /* \"#utility.yul\":12651:12669   */\n      0xffffffffffffffff\n        /* \"#utility.yul\":12643:12649   */\n      dup3\n        /* \"#utility.yul\":12640:12670   */\n      gt\n        /* \"#utility.yul\":12637:12693   */\n      iszero\n      tag_233\n      jumpi\n        /* \"#utility.yul\":12673:12691   */\n      tag_234\n      tag_70\n      jump\t// in\n    tag_234:\n        /* \"#utility.yul\":12637:12693   */\n    tag_233:\n        /* \"#utility.yul\":12723:12727   */\n      0x20\n        /* \"#utility.yul\":12715:12721   */\n      dup3\n        /* \"#utility.yul\":12711:12728   */\n      mul\n        /* \"#utility.yul\":12703:12728   */\n      swap1\n      pop\n        /* \"#utility.yul\":12783:12787   */\n      0x20\n        /* \"#utility.yul\":12777:12781   */\n      dup2\n        /* \"#utility.yul\":12773:12788   */\n      add\n        /* \"#utility.yul\":12765:12788   */\n      swap1\n      pop\n        /* \"#utility.yul\":12484:12795   */\n      swap2\n      swap1\n      pop\n      jump\t// out\n        /* \"#utility.yul\":12818:13528   */\n    tag_74:\n        /* \"#utility.yul\":12914:12919   */\n      0x00\n        /* \"#utility.yul\":12939:13020   */\n      tag_236\n        /* \"#utility.yul\":12955:13019   */\n      tag_237\n        /* \"#utility.yul\":13012:13018   */\n      dup5\n        /* \"#utility.yul\":12955:13019   */\n      tag_73\n      jump\t// in\n    tag_237:\n        /* \"#utility.yul\":12939:13020   */\n      tag_72\n      jump\t// in\n    tag_236:\n        /* \"#utility.yul\":12930:13020   */\n      swap1\n      pop\n        /* \"#utility.yul\":13040:13045   */\n      dup1\n        /* \"#utility.yul\":13069:13075   */\n      dup4\n        /* \"#utility.yul\":13062:13067   */\n      dup3\n        /* \"#utility.yul\":13055:13076   */\n      mstore\n        /* \"#utility.yul\":13103:13107   */\n      0x20\n        /* \"#utility.yul\":13096:13101   */\n      dup3\n        /* \"#utility.yul\":13092:13108   */\n      add\n        /* \"#utility.yul\":13085:13108   */\n      swap1\n      pop\n        /* \"#utility.yul\":13156:13160   */\n      0x20\n        /* \"#utility.yul\":13148:13154   */\n      dup5\n        /* \"#utility.yul\":13144:13161   */\n      mul\n        /* \"#utility.yul\":13136:13142   */\n      dup4\n        /* \"#utility.yul\":13132:13162   */\n      add\n        /* \"#utility.yul\":13185:13188   */\n      dup6\n        /* \"#utility.yul\":13177:13183   */\n      dup2\n        /* \"#utility.yul\":13174:13189   */\n      gt\n        /* \"#utility.yul\":13171:13293   */\n      iszero\n      tag_238\n      jumpi\n        /* \"#utility.yul\":13204:13283   */\n      tag_239\n      tag_32\n      jump\t// in\n    tag_239:\n        /* \"#utility.yul\":13171:13293   */\n    tag_238:\n        /* \"#utility.yul\":13319:13325   */\n      dup4\n        /* \"#utility.yul\":13302:13522   */\n    tag_240:\n        /* \"#utility.yul\":13336:13342   */\n      dup2\n        /* \"#utility.yul\":13331:13334   */\n      dup2\n        /* \"#utility.yul\":13328:13343   */\n      lt\n        /* \"#utility.yul\":13302:13522   */\n      iszero\n      tag_242\n      jumpi\n        /* \"#utility.yul\":13411:13414   */\n      dup1\n        /* \"#utility.yul\":13440:13477   */\n      tag_243\n        /* \"#utility.yul\":13473:13476   */\n      dup9\n        /* \"#utility.yul\":13461:13471   */\n      dup3\n        /* \"#utility.yul\":13440:13477   */\n      tag_58\n      jump\t// in\n    tag_243:\n        /* \"#utility.yul\":13435:13438   */\n      dup5\n        /* \"#utility.yul\":13428:13478   */\n      mstore\n        /* \"#utility.yul\":13507:13511   */\n      0x20\n        /* \"#utility.yul\":13502:13505   */\n      dup5\n        /* \"#utility.yul\":13498:13512   */\n      add\n        /* \"#utility.yul\":13491:13512   */\n      swap4\n      pop\n        /* \"#utility.yul\":13378:13522   */\n      pop\n        /* \"#utility.yul\":13362:13366   */\n      0x20\n        /* \"#utility.yul\":13357:13360   */\n      dup2\n        /* \"#utility.yul\":13353:13367   */\n      add\n        /* \"#utility.yul\":13346:13367   */\n      swap1\n      pop\n        /* \"#utility.yul\":13302:13522   */\n      jump(tag_240)\n    tag_242:\n        /* \"#utility.yul\":13306:13327   */\n      pop\n        /* \"#utility.yul\":12920:13528   */\n      pop\n      pop\n        /* \"#utility.yul\":12818:13528   */\n      swap4\n      swap3\n      pop\n      pop\n      pop\n      jump\t// out\n        /* \"#utility.yul\":13551:13921   */\n    tag_75:\n        /* \"#utility.yul\":13622:13627   */\n      0x00\n        /* \"#utility.yul\":13671:13674   */\n      dup3\n        /* \"#utility.yul\":13664:13668   */\n      0x1f\n        /* \"#utility.yul\":13656:13662   */\n      dup4\n        /* \"#utility.yul\":13652:13669   */\n      add\n        /* \"#utility.yul\":13648:13675   */\n      slt\n        /* \"#utility.yul\":13638:13760   */\n      tag_245\n      jumpi\n        /* \"#utility.yul\":13679:13758   */\n      tag_246\n      tag_30\n      jump\t// in\n    tag_246:\n        /* \"#utility.yul\":13638:13760   */\n    tag_245:\n        /* \"#utility.yul\":13796:13802   */\n      dup2\n        /* \"#utility.yul\":13783:13803   */\n      calldataload\n        /* \"#utility.yul\":13821:13915   */\n      tag_247\n        /* \"#utility.yul\":13911:13914   */\n      dup5\n        /* \"#utility.yul\":13903:13909   */\n      dup3\n        /* \"#utility.yul\":13896:13900   */\n      0x20\n        /* \"#utility.yul\":13888:13894   */\n      dup7\n        /* \"#utility.yul\":13884:13901   */\n      add\n        /* \"#utility.yul\":13821:13915   */\n      tag_74\n      jump\t// in\n    tag_247:\n        /* \"#utility.yul\":13812:13915   */\n      swap2\n      pop\n        /* \"#utility.yul\":13628:13921   */\n      pop\n        /* \"#utility.yul\":13551:13921   */\n      swap3\n      swap2\n      pop\n      pop\n      jump\t// out\n        /* \"#utility.yul\":13927:14044   */\n    tag_76:\n        /* \"#utility.yul\":14036:14037   */\n      0x00\n        /* \"#utility.yul\":14033:14034   */\n      dup1\n        /* \"#utility.yul\":14026:14038   */\n      revert\n        /* \"#utility.yul\":14050:14167   */\n    tag_77:\n        /* \"#utility.yul\":14159:14160   */\n      0x00\n        /* \"#utility.yul\":14156:14157   */\n      dup1\n        /* \"#utility.yul\":14149:14161   */\n      revert\n        /* \"#utility.yul\":14173:14290   */\n    tag_78:\n        /* \"#utility.yul\":14282:14283   */\n      0x00\n        /* \"#utility.yul\":14279:14280   */\n      dup1\n        /* \"#utility.yul\":14272:14284   */\n      revert\n        /* \"#utility.yul\":14296:14604   */\n    tag_79:\n        /* \"#utility.yul\":14358:14362   */\n      0x00\n        /* \"#utility.yul\":14448:14466   */\n      0xffffffffffffffff\n        /* \"#utility.yul\":14440:14446   */\n      dup3\n        /* \"#utility.yul\":14437:14467   */\n      gt\n        /* \"#utility.yul\":14434:14490   */\n      iszero\n      tag_252\n      jumpi\n        /* \"#utility.yul\":14470:14488   */\n      tag_253\n      tag_70\n      jump\t// in\n    tag_253:\n        /* \"#utility.yul\":14434:14490   */\n    tag_252:\n        /* \"#utility.yul\":14508:14537   */\n      tag_254\n        /* \"#utility.yul\":14530:14536   */\n      dup3\n        /* \"#utility.yul\":14508:14537   */\n      tag_49\n      jump\t// in\n    tag_254:\n        /* \"#utility.yul\":14500:14537   */\n      swap1\n      pop\n        /* \"#utility.yul\":14592:14596   */\n      0x20\n        /* \"#utility.yul\":14586:14590   */\n      dup2\n        /* \"#utility.yul\":14582:14597   */\n      add\n        /* \"#utility.yul\":14574:14597   */\n      swap1\n      pop\n        /* \"#utility.yul\":14296:14604   */\n      swap2\n      swap1\n      pop\n      jump\t// out\n        /* \"#utility.yul\":14610:14756   */\n    tag_80:\n        /* \"#utility.yul\":14707:14713   */\n      dup3\n        /* \"#utility.yul\":14702:14705   */\n      dup2\n        /* \"#utility.yul\":14697:14700   */\n      dup4\n        /* \"#utility.yul\":14684:14714   */\n      calldatacopy\n        /* \"#utility.yul\":14748:14749   */\n      0x00\n        /* \"#utility.yul\":14739:14745   */\n      dup4\n        /* \"#utility.yul\":14734:14737   */\n      dup4\n        /* \"#utility.yul\":14730:14746   */\n      add\n        /* \"#utility.yul\":14723:14750   */\n      mstore\n        /* \"#utility.yul\":14610:14756   */\n      pop\n      pop\n      pop\n      jump\t// out\n        /* \"#utility.yul\":14762:15187   */\n    tag_81:\n        /* \"#utility.yul\":14840:14845   */\n      0x00\n        /* \"#utility.yul\":14865:14931   */\n      tag_257\n        /* \"#utility.yul\":14881:14930   */\n      tag_258\n        /* \"#utility.yul\":14923:14929   */\n      dup5\n        /* \"#utility.yul\":14881:14930   */\n      tag_79\n      jump\t// in\n    tag_258:\n        /* \"#utility.yul\":14865:14931   */\n      tag_72\n      jump\t// in\n    tag_257:\n        /* \"#utility.yul\":14856:14931   */\n      swap1\n      pop\n        /* \"#utility.yul\":14954:14960   */\n      dup3\n        /* \"#utility.yul\":14947:14952   */\n      dup2\n        /* \"#utility.yul\":14940:14961   */\n      mstore\n        /* \"#utility.yul\":14992:14996   */\n      0x20\n        /* \"#utility.yul\":14985:14990   */\n      dup2\n        /* \"#utility.yul\":14981:14997   */\n      add\n        /* \"#utility.yul\":15030:15033   */\n      dup5\n        /* \"#utility.yul\":15021:15027   */\n      dup5\n        /* \"#utility.yul\":15016:15019   */\n      dup5\n        /* \"#utility.yul\":15012:15028   */\n      add\n        /* \"#utility.yul\":15009:15034   */\n      gt\n        /* \"#utility.yul\":15006:15118   */\n      iszero\n      tag_259\n      jumpi\n        /* \"#utility.yul\":15037:15116   */\n      tag_260\n      tag_78\n      jump\t// in\n    tag_260:\n        /* \"#utility.yul\":15006:15118   */\n    tag_259:\n        /* \"#utility.yul\":15127:15181   */\n      tag_261\n        /* \"#utility.yul\":15174:15180   */\n      dup5\n        /* \"#utility.yul\":15169:15172   */\n      dup3\n        /* \"#utility.yul\":15164:15167   */\n      dup6\n        /* \"#utility.yul\":15127:15181   */\n      tag_80\n      jump\t// in\n    tag_261:\n        /* \"#utility.yul\":14846:15187   */\n      pop\n        /* \"#utility.yul\":14762:15187   */\n      swap4\n      swap3\n      pop\n      pop\n      pop\n      jump\t// out\n        /* \"#utility.yul\":15207:15547   */\n    tag_82:\n        /* \"#utility.yul\":15263:15268   */\n      0x00\n        /* \"#utility.yul\":15312:15315   */\n      dup3\n        /* \"#utility.yul\":15305:15309   */\n      0x1f\n        /* \"#utility.yul\":15297:15303   */\n      dup4\n        /* \"#utility.yul\":15293:15310   */\n      add\n        /* \"#utility.yul\":15289:15316   */\n      slt\n        /* \"#utility.yul\":15279:15401   */\n      tag_263\n      jumpi\n        /* \"#utility.yul\":15320:15399   */\n      tag_264\n      tag_30\n      jump\t// in\n    tag_264:\n        /* \"#utility.yul\":15279:15401   */\n    tag_263:\n        /* \"#utility.yul\":15437:15443   */\n      dup2\n        /* \"#utility.yul\":15424:15444   */\n      calldataload\n        /* \"#utility.yul\":15462:15541   */\n      tag_265\n        /* \"#utility.yul\":15537:15540   */\n      dup5\n        /* \"#utility.yul\":15529:15535   */\n      dup3\n        /* \"#utility.yul\":15522:15526   */\n      0x20\n        /* \"#utility.yul\":15514:15520   */\n      dup7\n        /* \"#utility.yul\":15510:15527   */\n      add\n        /* \"#utility.yul\":15462:15541   */\n      tag_81\n      jump\t// in\n    tag_265:\n        /* \"#utility.yul\":15453:15541   */\n      swap2\n      pop\n        /* \"#utility.yul\":15269:15547   */\n      pop\n        /* \"#utility.yul\":15207:15547   */\n      swap3\n      swap2\n      pop\n      pop\n      jump\t// out\n        /* \"#utility.yul\":15553:15802   */\n    tag_83:\n        /* \"#utility.yul\":15628:15632   */\n      0x00\n        /* \"#utility.yul\":15718:15736   */\n      0xffffffffffffffff\n        /* \"#utility.yul\":15710:15716   */\n      dup3\n        /* \"#utility.yul\":15707:15737   */\n      gt\n        /* \"#utility.yul\":15704:15760   */\n      iszero\n      tag_267\n      jumpi\n        /* \"#utility.yul\":15740:15758   */\n      tag_268\n      tag_70\n      jump\t// in\n    tag_268:\n        /* \"#utility.yul\":15704:15760   */\n    tag_267:\n        /* \"#utility.yul\":15790:15794   */\n      0x20\n        /* \"#utility.yul\":15782:15788   */\n      dup3\n        /* \"#utility.yul\":15778:15795   */\n      mul\n        /* \"#utility.yul\":15770:15795   */\n      swap1\n      pop\n        /* \"#utility.yul\":15553:15802   */\n      swap2\n      swap1\n      pop\n      jump\t// out\n        /* \"#utility.yul\":15826:16469   */\n    tag_84:\n        /* \"#utility.yul\":15920:15925   */\n      0x00\n        /* \"#utility.yul\":15945:16024   */\n      tag_270\n        /* \"#utility.yul\":15961:16023   */\n      tag_271\n        /* \"#utility.yul\":16016:16022   */\n      dup5\n        /* \"#utility.yul\":15961:16023   */\n      tag_83\n      jump\t// in\n    tag_271:\n        /* \"#utility.yul\":15945:16024   */\n      tag_72\n      jump\t// in\n    tag_270:\n        /* \"#utility.yul\":15936:16024   */\n      swap1\n      pop\n        /* \"#utility.yul\":16044:16049   */\n      dup1\n        /* \"#utility.yul\":16097:16101   */\n      0x20\n        /* \"#utility.yul\":16089:16095   */\n      dup5\n        /* \"#utility.yul\":16085:16102   */\n      mul\n        /* \"#utility.yul\":16077:16083   */\n      dup4\n        /* \"#utility.yul\":16073:16103   */\n      add\n        /* \"#utility.yul\":16126:16129   */\n      dup6\n        /* \"#utility.yul\":16118:16124   */\n      dup2\n        /* \"#utility.yul\":16115:16130   */\n      gt\n        /* \"#utility.yul\":16112:16234   */\n      iszero\n      tag_272\n      jumpi\n        /* \"#utility.yul\":16145:16224   */\n      tag_273\n      tag_32\n      jump\t// in\n    tag_273:\n        /* \"#utility.yul\":16112:16234   */\n    tag_272:\n        /* \"#utility.yul\":16260:16266   */\n      dup4\n        /* \"#utility.yul\":16243:16463   */\n    tag_274:\n        /* \"#utility.yul\":16277:16283   */\n      dup2\n        /* \"#utility.yul\":16272:16275   */\n      dup2\n        /* \"#utility.yul\":16269:16284   */\n      lt\n        /* \"#utility.yul\":16243:16463   */\n      iszero\n      tag_276\n      jumpi\n        /* \"#utility.yul\":16352:16355   */\n      dup1\n        /* \"#utility.yul\":16381:16418   */\n      tag_277\n        /* \"#utility.yul\":16414:16417   */\n      dup9\n        /* \"#utility.yul\":16402:16412   */\n      dup3\n        /* \"#utility.yul\":16381:16418   */\n      tag_58\n      jump\t// in\n    tag_277:\n        /* \"#utility.yul\":16376:16379   */\n      dup5\n        /* \"#utility.yul\":16369:16419   */\n      mstore\n        /* \"#utility.yul\":16448:16452   */\n      0x20\n        /* \"#utility.yul\":16443:16446   */\n      dup5\n        /* \"#utility.yul\":16439:16453   */\n      add\n        /* \"#utility.yul\":16432:16453   */\n      swap4\n      pop\n        /* \"#utility.yul\":16319:16463   */\n      pop\n        /* \"#utility.yul\":16303:16307   */\n      0x20\n        /* \"#utility.yul\":16298:16301   */\n      dup2\n        /* \"#utility.yul\":16294:16308   */\n      add\n        /* \"#utility.yul\":16287:16308   */\n      swap1\n      pop\n        /* \"#utility.yul\":16243:16463   */\n      jump(tag_274)\n    tag_276:\n        /* \"#utility.yul\":16247:16268   */\n      pop\n        /* \"#utility.yul\":15926:16469   */\n      pop\n      pop\n        /* \"#utility.yul\":15826:16469   */\n      swap4\n      swap3\n      pop\n      pop\n      pop\n      jump\t// out\n        /* \"#utility.yul\":16493:16832   */\n    tag_85:\n        /* \"#utility.yul\":16562:16567   */\n      0x00\n        /* \"#utility.yul\":16611:16614   */\n      dup3\n        /* \"#utility.yul\":16604:16608   */\n      0x1f\n        /* \"#utility.yul\":16596:16602   */\n      dup4\n        /* \"#utility.yul\":16592:16609   */\n      add\n        /* \"#utility.yul\":16588:16615   */\n      slt\n        /* \"#utility.yul\":16578:16700   */\n      tag_279\n      jumpi\n        /* \"#utility.yul\":16619:16698   */\n      tag_280\n      tag_30\n      jump\t// in\n    tag_280:\n        /* \"#utility.yul\":16578:16700   */\n    tag_279:\n        /* \"#utility.yul\":16723:16727   */\n      0x02\n        /* \"#utility.yul\":16745:16826   */\n      tag_281\n        /* \"#utility.yul\":16822:16825   */\n      dup5\n        /* \"#utility.yul\":16814:16820   */\n      dup3\n        /* \"#utility.yul\":16806:16812   */\n      dup6\n        /* \"#utility.yul\":16745:16826   */\n      tag_84\n      jump\t// in\n    tag_281:\n        /* \"#utility.yul\":16736:16826   */\n      swap2\n      pop\n        /* \"#utility.yul\":16568:16832   */\n      pop\n        /* \"#utility.yul\":16493:16832   */\n      swap3\n      swap2\n      pop\n      pop\n      jump\t// out\n        /* \"#utility.yul\":16871:17636   */\n    tag_86:\n        /* \"#utility.yul\":16943:16948   */\n      0x00\n        /* \"#utility.yul\":16987:16991   */\n      0x60\n        /* \"#utility.yul\":16975:16984   */\n      dup3\n        /* \"#utility.yul\":16970:16973   */\n      dup5\n        /* \"#utility.yul\":16966:16985   */\n      sub\n        /* \"#utility.yul\":16962:16992   */\n      slt\n        /* \"#utility.yul\":16959:17076   */\n      iszero\n      tag_283\n      jumpi\n        /* \"#utility.yul\":16995:17074   */\n      tag_284\n      tag_76\n      jump\t// in\n    tag_284:\n        /* \"#utility.yul\":16959:17076   */\n    tag_283:\n        /* \"#utility.yul\":17094:17115   */\n      tag_285\n        /* \"#utility.yul\":17110:17114   */\n      0x40\n        /* \"#utility.yul\":17094:17115   */\n      tag_72\n      jump\t// in\n    tag_285:\n        /* \"#utility.yul\":17085:17115   */\n      swap1\n      pop\n        /* \"#utility.yul\":17202:17203   */\n      0x00\n        /* \"#utility.yul\":17191:17200   */\n      dup3\n        /* \"#utility.yul\":17187:17204   */\n      add\n        /* \"#utility.yul\":17174:17205   */\n      calldataload\n        /* \"#utility.yul\":17232:17250   */\n      0xffffffffffffffff\n        /* \"#utility.yul\":17224:17230   */\n      dup2\n        /* \"#utility.yul\":17221:17251   */\n      gt\n        /* \"#utility.yul\":17218:17335   */\n      iszero\n      tag_286\n      jumpi\n        /* \"#utility.yul\":17254:17333   */\n      tag_287\n      tag_77\n      jump\t// in\n    tag_287:\n        /* \"#utility.yul\":17218:17335   */\n    tag_286:\n        /* \"#utility.yul\":17374:17433   */\n      tag_288\n        /* \"#utility.yul\":17429:17432   */\n      dup5\n        /* \"#utility.yul\":17420:17426   */\n      dup3\n        /* \"#utility.yul\":17409:17418   */\n      dup6\n        /* \"#utility.yul\":17405:17427   */\n      add\n        /* \"#utility.yul\":17374:17433   */\n      tag_82\n      jump\t// in\n    tag_288:\n        /* \"#utility.yul\":17367:17371   */\n      0x00\n        /* \"#utility.yul\":17360:17365   */\n      dup4\n        /* \"#utility.yul\":17356:17372   */\n      add\n        /* \"#utility.yul\":17349:17434   */\n      mstore\n        /* \"#utility.yul\":17125:17445   */\n      pop\n        /* \"#utility.yul\":17504:17506   */\n      0x20\n        /* \"#utility.yul\":17545:17617   */\n      tag_289\n        /* \"#utility.yul\":17613:17616   */\n      dup5\n        /* \"#utility.yul\":17604:17610   */\n      dup3\n        /* \"#utility.yul\":17593:17602   */\n      dup6\n        /* \"#utility.yul\":17589:17611   */\n      add\n        /* \"#utility.yul\":17545:17617   */\n      tag_85\n      jump\t// in\n    tag_289:\n        /* \"#utility.yul\":17538:17542   */\n      0x20\n        /* \"#utility.yul\":17531:17536   */\n      dup4\n        /* \"#utility.yul\":17527:17543   */\n      add\n        /* \"#utility.yul\":17520:17618   */\n      mstore\n        /* \"#utility.yul\":17455:17629   */\n      pop\n        /* \"#utility.yul\":16871:17636   */\n      swap3\n      swap2\n      pop\n      pop\n      jump\t// out\n        /* \"#utility.yul\":17642:18839   */\n    tag_21:\n        /* \"#utility.yul\":17784:17790   */\n      0x00\n        /* \"#utility.yul\":17792:17798   */\n      dup1\n        /* \"#utility.yul\":17800:17806   */\n      0x00\n        /* \"#utility.yul\":17808:17814   */\n      dup1\n        /* \"#utility.yul\":17857:17860   */\n      0x80\n        /* \"#utility.yul\":17845:17854   */\n      dup6\n        /* \"#utility.yul\":17836:17843   */\n      dup8\n        /* \"#utility.yul\":17832:17855   */\n      sub\n        /* \"#utility.yul\":17828:17861   */\n      slt\n        /* \"#utility.yul\":17825:17945   */\n      iszero\n      tag_291\n      jumpi\n        /* \"#utility.yul\":17864:17943   */\n      tag_292\n      tag_28\n      jump\t// in\n    tag_292:\n        /* \"#utility.yul\":17825:17945   */\n    tag_291:\n        /* \"#utility.yul\":17984:17985   */\n      0x00\n        /* \"#utility.yul\":18009:18062   */\n      tag_293\n        /* \"#utility.yul\":18054:18061   */\n      dup8\n        /* \"#utility.yul\":18045:18051   */\n      dup3\n        /* \"#utility.yul\":18034:18043   */\n      dup9\n        /* \"#utility.yul\":18030:18052   */\n      add\n        /* \"#utility.yul\":18009:18062   */\n      tag_58\n      jump\t// in\n    tag_293:\n        /* \"#utility.yul\":17999:18062   */\n      swap5\n      pop\n        /* \"#utility.yul\":17955:18072   */\n      pop\n        /* \"#utility.yul\":18111:18113   */\n      0x20\n        /* \"#utility.yul\":18137:18198   */\n      tag_294\n        /* \"#utility.yul\":18190:18197   */\n      dup8\n        /* \"#utility.yul\":18181:18187   */\n      dup3\n        /* \"#utility.yul\":18170:18179   */\n      dup9\n        /* \"#utility.yul\":18166:18188   */\n      add\n        /* \"#utility.yul\":18137:18198   */\n      tag_69\n      jump\t// in\n    tag_294:\n        /* \"#utility.yul\":18127:18198   */\n      swap4\n      pop\n        /* \"#utility.yul\":18082:18208   */\n      pop\n        /* \"#utility.yul\":18275:18277   */\n      0x40\n        /* \"#utility.yul\":18264:18273   */\n      dup6\n        /* \"#utility.yul\":18260:18278   */\n      add\n        /* \"#utility.yul\":18247:18279   */\n      calldataload\n        /* \"#utility.yul\":18306:18324   */\n      0xffffffffffffffff\n        /* \"#utility.yul\":18298:18304   */\n      dup2\n        /* \"#utility.yul\":18295:18325   */\n      gt\n        /* \"#utility.yul\":18292:18409   */\n      iszero\n      tag_295\n      jumpi\n        /* \"#utility.yul\":18328:18407   */\n      tag_296\n      tag_29\n      jump\t// in\n    tag_296:\n        /* \"#utility.yul\":18292:18409   */\n    tag_295:\n        /* \"#utility.yul\":18433:18511   */\n      tag_297\n        /* \"#utility.yul\":18503:18510   */\n      dup8\n        /* \"#utility.yul\":18494:18500   */\n      dup3\n        /* \"#utility.yul\":18483:18492   */\n      dup9\n        /* \"#utility.yul\":18479:18501   */\n      add\n        /* \"#utility.yul\":18433:18511   */\n      tag_75\n      jump\t// in\n    tag_297:\n        /* \"#utility.yul\":18423:18511   */\n      swap3\n      pop\n        /* \"#utility.yul\":18218:18521   */\n      pop\n        /* \"#utility.yul\":18588:18590   */\n      0x60\n        /* \"#utility.yul\":18577:18586   */\n      dup6\n        /* \"#utility.yul\":18573:18591   */\n      add\n        /* \"#utility.yul\":18560:18592   */\n      calldataload\n        /* \"#utility.yul\":18619:18637   */\n      0xffffffffffffffff\n        /* \"#utility.yul\":18611:18617   */\n      dup2\n        /* \"#utility.yul\":18608:18638   */\n      gt\n        /* \"#utility.yul\":18605:18722   */\n      iszero\n      tag_298\n      jumpi\n        /* \"#utility.yul\":18641:18720   */\n      tag_299\n      tag_29\n      jump\t// in\n    tag_299:\n        /* \"#utility.yul\":18605:18722   */\n    tag_298:\n        /* \"#utility.yul\":18746:18822   */\n      tag_300\n        /* \"#utility.yul\":18814:18821   */\n      dup8\n        /* \"#utility.yul\":18805:18811   */\n      dup3\n        /* \"#utility.yul\":18794:18803   */\n      dup9\n        /* \"#utility.yul\":18790:18812   */\n      add\n        /* \"#utility.yul\":18746:18822   */\n      tag_86\n      jump\t// in\n    tag_300:\n        /* \"#utility.yul\":18736:18822   */\n      swap2\n      pop\n        /* \"#utility.yul\":18531:18832   */\n      pop\n        /* \"#utility.yul\":17642:18839   */\n      swap3\n      swap6\n      swap2\n      swap5\n      pop\n      swap3\n      pop\n      jump\t// out\n        /* \"#utility.yul\":18845:18962   */\n    tag_87:\n        /* \"#utility.yul\":18954:18955   */\n      0x00\n        /* \"#utility.yul\":18951:18952   */\n      dup1\n        /* \"#utility.yul\":18944:18956   */\n      revert\n        /* \"#utility.yul\":18968:19066   */\n    tag_88:\n        /* \"#utility.yul\":19052:19058   */\n      dup3\n        /* \"#utility.yul\":19047:19050   */\n      dup2\n        /* \"#utility.yul\":19042:19045   */\n      dup4\n        /* \"#utility.yul\":19029:19059   */\n      calldatacopy\n        /* \"#utility.yul\":18968:19066   */\n      pop\n      pop\n      pop\n      jump\t// out\n        /* \"#utility.yul\":19102:19639   */\n    tag_89:\n        /* \"#utility.yul\":19230:19233   */\n      0x00\n        /* \"#utility.yul\":19251:19337   */\n      tag_304\n        /* \"#utility.yul\":19330:19336   */\n      dup4\n        /* \"#utility.yul\":19325:19328   */\n      dup6\n        /* \"#utility.yul\":19251:19337   */\n      tag_40\n      jump\t// in\n    tag_304:\n        /* \"#utility.yul\":19244:19337   */\n      swap4\n      pop\n        /* \"#utility.yul\":19361:19427   */\n      0x07ffffffffffffffffffffffffffffffffffffffffffffffffffffffffffffff\n        /* \"#utility.yul\":19353:19359   */\n      dup4\n        /* \"#utility.yul\":19350:19428   */\n      gt\n        /* \"#utility.yul\":19347:19512   */\n      iszero\n      tag_305\n      jumpi\n        /* \"#utility.yul\":19431:19510   */\n      tag_306\n      tag_87\n      jump\t// in\n    tag_306:\n        /* \"#utility.yul\":19347:19512   */\n    tag_305:\n        /* \"#utility.yul\":19543:19547   */\n      0x20\n        /* \"#utility.yul\":19535:19541   */\n      dup4\n        /* \"#utility.yul\":19531:19548   */\n      mul\n        /* \"#utility.yul\":19521:19548   */\n      swap3\n      pop\n        /* \"#utility.yul\":19558:19601   */\n      tag_307\n        /* \"#utility.yul\":19594:19600   */\n      dup4\n        /* \"#utility.yul\":19589:19592   */\n      dup6\n        /* \"#utility.yul\":19582:19587   */\n      dup5\n        /* \"#utility.yul\":19558:19601   */\n      tag_88\n      jump\t// in\n    tag_307:\n        /* \"#utility.yul\":19626:19632   */\n      dup3\n        /* \"#utility.yul\":19621:19624   */\n      dup5\n        /* \"#utility.yul\":19617:19633   */\n      add\n        /* \"#utility.yul\":19610:19633   */\n      swap1\n      pop\n        /* \"#utility.yul\":19102:19639   */\n      swap4\n      swap3\n      pop\n      pop\n      pop\n      jump\t// out\n        /* \"#utility.yul\":19645:19762   */\n    tag_90:\n        /* \"#utility.yul\":19754:19755   */\n      0x00\n        /* \"#utility.yul\":19751:19752   */\n      dup1\n        /* \"#utility.yul\":19744:19756   */\n      revert\n        /* \"#utility.yul\":19768:19885   */\n    tag_91:\n        /* \"#utility.yul\":19877:19878   */\n      0x00\n        /* \"#utility.yul\":19874:19875   */\n      dup1\n        /* \"#utility.yul\":19867:19879   */\n      revert\n        /* \"#utility.yul\":19891:20008   */\n    tag_92:\n        /* \"#utility.yul\":20000:20001   */\n      0x00\n        /* \"#utility.yul\":19997:19998   */\n      dup1\n        /* \"#utility.yul\":19990:20002   */\n      revert\n        /* \"#utility.yul\":20014:20726   */\n    tag_93:\n        /* \"#utility.yul\":20079:20084   */\n      0x00\n        /* \"#utility.yul\":20086:20092   */\n      dup1\n        /* \"#utility.yul\":20142:20145   */\n      dup4\n        /* \"#utility.yul\":20129:20146   */\n      calldataload\n        /* \"#utility.yul\":20234:20235   */\n      0x01\n        /* \"#utility.yul\":20228:20232   */\n      0x20\n        /* \"#utility.yul\":20224:20236   */\n      sub\n        /* \"#utility.yul\":20213:20221   */\n      dup5\n        /* \"#utility.yul\":20197:20211   */\n      calldatasize\n        /* \"#utility.yul\":20193:20222   */\n      sub\n        /* \"#utility.yul\":20189:20237   */\n      sub\n        /* \"#utility.yul\":20169:20187   */\n      dup2\n        /* \"#utility.yul\":20165:20238   */\n      slt\n        /* \"#utility.yul\":20155:20323   */\n      tag_312\n      jumpi\n        /* \"#utility.yul\":20242:20321   */\n      tag_313\n      tag_92\n      jump\t// in\n    tag_313:\n        /* \"#utility.yul\":20155:20323   */\n    tag_312:\n        /* \"#utility.yul\":20365:20373   */\n      dup4\n        /* \"#utility.yul\":20345:20363   */\n      dup2\n        /* \"#utility.yul\":20341:20374   */\n      add\n        /* \"#utility.yul\":20332:20374   */\n      swap3\n      pop\n        /* \"#utility.yul\":20407:20412   */\n      dup3\n        /* \"#utility.yul\":20394:20413   */\n      calldataload\n        /* \"#utility.yul\":20384:20413   */\n      swap2\n      pop\n        /* \"#utility.yul\":20442:20446   */\n      0x20\n        /* \"#utility.yul\":20435:20440   */\n      dup4\n        /* \"#utility.yul\":20431:20447   */\n      add\n        /* \"#utility.yul\":20422:20447   */\n      swap3\n      pop\n        /* \"#utility.yul\":20470:20488   */\n      0xffffffffffffffff\n        /* \"#utility.yul\":20462:20468   */\n      dup3\n        /* \"#utility.yul\":20459:20489   */\n      gt\n        /* \"#utility.yul\":20456:20573   */\n      iszero\n      tag_314\n      jumpi\n        /* \"#utility.yul\":20492:20571   */\n      tag_315\n      tag_90\n      jump\t// in\n    tag_315:\n        /* \"#utility.yul\":20456:20573   */\n    tag_314:\n        /* \"#utility.yul\":20628:20632   */\n      0x01\n        /* \"#utility.yul\":20620:20626   */\n      dup3\n        /* \"#utility.yul\":20616:20633   */\n      mul\n        /* \"#utility.yul\":20600:20614   */\n      calldatasize\n        /* \"#utility.yul\":20596:20634   */\n      sub\n        /* \"#utility.yul\":20589:20594   */\n      dup4\n        /* \"#utility.yul\":20585:20635   */\n      sgt\n        /* \"#utility.yul\":20582:20719   */\n      iszero\n      tag_316\n      jumpi\n        /* \"#utility.yul\":20638:20717   */\n      tag_317\n      tag_91\n      jump\t// in\n    tag_317:\n        /* \"#utility.yul\":20582:20719   */\n    tag_316:\n        /* \"#utility.yul\":20093:20726   */\n      pop\n        /* \"#utility.yul\":20014:20726   */\n      swap3\n      pop\n      swap3\n      swap1\n      pop\n      jump\t// out\n        /* \"#utility.yul\":20756:21053   */\n    tag_94:\n        /* \"#utility.yul\":20844:20847   */\n      0x00\n        /* \"#utility.yul\":20865:20926   */\n      tag_319\n        /* \"#utility.yul\":20919:20925   */\n      dup4\n        /* \"#utility.yul\":20914:20917   */\n      dup6\n        /* \"#utility.yul\":20865:20926   */\n      tag_47\n      jump\t// in\n    tag_319:\n        /* \"#utility.yul\":20858:20926   */\n      swap4\n      pop\n        /* \"#utility.yul\":20936:20992   */\n      tag_320\n        /* \"#utility.yul\":20985:20991   */\n      dup4\n        /* \"#utility.yul\":20980:20983   */\n      dup6\n        /* \"#utility.yul\":20973:20978   */\n      dup5\n        /* \"#utility.yul\":20936:20992   */\n      tag_80\n      jump\t// in\n    tag_320:\n        /* \"#utility.yul\":21017:21046   */\n      tag_321\n        /* \"#utility.yul\":21039:21045   */\n      dup4\n        /* \"#utility.yul\":21017:21046   */\n      tag_49\n      jump\t// in\n    tag_321:\n        /* \"#utility.yul\":21012:21015   */\n      dup5\n        /* \"#utility.yul\":21008:21047   */\n      add\n        /* \"#utility.yul\":21001:21047   */\n      swap1\n      pop\n        /* \"#utility.yul\":20756:21053   */\n      swap4\n      swap3\n      pop\n      pop\n      pop\n      jump\t// out\n        /* \"#utility.yul\":21059:21170   */\n    tag_95:\n        /* \"#utility.yul\":21136:21141   */\n      0x00\n        /* \"#utility.yul\":21161:21164   */\n      dup3\n        /* \"#utility.yul\":21152:21164   */\n      swap1\n      pop\n        /* \"#utility.yul\":21059:21170   */\n      swap3\n      swap2\n      pop\n      pop\n      jump\t// out\n        /* \"#utility.yul\":21208:21368   */\n    tag_96:\n        /* \"#utility.yul\":21321:21362   */\n      tag_324\n        /* \"#utility.yul\":21357:21361   */\n      0x40\n        /* \"#utility.yul\":21352:21355   */\n      dup4\n        /* \"#utility.yul\":21345:21350   */\n      dup4\n        /* \"#utility.yul\":21321:21362   */\n      tag_88\n      jump\t// in\n    tag_324:\n        /* \"#utility.yul\":21208:21368   */\n      pop\n      pop\n      jump\t// out\n        /* \"#utility.yul\":21436:22209   */\n    tag_97:\n        /* \"#utility.yul\":21553:21556   */\n      0x00\n        /* \"#utility.yul\":21589:21593   */\n      0x60\n        /* \"#utility.yul\":21584:21587   */\n      dup4\n        /* \"#utility.yul\":21580:21594   */\n      add\n        /* \"#utility.yul\":21673:21735   */\n      tag_326\n        /* \"#utility.yul\":21729:21733   */\n      0x00\n        /* \"#utility.yul\":21722:21727   */\n      dup5\n        /* \"#utility.yul\":21718:21734   */\n      add\n        /* \"#utility.yul\":21711:21716   */\n      dup5\n        /* \"#utility.yul\":21673:21735   */\n      tag_93\n      jump\t// in\n    tag_326:\n        /* \"#utility.yul\":21782:21785   */\n      dup6\n        /* \"#utility.yul\":21776:21780   */\n      dup4\n        /* \"#utility.yul\":21772:21786   */\n      sub\n        /* \"#utility.yul\":21765:21769   */\n      0x00\n        /* \"#utility.yul\":21760:21763   */\n      dup8\n        /* \"#utility.yul\":21756:21770   */\n      add\n        /* \"#utility.yul\":21749:21787   */\n      mstore\n        /* \"#utility.yul\":21808:21897   */\n      tag_327\n        /* \"#utility.yul\":21892:21896   */\n      dup4\n        /* \"#utility.yul\":21878:21890   */\n      dup3\n        /* \"#utility.yul\":21864:21876   */\n      dup5\n        /* \"#utility.yul\":21808:21897   */\n      tag_94\n      jump\t// in\n    tag_327:\n        /* \"#utility.yul\":21800:21897   */\n      swap3\n      pop\n        /* \"#utility.yul\":21604:21908   */\n      pop\n      pop\n        /* \"#utility.yul\":21973:22048   */\n      tag_328\n        /* \"#utility.yul\":22042:22046   */\n      0x20\n        /* \"#utility.yul\":22035:22040   */\n      dup5\n        /* \"#utility.yul\":22031:22047   */\n      add\n        /* \"#utility.yul\":22024:22029   */\n      dup5\n        /* \"#utility.yul\":21973:22048   */\n      tag_95\n      jump\t// in\n    tag_328:\n        /* \"#utility.yul\":22061:22172   */\n      tag_329\n        /* \"#utility.yul\":22166:22170   */\n      0x20\n        /* \"#utility.yul\":22161:22164   */\n      dup7\n        /* \"#utility.yul\":22157:22171   */\n      add\n        /* \"#utility.yul\":22143:22155   */\n      dup3\n        /* \"#utility.yul\":22061:22172   */\n      tag_96\n      jump\t// in\n    tag_329:\n        /* \"#utility.yul\":21918:22182   */\n      pop\n        /* \"#utility.yul\":22199:22203   */\n      dup1\n        /* \"#utility.yul\":22192:22203   */\n      swap2\n      pop\n        /* \"#utility.yul\":21558:22209   */\n      pop\n        /* \"#utility.yul\":21436:22209   */\n      swap3\n      swap2\n      pop\n      pop\n      jump\t// out\n        /* \"#utility.yul\":22215:23086   */\n    tag_24:\n        /* \"#utility.yul\":22500:22504   */\n      0x00\n        /* \"#utility.yul\":22538:22541   */\n      0x80\n        /* \"#utility.yul\":22527:22536   */\n      dup3\n        /* \"#utility.yul\":22523:22542   */\n      add\n        /* \"#utility.yul\":22515:22542   */\n      swap1\n      pop\n        /* \"#utility.yul\":22552:22623   */\n      tag_331\n        /* \"#utility.yul\":22620:22621   */\n      0x00\n        /* \"#utility.yul\":22609:22618   */\n      dup4\n        /* \"#utility.yul\":22605:22622   */\n      add\n        /* \"#utility.yul\":22596:22602   */\n      dup9\n        /* \"#utility.yul\":22552:22623   */\n      tag_35\n      jump\t// in\n    tag_331:\n        /* \"#utility.yul\":22633:22705   */\n      tag_332\n        /* \"#utility.yul\":22701:22703   */\n      0x20\n        /* \"#utility.yul\":22690:22699   */\n      dup4\n        /* \"#utility.yul\":22686:22704   */\n      add\n        /* \"#utility.yul\":22677:22683   */\n      dup8\n        /* \"#utility.yul\":22633:22705   */\n      tag_38\n      jump\t// in\n    tag_332:\n        /* \"#utility.yul\":22752:22761   */\n      dup2\n        /* \"#utility.yul\":22746:22750   */\n      dup2\n        /* \"#utility.yul\":22742:22762   */\n      sub\n        /* \"#utility.yul\":22737:22739   */\n      0x40\n        /* \"#utility.yul\":22726:22735   */\n      dup4\n        /* \"#utility.yul\":22722:22740   */\n      add\n        /* \"#utility.yul\":22715:22763   */\n      mstore\n        /* \"#utility.yul\":22780:22898   */\n      tag_333\n        /* \"#utility.yul\":22893:22897   */\n      dup2\n        /* \"#utility.yul\":22884:22890   */\n      dup6\n        /* \"#utility.yul\":22876:22882   */\n      dup8\n        /* \"#utility.yul\":22780:22898   */\n      tag_89\n      jump\t// in\n    tag_333:\n        /* \"#utility.yul\":22772:22898   */\n      swap1\n      pop\n        /* \"#utility.yul\":22945:22954   */\n      dup2\n        /* \"#utility.yul\":22939:22943   */\n      dup2\n        /* \"#utility.yul\":22935:22955   */\n      sub\n        /* \"#utility.yul\":22930:22932   */\n      0x60\n        /* \"#utility.yul\":22919:22928   */\n      dup4\n        /* \"#utility.yul\":22915:22933   */\n      add\n        /* \"#utility.yul\":22908:22956   */\n      mstore\n        /* \"#utility.yul\":22973:23079   */\n      tag_334\n        /* \"#utility.yul\":23074:23078   */\n      dup2\n        /* \"#utility.yul\":23065:23071   */\n      dup5\n        /* \"#utility.yul\":22973:23079   */\n      tag_97\n      jump\t// in\n    tag_334:\n        /* \"#utility.yul\":22965:23079   */\n      swap1\n      pop\n        /* \"#utility.yul\":22215:23086   */\n      swap7\n      swap6\n      pop\n      pop\n      pop\n      pop\n      pop\n      pop\n      jump\t// out\n\n    auxdata: 0xa264697066735822122006568a85a02c1b465b63bb265de3e345b625e3c687390de58eb4b22a3007ee0f64736f6c63430008170033\n}\n",
				"bytecode": {
					"linkReferences": {},
					"object": "608060405234801561000f575f80fd5b50610c518061001d5f395ff3fe608060405234801561000f575f80fd5b5060043610610034575f3560e01c8063d097af2914610038578063db3335fc1461006b575b5f80fd5b610052600480360381019061004d91906101b8565b61009b565b6040516100629493929190610454565b60405180910390f35b61008560048036038101906100809190610570565b6100cf565b6040516100929190610662565b60405180910390f35b5f8060606100a7610104565b85858101906100b691906109c4565b8094508195508296508397505050505092959194509250565b606085858585856040516020016100ea959493929190610bc8565b604051602081830303815290604052905095945050505050565b60405180604001604052806060815260200161011e610124565b81525090565b6040518060400160405280600290602082028036833780820191505090505090565b5f604051905090565b5f80fd5b5f80fd5b5f80fd5b5f80fd5b5f80fd5b5f8083601f84011261017857610177610157565b5b8235905067ffffffffffffffff8111156101955761019461015b565b5b6020830191508360018202830111156101b1576101b061015f565b5b9250929050565b5f80602083850312156101ce576101cd61014f565b5b5f83013567ffffffffffffffff8111156101eb576101ea610153565b5b6101f785828601610163565b92509250509250929050565b5f819050919050565b61021581610203565b82525050565b5f73ffffffffffffffffffffffffffffffffffffffff82169050919050565b5f6102448261021b565b9050919050565b6102548161023a565b82525050565b5f81519050919050565b5f82825260208201905092915050565b5f819050602082019050919050565b61028c81610203565b82525050565b5f61029d8383610283565b60208301905092915050565b5f602082019050919050565b5f6102bf8261025a565b6102c98185610264565b93506102d483610274565b805f5b838110156103045781516102eb8882610292565b97506102f6836102a9565b9250506001810190506102d7565b5085935050505092915050565b5f81519050919050565b5f82825260208201905092915050565b5f5b8381101561034857808201518184015260208101905061032d565b5f8484015250505050565b5f601f19601f8301169050919050565b5f61036d82610311565b610377818561031b565b935061038781856020860161032b565b61039081610353565b840191505092915050565b5f60029050919050565b5f81905092915050565b5f819050919050565b5f602082019050919050565b6103cd8161039b565b6103d781846103a5565b92506103e2826103af565b805f5b838110156104125781516103f98782610292565b9650610404836103b8565b9250506001810190506103e5565b505050505050565b5f606083015f8301518482035f8601526104348282610363565b915050602083015161044960208601826103c4565b508091505092915050565b5f6080820190506104675f83018761020c565b610474602083018661024b565b818103604083015261048681856102b5565b9050818103606083015261049a818461041a565b905095945050505050565b6104ae81610203565b81146104b8575f80fd5b50565b5f813590506104c9816104a5565b92915050565b6104d88161023a565b81146104e2575f80fd5b50565b5f813590506104f3816104cf565b92915050565b5f8083601f84011261050e5761050d610157565b5b8235905067ffffffffffffffff81111561052b5761052a61015b565b5b6020830191508360208202830111156105475761054661015f565b5b9250929050565b5f80fd5b5f606082840312156105675761056661054e565b5b81905092915050565b5f805f805f608086880312156105895761058861014f565b5b5f610596888289016104bb565b95505060206105a7888289016104e5565b945050604086013567ffffffffffffffff8111156105c8576105c7610153565b5b6105d4888289016104f9565b9350935050606086013567ffffffffffffffff8111156105f7576105f6610153565b5b61060388828901610552565b9150509295509295909350565b5f81519050919050565b5f82825260208201905092915050565b5f61063482610610565b61063e818561061a565b935061064e81856020860161032b565b61065781610353565b840191505092915050565b5f6020820190508181035f83015261067a818461062a565b905092915050565b5f61068c8261021b565b9050919050565b61069c81610682565b81146106a6575f80fd5b50565b5f813590506106b781610693565b92915050565b7f4e487b71000000000000000000000000000000000000000000000000000000005f52604160045260245ffd5b6106f382610353565b810181811067ffffffffffffffff82111715610712576107116106bd565b5b80604052505050565b5f610724610146565b905061073082826106ea565b919050565b5f67ffffffffffffffff82111561074f5761074e6106bd565b5b602082029050602081019050919050565b5f61077261076d84610735565b61071b565b905080838252602082019050602084028301858111156107955761079461015f565b5b835b818110156107be57806107aa88826104bb565b845260208401935050602081019050610797565b5050509392505050565b5f82601f8301126107dc576107db610157565b5b81356107ec848260208601610760565b91505092915050565b5f80fd5b5f80fd5b5f80fd5b5f67ffffffffffffffff82111561081b5761081a6106bd565b5b61082482610353565b9050602081019050919050565b828183375f83830152505050565b5f61085161084c84610801565b61071b565b90508281526020810184848401111561086d5761086c6107fd565b5b610878848285610831565b509392505050565b5f82601f83011261089457610893610157565b5b81356108a484826020860161083f565b91505092915050565b5f67ffffffffffffffff8211156108c7576108c66106bd565b5b602082029050919050565b5f6108e46108df846108ad565b61071b565b905080602084028301858111156108fe576108fd61015f565b5b835b81811015610927578061091388826104bb565b845260208401935050602081019050610900565b5050509392505050565b5f82601f83011261094557610944610157565b5b60026109528482856108d2565b91505092915050565b5f606082840312156109705761096f6107f5565b5b61097a604061071b565b90505f82013567ffffffffffffffff811115610999576109986107f9565b5b6109a584828501610880565b5f8301525060206109b884828501610931565b60208301525092915050565b5f805f80608085870312156109dc576109db61014f565b5b5f6109e9878288016104bb565b94505060206109fa878288016106a9565b935050604085013567ffffffffffffffff811115610a1b57610a1a610153565b5b610a27878288016107c8565b925050606085013567ffffffffffffffff811115610a4857610a47610153565b5b610a548782880161095b565b91505092959194509250565b5f80fd5b82818337505050565b5f610a788385610264565b93507f07ffffffffffffffffffffffffffffffffffffffffffffffffffffffffffffff831115610aab57610aaa610a60565b5b602083029250610abc838584610a64565b82840190509392505050565b5f80fd5b5f80fd5b5f80fd5b5f8083356001602003843603038112610af057610aef610ad0565b5b83810192508235915060208301925067ffffffffffffffff821115610b1857610b17610ac8565b5b600182023603831315610b2e57610b2d610acc565b5b509250929050565b5f610b41838561031b565b9350610b4e838584610831565b610b5783610353565b840190509392505050565b5f82905092915050565b610b7860408383610a64565b5050565b5f60608301610b8d5f840184610ad4565b8583035f870152610b9f838284610b36565b92505050610bb06020840184610b62565b610bbd6020860182610b6c565b508091505092915050565b5f608082019050610bdb5f83018861020c565b610be8602083018761024b565b8181036040830152610bfb818587610a6d565b90508181036060830152610c0f8184610b7c565b9050969550505050505056fea264697066735822122006568a85a02c1b465b63bb265de3e345b625e3c687390de58eb4b22a3007ee0f64736f6c63430008170033",
					"opcodes": "PUSH1 0x80 PUSH1 0x40 MSTORE CALLVALUE DUP1 ISZERO PUSH2 0xF JUMPI PUSH0 DUP1 REVERT JUMPDEST POP PUSH2 0xC51 DUP1 PUSH2 0x1D PUSH0 CODECOPY PUSH0 RETURN INVALID PUSH1 0x80 PUSH1 0x40 MSTORE CALLVALUE DUP1 ISZERO PUSH2 0xF JUMPI PUSH0 DUP1 REVERT JUMPDEST POP PUSH1 0x4 CALLDATASIZE LT PUSH2 0x34 JUMPI PUSH0 CALLDATALOAD PUSH1 0xE0 SHR DUP1 PUSH4 0xD097AF29 EQ PUSH2 0x38 JUMPI DUP1 PUSH4 0xDB3335FC EQ PUSH2 0x6B JUMPI JUMPDEST PUSH0 DUP1 REVERT JUMPDEST PUSH2 0x52 PUSH1 0x4 DUP1 CALLDATASIZE SUB DUP2 ADD SWAP1 PUSH2 0x4D SWAP2 SWAP1 PUSH2 0x1B8 JUMP JUMPDEST PUSH2 0x9B JUMP JUMPDEST PUSH1 0x40 MLOAD PUSH2 0x62 SWAP5 SWAP4 SWAP3 SWAP2 SWAP1 PUSH2 0x454 JUMP JUMPDEST PUSH1 0x40 MLOAD DUP1 SWAP2 SUB SWAP1 RETURN JUMPDEST PUSH2 0x85 PUSH1 0x4 DUP1 CALLDATASIZE SUB DUP2 ADD SWAP1 PUSH2 0x80 SWAP2 SWAP1 PUSH2 0x570 JUMP JUMPDEST PUSH2 0xCF JUMP JUMPDEST PUSH1 0x40 MLOAD PUSH2 0x92 SWAP2 SWAP1 PUSH2 0x662 JUMP JUMPDEST PUSH1 0x40 MLOAD DUP1 SWAP2 SUB SWAP1 RETURN JUMPDEST PUSH0 DUP1 PUSH1 0x60 PUSH2 0xA7 PUSH2 0x104 JUMP JUMPDEST DUP6 DUP6 DUP2 ADD SWAP1 PUSH2 0xB6 SWAP2 SWAP1 PUSH2 0x9C4 JUMP JUMPDEST DUP1 SWAP5 POP DUP2 SWAP6 POP DUP3 SWAP7 POP DUP4 SWAP8 POP POP POP POP POP SWAP3 SWAP6 SWAP2 SWAP5 POP SWAP3 POP JUMP JUMPDEST PUSH1 0x60 DUP6 DUP6 DUP6 DUP6 DUP6 PUSH1 0x40 MLOAD PUSH1 0x20 ADD PUSH2 0xEA SWAP6 SWAP5 SWAP4 SWAP3 SWAP2 SWAP1 PUSH2 0xBC8 JUMP JUMPDEST PUSH1 0x40 MLOAD PUSH1 0x20 DUP2 DUP4 SUB SUB DUP2 MSTORE SWAP1 PUSH1 0x40 MSTORE SWAP1 POP SWAP6 SWAP5 POP POP POP POP POP JUMP JUMPDEST PUSH1 0x40 MLOAD DUP1 PUSH1 0x40 ADD PUSH1 0x40 MSTORE DUP1 PUSH1 0x60 DUP2 MSTORE PUSH1 0x20 ADD PUSH2 0x11E PUSH2 0x124 JUMP JUMPDEST DUP2 MSTORE POP SWAP1 JUMP JUMPDEST PUSH1 0x40 MLOAD DUP1 PUSH1 0x40 ADD PUSH1 0x40 MSTORE DUP1 PUSH1 0x2 SWAP1 PUSH1 0x20 DUP3 MUL DUP1 CALLDATASIZE DUP4 CALLDATACOPY DUP1 DUP3 ADD SWAP2 POP POP SWAP1 POP POP SWAP1 JUMP JUMPDEST PUSH0 PUSH1 0x40 MLOAD SWAP1 POP SWAP1 JUMP JUMPDEST PUSH0 DUP1 REVERT JUMPDEST PUSH0 DUP1 REVERT JUMPDEST PUSH0 DUP1 REVERT JUMPDEST PUSH0 DUP1 REVERT JUMPDEST PUSH0 DUP1 REVERT JUMPDEST PUSH0 DUP1 DUP4 PUSH1 0x1F DUP5 ADD SLT PUSH2 0x178 JUMPI PUSH2 0x177 PUSH2 0x157 JUMP JUMPDEST JUMPDEST DUP3 CALLDATALOAD SWAP1 POP PUSH8 0xFFFFFFFFFFFFFFFF DUP2 GT ISZERO PUSH2 0x195 JUMPI PUSH2 0x194 PUSH2 0x15B JUMP JUMPDEST JUMPDEST PUSH1 0x20 DUP4 ADD SWAP2 POP DUP4 PUSH1 0x1 DUP3 MUL DUP4 ADD GT ISZERO PUSH2 0x1B1 JUMPI PUSH2 0x1B0 PUSH2 0x15F JUMP JUMPDEST JUMPDEST SWAP3 POP SWAP3 SWAP1 POP JUMP JUMPDEST PUSH0 DUP1 PUSH1 0x20 DUP4 DUP6 SUB SLT ISZERO PUSH2 0x1CE JUMPI PUSH2 0x1CD PUSH2 0x14F JUMP JUMPDEST JUMPDEST PUSH0 DUP4 ADD CALLDATALOAD PUSH8 0xFFFFFFFFFFFFFFFF DUP2 GT ISZERO PUSH2 0x1EB JUMPI PUSH2 0x1EA PUSH2 0x153 JUMP JUMPDEST JUMPDEST PUSH2 0x1F7 DUP6 DUP3 DUP7 ADD PUSH2 0x163 JUMP JUMPDEST SWAP3 POP SWAP3 POP POP SWAP3 POP SWAP3 SWAP1 POP JUMP JUMPDEST PUSH0 DUP2 SWAP1 POP SWAP2 SWAP1 POP JUMP JUMPDEST PUSH2 0x215 DUP2 PUSH2 0x203 JUMP JUMPDEST DUP3 MSTORE POP POP JUMP JUMPDEST PUSH0 PUSH20 0xFFFFFFFFFFFFFFFFFFFFFFFFFFFFFFFFFFFFFFFF DUP3 AND SWAP1 POP SWAP2 SWAP1 POP JUMP JUMPDEST PUSH0 PUSH2 0x244 DUP3 PUSH2 0x21B JUMP JUMPDEST SWAP1 POP SWAP2 SWAP1 POP JUMP JUMPDEST PUSH2 0x254 DUP2 PUSH2 0x23A JUMP JUMPDEST DUP3 MSTORE POP POP JUMP JUMPDEST PUSH0 DUP2 MLOAD SWAP1 POP SWAP2 SWAP1 POP JUMP JUMPDEST PUSH0 DUP3 DUP3 MSTORE PUSH1 0x20 DUP3 ADD SWAP1 POP SWAP3 SWAP2 POP POP JUMP JUMPDEST PUSH0 DUP2 SWAP1 POP PUSH1 0x20 DUP3 ADD SWAP1 POP SWAP2 SWAP1 POP JUMP JUMPDEST PUSH2 0x28C DUP2 PUSH2 0x203 JUMP JUMPDEST DUP3 MSTORE POP POP JUMP JUMPDEST PUSH0 PUSH2 0x29D DUP4 DUP4 PUSH2 0x283 JUMP JUMPDEST PUSH1 0x20 DUP4 ADD SWAP1 POP SWAP3 SWAP2 POP POP JUMP JUMPDEST PUSH0 PUSH1 0x20 DUP3 ADD SWAP1 POP SWAP2 SWAP1 POP JUMP JUMPDEST PUSH0 PUSH2 0x2BF DUP3 PUSH2 0x25A JUMP JUMPDEST PUSH2 0x2C9 DUP2 DUP6 PUSH2 0x264 JUMP JUMPDEST SWAP4 POP PUSH2 0x2D4 DUP4 PUSH2 0x274 JUMP JUMPDEST DUP1 PUSH0 JUMPDEST DUP4 DUP2 LT ISZERO PUSH2 0x304 JUMPI DUP2 MLOAD PUSH2 0x2EB DUP9 DUP3 PUSH2 0x292 JUMP JUMPDEST SWAP8 POP PUSH2 0x2F6 DUP4 PUSH2 0x2A9 JUMP JUMPDEST SWAP3 POP POP PUSH1 0x1 DUP2 ADD SWAP1 POP PUSH2 0x2D7 JUMP JUMPDEST POP DUP6 SWAP4 POP POP POP POP SWAP3 SWAP2 POP POP JUMP JUMPDEST PUSH0 DUP2 MLOAD SWAP1 POP SWAP2 SWAP1 POP JUMP JUMPDEST PUSH0 DUP3 DUP3 MSTORE PUSH1 0x20 DUP3 ADD SWAP1 POP SWAP3 SWAP2 POP POP JUMP JUMPDEST PUSH0 JUMPDEST DUP4 DUP2 LT ISZERO PUSH2 0x348 JUMPI DUP1 DUP3 ADD MLOAD DUP2 DUP5 ADD MSTORE PUSH1 0x20 DUP2 ADD SWAP1 POP PUSH2 0x32D JUMP JUMPDEST PUSH0 DUP5 DUP5 ADD MSTORE POP POP POP POP JUMP JUMPDEST PUSH0 PUSH1 0x1F NOT PUSH1 0x1F DUP4 ADD AND SWAP1 POP SWAP2 SWAP1 POP JUMP JUMPDEST PUSH0 PUSH2 0x36D DUP3 PUSH2 0x311 JUMP JUMPDEST PUSH2 0x377 DUP2 DUP6 PUSH2 0x31B JUMP JUMPDEST SWAP4 POP PUSH2 0x387 DUP2 DUP6 PUSH1 0x20 DUP7 ADD PUSH2 0x32B JUMP JUMPDEST PUSH2 0x390 DUP2 PUSH2 0x353 JUMP JUMPDEST DUP5 ADD SWAP2 POP POP SWAP3 SWAP2 POP POP JUMP JUMPDEST PUSH0 PUSH1 0x2 SWAP1 POP SWAP2 SWAP1 POP JUMP JUMPDEST PUSH0 DUP2 SWAP1 POP SWAP3 SWAP2 POP POP JUMP JUMPDEST PUSH0 DUP2 SWAP1 POP SWAP2 SWAP1 POP JUMP JUMPDEST PUSH0 PUSH1 0x20 DUP3 ADD SWAP1 POP SWAP2 SWAP1 POP JUMP JUMPDEST PUSH2 0x3CD DUP2 PUSH2 0x39B JUMP JUMPDEST PUSH2 0x3D7 DUP2 DUP5 PUSH2 0x3A5 JUMP JUMPDEST SWAP3 POP PUSH2 0x3E2 DUP3 PUSH2 0x3AF JUMP JUMPDEST DUP1 PUSH0 JUMPDEST DUP4 DUP2 LT ISZERO PUSH2 0x412 JUMPI DUP2 MLOAD PUSH2 0x3F9 DUP8 DUP3 PUSH2 0x292 JUMP JUMPDEST SWAP7 POP PUSH2 0x404 DUP4 PUSH2 0x3B8 JUMP JUMPDEST SWAP3 POP POP PUSH1 0x1 DUP2 ADD SWAP1 POP PUSH2 0x3E5 JUMP JUMPDEST POP POP POP POP POP POP JUMP JUMPDEST PUSH0 PUSH1 0x60 DUP4 ADD PUSH0 DUP4 ADD MLOAD DUP5 DUP3 SUB PUSH0 DUP7 ADD MSTORE PUSH2 0x434 DUP3 DUP3 PUSH2 0x363 JUMP JUMPDEST SWAP2 POP POP PUSH1 0x20 DUP4 ADD MLOAD PUSH2 0x449 PUSH1 0x20 DUP7 ADD DUP3 PUSH2 0x3C4 JUMP JUMPDEST POP DUP1 SWAP2 POP POP SWAP3 SWAP2 POP POP JUMP JUMPDEST PUSH0 PUSH1 0x80 DUP3 ADD SWAP1 POP PUSH2 0x467 PUSH0 DUP4 ADD DUP8 PUSH2 0x20C JUMP JUMPDEST PUSH2 0x474 PUSH1 0x20 DUP4 ADD DUP7 PUSH2 0x24B JUMP JUMPDEST DUP2 DUP2 SUB PUSH1 0x40 DUP4 ADD MSTORE PUSH2 0x486 DUP2 DUP6 PUSH2 0x2B5 JUMP JUMPDEST SWAP1 POP DUP2 DUP2 SUB PUSH1 0x60 DUP4 ADD MSTORE PUSH2 0x49A DUP2 DUP5 PUSH2 0x41A JUMP JUMPDEST SWAP1 POP SWAP6 SWAP5 POP POP POP POP POP JUMP JUMPDEST PUSH2 0x4AE DUP2 PUSH2 0x203 JUMP JUMPDEST DUP2 EQ PUSH2 0x4B8 JUMPI PUSH0 DUP1 REVERT JUMPDEST POP JUMP JUMPDEST PUSH0 DUP2 CALLDATALOAD SWAP1 POP PUSH2 0x4C9 DUP2 PUSH2 0x4A5 JUMP JUMPDEST SWAP3 SWAP2 POP POP JUMP JUMPDEST PUSH2 0x4D8 DUP2 PUSH2 0x23A JUMP JUMPDEST DUP2 EQ PUSH2 0x4E2 JUMPI PUSH0 DUP1 REVERT JUMPDEST POP JUMP JUMPDEST PUSH0 DUP2 CALLDATALOAD SWAP1 POP PUSH2 0x4F3 DUP2 PUSH2 0x4CF JUMP JUMPDEST SWAP3 SWAP2 POP POP JUMP JUMPDEST PUSH0 DUP1 DUP4 PUSH1 0x1F DUP5 ADD SLT PUSH2 0x50E JUMPI PUSH2 0x50D PUSH2 0x157 JUMP JUMPDEST JUMPDEST DUP3 CALLDATALOAD SWAP1 POP PUSH8 0xFFFFFFFFFFFFFFFF DUP2 GT ISZERO PUSH2 0x52B JUMPI PUSH2 0x52A PUSH2 0x15B JUMP JUMPDEST JUMPDEST PUSH1 0x20 DUP4 ADD SWAP2 POP DUP4 PUSH1 0x20 DUP3 MUL DUP4 ADD GT ISZERO PUSH2 0x547 JUMPI PUSH2 0x546 PUSH2 0x15F JUMP JUMPDEST JUMPDEST SWAP3 POP SWAP3 SWAP1 POP JUMP JUMPDEST PUSH0 DUP1 REVERT JUMPDEST PUSH0 PUSH1 0x60 DUP3 DUP5 SUB SLT ISZERO PUSH2 0x567 JUMPI PUSH2 0x566 PUSH2 0x54E JUMP JUMPDEST JUMPDEST DUP2 SWAP1 POP SWAP3 SWAP2 POP POP JUMP JUMPDEST PUSH0 DUP1 PUSH0 DUP1 PUSH0 PUSH1 0x80 DUP7 DUP9 SUB SLT ISZERO PUSH2 0x589 JUMPI PUSH2 0x588 PUSH2 0x14F JUMP JUMPDEST JUMPDEST PUSH0 PUSH2 0x596 DUP9 DUP3 DUP10 ADD PUSH2 0x4BB JUMP JUMPDEST SWAP6 POP POP PUSH1 0x20 PUSH2 0x5A7 DUP9 DUP3 DUP10 ADD PUSH2 0x4E5 JUMP JUMPDEST SWAP5 POP POP PUSH1 0x40 DUP7 ADD CALLDATALOAD PUSH8 0xFFFFFFFFFFFFFFFF DUP2 GT ISZERO PUSH2 0x5C8 JUMPI PUSH2 0x5C7 PUSH2 0x153 JUMP JUMPDEST JUMPDEST PUSH2 0x5D4 DUP9 DUP3 DUP10 ADD PUSH2 0x4F9 JUMP JUMPDEST SWAP4 POP SWAP4 POP POP PUSH1 0x60 DUP7 ADD CALLDATALOAD PUSH8 0xFFFFFFFFFFFFFFFF DUP2 GT ISZERO PUSH2 0x5F7 JUMPI PUSH2 0x5F6 PUSH2 0x153 JUMP JUMPDEST JUMPDEST PUSH2 0x603 DUP9 DUP3 DUP10 ADD PUSH2 0x552 JUMP JUMPDEST SWAP2 POP POP SWAP3 SWAP6 POP SWAP3 SWAP6 SWAP1 SWAP4 POP JUMP JUMPDEST PUSH0 DUP2 MLOAD SWAP1 POP SWAP2 SWAP1 POP JUMP JUMPDEST PUSH0 DUP3 DUP3 MSTORE PUSH1 0x20 DUP3 ADD SWAP1 POP SWAP3 SWAP2 POP POP JUMP JUMPDEST PUSH0 PUSH2 0x634 DUP3 PUSH2 0x610 JUMP JUMPDEST PUSH2 0x63E DUP2 DUP6 PUSH2 0x61A JUMP JUMPDEST SWAP4 POP PUSH2 0x64E DUP2 DUP6 PUSH1 0x20 DUP7 ADD PUSH2 0x32B JUMP JUMPDEST PUSH2 0x657 DUP2 PUSH2 0x353 JUMP JUMPDEST DUP5 ADD SWAP2 POP POP SWAP3 SWAP2 POP POP JUMP JUMPDEST PUSH0 PUSH1 0x20 DUP3 ADD SWAP1 POP DUP2 DUP2 SUB PUSH0 DUP4 ADD MSTORE PUSH2 0x67A DUP2 DUP5 PUSH2 0x62A JUMP JUMPDEST SWAP1 POP SWAP3 SWAP2 POP POP JUMP JUMPDEST PUSH0 PUSH2 0x68C DUP3 PUSH2 0x21B JUMP JUMPDEST SWAP1 POP SWAP2 SWAP1 POP JUMP JUMPDEST PUSH2 0x69C DUP2 PUSH2 0x682 JUMP JUMPDEST DUP2 EQ PUSH2 0x6A6 JUMPI PUSH0 DUP1 REVERT JUMPDEST POP JUMP JUMPDEST PUSH0 DUP2 CALLDATALOAD SWAP1 POP PUSH2 0x6B7 DUP2 PUSH2 0x693 JUMP JUMPDEST SWAP3 SWAP2 POP POP JUMP JUMPDEST PUSH32 0x4E487B7100000000000000000000000000000000000000000000000000000000 PUSH0 MSTORE PUSH1 0x41 PUSH1 0x4 MSTORE PUSH1 0x24 PUSH0 REVERT JUMPDEST PUSH2 0x6F3 DUP3 PUSH2 0x353 JUMP JUMPDEST DUP2 ADD DUP2 DUP2 LT PUSH8 0xFFFFFFFFFFFFFFFF DUP3 GT OR ISZERO PUSH2 0x712 JUMPI PUSH2 0x711 PUSH2 0x6BD JUMP JUMPDEST JUMPDEST DUP1 PUSH1 0x40 MSTORE POP POP POP JUMP JUMPDEST PUSH0 PUSH2 0x724 PUSH2 0x146 JUMP JUMPDEST SWAP1 POP PUSH2 0x730 DUP3 DUP3 PUSH2 0x6EA JUMP JUMPDEST SWAP2 SWAP1 POP JUMP JUMPDEST PUSH0 PUSH8 0xFFFFFFFFFFFFFFFF DUP3 GT ISZERO PUSH2 0x74F JUMPI PUSH2 0x74E PUSH2 0x6BD JUMP JUMPDEST JUMPDEST PUSH1 0x20 DUP3 MUL SWAP1 POP PUSH1 0x20 DUP2 ADD SWAP1 POP SWAP2 SWAP1 POP JUMP JUMPDEST PUSH0 PUSH2 0x772 PUSH2 0x76D DUP5 PUSH2 0x735 JUMP JUMPDEST PUSH2 0x71B JUMP JUMPDEST SWAP1 POP DUP1 DUP4 DUP3 MSTORE PUSH1 0x20 DUP3 ADD SWAP1 POP PUSH1 0x20 DUP5 MUL DUP4 ADD DUP6 DUP2 GT ISZERO PUSH2 0x795 JUMPI PUSH2 0x794 PUSH2 0x15F JUMP JUMPDEST JUMPDEST DUP4 JUMPDEST DUP2 DUP2 LT ISZERO PUSH2 0x7BE JUMPI DUP1 PUSH2 0x7AA DUP9 DUP3 PUSH2 0x4BB JUMP JUMPDEST DUP5 MSTORE PUSH1 0x20 DUP5 ADD SWAP4 POP POP PUSH1 0x20 DUP2 ADD SWAP1 POP PUSH2 0x797 JUMP JUMPDEST POP POP POP SWAP4 SWAP3 POP POP POP JUMP JUMPDEST PUSH0 DUP3 PUSH1 0x1F DUP4 ADD SLT PUSH2 0x7DC JUMPI PUSH2 0x7DB PUSH2 0x157 JUMP JUMPDEST JUMPDEST DUP2 CALLDATALOAD PUSH2 0x7EC DUP5 DUP3 PUSH1 0x20 DUP7 ADD PUSH2 0x760 JUMP JUMPDEST SWAP2 POP POP SWAP3 SWAP2 POP POP JUMP JUMPDEST PUSH0 DUP1 REVERT JUMPDEST PUSH0 DUP1 REVERT JUMPDEST PUSH0 DUP1 REVERT JUMPDEST PUSH0 PUSH8 0xFFFFFFFFFFFFFFFF DUP3 GT ISZERO PUSH2 0x81B JUMPI PUSH2 0x81A PUSH2 0x6BD JUMP JUMPDEST JUMPDEST PUSH2 0x824 DUP3 PUSH2 0x353 JUMP JUMPDEST SWAP1 POP PUSH1 0x20 DUP2 ADD SWAP1 POP SWAP2 SWAP1 POP JUMP JUMPDEST DUP3 DUP2 DUP4 CALLDATACOPY PUSH0 DUP4 DUP4 ADD MSTORE POP POP POP JUMP JUMPDEST PUSH0 PUSH2 0x851 PUSH2 0x84C DUP5 PUSH2 0x801 JUMP JUMPDEST PUSH2 0x71B JUMP JUMPDEST SWAP1 POP DUP3 DUP2 MSTORE PUSH1 0x20 DUP2 ADD DUP5 DUP5 DUP5 ADD GT ISZERO PUSH2 0x86D JUMPI PUSH2 0x86C PUSH2 0x7FD JUMP JUMPDEST JUMPDEST PUSH2 0x878 DUP5 DUP3 DUP6 PUSH2 0x831 JUMP JUMPDEST POP SWAP4 SWAP3 POP POP POP JUMP JUMPDEST PUSH0 DUP3 PUSH1 0x1F DUP4 ADD SLT PUSH2 0x894 JUMPI PUSH2 0x893 PUSH2 0x157 JUMP JUMPDEST JUMPDEST DUP2 CALLDATALOAD PUSH2 0x8A4 DUP5 DUP3 PUSH1 0x20 DUP7 ADD PUSH2 0x83F JUMP JUMPDEST SWAP2 POP POP SWAP3 SWAP2 POP POP JUMP JUMPDEST PUSH0 PUSH8 0xFFFFFFFFFFFFFFFF DUP3 GT ISZERO PUSH2 0x8C7 JUMPI PUSH2 0x8C6 PUSH2 0x6BD JUMP JUMPDEST JUMPDEST PUSH1 0x20 DUP3 MUL SWAP1 POP SWAP2 SWAP1 POP JUMP JUMPDEST PUSH0 PUSH2 0x8E4 PUSH2 0x8DF DUP5 PUSH2 0x8AD JUMP JUMPDEST PUSH2 0x71B JUMP JUMPDEST SWAP1 POP DUP1 PUSH1 0x20 DUP5 MUL DUP4 ADD DUP6 DUP2 GT ISZERO PUSH2 0x8FE JUMPI PUSH2 0x8FD PUSH2 0x15F JUMP JUMPDEST JUMPDEST DUP4 JUMPDEST DUP2 DUP2 LT ISZERO PUSH2 0x927 JUMPI DUP1 PUSH2 0x913 DUP9 DUP3 PUSH2 0x4BB JUMP JUMPDEST DUP5 MSTORE PUSH1 0x20 DUP5 ADD SWAP4 POP POP PUSH1 0x20 DUP2 ADD SWAP1 POP PUSH2 0x900 JUMP JUMPDEST POP POP POP SWAP4 SWAP3 POP POP POP JUMP JUMPDEST PUSH0 DUP3 PUSH1 0x1F DUP4 ADD SLT PUSH2 0x945 JUMPI PUSH2 0x944 PUSH2 0x157 JUMP JUMPDEST JUMPDEST PUSH1 0x2 PUSH2 0x952 DUP5 DUP3 DUP6 PUSH2 0x8D2 JUMP JUMPDEST SWAP2 POP POP SWAP3 SWAP2 POP POP JUMP JUMPDEST PUSH0 PUSH1 0x60 DUP3 DUP5 SUB SLT ISZERO PUSH2 0x970 JUMPI PUSH2 0x96F PUSH2 0x7F5 JUMP JUMPDEST JUMPDEST PUSH2 0x97A PUSH1 0x40 PUSH2 0x71B JUMP JUMPDEST SWAP1 POP PUSH0 DUP3 ADD CALLDATALOAD PUSH8 0xFFFFFFFFFFFFFFFF DUP2 GT ISZERO PUSH2 0x999 JUMPI PUSH2 0x998 PUSH2 0x7F9 JUMP JUMPDEST JUMPDEST PUSH2 0x9A5 DUP5 DUP3 DUP6 ADD PUSH2 0x880 JUMP JUMPDEST PUSH0 DUP4 ADD MSTORE POP PUSH1 0x20 PUSH2 0x9B8 DUP5 DUP3 DUP6 ADD PUSH2 0x931 JUMP JUMPDEST PUSH1 0x20 DUP4 ADD MSTORE POP SWAP3 SWAP2 POP POP JUMP JUMPDEST PUSH0 DUP1 PUSH0 DUP1 PUSH1 0x80 DUP6 DUP8 SUB SLT ISZERO PUSH2 0x9DC JUMPI PUSH2 0x9DB PUSH2 0x14F JUMP JUMPDEST JUMPDEST PUSH0 PUSH2 0x9E9 DUP8 DUP3 DUP9 ADD PUSH2 0x4BB JUMP JUMPDEST SWAP5 POP POP PUSH1 0x20 PUSH2 0x9FA DUP8 DUP3 DUP9 ADD PUSH2 0x6A9 JUMP JUMPDEST SWAP4 POP POP PUSH1 0x40 DUP6 ADD CALLDATALOAD PUSH8 0xFFFFFFFFFFFFFFFF DUP2 GT ISZERO PUSH2 0xA1B JUMPI PUSH2 0xA1A PUSH2 0x153 JUMP JUMPDEST JUMPDEST PUSH2 0xA27 DUP8 DUP3 DUP9 ADD PUSH2 0x7C8 JUMP JUMPDEST SWAP3 POP POP PUSH1 0x60 DUP6 ADD CALLDATALOAD PUSH8 0xFFFFFFFFFFFFFFFF DUP2 GT ISZERO PUSH2 0xA48 JUMPI PUSH2 0xA47 PUSH2 0x153 JUMP JUMPDEST JUMPDEST PUSH2 0xA54 DUP8 DUP3 DUP9 ADD PUSH2 0x95B JUMP JUMPDEST SWAP2 POP POP SWAP3 SWAP6 SWAP2 SWAP5 POP SWAP3 POP JUMP JUMPDEST PUSH0 DUP1 REVERT JUMPDEST DUP3 DUP2 DUP4 CALLDATACOPY POP POP POP JUMP JUMPDEST PUSH0 PUSH2 0xA78 DUP4 DUP6 PUSH2 0x264 JUMP JUMPDEST SWAP4 POP PUSH32 0x7FFFFFFFFFFFFFFFFFFFFFFFFFFFFFFFFFFFFFFFFFFFFFFFFFFFFFFFFFFFFFF DUP4 GT ISZERO PUSH2 0xAAB JUMPI PUSH2 0xAAA PUSH2 0xA60 JUMP JUMPDEST JUMPDEST PUSH1 0x20 DUP4 MUL SWAP3 POP PUSH2 0xABC DUP4 DUP6 DUP5 PUSH2 0xA64 JUMP JUMPDEST DUP3 DUP5 ADD SWAP1 POP SWAP4 SWAP3 POP POP POP JUMP JUMPDEST PUSH0 DUP1 REVERT JUMPDEST PUSH0 DUP1 REVERT JUMPDEST PUSH0 DUP1 REVERT JUMPDEST PUSH0 DUP1 DUP4 CALLDATALOAD PUSH1 0x1 PUSH1 0x20 SUB DUP5 CALLDATASIZE SUB SUB DUP2 SLT PUSH2 0xAF0 JUMPI PUSH2 0xAEF PUSH2 0xAD0 JUMP JUMPDEST JUMPDEST DUP4 DUP2 ADD SWAP3 POP DUP3 CALLDATALOAD SWAP2 POP PUSH1 0x20 DUP4 ADD SWAP3 POP PUSH8 0xFFFFFFFFFFFFFFFF DUP3 GT ISZERO PUSH2 0xB18 JUMPI PUSH2 0xB17 PUSH2 0xAC8 JUMP JUMPDEST JUMPDEST PUSH1 0x1 DUP3 MUL CALLDATASIZE SUB DUP4 SGT ISZERO PUSH2 0xB2E JUMPI PUSH2 0xB2D PUSH2 0xACC JUMP JUMPDEST JUMPDEST POP SWAP3 POP SWAP3 SWAP1 POP JUMP JUMPDEST PUSH0 PUSH2 0xB41 DUP4 DUP6 PUSH2 0x31B JUMP JUMPDEST SWAP4 POP PUSH2 0xB4E DUP4 DUP6 DUP5 PUSH2 0x831 JUMP JUMPDEST PUSH2 0xB57 DUP4 PUSH2 0x353 JUMP JUMPDEST DUP5 ADD SWAP1 POP SWAP4 SWAP3 POP POP POP JUMP JUMPDEST PUSH0 DUP3 SWAP1 POP SWAP3 SWAP2 POP POP JUMP JUMPDEST PUSH2 0xB78 PUSH1 0x40 DUP4 DUP4 PUSH2 0xA64 JUMP JUMPDEST POP POP JUMP JUMPDEST PUSH0 PUSH1 0x60 DUP4 ADD PUSH2 0xB8D PUSH0 DUP5 ADD DUP5 PUSH2 0xAD4 JUMP JUMPDEST DUP6 DUP4 SUB PUSH0 DUP8 ADD MSTORE PUSH2 0xB9F DUP4 DUP3 DUP5 PUSH2 0xB36 JUMP JUMPDEST SWAP3 POP POP POP PUSH2 0xBB0 PUSH1 0x20 DUP5 ADD DUP5 PUSH2 0xB62 JUMP JUMPDEST PUSH2 0xBBD PUSH1 0x20 DUP7 ADD DUP3 PUSH2 0xB6C JUMP JUMPDEST POP DUP1 SWAP2 POP POP SWAP3 SWAP2 POP POP JUMP JUMPDEST PUSH0 PUSH1 0x80 DUP3 ADD SWAP1 POP PUSH2 0xBDB PUSH0 DUP4 ADD DUP9 PUSH2 0x20C JUMP JUMPDEST PUSH2 0xBE8 PUSH1 0x20 DUP4 ADD DUP8 PUSH2 0x24B JUMP JUMPDEST DUP2 DUP2 SUB PUSH1 0x40 DUP4 ADD MSTORE PUSH2 0xBFB DUP2 DUP6 DUP8 PUSH2 0xA6D JUMP JUMPDEST SWAP1 POP DUP2 DUP2 SUB PUSH1 0x60 DUP4 ADD MSTORE PUSH2 0xC0F DUP2 DUP5 PUSH2 0xB7C JUMP JUMPDEST SWAP1 POP SWAP7 SWAP6 POP POP POP POP POP POP JUMP INVALID LOG2 PUSH5 0x6970667358 0x22 SLT KECCAK256 MOD JUMP DUP11 DUP6 LOG0 0x2C SHL CHAINID JUMPDEST PUSH4 0xBB265DE3 0xE3 GASLIMIT 0xB6 0x25 0xE3 0xC6 DUP8 CODECOPY 0xD 0xE5 DUP15 0xB4 0xB2 0x2A ADDRESS SMOD 0xEE 0xF PUSH5 0x736F6C6343 STOP ADDMOD OR STOP CALLER "
				},
				"gasEstimates": {
					"creation": {
						"codeDepositCost": "630600",
						"executionCost": "662",
						"totalCost": "631262"
					},
					"external": {
						"deCode(bytes)": "infinite",
						"encodeDate(uint256,address,uint256[],(string,uint256[2]))": "infinite"
					}
				},
				"methodIdentifiers": {
					"deCode(bytes)": "d097af29",
					"encodeDate(uint256,address,uint256[],(string,uint256[2]))": "db3335fc"
				}
			},
			"storageLayout": {
				"storage": [],
				"types": null
			},
			"userdoc": {
				"kind": "user",
				"methods": {},
				"version": 1
			}
		}
	}
}