{
	"contracts/RealEstate.sol": {
		"RealEstate": {
			"abi": [
				{
					"anonymous": false,
					"inputs": [
						{
							"indexed": false,
							"internalType": "uint256",
							"name": "propertyId",
							"type": "uint256"
						}
					],
					"name": "PropertySold",
					"type": "event"
				},
				{
					"inputs": [
						{
							"internalType": "uint256",
							"name": "",
							"type": "uint256"
						}
					],
					"name": "Properties",
					"outputs": [
						{
							"internalType": "uint256",
							"name": "price",
							"type": "uint256"
						},
						{
							"internalType": "bool",
							"name": "Onsale",
							"type": "bool"
						},
						{
							"internalType": "bool",
							"name": "isResidential",
							"type": "bool"
						},
						{
							"internalType": "string",
							"name": "name",
							"type": "string"
						},
						{
							"internalType": "address",
							"name": "owner",
							"type": "address"
						},
						{
							"internalType": "string",
							"name": "description",
							"type": "string"
						},
						{
							"internalType": "string",
							"name": "location",
							"type": "string"
						}
					],
					"stateMutability": "view",
					"type": "function"
				},
				{
					"inputs": [
						{
							"internalType": "uint256",
							"name": "_propertyId",
							"type": "uint256"
						}
					],
					"name": "buyProperty",
					"outputs": [],
					"stateMutability": "payable",
					"type": "function"
				},
				{
					"inputs": [],
					"name": "getPropertylistIDs",
					"outputs": [
						{
							"internalType": "uint256[]",
							"name": "_residential",
							"type": "uint256[]"
						},
						{
							"internalType": "uint256[]",
							"name": "_commercial",
							"type": "uint256[]"
						}
					],
					"stateMutability": "view",
					"type": "function"
				},
				{
					"inputs": [
						{
							"internalType": "uint256",
							"name": "_propertyId",
							"type": "uint256"
						},
						{
							"internalType": "uint256",
							"name": "_price",
							"type": "uint256"
						},
						{
							"internalType": "string",
							"name": "_name",
							"type": "string"
						},
						{
							"internalType": "string",
							"name": "_description",
							"type": "string"
						},
						{
							"internalType": "string",
							"name": "_location",
							"type": "string"
						},
						{
							"internalType": "bool",
							"name": "_isResidential",
							"type": "bool"
						}
					],
					"name": "listPropertyForSale",
					"outputs": [],
					"stateMutability": "nonpayable",
					"type": "function"
				}
			],
			"devdoc": {
				"kind": "dev",
				"methods": {},
				"version": 1
			},
			"evm": {
				"assembly": "    /* \"contracts/RealEstate.sol\":115:3032  contract RealEstate{... */\n  mstore(0x40, 0x80)\n  callvalue\n  dup1\n  iszero\n  tag_1\n  jumpi\n  0x00\n  dup1\n  revert\ntag_1:\n  pop\n  dataSize(sub_0)\n  dup1\n  dataOffset(sub_0)\n  0x00\n  codecopy\n  0x00\n  return\nstop\n\nsub_0: assembly {\n        /* \"contracts/RealEstate.sol\":115:3032  contract RealEstate{... */\n      mstore(0x40, 0x80)\n      jumpi(tag_1, lt(calldatasize, 0x04))\n      shr(0xe0, calldataload(0x00))\n      dup1\n      0x6fa830a6\n      eq\n      tag_2\n      jumpi\n      dup1\n      0x849a290f\n      eq\n      tag_3\n      jumpi\n      dup1\n      0x9d116884\n      eq\n      tag_4\n      jumpi\n      dup1\n      0xbf883743\n      eq\n      tag_5\n      jumpi\n    tag_1:\n      0x00\n      dup1\n      revert\n        /* \"contracts/RealEstate.sol\":1748:2433  function buyProperty(uint256 _propertyId)public payable {... */\n    tag_2:\n      tag_6\n      0x04\n      dup1\n      calldatasize\n      sub\n      dup2\n      add\n      swap1\n      tag_7\n      swap2\n      swap1\n      tag_8\n      jump\t// in\n    tag_7:\n      tag_9\n      jump\t// in\n    tag_6:\n      stop\n        /* \"contracts/RealEstate.sol\":2479:2699  function getPropertylistIDs()public view returns(... */\n    tag_3:\n      callvalue\n      dup1\n      iszero\n      tag_10\n      jumpi\n      0x00\n      dup1\n      revert\n    tag_10:\n      pop\n      tag_11\n      tag_12\n      jump\t// in\n    tag_11:\n      mload(0x40)\n      tag_13\n      swap3\n      swap2\n      swap1\n      tag_14\n      jump\t// in\n    tag_13:\n      mload(0x40)\n      dup1\n      swap2\n      sub\n      swap1\n      return\n        /* \"contracts/RealEstate.sol\":186:232  mapping (uint256 =>Property)public  Properties */\n    tag_4:\n      callvalue\n      dup1\n      iszero\n      tag_15\n      jumpi\n      0x00\n      dup1\n      revert\n    tag_15:\n      pop\n      tag_16\n      0x04\n      dup1\n      calldatasize\n      sub\n      dup2\n      add\n      swap1\n      tag_17\n      swap2\n      swap1\n      tag_8\n      jump\t// in\n    tag_17:\n      tag_18\n      jump\t// in\n    tag_16:\n      mload(0x40)\n      tag_19\n      swap8\n      swap7\n      swap6\n      swap5\n      swap4\n      swap3\n      swap2\n      swap1\n      tag_20\n      jump\t// in\n    tag_19:\n      mload(0x40)\n      dup1\n      swap2\n      sub\n      swap1\n      return\n        /* \"contracts/RealEstate.sol\":510:1630  function listPropertyForSale(... */\n    tag_5:\n      callvalue\n      dup1\n      iszero\n      tag_21\n      jumpi\n      0x00\n      dup1\n      revert\n    tag_21:\n      pop\n      tag_22\n      0x04\n      dup1\n      calldatasize\n      sub\n      dup2\n      add\n      swap1\n      tag_23\n      swap2\n      swap1\n      tag_24\n      jump\t// in\n    tag_23:\n      tag_25\n      jump\t// in\n    tag_22:\n      stop\n        /* \"contracts/RealEstate.sol\":1748:2433  function buyProperty(uint256 _propertyId)public payable {... */\n    tag_9:\n        /* \"contracts/RealEstate.sol\":1874:1899  Property storage property */\n      0x00\n        /* \"contracts/RealEstate.sol\":1900:1910  Properties */\n      dup1\n        /* \"contracts/RealEstate.sol\":1900:1923  Properties[_propertyId] */\n      0x00\n        /* \"contracts/RealEstate.sol\":1911:1922  _propertyId */\n      dup4\n        /* \"contracts/RealEstate.sol\":1900:1923  Properties[_propertyId] */\n      dup2\n      mstore\n      0x20\n      add\n      swap1\n      dup2\n      mstore\n      0x20\n      add\n      0x00\n      keccak256\n        /* \"contracts/RealEstate.sol\":1874:1923  Property storage property=Properties[_propertyId] */\n      swap1\n      pop\n        /* \"contracts/RealEstate.sol\":1997:2005  property */\n      dup1\n        /* \"contracts/RealEstate.sol\":1997:2012  property.Onsale */\n      0x01\n      add\n      0x00\n      swap1\n      sload\n      swap1\n      0x0100\n      exp\n      swap1\n      div\n      0xff\n      and\n        /* \"contracts/RealEstate.sol\":1989:2046  require(property.Onsale,\"this property is not available\") */\n      tag_27\n      jumpi\n      mload(0x40)\n      0x08c379a000000000000000000000000000000000000000000000000000000000\n      dup2\n      mstore\n      0x04\n      add\n      tag_28\n      swap1\n      tag_29\n      jump\t// in\n    tag_28:\n      mload(0x40)\n      dup1\n      swap2\n      sub\n      swap1\n      revert\n    tag_27:\n        /* \"contracts/RealEstate.sol\":2077:2086  msg.value */\n      callvalue\n        /* \"contracts/RealEstate.sol\":2061:2069  property */\n      dup2\n        /* \"contracts/RealEstate.sol\":2061:2075  property.price */\n      0x00\n      add\n      sload\n        /* \"contracts/RealEstate.sol\":2061:2086  property.price>=msg.value */\n      lt\n      iszero\n        /* \"contracts/RealEstate.sol\":2053:2108  require(property.price>=msg.value,\"Insufficiant funds\") */\n      tag_30\n      jumpi\n      mload(0x40)\n      0x08c379a000000000000000000000000000000000000000000000000000000000\n      dup2\n      mstore\n      0x04\n      add\n      tag_31\n      swap1\n      tag_32\n      jump\t// in\n    tag_31:\n      mload(0x40)\n      dup1\n      swap2\n      sub\n      swap1\n      revert\n    tag_30:\n        /* \"contracts/RealEstate.sol\":2175:2183  property */\n      dup1\n        /* \"contracts/RealEstate.sol\":2175:2189  property.owner */\n      0x03\n      add\n      0x00\n      swap1\n      sload\n      swap1\n      0x0100\n      exp\n      swap1\n      div\n      0xffffffffffffffffffffffffffffffffffffffff\n      and\n        /* \"contracts/RealEstate.sol\":2167:2199  payable(property.owner).transfer */\n      0xffffffffffffffffffffffffffffffffffffffff\n      and\n        /* \"contracts/RealEstate.sol\":2167:2215  payable(property.owner).transfer(property.price) */\n      0x08fc\n        /* \"contracts/RealEstate.sol\":2200:2208  property */\n      dup3\n        /* \"contracts/RealEstate.sol\":2200:2214  property.price */\n      0x00\n      add\n      sload\n        /* \"contracts/RealEstate.sol\":2167:2215  payable(property.owner).transfer(property.price) */\n      swap1\n      dup2\n      iszero\n      mul\n      swap1\n      mload(0x40)\n      0x00\n      mload(0x40)\n      dup1\n      dup4\n      sub\n      dup2\n      dup6\n      dup9\n      dup9\n      call\n      swap4\n      pop\n      pop\n      pop\n      pop\n      iszero\n      dup1\n      iszero\n      tag_34\n      jumpi\n      returndatasize\n      0x00\n      dup1\n      returndatacopy\n      revert(0x00, returndatasize)\n    tag_34:\n      pop\n        /* \"contracts/RealEstate.sol\":2280:2290  msg.sender */\n      caller\n        /* \"contracts/RealEstate.sol\":2265:2273  property */\n      dup2\n        /* \"contracts/RealEstate.sol\":2265:2279  property.owner */\n      0x03\n      add\n      0x00\n        /* \"contracts/RealEstate.sol\":2265:2290  property.owner=msg.sender */\n      0x0100\n      exp\n      dup2\n      sload\n      dup2\n      0xffffffffffffffffffffffffffffffffffffffff\n      mul\n      not\n      and\n      swap1\n      dup4\n      0xffffffffffffffffffffffffffffffffffffffff\n      and\n      mul\n      or\n      swap1\n      sstore\n      pop\n        /* \"contracts/RealEstate.sol\":2354:2359  false */\n      0x00\n        /* \"contracts/RealEstate.sol\":2338:2346  property */\n      dup2\n        /* \"contracts/RealEstate.sol\":2338:2353  property.Onsale */\n      0x01\n      add\n      0x00\n        /* \"contracts/RealEstate.sol\":2338:2359  property.Onsale=false */\n      0x0100\n      exp\n      dup2\n      sload\n      dup2\n      0xff\n      mul\n      not\n      and\n      swap1\n      dup4\n      iszero\n      iszero\n      mul\n      or\n      swap1\n      sstore\n      pop\n        /* \"contracts/RealEstate.sol\":2404:2429  PropertySold(_propertyId) */\n      0xca00b0637134f6563551ffb097ffc572f30140029b94a4a1e7ef423b475a894f\n        /* \"contracts/RealEstate.sol\":2417:2428  _propertyId */\n      dup3\n        /* \"contracts/RealEstate.sol\":2404:2429  PropertySold(_propertyId) */\n      mload(0x40)\n      tag_35\n      swap2\n      swap1\n      tag_36\n      jump\t// in\n    tag_35:\n      mload(0x40)\n      dup1\n      swap2\n      sub\n      swap1\n      log1\n        /* \"contracts/RealEstate.sol\":1804:2433  {... */\n      pop\n        /* \"contracts/RealEstate.sol\":1748:2433  function buyProperty(uint256 _propertyId)public payable {... */\n      pop\n      jump\t// out\n        /* \"contracts/RealEstate.sol\":2479:2699  function getPropertylistIDs()public view returns(... */\n    tag_12:\n        /* \"contracts/RealEstate.sol\":2534:2563  uint256[] memory _residential */\n      0x60\n        /* \"contracts/RealEstate.sol\":2571:2599  uint256[] memory _commercial */\n      dup1\n        /* \"contracts/RealEstate.sol\":2629:2651  residentialPropertyIDs */\n      0x01\n        /* \"contracts/RealEstate.sol\":2616:2651  _residential=residentialPropertyIDs */\n      dup1\n      sload\n      dup1\n      0x20\n      mul\n      0x20\n      add\n      mload(0x40)\n      swap1\n      dup2\n      add\n      0x40\n      mstore\n      dup1\n      swap3\n      swap2\n      swap1\n      dup2\n      dup2\n      mstore\n      0x20\n      add\n      dup3\n      dup1\n      sload\n      dup1\n      iszero\n      tag_38\n      jumpi\n      0x20\n      mul\n      dup3\n      add\n      swap2\n      swap1\n      0x00\n      mstore\n      keccak256(0x00, 0x20)\n      swap1\n    tag_39:\n      dup2\n      sload\n      dup2\n      mstore\n      0x20\n      add\n      swap1\n      0x01\n      add\n      swap1\n      dup1\n      dup4\n      gt\n      tag_39\n      jumpi\n    tag_38:\n      pop\n      pop\n      pop\n      pop\n      pop\n      swap2\n      pop\n        /* \"contracts/RealEstate.sol\":2673:2694  commercialPropertyIDs */\n      0x02\n        /* \"contracts/RealEstate.sol\":2661:2694  _commercial=commercialPropertyIDs */\n      dup1\n      sload\n      dup1\n      0x20\n      mul\n      0x20\n      add\n      mload(0x40)\n      swap1\n      dup2\n      add\n      0x40\n      mstore\n      dup1\n      swap3\n      swap2\n      swap1\n      dup2\n      dup2\n      mstore\n      0x20\n      add\n      dup3\n      dup1\n      sload\n      dup1\n      iszero\n      tag_40\n      jumpi\n      0x20\n      mul\n      dup3\n      add\n      swap2\n      swap1\n      0x00\n      mstore\n      keccak256(0x00, 0x20)\n      swap1\n    tag_41:\n      dup2\n      sload\n      dup2\n      mstore\n      0x20\n      add\n      swap1\n      0x01\n      add\n      swap1\n      dup1\n      dup4\n      gt\n      tag_41\n      jumpi\n    tag_40:\n      pop\n      pop\n      pop\n      pop\n      pop\n      swap1\n      pop\n        /* \"contracts/RealEstate.sol\":2479:2699  function getPropertylistIDs()public view returns(... */\n      swap1\n      swap2\n      jump\t// out\n        /* \"contracts/RealEstate.sol\":186:232  mapping (uint256 =>Property)public  Properties */\n    tag_18:\n      mstore(0x20, 0x00)\n      dup1\n      0x00\n      mstore\n      keccak256(0x00, 0x40)\n      0x00\n      swap2\n      pop\n      swap1\n      pop\n      dup1\n      0x00\n      add\n      sload\n      swap1\n      dup1\n      0x01\n      add\n      0x00\n      swap1\n      sload\n      swap1\n      0x0100\n      exp\n      swap1\n      div\n      0xff\n      and\n      swap1\n      dup1\n      0x01\n      add\n      0x01\n      swap1\n      sload\n      swap1\n      0x0100\n      exp\n      swap1\n      div\n      0xff\n      and\n      swap1\n      dup1\n      0x02\n      add\n      dup1\n      sload\n      tag_42\n      swap1\n      tag_43\n      jump\t// in\n    tag_42:\n      dup1\n      0x1f\n      add\n      0x20\n      dup1\n      swap2\n      div\n      mul\n      0x20\n      add\n      mload(0x40)\n      swap1\n      dup2\n      add\n      0x40\n      mstore\n      dup1\n      swap3\n      swap2\n      swap1\n      dup2\n      dup2\n      mstore\n      0x20\n      add\n      dup3\n      dup1\n      sload\n      tag_44\n      swap1\n      tag_43\n      jump\t// in\n    tag_44:\n      dup1\n      iszero\n      tag_45\n      jumpi\n      dup1\n      0x1f\n      lt\n      tag_46\n      jumpi\n      0x0100\n      dup1\n      dup4\n      sload\n      div\n      mul\n      dup4\n      mstore\n      swap2\n      0x20\n      add\n      swap2\n      jump(tag_45)\n    tag_46:\n      dup3\n      add\n      swap2\n      swap1\n      0x00\n      mstore\n      keccak256(0x00, 0x20)\n      swap1\n    tag_47:\n      dup2\n      sload\n      dup2\n      mstore\n      swap1\n      0x01\n      add\n      swap1\n      0x20\n      add\n      dup1\n      dup4\n      gt\n      tag_47\n      jumpi\n      dup3\n      swap1\n      sub\n      0x1f\n      and\n      dup3\n      add\n      swap2\n    tag_45:\n      pop\n      pop\n      pop\n      pop\n      pop\n      swap1\n      dup1\n      0x03\n      add\n      0x00\n      swap1\n      sload\n      swap1\n      0x0100\n      exp\n      swap1\n      div\n      0xffffffffffffffffffffffffffffffffffffffff\n      and\n      swap1\n      dup1\n      0x04\n      add\n      dup1\n      sload\n      tag_48\n      swap1\n      tag_43\n      jump\t// in\n    tag_48:\n      dup1\n      0x1f\n      add\n      0x20\n      dup1\n      swap2\n      div\n      mul\n      0x20\n      add\n      mload(0x40)\n      swap1\n      dup2\n      add\n      0x40\n      mstore\n      dup1\n      swap3\n      swap2\n      swap1\n      dup2\n      dup2\n      mstore\n      0x20\n      add\n      dup3\n      dup1\n      sload\n      tag_49\n      swap1\n      tag_43\n      jump\t// in\n    tag_49:\n      dup1\n      iszero\n      tag_50\n      jumpi\n      dup1\n      0x1f\n      lt\n      tag_51\n      jumpi\n      0x0100\n      dup1\n      dup4\n      sload\n      div\n      mul\n      dup4\n      mstore\n      swap2\n      0x20\n      add\n      swap2\n      jump(tag_50)\n    tag_51:\n      dup3\n      add\n      swap2\n      swap1\n      0x00\n      mstore\n      keccak256(0x00, 0x20)\n      swap1\n    tag_52:\n      dup2\n      sload\n      dup2\n      mstore\n      swap1\n      0x01\n      add\n      swap1\n      0x20\n      add\n      dup1\n      dup4\n      gt\n      tag_52\n      jumpi\n      dup3\n      swap1\n      sub\n      0x1f\n      and\n      dup3\n      add\n      swap2\n    tag_50:\n      pop\n      pop\n      pop\n      pop\n      pop\n      swap1\n      dup1\n      0x05\n      add\n      dup1\n      sload\n      tag_53\n      swap1\n      tag_43\n      jump\t// in\n    tag_53:\n      dup1\n      0x1f\n      add\n      0x20\n      dup1\n      swap2\n      div\n      mul\n      0x20\n      add\n      mload(0x40)\n      swap1\n      dup2\n      add\n      0x40\n      mstore\n      dup1\n      swap3\n      swap2\n      swap1\n      dup2\n      dup2\n      mstore\n      0x20\n      add\n      dup3\n      dup1\n      sload\n      tag_54\n      swap1\n      tag_43\n      jump\t// in\n    tag_54:\n      dup1\n      iszero\n      tag_55\n      jumpi\n      dup1\n      0x1f\n      lt\n      tag_56\n      jumpi\n      0x0100\n      dup1\n      dup4\n      sload\n      div\n      mul\n      dup4\n      mstore\n      swap2\n      0x20\n      add\n      swap2\n      jump(tag_55)\n    tag_56:\n      dup3\n      add\n      swap2\n      swap1\n      0x00\n      mstore\n      keccak256(0x00, 0x20)\n      swap1\n    tag_57:\n      dup2\n      sload\n      dup2\n      mstore\n      swap1\n      0x01\n      add\n      swap1\n      0x20\n      add\n      dup1\n      dup4\n      gt\n      tag_57\n      jumpi\n      dup3\n      swap1\n      sub\n      0x1f\n      and\n      dup3\n      add\n      swap2\n    tag_55:\n      pop\n      pop\n      pop\n      pop\n      pop\n      swap1\n      pop\n      dup8\n      jump\t// out\n        /* \"contracts/RealEstate.sol\":510:1630  function listPropertyForSale(... */\n    tag_25:\n        /* \"contracts/RealEstate.sol\":720:747  Property memory newProperty */\n      0x00\n        /* \"contracts/RealEstate.sol\":750:988  Property({... */\n      mload(0x40)\n      dup1\n      0xe0\n      add\n      0x40\n      mstore\n      dup1\n        /* \"contracts/RealEstate.sol\":777:783  _price */\n      dup8\n        /* \"contracts/RealEstate.sol\":750:988  Property({... */\n      dup2\n      mstore\n      0x20\n      add\n        /* \"contracts/RealEstate.sol\":803:807  true */\n      0x01\n        /* \"contracts/RealEstate.sol\":750:988  Property({... */\n      iszero\n      iszero\n      dup2\n      mstore\n      0x20\n      add\n        /* \"contracts/RealEstate.sol\":833:847  _isResidential */\n      dup4\n        /* \"contracts/RealEstate.sol\":750:988  Property({... */\n      iszero\n      iszero\n      dup2\n      mstore\n      0x20\n      add\n        /* \"contracts/RealEstate.sol\":864:869  _name */\n      dup7\n        /* \"contracts/RealEstate.sol\":750:988  Property({... */\n      dup2\n      mstore\n      0x20\n      add\n        /* \"contracts/RealEstate.sol\":888:898  msg.sender */\n      caller\n        /* \"contracts/RealEstate.sol\":750:988  Property({... */\n      0xffffffffffffffffffffffffffffffffffffffff\n      and\n      dup2\n      mstore\n      0x20\n      add\n        /* \"contracts/RealEstate.sol\":923:935  _description */\n      dup6\n        /* \"contracts/RealEstate.sol\":750:988  Property({... */\n      dup2\n      mstore\n      0x20\n      add\n        /* \"contracts/RealEstate.sol\":957:966  _location */\n      dup5\n        /* \"contracts/RealEstate.sol\":750:988  Property({... */\n      dup2\n      mstore\n      pop\n        /* \"contracts/RealEstate.sol\":720:988  Property memory newProperty = Property({... */\n      swap1\n      pop\n        /* \"contracts/RealEstate.sol\":1199:1210  newProperty */\n      dup1\n        /* \"contracts/RealEstate.sol\":1173:1183  Properties */\n      0x00\n        /* \"contracts/RealEstate.sol\":1173:1196  Properties[_propertyId] */\n      dup1\n        /* \"contracts/RealEstate.sol\":1184:1195  _propertyId */\n      dup10\n        /* \"contracts/RealEstate.sol\":1173:1196  Properties[_propertyId] */\n      dup2\n      mstore\n      0x20\n      add\n      swap1\n      dup2\n      mstore\n      0x20\n      add\n      0x00\n      keccak256\n        /* \"contracts/RealEstate.sol\":1173:1210  Properties[_propertyId] = newProperty */\n      0x00\n      dup3\n      add\n      mload\n      dup2\n      0x00\n      add\n      sstore\n      0x20\n      dup3\n      add\n      mload\n      dup2\n      0x01\n      add\n      exp(0x0100, 0x00)\n      dup2\n      sload\n      dup2\n      0xff\n      mul\n      not\n      and\n      swap1\n      dup4\n      iszero\n      iszero\n      mul\n      or\n      swap1\n      sstore\n      pop\n      0x40\n      dup3\n      add\n      mload\n      dup2\n      0x01\n      add\n      exp(0x0100, 0x01)\n      dup2\n      sload\n      dup2\n      0xff\n      mul\n      not\n      and\n      swap1\n      dup4\n      iszero\n      iszero\n      mul\n      or\n      swap1\n      sstore\n      pop\n      0x60\n      dup3\n      add\n      mload\n      dup2\n      0x02\n      add\n      swap1\n      dup2\n      tag_59\n      swap2\n      swap1\n      tag_60\n      jump\t// in\n    tag_59:\n      pop\n      0x80\n      dup3\n      add\n      mload\n      dup2\n      0x03\n      add\n      exp(0x0100, 0x00)\n      dup2\n      sload\n      dup2\n      0xffffffffffffffffffffffffffffffffffffffff\n      mul\n      not\n      and\n      swap1\n      dup4\n      0xffffffffffffffffffffffffffffffffffffffff\n      and\n      mul\n      or\n      swap1\n      sstore\n      pop\n      0xa0\n      dup3\n      add\n      mload\n      dup2\n      0x04\n      add\n      swap1\n      dup2\n      tag_61\n      swap2\n      swap1\n      tag_60\n      jump\t// in\n    tag_61:\n      pop\n      0xc0\n      dup3\n      add\n      mload\n      dup2\n      0x05\n      add\n      swap1\n      dup2\n      tag_62\n      swap2\n      swap1\n      tag_60\n      jump\t// in\n    tag_62:\n      pop\n      swap1\n      pop\n      pop\n        /* \"contracts/RealEstate.sol\":1314:1331  type(uint256).max */\n      0xffffffffffffffffffffffffffffffffffffffffffffffffffffffffffffffff\n        /* \"contracts/RealEstate.sol\":1264:1310  findIndex(residentialPropertyIDs, _propertyId) */\n      tag_63\n        /* \"contracts/RealEstate.sol\":1274:1296  residentialPropertyIDs */\n      0x01\n        /* \"contracts/RealEstate.sol\":1264:1310  findIndex(residentialPropertyIDs, _propertyId) */\n      dup1\n      sload\n      dup1\n      0x20\n      mul\n      0x20\n      add\n      mload(0x40)\n      swap1\n      dup2\n      add\n      0x40\n      mstore\n      dup1\n      swap3\n      swap2\n      swap1\n      dup2\n      dup2\n      mstore\n      0x20\n      add\n      dup3\n      dup1\n      sload\n      dup1\n      iszero\n      tag_64\n      jumpi\n      0x20\n      mul\n      dup3\n      add\n      swap2\n      swap1\n      0x00\n      mstore\n      keccak256(0x00, 0x20)\n      swap1\n    tag_65:\n      dup2\n      sload\n      dup2\n      mstore\n      0x20\n      add\n      swap1\n      0x01\n      add\n      swap1\n      dup1\n      dup4\n      gt\n      tag_65\n      jumpi\n    tag_64:\n      pop\n      pop\n      pop\n      pop\n      pop\n        /* \"contracts/RealEstate.sol\":1298:1309  _propertyId */\n      dup10\n        /* \"contracts/RealEstate.sol\":1264:1273  findIndex */\n      tag_66\n        /* \"contracts/RealEstate.sol\":1264:1310  findIndex(residentialPropertyIDs, _propertyId) */\n      jump\t// in\n    tag_63:\n        /* \"contracts/RealEstate.sol\":1264:1331  findIndex(residentialPropertyIDs, _propertyId) == type(uint256).max */\n      eq\n        /* \"contracts/RealEstate.sol\":1256:1353  require(findIndex(residentialPropertyIDs, _propertyId) == type(uint256).max, \"ID already exists\") */\n      tag_67\n      jumpi\n      mload(0x40)\n      0x08c379a000000000000000000000000000000000000000000000000000000000\n      dup2\n      mstore\n      0x04\n      add\n      tag_68\n      swap1\n      tag_69\n      jump\t// in\n    tag_68:\n      mload(0x40)\n      dup1\n      swap2\n      sub\n      swap1\n      revert\n    tag_67:\n        /* \"contracts/RealEstate.sol\":1414:1431  type(uint256).max */\n      0xffffffffffffffffffffffffffffffffffffffffffffffffffffffffffffffff\n        /* \"contracts/RealEstate.sol\":1365:1410  findIndex(commercialPropertyIDs, _propertyId) */\n      tag_70\n        /* \"contracts/RealEstate.sol\":1375:1396  commercialPropertyIDs */\n      0x02\n        /* \"contracts/RealEstate.sol\":1365:1410  findIndex(commercialPropertyIDs, _propertyId) */\n      dup1\n      sload\n      dup1\n      0x20\n      mul\n      0x20\n      add\n      mload(0x40)\n      swap1\n      dup2\n      add\n      0x40\n      mstore\n      dup1\n      swap3\n      swap2\n      swap1\n      dup2\n      dup2\n      mstore\n      0x20\n      add\n      dup3\n      dup1\n      sload\n      dup1\n      iszero\n      tag_71\n      jumpi\n      0x20\n      mul\n      dup3\n      add\n      swap2\n      swap1\n      0x00\n      mstore\n      keccak256(0x00, 0x20)\n      swap1\n    tag_72:\n      dup2\n      sload\n      dup2\n      mstore\n      0x20\n      add\n      swap1\n      0x01\n      add\n      swap1\n      dup1\n      dup4\n      gt\n      tag_72\n      jumpi\n    tag_71:\n      pop\n      pop\n      pop\n      pop\n      pop\n        /* \"contracts/RealEstate.sol\":1398:1409  _propertyId */\n      dup10\n        /* \"contracts/RealEstate.sol\":1365:1374  findIndex */\n      tag_66\n        /* \"contracts/RealEstate.sol\":1365:1410  findIndex(commercialPropertyIDs, _propertyId) */\n      jump\t// in\n    tag_70:\n        /* \"contracts/RealEstate.sol\":1365:1431  findIndex(commercialPropertyIDs, _propertyId) == type(uint256).max */\n      eq\n        /* \"contracts/RealEstate.sol\":1357:1453  require(findIndex(commercialPropertyIDs, _propertyId) == type(uint256).max, \"ID already exists\") */\n      tag_73\n      jumpi\n      mload(0x40)\n      0x08c379a000000000000000000000000000000000000000000000000000000000\n      dup2\n      mstore\n      0x04\n      add\n      tag_74\n      swap1\n      tag_69\n      jump\t// in\n    tag_74:\n      mload(0x40)\n      dup1\n      swap2\n      sub\n      swap1\n      revert\n    tag_73:\n        /* \"contracts/RealEstate.sol\":1518:1522  true */\n      0x01\n        /* \"contracts/RealEstate.sol\":1502:1522  _isResidential==true */\n      iszero\n      iszero\n        /* \"contracts/RealEstate.sol\":1502:1516  _isResidential */\n      dup3\n        /* \"contracts/RealEstate.sol\":1502:1522  _isResidential==true */\n      iszero\n      iszero\n      sub\n        /* \"contracts/RealEstate.sol\":1499:1627  if(_isResidential==true){... */\n      tag_75\n      jumpi\n        /* \"contracts/RealEstate.sol\":1526:1548  residentialPropertyIDs */\n      0x01\n        /* \"contracts/RealEstate.sol\":1554:1565  _propertyId */\n      dup8\n        /* \"contracts/RealEstate.sol\":1526:1566  residentialPropertyIDs.push(_propertyId) */\n      swap1\n      dup1\n      0x01\n      dup2\n      sload\n      add\n      dup1\n      dup3\n      sstore\n      dup1\n      swap2\n      pop\n      pop\n      0x01\n      swap1\n      sub\n      swap1\n      0x00\n      mstore\n      keccak256(0x00, 0x20)\n      add\n      0x00\n      swap1\n      swap2\n      swap1\n      swap2\n      swap1\n      swap2\n      pop\n      sstore\n        /* \"contracts/RealEstate.sol\":1499:1627  if(_isResidential==true){... */\n      jump(tag_77)\n    tag_75:\n        /* \"contracts/RealEstate.sol\":1584:1605  commercialPropertyIDs */\n      0x02\n        /* \"contracts/RealEstate.sol\":1611:1622  _propertyId */\n      dup8\n        /* \"contracts/RealEstate.sol\":1584:1623  commercialPropertyIDs.push(_propertyId) */\n      swap1\n      dup1\n      0x01\n      dup2\n      sload\n      add\n      dup1\n      dup3\n      sstore\n      dup1\n      swap2\n      pop\n      pop\n      0x01\n      swap1\n      sub\n      swap1\n      0x00\n      mstore\n      keccak256(0x00, 0x20)\n      add\n      0x00\n      swap1\n      swap2\n      swap1\n      swap2\n      swap1\n      swap2\n      pop\n      sstore\n        /* \"contracts/RealEstate.sol\":1499:1627  if(_isResidential==true){... */\n    tag_77:\n        /* \"contracts/RealEstate.sol\":713:1630  {... */\n      pop\n        /* \"contracts/RealEstate.sol\":510:1630  function listPropertyForSale(... */\n      pop\n      pop\n      pop\n      pop\n      pop\n      pop\n      jump\t// out\n        /* \"contracts/RealEstate.sol\":2769:3027  function findIndex(uint256[] memory arr, uint256 value) private pure returns (uint256) {... */\n    tag_66:\n        /* \"contracts/RealEstate.sol\":2847:2854  uint256 */\n      0x00\n        /* \"contracts/RealEstate.sol\":2868:2877  uint256 i */\n      dup1\n        /* \"contracts/RealEstate.sol\":2880:2881  0 */\n      0x00\n        /* \"contracts/RealEstate.sol\":2868:2881  uint256 i = 0 */\n      swap1\n      pop\n        /* \"contracts/RealEstate.sol\":2863:2993  for (uint256 i = 0; i < arr.length; i++) {   //traversing... */\n    tag_80:\n        /* \"contracts/RealEstate.sol\":2887:2890  arr */\n      dup4\n        /* \"contracts/RealEstate.sol\":2887:2897  arr.length */\n      mload\n        /* \"contracts/RealEstate.sol\":2883:2884  i */\n      dup2\n        /* \"contracts/RealEstate.sol\":2883:2897  i < arr.length */\n      lt\n        /* \"contracts/RealEstate.sol\":2863:2993  for (uint256 i = 0; i < arr.length; i++) {   //traversing... */\n      iszero\n      tag_81\n      jumpi\n        /* \"contracts/RealEstate.sol\":2944:2949  value */\n      dup3\n        /* \"contracts/RealEstate.sol\":2934:2937  arr */\n      dup5\n        /* \"contracts/RealEstate.sol\":2938:2939  i */\n      dup3\n        /* \"contracts/RealEstate.sol\":2934:2940  arr[i] */\n      dup2\n      mload\n      dup2\n      lt\n      tag_83\n      jumpi\n      tag_84\n      tag_85\n      jump\t// in\n    tag_84:\n    tag_83:\n      0x20\n      mul\n      0x20\n      add\n      add\n      mload\n        /* \"contracts/RealEstate.sol\":2934:2949  arr[i] == value */\n      sub\n        /* \"contracts/RealEstate.sol\":2930:2986  if (arr[i] == value) {... */\n      tag_86\n      jumpi\n        /* \"contracts/RealEstate.sol\":2973:2974  i */\n      dup1\n        /* \"contracts/RealEstate.sol\":2966:2974  return i */\n      swap2\n      pop\n      pop\n      jump(tag_79)\n        /* \"contracts/RealEstate.sol\":2930:2986  if (arr[i] == value) {... */\n    tag_86:\n        /* \"contracts/RealEstate.sol\":2899:2902  i++ */\n      dup1\n      dup1\n      0x01\n      add\n      swap2\n      pop\n      pop\n        /* \"contracts/RealEstate.sol\":2863:2993  for (uint256 i = 0; i < arr.length; i++) {   //traversing... */\n      jump(tag_80)\n    tag_81:\n      pop\n        /* \"contracts/RealEstate.sol\":3006:3023  type(uint256).max */\n      0xffffffffffffffffffffffffffffffffffffffffffffffffffffffffffffffff\n        /* \"contracts/RealEstate.sol\":2999:3023  return type(uint256).max */\n      swap1\n      pop\n        /* \"contracts/RealEstate.sol\":2769:3027  function findIndex(uint256[] memory arr, uint256 value) private pure returns (uint256) {... */\n    tag_79:\n      swap3\n      swap2\n      pop\n      pop\n      jump\t// out\n        /* \"#utility.yul\":7:82   */\n    tag_87:\n        /* \"#utility.yul\":40:46   */\n      0x00\n        /* \"#utility.yul\":73:75   */\n      0x40\n        /* \"#utility.yul\":67:76   */\n      mload\n        /* \"#utility.yul\":57:76   */\n      swap1\n      pop\n        /* \"#utility.yul\":7:82   */\n      swap1\n      jump\t// out\n        /* \"#utility.yul\":88:205   */\n    tag_88:\n        /* \"#utility.yul\":197:198   */\n      0x00\n        /* \"#utility.yul\":194:195   */\n      dup1\n        /* \"#utility.yul\":187:199   */\n      revert\n        /* \"#utility.yul\":211:328   */\n    tag_89:\n        /* \"#utility.yul\":320:321   */\n      0x00\n        /* \"#utility.yul\":317:318   */\n      dup1\n        /* \"#utility.yul\":310:322   */\n      revert\n        /* \"#utility.yul\":334:411   */\n    tag_90:\n        /* \"#utility.yul\":371:378   */\n      0x00\n        /* \"#utility.yul\":400:405   */\n      dup2\n        /* \"#utility.yul\":389:405   */\n      swap1\n      pop\n        /* \"#utility.yul\":334:411   */\n      swap2\n      swap1\n      pop\n      jump\t// out\n        /* \"#utility.yul\":417:539   */\n    tag_91:\n        /* \"#utility.yul\":490:514   */\n      tag_150\n        /* \"#utility.yul\":508:513   */\n      dup2\n        /* \"#utility.yul\":490:514   */\n      tag_90\n      jump\t// in\n    tag_150:\n        /* \"#utility.yul\":483:488   */\n      dup2\n        /* \"#utility.yul\":480:515   */\n      eq\n        /* \"#utility.yul\":470:533   */\n      tag_151\n      jumpi\n        /* \"#utility.yul\":529:530   */\n      0x00\n        /* \"#utility.yul\":526:527   */\n      dup1\n        /* \"#utility.yul\":519:531   */\n      revert\n        /* \"#utility.yul\":470:533   */\n    tag_151:\n        /* \"#utility.yul\":417:539   */\n      pop\n      jump\t// out\n        /* \"#utility.yul\":545:684   */\n    tag_92:\n        /* \"#utility.yul\":591:596   */\n      0x00\n        /* \"#utility.yul\":629:635   */\n      dup2\n        /* \"#utility.yul\":616:636   */\n      calldataload\n        /* \"#utility.yul\":607:636   */\n      swap1\n      pop\n        /* \"#utility.yul\":645:678   */\n      tag_153\n        /* \"#utility.yul\":672:677   */\n      dup2\n        /* \"#utility.yul\":645:678   */\n      tag_91\n      jump\t// in\n    tag_153:\n        /* \"#utility.yul\":545:684   */\n      swap3\n      swap2\n      pop\n      pop\n      jump\t// out\n        /* \"#utility.yul\":690:1019   */\n    tag_8:\n        /* \"#utility.yul\":749:755   */\n      0x00\n        /* \"#utility.yul\":798:800   */\n      0x20\n        /* \"#utility.yul\":786:795   */\n      dup3\n        /* \"#utility.yul\":777:784   */\n      dup5\n        /* \"#utility.yul\":773:796   */\n      sub\n        /* \"#utility.yul\":769:801   */\n      slt\n        /* \"#utility.yul\":766:885   */\n      iszero\n      tag_155\n      jumpi\n        /* \"#utility.yul\":804:883   */\n      tag_156\n      tag_88\n      jump\t// in\n    tag_156:\n        /* \"#utility.yul\":766:885   */\n    tag_155:\n        /* \"#utility.yul\":924:925   */\n      0x00\n        /* \"#utility.yul\":949:1002   */\n      tag_157\n        /* \"#utility.yul\":994:1001   */\n      dup5\n        /* \"#utility.yul\":985:991   */\n      dup3\n        /* \"#utility.yul\":974:983   */\n      dup6\n        /* \"#utility.yul\":970:992   */\n      add\n        /* \"#utility.yul\":949:1002   */\n      tag_92\n      jump\t// in\n    tag_157:\n        /* \"#utility.yul\":939:1002   */\n      swap2\n      pop\n        /* \"#utility.yul\":895:1012   */\n      pop\n        /* \"#utility.yul\":690:1019   */\n      swap3\n      swap2\n      pop\n      pop\n      jump\t// out\n        /* \"#utility.yul\":1025:1139   */\n    tag_93:\n        /* \"#utility.yul\":1092:1098   */\n      0x00\n        /* \"#utility.yul\":1126:1131   */\n      dup2\n        /* \"#utility.yul\":1120:1132   */\n      mload\n        /* \"#utility.yul\":1110:1132   */\n      swap1\n      pop\n        /* \"#utility.yul\":1025:1139   */\n      swap2\n      swap1\n      pop\n      jump\t// out\n        /* \"#utility.yul\":1145:1329   */\n    tag_94:\n        /* \"#utility.yul\":1244:1255   */\n      0x00\n        /* \"#utility.yul\":1278:1284   */\n      dup3\n        /* \"#utility.yul\":1273:1276   */\n      dup3\n        /* \"#utility.yul\":1266:1285   */\n      mstore\n        /* \"#utility.yul\":1318:1322   */\n      0x20\n        /* \"#utility.yul\":1313:1316   */\n      dup3\n        /* \"#utility.yul\":1309:1323   */\n      add\n        /* \"#utility.yul\":1294:1323   */\n      swap1\n      pop\n        /* \"#utility.yul\":1145:1329   */\n      swap3\n      swap2\n      pop\n      pop\n      jump\t// out\n        /* \"#utility.yul\":1335:1467   */\n    tag_95:\n        /* \"#utility.yul\":1402:1406   */\n      0x00\n        /* \"#utility.yul\":1425:1428   */\n      dup2\n        /* \"#utility.yul\":1417:1428   */\n      swap1\n      pop\n        /* \"#utility.yul\":1455:1459   */\n      0x20\n        /* \"#utility.yul\":1450:1453   */\n      dup3\n        /* \"#utility.yul\":1446:1460   */\n      add\n        /* \"#utility.yul\":1438:1460   */\n      swap1\n      pop\n        /* \"#utility.yul\":1335:1467   */\n      swap2\n      swap1\n      pop\n      jump\t// out\n        /* \"#utility.yul\":1473:1581   */\n    tag_96:\n        /* \"#utility.yul\":1550:1574   */\n      tag_162\n        /* \"#utility.yul\":1568:1573   */\n      dup2\n        /* \"#utility.yul\":1550:1574   */\n      tag_90\n      jump\t// in\n    tag_162:\n        /* \"#utility.yul\":1545:1548   */\n      dup3\n        /* \"#utility.yul\":1538:1575   */\n      mstore\n        /* \"#utility.yul\":1473:1581   */\n      pop\n      pop\n      jump\t// out\n        /* \"#utility.yul\":1587:1766   */\n    tag_97:\n        /* \"#utility.yul\":1656:1666   */\n      0x00\n        /* \"#utility.yul\":1677:1723   */\n      tag_164\n        /* \"#utility.yul\":1719:1722   */\n      dup4\n        /* \"#utility.yul\":1711:1717   */\n      dup4\n        /* \"#utility.yul\":1677:1723   */\n      tag_96\n      jump\t// in\n    tag_164:\n        /* \"#utility.yul\":1755:1759   */\n      0x20\n        /* \"#utility.yul\":1750:1753   */\n      dup4\n        /* \"#utility.yul\":1746:1760   */\n      add\n        /* \"#utility.yul\":1732:1760   */\n      swap1\n      pop\n        /* \"#utility.yul\":1587:1766   */\n      swap3\n      swap2\n      pop\n      pop\n      jump\t// out\n        /* \"#utility.yul\":1772:1885   */\n    tag_98:\n        /* \"#utility.yul\":1842:1846   */\n      0x00\n        /* \"#utility.yul\":1874:1878   */\n      0x20\n        /* \"#utility.yul\":1869:1872   */\n      dup3\n        /* \"#utility.yul\":1865:1879   */\n      add\n        /* \"#utility.yul\":1857:1879   */\n      swap1\n      pop\n        /* \"#utility.yul\":1772:1885   */\n      swap2\n      swap1\n      pop\n      jump\t// out\n        /* \"#utility.yul\":1921:2653   */\n    tag_99:\n        /* \"#utility.yul\":2040:2043   */\n      0x00\n        /* \"#utility.yul\":2069:2123   */\n      tag_167\n        /* \"#utility.yul\":2117:2122   */\n      dup3\n        /* \"#utility.yul\":2069:2123   */\n      tag_93\n      jump\t// in\n    tag_167:\n        /* \"#utility.yul\":2139:2225   */\n      tag_168\n        /* \"#utility.yul\":2218:2224   */\n      dup2\n        /* \"#utility.yul\":2213:2216   */\n      dup6\n        /* \"#utility.yul\":2139:2225   */\n      tag_94\n      jump\t// in\n    tag_168:\n        /* \"#utility.yul\":2132:2225   */\n      swap4\n      pop\n        /* \"#utility.yul\":2249:2305   */\n      tag_169\n        /* \"#utility.yul\":2299:2304   */\n      dup4\n        /* \"#utility.yul\":2249:2305   */\n      tag_95\n      jump\t// in\n    tag_169:\n        /* \"#utility.yul\":2328:2335   */\n      dup1\n        /* \"#utility.yul\":2359:2360   */\n      0x00\n        /* \"#utility.yul\":2344:2628   */\n    tag_170:\n        /* \"#utility.yul\":2369:2375   */\n      dup4\n        /* \"#utility.yul\":2366:2367   */\n      dup2\n        /* \"#utility.yul\":2363:2376   */\n      lt\n        /* \"#utility.yul\":2344:2628   */\n      iszero\n      tag_172\n      jumpi\n        /* \"#utility.yul\":2445:2451   */\n      dup2\n        /* \"#utility.yul\":2439:2452   */\n      mload\n        /* \"#utility.yul\":2472:2535   */\n      tag_173\n        /* \"#utility.yul\":2531:2534   */\n      dup9\n        /* \"#utility.yul\":2516:2529   */\n      dup3\n        /* \"#utility.yul\":2472:2535   */\n      tag_97\n      jump\t// in\n    tag_173:\n        /* \"#utility.yul\":2465:2535   */\n      swap8\n      pop\n        /* \"#utility.yul\":2558:2618   */\n      tag_174\n        /* \"#utility.yul\":2611:2617   */\n      dup4\n        /* \"#utility.yul\":2558:2618   */\n      tag_98\n      jump\t// in\n    tag_174:\n        /* \"#utility.yul\":2548:2618   */\n      swap3\n      pop\n        /* \"#utility.yul\":2404:2628   */\n      pop\n        /* \"#utility.yul\":2391:2392   */\n      0x01\n        /* \"#utility.yul\":2388:2389   */\n      dup2\n        /* \"#utility.yul\":2384:2393   */\n      add\n        /* \"#utility.yul\":2379:2393   */\n      swap1\n      pop\n        /* \"#utility.yul\":2344:2628   */\n      jump(tag_170)\n    tag_172:\n        /* \"#utility.yul\":2348:2362   */\n      pop\n        /* \"#utility.yul\":2644:2647   */\n      dup6\n        /* \"#utility.yul\":2637:2647   */\n      swap4\n      pop\n        /* \"#utility.yul\":2045:2653   */\n      pop\n      pop\n      pop\n        /* \"#utility.yul\":1921:2653   */\n      swap3\n      swap2\n      pop\n      pop\n      jump\t// out\n        /* \"#utility.yul\":2659:3293   */\n    tag_14:\n        /* \"#utility.yul\":2880:2884   */\n      0x00\n        /* \"#utility.yul\":2918:2920   */\n      0x40\n        /* \"#utility.yul\":2907:2916   */\n      dup3\n        /* \"#utility.yul\":2903:2921   */\n      add\n        /* \"#utility.yul\":2895:2921   */\n      swap1\n      pop\n        /* \"#utility.yul\":2967:2976   */\n      dup2\n        /* \"#utility.yul\":2961:2965   */\n      dup2\n        /* \"#utility.yul\":2957:2977   */\n      sub\n        /* \"#utility.yul\":2953:2954   */\n      0x00\n        /* \"#utility.yul\":2942:2951   */\n      dup4\n        /* \"#utility.yul\":2938:2955   */\n      add\n        /* \"#utility.yul\":2931:2978   */\n      mstore\n        /* \"#utility.yul\":2995:3103   */\n      tag_176\n        /* \"#utility.yul\":3098:3102   */\n      dup2\n        /* \"#utility.yul\":3089:3095   */\n      dup6\n        /* \"#utility.yul\":2995:3103   */\n      tag_99\n      jump\t// in\n    tag_176:\n        /* \"#utility.yul\":2987:3103   */\n      swap1\n      pop\n        /* \"#utility.yul\":3150:3159   */\n      dup2\n        /* \"#utility.yul\":3144:3148   */\n      dup2\n        /* \"#utility.yul\":3140:3160   */\n      sub\n        /* \"#utility.yul\":3135:3137   */\n      0x20\n        /* \"#utility.yul\":3124:3133   */\n      dup4\n        /* \"#utility.yul\":3120:3138   */\n      add\n        /* \"#utility.yul\":3113:3161   */\n      mstore\n        /* \"#utility.yul\":3178:3286   */\n      tag_177\n        /* \"#utility.yul\":3281:3285   */\n      dup2\n        /* \"#utility.yul\":3272:3278   */\n      dup5\n        /* \"#utility.yul\":3178:3286   */\n      tag_99\n      jump\t// in\n    tag_177:\n        /* \"#utility.yul\":3170:3286   */\n      swap1\n      pop\n        /* \"#utility.yul\":2659:3293   */\n      swap4\n      swap3\n      pop\n      pop\n      pop\n      jump\t// out\n        /* \"#utility.yul\":3299:3417   */\n    tag_100:\n        /* \"#utility.yul\":3386:3410   */\n      tag_179\n        /* \"#utility.yul\":3404:3409   */\n      dup2\n        /* \"#utility.yul\":3386:3410   */\n      tag_90\n      jump\t// in\n    tag_179:\n        /* \"#utility.yul\":3381:3384   */\n      dup3\n        /* \"#utility.yul\":3374:3411   */\n      mstore\n        /* \"#utility.yul\":3299:3417   */\n      pop\n      pop\n      jump\t// out\n        /* \"#utility.yul\":3423:3513   */\n    tag_101:\n        /* \"#utility.yul\":3457:3464   */\n      0x00\n        /* \"#utility.yul\":3500:3505   */\n      dup2\n        /* \"#utility.yul\":3493:3506   */\n      iszero\n        /* \"#utility.yul\":3486:3507   */\n      iszero\n        /* \"#utility.yul\":3475:3507   */\n      swap1\n      pop\n        /* \"#utility.yul\":3423:3513   */\n      swap2\n      swap1\n      pop\n      jump\t// out\n        /* \"#utility.yul\":3519:3628   */\n    tag_102:\n        /* \"#utility.yul\":3600:3621   */\n      tag_182\n        /* \"#utility.yul\":3615:3620   */\n      dup2\n        /* \"#utility.yul\":3600:3621   */\n      tag_101\n      jump\t// in\n    tag_182:\n        /* \"#utility.yul\":3595:3598   */\n      dup3\n        /* \"#utility.yul\":3588:3622   */\n      mstore\n        /* \"#utility.yul\":3519:3628   */\n      pop\n      pop\n      jump\t// out\n        /* \"#utility.yul\":3634:3733   */\n    tag_103:\n        /* \"#utility.yul\":3686:3692   */\n      0x00\n        /* \"#utility.yul\":3720:3725   */\n      dup2\n        /* \"#utility.yul\":3714:3726   */\n      mload\n        /* \"#utility.yul\":3704:3726   */\n      swap1\n      pop\n        /* \"#utility.yul\":3634:3733   */\n      swap2\n      swap1\n      pop\n      jump\t// out\n        /* \"#utility.yul\":3739:3908   */\n    tag_104:\n        /* \"#utility.yul\":3823:3834   */\n      0x00\n        /* \"#utility.yul\":3857:3863   */\n      dup3\n        /* \"#utility.yul\":3852:3855   */\n      dup3\n        /* \"#utility.yul\":3845:3864   */\n      mstore\n        /* \"#utility.yul\":3897:3901   */\n      0x20\n        /* \"#utility.yul\":3892:3895   */\n      dup3\n        /* \"#utility.yul\":3888:3902   */\n      add\n        /* \"#utility.yul\":3873:3902   */\n      swap1\n      pop\n        /* \"#utility.yul\":3739:3908   */\n      swap3\n      swap2\n      pop\n      pop\n      jump\t// out\n        /* \"#utility.yul\":3914:4160   */\n    tag_105:\n        /* \"#utility.yul\":3995:3996   */\n      0x00\n        /* \"#utility.yul\":4005:4118   */\n    tag_186:\n        /* \"#utility.yul\":4019:4025   */\n      dup4\n        /* \"#utility.yul\":4016:4017   */\n      dup2\n        /* \"#utility.yul\":4013:4026   */\n      lt\n        /* \"#utility.yul\":4005:4118   */\n      iszero\n      tag_188\n      jumpi\n        /* \"#utility.yul\":4104:4105   */\n      dup1\n        /* \"#utility.yul\":4099:4102   */\n      dup3\n        /* \"#utility.yul\":4095:4106   */\n      add\n        /* \"#utility.yul\":4089:4107   */\n      mload\n        /* \"#utility.yul\":4085:4086   */\n      dup2\n        /* \"#utility.yul\":4080:4083   */\n      dup5\n        /* \"#utility.yul\":4076:4087   */\n      add\n        /* \"#utility.yul\":4069:4108   */\n      mstore\n        /* \"#utility.yul\":4041:4043   */\n      0x20\n        /* \"#utility.yul\":4038:4039   */\n      dup2\n        /* \"#utility.yul\":4034:4044   */\n      add\n        /* \"#utility.yul\":4029:4044   */\n      swap1\n      pop\n        /* \"#utility.yul\":4005:4118   */\n      jump(tag_186)\n    tag_188:\n        /* \"#utility.yul\":4152:4153   */\n      0x00\n        /* \"#utility.yul\":4143:4149   */\n      dup5\n        /* \"#utility.yul\":4138:4141   */\n      dup5\n        /* \"#utility.yul\":4134:4150   */\n      add\n        /* \"#utility.yul\":4127:4154   */\n      mstore\n        /* \"#utility.yul\":3976:4160   */\n      pop\n        /* \"#utility.yul\":3914:4160   */\n      pop\n      pop\n      pop\n      jump\t// out\n        /* \"#utility.yul\":4166:4268   */\n    tag_106:\n        /* \"#utility.yul\":4207:4213   */\n      0x00\n        /* \"#utility.yul\":4258:4260   */\n      0x1f\n        /* \"#utility.yul\":4254:4261   */\n      not\n        /* \"#utility.yul\":4249:4251   */\n      0x1f\n        /* \"#utility.yul\":4242:4247   */\n      dup4\n        /* \"#utility.yul\":4238:4252   */\n      add\n        /* \"#utility.yul\":4234:4262   */\n      and\n        /* \"#utility.yul\":4224:4262   */\n      swap1\n      pop\n        /* \"#utility.yul\":4166:4268   */\n      swap2\n      swap1\n      pop\n      jump\t// out\n        /* \"#utility.yul\":4274:4651   */\n    tag_107:\n        /* \"#utility.yul\":4362:4365   */\n      0x00\n        /* \"#utility.yul\":4390:4429   */\n      tag_191\n        /* \"#utility.yul\":4423:4428   */\n      dup3\n        /* \"#utility.yul\":4390:4429   */\n      tag_103\n      jump\t// in\n    tag_191:\n        /* \"#utility.yul\":4445:4516   */\n      tag_192\n        /* \"#utility.yul\":4509:4515   */\n      dup2\n        /* \"#utility.yul\":4504:4507   */\n      dup6\n        /* \"#utility.yul\":4445:4516   */\n      tag_104\n      jump\t// in\n    tag_192:\n        /* \"#utility.yul\":4438:4516   */\n      swap4\n      pop\n        /* \"#utility.yul\":4525:4590   */\n      tag_193\n        /* \"#utility.yul\":4583:4589   */\n      dup2\n        /* \"#utility.yul\":4578:4581   */\n      dup6\n        /* \"#utility.yul\":4571:4575   */\n      0x20\n        /* \"#utility.yul\":4564:4569   */\n      dup7\n        /* \"#utility.yul\":4560:4576   */\n      add\n        /* \"#utility.yul\":4525:4590   */\n      tag_105\n      jump\t// in\n    tag_193:\n        /* \"#utility.yul\":4615:4644   */\n      tag_194\n        /* \"#utility.yul\":4637:4643   */\n      dup2\n        /* \"#utility.yul\":4615:4644   */\n      tag_106\n      jump\t// in\n    tag_194:\n        /* \"#utility.yul\":4610:4613   */\n      dup5\n        /* \"#utility.yul\":4606:4645   */\n      add\n        /* \"#utility.yul\":4599:4645   */\n      swap2\n      pop\n        /* \"#utility.yul\":4366:4651   */\n      pop\n        /* \"#utility.yul\":4274:4651   */\n      swap3\n      swap2\n      pop\n      pop\n      jump\t// out\n        /* \"#utility.yul\":4657:4783   */\n    tag_108:\n        /* \"#utility.yul\":4694:4701   */\n      0x00\n        /* \"#utility.yul\":4734:4776   */\n      0xffffffffffffffffffffffffffffffffffffffff\n        /* \"#utility.yul\":4727:4732   */\n      dup3\n        /* \"#utility.yul\":4723:4777   */\n      and\n        /* \"#utility.yul\":4712:4777   */\n      swap1\n      pop\n        /* \"#utility.yul\":4657:4783   */\n      swap2\n      swap1\n      pop\n      jump\t// out\n        /* \"#utility.yul\":4789:4885   */\n    tag_109:\n        /* \"#utility.yul\":4826:4833   */\n      0x00\n        /* \"#utility.yul\":4855:4879   */\n      tag_197\n        /* \"#utility.yul\":4873:4878   */\n      dup3\n        /* \"#utility.yul\":4855:4879   */\n      tag_108\n      jump\t// in\n    tag_197:\n        /* \"#utility.yul\":4844:4879   */\n      swap1\n      pop\n        /* \"#utility.yul\":4789:4885   */\n      swap2\n      swap1\n      pop\n      jump\t// out\n        /* \"#utility.yul\":4891:5009   */\n    tag_110:\n        /* \"#utility.yul\":4978:5002   */\n      tag_199\n        /* \"#utility.yul\":4996:5001   */\n      dup2\n        /* \"#utility.yul\":4978:5002   */\n      tag_109\n      jump\t// in\n    tag_199:\n        /* \"#utility.yul\":4973:4976   */\n      dup3\n        /* \"#utility.yul\":4966:5003   */\n      mstore\n        /* \"#utility.yul\":4891:5009   */\n      pop\n      pop\n      jump\t// out\n        /* \"#utility.yul\":5015:6150   */\n    tag_20:\n        /* \"#utility.yul\":5324:5328   */\n      0x00\n        /* \"#utility.yul\":5362:5365   */\n      0xe0\n        /* \"#utility.yul\":5351:5360   */\n      dup3\n        /* \"#utility.yul\":5347:5366   */\n      add\n        /* \"#utility.yul\":5339:5366   */\n      swap1\n      pop\n        /* \"#utility.yul\":5376:5447   */\n      tag_201\n        /* \"#utility.yul\":5444:5445   */\n      0x00\n        /* \"#utility.yul\":5433:5442   */\n      dup4\n        /* \"#utility.yul\":5429:5446   */\n      add\n        /* \"#utility.yul\":5420:5426   */\n      dup11\n        /* \"#utility.yul\":5376:5447   */\n      tag_100\n      jump\t// in\n    tag_201:\n        /* \"#utility.yul\":5457:5523   */\n      tag_202\n        /* \"#utility.yul\":5519:5521   */\n      0x20\n        /* \"#utility.yul\":5508:5517   */\n      dup4\n        /* \"#utility.yul\":5504:5522   */\n      add\n        /* \"#utility.yul\":5495:5501   */\n      dup10\n        /* \"#utility.yul\":5457:5523   */\n      tag_102\n      jump\t// in\n    tag_202:\n        /* \"#utility.yul\":5533:5599   */\n      tag_203\n        /* \"#utility.yul\":5595:5597   */\n      0x40\n        /* \"#utility.yul\":5584:5593   */\n      dup4\n        /* \"#utility.yul\":5580:5598   */\n      add\n        /* \"#utility.yul\":5571:5577   */\n      dup9\n        /* \"#utility.yul\":5533:5599   */\n      tag_102\n      jump\t// in\n    tag_203:\n        /* \"#utility.yul\":5646:5655   */\n      dup2\n        /* \"#utility.yul\":5640:5644   */\n      dup2\n        /* \"#utility.yul\":5636:5656   */\n      sub\n        /* \"#utility.yul\":5631:5633   */\n      0x60\n        /* \"#utility.yul\":5620:5629   */\n      dup4\n        /* \"#utility.yul\":5616:5634   */\n      add\n        /* \"#utility.yul\":5609:5657   */\n      mstore\n        /* \"#utility.yul\":5674:5752   */\n      tag_204\n        /* \"#utility.yul\":5747:5751   */\n      dup2\n        /* \"#utility.yul\":5738:5744   */\n      dup8\n        /* \"#utility.yul\":5674:5752   */\n      tag_107\n      jump\t// in\n    tag_204:\n        /* \"#utility.yul\":5666:5752   */\n      swap1\n      pop\n        /* \"#utility.yul\":5762:5835   */\n      tag_205\n        /* \"#utility.yul\":5830:5833   */\n      0x80\n        /* \"#utility.yul\":5819:5828   */\n      dup4\n        /* \"#utility.yul\":5815:5834   */\n      add\n        /* \"#utility.yul\":5806:5812   */\n      dup7\n        /* \"#utility.yul\":5762:5835   */\n      tag_110\n      jump\t// in\n    tag_205:\n        /* \"#utility.yul\":5883:5892   */\n      dup2\n        /* \"#utility.yul\":5877:5881   */\n      dup2\n        /* \"#utility.yul\":5873:5893   */\n      sub\n        /* \"#utility.yul\":5867:5870   */\n      0xa0\n        /* \"#utility.yul\":5856:5865   */\n      dup4\n        /* \"#utility.yul\":5852:5871   */\n      add\n        /* \"#utility.yul\":5845:5894   */\n      mstore\n        /* \"#utility.yul\":5911:5989   */\n      tag_206\n        /* \"#utility.yul\":5984:5988   */\n      dup2\n        /* \"#utility.yul\":5975:5981   */\n      dup6\n        /* \"#utility.yul\":5911:5989   */\n      tag_107\n      jump\t// in\n    tag_206:\n        /* \"#utility.yul\":5903:5989   */\n      swap1\n      pop\n        /* \"#utility.yul\":6037:6046   */\n      dup2\n        /* \"#utility.yul\":6031:6035   */\n      dup2\n        /* \"#utility.yul\":6027:6047   */\n      sub\n        /* \"#utility.yul\":6021:6024   */\n      0xc0\n        /* \"#utility.yul\":6010:6019   */\n      dup4\n        /* \"#utility.yul\":6006:6025   */\n      add\n        /* \"#utility.yul\":5999:6048   */\n      mstore\n        /* \"#utility.yul\":6065:6143   */\n      tag_207\n        /* \"#utility.yul\":6138:6142   */\n      dup2\n        /* \"#utility.yul\":6129:6135   */\n      dup5\n        /* \"#utility.yul\":6065:6143   */\n      tag_107\n      jump\t// in\n    tag_207:\n        /* \"#utility.yul\":6057:6143   */\n      swap1\n      pop\n        /* \"#utility.yul\":5015:6150   */\n      swap9\n      swap8\n      pop\n      pop\n      pop\n      pop\n      pop\n      pop\n      pop\n      pop\n      jump\t// out\n        /* \"#utility.yul\":6156:6273   */\n    tag_111:\n        /* \"#utility.yul\":6265:6266   */\n      0x00\n        /* \"#utility.yul\":6262:6263   */\n      dup1\n        /* \"#utility.yul\":6255:6267   */\n      revert\n        /* \"#utility.yul\":6279:6396   */\n    tag_112:\n        /* \"#utility.yul\":6388:6389   */\n      0x00\n        /* \"#utility.yul\":6385:6386   */\n      dup1\n        /* \"#utility.yul\":6378:6390   */\n      revert\n        /* \"#utility.yul\":6402:6582   */\n    tag_113:\n        /* \"#utility.yul\":6450:6527   */\n      0x4e487b7100000000000000000000000000000000000000000000000000000000\n        /* \"#utility.yul\":6447:6448   */\n      0x00\n        /* \"#utility.yul\":6440:6528   */\n      mstore\n        /* \"#utility.yul\":6547:6551   */\n      0x41\n        /* \"#utility.yul\":6544:6545   */\n      0x04\n        /* \"#utility.yul\":6537:6552   */\n      mstore\n        /* \"#utility.yul\":6571:6575   */\n      0x24\n        /* \"#utility.yul\":6568:6569   */\n      0x00\n        /* \"#utility.yul\":6561:6576   */\n      revert\n        /* \"#utility.yul\":6588:6869   */\n    tag_114:\n        /* \"#utility.yul\":6671:6698   */\n      tag_212\n        /* \"#utility.yul\":6693:6697   */\n      dup3\n        /* \"#utility.yul\":6671:6698   */\n      tag_106\n      jump\t// in\n    tag_212:\n        /* \"#utility.yul\":6663:6669   */\n      dup2\n        /* \"#utility.yul\":6659:6699   */\n      add\n        /* \"#utility.yul\":6801:6807   */\n      dup2\n        /* \"#utility.yul\":6789:6799   */\n      dup2\n        /* \"#utility.yul\":6786:6808   */\n      lt\n        /* \"#utility.yul\":6765:6783   */\n      0xffffffffffffffff\n        /* \"#utility.yul\":6753:6763   */\n      dup3\n        /* \"#utility.yul\":6750:6784   */\n      gt\n        /* \"#utility.yul\":6747:6809   */\n      or\n        /* \"#utility.yul\":6744:6832   */\n      iszero\n      tag_213\n      jumpi\n        /* \"#utility.yul\":6812:6830   */\n      tag_214\n      tag_113\n      jump\t// in\n    tag_214:\n        /* \"#utility.yul\":6744:6832   */\n    tag_213:\n        /* \"#utility.yul\":6852:6862   */\n      dup1\n        /* \"#utility.yul\":6848:6850   */\n      0x40\n        /* \"#utility.yul\":6841:6863   */\n      mstore\n        /* \"#utility.yul\":6631:6869   */\n      pop\n        /* \"#utility.yul\":6588:6869   */\n      pop\n      pop\n      jump\t// out\n        /* \"#utility.yul\":6875:7004   */\n    tag_115:\n        /* \"#utility.yul\":6909:6915   */\n      0x00\n        /* \"#utility.yul\":6936:6956   */\n      tag_216\n      tag_87\n      jump\t// in\n    tag_216:\n        /* \"#utility.yul\":6926:6956   */\n      swap1\n      pop\n        /* \"#utility.yul\":6965:6998   */\n      tag_217\n        /* \"#utility.yul\":6993:6997   */\n      dup3\n        /* \"#utility.yul\":6985:6991   */\n      dup3\n        /* \"#utility.yul\":6965:6998   */\n      tag_114\n      jump\t// in\n    tag_217:\n        /* \"#utility.yul\":6875:7004   */\n      swap2\n      swap1\n      pop\n      jump\t// out\n        /* \"#utility.yul\":7010:7318   */\n    tag_116:\n        /* \"#utility.yul\":7072:7076   */\n      0x00\n        /* \"#utility.yul\":7162:7180   */\n      0xffffffffffffffff\n        /* \"#utility.yul\":7154:7160   */\n      dup3\n        /* \"#utility.yul\":7151:7181   */\n      gt\n        /* \"#utility.yul\":7148:7204   */\n      iszero\n      tag_219\n      jumpi\n        /* \"#utility.yul\":7184:7202   */\n      tag_220\n      tag_113\n      jump\t// in\n    tag_220:\n        /* \"#utility.yul\":7148:7204   */\n    tag_219:\n        /* \"#utility.yul\":7222:7251   */\n      tag_221\n        /* \"#utility.yul\":7244:7250   */\n      dup3\n        /* \"#utility.yul\":7222:7251   */\n      tag_106\n      jump\t// in\n    tag_221:\n        /* \"#utility.yul\":7214:7251   */\n      swap1\n      pop\n        /* \"#utility.yul\":7306:7310   */\n      0x20\n        /* \"#utility.yul\":7300:7304   */\n      dup2\n        /* \"#utility.yul\":7296:7311   */\n      add\n        /* \"#utility.yul\":7288:7311   */\n      swap1\n      pop\n        /* \"#utility.yul\":7010:7318   */\n      swap2\n      swap1\n      pop\n      jump\t// out\n        /* \"#utility.yul\":7324:7470   */\n    tag_117:\n        /* \"#utility.yul\":7421:7427   */\n      dup3\n        /* \"#utility.yul\":7416:7419   */\n      dup2\n        /* \"#utility.yul\":7411:7414   */\n      dup4\n        /* \"#utility.yul\":7398:7428   */\n      calldatacopy\n        /* \"#utility.yul\":7462:7463   */\n      0x00\n        /* \"#utility.yul\":7453:7459   */\n      dup4\n        /* \"#utility.yul\":7448:7451   */\n      dup4\n        /* \"#utility.yul\":7444:7460   */\n      add\n        /* \"#utility.yul\":7437:7464   */\n      mstore\n        /* \"#utility.yul\":7324:7470   */\n      pop\n      pop\n      pop\n      jump\t// out\n        /* \"#utility.yul\":7476:7901   */\n    tag_118:\n        /* \"#utility.yul\":7554:7559   */\n      0x00\n        /* \"#utility.yul\":7579:7645   */\n      tag_224\n        /* \"#utility.yul\":7595:7644   */\n      tag_225\n        /* \"#utility.yul\":7637:7643   */\n      dup5\n        /* \"#utility.yul\":7595:7644   */\n      tag_116\n      jump\t// in\n    tag_225:\n        /* \"#utility.yul\":7579:7645   */\n      tag_115\n      jump\t// in\n    tag_224:\n        /* \"#utility.yul\":7570:7645   */\n      swap1\n      pop\n        /* \"#utility.yul\":7668:7674   */\n      dup3\n        /* \"#utility.yul\":7661:7666   */\n      dup2\n        /* \"#utility.yul\":7654:7675   */\n      mstore\n        /* \"#utility.yul\":7706:7710   */\n      0x20\n        /* \"#utility.yul\":7699:7704   */\n      dup2\n        /* \"#utility.yul\":7695:7711   */\n      add\n        /* \"#utility.yul\":7744:7747   */\n      dup5\n        /* \"#utility.yul\":7735:7741   */\n      dup5\n        /* \"#utility.yul\":7730:7733   */\n      dup5\n        /* \"#utility.yul\":7726:7742   */\n      add\n        /* \"#utility.yul\":7723:7748   */\n      gt\n        /* \"#utility.yul\":7720:7832   */\n      iszero\n      tag_226\n      jumpi\n        /* \"#utility.yul\":7751:7830   */\n      tag_227\n      tag_112\n      jump\t// in\n    tag_227:\n        /* \"#utility.yul\":7720:7832   */\n    tag_226:\n        /* \"#utility.yul\":7841:7895   */\n      tag_228\n        /* \"#utility.yul\":7888:7894   */\n      dup5\n        /* \"#utility.yul\":7883:7886   */\n      dup3\n        /* \"#utility.yul\":7878:7881   */\n      dup6\n        /* \"#utility.yul\":7841:7895   */\n      tag_117\n      jump\t// in\n    tag_228:\n        /* \"#utility.yul\":7560:7901   */\n      pop\n        /* \"#utility.yul\":7476:7901   */\n      swap4\n      swap3\n      pop\n      pop\n      pop\n      jump\t// out\n        /* \"#utility.yul\":7921:8261   */\n    tag_119:\n        /* \"#utility.yul\":7977:7982   */\n      0x00\n        /* \"#utility.yul\":8026:8029   */\n      dup3\n        /* \"#utility.yul\":8019:8023   */\n      0x1f\n        /* \"#utility.yul\":8011:8017   */\n      dup4\n        /* \"#utility.yul\":8007:8024   */\n      add\n        /* \"#utility.yul\":8003:8030   */\n      slt\n        /* \"#utility.yul\":7993:8115   */\n      tag_230\n      jumpi\n        /* \"#utility.yul\":8034:8113   */\n      tag_231\n      tag_111\n      jump\t// in\n    tag_231:\n        /* \"#utility.yul\":7993:8115   */\n    tag_230:\n        /* \"#utility.yul\":8151:8157   */\n      dup2\n        /* \"#utility.yul\":8138:8158   */\n      calldataload\n        /* \"#utility.yul\":8176:8255   */\n      tag_232\n        /* \"#utility.yul\":8251:8254   */\n      dup5\n        /* \"#utility.yul\":8243:8249   */\n      dup3\n        /* \"#utility.yul\":8236:8240   */\n      0x20\n        /* \"#utility.yul\":8228:8234   */\n      dup7\n        /* \"#utility.yul\":8224:8241   */\n      add\n        /* \"#utility.yul\":8176:8255   */\n      tag_118\n      jump\t// in\n    tag_232:\n        /* \"#utility.yul\":8167:8255   */\n      swap2\n      pop\n        /* \"#utility.yul\":7983:8261   */\n      pop\n        /* \"#utility.yul\":7921:8261   */\n      swap3\n      swap2\n      pop\n      pop\n      jump\t// out\n        /* \"#utility.yul\":8267:8383   */\n    tag_120:\n        /* \"#utility.yul\":8337:8358   */\n      tag_234\n        /* \"#utility.yul\":8352:8357   */\n      dup2\n        /* \"#utility.yul\":8337:8358   */\n      tag_101\n      jump\t// in\n    tag_234:\n        /* \"#utility.yul\":8330:8335   */\n      dup2\n        /* \"#utility.yul\":8327:8359   */\n      eq\n        /* \"#utility.yul\":8317:8377   */\n      tag_235\n      jumpi\n        /* \"#utility.yul\":8373:8374   */\n      0x00\n        /* \"#utility.yul\":8370:8371   */\n      dup1\n        /* \"#utility.yul\":8363:8375   */\n      revert\n        /* \"#utility.yul\":8317:8377   */\n    tag_235:\n        /* \"#utility.yul\":8267:8383   */\n      pop\n      jump\t// out\n        /* \"#utility.yul\":8389:8522   */\n    tag_121:\n        /* \"#utility.yul\":8432:8437   */\n      0x00\n        /* \"#utility.yul\":8470:8476   */\n      dup2\n        /* \"#utility.yul\":8457:8477   */\n      calldataload\n        /* \"#utility.yul\":8448:8477   */\n      swap1\n      pop\n        /* \"#utility.yul\":8486:8516   */\n      tag_237\n        /* \"#utility.yul\":8510:8515   */\n      dup2\n        /* \"#utility.yul\":8486:8516   */\n      tag_120\n      jump\t// in\n    tag_237:\n        /* \"#utility.yul\":8389:8522   */\n      swap3\n      swap2\n      pop\n      pop\n      jump\t// out\n        /* \"#utility.yul\":8528:10119   */\n    tag_24:\n        /* \"#utility.yul\":8659:8665   */\n      0x00\n        /* \"#utility.yul\":8667:8673   */\n      dup1\n        /* \"#utility.yul\":8675:8681   */\n      0x00\n        /* \"#utility.yul\":8683:8689   */\n      dup1\n        /* \"#utility.yul\":8691:8697   */\n      0x00\n        /* \"#utility.yul\":8699:8705   */\n      dup1\n        /* \"#utility.yul\":8748:8751   */\n      0xc0\n        /* \"#utility.yul\":8736:8745   */\n      dup8\n        /* \"#utility.yul\":8727:8734   */\n      dup10\n        /* \"#utility.yul\":8723:8746   */\n      sub\n        /* \"#utility.yul\":8719:8752   */\n      slt\n        /* \"#utility.yul\":8716:8836   */\n      iszero\n      tag_239\n      jumpi\n        /* \"#utility.yul\":8755:8834   */\n      tag_240\n      tag_88\n      jump\t// in\n    tag_240:\n        /* \"#utility.yul\":8716:8836   */\n    tag_239:\n        /* \"#utility.yul\":8875:8876   */\n      0x00\n        /* \"#utility.yul\":8900:8953   */\n      tag_241\n        /* \"#utility.yul\":8945:8952   */\n      dup10\n        /* \"#utility.yul\":8936:8942   */\n      dup3\n        /* \"#utility.yul\":8925:8934   */\n      dup11\n        /* \"#utility.yul\":8921:8943   */\n      add\n        /* \"#utility.yul\":8900:8953   */\n      tag_92\n      jump\t// in\n    tag_241:\n        /* \"#utility.yul\":8890:8953   */\n      swap7\n      pop\n        /* \"#utility.yul\":8846:8963   */\n      pop\n        /* \"#utility.yul\":9002:9004   */\n      0x20\n        /* \"#utility.yul\":9028:9081   */\n      tag_242\n        /* \"#utility.yul\":9073:9080   */\n      dup10\n        /* \"#utility.yul\":9064:9070   */\n      dup3\n        /* \"#utility.yul\":9053:9062   */\n      dup11\n        /* \"#utility.yul\":9049:9071   */\n      add\n        /* \"#utility.yul\":9028:9081   */\n      tag_92\n      jump\t// in\n    tag_242:\n        /* \"#utility.yul\":9018:9081   */\n      swap6\n      pop\n        /* \"#utility.yul\":8973:9091   */\n      pop\n        /* \"#utility.yul\":9158:9160   */\n      0x40\n        /* \"#utility.yul\":9147:9156   */\n      dup8\n        /* \"#utility.yul\":9143:9161   */\n      add\n        /* \"#utility.yul\":9130:9162   */\n      calldataload\n        /* \"#utility.yul\":9189:9207   */\n      0xffffffffffffffff\n        /* \"#utility.yul\":9181:9187   */\n      dup2\n        /* \"#utility.yul\":9178:9208   */\n      gt\n        /* \"#utility.yul\":9175:9292   */\n      iszero\n      tag_243\n      jumpi\n        /* \"#utility.yul\":9211:9290   */\n      tag_244\n      tag_89\n      jump\t// in\n    tag_244:\n        /* \"#utility.yul\":9175:9292   */\n    tag_243:\n        /* \"#utility.yul\":9316:9379   */\n      tag_245\n        /* \"#utility.yul\":9371:9378   */\n      dup10\n        /* \"#utility.yul\":9362:9368   */\n      dup3\n        /* \"#utility.yul\":9351:9360   */\n      dup11\n        /* \"#utility.yul\":9347:9369   */\n      add\n        /* \"#utility.yul\":9316:9379   */\n      tag_119\n      jump\t// in\n    tag_245:\n        /* \"#utility.yul\":9306:9379   */\n      swap5\n      pop\n        /* \"#utility.yul\":9101:9389   */\n      pop\n        /* \"#utility.yul\":9456:9458   */\n      0x60\n        /* \"#utility.yul\":9445:9454   */\n      dup8\n        /* \"#utility.yul\":9441:9459   */\n      add\n        /* \"#utility.yul\":9428:9460   */\n      calldataload\n        /* \"#utility.yul\":9487:9505   */\n      0xffffffffffffffff\n        /* \"#utility.yul\":9479:9485   */\n      dup2\n        /* \"#utility.yul\":9476:9506   */\n      gt\n        /* \"#utility.yul\":9473:9590   */\n      iszero\n      tag_246\n      jumpi\n        /* \"#utility.yul\":9509:9588   */\n      tag_247\n      tag_89\n      jump\t// in\n    tag_247:\n        /* \"#utility.yul\":9473:9590   */\n    tag_246:\n        /* \"#utility.yul\":9614:9677   */\n      tag_248\n        /* \"#utility.yul\":9669:9676   */\n      dup10\n        /* \"#utility.yul\":9660:9666   */\n      dup3\n        /* \"#utility.yul\":9649:9658   */\n      dup11\n        /* \"#utility.yul\":9645:9667   */\n      add\n        /* \"#utility.yul\":9614:9677   */\n      tag_119\n      jump\t// in\n    tag_248:\n        /* \"#utility.yul\":9604:9677   */\n      swap4\n      pop\n        /* \"#utility.yul\":9399:9687   */\n      pop\n        /* \"#utility.yul\":9754:9757   */\n      0x80\n        /* \"#utility.yul\":9743:9752   */\n      dup8\n        /* \"#utility.yul\":9739:9758   */\n      add\n        /* \"#utility.yul\":9726:9759   */\n      calldataload\n        /* \"#utility.yul\":9786:9804   */\n      0xffffffffffffffff\n        /* \"#utility.yul\":9778:9784   */\n      dup2\n        /* \"#utility.yul\":9775:9805   */\n      gt\n        /* \"#utility.yul\":9772:9889   */\n      iszero\n      tag_249\n      jumpi\n        /* \"#utility.yul\":9808:9887   */\n      tag_250\n      tag_89\n      jump\t// in\n    tag_250:\n        /* \"#utility.yul\":9772:9889   */\n    tag_249:\n        /* \"#utility.yul\":9913:9976   */\n      tag_251\n        /* \"#utility.yul\":9968:9975   */\n      dup10\n        /* \"#utility.yul\":9959:9965   */\n      dup3\n        /* \"#utility.yul\":9948:9957   */\n      dup11\n        /* \"#utility.yul\":9944:9966   */\n      add\n        /* \"#utility.yul\":9913:9976   */\n      tag_119\n      jump\t// in\n    tag_251:\n        /* \"#utility.yul\":9903:9976   */\n      swap3\n      pop\n        /* \"#utility.yul\":9697:9986   */\n      pop\n        /* \"#utility.yul\":10025:10028   */\n      0xa0\n        /* \"#utility.yul\":10052:10102   */\n      tag_252\n        /* \"#utility.yul\":10094:10101   */\n      dup10\n        /* \"#utility.yul\":10085:10091   */\n      dup3\n        /* \"#utility.yul\":10074:10083   */\n      dup11\n        /* \"#utility.yul\":10070:10092   */\n      add\n        /* \"#utility.yul\":10052:10102   */\n      tag_121\n      jump\t// in\n    tag_252:\n        /* \"#utility.yul\":10042:10102   */\n      swap2\n      pop\n        /* \"#utility.yul\":9996:10112   */\n      pop\n        /* \"#utility.yul\":8528:10119   */\n      swap3\n      swap6\n      pop\n      swap3\n      swap6\n      pop\n      swap3\n      swap6\n      jump\t// out\n        /* \"#utility.yul\":10125:10305   */\n    tag_122:\n        /* \"#utility.yul\":10265:10297   */\n      0x746869732070726f7065727479206973206e6f7420617661696c61626c650000\n        /* \"#utility.yul\":10261:10262   */\n      0x00\n        /* \"#utility.yul\":10253:10259   */\n      dup3\n        /* \"#utility.yul\":10249:10263   */\n      add\n        /* \"#utility.yul\":10242:10298   */\n      mstore\n        /* \"#utility.yul\":10125:10305   */\n      pop\n      jump\t// out\n        /* \"#utility.yul\":10311:10677   */\n    tag_123:\n        /* \"#utility.yul\":10453:10456   */\n      0x00\n        /* \"#utility.yul\":10474:10541   */\n      tag_255\n        /* \"#utility.yul\":10538:10540   */\n      0x1e\n        /* \"#utility.yul\":10533:10536   */\n      dup4\n        /* \"#utility.yul\":10474:10541   */\n      tag_104\n      jump\t// in\n    tag_255:\n        /* \"#utility.yul\":10467:10541   */\n      swap2\n      pop\n        /* \"#utility.yul\":10550:10643   */\n      tag_256\n        /* \"#utility.yul\":10639:10642   */\n      dup3\n        /* \"#utility.yul\":10550:10643   */\n      tag_122\n      jump\t// in\n    tag_256:\n        /* \"#utility.yul\":10668:10670   */\n      0x20\n        /* \"#utility.yul\":10663:10666   */\n      dup3\n        /* \"#utility.yul\":10659:10671   */\n      add\n        /* \"#utility.yul\":10652:10671   */\n      swap1\n      pop\n        /* \"#utility.yul\":10311:10677   */\n      swap2\n      swap1\n      pop\n      jump\t// out\n        /* \"#utility.yul\":10683:11102   */\n    tag_29:\n        /* \"#utility.yul\":10849:10853   */\n      0x00\n        /* \"#utility.yul\":10887:10889   */\n      0x20\n        /* \"#utility.yul\":10876:10885   */\n      dup3\n        /* \"#utility.yul\":10872:10890   */\n      add\n        /* \"#utility.yul\":10864:10890   */\n      swap1\n      pop\n        /* \"#utility.yul\":10936:10945   */\n      dup2\n        /* \"#utility.yul\":10930:10934   */\n      dup2\n        /* \"#utility.yul\":10926:10946   */\n      sub\n        /* \"#utility.yul\":10922:10923   */\n      0x00\n        /* \"#utility.yul\":10911:10920   */\n      dup4\n        /* \"#utility.yul\":10907:10924   */\n      add\n        /* \"#utility.yul\":10900:10947   */\n      mstore\n        /* \"#utility.yul\":10964:11095   */\n      tag_258\n        /* \"#utility.yul\":11090:11094   */\n      dup2\n        /* \"#utility.yul\":10964:11095   */\n      tag_123\n      jump\t// in\n    tag_258:\n        /* \"#utility.yul\":10956:11095   */\n      swap1\n      pop\n        /* \"#utility.yul\":10683:11102   */\n      swap2\n      swap1\n      pop\n      jump\t// out\n        /* \"#utility.yul\":11108:11276   */\n    tag_124:\n        /* \"#utility.yul\":11248:11268   */\n      0x496e73756666696369616e742066756e64730000000000000000000000000000\n        /* \"#utility.yul\":11244:11245   */\n      0x00\n        /* \"#utility.yul\":11236:11242   */\n      dup3\n        /* \"#utility.yul\":11232:11246   */\n      add\n        /* \"#utility.yul\":11225:11269   */\n      mstore\n        /* \"#utility.yul\":11108:11276   */\n      pop\n      jump\t// out\n        /* \"#utility.yul\":11282:11648   */\n    tag_125:\n        /* \"#utility.yul\":11424:11427   */\n      0x00\n        /* \"#utility.yul\":11445:11512   */\n      tag_261\n        /* \"#utility.yul\":11509:11511   */\n      0x12\n        /* \"#utility.yul\":11504:11507   */\n      dup4\n        /* \"#utility.yul\":11445:11512   */\n      tag_104\n      jump\t// in\n    tag_261:\n        /* \"#utility.yul\":11438:11512   */\n      swap2\n      pop\n        /* \"#utility.yul\":11521:11614   */\n      tag_262\n        /* \"#utility.yul\":11610:11613   */\n      dup3\n        /* \"#utility.yul\":11521:11614   */\n      tag_124\n      jump\t// in\n    tag_262:\n        /* \"#utility.yul\":11639:11641   */\n      0x20\n        /* \"#utility.yul\":11634:11637   */\n      dup3\n        /* \"#utility.yul\":11630:11642   */\n      add\n        /* \"#utility.yul\":11623:11642   */\n      swap1\n      pop\n        /* \"#utility.yul\":11282:11648   */\n      swap2\n      swap1\n      pop\n      jump\t// out\n        /* \"#utility.yul\":11654:12073   */\n    tag_32:\n        /* \"#utility.yul\":11820:11824   */\n      0x00\n        /* \"#utility.yul\":11858:11860   */\n      0x20\n        /* \"#utility.yul\":11847:11856   */\n      dup3\n        /* \"#utility.yul\":11843:11861   */\n      add\n        /* \"#utility.yul\":11835:11861   */\n      swap1\n      pop\n        /* \"#utility.yul\":11907:11916   */\n      dup2\n        /* \"#utility.yul\":11901:11905   */\n      dup2\n        /* \"#utility.yul\":11897:11917   */\n      sub\n        /* \"#utility.yul\":11893:11894   */\n      0x00\n        /* \"#utility.yul\":11882:11891   */\n      dup4\n        /* \"#utility.yul\":11878:11895   */\n      add\n        /* \"#utility.yul\":11871:11918   */\n      mstore\n        /* \"#utility.yul\":11935:12066   */\n      tag_264\n        /* \"#utility.yul\":12061:12065   */\n      dup2\n        /* \"#utility.yul\":11935:12066   */\n      tag_125\n      jump\t// in\n    tag_264:\n        /* \"#utility.yul\":11927:12066   */\n      swap1\n      pop\n        /* \"#utility.yul\":11654:12073   */\n      swap2\n      swap1\n      pop\n      jump\t// out\n        /* \"#utility.yul\":12079:12301   */\n    tag_36:\n        /* \"#utility.yul\":12172:12176   */\n      0x00\n        /* \"#utility.yul\":12210:12212   */\n      0x20\n        /* \"#utility.yul\":12199:12208   */\n      dup3\n        /* \"#utility.yul\":12195:12213   */\n      add\n        /* \"#utility.yul\":12187:12213   */\n      swap1\n      pop\n        /* \"#utility.yul\":12223:12294   */\n      tag_266\n        /* \"#utility.yul\":12291:12292   */\n      0x00\n        /* \"#utility.yul\":12280:12289   */\n      dup4\n        /* \"#utility.yul\":12276:12293   */\n      add\n        /* \"#utility.yul\":12267:12273   */\n      dup5\n        /* \"#utility.yul\":12223:12294   */\n      tag_100\n      jump\t// in\n    tag_266:\n        /* \"#utility.yul\":12079:12301   */\n      swap3\n      swap2\n      pop\n      pop\n      jump\t// out\n        /* \"#utility.yul\":12307:12487   */\n    tag_126:\n        /* \"#utility.yul\":12355:12432   */\n      0x4e487b7100000000000000000000000000000000000000000000000000000000\n        /* \"#utility.yul\":12352:12353   */\n      0x00\n        /* \"#utility.yul\":12345:12433   */\n      mstore\n        /* \"#utility.yul\":12452:12456   */\n      0x22\n        /* \"#utility.yul\":12449:12450   */\n      0x04\n        /* \"#utility.yul\":12442:12457   */\n      mstore\n        /* \"#utility.yul\":12476:12480   */\n      0x24\n        /* \"#utility.yul\":12473:12474   */\n      0x00\n        /* \"#utility.yul\":12466:12481   */\n      revert\n        /* \"#utility.yul\":12493:12813   */\n    tag_43:\n        /* \"#utility.yul\":12537:12543   */\n      0x00\n        /* \"#utility.yul\":12574:12575   */\n      0x02\n        /* \"#utility.yul\":12568:12572   */\n      dup3\n        /* \"#utility.yul\":12564:12576   */\n      div\n        /* \"#utility.yul\":12554:12576   */\n      swap1\n      pop\n        /* \"#utility.yul\":12621:12622   */\n      0x01\n        /* \"#utility.yul\":12615:12619   */\n      dup3\n        /* \"#utility.yul\":12611:12623   */\n      and\n        /* \"#utility.yul\":12642:12660   */\n      dup1\n        /* \"#utility.yul\":12632:12713   */\n      tag_269\n      jumpi\n        /* \"#utility.yul\":12698:12702   */\n      0x7f\n        /* \"#utility.yul\":12690:12696   */\n      dup3\n        /* \"#utility.yul\":12686:12703   */\n      and\n        /* \"#utility.yul\":12676:12703   */\n      swap2\n      pop\n        /* \"#utility.yul\":12632:12713   */\n    tag_269:\n        /* \"#utility.yul\":12760:12762   */\n      0x20\n        /* \"#utility.yul\":12752:12758   */\n      dup3\n        /* \"#utility.yul\":12749:12763   */\n      lt\n        /* \"#utility.yul\":12729:12747   */\n      dup2\n        /* \"#utility.yul\":12726:12764   */\n      sub\n        /* \"#utility.yul\":12723:12807   */\n      tag_270\n      jumpi\n        /* \"#utility.yul\":12779:12797   */\n      tag_271\n      tag_126\n      jump\t// in\n    tag_271:\n        /* \"#utility.yul\":12723:12807   */\n    tag_270:\n        /* \"#utility.yul\":12544:12813   */\n      pop\n        /* \"#utility.yul\":12493:12813   */\n      swap2\n      swap1\n      pop\n      jump\t// out\n        /* \"#utility.yul\":12819:12960   */\n    tag_127:\n        /* \"#utility.yul\":12868:12872   */\n      0x00\n        /* \"#utility.yul\":12891:12894   */\n      dup2\n        /* \"#utility.yul\":12883:12894   */\n      swap1\n      pop\n        /* \"#utility.yul\":12914:12917   */\n      dup2\n        /* \"#utility.yul\":12911:12912   */\n      0x00\n        /* \"#utility.yul\":12904:12918   */\n      mstore\n        /* \"#utility.yul\":12948:12952   */\n      0x20\n        /* \"#utility.yul\":12945:12946   */\n      0x00\n        /* \"#utility.yul\":12935:12953   */\n      keccak256\n        /* \"#utility.yul\":12927:12953   */\n      swap1\n      pop\n        /* \"#utility.yul\":12819:12960   */\n      swap2\n      swap1\n      pop\n      jump\t// out\n        /* \"#utility.yul\":12966:13059   */\n    tag_128:\n        /* \"#utility.yul\":13003:13009   */\n      0x00\n        /* \"#utility.yul\":13050:13052   */\n      0x20\n        /* \"#utility.yul\":13045:13047   */\n      0x1f\n        /* \"#utility.yul\":13038:13043   */\n      dup4\n        /* \"#utility.yul\":13034:13048   */\n      add\n        /* \"#utility.yul\":13030:13053   */\n      div\n        /* \"#utility.yul\":13020:13053   */\n      swap1\n      pop\n        /* \"#utility.yul\":12966:13059   */\n      swap2\n      swap1\n      pop\n      jump\t// out\n        /* \"#utility.yul\":13065:13172   */\n    tag_129:\n        /* \"#utility.yul\":13109:13117   */\n      0x00\n        /* \"#utility.yul\":13159:13164   */\n      dup3\n        /* \"#utility.yul\":13153:13157   */\n      dup3\n        /* \"#utility.yul\":13149:13165   */\n      shl\n        /* \"#utility.yul\":13128:13165   */\n      swap1\n      pop\n        /* \"#utility.yul\":13065:13172   */\n      swap3\n      swap2\n      pop\n      pop\n      jump\t// out\n        /* \"#utility.yul\":13178:13571   */\n    tag_130:\n        /* \"#utility.yul\":13247:13253   */\n      0x00\n        /* \"#utility.yul\":13297:13298   */\n      0x08\n        /* \"#utility.yul\":13285:13295   */\n      dup4\n        /* \"#utility.yul\":13281:13299   */\n      mul\n        /* \"#utility.yul\":13320:13417   */\n      tag_276\n        /* \"#utility.yul\":13350:13416   */\n      0xffffffffffffffffffffffffffffffffffffffffffffffffffffffffffffffff\n        /* \"#utility.yul\":13339:13348   */\n      dup3\n        /* \"#utility.yul\":13320:13417   */\n      tag_129\n      jump\t// in\n    tag_276:\n        /* \"#utility.yul\":13438:13477   */\n      tag_277\n        /* \"#utility.yul\":13468:13476   */\n      dup7\n        /* \"#utility.yul\":13457:13466   */\n      dup4\n        /* \"#utility.yul\":13438:13477   */\n      tag_129\n      jump\t// in\n    tag_277:\n        /* \"#utility.yul\":13426:13477   */\n      swap6\n      pop\n        /* \"#utility.yul\":13510:13514   */\n      dup1\n        /* \"#utility.yul\":13506:13515   */\n      not\n        /* \"#utility.yul\":13499:13504   */\n      dup5\n        /* \"#utility.yul\":13495:13516   */\n      and\n        /* \"#utility.yul\":13486:13516   */\n      swap4\n      pop\n        /* \"#utility.yul\":13559:13563   */\n      dup1\n        /* \"#utility.yul\":13549:13557   */\n      dup7\n        /* \"#utility.yul\":13545:13564   */\n      and\n        /* \"#utility.yul\":13538:13543   */\n      dup5\n        /* \"#utility.yul\":13535:13565   */\n      or\n        /* \"#utility.yul\":13525:13565   */\n      swap3\n      pop\n        /* \"#utility.yul\":13254:13571   */\n      pop\n      pop\n        /* \"#utility.yul\":13178:13571   */\n      swap4\n      swap3\n      pop\n      pop\n      pop\n      jump\t// out\n        /* \"#utility.yul\":13577:13637   */\n    tag_131:\n        /* \"#utility.yul\":13605:13608   */\n      0x00\n        /* \"#utility.yul\":13626:13631   */\n      dup2\n        /* \"#utility.yul\":13619:13631   */\n      swap1\n      pop\n        /* \"#utility.yul\":13577:13637   */\n      swap2\n      swap1\n      pop\n      jump\t// out\n        /* \"#utility.yul\":13643:13785   */\n    tag_132:\n        /* \"#utility.yul\":13693:13702   */\n      0x00\n        /* \"#utility.yul\":13726:13779   */\n      tag_280\n        /* \"#utility.yul\":13744:13778   */\n      tag_281\n        /* \"#utility.yul\":13753:13777   */\n      tag_282\n        /* \"#utility.yul\":13771:13776   */\n      dup5\n        /* \"#utility.yul\":13753:13777   */\n      tag_90\n      jump\t// in\n    tag_282:\n        /* \"#utility.yul\":13744:13778   */\n      tag_131\n      jump\t// in\n    tag_281:\n        /* \"#utility.yul\":13726:13779   */\n      tag_90\n      jump\t// in\n    tag_280:\n        /* \"#utility.yul\":13713:13779   */\n      swap1\n      pop\n        /* \"#utility.yul\":13643:13785   */\n      swap2\n      swap1\n      pop\n      jump\t// out\n        /* \"#utility.yul\":13791:13866   */\n    tag_133:\n        /* \"#utility.yul\":13834:13837   */\n      0x00\n        /* \"#utility.yul\":13855:13860   */\n      dup2\n        /* \"#utility.yul\":13848:13860   */\n      swap1\n      pop\n        /* \"#utility.yul\":13791:13866   */\n      swap2\n      swap1\n      pop\n      jump\t// out\n        /* \"#utility.yul\":13872:14141   */\n    tag_134:\n        /* \"#utility.yul\":13982:14021   */\n      tag_285\n        /* \"#utility.yul\":14013:14020   */\n      dup4\n        /* \"#utility.yul\":13982:14021   */\n      tag_132\n      jump\t// in\n    tag_285:\n        /* \"#utility.yul\":14043:14134   */\n      tag_286\n        /* \"#utility.yul\":14092:14133   */\n      tag_287\n        /* \"#utility.yul\":14116:14132   */\n      dup3\n        /* \"#utility.yul\":14092:14133   */\n      tag_133\n      jump\t// in\n    tag_287:\n        /* \"#utility.yul\":14084:14090   */\n      dup5\n        /* \"#utility.yul\":14077:14081   */\n      dup5\n        /* \"#utility.yul\":14071:14082   */\n      sload\n        /* \"#utility.yul\":14043:14134   */\n      tag_130\n      jump\t// in\n    tag_286:\n        /* \"#utility.yul\":14037:14041   */\n      dup3\n        /* \"#utility.yul\":14030:14135   */\n      sstore\n        /* \"#utility.yul\":13948:14141   */\n      pop\n        /* \"#utility.yul\":13872:14141   */\n      pop\n      pop\n      pop\n      jump\t// out\n        /* \"#utility.yul\":14147:14220   */\n    tag_135:\n        /* \"#utility.yul\":14192:14195   */\n      0x00\n        /* \"#utility.yul\":14147:14220   */\n      swap1\n      jump\t// out\n        /* \"#utility.yul\":14226:14415   */\n    tag_136:\n        /* \"#utility.yul\":14303:14335   */\n      tag_290\n      tag_135\n      jump\t// in\n    tag_290:\n        /* \"#utility.yul\":14344:14409   */\n      tag_291\n        /* \"#utility.yul\":14402:14408   */\n      dup2\n        /* \"#utility.yul\":14394:14400   */\n      dup5\n        /* \"#utility.yul\":14388:14392   */\n      dup5\n        /* \"#utility.yul\":14344:14409   */\n      tag_134\n      jump\t// in\n    tag_291:\n        /* \"#utility.yul\":14279:14415   */\n      pop\n        /* \"#utility.yul\":14226:14415   */\n      pop\n      pop\n      jump\t// out\n        /* \"#utility.yul\":14421:14607   */\n    tag_137:\n        /* \"#utility.yul\":14481:14601   */\n    tag_293:\n        /* \"#utility.yul\":14498:14501   */\n      dup2\n        /* \"#utility.yul\":14491:14496   */\n      dup2\n        /* \"#utility.yul\":14488:14502   */\n      lt\n        /* \"#utility.yul\":14481:14601   */\n      iszero\n      tag_295\n      jumpi\n        /* \"#utility.yul\":14552:14591   */\n      tag_296\n        /* \"#utility.yul\":14589:14590   */\n      0x00\n        /* \"#utility.yul\":14582:14587   */\n      dup3\n        /* \"#utility.yul\":14552:14591   */\n      tag_136\n      jump\t// in\n    tag_296:\n        /* \"#utility.yul\":14525:14526   */\n      0x01\n        /* \"#utility.yul\":14518:14523   */\n      dup2\n        /* \"#utility.yul\":14514:14527   */\n      add\n        /* \"#utility.yul\":14505:14527   */\n      swap1\n      pop\n        /* \"#utility.yul\":14481:14601   */\n      jump(tag_293)\n    tag_295:\n        /* \"#utility.yul\":14421:14607   */\n      pop\n      pop\n      jump\t// out\n        /* \"#utility.yul\":14613:15156   */\n    tag_138:\n        /* \"#utility.yul\":14714:14716   */\n      0x1f\n        /* \"#utility.yul\":14709:14712   */\n      dup3\n        /* \"#utility.yul\":14706:14717   */\n      gt\n        /* \"#utility.yul\":14703:15149   */\n      iszero\n      tag_298\n      jumpi\n        /* \"#utility.yul\":14748:14786   */\n      tag_299\n        /* \"#utility.yul\":14780:14785   */\n      dup2\n        /* \"#utility.yul\":14748:14786   */\n      tag_127\n      jump\t// in\n    tag_299:\n        /* \"#utility.yul\":14832:14861   */\n      tag_300\n        /* \"#utility.yul\":14850:14860   */\n      dup5\n        /* \"#utility.yul\":14832:14861   */\n      tag_128\n      jump\t// in\n    tag_300:\n        /* \"#utility.yul\":14822:14830   */\n      dup2\n        /* \"#utility.yul\":14818:14862   */\n      add\n        /* \"#utility.yul\":15015:15017   */\n      0x20\n        /* \"#utility.yul\":15003:15013   */\n      dup6\n        /* \"#utility.yul\":15000:15018   */\n      lt\n        /* \"#utility.yul\":14997:15046   */\n      iszero\n      tag_301\n      jumpi\n        /* \"#utility.yul\":15036:15044   */\n      dup2\n        /* \"#utility.yul\":15021:15044   */\n      swap1\n      pop\n        /* \"#utility.yul\":14997:15046   */\n    tag_301:\n        /* \"#utility.yul\":15059:15139   */\n      tag_302\n        /* \"#utility.yul\":15115:15137   */\n      tag_303\n        /* \"#utility.yul\":15133:15136   */\n      dup6\n        /* \"#utility.yul\":15115:15137   */\n      tag_128\n      jump\t// in\n    tag_303:\n        /* \"#utility.yul\":15105:15113   */\n      dup4\n        /* \"#utility.yul\":15101:15138   */\n      add\n        /* \"#utility.yul\":15088:15099   */\n      dup3\n        /* \"#utility.yul\":15059:15139   */\n      tag_137\n      jump\t// in\n    tag_302:\n        /* \"#utility.yul\":14718:15149   */\n      pop\n      pop\n        /* \"#utility.yul\":14703:15149   */\n    tag_298:\n        /* \"#utility.yul\":14613:15156   */\n      pop\n      pop\n      pop\n      jump\t// out\n        /* \"#utility.yul\":15162:15279   */\n    tag_139:\n        /* \"#utility.yul\":15216:15224   */\n      0x00\n        /* \"#utility.yul\":15266:15271   */\n      dup3\n        /* \"#utility.yul\":15260:15264   */\n      dup3\n        /* \"#utility.yul\":15256:15272   */\n      shr\n        /* \"#utility.yul\":15235:15272   */\n      swap1\n      pop\n        /* \"#utility.yul\":15162:15279   */\n      swap3\n      swap2\n      pop\n      pop\n      jump\t// out\n        /* \"#utility.yul\":15285:15454   */\n    tag_140:\n        /* \"#utility.yul\":15329:15335   */\n      0x00\n        /* \"#utility.yul\":15362:15413   */\n      tag_306\n        /* \"#utility.yul\":15410:15411   */\n      0x00\n        /* \"#utility.yul\":15406:15412   */\n      not\n        /* \"#utility.yul\":15398:15403   */\n      dup5\n        /* \"#utility.yul\":15395:15396   */\n      0x08\n        /* \"#utility.yul\":15391:15404   */\n      mul\n        /* \"#utility.yul\":15362:15413   */\n      tag_139\n      jump\t// in\n    tag_306:\n        /* \"#utility.yul\":15358:15414   */\n      not\n        /* \"#utility.yul\":15443:15447   */\n      dup1\n        /* \"#utility.yul\":15437:15441   */\n      dup4\n        /* \"#utility.yul\":15433:15448   */\n      and\n        /* \"#utility.yul\":15423:15448   */\n      swap2\n      pop\n        /* \"#utility.yul\":15336:15454   */\n      pop\n        /* \"#utility.yul\":15285:15454   */\n      swap3\n      swap2\n      pop\n      pop\n      jump\t// out\n        /* \"#utility.yul\":15459:15754   */\n    tag_141:\n        /* \"#utility.yul\":15535:15539   */\n      0x00\n        /* \"#utility.yul\":15681:15710   */\n      tag_308\n        /* \"#utility.yul\":15706:15709   */\n      dup4\n        /* \"#utility.yul\":15700:15704   */\n      dup4\n        /* \"#utility.yul\":15681:15710   */\n      tag_140\n      jump\t// in\n    tag_308:\n        /* \"#utility.yul\":15673:15710   */\n      swap2\n      pop\n        /* \"#utility.yul\":15743:15746   */\n      dup3\n        /* \"#utility.yul\":15740:15741   */\n      0x02\n        /* \"#utility.yul\":15736:15747   */\n      mul\n        /* \"#utility.yul\":15730:15734   */\n      dup3\n        /* \"#utility.yul\":15727:15748   */\n      or\n        /* \"#utility.yul\":15719:15748   */\n      swap1\n      pop\n        /* \"#utility.yul\":15459:15754   */\n      swap3\n      swap2\n      pop\n      pop\n      jump\t// out\n        /* \"#utility.yul\":15759:17154   */\n    tag_60:\n        /* \"#utility.yul\":15876:15913   */\n      tag_310\n        /* \"#utility.yul\":15909:15912   */\n      dup3\n        /* \"#utility.yul\":15876:15913   */\n      tag_103\n      jump\t// in\n    tag_310:\n        /* \"#utility.yul\":15978:15996   */\n      0xffffffffffffffff\n        /* \"#utility.yul\":15970:15976   */\n      dup2\n        /* \"#utility.yul\":15967:15997   */\n      gt\n        /* \"#utility.yul\":15964:16020   */\n      iszero\n      tag_311\n      jumpi\n        /* \"#utility.yul\":16000:16018   */\n      tag_312\n      tag_113\n      jump\t// in\n    tag_312:\n        /* \"#utility.yul\":15964:16020   */\n    tag_311:\n        /* \"#utility.yul\":16044:16082   */\n      tag_313\n        /* \"#utility.yul\":16076:16080   */\n      dup3\n        /* \"#utility.yul\":16070:16081   */\n      sload\n        /* \"#utility.yul\":16044:16082   */\n      tag_43\n      jump\t// in\n    tag_313:\n        /* \"#utility.yul\":16129:16196   */\n      tag_314\n        /* \"#utility.yul\":16189:16195   */\n      dup3\n        /* \"#utility.yul\":16181:16187   */\n      dup3\n        /* \"#utility.yul\":16175:16179   */\n      dup6\n        /* \"#utility.yul\":16129:16196   */\n      tag_138\n      jump\t// in\n    tag_314:\n        /* \"#utility.yul\":16223:16224   */\n      0x00\n        /* \"#utility.yul\":16247:16251   */\n      0x20\n        /* \"#utility.yul\":16234:16251   */\n      swap1\n      pop\n        /* \"#utility.yul\":16279:16281   */\n      0x1f\n        /* \"#utility.yul\":16271:16277   */\n      dup4\n        /* \"#utility.yul\":16268:16282   */\n      gt\n        /* \"#utility.yul\":16296:16297   */\n      0x01\n        /* \"#utility.yul\":16291:16909   */\n      dup2\n      eq\n      tag_316\n      jumpi\n        /* \"#utility.yul\":16953:16954   */\n      0x00\n        /* \"#utility.yul\":16970:16976   */\n      dup5\n        /* \"#utility.yul\":16967:17044   */\n      iszero\n      tag_317\n      jumpi\n        /* \"#utility.yul\":17019:17028   */\n      dup3\n        /* \"#utility.yul\":17014:17017   */\n      dup8\n        /* \"#utility.yul\":17010:17029   */\n      add\n        /* \"#utility.yul\":17004:17030   */\n      mload\n        /* \"#utility.yul\":16995:17030   */\n      swap1\n      pop\n        /* \"#utility.yul\":16967:17044   */\n    tag_317:\n        /* \"#utility.yul\":17070:17137   */\n      tag_318\n        /* \"#utility.yul\":17130:17136   */\n      dup6\n        /* \"#utility.yul\":17123:17128   */\n      dup3\n        /* \"#utility.yul\":17070:17137   */\n      tag_141\n      jump\t// in\n    tag_318:\n        /* \"#utility.yul\":17064:17068   */\n      dup7\n        /* \"#utility.yul\":17057:17138   */\n      sstore\n        /* \"#utility.yul\":16926:17148   */\n      pop\n        /* \"#utility.yul\":16261:17148   */\n      jump(tag_315)\n        /* \"#utility.yul\":16291:16909   */\n    tag_316:\n        /* \"#utility.yul\":16343:16347   */\n      0x1f\n        /* \"#utility.yul\":16339:16348   */\n      not\n        /* \"#utility.yul\":16331:16337   */\n      dup5\n        /* \"#utility.yul\":16327:16349   */\n      and\n        /* \"#utility.yul\":16377:16414   */\n      tag_319\n        /* \"#utility.yul\":16409:16413   */\n      dup7\n        /* \"#utility.yul\":16377:16414   */\n      tag_127\n      jump\t// in\n    tag_319:\n        /* \"#utility.yul\":16436:16437   */\n      0x00\n        /* \"#utility.yul\":16450:16658   */\n    tag_320:\n        /* \"#utility.yul\":16464:16471   */\n      dup3\n        /* \"#utility.yul\":16461:16462   */\n      dup2\n        /* \"#utility.yul\":16458:16472   */\n      lt\n        /* \"#utility.yul\":16450:16658   */\n      iszero\n      tag_322\n      jumpi\n        /* \"#utility.yul\":16543:16552   */\n      dup5\n        /* \"#utility.yul\":16538:16541   */\n      dup10\n        /* \"#utility.yul\":16534:16553   */\n      add\n        /* \"#utility.yul\":16528:16554   */\n      mload\n        /* \"#utility.yul\":16520:16526   */\n      dup3\n        /* \"#utility.yul\":16513:16555   */\n      sstore\n        /* \"#utility.yul\":16594:16595   */\n      0x01\n        /* \"#utility.yul\":16586:16592   */\n      dup3\n        /* \"#utility.yul\":16582:16596   */\n      add\n        /* \"#utility.yul\":16572:16596   */\n      swap2\n      pop\n        /* \"#utility.yul\":16641:16643   */\n      0x20\n        /* \"#utility.yul\":16630:16639   */\n      dup6\n        /* \"#utility.yul\":16626:16644   */\n      add\n        /* \"#utility.yul\":16613:16644   */\n      swap5\n      pop\n        /* \"#utility.yul\":16487:16491   */\n      0x20\n        /* \"#utility.yul\":16484:16485   */\n      dup2\n        /* \"#utility.yul\":16480:16492   */\n      add\n        /* \"#utility.yul\":16475:16492   */\n      swap1\n      pop\n        /* \"#utility.yul\":16450:16658   */\n      jump(tag_320)\n    tag_322:\n        /* \"#utility.yul\":16686:16692   */\n      dup7\n        /* \"#utility.yul\":16677:16684   */\n      dup4\n        /* \"#utility.yul\":16674:16693   */\n      lt\n        /* \"#utility.yul\":16671:16850   */\n      iszero\n      tag_323\n      jumpi\n        /* \"#utility.yul\":16744:16753   */\n      dup5\n        /* \"#utility.yul\":16739:16742   */\n      dup10\n        /* \"#utility.yul\":16735:16754   */\n      add\n        /* \"#utility.yul\":16729:16755   */\n      mload\n        /* \"#utility.yul\":16787:16835   */\n      tag_324\n        /* \"#utility.yul\":16829:16833   */\n      0x1f\n        /* \"#utility.yul\":16821:16827   */\n      dup10\n        /* \"#utility.yul\":16817:16834   */\n      and\n        /* \"#utility.yul\":16806:16815   */\n      dup3\n        /* \"#utility.yul\":16787:16835   */\n      tag_140\n      jump\t// in\n    tag_324:\n        /* \"#utility.yul\":16779:16785   */\n      dup4\n        /* \"#utility.yul\":16772:16836   */\n      sstore\n        /* \"#utility.yul\":16694:16850   */\n      pop\n        /* \"#utility.yul\":16671:16850   */\n    tag_323:\n        /* \"#utility.yul\":16896:16897   */\n      0x01\n        /* \"#utility.yul\":16892:16893   */\n      0x02\n        /* \"#utility.yul\":16884:16890   */\n      dup9\n        /* \"#utility.yul\":16880:16894   */\n      mul\n        /* \"#utility.yul\":16876:16898   */\n      add\n        /* \"#utility.yul\":16870:16874   */\n      dup9\n        /* \"#utility.yul\":16863:16899   */\n      sstore\n        /* \"#utility.yul\":16298:16909   */\n      pop\n      pop\n      pop\n        /* \"#utility.yul\":16261:17148   */\n    tag_315:\n      pop\n        /* \"#utility.yul\":15851:17154   */\n      pop\n      pop\n      pop\n        /* \"#utility.yul\":15759:17154   */\n      pop\n      pop\n      jump\t// out\n        /* \"#utility.yul\":17160:17327   */\n    tag_142:\n        /* \"#utility.yul\":17300:17319   */\n      0x494420616c726561647920657869737473000000000000000000000000000000\n        /* \"#utility.yul\":17296:17297   */\n      0x00\n        /* \"#utility.yul\":17288:17294   */\n      dup3\n        /* \"#utility.yul\":17284:17298   */\n      add\n        /* \"#utility.yul\":17277:17320   */\n      mstore\n        /* \"#utility.yul\":17160:17327   */\n      pop\n      jump\t// out\n        /* \"#utility.yul\":17333:17699   */\n    tag_143:\n        /* \"#utility.yul\":17475:17478   */\n      0x00\n        /* \"#utility.yul\":17496:17563   */\n      tag_327\n        /* \"#utility.yul\":17560:17562   */\n      0x11\n        /* \"#utility.yul\":17555:17558   */\n      dup4\n        /* \"#utility.yul\":17496:17563   */\n      tag_104\n      jump\t// in\n    tag_327:\n        /* \"#utility.yul\":17489:17563   */\n      swap2\n      pop\n        /* \"#utility.yul\":17572:17665   */\n      tag_328\n        /* \"#utility.yul\":17661:17664   */\n      dup3\n        /* \"#utility.yul\":17572:17665   */\n      tag_142\n      jump\t// in\n    tag_328:\n        /* \"#utility.yul\":17690:17692   */\n      0x20\n        /* \"#utility.yul\":17685:17688   */\n      dup3\n        /* \"#utility.yul\":17681:17693   */\n      add\n        /* \"#utility.yul\":17674:17693   */\n      swap1\n      pop\n        /* \"#utility.yul\":17333:17699   */\n      swap2\n      swap1\n      pop\n      jump\t// out\n        /* \"#utility.yul\":17705:18124   */\n    tag_69:\n        /* \"#utility.yul\":17871:17875   */\n      0x00\n        /* \"#utility.yul\":17909:17911   */\n      0x20\n        /* \"#utility.yul\":17898:17907   */\n      dup3\n        /* \"#utility.yul\":17894:17912   */\n      add\n        /* \"#utility.yul\":17886:17912   */\n      swap1\n      pop\n        /* \"#utility.yul\":17958:17967   */\n      dup2\n        /* \"#utility.yul\":17952:17956   */\n      dup2\n        /* \"#utility.yul\":17948:17968   */\n      sub\n        /* \"#utility.yul\":17944:17945   */\n      0x00\n        /* \"#utility.yul\":17933:17942   */\n      dup4\n        /* \"#utility.yul\":17929:17946   */\n      add\n        /* \"#utility.yul\":17922:17969   */\n      mstore\n        /* \"#utility.yul\":17986:18117   */\n      tag_330\n        /* \"#utility.yul\":18112:18116   */\n      dup2\n        /* \"#utility.yul\":17986:18117   */\n      tag_143\n      jump\t// in\n    tag_330:\n        /* \"#utility.yul\":17978:18117   */\n      swap1\n      pop\n        /* \"#utility.yul\":17705:18124   */\n      swap2\n      swap1\n      pop\n      jump\t// out\n        /* \"#utility.yul\":18130:18310   */\n    tag_85:\n        /* \"#utility.yul\":18178:18255   */\n      0x4e487b7100000000000000000000000000000000000000000000000000000000\n        /* \"#utility.yul\":18175:18176   */\n      0x00\n        /* \"#utility.yul\":18168:18256   */\n      mstore\n        /* \"#utility.yul\":18275:18279   */\n      0x32\n        /* \"#utility.yul\":18272:18273   */\n      0x04\n        /* \"#utility.yul\":18265:18280   */\n      mstore\n        /* \"#utility.yul\":18299:18303   */\n      0x24\n        /* \"#utility.yul\":18296:18297   */\n      0x00\n        /* \"#utility.yul\":18289:18304   */\n      revert\n\n    auxdata: 0xa2646970667358221220baeede3de87066be672a9601d47a5699f80cfe00c632373081bb9ca10f50a2a964736f6c63430008160033\n}\n",
				"bytecode": {
					"linkReferences": {},
					"object": "608060405234801561000f575f80fd5b5061124b8061001d5f395ff3fe60806040526004361061003e575f3560e01c80636fa830a614610042578063849a290f1461005e5780639d11688414610089578063bf883743146100cb575b5f80fd5b61005c60048036038101906100579190610910565b6100f3565b005b348015610069575f80fd5b5061007261029e565b6040516100809291906109f2565b60405180910390f35b348015610094575f80fd5b506100af60048036038101906100aa9190610910565b610347565b6040516100c29796959493929190610b19565b60405180910390f35b3480156100d6575f80fd5b506100f160048036038101906100ec9190610cf1565b61054e565b005b5f805f8381526020019081526020015f209050806001015f9054906101000a900460ff16610156576040517f08c379a000000000000000000000000000000000000000000000000000000000815260040161014d90610e18565b60405180910390fd5b34815f0154101561019c576040517f08c379a000000000000000000000000000000000000000000000000000000000815260040161019390610e80565b60405180910390fd5b806003015f9054906101000a900473ffffffffffffffffffffffffffffffffffffffff1673ffffffffffffffffffffffffffffffffffffffff166108fc825f015490811502906040515f60405180830381858888f19350505050158015610205573d5f803e3d5ffd5b5033816003015f6101000a81548173ffffffffffffffffffffffffffffffffffffffff021916908373ffffffffffffffffffffffffffffffffffffffff1602179055505f816001015f6101000a81548160ff0219169083151502179055507fca00b0637134f6563551ffb097ffc572f30140029b94a4a1e7ef423b475a894f826040516102929190610e9e565b60405180910390a15050565b60608060018054806020026020016040519081016040528092919081815260200182805480156102eb57602002820191905f5260205f20905b8154815260200190600101908083116102d7575b50505050509150600280548060200260200160405190810160405280929190818152602001828054801561033c57602002820191905f5260205f20905b815481526020019060010190808311610328575b505050505090509091565b5f602052805f5260405f205f91509050805f015490806001015f9054906101000a900460ff16908060010160019054906101000a900460ff169080600201805461039090610ee4565b80601f01602080910402602001604051908101604052809291908181526020018280546103bc90610ee4565b80156104075780601f106103de57610100808354040283529160200191610407565b820191905f5260205f20905b8154815290600101906020018083116103ea57829003601f168201915b505050505090806003015f9054906101000a900473ffffffffffffffffffffffffffffffffffffffff169080600401805461044190610ee4565b80601f016020809104026020016040519081016040528092919081815260200182805461046d90610ee4565b80156104b85780601f1061048f576101008083540402835291602001916104b8565b820191905f5260205f20905b81548152906001019060200180831161049b57829003601f168201915b5050505050908060050180546104cd90610ee4565b80601f01602080910402602001604051908101604052809291908181526020018280546104f990610ee4565b80156105445780601f1061051b57610100808354040283529160200191610544565b820191905f5260205f20905b81548152906001019060200180831161052757829003601f168201915b5050505050905087565b5f6040518060e0016040528087815260200160011515815260200183151581526020018681526020013373ffffffffffffffffffffffffffffffffffffffff168152602001858152602001848152509050805f808981526020019081526020015f205f820151815f01556020820151816001015f6101000a81548160ff02191690831515021790555060408201518160010160016101000a81548160ff021916908315150217905550606082015181600201908161060c91906110b1565b506080820151816003015f6101000a81548173ffffffffffffffffffffffffffffffffffffffff021916908373ffffffffffffffffffffffffffffffffffffffff16021790555060a082015181600401908161066891906110b1565b5060c082015181600501908161067e91906110b1565b509050507fffffffffffffffffffffffffffffffffffffffffffffffffffffffffffffffff6106fb60018054806020026020016040519081016040528092919081815260200182805480156106f057602002820191905f5260205f20905b8154815260200190600101908083116106dc575b50505050508961085b565b1461073b576040517f08c379a0000000000000000000000000000000000000000000000000000000008152600401610732906111ca565b60405180910390fd5b7fffffffffffffffffffffffffffffffffffffffffffffffffffffffffffffffff6107b460028054806020026020016040519081016040528092919081815260200182805480156107a957602002820191905f5260205f20905b815481526020019060010190808311610795575b50505050508961085b565b146107f4576040517f08c379a00000000000000000000000000000000000000000000000000000000081526004016107eb906111ca565b60405180910390fd5b600115158215150361082b57600187908060018154018082558091505060019003905f5260205f20015f9091909190915055610852565b600287908060018154018082558091505060019003905f5260205f20015f90919091909150555b50505050505050565b5f805f90505b83518110156108a1578284828151811061087e5761087d6111e8565b5b60200260200101510361089457809150506108c6565b8080600101915050610861565b507fffffffffffffffffffffffffffffffffffffffffffffffffffffffffffffffff90505b92915050565b5f604051905090565b5f80fd5b5f80fd5b5f819050919050565b6108ef816108dd565b81146108f9575f80fd5b50565b5f8135905061090a816108e6565b92915050565b5f60208284031215610925576109246108d5565b5b5f610932848285016108fc565b91505092915050565b5f81519050919050565b5f82825260208201905092915050565b5f819050602082019050919050565b61096d816108dd565b82525050565b5f61097e8383610964565b60208301905092915050565b5f602082019050919050565b5f6109a08261093b565b6109aa8185610945565b93506109b583610955565b805f5b838110156109e55781516109cc8882610973565b97506109d78361098a565b9250506001810190506109b8565b5085935050505092915050565b5f6040820190508181035f830152610a0a8185610996565b90508181036020830152610a1e8184610996565b90509392505050565b610a30816108dd565b82525050565b5f8115159050919050565b610a4a81610a36565b82525050565b5f81519050919050565b5f82825260208201905092915050565b5f5b83811015610a87578082015181840152602081019050610a6c565b5f8484015250505050565b5f601f19601f8301169050919050565b5f610aac82610a50565b610ab68185610a5a565b9350610ac6818560208601610a6a565b610acf81610a92565b840191505092915050565b5f73ffffffffffffffffffffffffffffffffffffffff82169050919050565b5f610b0382610ada565b9050919050565b610b1381610af9565b82525050565b5f60e082019050610b2c5f83018a610a27565b610b396020830189610a41565b610b466040830188610a41565b8181036060830152610b588187610aa2565b9050610b676080830186610b0a565b81810360a0830152610b798185610aa2565b905081810360c0830152610b8d8184610aa2565b905098975050505050505050565b5f80fd5b5f80fd5b7f4e487b71000000000000000000000000000000000000000000000000000000005f52604160045260245ffd5b610bd982610a92565b810181811067ffffffffffffffff82111715610bf857610bf7610ba3565b5b80604052505050565b5f610c0a6108cc565b9050610c168282610bd0565b919050565b5f67ffffffffffffffff821115610c3557610c34610ba3565b5b610c3e82610a92565b9050602081019050919050565b828183375f83830152505050565b5f610c6b610c6684610c1b565b610c01565b905082815260208101848484011115610c8757610c86610b9f565b5b610c92848285610c4b565b509392505050565b5f82601f830112610cae57610cad610b9b565b5b8135610cbe848260208601610c59565b91505092915050565b610cd081610a36565b8114610cda575f80fd5b50565b5f81359050610ceb81610cc7565b92915050565b5f805f805f8060c08789031215610d0b57610d0a6108d5565b5b5f610d1889828a016108fc565b9650506020610d2989828a016108fc565b955050604087013567ffffffffffffffff811115610d4a57610d496108d9565b5b610d5689828a01610c9a565b945050606087013567ffffffffffffffff811115610d7757610d766108d9565b5b610d8389828a01610c9a565b935050608087013567ffffffffffffffff811115610da457610da36108d9565b5b610db089828a01610c9a565b92505060a0610dc189828a01610cdd565b9150509295509295509295565b7f746869732070726f7065727479206973206e6f7420617661696c61626c6500005f82015250565b5f610e02601e83610a5a565b9150610e0d82610dce565b602082019050919050565b5f6020820190508181035f830152610e2f81610df6565b9050919050565b7f496e73756666696369616e742066756e647300000000000000000000000000005f82015250565b5f610e6a601283610a5a565b9150610e7582610e36565b602082019050919050565b5f6020820190508181035f830152610e9781610e5e565b9050919050565b5f602082019050610eb15f830184610a27565b92915050565b7f4e487b71000000000000000000000000000000000000000000000000000000005f52602260045260245ffd5b5f6002820490506001821680610efb57607f821691505b602082108103610f0e57610f0d610eb7565b5b50919050565b5f819050815f5260205f209050919050565b5f6020601f8301049050919050565b5f82821b905092915050565b5f60088302610f707fffffffffffffffffffffffffffffffffffffffffffffffffffffffffffffffff82610f35565b610f7a8683610f35565b95508019841693508086168417925050509392505050565b5f819050919050565b5f610fb5610fb0610fab846108dd565b610f92565b6108dd565b9050919050565b5f819050919050565b610fce83610f9b565b610fe2610fda82610fbc565b848454610f41565b825550505050565b5f90565b610ff6610fea565b611001818484610fc5565b505050565b5b81811015611024576110195f82610fee565b600181019050611007565b5050565b601f8211156110695761103a81610f14565b61104384610f26565b81016020851015611052578190505b61106661105e85610f26565b830182611006565b50505b505050565b5f82821c905092915050565b5f6110895f198460080261106e565b1980831691505092915050565b5f6110a1838361107a565b9150826002028217905092915050565b6110ba82610a50565b67ffffffffffffffff8111156110d3576110d2610ba3565b5b6110dd8254610ee4565b6110e8828285611028565b5f60209050601f831160018114611119575f8415611107578287015190505b6111118582611096565b865550611178565b601f19841661112786610f14565b5f5b8281101561114e57848901518255600182019150602085019450602081019050611129565b8683101561116b5784890151611167601f89168261107a565b8355505b6001600288020188555050505b505050505050565b7f494420616c7265616479206578697374730000000000000000000000000000005f82015250565b5f6111b4601183610a5a565b91506111bf82611180565b602082019050919050565b5f6020820190508181035f8301526111e1816111a8565b9050919050565b7f4e487b71000000000000000000000000000000000000000000000000000000005f52603260045260245ffdfea2646970667358221220baeede3de87066be672a9601d47a5699f80cfe00c632373081bb9ca10f50a2a964736f6c63430008160033",
					"opcodes": "PUSH1 0x80 PUSH1 0x40 MSTORE CALLVALUE DUP1 ISZERO PUSH2 0xF JUMPI PUSH0 DUP1 REVERT JUMPDEST POP PUSH2 0x124B DUP1 PUSH2 0x1D PUSH0 CODECOPY PUSH0 RETURN INVALID PUSH1 0x80 PUSH1 0x40 MSTORE PUSH1 0x4 CALLDATASIZE LT PUSH2 0x3E JUMPI PUSH0 CALLDATALOAD PUSH1 0xE0 SHR DUP1 PUSH4 0x6FA830A6 EQ PUSH2 0x42 JUMPI DUP1 PUSH4 0x849A290F EQ PUSH2 0x5E JUMPI DUP1 PUSH4 0x9D116884 EQ PUSH2 0x89 JUMPI DUP1 PUSH4 0xBF883743 EQ PUSH2 0xCB JUMPI JUMPDEST PUSH0 DUP1 REVERT JUMPDEST PUSH2 0x5C PUSH1 0x4 DUP1 CALLDATASIZE SUB DUP2 ADD SWAP1 PUSH2 0x57 SWAP2 SWAP1 PUSH2 0x910 JUMP JUMPDEST PUSH2 0xF3 JUMP JUMPDEST STOP JUMPDEST CALLVALUE DUP1 ISZERO PUSH2 0x69 JUMPI PUSH0 DUP1 REVERT JUMPDEST POP PUSH2 0x72 PUSH2 0x29E JUMP JUMPDEST PUSH1 0x40 MLOAD PUSH2 0x80 SWAP3 SWAP2 SWAP1 PUSH2 0x9F2 JUMP JUMPDEST PUSH1 0x40 MLOAD DUP1 SWAP2 SUB SWAP1 RETURN JUMPDEST CALLVALUE DUP1 ISZERO PUSH2 0x94 JUMPI PUSH0 DUP1 REVERT JUMPDEST POP PUSH2 0xAF PUSH1 0x4 DUP1 CALLDATASIZE SUB DUP2 ADD SWAP1 PUSH2 0xAA SWAP2 SWAP1 PUSH2 0x910 JUMP JUMPDEST PUSH2 0x347 JUMP JUMPDEST PUSH1 0x40 MLOAD PUSH2 0xC2 SWAP8 SWAP7 SWAP6 SWAP5 SWAP4 SWAP3 SWAP2 SWAP1 PUSH2 0xB19 JUMP JUMPDEST PUSH1 0x40 MLOAD DUP1 SWAP2 SUB SWAP1 RETURN JUMPDEST CALLVALUE DUP1 ISZERO PUSH2 0xD6 JUMPI PUSH0 DUP1 REVERT JUMPDEST POP PUSH2 0xF1 PUSH1 0x4 DUP1 CALLDATASIZE SUB DUP2 ADD SWAP1 PUSH2 0xEC SWAP2 SWAP1 PUSH2 0xCF1 JUMP JUMPDEST PUSH2 0x54E JUMP JUMPDEST STOP JUMPDEST PUSH0 DUP1 PUSH0 DUP4 DUP2 MSTORE PUSH1 0x20 ADD SWAP1 DUP2 MSTORE PUSH1 0x20 ADD PUSH0 KECCAK256 SWAP1 POP DUP1 PUSH1 0x1 ADD PUSH0 SWAP1 SLOAD SWAP1 PUSH2 0x100 EXP SWAP1 DIV PUSH1 0xFF AND PUSH2 0x156 JUMPI PUSH1 0x40 MLOAD PUSH32 0x8C379A000000000000000000000000000000000000000000000000000000000 DUP2 MSTORE PUSH1 0x4 ADD PUSH2 0x14D SWAP1 PUSH2 0xE18 JUMP JUMPDEST PUSH1 0x40 MLOAD DUP1 SWAP2 SUB SWAP1 REVERT JUMPDEST CALLVALUE DUP2 PUSH0 ADD SLOAD LT ISZERO PUSH2 0x19C JUMPI PUSH1 0x40 MLOAD PUSH32 0x8C379A000000000000000000000000000000000000000000000000000000000 DUP2 MSTORE PUSH1 0x4 ADD PUSH2 0x193 SWAP1 PUSH2 0xE80 JUMP JUMPDEST PUSH1 0x40 MLOAD DUP1 SWAP2 SUB SWAP1 REVERT JUMPDEST DUP1 PUSH1 0x3 ADD PUSH0 SWAP1 SLOAD SWAP1 PUSH2 0x100 EXP SWAP1 DIV PUSH20 0xFFFFFFFFFFFFFFFFFFFFFFFFFFFFFFFFFFFFFFFF AND PUSH20 0xFFFFFFFFFFFFFFFFFFFFFFFFFFFFFFFFFFFFFFFF AND PUSH2 0x8FC DUP3 PUSH0 ADD SLOAD SWAP1 DUP2 ISZERO MUL SWAP1 PUSH1 0x40 MLOAD PUSH0 PUSH1 0x40 MLOAD DUP1 DUP4 SUB DUP2 DUP6 DUP9 DUP9 CALL SWAP4 POP POP POP POP ISZERO DUP1 ISZERO PUSH2 0x205 JUMPI RETURNDATASIZE PUSH0 DUP1 RETURNDATACOPY RETURNDATASIZE PUSH0 REVERT JUMPDEST POP CALLER DUP2 PUSH1 0x3 ADD PUSH0 PUSH2 0x100 EXP DUP2 SLOAD DUP2 PUSH20 0xFFFFFFFFFFFFFFFFFFFFFFFFFFFFFFFFFFFFFFFF MUL NOT AND SWAP1 DUP4 PUSH20 0xFFFFFFFFFFFFFFFFFFFFFFFFFFFFFFFFFFFFFFFF AND MUL OR SWAP1 SSTORE POP PUSH0 DUP2 PUSH1 0x1 ADD PUSH0 PUSH2 0x100 EXP DUP2 SLOAD DUP2 PUSH1 0xFF MUL NOT AND SWAP1 DUP4 ISZERO ISZERO MUL OR SWAP1 SSTORE POP PUSH32 0xCA00B0637134F6563551FFB097FFC572F30140029B94A4A1E7EF423B475A894F DUP3 PUSH1 0x40 MLOAD PUSH2 0x292 SWAP2 SWAP1 PUSH2 0xE9E JUMP JUMPDEST PUSH1 0x40 MLOAD DUP1 SWAP2 SUB SWAP1 LOG1 POP POP JUMP JUMPDEST PUSH1 0x60 DUP1 PUSH1 0x1 DUP1 SLOAD DUP1 PUSH1 0x20 MUL PUSH1 0x20 ADD PUSH1 0x40 MLOAD SWAP1 DUP2 ADD PUSH1 0x40 MSTORE DUP1 SWAP3 SWAP2 SWAP1 DUP2 DUP2 MSTORE PUSH1 0x20 ADD DUP3 DUP1 SLOAD DUP1 ISZERO PUSH2 0x2EB JUMPI PUSH1 0x20 MUL DUP3 ADD SWAP2 SWAP1 PUSH0 MSTORE PUSH1 0x20 PUSH0 KECCAK256 SWAP1 JUMPDEST DUP2 SLOAD DUP2 MSTORE PUSH1 0x20 ADD SWAP1 PUSH1 0x1 ADD SWAP1 DUP1 DUP4 GT PUSH2 0x2D7 JUMPI JUMPDEST POP POP POP POP POP SWAP2 POP PUSH1 0x2 DUP1 SLOAD DUP1 PUSH1 0x20 MUL PUSH1 0x20 ADD PUSH1 0x40 MLOAD SWAP1 DUP2 ADD PUSH1 0x40 MSTORE DUP1 SWAP3 SWAP2 SWAP1 DUP2 DUP2 MSTORE PUSH1 0x20 ADD DUP3 DUP1 SLOAD DUP1 ISZERO PUSH2 0x33C JUMPI PUSH1 0x20 MUL DUP3 ADD SWAP2 SWAP1 PUSH0 MSTORE PUSH1 0x20 PUSH0 KECCAK256 SWAP1 JUMPDEST DUP2 SLOAD DUP2 MSTORE PUSH1 0x20 ADD SWAP1 PUSH1 0x1 ADD SWAP1 DUP1 DUP4 GT PUSH2 0x328 JUMPI JUMPDEST POP POP POP POP POP SWAP1 POP SWAP1 SWAP2 JUMP JUMPDEST PUSH0 PUSH1 0x20 MSTORE DUP1 PUSH0 MSTORE PUSH1 0x40 PUSH0 KECCAK256 PUSH0 SWAP2 POP SWAP1 POP DUP1 PUSH0 ADD SLOAD SWAP1 DUP1 PUSH1 0x1 ADD PUSH0 SWAP1 SLOAD SWAP1 PUSH2 0x100 EXP SWAP1 DIV PUSH1 0xFF AND SWAP1 DUP1 PUSH1 0x1 ADD PUSH1 0x1 SWAP1 SLOAD SWAP1 PUSH2 0x100 EXP SWAP1 DIV PUSH1 0xFF AND SWAP1 DUP1 PUSH1 0x2 ADD DUP1 SLOAD PUSH2 0x390 SWAP1 PUSH2 0xEE4 JUMP JUMPDEST DUP1 PUSH1 0x1F ADD PUSH1 0x20 DUP1 SWAP2 DIV MUL PUSH1 0x20 ADD PUSH1 0x40 MLOAD SWAP1 DUP2 ADD PUSH1 0x40 MSTORE DUP1 SWAP3 SWAP2 SWAP1 DUP2 DUP2 MSTORE PUSH1 0x20 ADD DUP3 DUP1 SLOAD PUSH2 0x3BC SWAP1 PUSH2 0xEE4 JUMP JUMPDEST DUP1 ISZERO PUSH2 0x407 JUMPI DUP1 PUSH1 0x1F LT PUSH2 0x3DE JUMPI PUSH2 0x100 DUP1 DUP4 SLOAD DIV MUL DUP4 MSTORE SWAP2 PUSH1 0x20 ADD SWAP2 PUSH2 0x407 JUMP JUMPDEST DUP3 ADD SWAP2 SWAP1 PUSH0 MSTORE PUSH1 0x20 PUSH0 KECCAK256 SWAP1 JUMPDEST DUP2 SLOAD DUP2 MSTORE SWAP1 PUSH1 0x1 ADD SWAP1 PUSH1 0x20 ADD DUP1 DUP4 GT PUSH2 0x3EA JUMPI DUP3 SWAP1 SUB PUSH1 0x1F AND DUP3 ADD SWAP2 JUMPDEST POP POP POP POP POP SWAP1 DUP1 PUSH1 0x3 ADD PUSH0 SWAP1 SLOAD SWAP1 PUSH2 0x100 EXP SWAP1 DIV PUSH20 0xFFFFFFFFFFFFFFFFFFFFFFFFFFFFFFFFFFFFFFFF AND SWAP1 DUP1 PUSH1 0x4 ADD DUP1 SLOAD PUSH2 0x441 SWAP1 PUSH2 0xEE4 JUMP JUMPDEST DUP1 PUSH1 0x1F ADD PUSH1 0x20 DUP1 SWAP2 DIV MUL PUSH1 0x20 ADD PUSH1 0x40 MLOAD SWAP1 DUP2 ADD PUSH1 0x40 MSTORE DUP1 SWAP3 SWAP2 SWAP1 DUP2 DUP2 MSTORE PUSH1 0x20 ADD DUP3 DUP1 SLOAD PUSH2 0x46D SWAP1 PUSH2 0xEE4 JUMP JUMPDEST DUP1 ISZERO PUSH2 0x4B8 JUMPI DUP1 PUSH1 0x1F LT PUSH2 0x48F JUMPI PUSH2 0x100 DUP1 DUP4 SLOAD DIV MUL DUP4 MSTORE SWAP2 PUSH1 0x20 ADD SWAP2 PUSH2 0x4B8 JUMP JUMPDEST DUP3 ADD SWAP2 SWAP1 PUSH0 MSTORE PUSH1 0x20 PUSH0 KECCAK256 SWAP1 JUMPDEST DUP2 SLOAD DUP2 MSTORE SWAP1 PUSH1 0x1 ADD SWAP1 PUSH1 0x20 ADD DUP1 DUP4 GT PUSH2 0x49B JUMPI DUP3 SWAP1 SUB PUSH1 0x1F AND DUP3 ADD SWAP2 JUMPDEST POP POP POP POP POP SWAP1 DUP1 PUSH1 0x5 ADD DUP1 SLOAD PUSH2 0x4CD SWAP1 PUSH2 0xEE4 JUMP JUMPDEST DUP1 PUSH1 0x1F ADD PUSH1 0x20 DUP1 SWAP2 DIV MUL PUSH1 0x20 ADD PUSH1 0x40 MLOAD SWAP1 DUP2 ADD PUSH1 0x40 MSTORE DUP1 SWAP3 SWAP2 SWAP1 DUP2 DUP2 MSTORE PUSH1 0x20 ADD DUP3 DUP1 SLOAD PUSH2 0x4F9 SWAP1 PUSH2 0xEE4 JUMP JUMPDEST DUP1 ISZERO PUSH2 0x544 JUMPI DUP1 PUSH1 0x1F LT PUSH2 0x51B JUMPI PUSH2 0x100 DUP1 DUP4 SLOAD DIV MUL DUP4 MSTORE SWAP2 PUSH1 0x20 ADD SWAP2 PUSH2 0x544 JUMP JUMPDEST DUP3 ADD SWAP2 SWAP1 PUSH0 MSTORE PUSH1 0x20 PUSH0 KECCAK256 SWAP1 JUMPDEST DUP2 SLOAD DUP2 MSTORE SWAP1 PUSH1 0x1 ADD SWAP1 PUSH1 0x20 ADD DUP1 DUP4 GT PUSH2 0x527 JUMPI DUP3 SWAP1 SUB PUSH1 0x1F AND DUP3 ADD SWAP2 JUMPDEST POP POP POP POP POP SWAP1 POP DUP8 JUMP JUMPDEST PUSH0 PUSH1 0x40 MLOAD DUP1 PUSH1 0xE0 ADD PUSH1 0x40 MSTORE DUP1 DUP8 DUP2 MSTORE PUSH1 0x20 ADD PUSH1 0x1 ISZERO ISZERO DUP2 MSTORE PUSH1 0x20 ADD DUP4 ISZERO ISZERO DUP2 MSTORE PUSH1 0x20 ADD DUP7 DUP2 MSTORE PUSH1 0x20 ADD CALLER PUSH20 0xFFFFFFFFFFFFFFFFFFFFFFFFFFFFFFFFFFFFFFFF AND DUP2 MSTORE PUSH1 0x20 ADD DUP6 DUP2 MSTORE PUSH1 0x20 ADD DUP5 DUP2 MSTORE POP SWAP1 POP DUP1 PUSH0 DUP1 DUP10 DUP2 MSTORE PUSH1 0x20 ADD SWAP1 DUP2 MSTORE PUSH1 0x20 ADD PUSH0 KECCAK256 PUSH0 DUP3 ADD MLOAD DUP2 PUSH0 ADD SSTORE PUSH1 0x20 DUP3 ADD MLOAD DUP2 PUSH1 0x1 ADD PUSH0 PUSH2 0x100 EXP DUP2 SLOAD DUP2 PUSH1 0xFF MUL NOT AND SWAP1 DUP4 ISZERO ISZERO MUL OR SWAP1 SSTORE POP PUSH1 0x40 DUP3 ADD MLOAD DUP2 PUSH1 0x1 ADD PUSH1 0x1 PUSH2 0x100 EXP DUP2 SLOAD DUP2 PUSH1 0xFF MUL NOT AND SWAP1 DUP4 ISZERO ISZERO MUL OR SWAP1 SSTORE POP PUSH1 0x60 DUP3 ADD MLOAD DUP2 PUSH1 0x2 ADD SWAP1 DUP2 PUSH2 0x60C SWAP2 SWAP1 PUSH2 0x10B1 JUMP JUMPDEST POP PUSH1 0x80 DUP3 ADD MLOAD DUP2 PUSH1 0x3 ADD PUSH0 PUSH2 0x100 EXP DUP2 SLOAD DUP2 PUSH20 0xFFFFFFFFFFFFFFFFFFFFFFFFFFFFFFFFFFFFFFFF MUL NOT AND SWAP1 DUP4 PUSH20 0xFFFFFFFFFFFFFFFFFFFFFFFFFFFFFFFFFFFFFFFF AND MUL OR SWAP1 SSTORE POP PUSH1 0xA0 DUP3 ADD MLOAD DUP2 PUSH1 0x4 ADD SWAP1 DUP2 PUSH2 0x668 SWAP2 SWAP1 PUSH2 0x10B1 JUMP JUMPDEST POP PUSH1 0xC0 DUP3 ADD MLOAD DUP2 PUSH1 0x5 ADD SWAP1 DUP2 PUSH2 0x67E SWAP2 SWAP1 PUSH2 0x10B1 JUMP JUMPDEST POP SWAP1 POP POP PUSH32 0xFFFFFFFFFFFFFFFFFFFFFFFFFFFFFFFFFFFFFFFFFFFFFFFFFFFFFFFFFFFFFFFF PUSH2 0x6FB PUSH1 0x1 DUP1 SLOAD DUP1 PUSH1 0x20 MUL PUSH1 0x20 ADD PUSH1 0x40 MLOAD SWAP1 DUP2 ADD PUSH1 0x40 MSTORE DUP1 SWAP3 SWAP2 SWAP1 DUP2 DUP2 MSTORE PUSH1 0x20 ADD DUP3 DUP1 SLOAD DUP1 ISZERO PUSH2 0x6F0 JUMPI PUSH1 0x20 MUL DUP3 ADD SWAP2 SWAP1 PUSH0 MSTORE PUSH1 0x20 PUSH0 KECCAK256 SWAP1 JUMPDEST DUP2 SLOAD DUP2 MSTORE PUSH1 0x20 ADD SWAP1 PUSH1 0x1 ADD SWAP1 DUP1 DUP4 GT PUSH2 0x6DC JUMPI JUMPDEST POP POP POP POP POP DUP10 PUSH2 0x85B JUMP JUMPDEST EQ PUSH2 0x73B JUMPI PUSH1 0x40 MLOAD PUSH32 0x8C379A000000000000000000000000000000000000000000000000000000000 DUP2 MSTORE PUSH1 0x4 ADD PUSH2 0x732 SWAP1 PUSH2 0x11CA JUMP JUMPDEST PUSH1 0x40 MLOAD DUP1 SWAP2 SUB SWAP1 REVERT JUMPDEST PUSH32 0xFFFFFFFFFFFFFFFFFFFFFFFFFFFFFFFFFFFFFFFFFFFFFFFFFFFFFFFFFFFFFFFF PUSH2 0x7B4 PUSH1 0x2 DUP1 SLOAD DUP1 PUSH1 0x20 MUL PUSH1 0x20 ADD PUSH1 0x40 MLOAD SWAP1 DUP2 ADD PUSH1 0x40 MSTORE DUP1 SWAP3 SWAP2 SWAP1 DUP2 DUP2 MSTORE PUSH1 0x20 ADD DUP3 DUP1 SLOAD DUP1 ISZERO PUSH2 0x7A9 JUMPI PUSH1 0x20 MUL DUP3 ADD SWAP2 SWAP1 PUSH0 MSTORE PUSH1 0x20 PUSH0 KECCAK256 SWAP1 JUMPDEST DUP2 SLOAD DUP2 MSTORE PUSH1 0x20 ADD SWAP1 PUSH1 0x1 ADD SWAP1 DUP1 DUP4 GT PUSH2 0x795 JUMPI JUMPDEST POP POP POP POP POP DUP10 PUSH2 0x85B JUMP JUMPDEST EQ PUSH2 0x7F4 JUMPI PUSH1 0x40 MLOAD PUSH32 0x8C379A000000000000000000000000000000000000000000000000000000000 DUP2 MSTORE PUSH1 0x4 ADD PUSH2 0x7EB SWAP1 PUSH2 0x11CA JUMP JUMPDEST PUSH1 0x40 MLOAD DUP1 SWAP2 SUB SWAP1 REVERT JUMPDEST PUSH1 0x1 ISZERO ISZERO DUP3 ISZERO ISZERO SUB PUSH2 0x82B JUMPI PUSH1 0x1 DUP8 SWAP1 DUP1 PUSH1 0x1 DUP2 SLOAD ADD DUP1 DUP3 SSTORE DUP1 SWAP2 POP POP PUSH1 0x1 SWAP1 SUB SWAP1 PUSH0 MSTORE PUSH1 0x20 PUSH0 KECCAK256 ADD PUSH0 SWAP1 SWAP2 SWAP1 SWAP2 SWAP1 SWAP2 POP SSTORE PUSH2 0x852 JUMP JUMPDEST PUSH1 0x2 DUP8 SWAP1 DUP1 PUSH1 0x1 DUP2 SLOAD ADD DUP1 DUP3 SSTORE DUP1 SWAP2 POP POP PUSH1 0x1 SWAP1 SUB SWAP1 PUSH0 MSTORE PUSH1 0x20 PUSH0 KECCAK256 ADD PUSH0 SWAP1 SWAP2 SWAP1 SWAP2 SWAP1 SWAP2 POP SSTORE JUMPDEST POP POP POP POP POP POP POP JUMP JUMPDEST PUSH0 DUP1 PUSH0 SWAP1 POP JUMPDEST DUP4 MLOAD DUP2 LT ISZERO PUSH2 0x8A1 JUMPI DUP3 DUP5 DUP3 DUP2 MLOAD DUP2 LT PUSH2 0x87E JUMPI PUSH2 0x87D PUSH2 0x11E8 JUMP JUMPDEST JUMPDEST PUSH1 0x20 MUL PUSH1 0x20 ADD ADD MLOAD SUB PUSH2 0x894 JUMPI DUP1 SWAP2 POP POP PUSH2 0x8C6 JUMP JUMPDEST DUP1 DUP1 PUSH1 0x1 ADD SWAP2 POP POP PUSH2 0x861 JUMP JUMPDEST POP PUSH32 0xFFFFFFFFFFFFFFFFFFFFFFFFFFFFFFFFFFFFFFFFFFFFFFFFFFFFFFFFFFFFFFFF SWAP1 POP JUMPDEST SWAP3 SWAP2 POP POP JUMP JUMPDEST PUSH0 PUSH1 0x40 MLOAD SWAP1 POP SWAP1 JUMP JUMPDEST PUSH0 DUP1 REVERT JUMPDEST PUSH0 DUP1 REVERT JUMPDEST PUSH0 DUP2 SWAP1 POP SWAP2 SWAP1 POP JUMP JUMPDEST PUSH2 0x8EF DUP2 PUSH2 0x8DD JUMP JUMPDEST DUP2 EQ PUSH2 0x8F9 JUMPI PUSH0 DUP1 REVERT JUMPDEST POP JUMP JUMPDEST PUSH0 DUP2 CALLDATALOAD SWAP1 POP PUSH2 0x90A DUP2 PUSH2 0x8E6 JUMP JUMPDEST SWAP3 SWAP2 POP POP JUMP JUMPDEST PUSH0 PUSH1 0x20 DUP3 DUP5 SUB SLT ISZERO PUSH2 0x925 JUMPI PUSH2 0x924 PUSH2 0x8D5 JUMP JUMPDEST JUMPDEST PUSH0 PUSH2 0x932 DUP5 DUP3 DUP6 ADD PUSH2 0x8FC JUMP JUMPDEST SWAP2 POP POP SWAP3 SWAP2 POP POP JUMP JUMPDEST PUSH0 DUP2 MLOAD SWAP1 POP SWAP2 SWAP1 POP JUMP JUMPDEST PUSH0 DUP3 DUP3 MSTORE PUSH1 0x20 DUP3 ADD SWAP1 POP SWAP3 SWAP2 POP POP JUMP JUMPDEST PUSH0 DUP2 SWAP1 POP PUSH1 0x20 DUP3 ADD SWAP1 POP SWAP2 SWAP1 POP JUMP JUMPDEST PUSH2 0x96D DUP2 PUSH2 0x8DD JUMP JUMPDEST DUP3 MSTORE POP POP JUMP JUMPDEST PUSH0 PUSH2 0x97E DUP4 DUP4 PUSH2 0x964 JUMP JUMPDEST PUSH1 0x20 DUP4 ADD SWAP1 POP SWAP3 SWAP2 POP POP JUMP JUMPDEST PUSH0 PUSH1 0x20 DUP3 ADD SWAP1 POP SWAP2 SWAP1 POP JUMP JUMPDEST PUSH0 PUSH2 0x9A0 DUP3 PUSH2 0x93B JUMP JUMPDEST PUSH2 0x9AA DUP2 DUP6 PUSH2 0x945 JUMP JUMPDEST SWAP4 POP PUSH2 0x9B5 DUP4 PUSH2 0x955 JUMP JUMPDEST DUP1 PUSH0 JUMPDEST DUP4 DUP2 LT ISZERO PUSH2 0x9E5 JUMPI DUP2 MLOAD PUSH2 0x9CC DUP9 DUP3 PUSH2 0x973 JUMP JUMPDEST SWAP8 POP PUSH2 0x9D7 DUP4 PUSH2 0x98A JUMP JUMPDEST SWAP3 POP POP PUSH1 0x1 DUP2 ADD SWAP1 POP PUSH2 0x9B8 JUMP JUMPDEST POP DUP6 SWAP4 POP POP POP POP SWAP3 SWAP2 POP POP JUMP JUMPDEST PUSH0 PUSH1 0x40 DUP3 ADD SWAP1 POP DUP2 DUP2 SUB PUSH0 DUP4 ADD MSTORE PUSH2 0xA0A DUP2 DUP6 PUSH2 0x996 JUMP JUMPDEST SWAP1 POP DUP2 DUP2 SUB PUSH1 0x20 DUP4 ADD MSTORE PUSH2 0xA1E DUP2 DUP5 PUSH2 0x996 JUMP JUMPDEST SWAP1 POP SWAP4 SWAP3 POP POP POP JUMP JUMPDEST PUSH2 0xA30 DUP2 PUSH2 0x8DD JUMP JUMPDEST DUP3 MSTORE POP POP JUMP JUMPDEST PUSH0 DUP2 ISZERO ISZERO SWAP1 POP SWAP2 SWAP1 POP JUMP JUMPDEST PUSH2 0xA4A DUP2 PUSH2 0xA36 JUMP JUMPDEST DUP3 MSTORE POP POP JUMP JUMPDEST PUSH0 DUP2 MLOAD SWAP1 POP SWAP2 SWAP1 POP JUMP JUMPDEST PUSH0 DUP3 DUP3 MSTORE PUSH1 0x20 DUP3 ADD SWAP1 POP SWAP3 SWAP2 POP POP JUMP JUMPDEST PUSH0 JUMPDEST DUP4 DUP2 LT ISZERO PUSH2 0xA87 JUMPI DUP1 DUP3 ADD MLOAD DUP2 DUP5 ADD MSTORE PUSH1 0x20 DUP2 ADD SWAP1 POP PUSH2 0xA6C JUMP JUMPDEST PUSH0 DUP5 DUP5 ADD MSTORE POP POP POP POP JUMP JUMPDEST PUSH0 PUSH1 0x1F NOT PUSH1 0x1F DUP4 ADD AND SWAP1 POP SWAP2 SWAP1 POP JUMP JUMPDEST PUSH0 PUSH2 0xAAC DUP3 PUSH2 0xA50 JUMP JUMPDEST PUSH2 0xAB6 DUP2 DUP6 PUSH2 0xA5A JUMP JUMPDEST SWAP4 POP PUSH2 0xAC6 DUP2 DUP6 PUSH1 0x20 DUP7 ADD PUSH2 0xA6A JUMP JUMPDEST PUSH2 0xACF DUP2 PUSH2 0xA92 JUMP JUMPDEST DUP5 ADD SWAP2 POP POP SWAP3 SWAP2 POP POP JUMP JUMPDEST PUSH0 PUSH20 0xFFFFFFFFFFFFFFFFFFFFFFFFFFFFFFFFFFFFFFFF DUP3 AND SWAP1 POP SWAP2 SWAP1 POP JUMP JUMPDEST PUSH0 PUSH2 0xB03 DUP3 PUSH2 0xADA JUMP JUMPDEST SWAP1 POP SWAP2 SWAP1 POP JUMP JUMPDEST PUSH2 0xB13 DUP2 PUSH2 0xAF9 JUMP JUMPDEST DUP3 MSTORE POP POP JUMP JUMPDEST PUSH0 PUSH1 0xE0 DUP3 ADD SWAP1 POP PUSH2 0xB2C PUSH0 DUP4 ADD DUP11 PUSH2 0xA27 JUMP JUMPDEST PUSH2 0xB39 PUSH1 0x20 DUP4 ADD DUP10 PUSH2 0xA41 JUMP JUMPDEST PUSH2 0xB46 PUSH1 0x40 DUP4 ADD DUP9 PUSH2 0xA41 JUMP JUMPDEST DUP2 DUP2 SUB PUSH1 0x60 DUP4 ADD MSTORE PUSH2 0xB58 DUP2 DUP8 PUSH2 0xAA2 JUMP JUMPDEST SWAP1 POP PUSH2 0xB67 PUSH1 0x80 DUP4 ADD DUP7 PUSH2 0xB0A JUMP JUMPDEST DUP2 DUP2 SUB PUSH1 0xA0 DUP4 ADD MSTORE PUSH2 0xB79 DUP2 DUP6 PUSH2 0xAA2 JUMP JUMPDEST SWAP1 POP DUP2 DUP2 SUB PUSH1 0xC0 DUP4 ADD MSTORE PUSH2 0xB8D DUP2 DUP5 PUSH2 0xAA2 JUMP JUMPDEST SWAP1 POP SWAP9 SWAP8 POP POP POP POP POP POP POP POP JUMP JUMPDEST PUSH0 DUP1 REVERT JUMPDEST PUSH0 DUP1 REVERT JUMPDEST PUSH32 0x4E487B7100000000000000000000000000000000000000000000000000000000 PUSH0 MSTORE PUSH1 0x41 PUSH1 0x4 MSTORE PUSH1 0x24 PUSH0 REVERT JUMPDEST PUSH2 0xBD9 DUP3 PUSH2 0xA92 JUMP JUMPDEST DUP2 ADD DUP2 DUP2 LT PUSH8 0xFFFFFFFFFFFFFFFF DUP3 GT OR ISZERO PUSH2 0xBF8 JUMPI PUSH2 0xBF7 PUSH2 0xBA3 JUMP JUMPDEST JUMPDEST DUP1 PUSH1 0x40 MSTORE POP POP POP JUMP JUMPDEST PUSH0 PUSH2 0xC0A PUSH2 0x8CC JUMP JUMPDEST SWAP1 POP PUSH2 0xC16 DUP3 DUP3 PUSH2 0xBD0 JUMP JUMPDEST SWAP2 SWAP1 POP JUMP JUMPDEST PUSH0 PUSH8 0xFFFFFFFFFFFFFFFF DUP3 GT ISZERO PUSH2 0xC35 JUMPI PUSH2 0xC34 PUSH2 0xBA3 JUMP JUMPDEST JUMPDEST PUSH2 0xC3E DUP3 PUSH2 0xA92 JUMP JUMPDEST SWAP1 POP PUSH1 0x20 DUP2 ADD SWAP1 POP SWAP2 SWAP1 POP JUMP JUMPDEST DUP3 DUP2 DUP4 CALLDATACOPY PUSH0 DUP4 DUP4 ADD MSTORE POP POP POP JUMP JUMPDEST PUSH0 PUSH2 0xC6B PUSH2 0xC66 DUP5 PUSH2 0xC1B JUMP JUMPDEST PUSH2 0xC01 JUMP JUMPDEST SWAP1 POP DUP3 DUP2 MSTORE PUSH1 0x20 DUP2 ADD DUP5 DUP5 DUP5 ADD GT ISZERO PUSH2 0xC87 JUMPI PUSH2 0xC86 PUSH2 0xB9F JUMP JUMPDEST JUMPDEST PUSH2 0xC92 DUP5 DUP3 DUP6 PUSH2 0xC4B JUMP JUMPDEST POP SWAP4 SWAP3 POP POP POP JUMP JUMPDEST PUSH0 DUP3 PUSH1 0x1F DUP4 ADD SLT PUSH2 0xCAE JUMPI PUSH2 0xCAD PUSH2 0xB9B JUMP JUMPDEST JUMPDEST DUP2 CALLDATALOAD PUSH2 0xCBE DUP5 DUP3 PUSH1 0x20 DUP7 ADD PUSH2 0xC59 JUMP JUMPDEST SWAP2 POP POP SWAP3 SWAP2 POP POP JUMP JUMPDEST PUSH2 0xCD0 DUP2 PUSH2 0xA36 JUMP JUMPDEST DUP2 EQ PUSH2 0xCDA JUMPI PUSH0 DUP1 REVERT JUMPDEST POP JUMP JUMPDEST PUSH0 DUP2 CALLDATALOAD SWAP1 POP PUSH2 0xCEB DUP2 PUSH2 0xCC7 JUMP JUMPDEST SWAP3 SWAP2 POP POP JUMP JUMPDEST PUSH0 DUP1 PUSH0 DUP1 PUSH0 DUP1 PUSH1 0xC0 DUP8 DUP10 SUB SLT ISZERO PUSH2 0xD0B JUMPI PUSH2 0xD0A PUSH2 0x8D5 JUMP JUMPDEST JUMPDEST PUSH0 PUSH2 0xD18 DUP10 DUP3 DUP11 ADD PUSH2 0x8FC JUMP JUMPDEST SWAP7 POP POP PUSH1 0x20 PUSH2 0xD29 DUP10 DUP3 DUP11 ADD PUSH2 0x8FC JUMP JUMPDEST SWAP6 POP POP PUSH1 0x40 DUP8 ADD CALLDATALOAD PUSH8 0xFFFFFFFFFFFFFFFF DUP2 GT ISZERO PUSH2 0xD4A JUMPI PUSH2 0xD49 PUSH2 0x8D9 JUMP JUMPDEST JUMPDEST PUSH2 0xD56 DUP10 DUP3 DUP11 ADD PUSH2 0xC9A JUMP JUMPDEST SWAP5 POP POP PUSH1 0x60 DUP8 ADD CALLDATALOAD PUSH8 0xFFFFFFFFFFFFFFFF DUP2 GT ISZERO PUSH2 0xD77 JUMPI PUSH2 0xD76 PUSH2 0x8D9 JUMP JUMPDEST JUMPDEST PUSH2 0xD83 DUP10 DUP3 DUP11 ADD PUSH2 0xC9A JUMP JUMPDEST SWAP4 POP POP PUSH1 0x80 DUP8 ADD CALLDATALOAD PUSH8 0xFFFFFFFFFFFFFFFF DUP2 GT ISZERO PUSH2 0xDA4 JUMPI PUSH2 0xDA3 PUSH2 0x8D9 JUMP JUMPDEST JUMPDEST PUSH2 0xDB0 DUP10 DUP3 DUP11 ADD PUSH2 0xC9A JUMP JUMPDEST SWAP3 POP POP PUSH1 0xA0 PUSH2 0xDC1 DUP10 DUP3 DUP11 ADD PUSH2 0xCDD JUMP JUMPDEST SWAP2 POP POP SWAP3 SWAP6 POP SWAP3 SWAP6 POP SWAP3 SWAP6 JUMP JUMPDEST PUSH32 0x746869732070726F7065727479206973206E6F7420617661696C61626C650000 PUSH0 DUP3 ADD MSTORE POP JUMP JUMPDEST PUSH0 PUSH2 0xE02 PUSH1 0x1E DUP4 PUSH2 0xA5A JUMP JUMPDEST SWAP2 POP PUSH2 0xE0D DUP3 PUSH2 0xDCE JUMP JUMPDEST PUSH1 0x20 DUP3 ADD SWAP1 POP SWAP2 SWAP1 POP JUMP JUMPDEST PUSH0 PUSH1 0x20 DUP3 ADD SWAP1 POP DUP2 DUP2 SUB PUSH0 DUP4 ADD MSTORE PUSH2 0xE2F DUP2 PUSH2 0xDF6 JUMP JUMPDEST SWAP1 POP SWAP2 SWAP1 POP JUMP JUMPDEST PUSH32 0x496E73756666696369616E742066756E64730000000000000000000000000000 PUSH0 DUP3 ADD MSTORE POP JUMP JUMPDEST PUSH0 PUSH2 0xE6A PUSH1 0x12 DUP4 PUSH2 0xA5A JUMP JUMPDEST SWAP2 POP PUSH2 0xE75 DUP3 PUSH2 0xE36 JUMP JUMPDEST PUSH1 0x20 DUP3 ADD SWAP1 POP SWAP2 SWAP1 POP JUMP JUMPDEST PUSH0 PUSH1 0x20 DUP3 ADD SWAP1 POP DUP2 DUP2 SUB PUSH0 DUP4 ADD MSTORE PUSH2 0xE97 DUP2 PUSH2 0xE5E JUMP JUMPDEST SWAP1 POP SWAP2 SWAP1 POP JUMP JUMPDEST PUSH0 PUSH1 0x20 DUP3 ADD SWAP1 POP PUSH2 0xEB1 PUSH0 DUP4 ADD DUP5 PUSH2 0xA27 JUMP JUMPDEST SWAP3 SWAP2 POP POP JUMP JUMPDEST PUSH32 0x4E487B7100000000000000000000000000000000000000000000000000000000 PUSH0 MSTORE PUSH1 0x22 PUSH1 0x4 MSTORE PUSH1 0x24 PUSH0 REVERT JUMPDEST PUSH0 PUSH1 0x2 DUP3 DIV SWAP1 POP PUSH1 0x1 DUP3 AND DUP1 PUSH2 0xEFB JUMPI PUSH1 0x7F DUP3 AND SWAP2 POP JUMPDEST PUSH1 0x20 DUP3 LT DUP2 SUB PUSH2 0xF0E JUMPI PUSH2 0xF0D PUSH2 0xEB7 JUMP JUMPDEST JUMPDEST POP SWAP2 SWAP1 POP JUMP JUMPDEST PUSH0 DUP2 SWAP1 POP DUP2 PUSH0 MSTORE PUSH1 0x20 PUSH0 KECCAK256 SWAP1 POP SWAP2 SWAP1 POP JUMP JUMPDEST PUSH0 PUSH1 0x20 PUSH1 0x1F DUP4 ADD DIV SWAP1 POP SWAP2 SWAP1 POP JUMP JUMPDEST PUSH0 DUP3 DUP3 SHL SWAP1 POP SWAP3 SWAP2 POP POP JUMP JUMPDEST PUSH0 PUSH1 0x8 DUP4 MUL PUSH2 0xF70 PUSH32 0xFFFFFFFFFFFFFFFFFFFFFFFFFFFFFFFFFFFFFFFFFFFFFFFFFFFFFFFFFFFFFFFF DUP3 PUSH2 0xF35 JUMP JUMPDEST PUSH2 0xF7A DUP7 DUP4 PUSH2 0xF35 JUMP JUMPDEST SWAP6 POP DUP1 NOT DUP5 AND SWAP4 POP DUP1 DUP7 AND DUP5 OR SWAP3 POP POP POP SWAP4 SWAP3 POP POP POP JUMP JUMPDEST PUSH0 DUP2 SWAP1 POP SWAP2 SWAP1 POP JUMP JUMPDEST PUSH0 PUSH2 0xFB5 PUSH2 0xFB0 PUSH2 0xFAB DUP5 PUSH2 0x8DD JUMP JUMPDEST PUSH2 0xF92 JUMP JUMPDEST PUSH2 0x8DD JUMP JUMPDEST SWAP1 POP SWAP2 SWAP1 POP JUMP JUMPDEST PUSH0 DUP2 SWAP1 POP SWAP2 SWAP1 POP JUMP JUMPDEST PUSH2 0xFCE DUP4 PUSH2 0xF9B JUMP JUMPDEST PUSH2 0xFE2 PUSH2 0xFDA DUP3 PUSH2 0xFBC JUMP JUMPDEST DUP5 DUP5 SLOAD PUSH2 0xF41 JUMP JUMPDEST DUP3 SSTORE POP POP POP POP JUMP JUMPDEST PUSH0 SWAP1 JUMP JUMPDEST PUSH2 0xFF6 PUSH2 0xFEA JUMP JUMPDEST PUSH2 0x1001 DUP2 DUP5 DUP5 PUSH2 0xFC5 JUMP JUMPDEST POP POP POP JUMP JUMPDEST JUMPDEST DUP2 DUP2 LT ISZERO PUSH2 0x1024 JUMPI PUSH2 0x1019 PUSH0 DUP3 PUSH2 0xFEE JUMP JUMPDEST PUSH1 0x1 DUP2 ADD SWAP1 POP PUSH2 0x1007 JUMP JUMPDEST POP POP JUMP JUMPDEST PUSH1 0x1F DUP3 GT ISZERO PUSH2 0x1069 JUMPI PUSH2 0x103A DUP2 PUSH2 0xF14 JUMP JUMPDEST PUSH2 0x1043 DUP5 PUSH2 0xF26 JUMP JUMPDEST DUP2 ADD PUSH1 0x20 DUP6 LT ISZERO PUSH2 0x1052 JUMPI DUP2 SWAP1 POP JUMPDEST PUSH2 0x1066 PUSH2 0x105E DUP6 PUSH2 0xF26 JUMP JUMPDEST DUP4 ADD DUP3 PUSH2 0x1006 JUMP JUMPDEST POP POP JUMPDEST POP POP POP JUMP JUMPDEST PUSH0 DUP3 DUP3 SHR SWAP1 POP SWAP3 SWAP2 POP POP JUMP JUMPDEST PUSH0 PUSH2 0x1089 PUSH0 NOT DUP5 PUSH1 0x8 MUL PUSH2 0x106E JUMP JUMPDEST NOT DUP1 DUP4 AND SWAP2 POP POP SWAP3 SWAP2 POP POP JUMP JUMPDEST PUSH0 PUSH2 0x10A1 DUP4 DUP4 PUSH2 0x107A JUMP JUMPDEST SWAP2 POP DUP3 PUSH1 0x2 MUL DUP3 OR SWAP1 POP SWAP3 SWAP2 POP POP JUMP JUMPDEST PUSH2 0x10BA DUP3 PUSH2 0xA50 JUMP JUMPDEST PUSH8 0xFFFFFFFFFFFFFFFF DUP2 GT ISZERO PUSH2 0x10D3 JUMPI PUSH2 0x10D2 PUSH2 0xBA3 JUMP JUMPDEST JUMPDEST PUSH2 0x10DD DUP3 SLOAD PUSH2 0xEE4 JUMP JUMPDEST PUSH2 0x10E8 DUP3 DUP3 DUP6 PUSH2 0x1028 JUMP JUMPDEST PUSH0 PUSH1 0x20 SWAP1 POP PUSH1 0x1F DUP4 GT PUSH1 0x1 DUP2 EQ PUSH2 0x1119 JUMPI PUSH0 DUP5 ISZERO PUSH2 0x1107 JUMPI DUP3 DUP8 ADD MLOAD SWAP1 POP JUMPDEST PUSH2 0x1111 DUP6 DUP3 PUSH2 0x1096 JUMP JUMPDEST DUP7 SSTORE POP PUSH2 0x1178 JUMP JUMPDEST PUSH1 0x1F NOT DUP5 AND PUSH2 0x1127 DUP7 PUSH2 0xF14 JUMP JUMPDEST PUSH0 JUMPDEST DUP3 DUP2 LT ISZERO PUSH2 0x114E JUMPI DUP5 DUP10 ADD MLOAD DUP3 SSTORE PUSH1 0x1 DUP3 ADD SWAP2 POP PUSH1 0x20 DUP6 ADD SWAP5 POP PUSH1 0x20 DUP2 ADD SWAP1 POP PUSH2 0x1129 JUMP JUMPDEST DUP7 DUP4 LT ISZERO PUSH2 0x116B JUMPI DUP5 DUP10 ADD MLOAD PUSH2 0x1167 PUSH1 0x1F DUP10 AND DUP3 PUSH2 0x107A JUMP JUMPDEST DUP4 SSTORE POP JUMPDEST PUSH1 0x1 PUSH1 0x2 DUP9 MUL ADD DUP9 SSTORE POP POP POP JUMPDEST POP POP POP POP POP POP JUMP JUMPDEST PUSH32 0x494420616C726561647920657869737473000000000000000000000000000000 PUSH0 DUP3 ADD MSTORE POP JUMP JUMPDEST PUSH0 PUSH2 0x11B4 PUSH1 0x11 DUP4 PUSH2 0xA5A JUMP JUMPDEST SWAP2 POP PUSH2 0x11BF DUP3 PUSH2 0x1180 JUMP JUMPDEST PUSH1 0x20 DUP3 ADD SWAP1 POP SWAP2 SWAP1 POP JUMP JUMPDEST PUSH0 PUSH1 0x20 DUP3 ADD SWAP1 POP DUP2 DUP2 SUB PUSH0 DUP4 ADD MSTORE PUSH2 0x11E1 DUP2 PUSH2 0x11A8 JUMP JUMPDEST SWAP1 POP SWAP2 SWAP1 POP JUMP JUMPDEST PUSH32 0x4E487B7100000000000000000000000000000000000000000000000000000000 PUSH0 MSTORE PUSH1 0x32 PUSH1 0x4 MSTORE PUSH1 0x24 PUSH0 REVERT INVALID LOG2 PUSH5 0x6970667358 0x22 SLT KECCAK256 0xBA 0xEE 0xDE RETURNDATASIZE 0xE8 PUSH17 0x66BE672A9601D47A5699F80CFE00C63237 ADDRESS DUP2 0xBB SWAP13 LOG1 0xF POP LOG2 0xA9 PUSH5 0x736F6C6343 STOP ADDMOD AND STOP CALLER "
				},
				"gasEstimates": {
					"creation": {
						"codeDepositCost": "936600",
						"executionCost": "973",
						"totalCost": "937573"
					},
					"external": {
						"Properties(uint256)": "infinite",
						"buyProperty(uint256)": "infinite",
						"getPropertylistIDs()": "infinite",
						"listPropertyForSale(uint256,uint256,string,string,string,bool)": "infinite"
					},
					"internal": {
						"findIndex(uint256[] memory,uint256)": "infinite"
					}
				},
				"methodIdentifiers": {
					"Properties(uint256)": "9d116884",
					"buyProperty(uint256)": "6fa830a6",
					"getPropertylistIDs()": "849a290f",
					"listPropertyForSale(uint256,uint256,string,string,string,bool)": "bf883743"
				}
			},
			"storageLayout": {
				"storage": [
					{
						"astId": 7,
						"contract": "contracts/RealEstate.sol:RealEstate",
						"label": "Properties",
						"offset": 0,
						"slot": "0",
						"type": "t_mapping(t_uint256,t_struct(Property)229_storage)"
					},
					{
						"astId": 10,
						"contract": "contracts/RealEstate.sol:RealEstate",
						"label": "residentialPropertyIDs",
						"offset": 0,
						"slot": "1",
						"type": "t_array(t_uint256)dyn_storage"
					},
					{
						"astId": 13,
						"contract": "contracts/RealEstate.sol:RealEstate",
						"label": "commercialPropertyIDs",
						"offset": 0,
						"slot": "2",
						"type": "t_array(t_uint256)dyn_storage"
					}
				],
				"types": {
					"t_address": {
						"encoding": "inplace",
						"label": "address",
						"numberOfBytes": "20"
					},
					"t_array(t_uint256)dyn_storage": {
						"base": "t_uint256",
						"encoding": "dynamic_array",
						"label": "uint256[]",
						"numberOfBytes": "32"
					},
					"t_bool": {
						"encoding": "inplace",
						"label": "bool",
						"numberOfBytes": "1"
					},
					"t_mapping(t_uint256,t_struct(Property)229_storage)": {
						"encoding": "mapping",
						"key": "t_uint256",
						"label": "mapping(uint256 => struct Property)",
						"numberOfBytes": "32",
						"value": "t_struct(Property)229_storage"
					},
					"t_string_storage": {
						"encoding": "bytes",
						"label": "string",
						"numberOfBytes": "32"
					},
					"t_struct(Property)229_storage": {
						"encoding": "inplace",
						"label": "struct Property",
						"members": [
							{
								"astId": 216,
								"contract": "contracts/RealEstate.sol:RealEstate",
								"label": "price",
								"offset": 0,
								"slot": "0",
								"type": "t_uint256"
							},
							{
								"astId": 218,
								"contract": "contracts/RealEstate.sol:RealEstate",
								"label": "Onsale",
								"offset": 0,
								"slot": "1",
								"type": "t_bool"
							},
							{
								"astId": 220,
								"contract": "contracts/RealEstate.sol:RealEstate",
								"label": "isResidential",
								"offset": 1,
								"slot": "1",
								"type": "t_bool"
							},
							{
								"astId": 222,
								"contract": "contracts/RealEstate.sol:RealEstate",
								"label": "name",
								"offset": 0,
								"slot": "2",
								"type": "t_string_storage"
							},
							{
								"astId": 224,
								"contract": "contracts/RealEstate.sol:RealEstate",
								"label": "owner",
								"offset": 0,
								"slot": "3",
								"type": "t_address"
							},
							{
								"astId": 226,
								"contract": "contracts/RealEstate.sol:RealEstate",
								"label": "description",
								"offset": 0,
								"slot": "4",
								"type": "t_string_storage"
							},
							{
								"astId": 228,
								"contract": "contracts/RealEstate.sol:RealEstate",
								"label": "location",
								"offset": 0,
								"slot": "5",
								"type": "t_string_storage"
							}
						],
						"numberOfBytes": "192"
					},
					"t_uint256": {
						"encoding": "inplace",
						"label": "uint256",
						"numberOfBytes": "32"
					}
				}
			},
			"userdoc": {
				"kind": "user",
				"methods": {},
				"version": 1
			}
		}
	}
}