{
	"contracts/Datatypes.sol": {
		"dataTypes": {
			"abi": [
				{
					"inputs": [],
					"name": "add",
					"outputs": [
						{
							"internalType": "address",
							"name": "",
							"type": "address"
						}
					],
					"stateMutability": "view",
					"type": "function"
				},
				{
					"inputs": [],
					"name": "adi",
					"outputs": [
						{
							"internalType": "address",
							"name": "",
							"type": "address"
						}
					],
					"stateMutability": "view",
					"type": "function"
				}
			],
			"devdoc": {
				"kind": "dev",
				"methods": {},
				"version": 1
			},
			"evm": {
				"assembly": "    /* \"contracts/Datatypes.sol\":58:1116  contract dataTypes{... */\n  mstore(0x40, 0x80)\n    /* \"contracts/Datatypes.sol\":1047:1108  address public adi=0x5B38Da6a701c568545dCfcB03FcB875f56beddC4 */\n  0x01\n  dup1\n  sload\n  not(sub(shl(0xa0, 0x01), 0x01))\n  and\n    /* \"contracts/Datatypes.sol\":1066:1108  0x5B38Da6a701c568545dCfcB03FcB875f56beddC4 */\n  0x5b38da6a701c568545dcfcb03fcb875f56beddc4\n    /* \"contracts/Datatypes.sol\":1047:1108  address public adi=0x5B38Da6a701c568545dCfcB03FcB875f56beddC4 */\n  or\n  swap1\n  sstore\n    /* \"contracts/Datatypes.sol\":58:1116  contract dataTypes{... */\n  callvalue\n  dup1\n  iszero\n  tag_1\n  jumpi\n  0x00\n  dup1\n  revert\ntag_1:\n  pop\n  dataSize(sub_0)\n  dup1\n  dataOffset(sub_0)\n  0x00\n  codecopy\n  0x00\n  return\nstop\n\nsub_0: assembly {\n        /* \"contracts/Datatypes.sol\":58:1116  contract dataTypes{... */\n      mstore(0x40, 0x80)\n      callvalue\n      dup1\n      iszero\n      tag_1\n      jumpi\n      0x00\n      dup1\n      revert\n    tag_1:\n      pop\n      jumpi(tag_2, lt(calldatasize, 0x04))\n      shr(0xe0, calldataload(0x00))\n      dup1\n      0x37a264a8\n      eq\n      tag_3\n      jumpi\n      dup1\n      0x4f2be91f\n      eq\n      tag_4\n      jumpi\n    tag_2:\n      0x00\n      dup1\n      revert\n        /* \"contracts/Datatypes.sol\":1047:1108  address public adi=0x5B38Da6a701c568545dCfcB03FcB875f56beddC4 */\n    tag_3:\n      sload(0x01)\n      tag_5\n      swap1\n      sub(shl(0xa0, 0x01), 0x01)\n      and\n      dup2\n      jump\n    tag_5:\n      mload(0x40)\n      sub(shl(0xa0, 0x01), 0x01)\n        /* \"#utility.yul\":178:210   */\n      swap1\n      swap2\n      and\n        /* \"#utility.yul\":160:211   */\n      dup2\n      mstore\n        /* \"#utility.yul\":148:150   */\n      0x20\n        /* \"#utility.yul\":133:151   */\n      add\n        /* \"contracts/Datatypes.sol\":1047:1108  address public adi=0x5B38Da6a701c568545dCfcB03FcB875f56beddC4 */\n      mload(0x40)\n      dup1\n      swap2\n      sub\n      swap1\n      return\n        /* \"contracts/Datatypes.sol\":1026:1044  address public add */\n    tag_4:\n      sload(0x00)\n      tag_5\n      swap1\n      sub(shl(0xa0, 0x01), 0x01)\n      and\n      dup2\n      jump\n\n    auxdata: 0xa26469706673582212208a08435e28e65f81312a4e937c6fab6108faca704db06bda6ef64f5a0ffd170c64736f6c63430008170033\n}\n",
				"bytecode": {
					"linkReferences": {},
					"object": "6080604052600180546001600160a01b031916735b38da6a701c568545dcfcb03fcb875f56beddc4179055348015610035575f80fd5b5060a9806100425f395ff3fe6080604052348015600e575f80fd5b50600436106030575f3560e01c806337a264a81460345780634f2be91f146062575b5f80fd5b6001546046906001600160a01b031681565b6040516001600160a01b03909116815260200160405180910390f35b5f546046906001600160a01b03168156fea26469706673582212208a08435e28e65f81312a4e937c6fab6108faca704db06bda6ef64f5a0ffd170c64736f6c63430008170033",
					"opcodes": "PUSH1 0x80 PUSH1 0x40 MSTORE PUSH1 0x1 DUP1 SLOAD PUSH1 0x1 PUSH1 0x1 PUSH1 0xA0 SHL SUB NOT AND PUSH20 0x5B38DA6A701C568545DCFCB03FCB875F56BEDDC4 OR SWAP1 SSTORE CALLVALUE DUP1 ISZERO PUSH2 0x35 JUMPI PUSH0 DUP1 REVERT JUMPDEST POP PUSH1 0xA9 DUP1 PUSH2 0x42 PUSH0 CODECOPY PUSH0 RETURN INVALID PUSH1 0x80 PUSH1 0x40 MSTORE CALLVALUE DUP1 ISZERO PUSH1 0xE JUMPI PUSH0 DUP1 REVERT JUMPDEST POP PUSH1 0x4 CALLDATASIZE LT PUSH1 0x30 JUMPI PUSH0 CALLDATALOAD PUSH1 0xE0 SHR DUP1 PUSH4 0x37A264A8 EQ PUSH1 0x34 JUMPI DUP1 PUSH4 0x4F2BE91F EQ PUSH1 0x62 JUMPI JUMPDEST PUSH0 DUP1 REVERT JUMPDEST PUSH1 0x1 SLOAD PUSH1 0x46 SWAP1 PUSH1 0x1 PUSH1 0x1 PUSH1 0xA0 SHL SUB AND DUP2 JUMP JUMPDEST PUSH1 0x40 MLOAD PUSH1 0x1 PUSH1 0x1 PUSH1 0xA0 SHL SUB SWAP1 SWAP2 AND DUP2 MSTORE PUSH1 0x20 ADD PUSH1 0x40 MLOAD DUP1 SWAP2 SUB SWAP1 RETURN JUMPDEST PUSH0 SLOAD PUSH1 0x46 SWAP1 PUSH1 0x1 PUSH1 0x1 PUSH1 0xA0 SHL SUB AND DUP2 JUMP INVALID LOG2 PUSH5 0x6970667358 0x22 SLT KECCAK256 DUP11 ADDMOD NUMBER 0x5E 0x28 0xE6 PUSH0 DUP2 BALANCE 0x2A 0x4E SWAP4 PUSH29 0x6FAB6108FACA704DB06BDA6EF64F5A0FFD170C64736F6C634300081700 CALLER "
				},
				"gasEstimates": {
					"creation": {
						"codeDepositCost": "33800",
						"executionCost": "24321",
						"totalCost": "58121"
					},
					"external": {
						"add()": "2323",
						"adi()": "2302"
					}
				},
				"methodIdentifiers": {
					"add()": "4f2be91f",
					"adi()": "37a264a8"
				}
			},
			"storageLayout": {
				"storage": [
					{
						"astId": 3,
						"contract": "contracts/Datatypes.sol:dataTypes",
						"label": "add",
						"offset": 0,
						"slot": "0",
						"type": "t_address"
					},
					{
						"astId": 6,
						"contract": "contracts/Datatypes.sol:dataTypes",
						"label": "adi",
						"offset": 0,
						"slot": "1",
						"type": "t_address"
					}
				],
				"types": {
					"t_address": {
						"encoding": "inplace",
						"label": "address",
						"numberOfBytes": "20"
					}
				}
			},
			"userdoc": {
				"kind": "user",
				"methods": {},
				"version": 1
			}
		}
	}
}