{
	"contracts/statendLocalVar.sol": {
		"statlocvar": {
			"abi": [
				{
					"inputs": [],
					"name": "localvar",
					"outputs": [
						{
							"internalType": "uint256",
							"name": "",
							"type": "uint256"
						}
					],
					"stateMutability": "pure",
					"type": "function"
				},
				{
					"inputs": [],
					"name": "stat1",
					"outputs": [
						{
							"internalType": "uint256",
							"name": "",
							"type": "uint256"
						}
					],
					"stateMutability": "view",
					"type": "function"
				},
				{
					"inputs": [],
					"name": "stat2",
					"outputs": [
						{
							"internalType": "bytes",
							"name": "",
							"type": "bytes"
						}
					],
					"stateMutability": "view",
					"type": "function"
				},
				{
					"inputs": [],
					"name": "stat3",
					"outputs": [
						{
							"internalType": "address",
							"name": "",
							"type": "address"
						}
					],
					"stateMutability": "view",
					"type": "function"
				}
			],
			"devdoc": {
				"kind": "dev",
				"methods": {},
				"version": 1
			},
			"evm": {
				"assembly": "    /* \"contracts/statendLocalVar.sol\":58:423  contract statlocvar{... */\n  mstore(0x40, 0x80)\n  callvalue\n  dup1\n  iszero\n  tag_1\n  jumpi\n  0x00\n  dup1\n  revert\ntag_1:\n  pop\n  dataSize(sub_0)\n  dup1\n  dataOffset(sub_0)\n  0x00\n  codecopy\n  0x00\n  return\nstop\n\nsub_0: assembly {\n        /* \"contracts/statendLocalVar.sol\":58:423  contract statlocvar{... */\n      mstore(0x40, 0x80)\n      callvalue\n      dup1\n      iszero\n      tag_1\n      jumpi\n      0x00\n      dup1\n      revert\n    tag_1:\n      pop\n      jumpi(tag_2, lt(calldatasize, 0x04))\n      shr(0xe0, calldataload(0x00))\n      dup1\n      0x43b4364a\n      eq\n      tag_3\n      jumpi\n      dup1\n      0x4d7c0cab\n      eq\n      tag_4\n      jumpi\n      dup1\n      0x669aa02e\n      eq\n      tag_5\n      jumpi\n      dup1\n      0x95c1861c\n      eq\n      tag_6\n      jumpi\n    tag_2:\n      0x00\n      dup1\n      revert\n        /* \"contracts/statendLocalVar.sol\":235:414  function localvar()public pure  returns (uint){... */\n    tag_3:\n      tag_7\n      tag_8\n      jump\t// in\n    tag_7:\n      mload(0x40)\n      tag_9\n      swap2\n      swap1\n      tag_10\n      jump\t// in\n    tag_9:\n      mload(0x40)\n      dup1\n      swap2\n      sub\n      swap1\n      return\n        /* \"contracts/statendLocalVar.sol\":184:202  bytes public stat2 */\n    tag_4:\n      tag_11\n      tag_12\n      jump\t// in\n    tag_11:\n      mload(0x40)\n      tag_13\n      swap2\n      swap1\n      tag_14\n      jump\t// in\n    tag_13:\n      mload(0x40)\n      dup1\n      swap2\n      sub\n      swap1\n      return\n        /* \"contracts/statendLocalVar.sol\":160:177  uint public stat1 */\n    tag_5:\n      tag_15\n      tag_16\n      jump\t// in\n    tag_15:\n      mload(0x40)\n      tag_17\n      swap2\n      swap1\n      tag_10\n      jump\t// in\n    tag_17:\n      mload(0x40)\n      dup1\n      swap2\n      sub\n      swap1\n      return\n        /* \"contracts/statendLocalVar.sol\":209:229  address public stat3 */\n    tag_6:\n      tag_18\n      tag_19\n      jump\t// in\n    tag_18:\n      mload(0x40)\n      tag_20\n      swap2\n      swap1\n      tag_21\n      jump\t// in\n    tag_20:\n      mload(0x40)\n      dup1\n      swap2\n      sub\n      swap1\n      return\n        /* \"contracts/statendLocalVar.sol\":235:414  function localvar()public pure  returns (uint){... */\n    tag_8:\n        /* \"contracts/statendLocalVar.sol\":276:280  uint */\n      0x00\n        /* \"contracts/statendLocalVar.sol\":359:370  uint  local */\n      dup1\n        /* \"contracts/statendLocalVar.sol\":371:373  20 */\n      0x14\n        /* \"contracts/statendLocalVar.sol\":359:373  uint  local=20 */\n      swap1\n      pop\n        /* \"contracts/statendLocalVar.sol\":394:399  local */\n      dup1\n        /* \"contracts/statendLocalVar.sol\":387:399  return local */\n      swap2\n      pop\n      pop\n        /* \"contracts/statendLocalVar.sol\":235:414  function localvar()public pure  returns (uint){... */\n      swap1\n      jump\t// out\n        /* \"contracts/statendLocalVar.sol\":184:202  bytes public stat2 */\n    tag_12:\n      0x01\n      dup1\n      sload\n      tag_23\n      swap1\n      tag_24\n      jump\t// in\n    tag_23:\n      dup1\n      0x1f\n      add\n      0x20\n      dup1\n      swap2\n      div\n      mul\n      0x20\n      add\n      mload(0x40)\n      swap1\n      dup2\n      add\n      0x40\n      mstore\n      dup1\n      swap3\n      swap2\n      swap1\n      dup2\n      dup2\n      mstore\n      0x20\n      add\n      dup3\n      dup1\n      sload\n      tag_25\n      swap1\n      tag_24\n      jump\t// in\n    tag_25:\n      dup1\n      iszero\n      tag_26\n      jumpi\n      dup1\n      0x1f\n      lt\n      tag_27\n      jumpi\n      0x0100\n      dup1\n      dup4\n      sload\n      div\n      mul\n      dup4\n      mstore\n      swap2\n      0x20\n      add\n      swap2\n      jump(tag_26)\n    tag_27:\n      dup3\n      add\n      swap2\n      swap1\n      0x00\n      mstore\n      keccak256(0x00, 0x20)\n      swap1\n    tag_28:\n      dup2\n      sload\n      dup2\n      mstore\n      swap1\n      0x01\n      add\n      swap1\n      0x20\n      add\n      dup1\n      dup4\n      gt\n      tag_28\n      jumpi\n      dup3\n      swap1\n      sub\n      0x1f\n      and\n      dup3\n      add\n      swap2\n    tag_26:\n      pop\n      pop\n      pop\n      pop\n      pop\n      dup2\n      jump\t// out\n        /* \"contracts/statendLocalVar.sol\":160:177  uint public stat1 */\n    tag_16:\n      sload(0x00)\n      dup2\n      jump\t// out\n        /* \"contracts/statendLocalVar.sol\":209:229  address public stat3 */\n    tag_19:\n      0x02\n      0x00\n      swap1\n      sload\n      swap1\n      0x0100\n      exp\n      swap1\n      div\n      0xffffffffffffffffffffffffffffffffffffffff\n      and\n      dup2\n      jump\t// out\n        /* \"#utility.yul\":7:84   */\n    tag_29:\n        /* \"#utility.yul\":44:51   */\n      0x00\n        /* \"#utility.yul\":73:78   */\n      dup2\n        /* \"#utility.yul\":62:78   */\n      swap1\n      pop\n        /* \"#utility.yul\":7:84   */\n      swap2\n      swap1\n      pop\n      jump\t// out\n        /* \"#utility.yul\":90:208   */\n    tag_30:\n        /* \"#utility.yul\":177:201   */\n      tag_43\n        /* \"#utility.yul\":195:200   */\n      dup2\n        /* \"#utility.yul\":177:201   */\n      tag_29\n      jump\t// in\n    tag_43:\n        /* \"#utility.yul\":172:175   */\n      dup3\n        /* \"#utility.yul\":165:202   */\n      mstore\n        /* \"#utility.yul\":90:208   */\n      pop\n      pop\n      jump\t// out\n        /* \"#utility.yul\":214:436   */\n    tag_10:\n        /* \"#utility.yul\":307:311   */\n      0x00\n        /* \"#utility.yul\":345:347   */\n      0x20\n        /* \"#utility.yul\":334:343   */\n      dup3\n        /* \"#utility.yul\":330:348   */\n      add\n        /* \"#utility.yul\":322:348   */\n      swap1\n      pop\n        /* \"#utility.yul\":358:429   */\n      tag_45\n        /* \"#utility.yul\":426:427   */\n      0x00\n        /* \"#utility.yul\":415:424   */\n      dup4\n        /* \"#utility.yul\":411:428   */\n      add\n        /* \"#utility.yul\":402:408   */\n      dup5\n        /* \"#utility.yul\":358:429   */\n      tag_30\n      jump\t// in\n    tag_45:\n        /* \"#utility.yul\":214:436   */\n      swap3\n      swap2\n      pop\n      pop\n      jump\t// out\n        /* \"#utility.yul\":442:540   */\n    tag_31:\n        /* \"#utility.yul\":493:499   */\n      0x00\n        /* \"#utility.yul\":527:532   */\n      dup2\n        /* \"#utility.yul\":521:533   */\n      mload\n        /* \"#utility.yul\":511:533   */\n      swap1\n      pop\n        /* \"#utility.yul\":442:540   */\n      swap2\n      swap1\n      pop\n      jump\t// out\n        /* \"#utility.yul\":546:714   */\n    tag_32:\n        /* \"#utility.yul\":629:640   */\n      0x00\n        /* \"#utility.yul\":663:669   */\n      dup3\n        /* \"#utility.yul\":658:661   */\n      dup3\n        /* \"#utility.yul\":651:670   */\n      mstore\n        /* \"#utility.yul\":703:707   */\n      0x20\n        /* \"#utility.yul\":698:701   */\n      dup3\n        /* \"#utility.yul\":694:708   */\n      add\n        /* \"#utility.yul\":679:708   */\n      swap1\n      pop\n        /* \"#utility.yul\":546:714   */\n      swap3\n      swap2\n      pop\n      pop\n      jump\t// out\n        /* \"#utility.yul\":720:966   */\n    tag_33:\n        /* \"#utility.yul\":801:802   */\n      0x00\n        /* \"#utility.yul\":811:924   */\n    tag_49:\n        /* \"#utility.yul\":825:831   */\n      dup4\n        /* \"#utility.yul\":822:823   */\n      dup2\n        /* \"#utility.yul\":819:832   */\n      lt\n        /* \"#utility.yul\":811:924   */\n      iszero\n      tag_51\n      jumpi\n        /* \"#utility.yul\":910:911   */\n      dup1\n        /* \"#utility.yul\":905:908   */\n      dup3\n        /* \"#utility.yul\":901:912   */\n      add\n        /* \"#utility.yul\":895:913   */\n      mload\n        /* \"#utility.yul\":891:892   */\n      dup2\n        /* \"#utility.yul\":886:889   */\n      dup5\n        /* \"#utility.yul\":882:893   */\n      add\n        /* \"#utility.yul\":875:914   */\n      mstore\n        /* \"#utility.yul\":847:849   */\n      0x20\n        /* \"#utility.yul\":844:845   */\n      dup2\n        /* \"#utility.yul\":840:850   */\n      add\n        /* \"#utility.yul\":835:850   */\n      swap1\n      pop\n        /* \"#utility.yul\":811:924   */\n      jump(tag_49)\n    tag_51:\n        /* \"#utility.yul\":958:959   */\n      0x00\n        /* \"#utility.yul\":949:955   */\n      dup5\n        /* \"#utility.yul\":944:947   */\n      dup5\n        /* \"#utility.yul\":940:956   */\n      add\n        /* \"#utility.yul\":933:960   */\n      mstore\n        /* \"#utility.yul\":782:966   */\n      pop\n        /* \"#utility.yul\":720:966   */\n      pop\n      pop\n      pop\n      jump\t// out\n        /* \"#utility.yul\":972:1074   */\n    tag_34:\n        /* \"#utility.yul\":1013:1019   */\n      0x00\n        /* \"#utility.yul\":1064:1066   */\n      0x1f\n        /* \"#utility.yul\":1060:1067   */\n      not\n        /* \"#utility.yul\":1055:1057   */\n      0x1f\n        /* \"#utility.yul\":1048:1053   */\n      dup4\n        /* \"#utility.yul\":1044:1058   */\n      add\n        /* \"#utility.yul\":1040:1068   */\n      and\n        /* \"#utility.yul\":1030:1068   */\n      swap1\n      pop\n        /* \"#utility.yul\":972:1074   */\n      swap2\n      swap1\n      pop\n      jump\t// out\n        /* \"#utility.yul\":1080:1453   */\n    tag_35:\n        /* \"#utility.yul\":1166:1169   */\n      0x00\n        /* \"#utility.yul\":1194:1232   */\n      tag_54\n        /* \"#utility.yul\":1226:1231   */\n      dup3\n        /* \"#utility.yul\":1194:1232   */\n      tag_31\n      jump\t// in\n    tag_54:\n        /* \"#utility.yul\":1248:1318   */\n      tag_55\n        /* \"#utility.yul\":1311:1317   */\n      dup2\n        /* \"#utility.yul\":1306:1309   */\n      dup6\n        /* \"#utility.yul\":1248:1318   */\n      tag_32\n      jump\t// in\n    tag_55:\n        /* \"#utility.yul\":1241:1318   */\n      swap4\n      pop\n        /* \"#utility.yul\":1327:1392   */\n      tag_56\n        /* \"#utility.yul\":1385:1391   */\n      dup2\n        /* \"#utility.yul\":1380:1383   */\n      dup6\n        /* \"#utility.yul\":1373:1377   */\n      0x20\n        /* \"#utility.yul\":1366:1371   */\n      dup7\n        /* \"#utility.yul\":1362:1378   */\n      add\n        /* \"#utility.yul\":1327:1392   */\n      tag_33\n      jump\t// in\n    tag_56:\n        /* \"#utility.yul\":1417:1446   */\n      tag_57\n        /* \"#utility.yul\":1439:1445   */\n      dup2\n        /* \"#utility.yul\":1417:1446   */\n      tag_34\n      jump\t// in\n    tag_57:\n        /* \"#utility.yul\":1412:1415   */\n      dup5\n        /* \"#utility.yul\":1408:1447   */\n      add\n        /* \"#utility.yul\":1401:1447   */\n      swap2\n      pop\n        /* \"#utility.yul\":1170:1453   */\n      pop\n        /* \"#utility.yul\":1080:1453   */\n      swap3\n      swap2\n      pop\n      pop\n      jump\t// out\n        /* \"#utility.yul\":1459:1768   */\n    tag_14:\n        /* \"#utility.yul\":1570:1574   */\n      0x00\n        /* \"#utility.yul\":1608:1610   */\n      0x20\n        /* \"#utility.yul\":1597:1606   */\n      dup3\n        /* \"#utility.yul\":1593:1611   */\n      add\n        /* \"#utility.yul\":1585:1611   */\n      swap1\n      pop\n        /* \"#utility.yul\":1657:1666   */\n      dup2\n        /* \"#utility.yul\":1651:1655   */\n      dup2\n        /* \"#utility.yul\":1647:1667   */\n      sub\n        /* \"#utility.yul\":1643:1644   */\n      0x00\n        /* \"#utility.yul\":1632:1641   */\n      dup4\n        /* \"#utility.yul\":1628:1645   */\n      add\n        /* \"#utility.yul\":1621:1668   */\n      mstore\n        /* \"#utility.yul\":1685:1761   */\n      tag_59\n        /* \"#utility.yul\":1756:1760   */\n      dup2\n        /* \"#utility.yul\":1747:1753   */\n      dup5\n        /* \"#utility.yul\":1685:1761   */\n      tag_35\n      jump\t// in\n    tag_59:\n        /* \"#utility.yul\":1677:1761   */\n      swap1\n      pop\n        /* \"#utility.yul\":1459:1768   */\n      swap3\n      swap2\n      pop\n      pop\n      jump\t// out\n        /* \"#utility.yul\":1774:1900   */\n    tag_36:\n        /* \"#utility.yul\":1811:1818   */\n      0x00\n        /* \"#utility.yul\":1851:1893   */\n      0xffffffffffffffffffffffffffffffffffffffff\n        /* \"#utility.yul\":1844:1849   */\n      dup3\n        /* \"#utility.yul\":1840:1894   */\n      and\n        /* \"#utility.yul\":1829:1894   */\n      swap1\n      pop\n        /* \"#utility.yul\":1774:1900   */\n      swap2\n      swap1\n      pop\n      jump\t// out\n        /* \"#utility.yul\":1906:2002   */\n    tag_37:\n        /* \"#utility.yul\":1943:1950   */\n      0x00\n        /* \"#utility.yul\":1972:1996   */\n      tag_62\n        /* \"#utility.yul\":1990:1995   */\n      dup3\n        /* \"#utility.yul\":1972:1996   */\n      tag_36\n      jump\t// in\n    tag_62:\n        /* \"#utility.yul\":1961:1996   */\n      swap1\n      pop\n        /* \"#utility.yul\":1906:2002   */\n      swap2\n      swap1\n      pop\n      jump\t// out\n        /* \"#utility.yul\":2008:2126   */\n    tag_38:\n        /* \"#utility.yul\":2095:2119   */\n      tag_64\n        /* \"#utility.yul\":2113:2118   */\n      dup2\n        /* \"#utility.yul\":2095:2119   */\n      tag_37\n      jump\t// in\n    tag_64:\n        /* \"#utility.yul\":2090:2093   */\n      dup3\n        /* \"#utility.yul\":2083:2120   */\n      mstore\n        /* \"#utility.yul\":2008:2126   */\n      pop\n      pop\n      jump\t// out\n        /* \"#utility.yul\":2132:2354   */\n    tag_21:\n        /* \"#utility.yul\":2225:2229   */\n      0x00\n        /* \"#utility.yul\":2263:2265   */\n      0x20\n        /* \"#utility.yul\":2252:2261   */\n      dup3\n        /* \"#utility.yul\":2248:2266   */\n      add\n        /* \"#utility.yul\":2240:2266   */\n      swap1\n      pop\n        /* \"#utility.yul\":2276:2347   */\n      tag_66\n        /* \"#utility.yul\":2344:2345   */\n      0x00\n        /* \"#utility.yul\":2333:2342   */\n      dup4\n        /* \"#utility.yul\":2329:2346   */\n      add\n        /* \"#utility.yul\":2320:2326   */\n      dup5\n        /* \"#utility.yul\":2276:2347   */\n      tag_38\n      jump\t// in\n    tag_66:\n        /* \"#utility.yul\":2132:2354   */\n      swap3\n      swap2\n      pop\n      pop\n      jump\t// out\n        /* \"#utility.yul\":2360:2540   */\n    tag_39:\n        /* \"#utility.yul\":2408:2485   */\n      0x4e487b7100000000000000000000000000000000000000000000000000000000\n        /* \"#utility.yul\":2405:2406   */\n      0x00\n        /* \"#utility.yul\":2398:2486   */\n      mstore\n        /* \"#utility.yul\":2505:2509   */\n      0x22\n        /* \"#utility.yul\":2502:2503   */\n      0x04\n        /* \"#utility.yul\":2495:2510   */\n      mstore\n        /* \"#utility.yul\":2529:2533   */\n      0x24\n        /* \"#utility.yul\":2526:2527   */\n      0x00\n        /* \"#utility.yul\":2519:2534   */\n      revert\n        /* \"#utility.yul\":2546:2866   */\n    tag_24:\n        /* \"#utility.yul\":2590:2596   */\n      0x00\n        /* \"#utility.yul\":2627:2628   */\n      0x02\n        /* \"#utility.yul\":2621:2625   */\n      dup3\n        /* \"#utility.yul\":2617:2629   */\n      div\n        /* \"#utility.yul\":2607:2629   */\n      swap1\n      pop\n        /* \"#utility.yul\":2674:2675   */\n      0x01\n        /* \"#utility.yul\":2668:2672   */\n      dup3\n        /* \"#utility.yul\":2664:2676   */\n      and\n        /* \"#utility.yul\":2695:2713   */\n      dup1\n        /* \"#utility.yul\":2685:2766   */\n      tag_69\n      jumpi\n        /* \"#utility.yul\":2751:2755   */\n      0x7f\n        /* \"#utility.yul\":2743:2749   */\n      dup3\n        /* \"#utility.yul\":2739:2756   */\n      and\n        /* \"#utility.yul\":2729:2756   */\n      swap2\n      pop\n        /* \"#utility.yul\":2685:2766   */\n    tag_69:\n        /* \"#utility.yul\":2813:2815   */\n      0x20\n        /* \"#utility.yul\":2805:2811   */\n      dup3\n        /* \"#utility.yul\":2802:2816   */\n      lt\n        /* \"#utility.yul\":2782:2800   */\n      dup2\n        /* \"#utility.yul\":2779:2817   */\n      sub\n        /* \"#utility.yul\":2776:2860   */\n      tag_70\n      jumpi\n        /* \"#utility.yul\":2832:2850   */\n      tag_71\n      tag_39\n      jump\t// in\n    tag_71:\n        /* \"#utility.yul\":2776:2860   */\n    tag_70:\n        /* \"#utility.yul\":2597:2866   */\n      pop\n        /* \"#utility.yul\":2546:2866   */\n      swap2\n      swap1\n      pop\n      jump\t// out\n\n    auxdata: 0xa26469706673582212203761d9f4f20c92d22e534f7ed94f1a5c009a0131d23509c5ac801c5c054abcbf64736f6c63430008160033\n}\n",
				"bytecode": {
					"linkReferences": {},
					"object": "608060405234801561000f575f80fd5b5061034f8061001d5f395ff3fe608060405234801561000f575f80fd5b506004361061004a575f3560e01c806343b4364a1461004e5780634d7c0cab1461006c578063669aa02e1461008a57806395c1861c146100a8575b5f80fd5b6100566100c6565b60405161006391906101a1565b60405180910390f35b6100746100d3565b6040516100819190610244565b60405180910390f35b61009261015f565b60405161009f91906101a1565b60405180910390f35b6100b0610164565b6040516100bd91906102a3565b60405180910390f35b5f80601490508091505090565b600180546100e0906102e9565b80601f016020809104026020016040519081016040528092919081815260200182805461010c906102e9565b80156101575780601f1061012e57610100808354040283529160200191610157565b820191905f5260205f20905b81548152906001019060200180831161013a57829003601f168201915b505050505081565b5f5481565b60025f9054906101000a900473ffffffffffffffffffffffffffffffffffffffff1681565b5f819050919050565b61019b81610189565b82525050565b5f6020820190506101b45f830184610192565b92915050565b5f81519050919050565b5f82825260208201905092915050565b5f5b838110156101f15780820151818401526020810190506101d6565b5f8484015250505050565b5f601f19601f8301169050919050565b5f610216826101ba565b61022081856101c4565b93506102308185602086016101d4565b610239816101fc565b840191505092915050565b5f6020820190508181035f83015261025c818461020c565b905092915050565b5f73ffffffffffffffffffffffffffffffffffffffff82169050919050565b5f61028d82610264565b9050919050565b61029d81610283565b82525050565b5f6020820190506102b65f830184610294565b92915050565b7f4e487b71000000000000000000000000000000000000000000000000000000005f52602260045260245ffd5b5f600282049050600182168061030057607f821691505b602082108103610313576103126102bc565b5b5091905056fea26469706673582212203761d9f4f20c92d22e534f7ed94f1a5c009a0131d23509c5ac801c5c054abcbf64736f6c63430008160033",
					"opcodes": "PUSH1 0x80 PUSH1 0x40 MSTORE CALLVALUE DUP1 ISZERO PUSH2 0xF JUMPI PUSH0 DUP1 REVERT JUMPDEST POP PUSH2 0x34F DUP1 PUSH2 0x1D PUSH0 CODECOPY PUSH0 RETURN INVALID PUSH1 0x80 PUSH1 0x40 MSTORE CALLVALUE DUP1 ISZERO PUSH2 0xF JUMPI PUSH0 DUP1 REVERT JUMPDEST POP PUSH1 0x4 CALLDATASIZE LT PUSH2 0x4A JUMPI PUSH0 CALLDATALOAD PUSH1 0xE0 SHR DUP1 PUSH4 0x43B4364A EQ PUSH2 0x4E JUMPI DUP1 PUSH4 0x4D7C0CAB EQ PUSH2 0x6C JUMPI DUP1 PUSH4 0x669AA02E EQ PUSH2 0x8A JUMPI DUP1 PUSH4 0x95C1861C EQ PUSH2 0xA8 JUMPI JUMPDEST PUSH0 DUP1 REVERT JUMPDEST PUSH2 0x56 PUSH2 0xC6 JUMP JUMPDEST PUSH1 0x40 MLOAD PUSH2 0x63 SWAP2 SWAP1 PUSH2 0x1A1 JUMP JUMPDEST PUSH1 0x40 MLOAD DUP1 SWAP2 SUB SWAP1 RETURN JUMPDEST PUSH2 0x74 PUSH2 0xD3 JUMP JUMPDEST PUSH1 0x40 MLOAD PUSH2 0x81 SWAP2 SWAP1 PUSH2 0x244 JUMP JUMPDEST PUSH1 0x40 MLOAD DUP1 SWAP2 SUB SWAP1 RETURN JUMPDEST PUSH2 0x92 PUSH2 0x15F JUMP JUMPDEST PUSH1 0x40 MLOAD PUSH2 0x9F SWAP2 SWAP1 PUSH2 0x1A1 JUMP JUMPDEST PUSH1 0x40 MLOAD DUP1 SWAP2 SUB SWAP1 RETURN JUMPDEST PUSH2 0xB0 PUSH2 0x164 JUMP JUMPDEST PUSH1 0x40 MLOAD PUSH2 0xBD SWAP2 SWAP1 PUSH2 0x2A3 JUMP JUMPDEST PUSH1 0x40 MLOAD DUP1 SWAP2 SUB SWAP1 RETURN JUMPDEST PUSH0 DUP1 PUSH1 0x14 SWAP1 POP DUP1 SWAP2 POP POP SWAP1 JUMP JUMPDEST PUSH1 0x1 DUP1 SLOAD PUSH2 0xE0 SWAP1 PUSH2 0x2E9 JUMP JUMPDEST DUP1 PUSH1 0x1F ADD PUSH1 0x20 DUP1 SWAP2 DIV MUL PUSH1 0x20 ADD PUSH1 0x40 MLOAD SWAP1 DUP2 ADD PUSH1 0x40 MSTORE DUP1 SWAP3 SWAP2 SWAP1 DUP2 DUP2 MSTORE PUSH1 0x20 ADD DUP3 DUP1 SLOAD PUSH2 0x10C SWAP1 PUSH2 0x2E9 JUMP JUMPDEST DUP1 ISZERO PUSH2 0x157 JUMPI DUP1 PUSH1 0x1F LT PUSH2 0x12E JUMPI PUSH2 0x100 DUP1 DUP4 SLOAD DIV MUL DUP4 MSTORE SWAP2 PUSH1 0x20 ADD SWAP2 PUSH2 0x157 JUMP JUMPDEST DUP3 ADD SWAP2 SWAP1 PUSH0 MSTORE PUSH1 0x20 PUSH0 KECCAK256 SWAP1 JUMPDEST DUP2 SLOAD DUP2 MSTORE SWAP1 PUSH1 0x1 ADD SWAP1 PUSH1 0x20 ADD DUP1 DUP4 GT PUSH2 0x13A JUMPI DUP3 SWAP1 SUB PUSH1 0x1F AND DUP3 ADD SWAP2 JUMPDEST POP POP POP POP POP DUP2 JUMP JUMPDEST PUSH0 SLOAD DUP2 JUMP JUMPDEST PUSH1 0x2 PUSH0 SWAP1 SLOAD SWAP1 PUSH2 0x100 EXP SWAP1 DIV PUSH20 0xFFFFFFFFFFFFFFFFFFFFFFFFFFFFFFFFFFFFFFFF AND DUP2 JUMP JUMPDEST PUSH0 DUP2 SWAP1 POP SWAP2 SWAP1 POP JUMP JUMPDEST PUSH2 0x19B DUP2 PUSH2 0x189 JUMP JUMPDEST DUP3 MSTORE POP POP JUMP JUMPDEST PUSH0 PUSH1 0x20 DUP3 ADD SWAP1 POP PUSH2 0x1B4 PUSH0 DUP4 ADD DUP5 PUSH2 0x192 JUMP JUMPDEST SWAP3 SWAP2 POP POP JUMP JUMPDEST PUSH0 DUP2 MLOAD SWAP1 POP SWAP2 SWAP1 POP JUMP JUMPDEST PUSH0 DUP3 DUP3 MSTORE PUSH1 0x20 DUP3 ADD SWAP1 POP SWAP3 SWAP2 POP POP JUMP JUMPDEST PUSH0 JUMPDEST DUP4 DUP2 LT ISZERO PUSH2 0x1F1 JUMPI DUP1 DUP3 ADD MLOAD DUP2 DUP5 ADD MSTORE PUSH1 0x20 DUP2 ADD SWAP1 POP PUSH2 0x1D6 JUMP JUMPDEST PUSH0 DUP5 DUP5 ADD MSTORE POP POP POP POP JUMP JUMPDEST PUSH0 PUSH1 0x1F NOT PUSH1 0x1F DUP4 ADD AND SWAP1 POP SWAP2 SWAP1 POP JUMP JUMPDEST PUSH0 PUSH2 0x216 DUP3 PUSH2 0x1BA JUMP JUMPDEST PUSH2 0x220 DUP2 DUP6 PUSH2 0x1C4 JUMP JUMPDEST SWAP4 POP PUSH2 0x230 DUP2 DUP6 PUSH1 0x20 DUP7 ADD PUSH2 0x1D4 JUMP JUMPDEST PUSH2 0x239 DUP2 PUSH2 0x1FC JUMP JUMPDEST DUP5 ADD SWAP2 POP POP SWAP3 SWAP2 POP POP JUMP JUMPDEST PUSH0 PUSH1 0x20 DUP3 ADD SWAP1 POP DUP2 DUP2 SUB PUSH0 DUP4 ADD MSTORE PUSH2 0x25C DUP2 DUP5 PUSH2 0x20C JUMP JUMPDEST SWAP1 POP SWAP3 SWAP2 POP POP JUMP JUMPDEST PUSH0 PUSH20 0xFFFFFFFFFFFFFFFFFFFFFFFFFFFFFFFFFFFFFFFF DUP3 AND SWAP1 POP SWAP2 SWAP1 POP JUMP JUMPDEST PUSH0 PUSH2 0x28D DUP3 PUSH2 0x264 JUMP JUMPDEST SWAP1 POP SWAP2 SWAP1 POP JUMP JUMPDEST PUSH2 0x29D DUP2 PUSH2 0x283 JUMP JUMPDEST DUP3 MSTORE POP POP JUMP JUMPDEST PUSH0 PUSH1 0x20 DUP3 ADD SWAP1 POP PUSH2 0x2B6 PUSH0 DUP4 ADD DUP5 PUSH2 0x294 JUMP JUMPDEST SWAP3 SWAP2 POP POP JUMP JUMPDEST PUSH32 0x4E487B7100000000000000000000000000000000000000000000000000000000 PUSH0 MSTORE PUSH1 0x22 PUSH1 0x4 MSTORE PUSH1 0x24 PUSH0 REVERT JUMPDEST PUSH0 PUSH1 0x2 DUP3 DIV SWAP1 POP PUSH1 0x1 DUP3 AND DUP1 PUSH2 0x300 JUMPI PUSH1 0x7F DUP3 AND SWAP2 POP JUMPDEST PUSH1 0x20 DUP3 LT DUP2 SUB PUSH2 0x313 JUMPI PUSH2 0x312 PUSH2 0x2BC JUMP JUMPDEST JUMPDEST POP SWAP2 SWAP1 POP JUMP INVALID LOG2 PUSH5 0x6970667358 0x22 SLT KECCAK256 CALLDATACOPY PUSH2 0xD9F4 CALLCODE 0xC SWAP3 0xD2 0x2E MSTORE8 0x4F PUSH31 0xD94F1A5C009A0131D23509C5AC801C5C054ABCBF64736F6C63430008160033 "
				},
				"gasEstimates": {
					"creation": {
						"codeDepositCost": "169400",
						"executionCost": "212",
						"totalCost": "169612"
					},
					"external": {
						"localvar()": "323",
						"stat1()": "2446",
						"stat2()": "infinite",
						"stat3()": "2552"
					}
				},
				"methodIdentifiers": {
					"localvar()": "43b4364a",
					"stat1()": "669aa02e",
					"stat2()": "4d7c0cab",
					"stat3()": "95c1861c"
				}
			},
			"storageLayout": {
				"storage": [
					{
						"astId": 3,
						"contract": "contracts/statendLocalVar.sol:statlocvar",
						"label": "stat1",
						"offset": 0,
						"slot": "0",
						"type": "t_uint256"
					},
					{
						"astId": 5,
						"contract": "contracts/statendLocalVar.sol:statlocvar",
						"label": "stat2",
						"offset": 0,
						"slot": "1",
						"type": "t_bytes_storage"
					},
					{
						"astId": 7,
						"contract": "contracts/statendLocalVar.sol:statlocvar",
						"label": "stat3",
						"offset": 0,
						"slot": "2",
						"type": "t_address"
					}
				],
				"types": {
					"t_address": {
						"encoding": "inplace",
						"label": "address",
						"numberOfBytes": "20"
					},
					"t_bytes_storage": {
						"encoding": "bytes",
						"label": "bytes",
						"numberOfBytes": "32"
					},
					"t_uint256": {
						"encoding": "inplace",
						"label": "uint256",
						"numberOfBytes": "32"
					}
				}
			},
			"userdoc": {
				"kind": "user",
				"methods": {},
				"version": 1
			}
		}
	}
}