{
	"contracts/Events.sol": {
		"Events": {
			"abi": [
				{
					"anonymous": false,
					"inputs": [],
					"name": "anotherlog",
					"type": "event"
				},
				{
					"anonymous": false,
					"inputs": [
						{
							"indexed": true,
							"internalType": "address",
							"name": "sendr",
							"type": "address"
						},
						{
							"indexed": false,
							"internalType": "string",
							"name": "message",
							"type": "string"
						}
					],
					"name": "log",
					"type": "event"
				},
				{
					"inputs": [],
					"name": "eventListen",
					"outputs": [],
					"stateMutability": "nonpayable",
					"type": "function"
				}
			],
			"devdoc": {
				"kind": "dev",
				"methods": {},
				"version": 1
			},
			"evm": {
				"assembly": "    /* \"contracts/Events.sol\":58:798  contract Events{... */\n  mstore(0x40, 0x80)\n  callvalue\n  dup1\n  iszero\n  tag_1\n  jumpi\n  0x00\n  dup1\n  revert\ntag_1:\n  pop\n  dataSize(sub_0)\n  dup1\n  dataOffset(sub_0)\n  0x00\n  codecopy\n  0x00\n  return\nstop\n\nsub_0: assembly {\n        /* \"contracts/Events.sol\":58:798  contract Events{... */\n      mstore(0x40, 0x80)\n      callvalue\n      dup1\n      iszero\n      tag_1\n      jumpi\n      0x00\n      dup1\n      revert\n    tag_1:\n      pop\n      jumpi(tag_2, lt(calldatasize, 0x04))\n      shr(0xe0, calldataload(0x00))\n      dup1\n      0x1401786e\n      eq\n      tag_3\n      jumpi\n    tag_2:\n      0x00\n      dup1\n      revert\n        /* \"contracts/Events.sol\":634:795  function eventListen()public {... */\n    tag_3:\n      tag_4\n      tag_5\n      jump\t// in\n    tag_4:\n      stop\n    tag_5:\n        /* \"contracts/Events.sol\":683:693  msg.sender */\n      caller\n        /* \"contracts/Events.sol\":679:704  log(msg.sender,\"shahnil\") */\n      0xffffffffffffffffffffffffffffffffffffffff\n      and\n      0x759f86bbdd0758679ecefbd32ea620068b2339dddd9e45ee0fa567ee6c81f0ab\n      mload(0x40)\n      tag_7\n      swap1\n      tag_8\n      jump\t// in\n    tag_7:\n      mload(0x40)\n      dup1\n      swap2\n      sub\n      swap1\n      log2\n        /* \"contracts/Events.sol\":733:734  0 */\n      0x00\n        /* \"contracts/Events.sol\":720:749  log (address(0),\"notshahnil\") */\n      0xffffffffffffffffffffffffffffffffffffffff\n      and\n      0x759f86bbdd0758679ecefbd32ea620068b2339dddd9e45ee0fa567ee6c81f0ab\n      mload(0x40)\n      tag_9\n      swap1\n      tag_10\n      jump\t// in\n    tag_9:\n      mload(0x40)\n      dup1\n      swap2\n      sub\n      swap1\n      log2\n        /* \"contracts/Events.sol\":765:777  anotherlog() */\n      0x248efac7eefeccb52f576426a24d627d42f501660816b9eee2883967e6212540\n      mload(0x40)\n      mload(0x40)\n      dup1\n      swap2\n      sub\n      swap1\n      log1\n        /* \"contracts/Events.sol\":634:795  function eventListen()public {... */\n      jump\t// out\n        /* \"#utility.yul\":7:176   */\n    tag_11:\n        /* \"#utility.yul\":91:102   */\n      0x00\n        /* \"#utility.yul\":125:131   */\n      dup3\n        /* \"#utility.yul\":120:123   */\n      dup3\n        /* \"#utility.yul\":113:132   */\n      mstore\n        /* \"#utility.yul\":165:169   */\n      0x20\n        /* \"#utility.yul\":160:163   */\n      dup3\n        /* \"#utility.yul\":156:170   */\n      add\n        /* \"#utility.yul\":141:170   */\n      swap1\n      pop\n        /* \"#utility.yul\":7:176   */\n      swap3\n      swap2\n      pop\n      pop\n      jump\t// out\n        /* \"#utility.yul\":182:339   */\n    tag_12:\n        /* \"#utility.yul\":322:331   */\n      0x736861686e696c00000000000000000000000000000000000000000000000000\n        /* \"#utility.yul\":318:319   */\n      0x00\n        /* \"#utility.yul\":310:316   */\n      dup3\n        /* \"#utility.yul\":306:320   */\n      add\n        /* \"#utility.yul\":299:332   */\n      mstore\n        /* \"#utility.yul\":182:339   */\n      pop\n      jump\t// out\n        /* \"#utility.yul\":345:710   */\n    tag_13:\n        /* \"#utility.yul\":487:490   */\n      0x00\n        /* \"#utility.yul\":508:574   */\n      tag_20\n        /* \"#utility.yul\":572:573   */\n      0x07\n        /* \"#utility.yul\":567:570   */\n      dup4\n        /* \"#utility.yul\":508:574   */\n      tag_11\n      jump\t// in\n    tag_20:\n        /* \"#utility.yul\":501:574   */\n      swap2\n      pop\n        /* \"#utility.yul\":583:676   */\n      tag_21\n        /* \"#utility.yul\":672:675   */\n      dup3\n        /* \"#utility.yul\":583:676   */\n      tag_12\n      jump\t// in\n    tag_21:\n        /* \"#utility.yul\":701:703   */\n      0x20\n        /* \"#utility.yul\":696:699   */\n      dup3\n        /* \"#utility.yul\":692:704   */\n      add\n        /* \"#utility.yul\":685:704   */\n      swap1\n      pop\n        /* \"#utility.yul\":345:710   */\n      swap2\n      swap1\n      pop\n      jump\t// out\n        /* \"#utility.yul\":716:1135   */\n    tag_8:\n        /* \"#utility.yul\":882:886   */\n      0x00\n        /* \"#utility.yul\":920:922   */\n      0x20\n        /* \"#utility.yul\":909:918   */\n      dup3\n        /* \"#utility.yul\":905:923   */\n      add\n        /* \"#utility.yul\":897:923   */\n      swap1\n      pop\n        /* \"#utility.yul\":969:978   */\n      dup2\n        /* \"#utility.yul\":963:967   */\n      dup2\n        /* \"#utility.yul\":959:979   */\n      sub\n        /* \"#utility.yul\":955:956   */\n      0x00\n        /* \"#utility.yul\":944:953   */\n      dup4\n        /* \"#utility.yul\":940:957   */\n      add\n        /* \"#utility.yul\":933:980   */\n      mstore\n        /* \"#utility.yul\":997:1128   */\n      tag_23\n        /* \"#utility.yul\":1123:1127   */\n      dup2\n        /* \"#utility.yul\":997:1128   */\n      tag_13\n      jump\t// in\n    tag_23:\n        /* \"#utility.yul\":989:1128   */\n      swap1\n      pop\n        /* \"#utility.yul\":716:1135   */\n      swap2\n      swap1\n      pop\n      jump\t// out\n        /* \"#utility.yul\":1141:1301   */\n    tag_14:\n        /* \"#utility.yul\":1281:1293   */\n      0x6e6f74736861686e696c00000000000000000000000000000000000000000000\n        /* \"#utility.yul\":1277:1278   */\n      0x00\n        /* \"#utility.yul\":1269:1275   */\n      dup3\n        /* \"#utility.yul\":1265:1279   */\n      add\n        /* \"#utility.yul\":1258:1294   */\n      mstore\n        /* \"#utility.yul\":1141:1301   */\n      pop\n      jump\t// out\n        /* \"#utility.yul\":1307:1673   */\n    tag_15:\n        /* \"#utility.yul\":1449:1452   */\n      0x00\n        /* \"#utility.yul\":1470:1537   */\n      tag_26\n        /* \"#utility.yul\":1534:1536   */\n      0x0a\n        /* \"#utility.yul\":1529:1532   */\n      dup4\n        /* \"#utility.yul\":1470:1537   */\n      tag_11\n      jump\t// in\n    tag_26:\n        /* \"#utility.yul\":1463:1537   */\n      swap2\n      pop\n        /* \"#utility.yul\":1546:1639   */\n      tag_27\n        /* \"#utility.yul\":1635:1638   */\n      dup3\n        /* \"#utility.yul\":1546:1639   */\n      tag_14\n      jump\t// in\n    tag_27:\n        /* \"#utility.yul\":1664:1666   */\n      0x20\n        /* \"#utility.yul\":1659:1662   */\n      dup3\n        /* \"#utility.yul\":1655:1667   */\n      add\n        /* \"#utility.yul\":1648:1667   */\n      swap1\n      pop\n        /* \"#utility.yul\":1307:1673   */\n      swap2\n      swap1\n      pop\n      jump\t// out\n        /* \"#utility.yul\":1679:2098   */\n    tag_10:\n        /* \"#utility.yul\":1845:1849   */\n      0x00\n        /* \"#utility.yul\":1883:1885   */\n      0x20\n        /* \"#utility.yul\":1872:1881   */\n      dup3\n        /* \"#utility.yul\":1868:1886   */\n      add\n        /* \"#utility.yul\":1860:1886   */\n      swap1\n      pop\n        /* \"#utility.yul\":1932:1941   */\n      dup2\n        /* \"#utility.yul\":1926:1930   */\n      dup2\n        /* \"#utility.yul\":1922:1942   */\n      sub\n        /* \"#utility.yul\":1918:1919   */\n      0x00\n        /* \"#utility.yul\":1907:1916   */\n      dup4\n        /* \"#utility.yul\":1903:1920   */\n      add\n        /* \"#utility.yul\":1896:1943   */\n      mstore\n        /* \"#utility.yul\":1960:2091   */\n      tag_29\n        /* \"#utility.yul\":2086:2090   */\n      dup2\n        /* \"#utility.yul\":1960:2091   */\n      tag_15\n      jump\t// in\n    tag_29:\n        /* \"#utility.yul\":1952:2091   */\n      swap1\n      pop\n        /* \"#utility.yul\":1679:2098   */\n      swap2\n      swap1\n      pop\n      jump\t// out\n\n    auxdata: 0xa26469706673582212205a9b1298ecc5b2edc2cf25db6e8239485316d6fe66622780ec506a370594619b64736f6c63430008160033\n}\n",
				"bytecode": {
					"linkReferences": {},
					"object": "608060405234801561000f575f80fd5b506102138061001d5f395ff3fe608060405234801561000f575f80fd5b5060043610610029575f3560e01c80631401786e1461002d575b5f80fd5b610035610037565b005b3373ffffffffffffffffffffffffffffffffffffffff167f759f86bbdd0758679ecefbd32ea620068b2339dddd9e45ee0fa567ee6c81f0ab60405161007b90610157565b60405180910390a25f73ffffffffffffffffffffffffffffffffffffffff167f759f86bbdd0758679ecefbd32ea620068b2339dddd9e45ee0fa567ee6c81f0ab6040516100c7906101bf565b60405180910390a27f248efac7eefeccb52f576426a24d627d42f501660816b9eee2883967e621254060405160405180910390a1565b5f82825260208201905092915050565b7f736861686e696c000000000000000000000000000000000000000000000000005f82015250565b5f6101416007836100fd565b915061014c8261010d565b602082019050919050565b5f6020820190508181035f83015261016e81610135565b9050919050565b7f6e6f74736861686e696c000000000000000000000000000000000000000000005f82015250565b5f6101a9600a836100fd565b91506101b482610175565b602082019050919050565b5f6020820190508181035f8301526101d68161019d565b905091905056fea26469706673582212205a9b1298ecc5b2edc2cf25db6e8239485316d6fe66622780ec506a370594619b64736f6c63430008160033",
					"opcodes": "PUSH1 0x80 PUSH1 0x40 MSTORE CALLVALUE DUP1 ISZERO PUSH2 0xF JUMPI PUSH0 DUP1 REVERT JUMPDEST POP PUSH2 0x213 DUP1 PUSH2 0x1D PUSH0 CODECOPY PUSH0 RETURN INVALID PUSH1 0x80 PUSH1 0x40 MSTORE CALLVALUE DUP1 ISZERO PUSH2 0xF JUMPI PUSH0 DUP1 REVERT JUMPDEST POP PUSH1 0x4 CALLDATASIZE LT PUSH2 0x29 JUMPI PUSH0 CALLDATALOAD PUSH1 0xE0 SHR DUP1 PUSH4 0x1401786E EQ PUSH2 0x2D JUMPI JUMPDEST PUSH0 DUP1 REVERT JUMPDEST PUSH2 0x35 PUSH2 0x37 JUMP JUMPDEST STOP JUMPDEST CALLER PUSH20 0xFFFFFFFFFFFFFFFFFFFFFFFFFFFFFFFFFFFFFFFF AND PUSH32 0x759F86BBDD0758679ECEFBD32EA620068B2339DDDD9E45EE0FA567EE6C81F0AB PUSH1 0x40 MLOAD PUSH2 0x7B SWAP1 PUSH2 0x157 JUMP JUMPDEST PUSH1 0x40 MLOAD DUP1 SWAP2 SUB SWAP1 LOG2 PUSH0 PUSH20 0xFFFFFFFFFFFFFFFFFFFFFFFFFFFFFFFFFFFFFFFF AND PUSH32 0x759F86BBDD0758679ECEFBD32EA620068B2339DDDD9E45EE0FA567EE6C81F0AB PUSH1 0x40 MLOAD PUSH2 0xC7 SWAP1 PUSH2 0x1BF JUMP JUMPDEST PUSH1 0x40 MLOAD DUP1 SWAP2 SUB SWAP1 LOG2 PUSH32 0x248EFAC7EEFECCB52F576426A24D627D42F501660816B9EEE2883967E6212540 PUSH1 0x40 MLOAD PUSH1 0x40 MLOAD DUP1 SWAP2 SUB SWAP1 LOG1 JUMP JUMPDEST PUSH0 DUP3 DUP3 MSTORE PUSH1 0x20 DUP3 ADD SWAP1 POP SWAP3 SWAP2 POP POP JUMP JUMPDEST PUSH32 0x736861686E696C00000000000000000000000000000000000000000000000000 PUSH0 DUP3 ADD MSTORE POP JUMP JUMPDEST PUSH0 PUSH2 0x141 PUSH1 0x7 DUP4 PUSH2 0xFD JUMP JUMPDEST SWAP2 POP PUSH2 0x14C DUP3 PUSH2 0x10D JUMP JUMPDEST PUSH1 0x20 DUP3 ADD SWAP1 POP SWAP2 SWAP1 POP JUMP JUMPDEST PUSH0 PUSH1 0x20 DUP3 ADD SWAP1 POP DUP2 DUP2 SUB PUSH0 DUP4 ADD MSTORE PUSH2 0x16E DUP2 PUSH2 0x135 JUMP JUMPDEST SWAP1 POP SWAP2 SWAP1 POP JUMP JUMPDEST PUSH32 0x6E6F74736861686E696C00000000000000000000000000000000000000000000 PUSH0 DUP3 ADD MSTORE POP JUMP JUMPDEST PUSH0 PUSH2 0x1A9 PUSH1 0xA DUP4 PUSH2 0xFD JUMP JUMPDEST SWAP2 POP PUSH2 0x1B4 DUP3 PUSH2 0x175 JUMP JUMPDEST PUSH1 0x20 DUP3 ADD SWAP1 POP SWAP2 SWAP1 POP JUMP JUMPDEST PUSH0 PUSH1 0x20 DUP3 ADD SWAP1 POP DUP2 DUP2 SUB PUSH0 DUP4 ADD MSTORE PUSH2 0x1D6 DUP2 PUSH2 0x19D JUMP JUMPDEST SWAP1 POP SWAP2 SWAP1 POP JUMP INVALID LOG2 PUSH5 0x6970667358 0x22 SLT KECCAK256 GAS SWAP12 SLT SWAP9 0xEC 0xC5 0xB2 0xED 0xC2 0xCF 0x25 0xDB PUSH15 0x8239485316D6FE66622780EC506A37 SDIV SWAP5 PUSH2 0x9B64 PUSH20 0x6F6C634300081600330000000000000000000000 "
				},
				"gasEstimates": {
					"creation": {
						"codeDepositCost": "106200",
						"executionCost": "151",
						"totalCost": "106351"
					},
					"external": {
						"eventListen()": "infinite"
					}
				},
				"methodIdentifiers": {
					"eventListen()": "1401786e"
				}
			},
			"storageLayout": {
				"storage": [],
				"types": null
			},
			"userdoc": {
				"kind": "user",
				"methods": {},
				"version": 1
			}
		}
	}
}