{
	"contracts/abiencode.sol": {
		"ABIENCODE": {
			"abi": [
				{
					"inputs": [],
					"name": "abiValue",
					"outputs": [
						{
							"internalType": "bytes",
							"name": "",
							"type": "bytes"
						}
					],
					"stateMutability": "pure",
					"type": "function"
				},
				{
					"inputs": [],
					"name": "abiiValue",
					"outputs": [
						{
							"internalType": "bytes",
							"name": "",
							"type": "bytes"
						}
					],
					"stateMutability": "pure",
					"type": "function"
				}
			],
			"devdoc": {
				"kind": "dev",
				"methods": {},
				"version": 1
			},
			"evm": {
				"assembly": "    /* \"contracts/abiencode.sol\":1225:1551  contract ABIENCODE{... */\n  mstore(0x40, 0x80)\n  callvalue\n  dup1\n  iszero\n  tag_1\n  jumpi\n  0x00\n  dup1\n  revert\ntag_1:\n  pop\n  dataSize(sub_0)\n  dup1\n  dataOffset(sub_0)\n  0x00\n  codecopy\n  0x00\n  return\nstop\n\nsub_0: assembly {\n        /* \"contracts/abiencode.sol\":1225:1551  contract ABIENCODE{... */\n      mstore(0x40, 0x80)\n      callvalue\n      dup1\n      iszero\n      tag_1\n      jumpi\n      0x00\n      dup1\n      revert\n    tag_1:\n      pop\n      jumpi(tag_2, lt(calldatasize, 0x04))\n      shr(0xe0, calldataload(0x00))\n      dup1\n      0xb4cdb5e1\n      eq\n      tag_3\n      jumpi\n      dup1\n      0xf1cc9d9f\n      eq\n      tag_4\n      jumpi\n    tag_2:\n      0x00\n      dup1\n      revert\n        /* \"contracts/abiencode.sol\":1250:1395  function abiValue()public pure returns(bytes memory){... */\n    tag_3:\n      tag_5\n      tag_6\n      jump\t// in\n    tag_5:\n      mload(0x40)\n      tag_7\n      swap2\n      swap1\n      tag_8\n      jump\t// in\n    tag_7:\n      mload(0x40)\n      dup1\n      swap2\n      sub\n      swap1\n      return\n        /* \"contracts/abiencode.sol\":1401:1546  function abiiValue()public pure returns(bytes memory){... */\n    tag_4:\n      tag_9\n      tag_10\n      jump\t// in\n    tag_9:\n      mload(0x40)\n      tag_11\n      swap2\n      swap1\n      tag_8\n      jump\t// in\n    tag_11:\n      mload(0x40)\n      dup1\n      swap2\n      sub\n      swap1\n      return\n        /* \"contracts/abiencode.sol\":1250:1395  function abiValue()public pure returns(bytes memory){... */\n    tag_6:\n        /* \"contracts/abiencode.sol\":1289:1301  bytes memory */\n      0x60\n        /* \"contracts/abiencode.sol\":1313:1329  bytes memory val */\n      0x00\n        /* \"contracts/abiencode.sol\":1330:1366  abi.encodePacked(\"shahnil\",\"sharma\") */\n      add(0x20, mload(0x40))\n      tag_13\n      swap1\n      tag_14\n      jump\t// in\n    tag_13:\n      mload(0x40)\n      0x20\n      dup2\n      dup4\n      sub\n      sub\n      dup2\n      mstore\n      swap1\n      0x40\n      mstore\n        /* \"contracts/abiencode.sol\":1313:1366  bytes memory val=abi.encodePacked(\"shahnil\",\"sharma\") */\n      swap1\n      pop\n        /* \"contracts/abiencode.sol\":1384:1387  val */\n      dup1\n        /* \"contracts/abiencode.sol\":1377:1387  return val */\n      swap2\n      pop\n      pop\n        /* \"contracts/abiencode.sol\":1250:1395  function abiValue()public pure returns(bytes memory){... */\n      swap1\n      jump\t// out\n        /* \"contracts/abiencode.sol\":1401:1546  function abiiValue()public pure returns(bytes memory){... */\n    tag_10:\n        /* \"contracts/abiencode.sol\":1441:1453  bytes memory */\n      0x60\n        /* \"contracts/abiencode.sol\":1465:1481  bytes memory val */\n      0x00\n        /* \"contracts/abiencode.sol\":1482:1517  abi.encodePacked(\"shahnilha\",\"rma\") */\n      add(0x20, mload(0x40))\n      tag_16\n      swap1\n      tag_17\n      jump\t// in\n    tag_16:\n      mload(0x40)\n      0x20\n      dup2\n      dup4\n      sub\n      sub\n      dup2\n      mstore\n      swap1\n      0x40\n      mstore\n        /* \"contracts/abiencode.sol\":1465:1517  bytes memory val=abi.encodePacked(\"shahnilha\",\"rma\") */\n      swap1\n      pop\n        /* \"contracts/abiencode.sol\":1535:1538  val */\n      dup1\n        /* \"contracts/abiencode.sol\":1528:1538  return val */\n      swap2\n      pop\n      pop\n        /* \"contracts/abiencode.sol\":1401:1546  function abiiValue()public pure returns(bytes memory){... */\n      swap1\n      jump\t// out\n        /* \"#utility.yul\":7:105   */\n    tag_18:\n        /* \"#utility.yul\":58:64   */\n      0x00\n        /* \"#utility.yul\":92:97   */\n      dup2\n        /* \"#utility.yul\":86:98   */\n      mload\n        /* \"#utility.yul\":76:98   */\n      swap1\n      pop\n        /* \"#utility.yul\":7:105   */\n      swap2\n      swap1\n      pop\n      jump\t// out\n        /* \"#utility.yul\":111:279   */\n    tag_19:\n        /* \"#utility.yul\":194:205   */\n      0x00\n        /* \"#utility.yul\":228:234   */\n      dup3\n        /* \"#utility.yul\":223:226   */\n      dup3\n        /* \"#utility.yul\":216:235   */\n      mstore\n        /* \"#utility.yul\":268:272   */\n      0x20\n        /* \"#utility.yul\":263:266   */\n      dup3\n        /* \"#utility.yul\":259:273   */\n      add\n        /* \"#utility.yul\":244:273   */\n      swap1\n      pop\n        /* \"#utility.yul\":111:279   */\n      swap3\n      swap2\n      pop\n      pop\n      jump\t// out\n        /* \"#utility.yul\":285:531   */\n    tag_20:\n        /* \"#utility.yul\":366:367   */\n      0x00\n        /* \"#utility.yul\":376:489   */\n    tag_36:\n        /* \"#utility.yul\":390:396   */\n      dup4\n        /* \"#utility.yul\":387:388   */\n      dup2\n        /* \"#utility.yul\":384:397   */\n      lt\n        /* \"#utility.yul\":376:489   */\n      iszero\n      tag_38\n      jumpi\n        /* \"#utility.yul\":475:476   */\n      dup1\n        /* \"#utility.yul\":470:473   */\n      dup3\n        /* \"#utility.yul\":466:477   */\n      add\n        /* \"#utility.yul\":460:478   */\n      mload\n        /* \"#utility.yul\":456:457   */\n      dup2\n        /* \"#utility.yul\":451:454   */\n      dup5\n        /* \"#utility.yul\":447:458   */\n      add\n        /* \"#utility.yul\":440:479   */\n      mstore\n        /* \"#utility.yul\":412:414   */\n      0x20\n        /* \"#utility.yul\":409:410   */\n      dup2\n        /* \"#utility.yul\":405:415   */\n      add\n        /* \"#utility.yul\":400:415   */\n      swap1\n      pop\n        /* \"#utility.yul\":376:489   */\n      jump(tag_36)\n    tag_38:\n        /* \"#utility.yul\":523:524   */\n      0x00\n        /* \"#utility.yul\":514:520   */\n      dup5\n        /* \"#utility.yul\":509:512   */\n      dup5\n        /* \"#utility.yul\":505:521   */\n      add\n        /* \"#utility.yul\":498:525   */\n      mstore\n        /* \"#utility.yul\":347:531   */\n      pop\n        /* \"#utility.yul\":285:531   */\n      pop\n      pop\n      pop\n      jump\t// out\n        /* \"#utility.yul\":537:639   */\n    tag_21:\n        /* \"#utility.yul\":578:584   */\n      0x00\n        /* \"#utility.yul\":629:631   */\n      0x1f\n        /* \"#utility.yul\":625:632   */\n      not\n        /* \"#utility.yul\":620:622   */\n      0x1f\n        /* \"#utility.yul\":613:618   */\n      dup4\n        /* \"#utility.yul\":609:623   */\n      add\n        /* \"#utility.yul\":605:633   */\n      and\n        /* \"#utility.yul\":595:633   */\n      swap1\n      pop\n        /* \"#utility.yul\":537:639   */\n      swap2\n      swap1\n      pop\n      jump\t// out\n        /* \"#utility.yul\":645:1018   */\n    tag_22:\n        /* \"#utility.yul\":731:734   */\n      0x00\n        /* \"#utility.yul\":759:797   */\n      tag_41\n        /* \"#utility.yul\":791:796   */\n      dup3\n        /* \"#utility.yul\":759:797   */\n      tag_18\n      jump\t// in\n    tag_41:\n        /* \"#utility.yul\":813:883   */\n      tag_42\n        /* \"#utility.yul\":876:882   */\n      dup2\n        /* \"#utility.yul\":871:874   */\n      dup6\n        /* \"#utility.yul\":813:883   */\n      tag_19\n      jump\t// in\n    tag_42:\n        /* \"#utility.yul\":806:883   */\n      swap4\n      pop\n        /* \"#utility.yul\":892:957   */\n      tag_43\n        /* \"#utility.yul\":950:956   */\n      dup2\n        /* \"#utility.yul\":945:948   */\n      dup6\n        /* \"#utility.yul\":938:942   */\n      0x20\n        /* \"#utility.yul\":931:936   */\n      dup7\n        /* \"#utility.yul\":927:943   */\n      add\n        /* \"#utility.yul\":892:957   */\n      tag_20\n      jump\t// in\n    tag_43:\n        /* \"#utility.yul\":982:1011   */\n      tag_44\n        /* \"#utility.yul\":1004:1010   */\n      dup2\n        /* \"#utility.yul\":982:1011   */\n      tag_21\n      jump\t// in\n    tag_44:\n        /* \"#utility.yul\":977:980   */\n      dup5\n        /* \"#utility.yul\":973:1012   */\n      add\n        /* \"#utility.yul\":966:1012   */\n      swap2\n      pop\n        /* \"#utility.yul\":735:1018   */\n      pop\n        /* \"#utility.yul\":645:1018   */\n      swap3\n      swap2\n      pop\n      pop\n      jump\t// out\n        /* \"#utility.yul\":1024:1333   */\n    tag_8:\n        /* \"#utility.yul\":1135:1139   */\n      0x00\n        /* \"#utility.yul\":1173:1175   */\n      0x20\n        /* \"#utility.yul\":1162:1171   */\n      dup3\n        /* \"#utility.yul\":1158:1176   */\n      add\n        /* \"#utility.yul\":1150:1176   */\n      swap1\n      pop\n        /* \"#utility.yul\":1222:1231   */\n      dup2\n        /* \"#utility.yul\":1216:1220   */\n      dup2\n        /* \"#utility.yul\":1212:1232   */\n      sub\n        /* \"#utility.yul\":1208:1209   */\n      0x00\n        /* \"#utility.yul\":1197:1206   */\n      dup4\n        /* \"#utility.yul\":1193:1210   */\n      add\n        /* \"#utility.yul\":1186:1233   */\n      mstore\n        /* \"#utility.yul\":1250:1326   */\n      tag_46\n        /* \"#utility.yul\":1321:1325   */\n      dup2\n        /* \"#utility.yul\":1312:1318   */\n      dup5\n        /* \"#utility.yul\":1250:1326   */\n      tag_22\n      jump\t// in\n    tag_46:\n        /* \"#utility.yul\":1242:1326   */\n      swap1\n      pop\n        /* \"#utility.yul\":1024:1333   */\n      swap3\n      swap2\n      pop\n      pop\n      jump\t// out\n        /* \"#utility.yul\":1339:1487   */\n    tag_23:\n        /* \"#utility.yul\":1441:1452   */\n      0x00\n        /* \"#utility.yul\":1478:1481   */\n      dup2\n        /* \"#utility.yul\":1463:1481   */\n      swap1\n      pop\n        /* \"#utility.yul\":1339:1487   */\n      swap3\n      swap2\n      pop\n      pop\n      jump\t// out\n        /* \"#utility.yul\":1493:1650   */\n    tag_24:\n        /* \"#utility.yul\":1633:1642   */\n      0x736861686e696c00000000000000000000000000000000000000000000000000\n        /* \"#utility.yul\":1629:1630   */\n      0x00\n        /* \"#utility.yul\":1621:1627   */\n      dup3\n        /* \"#utility.yul\":1617:1631   */\n      add\n        /* \"#utility.yul\":1610:1643   */\n      mstore\n        /* \"#utility.yul\":1493:1650   */\n      pop\n      jump\t// out\n        /* \"#utility.yul\":1656:2056   */\n    tag_25:\n        /* \"#utility.yul\":1816:1819   */\n      0x00\n        /* \"#utility.yul\":1837:1921   */\n      tag_50\n        /* \"#utility.yul\":1919:1920   */\n      0x07\n        /* \"#utility.yul\":1914:1917   */\n      dup4\n        /* \"#utility.yul\":1837:1921   */\n      tag_23\n      jump\t// in\n    tag_50:\n        /* \"#utility.yul\":1830:1921   */\n      swap2\n      pop\n        /* \"#utility.yul\":1930:2023   */\n      tag_51\n        /* \"#utility.yul\":2019:2022   */\n      dup3\n        /* \"#utility.yul\":1930:2023   */\n      tag_24\n      jump\t// in\n    tag_51:\n        /* \"#utility.yul\":2048:2049   */\n      0x07\n        /* \"#utility.yul\":2043:2046   */\n      dup3\n        /* \"#utility.yul\":2039:2050   */\n      add\n        /* \"#utility.yul\":2032:2050   */\n      swap1\n      pop\n        /* \"#utility.yul\":1656:2056   */\n      swap2\n      swap1\n      pop\n      jump\t// out\n        /* \"#utility.yul\":2062:2218   */\n    tag_26:\n        /* \"#utility.yul\":2202:2210   */\n      0x736861726d610000000000000000000000000000000000000000000000000000\n        /* \"#utility.yul\":2198:2199   */\n      0x00\n        /* \"#utility.yul\":2190:2196   */\n      dup3\n        /* \"#utility.yul\":2186:2200   */\n      add\n        /* \"#utility.yul\":2179:2211   */\n      mstore\n        /* \"#utility.yul\":2062:2218   */\n      pop\n      jump\t// out\n        /* \"#utility.yul\":2224:2624   */\n    tag_27:\n        /* \"#utility.yul\":2384:2387   */\n      0x00\n        /* \"#utility.yul\":2405:2489   */\n      tag_54\n        /* \"#utility.yul\":2487:2488   */\n      0x06\n        /* \"#utility.yul\":2482:2485   */\n      dup4\n        /* \"#utility.yul\":2405:2489   */\n      tag_23\n      jump\t// in\n    tag_54:\n        /* \"#utility.yul\":2398:2489   */\n      swap2\n      pop\n        /* \"#utility.yul\":2498:2591   */\n      tag_55\n        /* \"#utility.yul\":2587:2590   */\n      dup3\n        /* \"#utility.yul\":2498:2591   */\n      tag_26\n      jump\t// in\n    tag_55:\n        /* \"#utility.yul\":2616:2617   */\n      0x06\n        /* \"#utility.yul\":2611:2614   */\n      dup3\n        /* \"#utility.yul\":2607:2618   */\n      add\n        /* \"#utility.yul\":2600:2618   */\n      swap1\n      pop\n        /* \"#utility.yul\":2224:2624   */\n      swap2\n      swap1\n      pop\n      jump\t// out\n        /* \"#utility.yul\":2630:3277   */\n    tag_14:\n        /* \"#utility.yul\":2916:2919   */\n      0x00\n        /* \"#utility.yul\":2938:3086   */\n      tag_57\n        /* \"#utility.yul\":3082:3085   */\n      dup3\n        /* \"#utility.yul\":2938:3086   */\n      tag_25\n      jump\t// in\n    tag_57:\n        /* \"#utility.yul\":2931:3086   */\n      swap2\n      pop\n        /* \"#utility.yul\":3103:3251   */\n      tag_58\n        /* \"#utility.yul\":3247:3250   */\n      dup3\n        /* \"#utility.yul\":3103:3251   */\n      tag_27\n      jump\t// in\n    tag_58:\n        /* \"#utility.yul\":3096:3251   */\n      swap2\n      pop\n        /* \"#utility.yul\":3268:3271   */\n      dup2\n        /* \"#utility.yul\":3261:3271   */\n      swap1\n      pop\n        /* \"#utility.yul\":2630:3277   */\n      swap2\n      swap1\n      pop\n      jump\t// out\n        /* \"#utility.yul\":3283:3442   */\n    tag_28:\n        /* \"#utility.yul\":3423:3434   */\n      0x736861686e696c68610000000000000000000000000000000000000000000000\n        /* \"#utility.yul\":3419:3420   */\n      0x00\n        /* \"#utility.yul\":3411:3417   */\n      dup3\n        /* \"#utility.yul\":3407:3421   */\n      add\n        /* \"#utility.yul\":3400:3435   */\n      mstore\n        /* \"#utility.yul\":3283:3442   */\n      pop\n      jump\t// out\n        /* \"#utility.yul\":3448:3848   */\n    tag_29:\n        /* \"#utility.yul\":3608:3611   */\n      0x00\n        /* \"#utility.yul\":3629:3713   */\n      tag_61\n        /* \"#utility.yul\":3711:3712   */\n      0x09\n        /* \"#utility.yul\":3706:3709   */\n      dup4\n        /* \"#utility.yul\":3629:3713   */\n      tag_23\n      jump\t// in\n    tag_61:\n        /* \"#utility.yul\":3622:3713   */\n      swap2\n      pop\n        /* \"#utility.yul\":3722:3815   */\n      tag_62\n        /* \"#utility.yul\":3811:3814   */\n      dup3\n        /* \"#utility.yul\":3722:3815   */\n      tag_28\n      jump\t// in\n    tag_62:\n        /* \"#utility.yul\":3840:3841   */\n      0x09\n        /* \"#utility.yul\":3835:3838   */\n      dup3\n        /* \"#utility.yul\":3831:3842   */\n      add\n        /* \"#utility.yul\":3824:3842   */\n      swap1\n      pop\n        /* \"#utility.yul\":3448:3848   */\n      swap2\n      swap1\n      pop\n      jump\t// out\n        /* \"#utility.yul\":3854:4007   */\n    tag_30:\n        /* \"#utility.yul\":3994:3999   */\n      0x726d610000000000000000000000000000000000000000000000000000000000\n        /* \"#utility.yul\":3990:3991   */\n      0x00\n        /* \"#utility.yul\":3982:3988   */\n      dup3\n        /* \"#utility.yul\":3978:3992   */\n      add\n        /* \"#utility.yul\":3971:4000   */\n      mstore\n        /* \"#utility.yul\":3854:4007   */\n      pop\n      jump\t// out\n        /* \"#utility.yul\":4013:4413   */\n    tag_31:\n        /* \"#utility.yul\":4173:4176   */\n      0x00\n        /* \"#utility.yul\":4194:4278   */\n      tag_65\n        /* \"#utility.yul\":4276:4277   */\n      0x03\n        /* \"#utility.yul\":4271:4274   */\n      dup4\n        /* \"#utility.yul\":4194:4278   */\n      tag_23\n      jump\t// in\n    tag_65:\n        /* \"#utility.yul\":4187:4278   */\n      swap2\n      pop\n        /* \"#utility.yul\":4287:4380   */\n      tag_66\n        /* \"#utility.yul\":4376:4379   */\n      dup3\n        /* \"#utility.yul\":4287:4380   */\n      tag_30\n      jump\t// in\n    tag_66:\n        /* \"#utility.yul\":4405:4406   */\n      0x03\n        /* \"#utility.yul\":4400:4403   */\n      dup3\n        /* \"#utility.yul\":4396:4407   */\n      add\n        /* \"#utility.yul\":4389:4407   */\n      swap1\n      pop\n        /* \"#utility.yul\":4013:4413   */\n      swap2\n      swap1\n      pop\n      jump\t// out\n        /* \"#utility.yul\":4419:5066   */\n    tag_17:\n        /* \"#utility.yul\":4705:4708   */\n      0x00\n        /* \"#utility.yul\":4727:4875   */\n      tag_68\n        /* \"#utility.yul\":4871:4874   */\n      dup3\n        /* \"#utility.yul\":4727:4875   */\n      tag_29\n      jump\t// in\n    tag_68:\n        /* \"#utility.yul\":4720:4875   */\n      swap2\n      pop\n        /* \"#utility.yul\":4892:5040   */\n      tag_69\n        /* \"#utility.yul\":5036:5039   */\n      dup3\n        /* \"#utility.yul\":4892:5040   */\n      tag_31\n      jump\t// in\n    tag_69:\n        /* \"#utility.yul\":4885:5040   */\n      swap2\n      pop\n        /* \"#utility.yul\":5057:5060   */\n      dup2\n        /* \"#utility.yul\":5050:5060   */\n      swap1\n      pop\n        /* \"#utility.yul\":4419:5066   */\n      swap2\n      swap1\n      pop\n      jump\t// out\n\n    auxdata: 0xa2646970667358221220337be9295713338b4b2622db43ec4815b40f9009a2c0e7674d82a4b0a3f5288464736f6c63430008170033\n}\n",
				"bytecode": {
					"linkReferences": {},
					"object": "608060405234801561000f575f80fd5b506103188061001d5f395ff3fe608060405234801561000f575f80fd5b5060043610610034575f3560e01c8063b4cdb5e114610038578063f1cc9d9f14610056575b5f80fd5b610040610074565b60405161004d9190610152565b60405180910390f35b61005e61009e565b60405161006b9190610152565b60405180910390f35b60605f60405160200161008690610210565b60405160208183030381529060405290508091505090565b60605f6040516020016100b0906102c3565b60405160208183030381529060405290508091505090565b5f81519050919050565b5f82825260208201905092915050565b5f5b838110156100ff5780820151818401526020810190506100e4565b5f8484015250505050565b5f601f19601f8301169050919050565b5f610124826100c8565b61012e81856100d2565b935061013e8185602086016100e2565b6101478161010a565b840191505092915050565b5f6020820190508181035f83015261016a818461011a565b905092915050565b5f81905092915050565b7f736861686e696c000000000000000000000000000000000000000000000000005f82015250565b5f6101b0600783610172565b91506101bb8261017c565b600782019050919050565b7f736861726d6100000000000000000000000000000000000000000000000000005f82015250565b5f6101fa600683610172565b9150610205826101c6565b600682019050919050565b5f61021a826101a4565b9150610225826101ee565b9150819050919050565b7f736861686e696c686100000000000000000000000000000000000000000000005f82015250565b5f610263600983610172565b915061026e8261022f565b600982019050919050565b7f726d6100000000000000000000000000000000000000000000000000000000005f82015250565b5f6102ad600383610172565b91506102b882610279565b600382019050919050565b5f6102cd82610257565b91506102d8826102a1565b915081905091905056fea2646970667358221220337be9295713338b4b2622db43ec4815b40f9009a2c0e7674d82a4b0a3f5288464736f6c63430008170033",
					"opcodes": "PUSH1 0x80 PUSH1 0x40 MSTORE CALLVALUE DUP1 ISZERO PUSH2 0xF JUMPI PUSH0 DUP1 REVERT JUMPDEST POP PUSH2 0x318 DUP1 PUSH2 0x1D PUSH0 CODECOPY PUSH0 RETURN INVALID PUSH1 0x80 PUSH1 0x40 MSTORE CALLVALUE DUP1 ISZERO PUSH2 0xF JUMPI PUSH0 DUP1 REVERT JUMPDEST POP PUSH1 0x4 CALLDATASIZE LT PUSH2 0x34 JUMPI PUSH0 CALLDATALOAD PUSH1 0xE0 SHR DUP1 PUSH4 0xB4CDB5E1 EQ PUSH2 0x38 JUMPI DUP1 PUSH4 0xF1CC9D9F EQ PUSH2 0x56 JUMPI JUMPDEST PUSH0 DUP1 REVERT JUMPDEST PUSH2 0x40 PUSH2 0x74 JUMP JUMPDEST PUSH1 0x40 MLOAD PUSH2 0x4D SWAP2 SWAP1 PUSH2 0x152 JUMP JUMPDEST PUSH1 0x40 MLOAD DUP1 SWAP2 SUB SWAP1 RETURN JUMPDEST PUSH2 0x5E PUSH2 0x9E JUMP JUMPDEST PUSH1 0x40 MLOAD PUSH2 0x6B SWAP2 SWAP1 PUSH2 0x152 JUMP JUMPDEST PUSH1 0x40 MLOAD DUP1 SWAP2 SUB SWAP1 RETURN JUMPDEST PUSH1 0x60 PUSH0 PUSH1 0x40 MLOAD PUSH1 0x20 ADD PUSH2 0x86 SWAP1 PUSH2 0x210 JUMP JUMPDEST PUSH1 0x40 MLOAD PUSH1 0x20 DUP2 DUP4 SUB SUB DUP2 MSTORE SWAP1 PUSH1 0x40 MSTORE SWAP1 POP DUP1 SWAP2 POP POP SWAP1 JUMP JUMPDEST PUSH1 0x60 PUSH0 PUSH1 0x40 MLOAD PUSH1 0x20 ADD PUSH2 0xB0 SWAP1 PUSH2 0x2C3 JUMP JUMPDEST PUSH1 0x40 MLOAD PUSH1 0x20 DUP2 DUP4 SUB SUB DUP2 MSTORE SWAP1 PUSH1 0x40 MSTORE SWAP1 POP DUP1 SWAP2 POP POP SWAP1 JUMP JUMPDEST PUSH0 DUP2 MLOAD SWAP1 POP SWAP2 SWAP1 POP JUMP JUMPDEST PUSH0 DUP3 DUP3 MSTORE PUSH1 0x20 DUP3 ADD SWAP1 POP SWAP3 SWAP2 POP POP JUMP JUMPDEST PUSH0 JUMPDEST DUP4 DUP2 LT ISZERO PUSH2 0xFF JUMPI DUP1 DUP3 ADD MLOAD DUP2 DUP5 ADD MSTORE PUSH1 0x20 DUP2 ADD SWAP1 POP PUSH2 0xE4 JUMP JUMPDEST PUSH0 DUP5 DUP5 ADD MSTORE POP POP POP POP JUMP JUMPDEST PUSH0 PUSH1 0x1F NOT PUSH1 0x1F DUP4 ADD AND SWAP1 POP SWAP2 SWAP1 POP JUMP JUMPDEST PUSH0 PUSH2 0x124 DUP3 PUSH2 0xC8 JUMP JUMPDEST PUSH2 0x12E DUP2 DUP6 PUSH2 0xD2 JUMP JUMPDEST SWAP4 POP PUSH2 0x13E DUP2 DUP6 PUSH1 0x20 DUP7 ADD PUSH2 0xE2 JUMP JUMPDEST PUSH2 0x147 DUP2 PUSH2 0x10A JUMP JUMPDEST DUP5 ADD SWAP2 POP POP SWAP3 SWAP2 POP POP JUMP JUMPDEST PUSH0 PUSH1 0x20 DUP3 ADD SWAP1 POP DUP2 DUP2 SUB PUSH0 DUP4 ADD MSTORE PUSH2 0x16A DUP2 DUP5 PUSH2 0x11A JUMP JUMPDEST SWAP1 POP SWAP3 SWAP2 POP POP JUMP JUMPDEST PUSH0 DUP2 SWAP1 POP SWAP3 SWAP2 POP POP JUMP JUMPDEST PUSH32 0x736861686E696C00000000000000000000000000000000000000000000000000 PUSH0 DUP3 ADD MSTORE POP JUMP JUMPDEST PUSH0 PUSH2 0x1B0 PUSH1 0x7 DUP4 PUSH2 0x172 JUMP JUMPDEST SWAP2 POP PUSH2 0x1BB DUP3 PUSH2 0x17C JUMP JUMPDEST PUSH1 0x7 DUP3 ADD SWAP1 POP SWAP2 SWAP1 POP JUMP JUMPDEST PUSH32 0x736861726D610000000000000000000000000000000000000000000000000000 PUSH0 DUP3 ADD MSTORE POP JUMP JUMPDEST PUSH0 PUSH2 0x1FA PUSH1 0x6 DUP4 PUSH2 0x172 JUMP JUMPDEST SWAP2 POP PUSH2 0x205 DUP3 PUSH2 0x1C6 JUMP JUMPDEST PUSH1 0x6 DUP3 ADD SWAP1 POP SWAP2 SWAP1 POP JUMP JUMPDEST PUSH0 PUSH2 0x21A DUP3 PUSH2 0x1A4 JUMP JUMPDEST SWAP2 POP PUSH2 0x225 DUP3 PUSH2 0x1EE JUMP JUMPDEST SWAP2 POP DUP2 SWAP1 POP SWAP2 SWAP1 POP JUMP JUMPDEST PUSH32 0x736861686E696C68610000000000000000000000000000000000000000000000 PUSH0 DUP3 ADD MSTORE POP JUMP JUMPDEST PUSH0 PUSH2 0x263 PUSH1 0x9 DUP4 PUSH2 0x172 JUMP JUMPDEST SWAP2 POP PUSH2 0x26E DUP3 PUSH2 0x22F JUMP JUMPDEST PUSH1 0x9 DUP3 ADD SWAP1 POP SWAP2 SWAP1 POP JUMP JUMPDEST PUSH32 0x726D610000000000000000000000000000000000000000000000000000000000 PUSH0 DUP3 ADD MSTORE POP JUMP JUMPDEST PUSH0 PUSH2 0x2AD PUSH1 0x3 DUP4 PUSH2 0x172 JUMP JUMPDEST SWAP2 POP PUSH2 0x2B8 DUP3 PUSH2 0x279 JUMP JUMPDEST PUSH1 0x3 DUP3 ADD SWAP1 POP SWAP2 SWAP1 POP JUMP JUMPDEST PUSH0 PUSH2 0x2CD DUP3 PUSH2 0x257 JUMP JUMPDEST SWAP2 POP PUSH2 0x2D8 DUP3 PUSH2 0x2A1 JUMP JUMPDEST SWAP2 POP DUP2 SWAP1 POP SWAP2 SWAP1 POP JUMP INVALID LOG2 PUSH5 0x6970667358 0x22 SLT KECCAK256 CALLER PUSH28 0xE9295713338B4B2622DB43EC4815B40F9009A2C0E7674D82A4B0A3F5 0x28 DUP5 PUSH5 0x736F6C6343 STOP ADDMOD OR STOP CALLER "
				},
				"gasEstimates": {
					"creation": {
						"codeDepositCost": "158400",
						"executionCost": "200",
						"totalCost": "158600"
					},
					"external": {
						"abiValue()": "infinite",
						"abiiValue()": "infinite"
					}
				},
				"methodIdentifiers": {
					"abiValue()": "b4cdb5e1",
					"abiiValue()": "f1cc9d9f"
				}
			},
			"storageLayout": {
				"storage": [],
				"types": null
			},
			"userdoc": {
				"kind": "user",
				"methods": {},
				"version": 1
			}
		}
	}
}