{
	"contracts/Realestatechan.sol": {
		"RealEstate": {
			"abi": [
				{
					"anonymous": false,
					"inputs": [
						{
							"indexed": false,
							"internalType": "uint256",
							"name": "propertyId",
							"type": "uint256"
						}
					],
					"name": "PropertySold",
					"type": "event"
				},
				{
					"inputs": [
						{
							"internalType": "uint256",
							"name": "",
							"type": "uint256"
						}
					],
					"name": "Properties",
					"outputs": [
						{
							"internalType": "uint256",
							"name": "price",
							"type": "uint256"
						},
						{
							"internalType": "bool",
							"name": "Onsale",
							"type": "bool"
						},
						{
							"internalType": "bool",
							"name": "isResidential",
							"type": "bool"
						},
						{
							"internalType": "string",
							"name": "name",
							"type": "string"
						},
						{
							"internalType": "address",
							"name": "owner",
							"type": "address"
						},
						{
							"internalType": "string",
							"name": "description",
							"type": "string"
						},
						{
							"internalType": "string",
							"name": "location",
							"type": "string"
						}
					],
					"stateMutability": "view",
					"type": "function"
				},
				{
					"inputs": [
						{
							"internalType": "uint256",
							"name": "_propertyId",
							"type": "uint256"
						}
					],
					"name": "buyProperty",
					"outputs": [],
					"stateMutability": "payable",
					"type": "function"
				},
				{
					"inputs": [],
					"name": "getPropertylistIDs",
					"outputs": [
						{
							"internalType": "uint256[]",
							"name": "_residential",
							"type": "uint256[]"
						},
						{
							"internalType": "uint256[]",
							"name": "_commercial",
							"type": "uint256[]"
						}
					],
					"stateMutability": "view",
					"type": "function"
				},
				{
					"inputs": [
						{
							"internalType": "uint256",
							"name": "_propertyId",
							"type": "uint256"
						},
						{
							"internalType": "uint256",
							"name": "_price",
							"type": "uint256"
						},
						{
							"internalType": "string",
							"name": "_name",
							"type": "string"
						},
						{
							"internalType": "string",
							"name": "_description",
							"type": "string"
						},
						{
							"internalType": "string",
							"name": "_location",
							"type": "string"
						},
						{
							"internalType": "bool",
							"name": "_isResidential",
							"type": "bool"
						}
					],
					"name": "listPropertyForSale",
					"outputs": [],
					"stateMutability": "nonpayable",
					"type": "function"
				}
			],
			"devdoc": {
				"kind": "dev",
				"methods": {},
				"version": 1
			},
			"evm": {
				"assembly": "    /* \"contracts/Realestatechan.sol\":112:3258  contract RealEstate{... */\n  mstore(0x40, 0x80)\n  callvalue\n  dup1\n  iszero\n  tag_1\n  jumpi\n  0x00\n  dup1\n  revert\ntag_1:\n  pop\n  dataSize(sub_0)\n  dup1\n  dataOffset(sub_0)\n  0x00\n  codecopy\n  0x00\n  return\nstop\n\nsub_0: assembly {\n        /* \"contracts/Realestatechan.sol\":112:3258  contract RealEstate{... */\n      mstore(0x40, 0x80)\n      jumpi(tag_1, lt(calldatasize, 0x04))\n      shr(0xe0, calldataload(0x00))\n      dup1\n      0x6fa830a6\n      eq\n      tag_2\n      jumpi\n      dup1\n      0x849a290f\n      eq\n      tag_3\n      jumpi\n      dup1\n      0x9d116884\n      eq\n      tag_4\n      jumpi\n      dup1\n      0xbf883743\n      eq\n      tag_5\n      jumpi\n    tag_1:\n      0x00\n      dup1\n      revert\n        /* \"contracts/Realestatechan.sol\":1974:2659  function buyProperty(uint256 _propertyId)public payable {... */\n    tag_2:\n      tag_6\n      0x04\n      dup1\n      calldatasize\n      sub\n      dup2\n      add\n      swap1\n      tag_7\n      swap2\n      swap1\n      tag_8\n      jump\t// in\n    tag_7:\n      tag_9\n      jump\t// in\n    tag_6:\n      stop\n        /* \"contracts/Realestatechan.sol\":2705:2925  function getPropertylistIDs()public view returns(... */\n    tag_3:\n      callvalue\n      dup1\n      iszero\n      tag_10\n      jumpi\n      0x00\n      dup1\n      revert\n    tag_10:\n      pop\n      tag_11\n      tag_12\n      jump\t// in\n    tag_11:\n      mload(0x40)\n      tag_13\n      swap3\n      swap2\n      swap1\n      tag_14\n      jump\t// in\n    tag_13:\n      mload(0x40)\n      dup1\n      swap2\n      sub\n      swap1\n      return\n        /* \"contracts/Realestatechan.sol\":412:458  mapping (uint256 =>Property)public  Properties */\n    tag_4:\n      callvalue\n      dup1\n      iszero\n      tag_15\n      jumpi\n      0x00\n      dup1\n      revert\n    tag_15:\n      pop\n      tag_16\n      0x04\n      dup1\n      calldatasize\n      sub\n      dup2\n      add\n      swap1\n      tag_17\n      swap2\n      swap1\n      tag_8\n      jump\t// in\n    tag_17:\n      tag_18\n      jump\t// in\n    tag_16:\n      mload(0x40)\n      tag_19\n      swap8\n      swap7\n      swap6\n      swap5\n      swap4\n      swap3\n      swap2\n      swap1\n      tag_20\n      jump\t// in\n    tag_19:\n      mload(0x40)\n      dup1\n      swap2\n      sub\n      swap1\n      return\n        /* \"contracts/Realestatechan.sol\":736:1856  function listPropertyForSale(... */\n    tag_5:\n      callvalue\n      dup1\n      iszero\n      tag_21\n      jumpi\n      0x00\n      dup1\n      revert\n    tag_21:\n      pop\n      tag_22\n      0x04\n      dup1\n      calldatasize\n      sub\n      dup2\n      add\n      swap1\n      tag_23\n      swap2\n      swap1\n      tag_24\n      jump\t// in\n    tag_23:\n      tag_25\n      jump\t// in\n    tag_22:\n      stop\n        /* \"contracts/Realestatechan.sol\":1974:2659  function buyProperty(uint256 _propertyId)public payable {... */\n    tag_9:\n        /* \"contracts/Realestatechan.sol\":2100:2125  Property storage property */\n      0x00\n        /* \"contracts/Realestatechan.sol\":2126:2136  Properties */\n      dup1\n        /* \"contracts/Realestatechan.sol\":2126:2149  Properties[_propertyId] */\n      0x00\n        /* \"contracts/Realestatechan.sol\":2137:2148  _propertyId */\n      dup4\n        /* \"contracts/Realestatechan.sol\":2126:2149  Properties[_propertyId] */\n      dup2\n      mstore\n      0x20\n      add\n      swap1\n      dup2\n      mstore\n      0x20\n      add\n      0x00\n      keccak256\n        /* \"contracts/Realestatechan.sol\":2100:2149  Property storage property=Properties[_propertyId] */\n      swap1\n      pop\n        /* \"contracts/Realestatechan.sol\":2223:2231  property */\n      dup1\n        /* \"contracts/Realestatechan.sol\":2223:2238  property.Onsale */\n      0x01\n      add\n      0x00\n      swap1\n      sload\n      swap1\n      0x0100\n      exp\n      swap1\n      div\n      0xff\n      and\n        /* \"contracts/Realestatechan.sol\":2215:2272  require(property.Onsale,\"this property is not available\") */\n      tag_27\n      jumpi\n      mload(0x40)\n      0x08c379a000000000000000000000000000000000000000000000000000000000\n      dup2\n      mstore\n      0x04\n      add\n      tag_28\n      swap1\n      tag_29\n      jump\t// in\n    tag_28:\n      mload(0x40)\n      dup1\n      swap2\n      sub\n      swap1\n      revert\n    tag_27:\n        /* \"contracts/Realestatechan.sol\":2303:2312  msg.value */\n      callvalue\n        /* \"contracts/Realestatechan.sol\":2287:2295  property */\n      dup2\n        /* \"contracts/Realestatechan.sol\":2287:2301  property.price */\n      0x00\n      add\n      sload\n        /* \"contracts/Realestatechan.sol\":2287:2312  property.price>=msg.value */\n      lt\n      iszero\n        /* \"contracts/Realestatechan.sol\":2279:2334  require(property.price>=msg.value,\"Insufficiant funds\") */\n      tag_30\n      jumpi\n      mload(0x40)\n      0x08c379a000000000000000000000000000000000000000000000000000000000\n      dup2\n      mstore\n      0x04\n      add\n      tag_31\n      swap1\n      tag_32\n      jump\t// in\n    tag_31:\n      mload(0x40)\n      dup1\n      swap2\n      sub\n      swap1\n      revert\n    tag_30:\n        /* \"contracts/Realestatechan.sol\":2401:2409  property */\n      dup1\n        /* \"contracts/Realestatechan.sol\":2401:2415  property.owner */\n      0x03\n      add\n      0x00\n      swap1\n      sload\n      swap1\n      0x0100\n      exp\n      swap1\n      div\n      0xffffffffffffffffffffffffffffffffffffffff\n      and\n        /* \"contracts/Realestatechan.sol\":2393:2425  payable(property.owner).transfer */\n      0xffffffffffffffffffffffffffffffffffffffff\n      and\n        /* \"contracts/Realestatechan.sol\":2393:2441  payable(property.owner).transfer(property.price) */\n      0x08fc\n        /* \"contracts/Realestatechan.sol\":2426:2434  property */\n      dup3\n        /* \"contracts/Realestatechan.sol\":2426:2440  property.price */\n      0x00\n      add\n      sload\n        /* \"contracts/Realestatechan.sol\":2393:2441  payable(property.owner).transfer(property.price) */\n      swap1\n      dup2\n      iszero\n      mul\n      swap1\n      mload(0x40)\n      0x00\n      mload(0x40)\n      dup1\n      dup4\n      sub\n      dup2\n      dup6\n      dup9\n      dup9\n      call\n      swap4\n      pop\n      pop\n      pop\n      pop\n      iszero\n      dup1\n      iszero\n      tag_34\n      jumpi\n      returndatasize\n      0x00\n      dup1\n      returndatacopy\n      revert(0x00, returndatasize)\n    tag_34:\n      pop\n        /* \"contracts/Realestatechan.sol\":2506:2516  msg.sender */\n      caller\n        /* \"contracts/Realestatechan.sol\":2491:2499  property */\n      dup2\n        /* \"contracts/Realestatechan.sol\":2491:2505  property.owner */\n      0x03\n      add\n      0x00\n        /* \"contracts/Realestatechan.sol\":2491:2516  property.owner=msg.sender */\n      0x0100\n      exp\n      dup2\n      sload\n      dup2\n      0xffffffffffffffffffffffffffffffffffffffff\n      mul\n      not\n      and\n      swap1\n      dup4\n      0xffffffffffffffffffffffffffffffffffffffff\n      and\n      mul\n      or\n      swap1\n      sstore\n      pop\n        /* \"contracts/Realestatechan.sol\":2580:2585  false */\n      0x00\n        /* \"contracts/Realestatechan.sol\":2564:2572  property */\n      dup2\n        /* \"contracts/Realestatechan.sol\":2564:2579  property.Onsale */\n      0x01\n      add\n      0x00\n        /* \"contracts/Realestatechan.sol\":2564:2585  property.Onsale=false */\n      0x0100\n      exp\n      dup2\n      sload\n      dup2\n      0xff\n      mul\n      not\n      and\n      swap1\n      dup4\n      iszero\n      iszero\n      mul\n      or\n      swap1\n      sstore\n      pop\n        /* \"contracts/Realestatechan.sol\":2630:2655  PropertySold(_propertyId) */\n      0xca00b0637134f6563551ffb097ffc572f30140029b94a4a1e7ef423b475a894f\n        /* \"contracts/Realestatechan.sol\":2643:2654  _propertyId */\n      dup3\n        /* \"contracts/Realestatechan.sol\":2630:2655  PropertySold(_propertyId) */\n      mload(0x40)\n      tag_35\n      swap2\n      swap1\n      tag_36\n      jump\t// in\n    tag_35:\n      mload(0x40)\n      dup1\n      swap2\n      sub\n      swap1\n      log1\n        /* \"contracts/Realestatechan.sol\":2030:2659  {... */\n      pop\n        /* \"contracts/Realestatechan.sol\":1974:2659  function buyProperty(uint256 _propertyId)public payable {... */\n      pop\n      jump\t// out\n        /* \"contracts/Realestatechan.sol\":2705:2925  function getPropertylistIDs()public view returns(... */\n    tag_12:\n        /* \"contracts/Realestatechan.sol\":2760:2789  uint256[] memory _residential */\n      0x60\n        /* \"contracts/Realestatechan.sol\":2797:2825  uint256[] memory _commercial */\n      dup1\n        /* \"contracts/Realestatechan.sol\":2855:2877  residentialPropertyIDs */\n      0x01\n        /* \"contracts/Realestatechan.sol\":2842:2877  _residential=residentialPropertyIDs */\n      dup1\n      sload\n      dup1\n      0x20\n      mul\n      0x20\n      add\n      mload(0x40)\n      swap1\n      dup2\n      add\n      0x40\n      mstore\n      dup1\n      swap3\n      swap2\n      swap1\n      dup2\n      dup2\n      mstore\n      0x20\n      add\n      dup3\n      dup1\n      sload\n      dup1\n      iszero\n      tag_38\n      jumpi\n      0x20\n      mul\n      dup3\n      add\n      swap2\n      swap1\n      0x00\n      mstore\n      keccak256(0x00, 0x20)\n      swap1\n    tag_39:\n      dup2\n      sload\n      dup2\n      mstore\n      0x20\n      add\n      swap1\n      0x01\n      add\n      swap1\n      dup1\n      dup4\n      gt\n      tag_39\n      jumpi\n    tag_38:\n      pop\n      pop\n      pop\n      pop\n      pop\n      swap2\n      pop\n        /* \"contracts/Realestatechan.sol\":2899:2920  commercialPropertyIDs */\n      0x02\n        /* \"contracts/Realestatechan.sol\":2887:2920  _commercial=commercialPropertyIDs */\n      dup1\n      sload\n      dup1\n      0x20\n      mul\n      0x20\n      add\n      mload(0x40)\n      swap1\n      dup2\n      add\n      0x40\n      mstore\n      dup1\n      swap3\n      swap2\n      swap1\n      dup2\n      dup2\n      mstore\n      0x20\n      add\n      dup3\n      dup1\n      sload\n      dup1\n      iszero\n      tag_40\n      jumpi\n      0x20\n      mul\n      dup3\n      add\n      swap2\n      swap1\n      0x00\n      mstore\n      keccak256(0x00, 0x20)\n      swap1\n    tag_41:\n      dup2\n      sload\n      dup2\n      mstore\n      0x20\n      add\n      swap1\n      0x01\n      add\n      swap1\n      dup1\n      dup4\n      gt\n      tag_41\n      jumpi\n    tag_40:\n      pop\n      pop\n      pop\n      pop\n      pop\n      swap1\n      pop\n        /* \"contracts/Realestatechan.sol\":2705:2925  function getPropertylistIDs()public view returns(... */\n      swap1\n      swap2\n      jump\t// out\n        /* \"contracts/Realestatechan.sol\":412:458  mapping (uint256 =>Property)public  Properties */\n    tag_18:\n      mstore(0x20, 0x00)\n      dup1\n      0x00\n      mstore\n      keccak256(0x00, 0x40)\n      0x00\n      swap2\n      pop\n      swap1\n      pop\n      dup1\n      0x00\n      add\n      sload\n      swap1\n      dup1\n      0x01\n      add\n      0x00\n      swap1\n      sload\n      swap1\n      0x0100\n      exp\n      swap1\n      div\n      0xff\n      and\n      swap1\n      dup1\n      0x01\n      add\n      0x01\n      swap1\n      sload\n      swap1\n      0x0100\n      exp\n      swap1\n      div\n      0xff\n      and\n      swap1\n      dup1\n      0x02\n      add\n      dup1\n      sload\n      tag_42\n      swap1\n      tag_43\n      jump\t// in\n    tag_42:\n      dup1\n      0x1f\n      add\n      0x20\n      dup1\n      swap2\n      div\n      mul\n      0x20\n      add\n      mload(0x40)\n      swap1\n      dup2\n      add\n      0x40\n      mstore\n      dup1\n      swap3\n      swap2\n      swap1\n      dup2\n      dup2\n      mstore\n      0x20\n      add\n      dup3\n      dup1\n      sload\n      tag_44\n      swap1\n      tag_43\n      jump\t// in\n    tag_44:\n      dup1\n      iszero\n      tag_45\n      jumpi\n      dup1\n      0x1f\n      lt\n      tag_46\n      jumpi\n      0x0100\n      dup1\n      dup4\n      sload\n      div\n      mul\n      dup4\n      mstore\n      swap2\n      0x20\n      add\n      swap2\n      jump(tag_45)\n    tag_46:\n      dup3\n      add\n      swap2\n      swap1\n      0x00\n      mstore\n      keccak256(0x00, 0x20)\n      swap1\n    tag_47:\n      dup2\n      sload\n      dup2\n      mstore\n      swap1\n      0x01\n      add\n      swap1\n      0x20\n      add\n      dup1\n      dup4\n      gt\n      tag_47\n      jumpi\n      dup3\n      swap1\n      sub\n      0x1f\n      and\n      dup3\n      add\n      swap2\n    tag_45:\n      pop\n      pop\n      pop\n      pop\n      pop\n      swap1\n      dup1\n      0x03\n      add\n      0x00\n      swap1\n      sload\n      swap1\n      0x0100\n      exp\n      swap1\n      div\n      0xffffffffffffffffffffffffffffffffffffffff\n      and\n      swap1\n      dup1\n      0x04\n      add\n      dup1\n      sload\n      tag_48\n      swap1\n      tag_43\n      jump\t// in\n    tag_48:\n      dup1\n      0x1f\n      add\n      0x20\n      dup1\n      swap2\n      div\n      mul\n      0x20\n      add\n      mload(0x40)\n      swap1\n      dup2\n      add\n      0x40\n      mstore\n      dup1\n      swap3\n      swap2\n      swap1\n      dup2\n      dup2\n      mstore\n      0x20\n      add\n      dup3\n      dup1\n      sload\n      tag_49\n      swap1\n      tag_43\n      jump\t// in\n    tag_49:\n      dup1\n      iszero\n      tag_50\n      jumpi\n      dup1\n      0x1f\n      lt\n      tag_51\n      jumpi\n      0x0100\n      dup1\n      dup4\n      sload\n      div\n      mul\n      dup4\n      mstore\n      swap2\n      0x20\n      add\n      swap2\n      jump(tag_50)\n    tag_51:\n      dup3\n      add\n      swap2\n      swap1\n      0x00\n      mstore\n      keccak256(0x00, 0x20)\n      swap1\n    tag_52:\n      dup2\n      sload\n      dup2\n      mstore\n      swap1\n      0x01\n      add\n      swap1\n      0x20\n      add\n      dup1\n      dup4\n      gt\n      tag_52\n      jumpi\n      dup3\n      swap1\n      sub\n      0x1f\n      and\n      dup3\n      add\n      swap2\n    tag_50:\n      pop\n      pop\n      pop\n      pop\n      pop\n      swap1\n      dup1\n      0x05\n      add\n      dup1\n      sload\n      tag_53\n      swap1\n      tag_43\n      jump\t// in\n    tag_53:\n      dup1\n      0x1f\n      add\n      0x20\n      dup1\n      swap2\n      div\n      mul\n      0x20\n      add\n      mload(0x40)\n      swap1\n      dup2\n      add\n      0x40\n      mstore\n      dup1\n      swap3\n      swap2\n      swap1\n      dup2\n      dup2\n      mstore\n      0x20\n      add\n      dup3\n      dup1\n      sload\n      tag_54\n      swap1\n      tag_43\n      jump\t// in\n    tag_54:\n      dup1\n      iszero\n      tag_55\n      jumpi\n      dup1\n      0x1f\n      lt\n      tag_56\n      jumpi\n      0x0100\n      dup1\n      dup4\n      sload\n      div\n      mul\n      dup4\n      mstore\n      swap2\n      0x20\n      add\n      swap2\n      jump(tag_55)\n    tag_56:\n      dup3\n      add\n      swap2\n      swap1\n      0x00\n      mstore\n      keccak256(0x00, 0x20)\n      swap1\n    tag_57:\n      dup2\n      sload\n      dup2\n      mstore\n      swap1\n      0x01\n      add\n      swap1\n      0x20\n      add\n      dup1\n      dup4\n      gt\n      tag_57\n      jumpi\n      dup3\n      swap1\n      sub\n      0x1f\n      and\n      dup3\n      add\n      swap2\n    tag_55:\n      pop\n      pop\n      pop\n      pop\n      pop\n      swap1\n      pop\n      dup8\n      jump\t// out\n        /* \"contracts/Realestatechan.sol\":736:1856  function listPropertyForSale(... */\n    tag_25:\n        /* \"contracts/Realestatechan.sol\":946:973  Property memory newProperty */\n      0x00\n        /* \"contracts/Realestatechan.sol\":976:1214  Property({... */\n      mload(0x40)\n      dup1\n      0xe0\n      add\n      0x40\n      mstore\n      dup1\n        /* \"contracts/Realestatechan.sol\":1003:1009  _price */\n      dup8\n        /* \"contracts/Realestatechan.sol\":976:1214  Property({... */\n      dup2\n      mstore\n      0x20\n      add\n        /* \"contracts/Realestatechan.sol\":1029:1033  true */\n      0x01\n        /* \"contracts/Realestatechan.sol\":976:1214  Property({... */\n      iszero\n      iszero\n      dup2\n      mstore\n      0x20\n      add\n        /* \"contracts/Realestatechan.sol\":1059:1073  _isResidential */\n      dup4\n        /* \"contracts/Realestatechan.sol\":976:1214  Property({... */\n      iszero\n      iszero\n      dup2\n      mstore\n      0x20\n      add\n        /* \"contracts/Realestatechan.sol\":1090:1095  _name */\n      dup7\n        /* \"contracts/Realestatechan.sol\":976:1214  Property({... */\n      dup2\n      mstore\n      0x20\n      add\n        /* \"contracts/Realestatechan.sol\":1114:1124  msg.sender */\n      caller\n        /* \"contracts/Realestatechan.sol\":976:1214  Property({... */\n      0xffffffffffffffffffffffffffffffffffffffff\n      and\n      dup2\n      mstore\n      0x20\n      add\n        /* \"contracts/Realestatechan.sol\":1149:1161  _description */\n      dup6\n        /* \"contracts/Realestatechan.sol\":976:1214  Property({... */\n      dup2\n      mstore\n      0x20\n      add\n        /* \"contracts/Realestatechan.sol\":1183:1192  _location */\n      dup5\n        /* \"contracts/Realestatechan.sol\":976:1214  Property({... */\n      dup2\n      mstore\n      pop\n        /* \"contracts/Realestatechan.sol\":946:1214  Property memory newProperty = Property({... */\n      swap1\n      pop\n        /* \"contracts/Realestatechan.sol\":1425:1436  newProperty */\n      dup1\n        /* \"contracts/Realestatechan.sol\":1399:1409  Properties */\n      0x00\n        /* \"contracts/Realestatechan.sol\":1399:1422  Properties[_propertyId] */\n      dup1\n        /* \"contracts/Realestatechan.sol\":1410:1421  _propertyId */\n      dup10\n        /* \"contracts/Realestatechan.sol\":1399:1422  Properties[_propertyId] */\n      dup2\n      mstore\n      0x20\n      add\n      swap1\n      dup2\n      mstore\n      0x20\n      add\n      0x00\n      keccak256\n        /* \"contracts/Realestatechan.sol\":1399:1436  Properties[_propertyId] = newProperty */\n      0x00\n      dup3\n      add\n      mload\n      dup2\n      0x00\n      add\n      sstore\n      0x20\n      dup3\n      add\n      mload\n      dup2\n      0x01\n      add\n      exp(0x0100, 0x00)\n      dup2\n      sload\n      dup2\n      0xff\n      mul\n      not\n      and\n      swap1\n      dup4\n      iszero\n      iszero\n      mul\n      or\n      swap1\n      sstore\n      pop\n      0x40\n      dup3\n      add\n      mload\n      dup2\n      0x01\n      add\n      exp(0x0100, 0x01)\n      dup2\n      sload\n      dup2\n      0xff\n      mul\n      not\n      and\n      swap1\n      dup4\n      iszero\n      iszero\n      mul\n      or\n      swap1\n      sstore\n      pop\n      0x60\n      dup3\n      add\n      mload\n      dup2\n      0x02\n      add\n      swap1\n      dup2\n      tag_59\n      swap2\n      swap1\n      tag_60\n      jump\t// in\n    tag_59:\n      pop\n      0x80\n      dup3\n      add\n      mload\n      dup2\n      0x03\n      add\n      exp(0x0100, 0x00)\n      dup2\n      sload\n      dup2\n      0xffffffffffffffffffffffffffffffffffffffff\n      mul\n      not\n      and\n      swap1\n      dup4\n      0xffffffffffffffffffffffffffffffffffffffff\n      and\n      mul\n      or\n      swap1\n      sstore\n      pop\n      0xa0\n      dup3\n      add\n      mload\n      dup2\n      0x04\n      add\n      swap1\n      dup2\n      tag_61\n      swap2\n      swap1\n      tag_60\n      jump\t// in\n    tag_61:\n      pop\n      0xc0\n      dup3\n      add\n      mload\n      dup2\n      0x05\n      add\n      swap1\n      dup2\n      tag_62\n      swap2\n      swap1\n      tag_60\n      jump\t// in\n    tag_62:\n      pop\n      swap1\n      pop\n      pop\n        /* \"contracts/Realestatechan.sol\":1540:1557  type(uint256).max */\n      0xffffffffffffffffffffffffffffffffffffffffffffffffffffffffffffffff\n        /* \"contracts/Realestatechan.sol\":1490:1536  findIndex(residentialPropertyIDs, _propertyId) */\n      tag_63\n        /* \"contracts/Realestatechan.sol\":1500:1522  residentialPropertyIDs */\n      0x01\n        /* \"contracts/Realestatechan.sol\":1490:1536  findIndex(residentialPropertyIDs, _propertyId) */\n      dup1\n      sload\n      dup1\n      0x20\n      mul\n      0x20\n      add\n      mload(0x40)\n      swap1\n      dup2\n      add\n      0x40\n      mstore\n      dup1\n      swap3\n      swap2\n      swap1\n      dup2\n      dup2\n      mstore\n      0x20\n      add\n      dup3\n      dup1\n      sload\n      dup1\n      iszero\n      tag_64\n      jumpi\n      0x20\n      mul\n      dup3\n      add\n      swap2\n      swap1\n      0x00\n      mstore\n      keccak256(0x00, 0x20)\n      swap1\n    tag_65:\n      dup2\n      sload\n      dup2\n      mstore\n      0x20\n      add\n      swap1\n      0x01\n      add\n      swap1\n      dup1\n      dup4\n      gt\n      tag_65\n      jumpi\n    tag_64:\n      pop\n      pop\n      pop\n      pop\n      pop\n        /* \"contracts/Realestatechan.sol\":1524:1535  _propertyId */\n      dup10\n        /* \"contracts/Realestatechan.sol\":1490:1499  findIndex */\n      tag_66\n        /* \"contracts/Realestatechan.sol\":1490:1536  findIndex(residentialPropertyIDs, _propertyId) */\n      jump\t// in\n    tag_63:\n        /* \"contracts/Realestatechan.sol\":1490:1557  findIndex(residentialPropertyIDs, _propertyId) == type(uint256).max */\n      eq\n        /* \"contracts/Realestatechan.sol\":1482:1579  require(findIndex(residentialPropertyIDs, _propertyId) == type(uint256).max, \"ID already exists\") */\n      tag_67\n      jumpi\n      mload(0x40)\n      0x08c379a000000000000000000000000000000000000000000000000000000000\n      dup2\n      mstore\n      0x04\n      add\n      tag_68\n      swap1\n      tag_69\n      jump\t// in\n    tag_68:\n      mload(0x40)\n      dup1\n      swap2\n      sub\n      swap1\n      revert\n    tag_67:\n        /* \"contracts/Realestatechan.sol\":1640:1657  type(uint256).max */\n      0xffffffffffffffffffffffffffffffffffffffffffffffffffffffffffffffff\n        /* \"contracts/Realestatechan.sol\":1591:1636  findIndex(commercialPropertyIDs, _propertyId) */\n      tag_70\n        /* \"contracts/Realestatechan.sol\":1601:1622  commercialPropertyIDs */\n      0x02\n        /* \"contracts/Realestatechan.sol\":1591:1636  findIndex(commercialPropertyIDs, _propertyId) */\n      dup1\n      sload\n      dup1\n      0x20\n      mul\n      0x20\n      add\n      mload(0x40)\n      swap1\n      dup2\n      add\n      0x40\n      mstore\n      dup1\n      swap3\n      swap2\n      swap1\n      dup2\n      dup2\n      mstore\n      0x20\n      add\n      dup3\n      dup1\n      sload\n      dup1\n      iszero\n      tag_71\n      jumpi\n      0x20\n      mul\n      dup3\n      add\n      swap2\n      swap1\n      0x00\n      mstore\n      keccak256(0x00, 0x20)\n      swap1\n    tag_72:\n      dup2\n      sload\n      dup2\n      mstore\n      0x20\n      add\n      swap1\n      0x01\n      add\n      swap1\n      dup1\n      dup4\n      gt\n      tag_72\n      jumpi\n    tag_71:\n      pop\n      pop\n      pop\n      pop\n      pop\n        /* \"contracts/Realestatechan.sol\":1624:1635  _propertyId */\n      dup10\n        /* \"contracts/Realestatechan.sol\":1591:1600  findIndex */\n      tag_66\n        /* \"contracts/Realestatechan.sol\":1591:1636  findIndex(commercialPropertyIDs, _propertyId) */\n      jump\t// in\n    tag_70:\n        /* \"contracts/Realestatechan.sol\":1591:1657  findIndex(commercialPropertyIDs, _propertyId) == type(uint256).max */\n      eq\n        /* \"contracts/Realestatechan.sol\":1583:1679  require(findIndex(commercialPropertyIDs, _propertyId) == type(uint256).max, \"ID already exists\") */\n      tag_73\n      jumpi\n      mload(0x40)\n      0x08c379a000000000000000000000000000000000000000000000000000000000\n      dup2\n      mstore\n      0x04\n      add\n      tag_74\n      swap1\n      tag_69\n      jump\t// in\n    tag_74:\n      mload(0x40)\n      dup1\n      swap2\n      sub\n      swap1\n      revert\n    tag_73:\n        /* \"contracts/Realestatechan.sol\":1744:1748  true */\n      0x01\n        /* \"contracts/Realestatechan.sol\":1728:1748  _isResidential==true */\n      iszero\n      iszero\n        /* \"contracts/Realestatechan.sol\":1728:1742  _isResidential */\n      dup3\n        /* \"contracts/Realestatechan.sol\":1728:1748  _isResidential==true */\n      iszero\n      iszero\n      sub\n        /* \"contracts/Realestatechan.sol\":1725:1853  if(_isResidential==true){... */\n      tag_75\n      jumpi\n        /* \"contracts/Realestatechan.sol\":1752:1774  residentialPropertyIDs */\n      0x01\n        /* \"contracts/Realestatechan.sol\":1780:1791  _propertyId */\n      dup8\n        /* \"contracts/Realestatechan.sol\":1752:1792  residentialPropertyIDs.push(_propertyId) */\n      swap1\n      dup1\n      0x01\n      dup2\n      sload\n      add\n      dup1\n      dup3\n      sstore\n      dup1\n      swap2\n      pop\n      pop\n      0x01\n      swap1\n      sub\n      swap1\n      0x00\n      mstore\n      keccak256(0x00, 0x20)\n      add\n      0x00\n      swap1\n      swap2\n      swap1\n      swap2\n      swap1\n      swap2\n      pop\n      sstore\n        /* \"contracts/Realestatechan.sol\":1725:1853  if(_isResidential==true){... */\n      jump(tag_77)\n    tag_75:\n        /* \"contracts/Realestatechan.sol\":1810:1831  commercialPropertyIDs */\n      0x02\n        /* \"contracts/Realestatechan.sol\":1837:1848  _propertyId */\n      dup8\n        /* \"contracts/Realestatechan.sol\":1810:1849  commercialPropertyIDs.push(_propertyId) */\n      swap1\n      dup1\n      0x01\n      dup2\n      sload\n      add\n      dup1\n      dup3\n      sstore\n      dup1\n      swap2\n      pop\n      pop\n      0x01\n      swap1\n      sub\n      swap1\n      0x00\n      mstore\n      keccak256(0x00, 0x20)\n      add\n      0x00\n      swap1\n      swap2\n      swap1\n      swap2\n      swap1\n      swap2\n      pop\n      sstore\n        /* \"contracts/Realestatechan.sol\":1725:1853  if(_isResidential==true){... */\n    tag_77:\n        /* \"contracts/Realestatechan.sol\":939:1856  {... */\n      pop\n        /* \"contracts/Realestatechan.sol\":736:1856  function listPropertyForSale(... */\n      pop\n      pop\n      pop\n      pop\n      pop\n      pop\n      jump\t// out\n        /* \"contracts/Realestatechan.sol\":2995:3253  function findIndex(uint256[] memory arr, uint256 value) private pure returns (uint256) {... */\n    tag_66:\n        /* \"contracts/Realestatechan.sol\":3073:3080  uint256 */\n      0x00\n        /* \"contracts/Realestatechan.sol\":3094:3103  uint256 i */\n      dup1\n        /* \"contracts/Realestatechan.sol\":3106:3107  0 */\n      0x00\n        /* \"contracts/Realestatechan.sol\":3094:3107  uint256 i = 0 */\n      swap1\n      pop\n        /* \"contracts/Realestatechan.sol\":3089:3219  for (uint256 i = 0; i < arr.length; i++) {   //traversing... */\n    tag_80:\n        /* \"contracts/Realestatechan.sol\":3113:3116  arr */\n      dup4\n        /* \"contracts/Realestatechan.sol\":3113:3123  arr.length */\n      mload\n        /* \"contracts/Realestatechan.sol\":3109:3110  i */\n      dup2\n        /* \"contracts/Realestatechan.sol\":3109:3123  i < arr.length */\n      lt\n        /* \"contracts/Realestatechan.sol\":3089:3219  for (uint256 i = 0; i < arr.length; i++) {   //traversing... */\n      iszero\n      tag_81\n      jumpi\n        /* \"contracts/Realestatechan.sol\":3170:3175  value */\n      dup3\n        /* \"contracts/Realestatechan.sol\":3160:3163  arr */\n      dup5\n        /* \"contracts/Realestatechan.sol\":3164:3165  i */\n      dup3\n        /* \"contracts/Realestatechan.sol\":3160:3166  arr[i] */\n      dup2\n      mload\n      dup2\n      lt\n      tag_83\n      jumpi\n      tag_84\n      tag_85\n      jump\t// in\n    tag_84:\n    tag_83:\n      0x20\n      mul\n      0x20\n      add\n      add\n      mload\n        /* \"contracts/Realestatechan.sol\":3160:3175  arr[i] == value */\n      sub\n        /* \"contracts/Realestatechan.sol\":3156:3212  if (arr[i] == value) {... */\n      tag_86\n      jumpi\n        /* \"contracts/Realestatechan.sol\":3199:3200  i */\n      dup1\n        /* \"contracts/Realestatechan.sol\":3192:3200  return i */\n      swap2\n      pop\n      pop\n      jump(tag_79)\n        /* \"contracts/Realestatechan.sol\":3156:3212  if (arr[i] == value) {... */\n    tag_86:\n        /* \"contracts/Realestatechan.sol\":3125:3128  i++ */\n      dup1\n      dup1\n      0x01\n      add\n      swap2\n      pop\n      pop\n        /* \"contracts/Realestatechan.sol\":3089:3219  for (uint256 i = 0; i < arr.length; i++) {   //traversing... */\n      jump(tag_80)\n    tag_81:\n      pop\n        /* \"contracts/Realestatechan.sol\":3232:3249  type(uint256).max */\n      0xffffffffffffffffffffffffffffffffffffffffffffffffffffffffffffffff\n        /* \"contracts/Realestatechan.sol\":3225:3249  return type(uint256).max */\n      swap1\n      pop\n        /* \"contracts/Realestatechan.sol\":2995:3253  function findIndex(uint256[] memory arr, uint256 value) private pure returns (uint256) {... */\n    tag_79:\n      swap3\n      swap2\n      pop\n      pop\n      jump\t// out\n        /* \"#utility.yul\":7:82   */\n    tag_87:\n        /* \"#utility.yul\":40:46   */\n      0x00\n        /* \"#utility.yul\":73:75   */\n      0x40\n        /* \"#utility.yul\":67:76   */\n      mload\n        /* \"#utility.yul\":57:76   */\n      swap1\n      pop\n        /* \"#utility.yul\":7:82   */\n      swap1\n      jump\t// out\n        /* \"#utility.yul\":88:205   */\n    tag_88:\n        /* \"#utility.yul\":197:198   */\n      0x00\n        /* \"#utility.yul\":194:195   */\n      dup1\n        /* \"#utility.yul\":187:199   */\n      revert\n        /* \"#utility.yul\":211:328   */\n    tag_89:\n        /* \"#utility.yul\":320:321   */\n      0x00\n        /* \"#utility.yul\":317:318   */\n      dup1\n        /* \"#utility.yul\":310:322   */\n      revert\n        /* \"#utility.yul\":334:411   */\n    tag_90:\n        /* \"#utility.yul\":371:378   */\n      0x00\n        /* \"#utility.yul\":400:405   */\n      dup2\n        /* \"#utility.yul\":389:405   */\n      swap1\n      pop\n        /* \"#utility.yul\":334:411   */\n      swap2\n      swap1\n      pop\n      jump\t// out\n        /* \"#utility.yul\":417:539   */\n    tag_91:\n        /* \"#utility.yul\":490:514   */\n      tag_150\n        /* \"#utility.yul\":508:513   */\n      dup2\n        /* \"#utility.yul\":490:514   */\n      tag_90\n      jump\t// in\n    tag_150:\n        /* \"#utility.yul\":483:488   */\n      dup2\n        /* \"#utility.yul\":480:515   */\n      eq\n        /* \"#utility.yul\":470:533   */\n      tag_151\n      jumpi\n        /* \"#utility.yul\":529:530   */\n      0x00\n        /* \"#utility.yul\":526:527   */\n      dup1\n        /* \"#utility.yul\":519:531   */\n      revert\n        /* \"#utility.yul\":470:533   */\n    tag_151:\n        /* \"#utility.yul\":417:539   */\n      pop\n      jump\t// out\n        /* \"#utility.yul\":545:684   */\n    tag_92:\n        /* \"#utility.yul\":591:596   */\n      0x00\n        /* \"#utility.yul\":629:635   */\n      dup2\n        /* \"#utility.yul\":616:636   */\n      calldataload\n        /* \"#utility.yul\":607:636   */\n      swap1\n      pop\n        /* \"#utility.yul\":645:678   */\n      tag_153\n        /* \"#utility.yul\":672:677   */\n      dup2\n        /* \"#utility.yul\":645:678   */\n      tag_91\n      jump\t// in\n    tag_153:\n        /* \"#utility.yul\":545:684   */\n      swap3\n      swap2\n      pop\n      pop\n      jump\t// out\n        /* \"#utility.yul\":690:1019   */\n    tag_8:\n        /* \"#utility.yul\":749:755   */\n      0x00\n        /* \"#utility.yul\":798:800   */\n      0x20\n        /* \"#utility.yul\":786:795   */\n      dup3\n        /* \"#utility.yul\":777:784   */\n      dup5\n        /* \"#utility.yul\":773:796   */\n      sub\n        /* \"#utility.yul\":769:801   */\n      slt\n        /* \"#utility.yul\":766:885   */\n      iszero\n      tag_155\n      jumpi\n        /* \"#utility.yul\":804:883   */\n      tag_156\n      tag_88\n      jump\t// in\n    tag_156:\n        /* \"#utility.yul\":766:885   */\n    tag_155:\n        /* \"#utility.yul\":924:925   */\n      0x00\n        /* \"#utility.yul\":949:1002   */\n      tag_157\n        /* \"#utility.yul\":994:1001   */\n      dup5\n        /* \"#utility.yul\":985:991   */\n      dup3\n        /* \"#utility.yul\":974:983   */\n      dup6\n        /* \"#utility.yul\":970:992   */\n      add\n        /* \"#utility.yul\":949:1002   */\n      tag_92\n      jump\t// in\n    tag_157:\n        /* \"#utility.yul\":939:1002   */\n      swap2\n      pop\n        /* \"#utility.yul\":895:1012   */\n      pop\n        /* \"#utility.yul\":690:1019   */\n      swap3\n      swap2\n      pop\n      pop\n      jump\t// out\n        /* \"#utility.yul\":1025:1139   */\n    tag_93:\n        /* \"#utility.yul\":1092:1098   */\n      0x00\n        /* \"#utility.yul\":1126:1131   */\n      dup2\n        /* \"#utility.yul\":1120:1132   */\n      mload\n        /* \"#utility.yul\":1110:1132   */\n      swap1\n      pop\n        /* \"#utility.yul\":1025:1139   */\n      swap2\n      swap1\n      pop\n      jump\t// out\n        /* \"#utility.yul\":1145:1329   */\n    tag_94:\n        /* \"#utility.yul\":1244:1255   */\n      0x00\n        /* \"#utility.yul\":1278:1284   */\n      dup3\n        /* \"#utility.yul\":1273:1276   */\n      dup3\n        /* \"#utility.yul\":1266:1285   */\n      mstore\n        /* \"#utility.yul\":1318:1322   */\n      0x20\n        /* \"#utility.yul\":1313:1316   */\n      dup3\n        /* \"#utility.yul\":1309:1323   */\n      add\n        /* \"#utility.yul\":1294:1323   */\n      swap1\n      pop\n        /* \"#utility.yul\":1145:1329   */\n      swap3\n      swap2\n      pop\n      pop\n      jump\t// out\n        /* \"#utility.yul\":1335:1467   */\n    tag_95:\n        /* \"#utility.yul\":1402:1406   */\n      0x00\n        /* \"#utility.yul\":1425:1428   */\n      dup2\n        /* \"#utility.yul\":1417:1428   */\n      swap1\n      pop\n        /* \"#utility.yul\":1455:1459   */\n      0x20\n        /* \"#utility.yul\":1450:1453   */\n      dup3\n        /* \"#utility.yul\":1446:1460   */\n      add\n        /* \"#utility.yul\":1438:1460   */\n      swap1\n      pop\n        /* \"#utility.yul\":1335:1467   */\n      swap2\n      swap1\n      pop\n      jump\t// out\n        /* \"#utility.yul\":1473:1581   */\n    tag_96:\n        /* \"#utility.yul\":1550:1574   */\n      tag_162\n        /* \"#utility.yul\":1568:1573   */\n      dup2\n        /* \"#utility.yul\":1550:1574   */\n      tag_90\n      jump\t// in\n    tag_162:\n        /* \"#utility.yul\":1545:1548   */\n      dup3\n        /* \"#utility.yul\":1538:1575   */\n      mstore\n        /* \"#utility.yul\":1473:1581   */\n      pop\n      pop\n      jump\t// out\n        /* \"#utility.yul\":1587:1766   */\n    tag_97:\n        /* \"#utility.yul\":1656:1666   */\n      0x00\n        /* \"#utility.yul\":1677:1723   */\n      tag_164\n        /* \"#utility.yul\":1719:1722   */\n      dup4\n        /* \"#utility.yul\":1711:1717   */\n      dup4\n        /* \"#utility.yul\":1677:1723   */\n      tag_96\n      jump\t// in\n    tag_164:\n        /* \"#utility.yul\":1755:1759   */\n      0x20\n        /* \"#utility.yul\":1750:1753   */\n      dup4\n        /* \"#utility.yul\":1746:1760   */\n      add\n        /* \"#utility.yul\":1732:1760   */\n      swap1\n      pop\n        /* \"#utility.yul\":1587:1766   */\n      swap3\n      swap2\n      pop\n      pop\n      jump\t// out\n        /* \"#utility.yul\":1772:1885   */\n    tag_98:\n        /* \"#utility.yul\":1842:1846   */\n      0x00\n        /* \"#utility.yul\":1874:1878   */\n      0x20\n        /* \"#utility.yul\":1869:1872   */\n      dup3\n        /* \"#utility.yul\":1865:1879   */\n      add\n        /* \"#utility.yul\":1857:1879   */\n      swap1\n      pop\n        /* \"#utility.yul\":1772:1885   */\n      swap2\n      swap1\n      pop\n      jump\t// out\n        /* \"#utility.yul\":1921:2653   */\n    tag_99:\n        /* \"#utility.yul\":2040:2043   */\n      0x00\n        /* \"#utility.yul\":2069:2123   */\n      tag_167\n        /* \"#utility.yul\":2117:2122   */\n      dup3\n        /* \"#utility.yul\":2069:2123   */\n      tag_93\n      jump\t// in\n    tag_167:\n        /* \"#utility.yul\":2139:2225   */\n      tag_168\n        /* \"#utility.yul\":2218:2224   */\n      dup2\n        /* \"#utility.yul\":2213:2216   */\n      dup6\n        /* \"#utility.yul\":2139:2225   */\n      tag_94\n      jump\t// in\n    tag_168:\n        /* \"#utility.yul\":2132:2225   */\n      swap4\n      pop\n        /* \"#utility.yul\":2249:2305   */\n      tag_169\n        /* \"#utility.yul\":2299:2304   */\n      dup4\n        /* \"#utility.yul\":2249:2305   */\n      tag_95\n      jump\t// in\n    tag_169:\n        /* \"#utility.yul\":2328:2335   */\n      dup1\n        /* \"#utility.yul\":2359:2360   */\n      0x00\n        /* \"#utility.yul\":2344:2628   */\n    tag_170:\n        /* \"#utility.yul\":2369:2375   */\n      dup4\n        /* \"#utility.yul\":2366:2367   */\n      dup2\n        /* \"#utility.yul\":2363:2376   */\n      lt\n        /* \"#utility.yul\":2344:2628   */\n      iszero\n      tag_172\n      jumpi\n        /* \"#utility.yul\":2445:2451   */\n      dup2\n        /* \"#utility.yul\":2439:2452   */\n      mload\n        /* \"#utility.yul\":2472:2535   */\n      tag_173\n        /* \"#utility.yul\":2531:2534   */\n      dup9\n        /* \"#utility.yul\":2516:2529   */\n      dup3\n        /* \"#utility.yul\":2472:2535   */\n      tag_97\n      jump\t// in\n    tag_173:\n        /* \"#utility.yul\":2465:2535   */\n      swap8\n      pop\n        /* \"#utility.yul\":2558:2618   */\n      tag_174\n        /* \"#utility.yul\":2611:2617   */\n      dup4\n        /* \"#utility.yul\":2558:2618   */\n      tag_98\n      jump\t// in\n    tag_174:\n        /* \"#utility.yul\":2548:2618   */\n      swap3\n      pop\n        /* \"#utility.yul\":2404:2628   */\n      pop\n        /* \"#utility.yul\":2391:2392   */\n      0x01\n        /* \"#utility.yul\":2388:2389   */\n      dup2\n        /* \"#utility.yul\":2384:2393   */\n      add\n        /* \"#utility.yul\":2379:2393   */\n      swap1\n      pop\n        /* \"#utility.yul\":2344:2628   */\n      jump(tag_170)\n    tag_172:\n        /* \"#utility.yul\":2348:2362   */\n      pop\n        /* \"#utility.yul\":2644:2647   */\n      dup6\n        /* \"#utility.yul\":2637:2647   */\n      swap4\n      pop\n        /* \"#utility.yul\":2045:2653   */\n      pop\n      pop\n      pop\n        /* \"#utility.yul\":1921:2653   */\n      swap3\n      swap2\n      pop\n      pop\n      jump\t// out\n        /* \"#utility.yul\":2659:3293   */\n    tag_14:\n        /* \"#utility.yul\":2880:2884   */\n      0x00\n        /* \"#utility.yul\":2918:2920   */\n      0x40\n        /* \"#utility.yul\":2907:2916   */\n      dup3\n        /* \"#utility.yul\":2903:2921   */\n      add\n        /* \"#utility.yul\":2895:2921   */\n      swap1\n      pop\n        /* \"#utility.yul\":2967:2976   */\n      dup2\n        /* \"#utility.yul\":2961:2965   */\n      dup2\n        /* \"#utility.yul\":2957:2977   */\n      sub\n        /* \"#utility.yul\":2953:2954   */\n      0x00\n        /* \"#utility.yul\":2942:2951   */\n      dup4\n        /* \"#utility.yul\":2938:2955   */\n      add\n        /* \"#utility.yul\":2931:2978   */\n      mstore\n        /* \"#utility.yul\":2995:3103   */\n      tag_176\n        /* \"#utility.yul\":3098:3102   */\n      dup2\n        /* \"#utility.yul\":3089:3095   */\n      dup6\n        /* \"#utility.yul\":2995:3103   */\n      tag_99\n      jump\t// in\n    tag_176:\n        /* \"#utility.yul\":2987:3103   */\n      swap1\n      pop\n        /* \"#utility.yul\":3150:3159   */\n      dup2\n        /* \"#utility.yul\":3144:3148   */\n      dup2\n        /* \"#utility.yul\":3140:3160   */\n      sub\n        /* \"#utility.yul\":3135:3137   */\n      0x20\n        /* \"#utility.yul\":3124:3133   */\n      dup4\n        /* \"#utility.yul\":3120:3138   */\n      add\n        /* \"#utility.yul\":3113:3161   */\n      mstore\n        /* \"#utility.yul\":3178:3286   */\n      tag_177\n        /* \"#utility.yul\":3281:3285   */\n      dup2\n        /* \"#utility.yul\":3272:3278   */\n      dup5\n        /* \"#utility.yul\":3178:3286   */\n      tag_99\n      jump\t// in\n    tag_177:\n        /* \"#utility.yul\":3170:3286   */\n      swap1\n      pop\n        /* \"#utility.yul\":2659:3293   */\n      swap4\n      swap3\n      pop\n      pop\n      pop\n      jump\t// out\n        /* \"#utility.yul\":3299:3417   */\n    tag_100:\n        /* \"#utility.yul\":3386:3410   */\n      tag_179\n        /* \"#utility.yul\":3404:3409   */\n      dup2\n        /* \"#utility.yul\":3386:3410   */\n      tag_90\n      jump\t// in\n    tag_179:\n        /* \"#utility.yul\":3381:3384   */\n      dup3\n        /* \"#utility.yul\":3374:3411   */\n      mstore\n        /* \"#utility.yul\":3299:3417   */\n      pop\n      pop\n      jump\t// out\n        /* \"#utility.yul\":3423:3513   */\n    tag_101:\n        /* \"#utility.yul\":3457:3464   */\n      0x00\n        /* \"#utility.yul\":3500:3505   */\n      dup2\n        /* \"#utility.yul\":3493:3506   */\n      iszero\n        /* \"#utility.yul\":3486:3507   */\n      iszero\n        /* \"#utility.yul\":3475:3507   */\n      swap1\n      pop\n        /* \"#utility.yul\":3423:3513   */\n      swap2\n      swap1\n      pop\n      jump\t// out\n        /* \"#utility.yul\":3519:3628   */\n    tag_102:\n        /* \"#utility.yul\":3600:3621   */\n      tag_182\n        /* \"#utility.yul\":3615:3620   */\n      dup2\n        /* \"#utility.yul\":3600:3621   */\n      tag_101\n      jump\t// in\n    tag_182:\n        /* \"#utility.yul\":3595:3598   */\n      dup3\n        /* \"#utility.yul\":3588:3622   */\n      mstore\n        /* \"#utility.yul\":3519:3628   */\n      pop\n      pop\n      jump\t// out\n        /* \"#utility.yul\":3634:3733   */\n    tag_103:\n        /* \"#utility.yul\":3686:3692   */\n      0x00\n        /* \"#utility.yul\":3720:3725   */\n      dup2\n        /* \"#utility.yul\":3714:3726   */\n      mload\n        /* \"#utility.yul\":3704:3726   */\n      swap1\n      pop\n        /* \"#utility.yul\":3634:3733   */\n      swap2\n      swap1\n      pop\n      jump\t// out\n        /* \"#utility.yul\":3739:3908   */\n    tag_104:\n        /* \"#utility.yul\":3823:3834   */\n      0x00\n        /* \"#utility.yul\":3857:3863   */\n      dup3\n        /* \"#utility.yul\":3852:3855   */\n      dup3\n        /* \"#utility.yul\":3845:3864   */\n      mstore\n        /* \"#utility.yul\":3897:3901   */\n      0x20\n        /* \"#utility.yul\":3892:3895   */\n      dup3\n        /* \"#utility.yul\":3888:3902   */\n      add\n        /* \"#utility.yul\":3873:3902   */\n      swap1\n      pop\n        /* \"#utility.yul\":3739:3908   */\n      swap3\n      swap2\n      pop\n      pop\n      jump\t// out\n        /* \"#utility.yul\":3914:4053   */\n    tag_105:\n        /* \"#utility.yul\":4003:4009   */\n      dup3\n        /* \"#utility.yul\":3998:4001   */\n      dup2\n        /* \"#utility.yul\":3993:3996   */\n      dup4\n        /* \"#utility.yul\":3987:4010   */\n      mcopy\n        /* \"#utility.yul\":4044:4045   */\n      0x00\n        /* \"#utility.yul\":4035:4041   */\n      dup4\n        /* \"#utility.yul\":4030:4033   */\n      dup4\n        /* \"#utility.yul\":4026:4042   */\n      add\n        /* \"#utility.yul\":4019:4046   */\n      mstore\n        /* \"#utility.yul\":3914:4053   */\n      pop\n      pop\n      pop\n      jump\t// out\n        /* \"#utility.yul\":4059:4161   */\n    tag_106:\n        /* \"#utility.yul\":4100:4106   */\n      0x00\n        /* \"#utility.yul\":4151:4153   */\n      0x1f\n        /* \"#utility.yul\":4147:4154   */\n      not\n        /* \"#utility.yul\":4142:4144   */\n      0x1f\n        /* \"#utility.yul\":4135:4140   */\n      dup4\n        /* \"#utility.yul\":4131:4145   */\n      add\n        /* \"#utility.yul\":4127:4155   */\n      and\n        /* \"#utility.yul\":4117:4155   */\n      swap1\n      pop\n        /* \"#utility.yul\":4059:4161   */\n      swap2\n      swap1\n      pop\n      jump\t// out\n        /* \"#utility.yul\":4167:4544   */\n    tag_107:\n        /* \"#utility.yul\":4255:4258   */\n      0x00\n        /* \"#utility.yul\":4283:4322   */\n      tag_188\n        /* \"#utility.yul\":4316:4321   */\n      dup3\n        /* \"#utility.yul\":4283:4322   */\n      tag_103\n      jump\t// in\n    tag_188:\n        /* \"#utility.yul\":4338:4409   */\n      tag_189\n        /* \"#utility.yul\":4402:4408   */\n      dup2\n        /* \"#utility.yul\":4397:4400   */\n      dup6\n        /* \"#utility.yul\":4338:4409   */\n      tag_104\n      jump\t// in\n    tag_189:\n        /* \"#utility.yul\":4331:4409   */\n      swap4\n      pop\n        /* \"#utility.yul\":4418:4483   */\n      tag_190\n        /* \"#utility.yul\":4476:4482   */\n      dup2\n        /* \"#utility.yul\":4471:4474   */\n      dup6\n        /* \"#utility.yul\":4464:4468   */\n      0x20\n        /* \"#utility.yul\":4457:4462   */\n      dup7\n        /* \"#utility.yul\":4453:4469   */\n      add\n        /* \"#utility.yul\":4418:4483   */\n      tag_105\n      jump\t// in\n    tag_190:\n        /* \"#utility.yul\":4508:4537   */\n      tag_191\n        /* \"#utility.yul\":4530:4536   */\n      dup2\n        /* \"#utility.yul\":4508:4537   */\n      tag_106\n      jump\t// in\n    tag_191:\n        /* \"#utility.yul\":4503:4506   */\n      dup5\n        /* \"#utility.yul\":4499:4538   */\n      add\n        /* \"#utility.yul\":4492:4538   */\n      swap2\n      pop\n        /* \"#utility.yul\":4259:4544   */\n      pop\n        /* \"#utility.yul\":4167:4544   */\n      swap3\n      swap2\n      pop\n      pop\n      jump\t// out\n        /* \"#utility.yul\":4550:4676   */\n    tag_108:\n        /* \"#utility.yul\":4587:4594   */\n      0x00\n        /* \"#utility.yul\":4627:4669   */\n      0xffffffffffffffffffffffffffffffffffffffff\n        /* \"#utility.yul\":4620:4625   */\n      dup3\n        /* \"#utility.yul\":4616:4670   */\n      and\n        /* \"#utility.yul\":4605:4670   */\n      swap1\n      pop\n        /* \"#utility.yul\":4550:4676   */\n      swap2\n      swap1\n      pop\n      jump\t// out\n        /* \"#utility.yul\":4682:4778   */\n    tag_109:\n        /* \"#utility.yul\":4719:4726   */\n      0x00\n        /* \"#utility.yul\":4748:4772   */\n      tag_194\n        /* \"#utility.yul\":4766:4771   */\n      dup3\n        /* \"#utility.yul\":4748:4772   */\n      tag_108\n      jump\t// in\n    tag_194:\n        /* \"#utility.yul\":4737:4772   */\n      swap1\n      pop\n        /* \"#utility.yul\":4682:4778   */\n      swap2\n      swap1\n      pop\n      jump\t// out\n        /* \"#utility.yul\":4784:4902   */\n    tag_110:\n        /* \"#utility.yul\":4871:4895   */\n      tag_196\n        /* \"#utility.yul\":4889:4894   */\n      dup2\n        /* \"#utility.yul\":4871:4895   */\n      tag_109\n      jump\t// in\n    tag_196:\n        /* \"#utility.yul\":4866:4869   */\n      dup3\n        /* \"#utility.yul\":4859:4896   */\n      mstore\n        /* \"#utility.yul\":4784:4902   */\n      pop\n      pop\n      jump\t// out\n        /* \"#utility.yul\":4908:6043   */\n    tag_20:\n        /* \"#utility.yul\":5217:5221   */\n      0x00\n        /* \"#utility.yul\":5255:5258   */\n      0xe0\n        /* \"#utility.yul\":5244:5253   */\n      dup3\n        /* \"#utility.yul\":5240:5259   */\n      add\n        /* \"#utility.yul\":5232:5259   */\n      swap1\n      pop\n        /* \"#utility.yul\":5269:5340   */\n      tag_198\n        /* \"#utility.yul\":5337:5338   */\n      0x00\n        /* \"#utility.yul\":5326:5335   */\n      dup4\n        /* \"#utility.yul\":5322:5339   */\n      add\n        /* \"#utility.yul\":5313:5319   */\n      dup11\n        /* \"#utility.yul\":5269:5340   */\n      tag_100\n      jump\t// in\n    tag_198:\n        /* \"#utility.yul\":5350:5416   */\n      tag_199\n        /* \"#utility.yul\":5412:5414   */\n      0x20\n        /* \"#utility.yul\":5401:5410   */\n      dup4\n        /* \"#utility.yul\":5397:5415   */\n      add\n        /* \"#utility.yul\":5388:5394   */\n      dup10\n        /* \"#utility.yul\":5350:5416   */\n      tag_102\n      jump\t// in\n    tag_199:\n        /* \"#utility.yul\":5426:5492   */\n      tag_200\n        /* \"#utility.yul\":5488:5490   */\n      0x40\n        /* \"#utility.yul\":5477:5486   */\n      dup4\n        /* \"#utility.yul\":5473:5491   */\n      add\n        /* \"#utility.yul\":5464:5470   */\n      dup9\n        /* \"#utility.yul\":5426:5492   */\n      tag_102\n      jump\t// in\n    tag_200:\n        /* \"#utility.yul\":5539:5548   */\n      dup2\n        /* \"#utility.yul\":5533:5537   */\n      dup2\n        /* \"#utility.yul\":5529:5549   */\n      sub\n        /* \"#utility.yul\":5524:5526   */\n      0x60\n        /* \"#utility.yul\":5513:5522   */\n      dup4\n        /* \"#utility.yul\":5509:5527   */\n      add\n        /* \"#utility.yul\":5502:5550   */\n      mstore\n        /* \"#utility.yul\":5567:5645   */\n      tag_201\n        /* \"#utility.yul\":5640:5644   */\n      dup2\n        /* \"#utility.yul\":5631:5637   */\n      dup8\n        /* \"#utility.yul\":5567:5645   */\n      tag_107\n      jump\t// in\n    tag_201:\n        /* \"#utility.yul\":5559:5645   */\n      swap1\n      pop\n        /* \"#utility.yul\":5655:5728   */\n      tag_202\n        /* \"#utility.yul\":5723:5726   */\n      0x80\n        /* \"#utility.yul\":5712:5721   */\n      dup4\n        /* \"#utility.yul\":5708:5727   */\n      add\n        /* \"#utility.yul\":5699:5705   */\n      dup7\n        /* \"#utility.yul\":5655:5728   */\n      tag_110\n      jump\t// in\n    tag_202:\n        /* \"#utility.yul\":5776:5785   */\n      dup2\n        /* \"#utility.yul\":5770:5774   */\n      dup2\n        /* \"#utility.yul\":5766:5786   */\n      sub\n        /* \"#utility.yul\":5760:5763   */\n      0xa0\n        /* \"#utility.yul\":5749:5758   */\n      dup4\n        /* \"#utility.yul\":5745:5764   */\n      add\n        /* \"#utility.yul\":5738:5787   */\n      mstore\n        /* \"#utility.yul\":5804:5882   */\n      tag_203\n        /* \"#utility.yul\":5877:5881   */\n      dup2\n        /* \"#utility.yul\":5868:5874   */\n      dup6\n        /* \"#utility.yul\":5804:5882   */\n      tag_107\n      jump\t// in\n    tag_203:\n        /* \"#utility.yul\":5796:5882   */\n      swap1\n      pop\n        /* \"#utility.yul\":5930:5939   */\n      dup2\n        /* \"#utility.yul\":5924:5928   */\n      dup2\n        /* \"#utility.yul\":5920:5940   */\n      sub\n        /* \"#utility.yul\":5914:5917   */\n      0xc0\n        /* \"#utility.yul\":5903:5912   */\n      dup4\n        /* \"#utility.yul\":5899:5918   */\n      add\n        /* \"#utility.yul\":5892:5941   */\n      mstore\n        /* \"#utility.yul\":5958:6036   */\n      tag_204\n        /* \"#utility.yul\":6031:6035   */\n      dup2\n        /* \"#utility.yul\":6022:6028   */\n      dup5\n        /* \"#utility.yul\":5958:6036   */\n      tag_107\n      jump\t// in\n    tag_204:\n        /* \"#utility.yul\":5950:6036   */\n      swap1\n      pop\n        /* \"#utility.yul\":4908:6043   */\n      swap9\n      swap8\n      pop\n      pop\n      pop\n      pop\n      pop\n      pop\n      pop\n      pop\n      jump\t// out\n        /* \"#utility.yul\":6049:6166   */\n    tag_111:\n        /* \"#utility.yul\":6158:6159   */\n      0x00\n        /* \"#utility.yul\":6155:6156   */\n      dup1\n        /* \"#utility.yul\":6148:6160   */\n      revert\n        /* \"#utility.yul\":6172:6289   */\n    tag_112:\n        /* \"#utility.yul\":6281:6282   */\n      0x00\n        /* \"#utility.yul\":6278:6279   */\n      dup1\n        /* \"#utility.yul\":6271:6283   */\n      revert\n        /* \"#utility.yul\":6295:6475   */\n    tag_113:\n        /* \"#utility.yul\":6343:6420   */\n      0x4e487b7100000000000000000000000000000000000000000000000000000000\n        /* \"#utility.yul\":6340:6341   */\n      0x00\n        /* \"#utility.yul\":6333:6421   */\n      mstore\n        /* \"#utility.yul\":6440:6444   */\n      0x41\n        /* \"#utility.yul\":6437:6438   */\n      0x04\n        /* \"#utility.yul\":6430:6445   */\n      mstore\n        /* \"#utility.yul\":6464:6468   */\n      0x24\n        /* \"#utility.yul\":6461:6462   */\n      0x00\n        /* \"#utility.yul\":6454:6469   */\n      revert\n        /* \"#utility.yul\":6481:6762   */\n    tag_114:\n        /* \"#utility.yul\":6564:6591   */\n      tag_209\n        /* \"#utility.yul\":6586:6590   */\n      dup3\n        /* \"#utility.yul\":6564:6591   */\n      tag_106\n      jump\t// in\n    tag_209:\n        /* \"#utility.yul\":6556:6562   */\n      dup2\n        /* \"#utility.yul\":6552:6592   */\n      add\n        /* \"#utility.yul\":6694:6700   */\n      dup2\n        /* \"#utility.yul\":6682:6692   */\n      dup2\n        /* \"#utility.yul\":6679:6701   */\n      lt\n        /* \"#utility.yul\":6658:6676   */\n      0xffffffffffffffff\n        /* \"#utility.yul\":6646:6656   */\n      dup3\n        /* \"#utility.yul\":6643:6677   */\n      gt\n        /* \"#utility.yul\":6640:6702   */\n      or\n        /* \"#utility.yul\":6637:6725   */\n      iszero\n      tag_210\n      jumpi\n        /* \"#utility.yul\":6705:6723   */\n      tag_211\n      tag_113\n      jump\t// in\n    tag_211:\n        /* \"#utility.yul\":6637:6725   */\n    tag_210:\n        /* \"#utility.yul\":6745:6755   */\n      dup1\n        /* \"#utility.yul\":6741:6743   */\n      0x40\n        /* \"#utility.yul\":6734:6756   */\n      mstore\n        /* \"#utility.yul\":6524:6762   */\n      pop\n        /* \"#utility.yul\":6481:6762   */\n      pop\n      pop\n      jump\t// out\n        /* \"#utility.yul\":6768:6897   */\n    tag_115:\n        /* \"#utility.yul\":6802:6808   */\n      0x00\n        /* \"#utility.yul\":6829:6849   */\n      tag_213\n      tag_87\n      jump\t// in\n    tag_213:\n        /* \"#utility.yul\":6819:6849   */\n      swap1\n      pop\n        /* \"#utility.yul\":6858:6891   */\n      tag_214\n        /* \"#utility.yul\":6886:6890   */\n      dup3\n        /* \"#utility.yul\":6878:6884   */\n      dup3\n        /* \"#utility.yul\":6858:6891   */\n      tag_114\n      jump\t// in\n    tag_214:\n        /* \"#utility.yul\":6768:6897   */\n      swap2\n      swap1\n      pop\n      jump\t// out\n        /* \"#utility.yul\":6903:7211   */\n    tag_116:\n        /* \"#utility.yul\":6965:6969   */\n      0x00\n        /* \"#utility.yul\":7055:7073   */\n      0xffffffffffffffff\n        /* \"#utility.yul\":7047:7053   */\n      dup3\n        /* \"#utility.yul\":7044:7074   */\n      gt\n        /* \"#utility.yul\":7041:7097   */\n      iszero\n      tag_216\n      jumpi\n        /* \"#utility.yul\":7077:7095   */\n      tag_217\n      tag_113\n      jump\t// in\n    tag_217:\n        /* \"#utility.yul\":7041:7097   */\n    tag_216:\n        /* \"#utility.yul\":7115:7144   */\n      tag_218\n        /* \"#utility.yul\":7137:7143   */\n      dup3\n        /* \"#utility.yul\":7115:7144   */\n      tag_106\n      jump\t// in\n    tag_218:\n        /* \"#utility.yul\":7107:7144   */\n      swap1\n      pop\n        /* \"#utility.yul\":7199:7203   */\n      0x20\n        /* \"#utility.yul\":7193:7197   */\n      dup2\n        /* \"#utility.yul\":7189:7204   */\n      add\n        /* \"#utility.yul\":7181:7204   */\n      swap1\n      pop\n        /* \"#utility.yul\":6903:7211   */\n      swap2\n      swap1\n      pop\n      jump\t// out\n        /* \"#utility.yul\":7217:7365   */\n    tag_117:\n        /* \"#utility.yul\":7315:7321   */\n      dup3\n        /* \"#utility.yul\":7310:7313   */\n      dup2\n        /* \"#utility.yul\":7305:7308   */\n      dup4\n        /* \"#utility.yul\":7292:7322   */\n      calldatacopy\n        /* \"#utility.yul\":7356:7357   */\n      0x00\n        /* \"#utility.yul\":7347:7353   */\n      dup4\n        /* \"#utility.yul\":7342:7345   */\n      dup4\n        /* \"#utility.yul\":7338:7354   */\n      add\n        /* \"#utility.yul\":7331:7358   */\n      mstore\n        /* \"#utility.yul\":7217:7365   */\n      pop\n      pop\n      pop\n      jump\t// out\n        /* \"#utility.yul\":7371:7796   */\n    tag_118:\n        /* \"#utility.yul\":7449:7454   */\n      0x00\n        /* \"#utility.yul\":7474:7540   */\n      tag_221\n        /* \"#utility.yul\":7490:7539   */\n      tag_222\n        /* \"#utility.yul\":7532:7538   */\n      dup5\n        /* \"#utility.yul\":7490:7539   */\n      tag_116\n      jump\t// in\n    tag_222:\n        /* \"#utility.yul\":7474:7540   */\n      tag_115\n      jump\t// in\n    tag_221:\n        /* \"#utility.yul\":7465:7540   */\n      swap1\n      pop\n        /* \"#utility.yul\":7563:7569   */\n      dup3\n        /* \"#utility.yul\":7556:7561   */\n      dup2\n        /* \"#utility.yul\":7549:7570   */\n      mstore\n        /* \"#utility.yul\":7601:7605   */\n      0x20\n        /* \"#utility.yul\":7594:7599   */\n      dup2\n        /* \"#utility.yul\":7590:7606   */\n      add\n        /* \"#utility.yul\":7639:7642   */\n      dup5\n        /* \"#utility.yul\":7630:7636   */\n      dup5\n        /* \"#utility.yul\":7625:7628   */\n      dup5\n        /* \"#utility.yul\":7621:7637   */\n      add\n        /* \"#utility.yul\":7618:7643   */\n      gt\n        /* \"#utility.yul\":7615:7727   */\n      iszero\n      tag_223\n      jumpi\n        /* \"#utility.yul\":7646:7725   */\n      tag_224\n      tag_112\n      jump\t// in\n    tag_224:\n        /* \"#utility.yul\":7615:7727   */\n    tag_223:\n        /* \"#utility.yul\":7736:7790   */\n      tag_225\n        /* \"#utility.yul\":7783:7789   */\n      dup5\n        /* \"#utility.yul\":7778:7781   */\n      dup3\n        /* \"#utility.yul\":7773:7776   */\n      dup6\n        /* \"#utility.yul\":7736:7790   */\n      tag_117\n      jump\t// in\n    tag_225:\n        /* \"#utility.yul\":7455:7796   */\n      pop\n        /* \"#utility.yul\":7371:7796   */\n      swap4\n      swap3\n      pop\n      pop\n      pop\n      jump\t// out\n        /* \"#utility.yul\":7816:8156   */\n    tag_119:\n        /* \"#utility.yul\":7872:7877   */\n      0x00\n        /* \"#utility.yul\":7921:7924   */\n      dup3\n        /* \"#utility.yul\":7914:7918   */\n      0x1f\n        /* \"#utility.yul\":7906:7912   */\n      dup4\n        /* \"#utility.yul\":7902:7919   */\n      add\n        /* \"#utility.yul\":7898:7925   */\n      slt\n        /* \"#utility.yul\":7888:8010   */\n      tag_227\n      jumpi\n        /* \"#utility.yul\":7929:8008   */\n      tag_228\n      tag_111\n      jump\t// in\n    tag_228:\n        /* \"#utility.yul\":7888:8010   */\n    tag_227:\n        /* \"#utility.yul\":8046:8052   */\n      dup2\n        /* \"#utility.yul\":8033:8053   */\n      calldataload\n        /* \"#utility.yul\":8071:8150   */\n      tag_229\n        /* \"#utility.yul\":8146:8149   */\n      dup5\n        /* \"#utility.yul\":8138:8144   */\n      dup3\n        /* \"#utility.yul\":8131:8135   */\n      0x20\n        /* \"#utility.yul\":8123:8129   */\n      dup7\n        /* \"#utility.yul\":8119:8136   */\n      add\n        /* \"#utility.yul\":8071:8150   */\n      tag_118\n      jump\t// in\n    tag_229:\n        /* \"#utility.yul\":8062:8150   */\n      swap2\n      pop\n        /* \"#utility.yul\":7878:8156   */\n      pop\n        /* \"#utility.yul\":7816:8156   */\n      swap3\n      swap2\n      pop\n      pop\n      jump\t// out\n        /* \"#utility.yul\":8162:8278   */\n    tag_120:\n        /* \"#utility.yul\":8232:8253   */\n      tag_231\n        /* \"#utility.yul\":8247:8252   */\n      dup2\n        /* \"#utility.yul\":8232:8253   */\n      tag_101\n      jump\t// in\n    tag_231:\n        /* \"#utility.yul\":8225:8230   */\n      dup2\n        /* \"#utility.yul\":8222:8254   */\n      eq\n        /* \"#utility.yul\":8212:8272   */\n      tag_232\n      jumpi\n        /* \"#utility.yul\":8268:8269   */\n      0x00\n        /* \"#utility.yul\":8265:8266   */\n      dup1\n        /* \"#utility.yul\":8258:8270   */\n      revert\n        /* \"#utility.yul\":8212:8272   */\n    tag_232:\n        /* \"#utility.yul\":8162:8278   */\n      pop\n      jump\t// out\n        /* \"#utility.yul\":8284:8417   */\n    tag_121:\n        /* \"#utility.yul\":8327:8332   */\n      0x00\n        /* \"#utility.yul\":8365:8371   */\n      dup2\n        /* \"#utility.yul\":8352:8372   */\n      calldataload\n        /* \"#utility.yul\":8343:8372   */\n      swap1\n      pop\n        /* \"#utility.yul\":8381:8411   */\n      tag_234\n        /* \"#utility.yul\":8405:8410   */\n      dup2\n        /* \"#utility.yul\":8381:8411   */\n      tag_120\n      jump\t// in\n    tag_234:\n        /* \"#utility.yul\":8284:8417   */\n      swap3\n      swap2\n      pop\n      pop\n      jump\t// out\n        /* \"#utility.yul\":8423:10014   */\n    tag_24:\n        /* \"#utility.yul\":8554:8560   */\n      0x00\n        /* \"#utility.yul\":8562:8568   */\n      dup1\n        /* \"#utility.yul\":8570:8576   */\n      0x00\n        /* \"#utility.yul\":8578:8584   */\n      dup1\n        /* \"#utility.yul\":8586:8592   */\n      0x00\n        /* \"#utility.yul\":8594:8600   */\n      dup1\n        /* \"#utility.yul\":8643:8646   */\n      0xc0\n        /* \"#utility.yul\":8631:8640   */\n      dup8\n        /* \"#utility.yul\":8622:8629   */\n      dup10\n        /* \"#utility.yul\":8618:8641   */\n      sub\n        /* \"#utility.yul\":8614:8647   */\n      slt\n        /* \"#utility.yul\":8611:8731   */\n      iszero\n      tag_236\n      jumpi\n        /* \"#utility.yul\":8650:8729   */\n      tag_237\n      tag_88\n      jump\t// in\n    tag_237:\n        /* \"#utility.yul\":8611:8731   */\n    tag_236:\n        /* \"#utility.yul\":8770:8771   */\n      0x00\n        /* \"#utility.yul\":8795:8848   */\n      tag_238\n        /* \"#utility.yul\":8840:8847   */\n      dup10\n        /* \"#utility.yul\":8831:8837   */\n      dup3\n        /* \"#utility.yul\":8820:8829   */\n      dup11\n        /* \"#utility.yul\":8816:8838   */\n      add\n        /* \"#utility.yul\":8795:8848   */\n      tag_92\n      jump\t// in\n    tag_238:\n        /* \"#utility.yul\":8785:8848   */\n      swap7\n      pop\n        /* \"#utility.yul\":8741:8858   */\n      pop\n        /* \"#utility.yul\":8897:8899   */\n      0x20\n        /* \"#utility.yul\":8923:8976   */\n      tag_239\n        /* \"#utility.yul\":8968:8975   */\n      dup10\n        /* \"#utility.yul\":8959:8965   */\n      dup3\n        /* \"#utility.yul\":8948:8957   */\n      dup11\n        /* \"#utility.yul\":8944:8966   */\n      add\n        /* \"#utility.yul\":8923:8976   */\n      tag_92\n      jump\t// in\n    tag_239:\n        /* \"#utility.yul\":8913:8976   */\n      swap6\n      pop\n        /* \"#utility.yul\":8868:8986   */\n      pop\n        /* \"#utility.yul\":9053:9055   */\n      0x40\n        /* \"#utility.yul\":9042:9051   */\n      dup8\n        /* \"#utility.yul\":9038:9056   */\n      add\n        /* \"#utility.yul\":9025:9057   */\n      calldataload\n        /* \"#utility.yul\":9084:9102   */\n      0xffffffffffffffff\n        /* \"#utility.yul\":9076:9082   */\n      dup2\n        /* \"#utility.yul\":9073:9103   */\n      gt\n        /* \"#utility.yul\":9070:9187   */\n      iszero\n      tag_240\n      jumpi\n        /* \"#utility.yul\":9106:9185   */\n      tag_241\n      tag_89\n      jump\t// in\n    tag_241:\n        /* \"#utility.yul\":9070:9187   */\n    tag_240:\n        /* \"#utility.yul\":9211:9274   */\n      tag_242\n        /* \"#utility.yul\":9266:9273   */\n      dup10\n        /* \"#utility.yul\":9257:9263   */\n      dup3\n        /* \"#utility.yul\":9246:9255   */\n      dup11\n        /* \"#utility.yul\":9242:9264   */\n      add\n        /* \"#utility.yul\":9211:9274   */\n      tag_119\n      jump\t// in\n    tag_242:\n        /* \"#utility.yul\":9201:9274   */\n      swap5\n      pop\n        /* \"#utility.yul\":8996:9284   */\n      pop\n        /* \"#utility.yul\":9351:9353   */\n      0x60\n        /* \"#utility.yul\":9340:9349   */\n      dup8\n        /* \"#utility.yul\":9336:9354   */\n      add\n        /* \"#utility.yul\":9323:9355   */\n      calldataload\n        /* \"#utility.yul\":9382:9400   */\n      0xffffffffffffffff\n        /* \"#utility.yul\":9374:9380   */\n      dup2\n        /* \"#utility.yul\":9371:9401   */\n      gt\n        /* \"#utility.yul\":9368:9485   */\n      iszero\n      tag_243\n      jumpi\n        /* \"#utility.yul\":9404:9483   */\n      tag_244\n      tag_89\n      jump\t// in\n    tag_244:\n        /* \"#utility.yul\":9368:9485   */\n    tag_243:\n        /* \"#utility.yul\":9509:9572   */\n      tag_245\n        /* \"#utility.yul\":9564:9571   */\n      dup10\n        /* \"#utility.yul\":9555:9561   */\n      dup3\n        /* \"#utility.yul\":9544:9553   */\n      dup11\n        /* \"#utility.yul\":9540:9562   */\n      add\n        /* \"#utility.yul\":9509:9572   */\n      tag_119\n      jump\t// in\n    tag_245:\n        /* \"#utility.yul\":9499:9572   */\n      swap4\n      pop\n        /* \"#utility.yul\":9294:9582   */\n      pop\n        /* \"#utility.yul\":9649:9652   */\n      0x80\n        /* \"#utility.yul\":9638:9647   */\n      dup8\n        /* \"#utility.yul\":9634:9653   */\n      add\n        /* \"#utility.yul\":9621:9654   */\n      calldataload\n        /* \"#utility.yul\":9681:9699   */\n      0xffffffffffffffff\n        /* \"#utility.yul\":9673:9679   */\n      dup2\n        /* \"#utility.yul\":9670:9700   */\n      gt\n        /* \"#utility.yul\":9667:9784   */\n      iszero\n      tag_246\n      jumpi\n        /* \"#utility.yul\":9703:9782   */\n      tag_247\n      tag_89\n      jump\t// in\n    tag_247:\n        /* \"#utility.yul\":9667:9784   */\n    tag_246:\n        /* \"#utility.yul\":9808:9871   */\n      tag_248\n        /* \"#utility.yul\":9863:9870   */\n      dup10\n        /* \"#utility.yul\":9854:9860   */\n      dup3\n        /* \"#utility.yul\":9843:9852   */\n      dup11\n        /* \"#utility.yul\":9839:9861   */\n      add\n        /* \"#utility.yul\":9808:9871   */\n      tag_119\n      jump\t// in\n    tag_248:\n        /* \"#utility.yul\":9798:9871   */\n      swap3\n      pop\n        /* \"#utility.yul\":9592:9881   */\n      pop\n        /* \"#utility.yul\":9920:9923   */\n      0xa0\n        /* \"#utility.yul\":9947:9997   */\n      tag_249\n        /* \"#utility.yul\":9989:9996   */\n      dup10\n        /* \"#utility.yul\":9980:9986   */\n      dup3\n        /* \"#utility.yul\":9969:9978   */\n      dup11\n        /* \"#utility.yul\":9965:9987   */\n      add\n        /* \"#utility.yul\":9947:9997   */\n      tag_121\n      jump\t// in\n    tag_249:\n        /* \"#utility.yul\":9937:9997   */\n      swap2\n      pop\n        /* \"#utility.yul\":9891:10007   */\n      pop\n        /* \"#utility.yul\":8423:10014   */\n      swap3\n      swap6\n      pop\n      swap3\n      swap6\n      pop\n      swap3\n      swap6\n      jump\t// out\n        /* \"#utility.yul\":10020:10200   */\n    tag_122:\n        /* \"#utility.yul\":10160:10192   */\n      0x746869732070726f7065727479206973206e6f7420617661696c61626c650000\n        /* \"#utility.yul\":10156:10157   */\n      0x00\n        /* \"#utility.yul\":10148:10154   */\n      dup3\n        /* \"#utility.yul\":10144:10158   */\n      add\n        /* \"#utility.yul\":10137:10193   */\n      mstore\n        /* \"#utility.yul\":10020:10200   */\n      pop\n      jump\t// out\n        /* \"#utility.yul\":10206:10572   */\n    tag_123:\n        /* \"#utility.yul\":10348:10351   */\n      0x00\n        /* \"#utility.yul\":10369:10436   */\n      tag_252\n        /* \"#utility.yul\":10433:10435   */\n      0x1e\n        /* \"#utility.yul\":10428:10431   */\n      dup4\n        /* \"#utility.yul\":10369:10436   */\n      tag_104\n      jump\t// in\n    tag_252:\n        /* \"#utility.yul\":10362:10436   */\n      swap2\n      pop\n        /* \"#utility.yul\":10445:10538   */\n      tag_253\n        /* \"#utility.yul\":10534:10537   */\n      dup3\n        /* \"#utility.yul\":10445:10538   */\n      tag_122\n      jump\t// in\n    tag_253:\n        /* \"#utility.yul\":10563:10565   */\n      0x20\n        /* \"#utility.yul\":10558:10561   */\n      dup3\n        /* \"#utility.yul\":10554:10566   */\n      add\n        /* \"#utility.yul\":10547:10566   */\n      swap1\n      pop\n        /* \"#utility.yul\":10206:10572   */\n      swap2\n      swap1\n      pop\n      jump\t// out\n        /* \"#utility.yul\":10578:10997   */\n    tag_29:\n        /* \"#utility.yul\":10744:10748   */\n      0x00\n        /* \"#utility.yul\":10782:10784   */\n      0x20\n        /* \"#utility.yul\":10771:10780   */\n      dup3\n        /* \"#utility.yul\":10767:10785   */\n      add\n        /* \"#utility.yul\":10759:10785   */\n      swap1\n      pop\n        /* \"#utility.yul\":10831:10840   */\n      dup2\n        /* \"#utility.yul\":10825:10829   */\n      dup2\n        /* \"#utility.yul\":10821:10841   */\n      sub\n        /* \"#utility.yul\":10817:10818   */\n      0x00\n        /* \"#utility.yul\":10806:10815   */\n      dup4\n        /* \"#utility.yul\":10802:10819   */\n      add\n        /* \"#utility.yul\":10795:10842   */\n      mstore\n        /* \"#utility.yul\":10859:10990   */\n      tag_255\n        /* \"#utility.yul\":10985:10989   */\n      dup2\n        /* \"#utility.yul\":10859:10990   */\n      tag_123\n      jump\t// in\n    tag_255:\n        /* \"#utility.yul\":10851:10990   */\n      swap1\n      pop\n        /* \"#utility.yul\":10578:10997   */\n      swap2\n      swap1\n      pop\n      jump\t// out\n        /* \"#utility.yul\":11003:11171   */\n    tag_124:\n        /* \"#utility.yul\":11143:11163   */\n      0x496e73756666696369616e742066756e64730000000000000000000000000000\n        /* \"#utility.yul\":11139:11140   */\n      0x00\n        /* \"#utility.yul\":11131:11137   */\n      dup3\n        /* \"#utility.yul\":11127:11141   */\n      add\n        /* \"#utility.yul\":11120:11164   */\n      mstore\n        /* \"#utility.yul\":11003:11171   */\n      pop\n      jump\t// out\n        /* \"#utility.yul\":11177:11543   */\n    tag_125:\n        /* \"#utility.yul\":11319:11322   */\n      0x00\n        /* \"#utility.yul\":11340:11407   */\n      tag_258\n        /* \"#utility.yul\":11404:11406   */\n      0x12\n        /* \"#utility.yul\":11399:11402   */\n      dup4\n        /* \"#utility.yul\":11340:11407   */\n      tag_104\n      jump\t// in\n    tag_258:\n        /* \"#utility.yul\":11333:11407   */\n      swap2\n      pop\n        /* \"#utility.yul\":11416:11509   */\n      tag_259\n        /* \"#utility.yul\":11505:11508   */\n      dup3\n        /* \"#utility.yul\":11416:11509   */\n      tag_124\n      jump\t// in\n    tag_259:\n        /* \"#utility.yul\":11534:11536   */\n      0x20\n        /* \"#utility.yul\":11529:11532   */\n      dup3\n        /* \"#utility.yul\":11525:11537   */\n      add\n        /* \"#utility.yul\":11518:11537   */\n      swap1\n      pop\n        /* \"#utility.yul\":11177:11543   */\n      swap2\n      swap1\n      pop\n      jump\t// out\n        /* \"#utility.yul\":11549:11968   */\n    tag_32:\n        /* \"#utility.yul\":11715:11719   */\n      0x00\n        /* \"#utility.yul\":11753:11755   */\n      0x20\n        /* \"#utility.yul\":11742:11751   */\n      dup3\n        /* \"#utility.yul\":11738:11756   */\n      add\n        /* \"#utility.yul\":11730:11756   */\n      swap1\n      pop\n        /* \"#utility.yul\":11802:11811   */\n      dup2\n        /* \"#utility.yul\":11796:11800   */\n      dup2\n        /* \"#utility.yul\":11792:11812   */\n      sub\n        /* \"#utility.yul\":11788:11789   */\n      0x00\n        /* \"#utility.yul\":11777:11786   */\n      dup4\n        /* \"#utility.yul\":11773:11790   */\n      add\n        /* \"#utility.yul\":11766:11813   */\n      mstore\n        /* \"#utility.yul\":11830:11961   */\n      tag_261\n        /* \"#utility.yul\":11956:11960   */\n      dup2\n        /* \"#utility.yul\":11830:11961   */\n      tag_125\n      jump\t// in\n    tag_261:\n        /* \"#utility.yul\":11822:11961   */\n      swap1\n      pop\n        /* \"#utility.yul\":11549:11968   */\n      swap2\n      swap1\n      pop\n      jump\t// out\n        /* \"#utility.yul\":11974:12196   */\n    tag_36:\n        /* \"#utility.yul\":12067:12071   */\n      0x00\n        /* \"#utility.yul\":12105:12107   */\n      0x20\n        /* \"#utility.yul\":12094:12103   */\n      dup3\n        /* \"#utility.yul\":12090:12108   */\n      add\n        /* \"#utility.yul\":12082:12108   */\n      swap1\n      pop\n        /* \"#utility.yul\":12118:12189   */\n      tag_263\n        /* \"#utility.yul\":12186:12187   */\n      0x00\n        /* \"#utility.yul\":12175:12184   */\n      dup4\n        /* \"#utility.yul\":12171:12188   */\n      add\n        /* \"#utility.yul\":12162:12168   */\n      dup5\n        /* \"#utility.yul\":12118:12189   */\n      tag_100\n      jump\t// in\n    tag_263:\n        /* \"#utility.yul\":11974:12196   */\n      swap3\n      swap2\n      pop\n      pop\n      jump\t// out\n        /* \"#utility.yul\":12202:12382   */\n    tag_126:\n        /* \"#utility.yul\":12250:12327   */\n      0x4e487b7100000000000000000000000000000000000000000000000000000000\n        /* \"#utility.yul\":12247:12248   */\n      0x00\n        /* \"#utility.yul\":12240:12328   */\n      mstore\n        /* \"#utility.yul\":12347:12351   */\n      0x22\n        /* \"#utility.yul\":12344:12345   */\n      0x04\n        /* \"#utility.yul\":12337:12352   */\n      mstore\n        /* \"#utility.yul\":12371:12375   */\n      0x24\n        /* \"#utility.yul\":12368:12369   */\n      0x00\n        /* \"#utility.yul\":12361:12376   */\n      revert\n        /* \"#utility.yul\":12388:12708   */\n    tag_43:\n        /* \"#utility.yul\":12432:12438   */\n      0x00\n        /* \"#utility.yul\":12469:12470   */\n      0x02\n        /* \"#utility.yul\":12463:12467   */\n      dup3\n        /* \"#utility.yul\":12459:12471   */\n      div\n        /* \"#utility.yul\":12449:12471   */\n      swap1\n      pop\n        /* \"#utility.yul\":12516:12517   */\n      0x01\n        /* \"#utility.yul\":12510:12514   */\n      dup3\n        /* \"#utility.yul\":12506:12518   */\n      and\n        /* \"#utility.yul\":12537:12555   */\n      dup1\n        /* \"#utility.yul\":12527:12608   */\n      tag_266\n      jumpi\n        /* \"#utility.yul\":12593:12597   */\n      0x7f\n        /* \"#utility.yul\":12585:12591   */\n      dup3\n        /* \"#utility.yul\":12581:12598   */\n      and\n        /* \"#utility.yul\":12571:12598   */\n      swap2\n      pop\n        /* \"#utility.yul\":12527:12608   */\n    tag_266:\n        /* \"#utility.yul\":12655:12657   */\n      0x20\n        /* \"#utility.yul\":12647:12653   */\n      dup3\n        /* \"#utility.yul\":12644:12658   */\n      lt\n        /* \"#utility.yul\":12624:12642   */\n      dup2\n        /* \"#utility.yul\":12621:12659   */\n      sub\n        /* \"#utility.yul\":12618:12702   */\n      tag_267\n      jumpi\n        /* \"#utility.yul\":12674:12692   */\n      tag_268\n      tag_126\n      jump\t// in\n    tag_268:\n        /* \"#utility.yul\":12618:12702   */\n    tag_267:\n        /* \"#utility.yul\":12439:12708   */\n      pop\n        /* \"#utility.yul\":12388:12708   */\n      swap2\n      swap1\n      pop\n      jump\t// out\n        /* \"#utility.yul\":12714:12855   */\n    tag_127:\n        /* \"#utility.yul\":12763:12767   */\n      0x00\n        /* \"#utility.yul\":12786:12789   */\n      dup2\n        /* \"#utility.yul\":12778:12789   */\n      swap1\n      pop\n        /* \"#utility.yul\":12809:12812   */\n      dup2\n        /* \"#utility.yul\":12806:12807   */\n      0x00\n        /* \"#utility.yul\":12799:12813   */\n      mstore\n        /* \"#utility.yul\":12843:12847   */\n      0x20\n        /* \"#utility.yul\":12840:12841   */\n      0x00\n        /* \"#utility.yul\":12830:12848   */\n      keccak256\n        /* \"#utility.yul\":12822:12848   */\n      swap1\n      pop\n        /* \"#utility.yul\":12714:12855   */\n      swap2\n      swap1\n      pop\n      jump\t// out\n        /* \"#utility.yul\":12861:12954   */\n    tag_128:\n        /* \"#utility.yul\":12898:12904   */\n      0x00\n        /* \"#utility.yul\":12945:12947   */\n      0x20\n        /* \"#utility.yul\":12940:12942   */\n      0x1f\n        /* \"#utility.yul\":12933:12938   */\n      dup4\n        /* \"#utility.yul\":12929:12943   */\n      add\n        /* \"#utility.yul\":12925:12948   */\n      div\n        /* \"#utility.yul\":12915:12948   */\n      swap1\n      pop\n        /* \"#utility.yul\":12861:12954   */\n      swap2\n      swap1\n      pop\n      jump\t// out\n        /* \"#utility.yul\":12960:13067   */\n    tag_129:\n        /* \"#utility.yul\":13004:13012   */\n      0x00\n        /* \"#utility.yul\":13054:13059   */\n      dup3\n        /* \"#utility.yul\":13048:13052   */\n      dup3\n        /* \"#utility.yul\":13044:13060   */\n      shl\n        /* \"#utility.yul\":13023:13060   */\n      swap1\n      pop\n        /* \"#utility.yul\":12960:13067   */\n      swap3\n      swap2\n      pop\n      pop\n      jump\t// out\n        /* \"#utility.yul\":13073:13466   */\n    tag_130:\n        /* \"#utility.yul\":13142:13148   */\n      0x00\n        /* \"#utility.yul\":13192:13193   */\n      0x08\n        /* \"#utility.yul\":13180:13190   */\n      dup4\n        /* \"#utility.yul\":13176:13194   */\n      mul\n        /* \"#utility.yul\":13215:13312   */\n      tag_273\n        /* \"#utility.yul\":13245:13311   */\n      0xffffffffffffffffffffffffffffffffffffffffffffffffffffffffffffffff\n        /* \"#utility.yul\":13234:13243   */\n      dup3\n        /* \"#utility.yul\":13215:13312   */\n      tag_129\n      jump\t// in\n    tag_273:\n        /* \"#utility.yul\":13333:13372   */\n      tag_274\n        /* \"#utility.yul\":13363:13371   */\n      dup7\n        /* \"#utility.yul\":13352:13361   */\n      dup4\n        /* \"#utility.yul\":13333:13372   */\n      tag_129\n      jump\t// in\n    tag_274:\n        /* \"#utility.yul\":13321:13372   */\n      swap6\n      pop\n        /* \"#utility.yul\":13405:13409   */\n      dup1\n        /* \"#utility.yul\":13401:13410   */\n      not\n        /* \"#utility.yul\":13394:13399   */\n      dup5\n        /* \"#utility.yul\":13390:13411   */\n      and\n        /* \"#utility.yul\":13381:13411   */\n      swap4\n      pop\n        /* \"#utility.yul\":13454:13458   */\n      dup1\n        /* \"#utility.yul\":13444:13452   */\n      dup7\n        /* \"#utility.yul\":13440:13459   */\n      and\n        /* \"#utility.yul\":13433:13438   */\n      dup5\n        /* \"#utility.yul\":13430:13460   */\n      or\n        /* \"#utility.yul\":13420:13460   */\n      swap3\n      pop\n        /* \"#utility.yul\":13149:13466   */\n      pop\n      pop\n        /* \"#utility.yul\":13073:13466   */\n      swap4\n      swap3\n      pop\n      pop\n      pop\n      jump\t// out\n        /* \"#utility.yul\":13472:13532   */\n    tag_131:\n        /* \"#utility.yul\":13500:13503   */\n      0x00\n        /* \"#utility.yul\":13521:13526   */\n      dup2\n        /* \"#utility.yul\":13514:13526   */\n      swap1\n      pop\n        /* \"#utility.yul\":13472:13532   */\n      swap2\n      swap1\n      pop\n      jump\t// out\n        /* \"#utility.yul\":13538:13680   */\n    tag_132:\n        /* \"#utility.yul\":13588:13597   */\n      0x00\n        /* \"#utility.yul\":13621:13674   */\n      tag_277\n        /* \"#utility.yul\":13639:13673   */\n      tag_278\n        /* \"#utility.yul\":13648:13672   */\n      tag_279\n        /* \"#utility.yul\":13666:13671   */\n      dup5\n        /* \"#utility.yul\":13648:13672   */\n      tag_90\n      jump\t// in\n    tag_279:\n        /* \"#utility.yul\":13639:13673   */\n      tag_131\n      jump\t// in\n    tag_278:\n        /* \"#utility.yul\":13621:13674   */\n      tag_90\n      jump\t// in\n    tag_277:\n        /* \"#utility.yul\":13608:13674   */\n      swap1\n      pop\n        /* \"#utility.yul\":13538:13680   */\n      swap2\n      swap1\n      pop\n      jump\t// out\n        /* \"#utility.yul\":13686:13761   */\n    tag_133:\n        /* \"#utility.yul\":13729:13732   */\n      0x00\n        /* \"#utility.yul\":13750:13755   */\n      dup2\n        /* \"#utility.yul\":13743:13755   */\n      swap1\n      pop\n        /* \"#utility.yul\":13686:13761   */\n      swap2\n      swap1\n      pop\n      jump\t// out\n        /* \"#utility.yul\":13767:14036   */\n    tag_134:\n        /* \"#utility.yul\":13877:13916   */\n      tag_282\n        /* \"#utility.yul\":13908:13915   */\n      dup4\n        /* \"#utility.yul\":13877:13916   */\n      tag_132\n      jump\t// in\n    tag_282:\n        /* \"#utility.yul\":13938:14029   */\n      tag_283\n        /* \"#utility.yul\":13987:14028   */\n      tag_284\n        /* \"#utility.yul\":14011:14027   */\n      dup3\n        /* \"#utility.yul\":13987:14028   */\n      tag_133\n      jump\t// in\n    tag_284:\n        /* \"#utility.yul\":13979:13985   */\n      dup5\n        /* \"#utility.yul\":13972:13976   */\n      dup5\n        /* \"#utility.yul\":13966:13977   */\n      sload\n        /* \"#utility.yul\":13938:14029   */\n      tag_130\n      jump\t// in\n    tag_283:\n        /* \"#utility.yul\":13932:13936   */\n      dup3\n        /* \"#utility.yul\":13925:14030   */\n      sstore\n        /* \"#utility.yul\":13843:14036   */\n      pop\n        /* \"#utility.yul\":13767:14036   */\n      pop\n      pop\n      pop\n      jump\t// out\n        /* \"#utility.yul\":14042:14115   */\n    tag_135:\n        /* \"#utility.yul\":14087:14090   */\n      0x00\n        /* \"#utility.yul\":14042:14115   */\n      swap1\n      jump\t// out\n        /* \"#utility.yul\":14121:14310   */\n    tag_136:\n        /* \"#utility.yul\":14198:14230   */\n      tag_287\n      tag_135\n      jump\t// in\n    tag_287:\n        /* \"#utility.yul\":14239:14304   */\n      tag_288\n        /* \"#utility.yul\":14297:14303   */\n      dup2\n        /* \"#utility.yul\":14289:14295   */\n      dup5\n        /* \"#utility.yul\":14283:14287   */\n      dup5\n        /* \"#utility.yul\":14239:14304   */\n      tag_134\n      jump\t// in\n    tag_288:\n        /* \"#utility.yul\":14174:14310   */\n      pop\n        /* \"#utility.yul\":14121:14310   */\n      pop\n      pop\n      jump\t// out\n        /* \"#utility.yul\":14316:14502   */\n    tag_137:\n        /* \"#utility.yul\":14376:14496   */\n    tag_290:\n        /* \"#utility.yul\":14393:14396   */\n      dup2\n        /* \"#utility.yul\":14386:14391   */\n      dup2\n        /* \"#utility.yul\":14383:14397   */\n      lt\n        /* \"#utility.yul\":14376:14496   */\n      iszero\n      tag_292\n      jumpi\n        /* \"#utility.yul\":14447:14486   */\n      tag_293\n        /* \"#utility.yul\":14484:14485   */\n      0x00\n        /* \"#utility.yul\":14477:14482   */\n      dup3\n        /* \"#utility.yul\":14447:14486   */\n      tag_136\n      jump\t// in\n    tag_293:\n        /* \"#utility.yul\":14420:14421   */\n      0x01\n        /* \"#utility.yul\":14413:14418   */\n      dup2\n        /* \"#utility.yul\":14409:14422   */\n      add\n        /* \"#utility.yul\":14400:14422   */\n      swap1\n      pop\n        /* \"#utility.yul\":14376:14496   */\n      jump(tag_290)\n    tag_292:\n        /* \"#utility.yul\":14316:14502   */\n      pop\n      pop\n      jump\t// out\n        /* \"#utility.yul\":14508:15051   */\n    tag_138:\n        /* \"#utility.yul\":14609:14611   */\n      0x1f\n        /* \"#utility.yul\":14604:14607   */\n      dup3\n        /* \"#utility.yul\":14601:14612   */\n      gt\n        /* \"#utility.yul\":14598:15044   */\n      iszero\n      tag_295\n      jumpi\n        /* \"#utility.yul\":14643:14681   */\n      tag_296\n        /* \"#utility.yul\":14675:14680   */\n      dup2\n        /* \"#utility.yul\":14643:14681   */\n      tag_127\n      jump\t// in\n    tag_296:\n        /* \"#utility.yul\":14727:14756   */\n      tag_297\n        /* \"#utility.yul\":14745:14755   */\n      dup5\n        /* \"#utility.yul\":14727:14756   */\n      tag_128\n      jump\t// in\n    tag_297:\n        /* \"#utility.yul\":14717:14725   */\n      dup2\n        /* \"#utility.yul\":14713:14757   */\n      add\n        /* \"#utility.yul\":14910:14912   */\n      0x20\n        /* \"#utility.yul\":14898:14908   */\n      dup6\n        /* \"#utility.yul\":14895:14913   */\n      lt\n        /* \"#utility.yul\":14892:14941   */\n      iszero\n      tag_298\n      jumpi\n        /* \"#utility.yul\":14931:14939   */\n      dup2\n        /* \"#utility.yul\":14916:14939   */\n      swap1\n      pop\n        /* \"#utility.yul\":14892:14941   */\n    tag_298:\n        /* \"#utility.yul\":14954:15034   */\n      tag_299\n        /* \"#utility.yul\":15010:15032   */\n      tag_300\n        /* \"#utility.yul\":15028:15031   */\n      dup6\n        /* \"#utility.yul\":15010:15032   */\n      tag_128\n      jump\t// in\n    tag_300:\n        /* \"#utility.yul\":15000:15008   */\n      dup4\n        /* \"#utility.yul\":14996:15033   */\n      add\n        /* \"#utility.yul\":14983:14994   */\n      dup3\n        /* \"#utility.yul\":14954:15034   */\n      tag_137\n      jump\t// in\n    tag_299:\n        /* \"#utility.yul\":14613:15044   */\n      pop\n      pop\n        /* \"#utility.yul\":14598:15044   */\n    tag_295:\n        /* \"#utility.yul\":14508:15051   */\n      pop\n      pop\n      pop\n      jump\t// out\n        /* \"#utility.yul\":15057:15174   */\n    tag_139:\n        /* \"#utility.yul\":15111:15119   */\n      0x00\n        /* \"#utility.yul\":15161:15166   */\n      dup3\n        /* \"#utility.yul\":15155:15159   */\n      dup3\n        /* \"#utility.yul\":15151:15167   */\n      shr\n        /* \"#utility.yul\":15130:15167   */\n      swap1\n      pop\n        /* \"#utility.yul\":15057:15174   */\n      swap3\n      swap2\n      pop\n      pop\n      jump\t// out\n        /* \"#utility.yul\":15180:15349   */\n    tag_140:\n        /* \"#utility.yul\":15224:15230   */\n      0x00\n        /* \"#utility.yul\":15257:15308   */\n      tag_303\n        /* \"#utility.yul\":15305:15306   */\n      0x00\n        /* \"#utility.yul\":15301:15307   */\n      not\n        /* \"#utility.yul\":15293:15298   */\n      dup5\n        /* \"#utility.yul\":15290:15291   */\n      0x08\n        /* \"#utility.yul\":15286:15299   */\n      mul\n        /* \"#utility.yul\":15257:15308   */\n      tag_139\n      jump\t// in\n    tag_303:\n        /* \"#utility.yul\":15253:15309   */\n      not\n        /* \"#utility.yul\":15338:15342   */\n      dup1\n        /* \"#utility.yul\":15332:15336   */\n      dup4\n        /* \"#utility.yul\":15328:15343   */\n      and\n        /* \"#utility.yul\":15318:15343   */\n      swap2\n      pop\n        /* \"#utility.yul\":15231:15349   */\n      pop\n        /* \"#utility.yul\":15180:15349   */\n      swap3\n      swap2\n      pop\n      pop\n      jump\t// out\n        /* \"#utility.yul\":15354:15649   */\n    tag_141:\n        /* \"#utility.yul\":15430:15434   */\n      0x00\n        /* \"#utility.yul\":15576:15605   */\n      tag_305\n        /* \"#utility.yul\":15601:15604   */\n      dup4\n        /* \"#utility.yul\":15595:15599   */\n      dup4\n        /* \"#utility.yul\":15576:15605   */\n      tag_140\n      jump\t// in\n    tag_305:\n        /* \"#utility.yul\":15568:15605   */\n      swap2\n      pop\n        /* \"#utility.yul\":15638:15641   */\n      dup3\n        /* \"#utility.yul\":15635:15636   */\n      0x02\n        /* \"#utility.yul\":15631:15642   */\n      mul\n        /* \"#utility.yul\":15625:15629   */\n      dup3\n        /* \"#utility.yul\":15622:15643   */\n      or\n        /* \"#utility.yul\":15614:15643   */\n      swap1\n      pop\n        /* \"#utility.yul\":15354:15649   */\n      swap3\n      swap2\n      pop\n      pop\n      jump\t// out\n        /* \"#utility.yul\":15654:17049   */\n    tag_60:\n        /* \"#utility.yul\":15771:15808   */\n      tag_307\n        /* \"#utility.yul\":15804:15807   */\n      dup3\n        /* \"#utility.yul\":15771:15808   */\n      tag_103\n      jump\t// in\n    tag_307:\n        /* \"#utility.yul\":15873:15891   */\n      0xffffffffffffffff\n        /* \"#utility.yul\":15865:15871   */\n      dup2\n        /* \"#utility.yul\":15862:15892   */\n      gt\n        /* \"#utility.yul\":15859:15915   */\n      iszero\n      tag_308\n      jumpi\n        /* \"#utility.yul\":15895:15913   */\n      tag_309\n      tag_113\n      jump\t// in\n    tag_309:\n        /* \"#utility.yul\":15859:15915   */\n    tag_308:\n        /* \"#utility.yul\":15939:15977   */\n      tag_310\n        /* \"#utility.yul\":15971:15975   */\n      dup3\n        /* \"#utility.yul\":15965:15976   */\n      sload\n        /* \"#utility.yul\":15939:15977   */\n      tag_43\n      jump\t// in\n    tag_310:\n        /* \"#utility.yul\":16024:16091   */\n      tag_311\n        /* \"#utility.yul\":16084:16090   */\n      dup3\n        /* \"#utility.yul\":16076:16082   */\n      dup3\n        /* \"#utility.yul\":16070:16074   */\n      dup6\n        /* \"#utility.yul\":16024:16091   */\n      tag_138\n      jump\t// in\n    tag_311:\n        /* \"#utility.yul\":16118:16119   */\n      0x00\n        /* \"#utility.yul\":16142:16146   */\n      0x20\n        /* \"#utility.yul\":16129:16146   */\n      swap1\n      pop\n        /* \"#utility.yul\":16174:16176   */\n      0x1f\n        /* \"#utility.yul\":16166:16172   */\n      dup4\n        /* \"#utility.yul\":16163:16177   */\n      gt\n        /* \"#utility.yul\":16191:16192   */\n      0x01\n        /* \"#utility.yul\":16186:16804   */\n      dup2\n      eq\n      tag_313\n      jumpi\n        /* \"#utility.yul\":16848:16849   */\n      0x00\n        /* \"#utility.yul\":16865:16871   */\n      dup5\n        /* \"#utility.yul\":16862:16939   */\n      iszero\n      tag_314\n      jumpi\n        /* \"#utility.yul\":16914:16923   */\n      dup3\n        /* \"#utility.yul\":16909:16912   */\n      dup8\n        /* \"#utility.yul\":16905:16924   */\n      add\n        /* \"#utility.yul\":16899:16925   */\n      mload\n        /* \"#utility.yul\":16890:16925   */\n      swap1\n      pop\n        /* \"#utility.yul\":16862:16939   */\n    tag_314:\n        /* \"#utility.yul\":16965:17032   */\n      tag_315\n        /* \"#utility.yul\":17025:17031   */\n      dup6\n        /* \"#utility.yul\":17018:17023   */\n      dup3\n        /* \"#utility.yul\":16965:17032   */\n      tag_141\n      jump\t// in\n    tag_315:\n        /* \"#utility.yul\":16959:16963   */\n      dup7\n        /* \"#utility.yul\":16952:17033   */\n      sstore\n        /* \"#utility.yul\":16821:17043   */\n      pop\n        /* \"#utility.yul\":16156:17043   */\n      jump(tag_312)\n        /* \"#utility.yul\":16186:16804   */\n    tag_313:\n        /* \"#utility.yul\":16238:16242   */\n      0x1f\n        /* \"#utility.yul\":16234:16243   */\n      not\n        /* \"#utility.yul\":16226:16232   */\n      dup5\n        /* \"#utility.yul\":16222:16244   */\n      and\n        /* \"#utility.yul\":16272:16309   */\n      tag_316\n        /* \"#utility.yul\":16304:16308   */\n      dup7\n        /* \"#utility.yul\":16272:16309   */\n      tag_127\n      jump\t// in\n    tag_316:\n        /* \"#utility.yul\":16331:16332   */\n      0x00\n        /* \"#utility.yul\":16345:16553   */\n    tag_317:\n        /* \"#utility.yul\":16359:16366   */\n      dup3\n        /* \"#utility.yul\":16356:16357   */\n      dup2\n        /* \"#utility.yul\":16353:16367   */\n      lt\n        /* \"#utility.yul\":16345:16553   */\n      iszero\n      tag_319\n      jumpi\n        /* \"#utility.yul\":16438:16447   */\n      dup5\n        /* \"#utility.yul\":16433:16436   */\n      dup10\n        /* \"#utility.yul\":16429:16448   */\n      add\n        /* \"#utility.yul\":16423:16449   */\n      mload\n        /* \"#utility.yul\":16415:16421   */\n      dup3\n        /* \"#utility.yul\":16408:16450   */\n      sstore\n        /* \"#utility.yul\":16489:16490   */\n      0x01\n        /* \"#utility.yul\":16481:16487   */\n      dup3\n        /* \"#utility.yul\":16477:16491   */\n      add\n        /* \"#utility.yul\":16467:16491   */\n      swap2\n      pop\n        /* \"#utility.yul\":16536:16538   */\n      0x20\n        /* \"#utility.yul\":16525:16534   */\n      dup6\n        /* \"#utility.yul\":16521:16539   */\n      add\n        /* \"#utility.yul\":16508:16539   */\n      swap5\n      pop\n        /* \"#utility.yul\":16382:16386   */\n      0x20\n        /* \"#utility.yul\":16379:16380   */\n      dup2\n        /* \"#utility.yul\":16375:16387   */\n      add\n        /* \"#utility.yul\":16370:16387   */\n      swap1\n      pop\n        /* \"#utility.yul\":16345:16553   */\n      jump(tag_317)\n    tag_319:\n        /* \"#utility.yul\":16581:16587   */\n      dup7\n        /* \"#utility.yul\":16572:16579   */\n      dup4\n        /* \"#utility.yul\":16569:16588   */\n      lt\n        /* \"#utility.yul\":16566:16745   */\n      iszero\n      tag_320\n      jumpi\n        /* \"#utility.yul\":16639:16648   */\n      dup5\n        /* \"#utility.yul\":16634:16637   */\n      dup10\n        /* \"#utility.yul\":16630:16649   */\n      add\n        /* \"#utility.yul\":16624:16650   */\n      mload\n        /* \"#utility.yul\":16682:16730   */\n      tag_321\n        /* \"#utility.yul\":16724:16728   */\n      0x1f\n        /* \"#utility.yul\":16716:16722   */\n      dup10\n        /* \"#utility.yul\":16712:16729   */\n      and\n        /* \"#utility.yul\":16701:16710   */\n      dup3\n        /* \"#utility.yul\":16682:16730   */\n      tag_140\n      jump\t// in\n    tag_321:\n        /* \"#utility.yul\":16674:16680   */\n      dup4\n        /* \"#utility.yul\":16667:16731   */\n      sstore\n        /* \"#utility.yul\":16589:16745   */\n      pop\n        /* \"#utility.yul\":16566:16745   */\n    tag_320:\n        /* \"#utility.yul\":16791:16792   */\n      0x01\n        /* \"#utility.yul\":16787:16788   */\n      0x02\n        /* \"#utility.yul\":16779:16785   */\n      dup9\n        /* \"#utility.yul\":16775:16789   */\n      mul\n        /* \"#utility.yul\":16771:16793   */\n      add\n        /* \"#utility.yul\":16765:16769   */\n      dup9\n        /* \"#utility.yul\":16758:16794   */\n      sstore\n        /* \"#utility.yul\":16193:16804   */\n      pop\n      pop\n      pop\n        /* \"#utility.yul\":16156:17043   */\n    tag_312:\n      pop\n        /* \"#utility.yul\":15746:17049   */\n      pop\n      pop\n      pop\n        /* \"#utility.yul\":15654:17049   */\n      pop\n      pop\n      jump\t// out\n        /* \"#utility.yul\":17055:17222   */\n    tag_142:\n        /* \"#utility.yul\":17195:17214   */\n      0x494420616c726561647920657869737473000000000000000000000000000000\n        /* \"#utility.yul\":17191:17192   */\n      0x00\n        /* \"#utility.yul\":17183:17189   */\n      dup3\n        /* \"#utility.yul\":17179:17193   */\n      add\n        /* \"#utility.yul\":17172:17215   */\n      mstore\n        /* \"#utility.yul\":17055:17222   */\n      pop\n      jump\t// out\n        /* \"#utility.yul\":17228:17594   */\n    tag_143:\n        /* \"#utility.yul\":17370:17373   */\n      0x00\n        /* \"#utility.yul\":17391:17458   */\n      tag_324\n        /* \"#utility.yul\":17455:17457   */\n      0x11\n        /* \"#utility.yul\":17450:17453   */\n      dup4\n        /* \"#utility.yul\":17391:17458   */\n      tag_104\n      jump\t// in\n    tag_324:\n        /* \"#utility.yul\":17384:17458   */\n      swap2\n      pop\n        /* \"#utility.yul\":17467:17560   */\n      tag_325\n        /* \"#utility.yul\":17556:17559   */\n      dup3\n        /* \"#utility.yul\":17467:17560   */\n      tag_142\n      jump\t// in\n    tag_325:\n        /* \"#utility.yul\":17585:17587   */\n      0x20\n        /* \"#utility.yul\":17580:17583   */\n      dup3\n        /* \"#utility.yul\":17576:17588   */\n      add\n        /* \"#utility.yul\":17569:17588   */\n      swap1\n      pop\n        /* \"#utility.yul\":17228:17594   */\n      swap2\n      swap1\n      pop\n      jump\t// out\n        /* \"#utility.yul\":17600:18019   */\n    tag_69:\n        /* \"#utility.yul\":17766:17770   */\n      0x00\n        /* \"#utility.yul\":17804:17806   */\n      0x20\n        /* \"#utility.yul\":17793:17802   */\n      dup3\n        /* \"#utility.yul\":17789:17807   */\n      add\n        /* \"#utility.yul\":17781:17807   */\n      swap1\n      pop\n        /* \"#utility.yul\":17853:17862   */\n      dup2\n        /* \"#utility.yul\":17847:17851   */\n      dup2\n        /* \"#utility.yul\":17843:17863   */\n      sub\n        /* \"#utility.yul\":17839:17840   */\n      0x00\n        /* \"#utility.yul\":17828:17837   */\n      dup4\n        /* \"#utility.yul\":17824:17841   */\n      add\n        /* \"#utility.yul\":17817:17864   */\n      mstore\n        /* \"#utility.yul\":17881:18012   */\n      tag_327\n        /* \"#utility.yul\":18007:18011   */\n      dup2\n        /* \"#utility.yul\":17881:18012   */\n      tag_143\n      jump\t// in\n    tag_327:\n        /* \"#utility.yul\":17873:18012   */\n      swap1\n      pop\n        /* \"#utility.yul\":17600:18019   */\n      swap2\n      swap1\n      pop\n      jump\t// out\n        /* \"#utility.yul\":18025:18205   */\n    tag_85:\n        /* \"#utility.yul\":18073:18150   */\n      0x4e487b7100000000000000000000000000000000000000000000000000000000\n        /* \"#utility.yul\":18070:18071   */\n      0x00\n        /* \"#utility.yul\":18063:18151   */\n      mstore\n        /* \"#utility.yul\":18170:18174   */\n      0x32\n        /* \"#utility.yul\":18167:18168   */\n      0x04\n        /* \"#utility.yul\":18160:18175   */\n      mstore\n        /* \"#utility.yul\":18194:18198   */\n      0x24\n        /* \"#utility.yul\":18191:18192   */\n      0x00\n        /* \"#utility.yul\":18184:18199   */\n      revert\n\n    auxdata: 0xa26469706673582212206f63e50db9126bdd8e94902b7b411f683f0a925665cd859a143675aa071c1b2b64736f6c634300081a0033\n}\n",
				"bytecode": {
					"linkReferences": {},
					"object": "6080604052348015600e575f80fd5b506112318061001c5f395ff3fe60806040526004361061003e575f3560e01c80636fa830a614610042578063849a290f1461005e5780639d11688414610089578063bf883743146100cb575b5f80fd5b61005c60048036038101906100579190610910565b6100f3565b005b348015610069575f80fd5b5061007261029e565b6040516100809291906109f2565b60405180910390f35b348015610094575f80fd5b506100af60048036038101906100aa9190610910565b610347565b6040516100c29796959493929190610aff565b60405180910390f35b3480156100d6575f80fd5b506100f160048036038101906100ec9190610cd7565b61054e565b005b5f805f8381526020019081526020015f209050806001015f9054906101000a900460ff16610156576040517f08c379a000000000000000000000000000000000000000000000000000000000815260040161014d90610dfe565b60405180910390fd5b34815f0154101561019c576040517f08c379a000000000000000000000000000000000000000000000000000000000815260040161019390610e66565b60405180910390fd5b806003015f9054906101000a900473ffffffffffffffffffffffffffffffffffffffff1673ffffffffffffffffffffffffffffffffffffffff166108fc825f015490811502906040515f60405180830381858888f19350505050158015610205573d5f803e3d5ffd5b5033816003015f6101000a81548173ffffffffffffffffffffffffffffffffffffffff021916908373ffffffffffffffffffffffffffffffffffffffff1602179055505f816001015f6101000a81548160ff0219169083151502179055507fca00b0637134f6563551ffb097ffc572f30140029b94a4a1e7ef423b475a894f826040516102929190610e84565b60405180910390a15050565b60608060018054806020026020016040519081016040528092919081815260200182805480156102eb57602002820191905f5260205f20905b8154815260200190600101908083116102d7575b50505050509150600280548060200260200160405190810160405280929190818152602001828054801561033c57602002820191905f5260205f20905b815481526020019060010190808311610328575b505050505090509091565b5f602052805f5260405f205f91509050805f015490806001015f9054906101000a900460ff16908060010160019054906101000a900460ff169080600201805461039090610eca565b80601f01602080910402602001604051908101604052809291908181526020018280546103bc90610eca565b80156104075780601f106103de57610100808354040283529160200191610407565b820191905f5260205f20905b8154815290600101906020018083116103ea57829003601f168201915b505050505090806003015f9054906101000a900473ffffffffffffffffffffffffffffffffffffffff169080600401805461044190610eca565b80601f016020809104026020016040519081016040528092919081815260200182805461046d90610eca565b80156104b85780601f1061048f576101008083540402835291602001916104b8565b820191905f5260205f20905b81548152906001019060200180831161049b57829003601f168201915b5050505050908060050180546104cd90610eca565b80601f01602080910402602001604051908101604052809291908181526020018280546104f990610eca565b80156105445780601f1061051b57610100808354040283529160200191610544565b820191905f5260205f20905b81548152906001019060200180831161052757829003601f168201915b5050505050905087565b5f6040518060e0016040528087815260200160011515815260200183151581526020018681526020013373ffffffffffffffffffffffffffffffffffffffff168152602001858152602001848152509050805f808981526020019081526020015f205f820151815f01556020820151816001015f6101000a81548160ff02191690831515021790555060408201518160010160016101000a81548160ff021916908315150217905550606082015181600201908161060c9190611097565b506080820151816003015f6101000a81548173ffffffffffffffffffffffffffffffffffffffff021916908373ffffffffffffffffffffffffffffffffffffffff16021790555060a08201518160040190816106689190611097565b5060c082015181600501908161067e9190611097565b509050507fffffffffffffffffffffffffffffffffffffffffffffffffffffffffffffffff6106fb60018054806020026020016040519081016040528092919081815260200182805480156106f057602002820191905f5260205f20905b8154815260200190600101908083116106dc575b50505050508961085b565b1461073b576040517f08c379a0000000000000000000000000000000000000000000000000000000008152600401610732906111b0565b60405180910390fd5b7fffffffffffffffffffffffffffffffffffffffffffffffffffffffffffffffff6107b460028054806020026020016040519081016040528092919081815260200182805480156107a957602002820191905f5260205f20905b815481526020019060010190808311610795575b50505050508961085b565b146107f4576040517f08c379a00000000000000000000000000000000000000000000000000000000081526004016107eb906111b0565b60405180910390fd5b600115158215150361082b57600187908060018154018082558091505060019003905f5260205f20015f9091909190915055610852565b600287908060018154018082558091505060019003905f5260205f20015f90919091909150555b50505050505050565b5f805f90505b83518110156108a1578284828151811061087e5761087d6111ce565b5b60200260200101510361089457809150506108c6565b8080600101915050610861565b507fffffffffffffffffffffffffffffffffffffffffffffffffffffffffffffffff90505b92915050565b5f604051905090565b5f80fd5b5f80fd5b5f819050919050565b6108ef816108dd565b81146108f9575f80fd5b50565b5f8135905061090a816108e6565b92915050565b5f60208284031215610925576109246108d5565b5b5f610932848285016108fc565b91505092915050565b5f81519050919050565b5f82825260208201905092915050565b5f819050602082019050919050565b61096d816108dd565b82525050565b5f61097e8383610964565b60208301905092915050565b5f602082019050919050565b5f6109a08261093b565b6109aa8185610945565b93506109b583610955565b805f5b838110156109e55781516109cc8882610973565b97506109d78361098a565b9250506001810190506109b8565b5085935050505092915050565b5f6040820190508181035f830152610a0a8185610996565b90508181036020830152610a1e8184610996565b90509392505050565b610a30816108dd565b82525050565b5f8115159050919050565b610a4a81610a36565b82525050565b5f81519050919050565b5f82825260208201905092915050565b8281835e5f83830152505050565b5f601f19601f8301169050919050565b5f610a9282610a50565b610a9c8185610a5a565b9350610aac818560208601610a6a565b610ab581610a78565b840191505092915050565b5f73ffffffffffffffffffffffffffffffffffffffff82169050919050565b5f610ae982610ac0565b9050919050565b610af981610adf565b82525050565b5f60e082019050610b125f83018a610a27565b610b1f6020830189610a41565b610b2c6040830188610a41565b8181036060830152610b3e8187610a88565b9050610b4d6080830186610af0565b81810360a0830152610b5f8185610a88565b905081810360c0830152610b738184610a88565b905098975050505050505050565b5f80fd5b5f80fd5b7f4e487b71000000000000000000000000000000000000000000000000000000005f52604160045260245ffd5b610bbf82610a78565b810181811067ffffffffffffffff82111715610bde57610bdd610b89565b5b80604052505050565b5f610bf06108cc565b9050610bfc8282610bb6565b919050565b5f67ffffffffffffffff821115610c1b57610c1a610b89565b5b610c2482610a78565b9050602081019050919050565b828183375f83830152505050565b5f610c51610c4c84610c01565b610be7565b905082815260208101848484011115610c6d57610c6c610b85565b5b610c78848285610c31565b509392505050565b5f82601f830112610c9457610c93610b81565b5b8135610ca4848260208601610c3f565b91505092915050565b610cb681610a36565b8114610cc0575f80fd5b50565b5f81359050610cd181610cad565b92915050565b5f805f805f8060c08789031215610cf157610cf06108d5565b5b5f610cfe89828a016108fc565b9650506020610d0f89828a016108fc565b955050604087013567ffffffffffffffff811115610d3057610d2f6108d9565b5b610d3c89828a01610c80565b945050606087013567ffffffffffffffff811115610d5d57610d5c6108d9565b5b610d6989828a01610c80565b935050608087013567ffffffffffffffff811115610d8a57610d896108d9565b5b610d9689828a01610c80565b92505060a0610da789828a01610cc3565b9150509295509295509295565b7f746869732070726f7065727479206973206e6f7420617661696c61626c6500005f82015250565b5f610de8601e83610a5a565b9150610df382610db4565b602082019050919050565b5f6020820190508181035f830152610e1581610ddc565b9050919050565b7f496e73756666696369616e742066756e647300000000000000000000000000005f82015250565b5f610e50601283610a5a565b9150610e5b82610e1c565b602082019050919050565b5f6020820190508181035f830152610e7d81610e44565b9050919050565b5f602082019050610e975f830184610a27565b92915050565b7f4e487b71000000000000000000000000000000000000000000000000000000005f52602260045260245ffd5b5f6002820490506001821680610ee157607f821691505b602082108103610ef457610ef3610e9d565b5b50919050565b5f819050815f5260205f209050919050565b5f6020601f8301049050919050565b5f82821b905092915050565b5f60088302610f567fffffffffffffffffffffffffffffffffffffffffffffffffffffffffffffffff82610f1b565b610f608683610f1b565b95508019841693508086168417925050509392505050565b5f819050919050565b5f610f9b610f96610f91846108dd565b610f78565b6108dd565b9050919050565b5f819050919050565b610fb483610f81565b610fc8610fc082610fa2565b848454610f27565b825550505050565b5f90565b610fdc610fd0565b610fe7818484610fab565b505050565b5b8181101561100a57610fff5f82610fd4565b600181019050610fed565b5050565b601f82111561104f5761102081610efa565b61102984610f0c565b81016020851015611038578190505b61104c61104485610f0c565b830182610fec565b50505b505050565b5f82821c905092915050565b5f61106f5f1984600802611054565b1980831691505092915050565b5f6110878383611060565b9150826002028217905092915050565b6110a082610a50565b67ffffffffffffffff8111156110b9576110b8610b89565b5b6110c38254610eca565b6110ce82828561100e565b5f60209050601f8311600181146110ff575f84156110ed578287015190505b6110f7858261107c565b86555061115e565b601f19841661110d86610efa565b5f5b828110156111345784890151825560018201915060208501945060208101905061110f565b86831015611151578489015161114d601f891682611060565b8355505b6001600288020188555050505b505050505050565b7f494420616c7265616479206578697374730000000000000000000000000000005f82015250565b5f61119a601183610a5a565b91506111a582611166565b602082019050919050565b5f6020820190508181035f8301526111c78161118e565b9050919050565b7f4e487b71000000000000000000000000000000000000000000000000000000005f52603260045260245ffdfea26469706673582212206f63e50db9126bdd8e94902b7b411f683f0a925665cd859a143675aa071c1b2b64736f6c634300081a0033",
					"opcodes": "PUSH1 0x80 PUSH1 0x40 MSTORE CALLVALUE DUP1 ISZERO PUSH1 0xE JUMPI PUSH0 DUP1 REVERT JUMPDEST POP PUSH2 0x1231 DUP1 PUSH2 0x1C PUSH0 CODECOPY PUSH0 RETURN INVALID PUSH1 0x80 PUSH1 0x40 MSTORE PUSH1 0x4 CALLDATASIZE LT PUSH2 0x3E JUMPI PUSH0 CALLDATALOAD PUSH1 0xE0 SHR DUP1 PUSH4 0x6FA830A6 EQ PUSH2 0x42 JUMPI DUP1 PUSH4 0x849A290F EQ PUSH2 0x5E JUMPI DUP1 PUSH4 0x9D116884 EQ PUSH2 0x89 JUMPI DUP1 PUSH4 0xBF883743 EQ PUSH2 0xCB JUMPI JUMPDEST PUSH0 DUP1 REVERT JUMPDEST PUSH2 0x5C PUSH1 0x4 DUP1 CALLDATASIZE SUB DUP2 ADD SWAP1 PUSH2 0x57 SWAP2 SWAP1 PUSH2 0x910 JUMP JUMPDEST PUSH2 0xF3 JUMP JUMPDEST STOP JUMPDEST CALLVALUE DUP1 ISZERO PUSH2 0x69 JUMPI PUSH0 DUP1 REVERT JUMPDEST POP PUSH2 0x72 PUSH2 0x29E JUMP JUMPDEST PUSH1 0x40 MLOAD PUSH2 0x80 SWAP3 SWAP2 SWAP1 PUSH2 0x9F2 JUMP JUMPDEST PUSH1 0x40 MLOAD DUP1 SWAP2 SUB SWAP1 RETURN JUMPDEST CALLVALUE DUP1 ISZERO PUSH2 0x94 JUMPI PUSH0 DUP1 REVERT JUMPDEST POP PUSH2 0xAF PUSH1 0x4 DUP1 CALLDATASIZE SUB DUP2 ADD SWAP1 PUSH2 0xAA SWAP2 SWAP1 PUSH2 0x910 JUMP JUMPDEST PUSH2 0x347 JUMP JUMPDEST PUSH1 0x40 MLOAD PUSH2 0xC2 SWAP8 SWAP7 SWAP6 SWAP5 SWAP4 SWAP3 SWAP2 SWAP1 PUSH2 0xAFF JUMP JUMPDEST PUSH1 0x40 MLOAD DUP1 SWAP2 SUB SWAP1 RETURN JUMPDEST CALLVALUE DUP1 ISZERO PUSH2 0xD6 JUMPI PUSH0 DUP1 REVERT JUMPDEST POP PUSH2 0xF1 PUSH1 0x4 DUP1 CALLDATASIZE SUB DUP2 ADD SWAP1 PUSH2 0xEC SWAP2 SWAP1 PUSH2 0xCD7 JUMP JUMPDEST PUSH2 0x54E JUMP JUMPDEST STOP JUMPDEST PUSH0 DUP1 PUSH0 DUP4 DUP2 MSTORE PUSH1 0x20 ADD SWAP1 DUP2 MSTORE PUSH1 0x20 ADD PUSH0 KECCAK256 SWAP1 POP DUP1 PUSH1 0x1 ADD PUSH0 SWAP1 SLOAD SWAP1 PUSH2 0x100 EXP SWAP1 DIV PUSH1 0xFF AND PUSH2 0x156 JUMPI PUSH1 0x40 MLOAD PUSH32 0x8C379A000000000000000000000000000000000000000000000000000000000 DUP2 MSTORE PUSH1 0x4 ADD PUSH2 0x14D SWAP1 PUSH2 0xDFE JUMP JUMPDEST PUSH1 0x40 MLOAD DUP1 SWAP2 SUB SWAP1 REVERT JUMPDEST CALLVALUE DUP2 PUSH0 ADD SLOAD LT ISZERO PUSH2 0x19C JUMPI PUSH1 0x40 MLOAD PUSH32 0x8C379A000000000000000000000000000000000000000000000000000000000 DUP2 MSTORE PUSH1 0x4 ADD PUSH2 0x193 SWAP1 PUSH2 0xE66 JUMP JUMPDEST PUSH1 0x40 MLOAD DUP1 SWAP2 SUB SWAP1 REVERT JUMPDEST DUP1 PUSH1 0x3 ADD PUSH0 SWAP1 SLOAD SWAP1 PUSH2 0x100 EXP SWAP1 DIV PUSH20 0xFFFFFFFFFFFFFFFFFFFFFFFFFFFFFFFFFFFFFFFF AND PUSH20 0xFFFFFFFFFFFFFFFFFFFFFFFFFFFFFFFFFFFFFFFF AND PUSH2 0x8FC DUP3 PUSH0 ADD SLOAD SWAP1 DUP2 ISZERO MUL SWAP1 PUSH1 0x40 MLOAD PUSH0 PUSH1 0x40 MLOAD DUP1 DUP4 SUB DUP2 DUP6 DUP9 DUP9 CALL SWAP4 POP POP POP POP ISZERO DUP1 ISZERO PUSH2 0x205 JUMPI RETURNDATASIZE PUSH0 DUP1 RETURNDATACOPY RETURNDATASIZE PUSH0 REVERT JUMPDEST POP CALLER DUP2 PUSH1 0x3 ADD PUSH0 PUSH2 0x100 EXP DUP2 SLOAD DUP2 PUSH20 0xFFFFFFFFFFFFFFFFFFFFFFFFFFFFFFFFFFFFFFFF MUL NOT AND SWAP1 DUP4 PUSH20 0xFFFFFFFFFFFFFFFFFFFFFFFFFFFFFFFFFFFFFFFF AND MUL OR SWAP1 SSTORE POP PUSH0 DUP2 PUSH1 0x1 ADD PUSH0 PUSH2 0x100 EXP DUP2 SLOAD DUP2 PUSH1 0xFF MUL NOT AND SWAP1 DUP4 ISZERO ISZERO MUL OR SWAP1 SSTORE POP PUSH32 0xCA00B0637134F6563551FFB097FFC572F30140029B94A4A1E7EF423B475A894F DUP3 PUSH1 0x40 MLOAD PUSH2 0x292 SWAP2 SWAP1 PUSH2 0xE84 JUMP JUMPDEST PUSH1 0x40 MLOAD DUP1 SWAP2 SUB SWAP1 LOG1 POP POP JUMP JUMPDEST PUSH1 0x60 DUP1 PUSH1 0x1 DUP1 SLOAD DUP1 PUSH1 0x20 MUL PUSH1 0x20 ADD PUSH1 0x40 MLOAD SWAP1 DUP2 ADD PUSH1 0x40 MSTORE DUP1 SWAP3 SWAP2 SWAP1 DUP2 DUP2 MSTORE PUSH1 0x20 ADD DUP3 DUP1 SLOAD DUP1 ISZERO PUSH2 0x2EB JUMPI PUSH1 0x20 MUL DUP3 ADD SWAP2 SWAP1 PUSH0 MSTORE PUSH1 0x20 PUSH0 KECCAK256 SWAP1 JUMPDEST DUP2 SLOAD DUP2 MSTORE PUSH1 0x20 ADD SWAP1 PUSH1 0x1 ADD SWAP1 DUP1 DUP4 GT PUSH2 0x2D7 JUMPI JUMPDEST POP POP POP POP POP SWAP2 POP PUSH1 0x2 DUP1 SLOAD DUP1 PUSH1 0x20 MUL PUSH1 0x20 ADD PUSH1 0x40 MLOAD SWAP1 DUP2 ADD PUSH1 0x40 MSTORE DUP1 SWAP3 SWAP2 SWAP1 DUP2 DUP2 MSTORE PUSH1 0x20 ADD DUP3 DUP1 SLOAD DUP1 ISZERO PUSH2 0x33C JUMPI PUSH1 0x20 MUL DUP3 ADD SWAP2 SWAP1 PUSH0 MSTORE PUSH1 0x20 PUSH0 KECCAK256 SWAP1 JUMPDEST DUP2 SLOAD DUP2 MSTORE PUSH1 0x20 ADD SWAP1 PUSH1 0x1 ADD SWAP1 DUP1 DUP4 GT PUSH2 0x328 JUMPI JUMPDEST POP POP POP POP POP SWAP1 POP SWAP1 SWAP2 JUMP JUMPDEST PUSH0 PUSH1 0x20 MSTORE DUP1 PUSH0 MSTORE PUSH1 0x40 PUSH0 KECCAK256 PUSH0 SWAP2 POP SWAP1 POP DUP1 PUSH0 ADD SLOAD SWAP1 DUP1 PUSH1 0x1 ADD PUSH0 SWAP1 SLOAD SWAP1 PUSH2 0x100 EXP SWAP1 DIV PUSH1 0xFF AND SWAP1 DUP1 PUSH1 0x1 ADD PUSH1 0x1 SWAP1 SLOAD SWAP1 PUSH2 0x100 EXP SWAP1 DIV PUSH1 0xFF AND SWAP1 DUP1 PUSH1 0x2 ADD DUP1 SLOAD PUSH2 0x390 SWAP1 PUSH2 0xECA JUMP JUMPDEST DUP1 PUSH1 0x1F ADD PUSH1 0x20 DUP1 SWAP2 DIV MUL PUSH1 0x20 ADD PUSH1 0x40 MLOAD SWAP1 DUP2 ADD PUSH1 0x40 MSTORE DUP1 SWAP3 SWAP2 SWAP1 DUP2 DUP2 MSTORE PUSH1 0x20 ADD DUP3 DUP1 SLOAD PUSH2 0x3BC SWAP1 PUSH2 0xECA JUMP JUMPDEST DUP1 ISZERO PUSH2 0x407 JUMPI DUP1 PUSH1 0x1F LT PUSH2 0x3DE JUMPI PUSH2 0x100 DUP1 DUP4 SLOAD DIV MUL DUP4 MSTORE SWAP2 PUSH1 0x20 ADD SWAP2 PUSH2 0x407 JUMP JUMPDEST DUP3 ADD SWAP2 SWAP1 PUSH0 MSTORE PUSH1 0x20 PUSH0 KECCAK256 SWAP1 JUMPDEST DUP2 SLOAD DUP2 MSTORE SWAP1 PUSH1 0x1 ADD SWAP1 PUSH1 0x20 ADD DUP1 DUP4 GT PUSH2 0x3EA JUMPI DUP3 SWAP1 SUB PUSH1 0x1F AND DUP3 ADD SWAP2 JUMPDEST POP POP POP POP POP SWAP1 DUP1 PUSH1 0x3 ADD PUSH0 SWAP1 SLOAD SWAP1 PUSH2 0x100 EXP SWAP1 DIV PUSH20 0xFFFFFFFFFFFFFFFFFFFFFFFFFFFFFFFFFFFFFFFF AND SWAP1 DUP1 PUSH1 0x4 ADD DUP1 SLOAD PUSH2 0x441 SWAP1 PUSH2 0xECA JUMP JUMPDEST DUP1 PUSH1 0x1F ADD PUSH1 0x20 DUP1 SWAP2 DIV MUL PUSH1 0x20 ADD PUSH1 0x40 MLOAD SWAP1 DUP2 ADD PUSH1 0x40 MSTORE DUP1 SWAP3 SWAP2 SWAP1 DUP2 DUP2 MSTORE PUSH1 0x20 ADD DUP3 DUP1 SLOAD PUSH2 0x46D SWAP1 PUSH2 0xECA JUMP JUMPDEST DUP1 ISZERO PUSH2 0x4B8 JUMPI DUP1 PUSH1 0x1F LT PUSH2 0x48F JUMPI PUSH2 0x100 DUP1 DUP4 SLOAD DIV MUL DUP4 MSTORE SWAP2 PUSH1 0x20 ADD SWAP2 PUSH2 0x4B8 JUMP JUMPDEST DUP3 ADD SWAP2 SWAP1 PUSH0 MSTORE PUSH1 0x20 PUSH0 KECCAK256 SWAP1 JUMPDEST DUP2 SLOAD DUP2 MSTORE SWAP1 PUSH1 0x1 ADD SWAP1 PUSH1 0x20 ADD DUP1 DUP4 GT PUSH2 0x49B JUMPI DUP3 SWAP1 SUB PUSH1 0x1F AND DUP3 ADD SWAP2 JUMPDEST POP POP POP POP POP SWAP1 DUP1 PUSH1 0x5 ADD DUP1 SLOAD PUSH2 0x4CD SWAP1 PUSH2 0xECA JUMP JUMPDEST DUP1 PUSH1 0x1F ADD PUSH1 0x20 DUP1 SWAP2 DIV MUL PUSH1 0x20 ADD PUSH1 0x40 MLOAD SWAP1 DUP2 ADD PUSH1 0x40 MSTORE DUP1 SWAP3 SWAP2 SWAP1 DUP2 DUP2 MSTORE PUSH1 0x20 ADD DUP3 DUP1 SLOAD PUSH2 0x4F9 SWAP1 PUSH2 0xECA JUMP JUMPDEST DUP1 ISZERO PUSH2 0x544 JUMPI DUP1 PUSH1 0x1F LT PUSH2 0x51B JUMPI PUSH2 0x100 DUP1 DUP4 SLOAD DIV MUL DUP4 MSTORE SWAP2 PUSH1 0x20 ADD SWAP2 PUSH2 0x544 JUMP JUMPDEST DUP3 ADD SWAP2 SWAP1 PUSH0 MSTORE PUSH1 0x20 PUSH0 KECCAK256 SWAP1 JUMPDEST DUP2 SLOAD DUP2 MSTORE SWAP1 PUSH1 0x1 ADD SWAP1 PUSH1 0x20 ADD DUP1 DUP4 GT PUSH2 0x527 JUMPI DUP3 SWAP1 SUB PUSH1 0x1F AND DUP3 ADD SWAP2 JUMPDEST POP POP POP POP POP SWAP1 POP DUP8 JUMP JUMPDEST PUSH0 PUSH1 0x40 MLOAD DUP1 PUSH1 0xE0 ADD PUSH1 0x40 MSTORE DUP1 DUP8 DUP2 MSTORE PUSH1 0x20 ADD PUSH1 0x1 ISZERO ISZERO DUP2 MSTORE PUSH1 0x20 ADD DUP4 ISZERO ISZERO DUP2 MSTORE PUSH1 0x20 ADD DUP7 DUP2 MSTORE PUSH1 0x20 ADD CALLER PUSH20 0xFFFFFFFFFFFFFFFFFFFFFFFFFFFFFFFFFFFFFFFF AND DUP2 MSTORE PUSH1 0x20 ADD DUP6 DUP2 MSTORE PUSH1 0x20 ADD DUP5 DUP2 MSTORE POP SWAP1 POP DUP1 PUSH0 DUP1 DUP10 DUP2 MSTORE PUSH1 0x20 ADD SWAP1 DUP2 MSTORE PUSH1 0x20 ADD PUSH0 KECCAK256 PUSH0 DUP3 ADD MLOAD DUP2 PUSH0 ADD SSTORE PUSH1 0x20 DUP3 ADD MLOAD DUP2 PUSH1 0x1 ADD PUSH0 PUSH2 0x100 EXP DUP2 SLOAD DUP2 PUSH1 0xFF MUL NOT AND SWAP1 DUP4 ISZERO ISZERO MUL OR SWAP1 SSTORE POP PUSH1 0x40 DUP3 ADD MLOAD DUP2 PUSH1 0x1 ADD PUSH1 0x1 PUSH2 0x100 EXP DUP2 SLOAD DUP2 PUSH1 0xFF MUL NOT AND SWAP1 DUP4 ISZERO ISZERO MUL OR SWAP1 SSTORE POP PUSH1 0x60 DUP3 ADD MLOAD DUP2 PUSH1 0x2 ADD SWAP1 DUP2 PUSH2 0x60C SWAP2 SWAP1 PUSH2 0x1097 JUMP JUMPDEST POP PUSH1 0x80 DUP3 ADD MLOAD DUP2 PUSH1 0x3 ADD PUSH0 PUSH2 0x100 EXP DUP2 SLOAD DUP2 PUSH20 0xFFFFFFFFFFFFFFFFFFFFFFFFFFFFFFFFFFFFFFFF MUL NOT AND SWAP1 DUP4 PUSH20 0xFFFFFFFFFFFFFFFFFFFFFFFFFFFFFFFFFFFFFFFF AND MUL OR SWAP1 SSTORE POP PUSH1 0xA0 DUP3 ADD MLOAD DUP2 PUSH1 0x4 ADD SWAP1 DUP2 PUSH2 0x668 SWAP2 SWAP1 PUSH2 0x1097 JUMP JUMPDEST POP PUSH1 0xC0 DUP3 ADD MLOAD DUP2 PUSH1 0x5 ADD SWAP1 DUP2 PUSH2 0x67E SWAP2 SWAP1 PUSH2 0x1097 JUMP JUMPDEST POP SWAP1 POP POP PUSH32 0xFFFFFFFFFFFFFFFFFFFFFFFFFFFFFFFFFFFFFFFFFFFFFFFFFFFFFFFFFFFFFFFF PUSH2 0x6FB PUSH1 0x1 DUP1 SLOAD DUP1 PUSH1 0x20 MUL PUSH1 0x20 ADD PUSH1 0x40 MLOAD SWAP1 DUP2 ADD PUSH1 0x40 MSTORE DUP1 SWAP3 SWAP2 SWAP1 DUP2 DUP2 MSTORE PUSH1 0x20 ADD DUP3 DUP1 SLOAD DUP1 ISZERO PUSH2 0x6F0 JUMPI PUSH1 0x20 MUL DUP3 ADD SWAP2 SWAP1 PUSH0 MSTORE PUSH1 0x20 PUSH0 KECCAK256 SWAP1 JUMPDEST DUP2 SLOAD DUP2 MSTORE PUSH1 0x20 ADD SWAP1 PUSH1 0x1 ADD SWAP1 DUP1 DUP4 GT PUSH2 0x6DC JUMPI JUMPDEST POP POP POP POP POP DUP10 PUSH2 0x85B JUMP JUMPDEST EQ PUSH2 0x73B JUMPI PUSH1 0x40 MLOAD PUSH32 0x8C379A000000000000000000000000000000000000000000000000000000000 DUP2 MSTORE PUSH1 0x4 ADD PUSH2 0x732 SWAP1 PUSH2 0x11B0 JUMP JUMPDEST PUSH1 0x40 MLOAD DUP1 SWAP2 SUB SWAP1 REVERT JUMPDEST PUSH32 0xFFFFFFFFFFFFFFFFFFFFFFFFFFFFFFFFFFFFFFFFFFFFFFFFFFFFFFFFFFFFFFFF PUSH2 0x7B4 PUSH1 0x2 DUP1 SLOAD DUP1 PUSH1 0x20 MUL PUSH1 0x20 ADD PUSH1 0x40 MLOAD SWAP1 DUP2 ADD PUSH1 0x40 MSTORE DUP1 SWAP3 SWAP2 SWAP1 DUP2 DUP2 MSTORE PUSH1 0x20 ADD DUP3 DUP1 SLOAD DUP1 ISZERO PUSH2 0x7A9 JUMPI PUSH1 0x20 MUL DUP3 ADD SWAP2 SWAP1 PUSH0 MSTORE PUSH1 0x20 PUSH0 KECCAK256 SWAP1 JUMPDEST DUP2 SLOAD DUP2 MSTORE PUSH1 0x20 ADD SWAP1 PUSH1 0x1 ADD SWAP1 DUP1 DUP4 GT PUSH2 0x795 JUMPI JUMPDEST POP POP POP POP POP DUP10 PUSH2 0x85B JUMP JUMPDEST EQ PUSH2 0x7F4 JUMPI PUSH1 0x40 MLOAD PUSH32 0x8C379A000000000000000000000000000000000000000000000000000000000 DUP2 MSTORE PUSH1 0x4 ADD PUSH2 0x7EB SWAP1 PUSH2 0x11B0 JUMP JUMPDEST PUSH1 0x40 MLOAD DUP1 SWAP2 SUB SWAP1 REVERT JUMPDEST PUSH1 0x1 ISZERO ISZERO DUP3 ISZERO ISZERO SUB PUSH2 0x82B JUMPI PUSH1 0x1 DUP8 SWAP1 DUP1 PUSH1 0x1 DUP2 SLOAD ADD DUP1 DUP3 SSTORE DUP1 SWAP2 POP POP PUSH1 0x1 SWAP1 SUB SWAP1 PUSH0 MSTORE PUSH1 0x20 PUSH0 KECCAK256 ADD PUSH0 SWAP1 SWAP2 SWAP1 SWAP2 SWAP1 SWAP2 POP SSTORE PUSH2 0x852 JUMP JUMPDEST PUSH1 0x2 DUP8 SWAP1 DUP1 PUSH1 0x1 DUP2 SLOAD ADD DUP1 DUP3 SSTORE DUP1 SWAP2 POP POP PUSH1 0x1 SWAP1 SUB SWAP1 PUSH0 MSTORE PUSH1 0x20 PUSH0 KECCAK256 ADD PUSH0 SWAP1 SWAP2 SWAP1 SWAP2 SWAP1 SWAP2 POP SSTORE JUMPDEST POP POP POP POP POP POP POP JUMP JUMPDEST PUSH0 DUP1 PUSH0 SWAP1 POP JUMPDEST DUP4 MLOAD DUP2 LT ISZERO PUSH2 0x8A1 JUMPI DUP3 DUP5 DUP3 DUP2 MLOAD DUP2 LT PUSH2 0x87E JUMPI PUSH2 0x87D PUSH2 0x11CE JUMP JUMPDEST JUMPDEST PUSH1 0x20 MUL PUSH1 0x20 ADD ADD MLOAD SUB PUSH2 0x894 JUMPI DUP1 SWAP2 POP POP PUSH2 0x8C6 JUMP JUMPDEST DUP1 DUP1 PUSH1 0x1 ADD SWAP2 POP POP PUSH2 0x861 JUMP JUMPDEST POP PUSH32 0xFFFFFFFFFFFFFFFFFFFFFFFFFFFFFFFFFFFFFFFFFFFFFFFFFFFFFFFFFFFFFFFF SWAP1 POP JUMPDEST SWAP3 SWAP2 POP POP JUMP JUMPDEST PUSH0 PUSH1 0x40 MLOAD SWAP1 POP SWAP1 JUMP JUMPDEST PUSH0 DUP1 REVERT JUMPDEST PUSH0 DUP1 REVERT JUMPDEST PUSH0 DUP2 SWAP1 POP SWAP2 SWAP1 POP JUMP JUMPDEST PUSH2 0x8EF DUP2 PUSH2 0x8DD JUMP JUMPDEST DUP2 EQ PUSH2 0x8F9 JUMPI PUSH0 DUP1 REVERT JUMPDEST POP JUMP JUMPDEST PUSH0 DUP2 CALLDATALOAD SWAP1 POP PUSH2 0x90A DUP2 PUSH2 0x8E6 JUMP JUMPDEST SWAP3 SWAP2 POP POP JUMP JUMPDEST PUSH0 PUSH1 0x20 DUP3 DUP5 SUB SLT ISZERO PUSH2 0x925 JUMPI PUSH2 0x924 PUSH2 0x8D5 JUMP JUMPDEST JUMPDEST PUSH0 PUSH2 0x932 DUP5 DUP3 DUP6 ADD PUSH2 0x8FC JUMP JUMPDEST SWAP2 POP POP SWAP3 SWAP2 POP POP JUMP JUMPDEST PUSH0 DUP2 MLOAD SWAP1 POP SWAP2 SWAP1 POP JUMP JUMPDEST PUSH0 DUP3 DUP3 MSTORE PUSH1 0x20 DUP3 ADD SWAP1 POP SWAP3 SWAP2 POP POP JUMP JUMPDEST PUSH0 DUP2 SWAP1 POP PUSH1 0x20 DUP3 ADD SWAP1 POP SWAP2 SWAP1 POP JUMP JUMPDEST PUSH2 0x96D DUP2 PUSH2 0x8DD JUMP JUMPDEST DUP3 MSTORE POP POP JUMP JUMPDEST PUSH0 PUSH2 0x97E DUP4 DUP4 PUSH2 0x964 JUMP JUMPDEST PUSH1 0x20 DUP4 ADD SWAP1 POP SWAP3 SWAP2 POP POP JUMP JUMPDEST PUSH0 PUSH1 0x20 DUP3 ADD SWAP1 POP SWAP2 SWAP1 POP JUMP JUMPDEST PUSH0 PUSH2 0x9A0 DUP3 PUSH2 0x93B JUMP JUMPDEST PUSH2 0x9AA DUP2 DUP6 PUSH2 0x945 JUMP JUMPDEST SWAP4 POP PUSH2 0x9B5 DUP4 PUSH2 0x955 JUMP JUMPDEST DUP1 PUSH0 JUMPDEST DUP4 DUP2 LT ISZERO PUSH2 0x9E5 JUMPI DUP2 MLOAD PUSH2 0x9CC DUP9 DUP3 PUSH2 0x973 JUMP JUMPDEST SWAP8 POP PUSH2 0x9D7 DUP4 PUSH2 0x98A JUMP JUMPDEST SWAP3 POP POP PUSH1 0x1 DUP2 ADD SWAP1 POP PUSH2 0x9B8 JUMP JUMPDEST POP DUP6 SWAP4 POP POP POP POP SWAP3 SWAP2 POP POP JUMP JUMPDEST PUSH0 PUSH1 0x40 DUP3 ADD SWAP1 POP DUP2 DUP2 SUB PUSH0 DUP4 ADD MSTORE PUSH2 0xA0A DUP2 DUP6 PUSH2 0x996 JUMP JUMPDEST SWAP1 POP DUP2 DUP2 SUB PUSH1 0x20 DUP4 ADD MSTORE PUSH2 0xA1E DUP2 DUP5 PUSH2 0x996 JUMP JUMPDEST SWAP1 POP SWAP4 SWAP3 POP POP POP JUMP JUMPDEST PUSH2 0xA30 DUP2 PUSH2 0x8DD JUMP JUMPDEST DUP3 MSTORE POP POP JUMP JUMPDEST PUSH0 DUP2 ISZERO ISZERO SWAP1 POP SWAP2 SWAP1 POP JUMP JUMPDEST PUSH2 0xA4A DUP2 PUSH2 0xA36 JUMP JUMPDEST DUP3 MSTORE POP POP JUMP JUMPDEST PUSH0 DUP2 MLOAD SWAP1 POP SWAP2 SWAP1 POP JUMP JUMPDEST PUSH0 DUP3 DUP3 MSTORE PUSH1 0x20 DUP3 ADD SWAP1 POP SWAP3 SWAP2 POP POP JUMP JUMPDEST DUP3 DUP2 DUP4 MCOPY PUSH0 DUP4 DUP4 ADD MSTORE POP POP POP JUMP JUMPDEST PUSH0 PUSH1 0x1F NOT PUSH1 0x1F DUP4 ADD AND SWAP1 POP SWAP2 SWAP1 POP JUMP JUMPDEST PUSH0 PUSH2 0xA92 DUP3 PUSH2 0xA50 JUMP JUMPDEST PUSH2 0xA9C DUP2 DUP6 PUSH2 0xA5A JUMP JUMPDEST SWAP4 POP PUSH2 0xAAC DUP2 DUP6 PUSH1 0x20 DUP7 ADD PUSH2 0xA6A JUMP JUMPDEST PUSH2 0xAB5 DUP2 PUSH2 0xA78 JUMP JUMPDEST DUP5 ADD SWAP2 POP POP SWAP3 SWAP2 POP POP JUMP JUMPDEST PUSH0 PUSH20 0xFFFFFFFFFFFFFFFFFFFFFFFFFFFFFFFFFFFFFFFF DUP3 AND SWAP1 POP SWAP2 SWAP1 POP JUMP JUMPDEST PUSH0 PUSH2 0xAE9 DUP3 PUSH2 0xAC0 JUMP JUMPDEST SWAP1 POP SWAP2 SWAP1 POP JUMP JUMPDEST PUSH2 0xAF9 DUP2 PUSH2 0xADF JUMP JUMPDEST DUP3 MSTORE POP POP JUMP JUMPDEST PUSH0 PUSH1 0xE0 DUP3 ADD SWAP1 POP PUSH2 0xB12 PUSH0 DUP4 ADD DUP11 PUSH2 0xA27 JUMP JUMPDEST PUSH2 0xB1F PUSH1 0x20 DUP4 ADD DUP10 PUSH2 0xA41 JUMP JUMPDEST PUSH2 0xB2C PUSH1 0x40 DUP4 ADD DUP9 PUSH2 0xA41 JUMP JUMPDEST DUP2 DUP2 SUB PUSH1 0x60 DUP4 ADD MSTORE PUSH2 0xB3E DUP2 DUP8 PUSH2 0xA88 JUMP JUMPDEST SWAP1 POP PUSH2 0xB4D PUSH1 0x80 DUP4 ADD DUP7 PUSH2 0xAF0 JUMP JUMPDEST DUP2 DUP2 SUB PUSH1 0xA0 DUP4 ADD MSTORE PUSH2 0xB5F DUP2 DUP6 PUSH2 0xA88 JUMP JUMPDEST SWAP1 POP DUP2 DUP2 SUB PUSH1 0xC0 DUP4 ADD MSTORE PUSH2 0xB73 DUP2 DUP5 PUSH2 0xA88 JUMP JUMPDEST SWAP1 POP SWAP9 SWAP8 POP POP POP POP POP POP POP POP JUMP JUMPDEST PUSH0 DUP1 REVERT JUMPDEST PUSH0 DUP1 REVERT JUMPDEST PUSH32 0x4E487B7100000000000000000000000000000000000000000000000000000000 PUSH0 MSTORE PUSH1 0x41 PUSH1 0x4 MSTORE PUSH1 0x24 PUSH0 REVERT JUMPDEST PUSH2 0xBBF DUP3 PUSH2 0xA78 JUMP JUMPDEST DUP2 ADD DUP2 DUP2 LT PUSH8 0xFFFFFFFFFFFFFFFF DUP3 GT OR ISZERO PUSH2 0xBDE JUMPI PUSH2 0xBDD PUSH2 0xB89 JUMP JUMPDEST JUMPDEST DUP1 PUSH1 0x40 MSTORE POP POP POP JUMP JUMPDEST PUSH0 PUSH2 0xBF0 PUSH2 0x8CC JUMP JUMPDEST SWAP1 POP PUSH2 0xBFC DUP3 DUP3 PUSH2 0xBB6 JUMP JUMPDEST SWAP2 SWAP1 POP JUMP JUMPDEST PUSH0 PUSH8 0xFFFFFFFFFFFFFFFF DUP3 GT ISZERO PUSH2 0xC1B JUMPI PUSH2 0xC1A PUSH2 0xB89 JUMP JUMPDEST JUMPDEST PUSH2 0xC24 DUP3 PUSH2 0xA78 JUMP JUMPDEST SWAP1 POP PUSH1 0x20 DUP2 ADD SWAP1 POP SWAP2 SWAP1 POP JUMP JUMPDEST DUP3 DUP2 DUP4 CALLDATACOPY PUSH0 DUP4 DUP4 ADD MSTORE POP POP POP JUMP JUMPDEST PUSH0 PUSH2 0xC51 PUSH2 0xC4C DUP5 PUSH2 0xC01 JUMP JUMPDEST PUSH2 0xBE7 JUMP JUMPDEST SWAP1 POP DUP3 DUP2 MSTORE PUSH1 0x20 DUP2 ADD DUP5 DUP5 DUP5 ADD GT ISZERO PUSH2 0xC6D JUMPI PUSH2 0xC6C PUSH2 0xB85 JUMP JUMPDEST JUMPDEST PUSH2 0xC78 DUP5 DUP3 DUP6 PUSH2 0xC31 JUMP JUMPDEST POP SWAP4 SWAP3 POP POP POP JUMP JUMPDEST PUSH0 DUP3 PUSH1 0x1F DUP4 ADD SLT PUSH2 0xC94 JUMPI PUSH2 0xC93 PUSH2 0xB81 JUMP JUMPDEST JUMPDEST DUP2 CALLDATALOAD PUSH2 0xCA4 DUP5 DUP3 PUSH1 0x20 DUP7 ADD PUSH2 0xC3F JUMP JUMPDEST SWAP2 POP POP SWAP3 SWAP2 POP POP JUMP JUMPDEST PUSH2 0xCB6 DUP2 PUSH2 0xA36 JUMP JUMPDEST DUP2 EQ PUSH2 0xCC0 JUMPI PUSH0 DUP1 REVERT JUMPDEST POP JUMP JUMPDEST PUSH0 DUP2 CALLDATALOAD SWAP1 POP PUSH2 0xCD1 DUP2 PUSH2 0xCAD JUMP JUMPDEST SWAP3 SWAP2 POP POP JUMP JUMPDEST PUSH0 DUP1 PUSH0 DUP1 PUSH0 DUP1 PUSH1 0xC0 DUP8 DUP10 SUB SLT ISZERO PUSH2 0xCF1 JUMPI PUSH2 0xCF0 PUSH2 0x8D5 JUMP JUMPDEST JUMPDEST PUSH0 PUSH2 0xCFE DUP10 DUP3 DUP11 ADD PUSH2 0x8FC JUMP JUMPDEST SWAP7 POP POP PUSH1 0x20 PUSH2 0xD0F DUP10 DUP3 DUP11 ADD PUSH2 0x8FC JUMP JUMPDEST SWAP6 POP POP PUSH1 0x40 DUP8 ADD CALLDATALOAD PUSH8 0xFFFFFFFFFFFFFFFF DUP2 GT ISZERO PUSH2 0xD30 JUMPI PUSH2 0xD2F PUSH2 0x8D9 JUMP JUMPDEST JUMPDEST PUSH2 0xD3C DUP10 DUP3 DUP11 ADD PUSH2 0xC80 JUMP JUMPDEST SWAP5 POP POP PUSH1 0x60 DUP8 ADD CALLDATALOAD PUSH8 0xFFFFFFFFFFFFFFFF DUP2 GT ISZERO PUSH2 0xD5D JUMPI PUSH2 0xD5C PUSH2 0x8D9 JUMP JUMPDEST JUMPDEST PUSH2 0xD69 DUP10 DUP3 DUP11 ADD PUSH2 0xC80 JUMP JUMPDEST SWAP4 POP POP PUSH1 0x80 DUP8 ADD CALLDATALOAD PUSH8 0xFFFFFFFFFFFFFFFF DUP2 GT ISZERO PUSH2 0xD8A JUMPI PUSH2 0xD89 PUSH2 0x8D9 JUMP JUMPDEST JUMPDEST PUSH2 0xD96 DUP10 DUP3 DUP11 ADD PUSH2 0xC80 JUMP JUMPDEST SWAP3 POP POP PUSH1 0xA0 PUSH2 0xDA7 DUP10 DUP3 DUP11 ADD PUSH2 0xCC3 JUMP JUMPDEST SWAP2 POP POP SWAP3 SWAP6 POP SWAP3 SWAP6 POP SWAP3 SWAP6 JUMP JUMPDEST PUSH32 0x746869732070726F7065727479206973206E6F7420617661696C61626C650000 PUSH0 DUP3 ADD MSTORE POP JUMP JUMPDEST PUSH0 PUSH2 0xDE8 PUSH1 0x1E DUP4 PUSH2 0xA5A JUMP JUMPDEST SWAP2 POP PUSH2 0xDF3 DUP3 PUSH2 0xDB4 JUMP JUMPDEST PUSH1 0x20 DUP3 ADD SWAP1 POP SWAP2 SWAP1 POP JUMP JUMPDEST PUSH0 PUSH1 0x20 DUP3 ADD SWAP1 POP DUP2 DUP2 SUB PUSH0 DUP4 ADD MSTORE PUSH2 0xE15 DUP2 PUSH2 0xDDC JUMP JUMPDEST SWAP1 POP SWAP2 SWAP1 POP JUMP JUMPDEST PUSH32 0x496E73756666696369616E742066756E64730000000000000000000000000000 PUSH0 DUP3 ADD MSTORE POP JUMP JUMPDEST PUSH0 PUSH2 0xE50 PUSH1 0x12 DUP4 PUSH2 0xA5A JUMP JUMPDEST SWAP2 POP PUSH2 0xE5B DUP3 PUSH2 0xE1C JUMP JUMPDEST PUSH1 0x20 DUP3 ADD SWAP1 POP SWAP2 SWAP1 POP JUMP JUMPDEST PUSH0 PUSH1 0x20 DUP3 ADD SWAP1 POP DUP2 DUP2 SUB PUSH0 DUP4 ADD MSTORE PUSH2 0xE7D DUP2 PUSH2 0xE44 JUMP JUMPDEST SWAP1 POP SWAP2 SWAP1 POP JUMP JUMPDEST PUSH0 PUSH1 0x20 DUP3 ADD SWAP1 POP PUSH2 0xE97 PUSH0 DUP4 ADD DUP5 PUSH2 0xA27 JUMP JUMPDEST SWAP3 SWAP2 POP POP JUMP JUMPDEST PUSH32 0x4E487B7100000000000000000000000000000000000000000000000000000000 PUSH0 MSTORE PUSH1 0x22 PUSH1 0x4 MSTORE PUSH1 0x24 PUSH0 REVERT JUMPDEST PUSH0 PUSH1 0x2 DUP3 DIV SWAP1 POP PUSH1 0x1 DUP3 AND DUP1 PUSH2 0xEE1 JUMPI PUSH1 0x7F DUP3 AND SWAP2 POP JUMPDEST PUSH1 0x20 DUP3 LT DUP2 SUB PUSH2 0xEF4 JUMPI PUSH2 0xEF3 PUSH2 0xE9D JUMP JUMPDEST JUMPDEST POP SWAP2 SWAP1 POP JUMP JUMPDEST PUSH0 DUP2 SWAP1 POP DUP2 PUSH0 MSTORE PUSH1 0x20 PUSH0 KECCAK256 SWAP1 POP SWAP2 SWAP1 POP JUMP JUMPDEST PUSH0 PUSH1 0x20 PUSH1 0x1F DUP4 ADD DIV SWAP1 POP SWAP2 SWAP1 POP JUMP JUMPDEST PUSH0 DUP3 DUP3 SHL SWAP1 POP SWAP3 SWAP2 POP POP JUMP JUMPDEST PUSH0 PUSH1 0x8 DUP4 MUL PUSH2 0xF56 PUSH32 0xFFFFFFFFFFFFFFFFFFFFFFFFFFFFFFFFFFFFFFFFFFFFFFFFFFFFFFFFFFFFFFFF DUP3 PUSH2 0xF1B JUMP JUMPDEST PUSH2 0xF60 DUP7 DUP4 PUSH2 0xF1B JUMP JUMPDEST SWAP6 POP DUP1 NOT DUP5 AND SWAP4 POP DUP1 DUP7 AND DUP5 OR SWAP3 POP POP POP SWAP4 SWAP3 POP POP POP JUMP JUMPDEST PUSH0 DUP2 SWAP1 POP SWAP2 SWAP1 POP JUMP JUMPDEST PUSH0 PUSH2 0xF9B PUSH2 0xF96 PUSH2 0xF91 DUP5 PUSH2 0x8DD JUMP JUMPDEST PUSH2 0xF78 JUMP JUMPDEST PUSH2 0x8DD JUMP JUMPDEST SWAP1 POP SWAP2 SWAP1 POP JUMP JUMPDEST PUSH0 DUP2 SWAP1 POP SWAP2 SWAP1 POP JUMP JUMPDEST PUSH2 0xFB4 DUP4 PUSH2 0xF81 JUMP JUMPDEST PUSH2 0xFC8 PUSH2 0xFC0 DUP3 PUSH2 0xFA2 JUMP JUMPDEST DUP5 DUP5 SLOAD PUSH2 0xF27 JUMP JUMPDEST DUP3 SSTORE POP POP POP POP JUMP JUMPDEST PUSH0 SWAP1 JUMP JUMPDEST PUSH2 0xFDC PUSH2 0xFD0 JUMP JUMPDEST PUSH2 0xFE7 DUP2 DUP5 DUP5 PUSH2 0xFAB JUMP JUMPDEST POP POP POP JUMP JUMPDEST JUMPDEST DUP2 DUP2 LT ISZERO PUSH2 0x100A JUMPI PUSH2 0xFFF PUSH0 DUP3 PUSH2 0xFD4 JUMP JUMPDEST PUSH1 0x1 DUP2 ADD SWAP1 POP PUSH2 0xFED JUMP JUMPDEST POP POP JUMP JUMPDEST PUSH1 0x1F DUP3 GT ISZERO PUSH2 0x104F JUMPI PUSH2 0x1020 DUP2 PUSH2 0xEFA JUMP JUMPDEST PUSH2 0x1029 DUP5 PUSH2 0xF0C JUMP JUMPDEST DUP2 ADD PUSH1 0x20 DUP6 LT ISZERO PUSH2 0x1038 JUMPI DUP2 SWAP1 POP JUMPDEST PUSH2 0x104C PUSH2 0x1044 DUP6 PUSH2 0xF0C JUMP JUMPDEST DUP4 ADD DUP3 PUSH2 0xFEC JUMP JUMPDEST POP POP JUMPDEST POP POP POP JUMP JUMPDEST PUSH0 DUP3 DUP3 SHR SWAP1 POP SWAP3 SWAP2 POP POP JUMP JUMPDEST PUSH0 PUSH2 0x106F PUSH0 NOT DUP5 PUSH1 0x8 MUL PUSH2 0x1054 JUMP JUMPDEST NOT DUP1 DUP4 AND SWAP2 POP POP SWAP3 SWAP2 POP POP JUMP JUMPDEST PUSH0 PUSH2 0x1087 DUP4 DUP4 PUSH2 0x1060 JUMP JUMPDEST SWAP2 POP DUP3 PUSH1 0x2 MUL DUP3 OR SWAP1 POP SWAP3 SWAP2 POP POP JUMP JUMPDEST PUSH2 0x10A0 DUP3 PUSH2 0xA50 JUMP JUMPDEST PUSH8 0xFFFFFFFFFFFFFFFF DUP2 GT ISZERO PUSH2 0x10B9 JUMPI PUSH2 0x10B8 PUSH2 0xB89 JUMP JUMPDEST JUMPDEST PUSH2 0x10C3 DUP3 SLOAD PUSH2 0xECA JUMP JUMPDEST PUSH2 0x10CE DUP3 DUP3 DUP6 PUSH2 0x100E JUMP JUMPDEST PUSH0 PUSH1 0x20 SWAP1 POP PUSH1 0x1F DUP4 GT PUSH1 0x1 DUP2 EQ PUSH2 0x10FF JUMPI PUSH0 DUP5 ISZERO PUSH2 0x10ED JUMPI DUP3 DUP8 ADD MLOAD SWAP1 POP JUMPDEST PUSH2 0x10F7 DUP6 DUP3 PUSH2 0x107C JUMP JUMPDEST DUP7 SSTORE POP PUSH2 0x115E JUMP JUMPDEST PUSH1 0x1F NOT DUP5 AND PUSH2 0x110D DUP7 PUSH2 0xEFA JUMP JUMPDEST PUSH0 JUMPDEST DUP3 DUP2 LT ISZERO PUSH2 0x1134 JUMPI DUP5 DUP10 ADD MLOAD DUP3 SSTORE PUSH1 0x1 DUP3 ADD SWAP2 POP PUSH1 0x20 DUP6 ADD SWAP5 POP PUSH1 0x20 DUP2 ADD SWAP1 POP PUSH2 0x110F JUMP JUMPDEST DUP7 DUP4 LT ISZERO PUSH2 0x1151 JUMPI DUP5 DUP10 ADD MLOAD PUSH2 0x114D PUSH1 0x1F DUP10 AND DUP3 PUSH2 0x1060 JUMP JUMPDEST DUP4 SSTORE POP JUMPDEST PUSH1 0x1 PUSH1 0x2 DUP9 MUL ADD DUP9 SSTORE POP POP POP JUMPDEST POP POP POP POP POP POP JUMP JUMPDEST PUSH32 0x494420616C726561647920657869737473000000000000000000000000000000 PUSH0 DUP3 ADD MSTORE POP JUMP JUMPDEST PUSH0 PUSH2 0x119A PUSH1 0x11 DUP4 PUSH2 0xA5A JUMP JUMPDEST SWAP2 POP PUSH2 0x11A5 DUP3 PUSH2 0x1166 JUMP JUMPDEST PUSH1 0x20 DUP3 ADD SWAP1 POP SWAP2 SWAP1 POP JUMP JUMPDEST PUSH0 PUSH1 0x20 DUP3 ADD SWAP1 POP DUP2 DUP2 SUB PUSH0 DUP4 ADD MSTORE PUSH2 0x11C7 DUP2 PUSH2 0x118E JUMP JUMPDEST SWAP1 POP SWAP2 SWAP1 POP JUMP JUMPDEST PUSH32 0x4E487B7100000000000000000000000000000000000000000000000000000000 PUSH0 MSTORE PUSH1 0x32 PUSH1 0x4 MSTORE PUSH1 0x24 PUSH0 REVERT INVALID LOG2 PUSH5 0x6970667358 0x22 SLT KECCAK256 PUSH16 0x63E50DB9126BDD8E94902B7B411F683F EXP SWAP3 JUMP PUSH6 0xCD859A143675 0xAA SMOD SHR SHL 0x2B PUSH5 0x736F6C6343 STOP ADDMOD BYTE STOP CALLER "
				},
				"gasEstimates": {
					"creation": {
						"codeDepositCost": "931400",
						"executionCost": "966",
						"totalCost": "932366"
					},
					"external": {
						"Properties(uint256)": "infinite",
						"buyProperty(uint256)": "infinite",
						"getPropertylistIDs()": "infinite",
						"listPropertyForSale(uint256,uint256,string,string,string,bool)": "infinite"
					},
					"internal": {
						"findIndex(uint256[] memory,uint256)": "infinite"
					}
				},
				"methodIdentifiers": {
					"Properties(uint256)": "9d116884",
					"buyProperty(uint256)": "6fa830a6",
					"getPropertylistIDs()": "849a290f",
					"listPropertyForSale(uint256,uint256,string,string,string,bool)": "bf883743"
				}
			},
			"storageLayout": {
				"storage": [
					{
						"astId": 21,
						"contract": "contracts/Realestatechan.sol:RealEstate",
						"label": "Properties",
						"offset": 0,
						"slot": "0",
						"type": "t_mapping(t_uint256,t_struct(Property)16_storage)"
					},
					{
						"astId": 24,
						"contract": "contracts/Realestatechan.sol:RealEstate",
						"label": "residentialPropertyIDs",
						"offset": 0,
						"slot": "1",
						"type": "t_array(t_uint256)dyn_storage"
					},
					{
						"astId": 27,
						"contract": "contracts/Realestatechan.sol:RealEstate",
						"label": "commercialPropertyIDs",
						"offset": 0,
						"slot": "2",
						"type": "t_array(t_uint256)dyn_storage"
					}
				],
				"types": {
					"t_address": {
						"encoding": "inplace",
						"label": "address",
						"numberOfBytes": "20"
					},
					"t_array(t_uint256)dyn_storage": {
						"base": "t_uint256",
						"encoding": "dynamic_array",
						"label": "uint256[]",
						"numberOfBytes": "32"
					},
					"t_bool": {
						"encoding": "inplace",
						"label": "bool",
						"numberOfBytes": "1"
					},
					"t_mapping(t_uint256,t_struct(Property)16_storage)": {
						"encoding": "mapping",
						"key": "t_uint256",
						"label": "mapping(uint256 => struct RealEstate.Property)",
						"numberOfBytes": "32",
						"value": "t_struct(Property)16_storage"
					},
					"t_string_storage": {
						"encoding": "bytes",
						"label": "string",
						"numberOfBytes": "32"
					},
					"t_struct(Property)16_storage": {
						"encoding": "inplace",
						"label": "struct RealEstate.Property",
						"members": [
							{
								"astId": 3,
								"contract": "contracts/Realestatechan.sol:RealEstate",
								"label": "price",
								"offset": 0,
								"slot": "0",
								"type": "t_uint256"
							},
							{
								"astId": 5,
								"contract": "contracts/Realestatechan.sol:RealEstate",
								"label": "Onsale",
								"offset": 0,
								"slot": "1",
								"type": "t_bool"
							},
							{
								"astId": 7,
								"contract": "contracts/Realestatechan.sol:RealEstate",
								"label": "isResidential",
								"offset": 1,
								"slot": "1",
								"type": "t_bool"
							},
							{
								"astId": 9,
								"contract": "contracts/Realestatechan.sol:RealEstate",
								"label": "name",
								"offset": 0,
								"slot": "2",
								"type": "t_string_storage"
							},
							{
								"astId": 11,
								"contract": "contracts/Realestatechan.sol:RealEstate",
								"label": "owner",
								"offset": 0,
								"slot": "3",
								"type": "t_address"
							},
							{
								"astId": 13,
								"contract": "contracts/Realestatechan.sol:RealEstate",
								"label": "description",
								"offset": 0,
								"slot": "4",
								"type": "t_string_storage"
							},
							{
								"astId": 15,
								"contract": "contracts/Realestatechan.sol:RealEstate",
								"label": "location",
								"offset": 0,
								"slot": "5",
								"type": "t_string_storage"
							}
						],
						"numberOfBytes": "192"
					},
					"t_uint256": {
						"encoding": "inplace",
						"label": "uint256",
						"numberOfBytes": "32"
					}
				}
			},
			"userdoc": {
				"kind": "user",
				"methods": {},
				"version": 1
			}
		}
	}
}