{
	"contracts/Abstract.sol": {
		"Call": {
			"abi": [
				{
					"inputs": [],
					"stateMutability": "nonpayable",
					"type": "constructor"
				},
				{
					"inputs": [],
					"name": "add",
					"outputs": [
						{
							"internalType": "uint256",
							"name": "",
							"type": "uint256"
						}
					],
					"stateMutability": "view",
					"type": "function"
				},
				{
					"inputs": [],
					"name": "getValues",
					"outputs": [
						{
							"internalType": "string",
							"name": "",
							"type": "string"
						},
						{
							"internalType": "uint256",
							"name": "",
							"type": "uint256"
						}
					],
					"stateMutability": "nonpayable",
					"type": "function"
				},
				{
					"inputs": [
						{
							"internalType": "string",
							"name": "_str",
							"type": "string"
						}
					],
					"name": "getstring",
					"outputs": [
						{
							"internalType": "string",
							"name": "",
							"type": "string"
						}
					],
					"stateMutability": "pure",
					"type": "function"
				},
				{
					"inputs": [
						{
							"internalType": "uint256",
							"name": "_a",
							"type": "uint256"
						},
						{
							"internalType": "uint256",
							"name": "_b",
							"type": "uint256"
						}
					],
					"name": "set",
					"outputs": [],
					"stateMutability": "nonpayable",
					"type": "function"
				}
			],
			"devdoc": {
				"kind": "dev",
				"methods": {},
				"version": 1
			},
			"evm": {
				"assembly": "    /* \"contracts/Abstract.sol\":848:1222  contract Call is derived{... */\n  mstore(0x40, 0x80)\n    /* \"contracts/Abstract.sol\":982:1031  constructor(){... */\n  callvalue\n  dup1\n  iszero\n  tag_1\n  jumpi\n  0x00\n  dup1\n  revert\ntag_1:\n  pop\n    /* \"contracts/Abstract.sol\":1010:1023  new derived() */\n  mload(0x40)\n  tag_4\n  swap1\n  tag_5\n  jump\t// in\ntag_4:\n  mload(0x40)\n  dup1\n  swap2\n  sub\n  swap1\n  0x00\n  create\n  dup1\n  iszero\n  dup1\n  iszero\n  tag_6\n  jumpi\n  returndatasize\n  0x00\n  dup1\n  returndatacopy\n  revert(0x00, returndatasize)\ntag_6:\n  pop\n    /* \"contracts/Abstract.sol\":1006:1009  abs */\n  0x02\n  0x00\n    /* \"contracts/Abstract.sol\":1006:1023  abs=new derived() */\n  0x0100\n  exp\n  dup2\n  sload\n  dup2\n  0xffffffffffffffffffffffffffffffffffffffff\n  mul\n  not\n  and\n  swap1\n  dup4\n  0xffffffffffffffffffffffffffffffffffffffff\n  and\n  mul\n  or\n  swap1\n  sstore\n  pop\n    /* \"contracts/Abstract.sol\":848:1222  contract Call is derived{... */\n  jump(tag_7)\ntag_5:\n  dataSize(sub_1)\n  dup1\n  dataOffset(sub_1)\n  dup4\n  codecopy\n  add\n  swap1\n  jump\t// out\ntag_7:\n  dataSize(sub_0)\n  dup1\n  dataOffset(sub_0)\n  0x00\n  codecopy\n  0x00\n  return\nstop\n\nsub_0: assembly {\n        /* \"contracts/Abstract.sol\":848:1222  contract Call is derived{... */\n      mstore(0x40, 0x80)\n      callvalue\n      dup1\n      iszero\n      tag_1\n      jumpi\n      0x00\n      dup1\n      revert\n    tag_1:\n      pop\n      jumpi(tag_2, lt(calldatasize, 0x04))\n      shr(0xe0, calldataload(0x00))\n      dup1\n      0x19eb4a90\n      eq\n      tag_3\n      jumpi\n      dup1\n      0x1ab06ee5\n      eq\n      tag_4\n      jumpi\n      dup1\n      0x4f2be91f\n      eq\n      tag_5\n      jumpi\n      dup1\n      0x5dcc63fb\n      eq\n      tag_6\n      jumpi\n    tag_2:\n      0x00\n      dup1\n      revert\n        /* \"contracts/Abstract.sol\":1066:1216  function getValues()public  returns (string memory,uint){... */\n    tag_3:\n      tag_7\n      tag_8\n      jump\t// in\n    tag_7:\n      mload(0x40)\n      tag_9\n      swap3\n      swap2\n      swap1\n      tag_10\n      jump\t// in\n    tag_9:\n      mload(0x40)\n      dup1\n      swap2\n      sub\n      swap1\n      return\n        /* \"contracts/Abstract.sol\":661:752  function set(uint _a, uint _b)public override {... */\n    tag_4:\n      tag_11\n      0x04\n      dup1\n      calldatasize\n      sub\n      dup2\n      add\n      swap1\n      tag_12\n      swap2\n      swap1\n      tag_13\n      jump\t// in\n    tag_12:\n      tag_14\n      jump\t// in\n    tag_11:\n      stop\n        /* \"contracts/Abstract.sol\":758:842  function add()public view override returns(uint ){... */\n    tag_5:\n      tag_15\n      tag_16\n      jump\t// in\n    tag_15:\n      mload(0x40)\n      tag_17\n      swap2\n      swap1\n      tag_18\n      jump\t// in\n    tag_17:\n      mload(0x40)\n      dup1\n      swap2\n      sub\n      swap1\n      return\n        /* \"contracts/Abstract.sol\":541:652  function getstring(string memory _str)public pure override returns(string memory){... */\n    tag_6:\n      tag_19\n      0x04\n      dup1\n      calldatasize\n      sub\n      dup2\n      add\n      swap1\n      tag_20\n      swap2\n      swap1\n      tag_21\n      jump\t// in\n    tag_20:\n      tag_22\n      jump\t// in\n    tag_19:\n      mload(0x40)\n      tag_23\n      swap2\n      swap1\n      tag_24\n      jump\t// in\n    tag_23:\n      mload(0x40)\n      dup1\n      swap2\n      sub\n      swap1\n      return\n        /* \"contracts/Abstract.sol\":1066:1216  function getValues()public  returns (string memory,uint){... */\n    tag_8:\n        /* \"contracts/Abstract.sol\":1103:1116  string memory */\n      0x60\n        /* \"contracts/Abstract.sol\":1117:1121  uint */\n      0x00\n        /* \"contracts/Abstract.sol\":1133:1136  abs */\n      0x02\n      0x00\n      swap1\n      sload\n      swap1\n      0x0100\n      exp\n      swap1\n      div\n      0xffffffffffffffffffffffffffffffffffffffff\n      and\n        /* \"contracts/Abstract.sol\":1133:1140  abs.set */\n      0xffffffffffffffffffffffffffffffffffffffff\n      and\n      0x1ab06ee5\n        /* \"contracts/Abstract.sol\":1141:1143  10 */\n      0x0a\n        /* \"contracts/Abstract.sol\":1145:1147  11 */\n      0x0b\n        /* \"contracts/Abstract.sol\":1133:1148  abs.set(10, 11) */\n      mload(0x40)\n      dup4\n      0xffffffff\n      and\n      0xe0\n      shl\n      dup2\n      mstore\n      0x04\n      add\n      tag_26\n      swap3\n      swap2\n      swap1\n      tag_27\n      jump\t// in\n    tag_26:\n      0x00\n      mload(0x40)\n      dup1\n      dup4\n      sub\n      dup2\n      0x00\n      dup8\n      dup1\n      extcodesize\n      iszero\n      dup1\n      iszero\n      tag_28\n      jumpi\n      0x00\n      dup1\n      revert\n    tag_28:\n      pop\n      gas\n      call\n      iszero\n      dup1\n      iszero\n      tag_30\n      jumpi\n      returndatasize\n      0x00\n      dup1\n      returndatacopy\n      revert(0x00, returndatasize)\n    tag_30:\n      pop\n      pop\n      pop\n      pop\n        /* \"contracts/Abstract.sol\":1167:1170  abs */\n      0x02\n      0x00\n      swap1\n      sload\n      swap1\n      0x0100\n      exp\n      swap1\n      div\n      0xffffffffffffffffffffffffffffffffffffffff\n      and\n        /* \"contracts/Abstract.sol\":1167:1180  abs.getstring */\n      0xffffffffffffffffffffffffffffffffffffffff\n      and\n      0x5dcc63fb\n        /* \"contracts/Abstract.sol\":1167:1197  abs.getstring(\"shahnilsharma\") */\n      mload(0x40)\n      dup2\n      0xffffffff\n      and\n      0xe0\n      shl\n      dup2\n      mstore\n      0x04\n      add\n      tag_31\n      swap1\n      tag_32\n      jump\t// in\n    tag_31:\n      0x00\n      mload(0x40)\n      dup1\n      dup4\n      sub\n      dup2\n      dup7\n      gas\n      staticcall\n      iszero\n      dup1\n      iszero\n      tag_34\n      jumpi\n      returndatasize\n      0x00\n      dup1\n      returndatacopy\n      revert(0x00, returndatasize)\n    tag_34:\n      pop\n      pop\n      pop\n      pop\n      mload(0x40)\n      returndatasize\n      0x00\n      dup3\n      returndatacopy\n      returndatasize\n      not(0x1f)\n      0x1f\n      dup3\n      add\n      and\n      dup3\n      add\n      dup1\n      0x40\n      mstore\n      pop\n      dup2\n      add\n      swap1\n      tag_35\n      swap2\n      swap1\n      tag_36\n      jump\t// in\n    tag_35:\n        /* \"contracts/Abstract.sol\":1198:1201  abs */\n      0x02\n      0x00\n      swap1\n      sload\n      swap1\n      0x0100\n      exp\n      swap1\n      div\n      0xffffffffffffffffffffffffffffffffffffffff\n      and\n        /* \"contracts/Abstract.sol\":1198:1205  abs.add */\n      0xffffffffffffffffffffffffffffffffffffffff\n      and\n      0x4f2be91f\n        /* \"contracts/Abstract.sol\":1198:1207  abs.add() */\n      mload(0x40)\n      dup2\n      0xffffffff\n      and\n      0xe0\n      shl\n      dup2\n      mstore\n      0x04\n      add\n      0x20\n      mload(0x40)\n      dup1\n      dup4\n      sub\n      dup2\n      0x00\n      dup8\n      gas\n      call\n      iszero\n      dup1\n      iszero\n      tag_38\n      jumpi\n      returndatasize\n      0x00\n      dup1\n      returndatacopy\n      revert(0x00, returndatasize)\n    tag_38:\n      pop\n      pop\n      pop\n      pop\n      mload(0x40)\n      returndatasize\n      not(0x1f)\n      0x1f\n      dup3\n      add\n      and\n      dup3\n      add\n      dup1\n      0x40\n      mstore\n      pop\n      dup2\n      add\n      swap1\n      tag_39\n      swap2\n      swap1\n      tag_40\n      jump\t// in\n    tag_39:\n        /* \"contracts/Abstract.sol\":1159:1208  return (abs.getstring(\"shahnilsharma\"),abs.add()) */\n      swap2\n      pop\n      swap2\n      pop\n        /* \"contracts/Abstract.sol\":1066:1216  function getValues()public  returns (string memory,uint){... */\n      swap1\n      swap2\n      jump\t// out\n        /* \"contracts/Abstract.sol\":661:752  function set(uint _a, uint _b)public override {... */\n    tag_14:\n        /* \"contracts/Abstract.sol\":723:725  _a */\n      dup2\n        /* \"contracts/Abstract.sol\":718:722  num1 */\n      0x00\n        /* \"contracts/Abstract.sol\":718:725  num1=_a */\n      dup2\n      swap1\n      sstore\n      pop\n        /* \"contracts/Abstract.sol\":741:743  _b */\n      dup1\n        /* \"contracts/Abstract.sol\":736:740  num2 */\n      0x01\n        /* \"contracts/Abstract.sol\":736:743  num2=_b */\n      dup2\n      swap1\n      sstore\n      pop\n        /* \"contracts/Abstract.sol\":661:752  function set(uint _a, uint _b)public override {... */\n      pop\n      pop\n      jump\t// out\n        /* \"contracts/Abstract.sol\":758:842  function add()public view override returns(uint ){... */\n    tag_16:\n        /* \"contracts/Abstract.sol\":801:805  uint */\n      0x00\n        /* \"contracts/Abstract.sol\":830:834  num2 */\n      sload(0x01)\n        /* \"contracts/Abstract.sol\":825:829  num1 */\n      sload(0x00)\n        /* \"contracts/Abstract.sol\":825:834  num1+num2 */\n      tag_43\n      swap2\n      swap1\n      tag_44\n      jump\t// in\n    tag_43:\n        /* \"contracts/Abstract.sol\":818:834  return num1+num2 */\n      swap1\n      pop\n        /* \"contracts/Abstract.sol\":758:842  function add()public view override returns(uint ){... */\n      swap1\n      jump\t// out\n        /* \"contracts/Abstract.sol\":541:652  function getstring(string memory _str)public pure override returns(string memory){... */\n    tag_22:\n        /* \"contracts/Abstract.sol\":608:621  string memory */\n      0x60\n        /* \"contracts/Abstract.sol\":640:644  _str */\n      dup2\n        /* \"contracts/Abstract.sol\":633:644  return _str */\n      swap1\n      pop\n        /* \"contracts/Abstract.sol\":541:652  function getstring(string memory _str)public pure override returns(string memory){... */\n      swap2\n      swap1\n      pop\n      jump\t// out\n        /* \"#utility.yul\":7:106   */\n    tag_46:\n        /* \"#utility.yul\":59:65   */\n      0x00\n        /* \"#utility.yul\":93:98   */\n      dup2\n        /* \"#utility.yul\":87:99   */\n      mload\n        /* \"#utility.yul\":77:99   */\n      swap1\n      pop\n        /* \"#utility.yul\":7:106   */\n      swap2\n      swap1\n      pop\n      jump\t// out\n        /* \"#utility.yul\":112:281   */\n    tag_47:\n        /* \"#utility.yul\":196:207   */\n      0x00\n        /* \"#utility.yul\":230:236   */\n      dup3\n        /* \"#utility.yul\":225:228   */\n      dup3\n        /* \"#utility.yul\":218:237   */\n      mstore\n        /* \"#utility.yul\":270:274   */\n      0x20\n        /* \"#utility.yul\":265:268   */\n      dup3\n        /* \"#utility.yul\":261:275   */\n      add\n        /* \"#utility.yul\":246:275   */\n      swap1\n      pop\n        /* \"#utility.yul\":112:281   */\n      swap3\n      swap2\n      pop\n      pop\n      jump\t// out\n        /* \"#utility.yul\":287:533   */\n    tag_48:\n        /* \"#utility.yul\":368:369   */\n      0x00\n        /* \"#utility.yul\":378:491   */\n    tag_84:\n        /* \"#utility.yul\":392:398   */\n      dup4\n        /* \"#utility.yul\":389:390   */\n      dup2\n        /* \"#utility.yul\":386:399   */\n      lt\n        /* \"#utility.yul\":378:491   */\n      iszero\n      tag_86\n      jumpi\n        /* \"#utility.yul\":477:478   */\n      dup1\n        /* \"#utility.yul\":472:475   */\n      dup3\n        /* \"#utility.yul\":468:479   */\n      add\n        /* \"#utility.yul\":462:480   */\n      mload\n        /* \"#utility.yul\":458:459   */\n      dup2\n        /* \"#utility.yul\":453:456   */\n      dup5\n        /* \"#utility.yul\":449:460   */\n      add\n        /* \"#utility.yul\":442:481   */\n      mstore\n        /* \"#utility.yul\":414:416   */\n      0x20\n        /* \"#utility.yul\":411:412   */\n      dup2\n        /* \"#utility.yul\":407:417   */\n      add\n        /* \"#utility.yul\":402:417   */\n      swap1\n      pop\n        /* \"#utility.yul\":378:491   */\n      jump(tag_84)\n    tag_86:\n        /* \"#utility.yul\":525:526   */\n      0x00\n        /* \"#utility.yul\":516:522   */\n      dup5\n        /* \"#utility.yul\":511:514   */\n      dup5\n        /* \"#utility.yul\":507:523   */\n      add\n        /* \"#utility.yul\":500:527   */\n      mstore\n        /* \"#utility.yul\":349:533   */\n      pop\n        /* \"#utility.yul\":287:533   */\n      pop\n      pop\n      pop\n      jump\t// out\n        /* \"#utility.yul\":539:641   */\n    tag_49:\n        /* \"#utility.yul\":580:586   */\n      0x00\n        /* \"#utility.yul\":631:633   */\n      0x1f\n        /* \"#utility.yul\":627:634   */\n      not\n        /* \"#utility.yul\":622:624   */\n      0x1f\n        /* \"#utility.yul\":615:620   */\n      dup4\n        /* \"#utility.yul\":611:625   */\n      add\n        /* \"#utility.yul\":607:635   */\n      and\n        /* \"#utility.yul\":597:635   */\n      swap1\n      pop\n        /* \"#utility.yul\":539:641   */\n      swap2\n      swap1\n      pop\n      jump\t// out\n        /* \"#utility.yul\":647:1024   */\n    tag_50:\n        /* \"#utility.yul\":735:738   */\n      0x00\n        /* \"#utility.yul\":763:802   */\n      tag_89\n        /* \"#utility.yul\":796:801   */\n      dup3\n        /* \"#utility.yul\":763:802   */\n      tag_46\n      jump\t// in\n    tag_89:\n        /* \"#utility.yul\":818:889   */\n      tag_90\n        /* \"#utility.yul\":882:888   */\n      dup2\n        /* \"#utility.yul\":877:880   */\n      dup6\n        /* \"#utility.yul\":818:889   */\n      tag_47\n      jump\t// in\n    tag_90:\n        /* \"#utility.yul\":811:889   */\n      swap4\n      pop\n        /* \"#utility.yul\":898:963   */\n      tag_91\n        /* \"#utility.yul\":956:962   */\n      dup2\n        /* \"#utility.yul\":951:954   */\n      dup6\n        /* \"#utility.yul\":944:948   */\n      0x20\n        /* \"#utility.yul\":937:942   */\n      dup7\n        /* \"#utility.yul\":933:949   */\n      add\n        /* \"#utility.yul\":898:963   */\n      tag_48\n      jump\t// in\n    tag_91:\n        /* \"#utility.yul\":988:1017   */\n      tag_92\n        /* \"#utility.yul\":1010:1016   */\n      dup2\n        /* \"#utility.yul\":988:1017   */\n      tag_49\n      jump\t// in\n    tag_92:\n        /* \"#utility.yul\":983:986   */\n      dup5\n        /* \"#utility.yul\":979:1018   */\n      add\n        /* \"#utility.yul\":972:1018   */\n      swap2\n      pop\n        /* \"#utility.yul\":739:1024   */\n      pop\n        /* \"#utility.yul\":647:1024   */\n      swap3\n      swap2\n      pop\n      pop\n      jump\t// out\n        /* \"#utility.yul\":1030:1107   */\n    tag_51:\n        /* \"#utility.yul\":1067:1074   */\n      0x00\n        /* \"#utility.yul\":1096:1101   */\n      dup2\n        /* \"#utility.yul\":1085:1101   */\n      swap1\n      pop\n        /* \"#utility.yul\":1030:1107   */\n      swap2\n      swap1\n      pop\n      jump\t// out\n        /* \"#utility.yul\":1113:1231   */\n    tag_52:\n        /* \"#utility.yul\":1200:1224   */\n      tag_95\n        /* \"#utility.yul\":1218:1223   */\n      dup2\n        /* \"#utility.yul\":1200:1224   */\n      tag_51\n      jump\t// in\n    tag_95:\n        /* \"#utility.yul\":1195:1198   */\n      dup3\n        /* \"#utility.yul\":1188:1225   */\n      mstore\n        /* \"#utility.yul\":1113:1231   */\n      pop\n      pop\n      jump\t// out\n        /* \"#utility.yul\":1237:1660   */\n    tag_10:\n        /* \"#utility.yul\":1378:1382   */\n      0x00\n        /* \"#utility.yul\":1416:1418   */\n      0x40\n        /* \"#utility.yul\":1405:1414   */\n      dup3\n        /* \"#utility.yul\":1401:1419   */\n      add\n        /* \"#utility.yul\":1393:1419   */\n      swap1\n      pop\n        /* \"#utility.yul\":1465:1474   */\n      dup2\n        /* \"#utility.yul\":1459:1463   */\n      dup2\n        /* \"#utility.yul\":1455:1475   */\n      sub\n        /* \"#utility.yul\":1451:1452   */\n      0x00\n        /* \"#utility.yul\":1440:1449   */\n      dup4\n        /* \"#utility.yul\":1436:1453   */\n      add\n        /* \"#utility.yul\":1429:1476   */\n      mstore\n        /* \"#utility.yul\":1493:1571   */\n      tag_97\n        /* \"#utility.yul\":1566:1570   */\n      dup2\n        /* \"#utility.yul\":1557:1563   */\n      dup6\n        /* \"#utility.yul\":1493:1571   */\n      tag_50\n      jump\t// in\n    tag_97:\n        /* \"#utility.yul\":1485:1571   */\n      swap1\n      pop\n        /* \"#utility.yul\":1581:1653   */\n      tag_98\n        /* \"#utility.yul\":1649:1651   */\n      0x20\n        /* \"#utility.yul\":1638:1647   */\n      dup4\n        /* \"#utility.yul\":1634:1652   */\n      add\n        /* \"#utility.yul\":1625:1631   */\n      dup5\n        /* \"#utility.yul\":1581:1653   */\n      tag_52\n      jump\t// in\n    tag_98:\n        /* \"#utility.yul\":1237:1660   */\n      swap4\n      swap3\n      pop\n      pop\n      pop\n      jump\t// out\n        /* \"#utility.yul\":1666:1741   */\n    tag_53:\n        /* \"#utility.yul\":1699:1705   */\n      0x00\n        /* \"#utility.yul\":1732:1734   */\n      0x40\n        /* \"#utility.yul\":1726:1735   */\n      mload\n        /* \"#utility.yul\":1716:1735   */\n      swap1\n      pop\n        /* \"#utility.yul\":1666:1741   */\n      swap1\n      jump\t// out\n        /* \"#utility.yul\":1747:1864   */\n    tag_54:\n        /* \"#utility.yul\":1856:1857   */\n      0x00\n        /* \"#utility.yul\":1853:1854   */\n      dup1\n        /* \"#utility.yul\":1846:1858   */\n      revert\n        /* \"#utility.yul\":1870:1987   */\n    tag_55:\n        /* \"#utility.yul\":1979:1980   */\n      0x00\n        /* \"#utility.yul\":1976:1977   */\n      dup1\n        /* \"#utility.yul\":1969:1981   */\n      revert\n        /* \"#utility.yul\":1993:2115   */\n    tag_56:\n        /* \"#utility.yul\":2066:2090   */\n      tag_103\n        /* \"#utility.yul\":2084:2089   */\n      dup2\n        /* \"#utility.yul\":2066:2090   */\n      tag_51\n      jump\t// in\n    tag_103:\n        /* \"#utility.yul\":2059:2064   */\n      dup2\n        /* \"#utility.yul\":2056:2091   */\n      eq\n        /* \"#utility.yul\":2046:2109   */\n      tag_104\n      jumpi\n        /* \"#utility.yul\":2105:2106   */\n      0x00\n        /* \"#utility.yul\":2102:2103   */\n      dup1\n        /* \"#utility.yul\":2095:2107   */\n      revert\n        /* \"#utility.yul\":2046:2109   */\n    tag_104:\n        /* \"#utility.yul\":1993:2115   */\n      pop\n      jump\t// out\n        /* \"#utility.yul\":2121:2260   */\n    tag_57:\n        /* \"#utility.yul\":2167:2172   */\n      0x00\n        /* \"#utility.yul\":2205:2211   */\n      dup2\n        /* \"#utility.yul\":2192:2212   */\n      calldataload\n        /* \"#utility.yul\":2183:2212   */\n      swap1\n      pop\n        /* \"#utility.yul\":2221:2254   */\n      tag_106\n        /* \"#utility.yul\":2248:2253   */\n      dup2\n        /* \"#utility.yul\":2221:2254   */\n      tag_56\n      jump\t// in\n    tag_106:\n        /* \"#utility.yul\":2121:2260   */\n      swap3\n      swap2\n      pop\n      pop\n      jump\t// out\n        /* \"#utility.yul\":2266:2740   */\n    tag_13:\n        /* \"#utility.yul\":2334:2340   */\n      0x00\n        /* \"#utility.yul\":2342:2348   */\n      dup1\n        /* \"#utility.yul\":2391:2393   */\n      0x40\n        /* \"#utility.yul\":2379:2388   */\n      dup4\n        /* \"#utility.yul\":2370:2377   */\n      dup6\n        /* \"#utility.yul\":2366:2389   */\n      sub\n        /* \"#utility.yul\":2362:2394   */\n      slt\n        /* \"#utility.yul\":2359:2478   */\n      iszero\n      tag_108\n      jumpi\n        /* \"#utility.yul\":2397:2476   */\n      tag_109\n      tag_54\n      jump\t// in\n    tag_109:\n        /* \"#utility.yul\":2359:2478   */\n    tag_108:\n        /* \"#utility.yul\":2517:2518   */\n      0x00\n        /* \"#utility.yul\":2542:2595   */\n      tag_110\n        /* \"#utility.yul\":2587:2594   */\n      dup6\n        /* \"#utility.yul\":2578:2584   */\n      dup3\n        /* \"#utility.yul\":2567:2576   */\n      dup7\n        /* \"#utility.yul\":2563:2585   */\n      add\n        /* \"#utility.yul\":2542:2595   */\n      tag_57\n      jump\t// in\n    tag_110:\n        /* \"#utility.yul\":2532:2595   */\n      swap3\n      pop\n        /* \"#utility.yul\":2488:2605   */\n      pop\n        /* \"#utility.yul\":2644:2646   */\n      0x20\n        /* \"#utility.yul\":2670:2723   */\n      tag_111\n        /* \"#utility.yul\":2715:2722   */\n      dup6\n        /* \"#utility.yul\":2706:2712   */\n      dup3\n        /* \"#utility.yul\":2695:2704   */\n      dup7\n        /* \"#utility.yul\":2691:2713   */\n      add\n        /* \"#utility.yul\":2670:2723   */\n      tag_57\n      jump\t// in\n    tag_111:\n        /* \"#utility.yul\":2660:2723   */\n      swap2\n      pop\n        /* \"#utility.yul\":2615:2733   */\n      pop\n        /* \"#utility.yul\":2266:2740   */\n      swap3\n      pop\n      swap3\n      swap1\n      pop\n      jump\t// out\n        /* \"#utility.yul\":2746:2968   */\n    tag_18:\n        /* \"#utility.yul\":2839:2843   */\n      0x00\n        /* \"#utility.yul\":2877:2879   */\n      0x20\n        /* \"#utility.yul\":2866:2875   */\n      dup3\n        /* \"#utility.yul\":2862:2880   */\n      add\n        /* \"#utility.yul\":2854:2880   */\n      swap1\n      pop\n        /* \"#utility.yul\":2890:2961   */\n      tag_113\n        /* \"#utility.yul\":2958:2959   */\n      0x00\n        /* \"#utility.yul\":2947:2956   */\n      dup4\n        /* \"#utility.yul\":2943:2960   */\n      add\n        /* \"#utility.yul\":2934:2940   */\n      dup5\n        /* \"#utility.yul\":2890:2961   */\n      tag_52\n      jump\t// in\n    tag_113:\n        /* \"#utility.yul\":2746:2968   */\n      swap3\n      swap2\n      pop\n      pop\n      jump\t// out\n        /* \"#utility.yul\":2974:3091   */\n    tag_58:\n        /* \"#utility.yul\":3083:3084   */\n      0x00\n        /* \"#utility.yul\":3080:3081   */\n      dup1\n        /* \"#utility.yul\":3073:3085   */\n      revert\n        /* \"#utility.yul\":3097:3214   */\n    tag_59:\n        /* \"#utility.yul\":3206:3207   */\n      0x00\n        /* \"#utility.yul\":3203:3204   */\n      dup1\n        /* \"#utility.yul\":3196:3208   */\n      revert\n        /* \"#utility.yul\":3220:3400   */\n    tag_60:\n        /* \"#utility.yul\":3268:3345   */\n      0x4e487b7100000000000000000000000000000000000000000000000000000000\n        /* \"#utility.yul\":3265:3266   */\n      0x00\n        /* \"#utility.yul\":3258:3346   */\n      mstore\n        /* \"#utility.yul\":3365:3369   */\n      0x41\n        /* \"#utility.yul\":3362:3363   */\n      0x04\n        /* \"#utility.yul\":3355:3370   */\n      mstore\n        /* \"#utility.yul\":3389:3393   */\n      0x24\n        /* \"#utility.yul\":3386:3387   */\n      0x00\n        /* \"#utility.yul\":3379:3394   */\n      revert\n        /* \"#utility.yul\":3406:3687   */\n    tag_61:\n        /* \"#utility.yul\":3489:3516   */\n      tag_118\n        /* \"#utility.yul\":3511:3515   */\n      dup3\n        /* \"#utility.yul\":3489:3516   */\n      tag_49\n      jump\t// in\n    tag_118:\n        /* \"#utility.yul\":3481:3487   */\n      dup2\n        /* \"#utility.yul\":3477:3517   */\n      add\n        /* \"#utility.yul\":3619:3625   */\n      dup2\n        /* \"#utility.yul\":3607:3617   */\n      dup2\n        /* \"#utility.yul\":3604:3626   */\n      lt\n        /* \"#utility.yul\":3583:3601   */\n      0xffffffffffffffff\n        /* \"#utility.yul\":3571:3581   */\n      dup3\n        /* \"#utility.yul\":3568:3602   */\n      gt\n        /* \"#utility.yul\":3565:3627   */\n      or\n        /* \"#utility.yul\":3562:3650   */\n      iszero\n      tag_119\n      jumpi\n        /* \"#utility.yul\":3630:3648   */\n      tag_120\n      tag_60\n      jump\t// in\n    tag_120:\n        /* \"#utility.yul\":3562:3650   */\n    tag_119:\n        /* \"#utility.yul\":3670:3680   */\n      dup1\n        /* \"#utility.yul\":3666:3668   */\n      0x40\n        /* \"#utility.yul\":3659:3681   */\n      mstore\n        /* \"#utility.yul\":3449:3687   */\n      pop\n        /* \"#utility.yul\":3406:3687   */\n      pop\n      pop\n      jump\t// out\n        /* \"#utility.yul\":3693:3822   */\n    tag_62:\n        /* \"#utility.yul\":3727:3733   */\n      0x00\n        /* \"#utility.yul\":3754:3774   */\n      tag_122\n      tag_53\n      jump\t// in\n    tag_122:\n        /* \"#utility.yul\":3744:3774   */\n      swap1\n      pop\n        /* \"#utility.yul\":3783:3816   */\n      tag_123\n        /* \"#utility.yul\":3811:3815   */\n      dup3\n        /* \"#utility.yul\":3803:3809   */\n      dup3\n        /* \"#utility.yul\":3783:3816   */\n      tag_61\n      jump\t// in\n    tag_123:\n        /* \"#utility.yul\":3693:3822   */\n      swap2\n      swap1\n      pop\n      jump\t// out\n        /* \"#utility.yul\":3828:4136   */\n    tag_63:\n        /* \"#utility.yul\":3890:3894   */\n      0x00\n        /* \"#utility.yul\":3980:3998   */\n      0xffffffffffffffff\n        /* \"#utility.yul\":3972:3978   */\n      dup3\n        /* \"#utility.yul\":3969:3999   */\n      gt\n        /* \"#utility.yul\":3966:4022   */\n      iszero\n      tag_125\n      jumpi\n        /* \"#utility.yul\":4002:4020   */\n      tag_126\n      tag_60\n      jump\t// in\n    tag_126:\n        /* \"#utility.yul\":3966:4022   */\n    tag_125:\n        /* \"#utility.yul\":4040:4069   */\n      tag_127\n        /* \"#utility.yul\":4062:4068   */\n      dup3\n        /* \"#utility.yul\":4040:4069   */\n      tag_49\n      jump\t// in\n    tag_127:\n        /* \"#utility.yul\":4032:4069   */\n      swap1\n      pop\n        /* \"#utility.yul\":4124:4128   */\n      0x20\n        /* \"#utility.yul\":4118:4122   */\n      dup2\n        /* \"#utility.yul\":4114:4129   */\n      add\n        /* \"#utility.yul\":4106:4129   */\n      swap1\n      pop\n        /* \"#utility.yul\":3828:4136   */\n      swap2\n      swap1\n      pop\n      jump\t// out\n        /* \"#utility.yul\":4142:4288   */\n    tag_64:\n        /* \"#utility.yul\":4239:4245   */\n      dup3\n        /* \"#utility.yul\":4234:4237   */\n      dup2\n        /* \"#utility.yul\":4229:4232   */\n      dup4\n        /* \"#utility.yul\":4216:4246   */\n      calldatacopy\n        /* \"#utility.yul\":4280:4281   */\n      0x00\n        /* \"#utility.yul\":4271:4277   */\n      dup4\n        /* \"#utility.yul\":4266:4269   */\n      dup4\n        /* \"#utility.yul\":4262:4278   */\n      add\n        /* \"#utility.yul\":4255:4282   */\n      mstore\n        /* \"#utility.yul\":4142:4288   */\n      pop\n      pop\n      pop\n      jump\t// out\n        /* \"#utility.yul\":4294:4719   */\n    tag_65:\n        /* \"#utility.yul\":4372:4377   */\n      0x00\n        /* \"#utility.yul\":4397:4463   */\n      tag_130\n        /* \"#utility.yul\":4413:4462   */\n      tag_131\n        /* \"#utility.yul\":4455:4461   */\n      dup5\n        /* \"#utility.yul\":4413:4462   */\n      tag_63\n      jump\t// in\n    tag_131:\n        /* \"#utility.yul\":4397:4463   */\n      tag_62\n      jump\t// in\n    tag_130:\n        /* \"#utility.yul\":4388:4463   */\n      swap1\n      pop\n        /* \"#utility.yul\":4486:4492   */\n      dup3\n        /* \"#utility.yul\":4479:4484   */\n      dup2\n        /* \"#utility.yul\":4472:4493   */\n      mstore\n        /* \"#utility.yul\":4524:4528   */\n      0x20\n        /* \"#utility.yul\":4517:4522   */\n      dup2\n        /* \"#utility.yul\":4513:4529   */\n      add\n        /* \"#utility.yul\":4562:4565   */\n      dup5\n        /* \"#utility.yul\":4553:4559   */\n      dup5\n        /* \"#utility.yul\":4548:4551   */\n      dup5\n        /* \"#utility.yul\":4544:4560   */\n      add\n        /* \"#utility.yul\":4541:4566   */\n      gt\n        /* \"#utility.yul\":4538:4650   */\n      iszero\n      tag_132\n      jumpi\n        /* \"#utility.yul\":4569:4648   */\n      tag_133\n      tag_59\n      jump\t// in\n    tag_133:\n        /* \"#utility.yul\":4538:4650   */\n    tag_132:\n        /* \"#utility.yul\":4659:4713   */\n      tag_134\n        /* \"#utility.yul\":4706:4712   */\n      dup5\n        /* \"#utility.yul\":4701:4704   */\n      dup3\n        /* \"#utility.yul\":4696:4699   */\n      dup6\n        /* \"#utility.yul\":4659:4713   */\n      tag_64\n      jump\t// in\n    tag_134:\n        /* \"#utility.yul\":4378:4719   */\n      pop\n        /* \"#utility.yul\":4294:4719   */\n      swap4\n      swap3\n      pop\n      pop\n      pop\n      jump\t// out\n        /* \"#utility.yul\":4739:5079   */\n    tag_66:\n        /* \"#utility.yul\":4795:4800   */\n      0x00\n        /* \"#utility.yul\":4844:4847   */\n      dup3\n        /* \"#utility.yul\":4837:4841   */\n      0x1f\n        /* \"#utility.yul\":4829:4835   */\n      dup4\n        /* \"#utility.yul\":4825:4842   */\n      add\n        /* \"#utility.yul\":4821:4848   */\n      slt\n        /* \"#utility.yul\":4811:4933   */\n      tag_136\n      jumpi\n        /* \"#utility.yul\":4852:4931   */\n      tag_137\n      tag_58\n      jump\t// in\n    tag_137:\n        /* \"#utility.yul\":4811:4933   */\n    tag_136:\n        /* \"#utility.yul\":4969:4975   */\n      dup2\n        /* \"#utility.yul\":4956:4976   */\n      calldataload\n        /* \"#utility.yul\":4994:5073   */\n      tag_138\n        /* \"#utility.yul\":5069:5072   */\n      dup5\n        /* \"#utility.yul\":5061:5067   */\n      dup3\n        /* \"#utility.yul\":5054:5058   */\n      0x20\n        /* \"#utility.yul\":5046:5052   */\n      dup7\n        /* \"#utility.yul\":5042:5059   */\n      add\n        /* \"#utility.yul\":4994:5073   */\n      tag_65\n      jump\t// in\n    tag_138:\n        /* \"#utility.yul\":4985:5073   */\n      swap2\n      pop\n        /* \"#utility.yul\":4801:5079   */\n      pop\n        /* \"#utility.yul\":4739:5079   */\n      swap3\n      swap2\n      pop\n      pop\n      jump\t// out\n        /* \"#utility.yul\":5085:5594   */\n    tag_21:\n        /* \"#utility.yul\":5154:5160   */\n      0x00\n        /* \"#utility.yul\":5203:5205   */\n      0x20\n        /* \"#utility.yul\":5191:5200   */\n      dup3\n        /* \"#utility.yul\":5182:5189   */\n      dup5\n        /* \"#utility.yul\":5178:5201   */\n      sub\n        /* \"#utility.yul\":5174:5206   */\n      slt\n        /* \"#utility.yul\":5171:5290   */\n      iszero\n      tag_140\n      jumpi\n        /* \"#utility.yul\":5209:5288   */\n      tag_141\n      tag_54\n      jump\t// in\n    tag_141:\n        /* \"#utility.yul\":5171:5290   */\n    tag_140:\n        /* \"#utility.yul\":5357:5358   */\n      0x00\n        /* \"#utility.yul\":5346:5355   */\n      dup3\n        /* \"#utility.yul\":5342:5359   */\n      add\n        /* \"#utility.yul\":5329:5360   */\n      calldataload\n        /* \"#utility.yul\":5387:5405   */\n      0xffffffffffffffff\n        /* \"#utility.yul\":5379:5385   */\n      dup2\n        /* \"#utility.yul\":5376:5406   */\n      gt\n        /* \"#utility.yul\":5373:5490   */\n      iszero\n      tag_142\n      jumpi\n        /* \"#utility.yul\":5409:5488   */\n      tag_143\n      tag_55\n      jump\t// in\n    tag_143:\n        /* \"#utility.yul\":5373:5490   */\n    tag_142:\n        /* \"#utility.yul\":5514:5577   */\n      tag_144\n        /* \"#utility.yul\":5569:5576   */\n      dup5\n        /* \"#utility.yul\":5560:5566   */\n      dup3\n        /* \"#utility.yul\":5549:5558   */\n      dup6\n        /* \"#utility.yul\":5545:5567   */\n      add\n        /* \"#utility.yul\":5514:5577   */\n      tag_66\n      jump\t// in\n    tag_144:\n        /* \"#utility.yul\":5504:5577   */\n      swap2\n      pop\n        /* \"#utility.yul\":5300:5587   */\n      pop\n        /* \"#utility.yul\":5085:5594   */\n      swap3\n      swap2\n      pop\n      pop\n      jump\t// out\n        /* \"#utility.yul\":5600:5913   */\n    tag_24:\n        /* \"#utility.yul\":5713:5717   */\n      0x00\n        /* \"#utility.yul\":5751:5753   */\n      0x20\n        /* \"#utility.yul\":5740:5749   */\n      dup3\n        /* \"#utility.yul\":5736:5754   */\n      add\n        /* \"#utility.yul\":5728:5754   */\n      swap1\n      pop\n        /* \"#utility.yul\":5800:5809   */\n      dup2\n        /* \"#utility.yul\":5794:5798   */\n      dup2\n        /* \"#utility.yul\":5790:5810   */\n      sub\n        /* \"#utility.yul\":5786:5787   */\n      0x00\n        /* \"#utility.yul\":5775:5784   */\n      dup4\n        /* \"#utility.yul\":5771:5788   */\n      add\n        /* \"#utility.yul\":5764:5811   */\n      mstore\n        /* \"#utility.yul\":5828:5906   */\n      tag_146\n        /* \"#utility.yul\":5901:5905   */\n      dup2\n        /* \"#utility.yul\":5892:5898   */\n      dup5\n        /* \"#utility.yul\":5828:5906   */\n      tag_50\n      jump\t// in\n    tag_146:\n        /* \"#utility.yul\":5820:5906   */\n      swap1\n      pop\n        /* \"#utility.yul\":5600:5913   */\n      swap3\n      swap2\n      pop\n      pop\n      jump\t// out\n        /* \"#utility.yul\":5919:6005   */\n    tag_67:\n        /* \"#utility.yul\":5965:5972   */\n      0x00\n        /* \"#utility.yul\":5994:5999   */\n      dup2\n        /* \"#utility.yul\":5983:5999   */\n      swap1\n      pop\n        /* \"#utility.yul\":5919:6005   */\n      swap2\n      swap1\n      pop\n      jump\t// out\n        /* \"#utility.yul\":6011:6071   */\n    tag_68:\n        /* \"#utility.yul\":6039:6042   */\n      0x00\n        /* \"#utility.yul\":6060:6065   */\n      dup2\n        /* \"#utility.yul\":6053:6065   */\n      swap1\n      pop\n        /* \"#utility.yul\":6011:6071   */\n      swap2\n      swap1\n      pop\n      jump\t// out\n        /* \"#utility.yul\":6077:6237   */\n    tag_69:\n        /* \"#utility.yul\":6136:6145   */\n      0x00\n        /* \"#utility.yul\":6169:6231   */\n      tag_150\n        /* \"#utility.yul\":6187:6230   */\n      tag_151\n        /* \"#utility.yul\":6196:6229   */\n      tag_152\n        /* \"#utility.yul\":6223:6228   */\n      dup5\n        /* \"#utility.yul\":6196:6229   */\n      tag_67\n      jump\t// in\n    tag_152:\n        /* \"#utility.yul\":6187:6230   */\n      tag_68\n      jump\t// in\n    tag_151:\n        /* \"#utility.yul\":6169:6231   */\n      tag_51\n      jump\t// in\n    tag_150:\n        /* \"#utility.yul\":6156:6231   */\n      swap1\n      pop\n        /* \"#utility.yul\":6077:6237   */\n      swap2\n      swap1\n      pop\n      jump\t// out\n        /* \"#utility.yul\":6243:6392   */\n    tag_70:\n        /* \"#utility.yul\":6339:6385   */\n      tag_154\n        /* \"#utility.yul\":6379:6384   */\n      dup2\n        /* \"#utility.yul\":6339:6385   */\n      tag_69\n      jump\t// in\n    tag_154:\n        /* \"#utility.yul\":6334:6337   */\n      dup3\n        /* \"#utility.yul\":6327:6386   */\n      mstore\n        /* \"#utility.yul\":6243:6392   */\n      pop\n      pop\n      jump\t// out\n        /* \"#utility.yul\":6398:6484   */\n    tag_71:\n        /* \"#utility.yul\":6444:6451   */\n      0x00\n        /* \"#utility.yul\":6473:6478   */\n      dup2\n        /* \"#utility.yul\":6462:6478   */\n      swap1\n      pop\n        /* \"#utility.yul\":6398:6484   */\n      swap2\n      swap1\n      pop\n      jump\t// out\n        /* \"#utility.yul\":6490:6650   */\n    tag_72:\n        /* \"#utility.yul\":6549:6558   */\n      0x00\n        /* \"#utility.yul\":6582:6644   */\n      tag_157\n        /* \"#utility.yul\":6600:6643   */\n      tag_158\n        /* \"#utility.yul\":6609:6642   */\n      tag_159\n        /* \"#utility.yul\":6636:6641   */\n      dup5\n        /* \"#utility.yul\":6609:6642   */\n      tag_71\n      jump\t// in\n    tag_159:\n        /* \"#utility.yul\":6600:6643   */\n      tag_68\n      jump\t// in\n    tag_158:\n        /* \"#utility.yul\":6582:6644   */\n      tag_51\n      jump\t// in\n    tag_157:\n        /* \"#utility.yul\":6569:6644   */\n      swap1\n      pop\n        /* \"#utility.yul\":6490:6650   */\n      swap2\n      swap1\n      pop\n      jump\t// out\n        /* \"#utility.yul\":6656:6805   */\n    tag_73:\n        /* \"#utility.yul\":6752:6798   */\n      tag_161\n        /* \"#utility.yul\":6792:6797   */\n      dup2\n        /* \"#utility.yul\":6752:6798   */\n      tag_72\n      jump\t// in\n    tag_161:\n        /* \"#utility.yul\":6747:6750   */\n      dup3\n        /* \"#utility.yul\":6740:6799   */\n      mstore\n        /* \"#utility.yul\":6656:6805   */\n      pop\n      pop\n      jump\t// out\n        /* \"#utility.yul\":6811:7179   */\n    tag_27:\n        /* \"#utility.yul\":6950:6954   */\n      0x00\n        /* \"#utility.yul\":6988:6990   */\n      0x40\n        /* \"#utility.yul\":6977:6986   */\n      dup3\n        /* \"#utility.yul\":6973:6991   */\n      add\n        /* \"#utility.yul\":6965:6991   */\n      swap1\n      pop\n        /* \"#utility.yul\":7001:7081   */\n      tag_163\n        /* \"#utility.yul\":7078:7079   */\n      0x00\n        /* \"#utility.yul\":7067:7076   */\n      dup4\n        /* \"#utility.yul\":7063:7080   */\n      add\n        /* \"#utility.yul\":7054:7060   */\n      dup6\n        /* \"#utility.yul\":7001:7081   */\n      tag_70\n      jump\t// in\n    tag_163:\n        /* \"#utility.yul\":7091:7172   */\n      tag_164\n        /* \"#utility.yul\":7168:7170   */\n      0x20\n        /* \"#utility.yul\":7157:7166   */\n      dup4\n        /* \"#utility.yul\":7153:7171   */\n      add\n        /* \"#utility.yul\":7144:7150   */\n      dup5\n        /* \"#utility.yul\":7091:7172   */\n      tag_73\n      jump\t// in\n    tag_164:\n        /* \"#utility.yul\":6811:7179   */\n      swap4\n      swap3\n      pop\n      pop\n      pop\n      jump\t// out\n        /* \"#utility.yul\":7185:7348   */\n    tag_74:\n        /* \"#utility.yul\":7325:7340   */\n      0x736861686e696c736861726d6100000000000000000000000000000000000000\n        /* \"#utility.yul\":7321:7322   */\n      0x00\n        /* \"#utility.yul\":7313:7319   */\n      dup3\n        /* \"#utility.yul\":7309:7323   */\n      add\n        /* \"#utility.yul\":7302:7341   */\n      mstore\n        /* \"#utility.yul\":7185:7348   */\n      pop\n      jump\t// out\n        /* \"#utility.yul\":7354:7720   */\n    tag_75:\n        /* \"#utility.yul\":7496:7499   */\n      0x00\n        /* \"#utility.yul\":7517:7584   */\n      tag_167\n        /* \"#utility.yul\":7581:7583   */\n      0x0d\n        /* \"#utility.yul\":7576:7579   */\n      dup4\n        /* \"#utility.yul\":7517:7584   */\n      tag_47\n      jump\t// in\n    tag_167:\n        /* \"#utility.yul\":7510:7584   */\n      swap2\n      pop\n        /* \"#utility.yul\":7593:7686   */\n      tag_168\n        /* \"#utility.yul\":7682:7685   */\n      dup3\n        /* \"#utility.yul\":7593:7686   */\n      tag_74\n      jump\t// in\n    tag_168:\n        /* \"#utility.yul\":7711:7713   */\n      0x20\n        /* \"#utility.yul\":7706:7709   */\n      dup3\n        /* \"#utility.yul\":7702:7714   */\n      add\n        /* \"#utility.yul\":7695:7714   */\n      swap1\n      pop\n        /* \"#utility.yul\":7354:7720   */\n      swap2\n      swap1\n      pop\n      jump\t// out\n        /* \"#utility.yul\":7726:8145   */\n    tag_32:\n        /* \"#utility.yul\":7892:7896   */\n      0x00\n        /* \"#utility.yul\":7930:7932   */\n      0x20\n        /* \"#utility.yul\":7919:7928   */\n      dup3\n        /* \"#utility.yul\":7915:7933   */\n      add\n        /* \"#utility.yul\":7907:7933   */\n      swap1\n      pop\n        /* \"#utility.yul\":7979:7988   */\n      dup2\n        /* \"#utility.yul\":7973:7977   */\n      dup2\n        /* \"#utility.yul\":7969:7989   */\n      sub\n        /* \"#utility.yul\":7965:7966   */\n      0x00\n        /* \"#utility.yul\":7954:7963   */\n      dup4\n        /* \"#utility.yul\":7950:7967   */\n      add\n        /* \"#utility.yul\":7943:7990   */\n      mstore\n        /* \"#utility.yul\":8007:8138   */\n      tag_170\n        /* \"#utility.yul\":8133:8137   */\n      dup2\n        /* \"#utility.yul\":8007:8138   */\n      tag_75\n      jump\t// in\n    tag_170:\n        /* \"#utility.yul\":7999:8138   */\n      swap1\n      pop\n        /* \"#utility.yul\":7726:8145   */\n      swap2\n      swap1\n      pop\n      jump\t// out\n        /* \"#utility.yul\":8151:8585   */\n    tag_76:\n        /* \"#utility.yul\":8240:8245   */\n      0x00\n        /* \"#utility.yul\":8265:8331   */\n      tag_172\n        /* \"#utility.yul\":8281:8330   */\n      tag_173\n        /* \"#utility.yul\":8323:8329   */\n      dup5\n        /* \"#utility.yul\":8281:8330   */\n      tag_63\n      jump\t// in\n    tag_173:\n        /* \"#utility.yul\":8265:8331   */\n      tag_62\n      jump\t// in\n    tag_172:\n        /* \"#utility.yul\":8256:8331   */\n      swap1\n      pop\n        /* \"#utility.yul\":8354:8360   */\n      dup3\n        /* \"#utility.yul\":8347:8352   */\n      dup2\n        /* \"#utility.yul\":8340:8361   */\n      mstore\n        /* \"#utility.yul\":8392:8396   */\n      0x20\n        /* \"#utility.yul\":8385:8390   */\n      dup2\n        /* \"#utility.yul\":8381:8397   */\n      add\n        /* \"#utility.yul\":8430:8433   */\n      dup5\n        /* \"#utility.yul\":8421:8427   */\n      dup5\n        /* \"#utility.yul\":8416:8419   */\n      dup5\n        /* \"#utility.yul\":8412:8428   */\n      add\n        /* \"#utility.yul\":8409:8434   */\n      gt\n        /* \"#utility.yul\":8406:8518   */\n      iszero\n      tag_174\n      jumpi\n        /* \"#utility.yul\":8437:8516   */\n      tag_175\n      tag_59\n      jump\t// in\n    tag_175:\n        /* \"#utility.yul\":8406:8518   */\n    tag_174:\n        /* \"#utility.yul\":8527:8579   */\n      tag_176\n        /* \"#utility.yul\":8572:8578   */\n      dup5\n        /* \"#utility.yul\":8567:8570   */\n      dup3\n        /* \"#utility.yul\":8562:8565   */\n      dup6\n        /* \"#utility.yul\":8527:8579   */\n      tag_48\n      jump\t// in\n    tag_176:\n        /* \"#utility.yul\":8246:8585   */\n      pop\n        /* \"#utility.yul\":8151:8585   */\n      swap4\n      swap3\n      pop\n      pop\n      pop\n      jump\t// out\n        /* \"#utility.yul\":8605:8960   */\n    tag_77:\n        /* \"#utility.yul\":8672:8677   */\n      0x00\n        /* \"#utility.yul\":8721:8724   */\n      dup3\n        /* \"#utility.yul\":8714:8718   */\n      0x1f\n        /* \"#utility.yul\":8706:8712   */\n      dup4\n        /* \"#utility.yul\":8702:8719   */\n      add\n        /* \"#utility.yul\":8698:8725   */\n      slt\n        /* \"#utility.yul\":8688:8810   */\n      tag_178\n      jumpi\n        /* \"#utility.yul\":8729:8808   */\n      tag_179\n      tag_58\n      jump\t// in\n    tag_179:\n        /* \"#utility.yul\":8688:8810   */\n    tag_178:\n        /* \"#utility.yul\":8839:8845   */\n      dup2\n        /* \"#utility.yul\":8833:8846   */\n      mload\n        /* \"#utility.yul\":8864:8954   */\n      tag_180\n        /* \"#utility.yul\":8950:8953   */\n      dup5\n        /* \"#utility.yul\":8942:8948   */\n      dup3\n        /* \"#utility.yul\":8935:8939   */\n      0x20\n        /* \"#utility.yul\":8927:8933   */\n      dup7\n        /* \"#utility.yul\":8923:8940   */\n      add\n        /* \"#utility.yul\":8864:8954   */\n      tag_76\n      jump\t// in\n    tag_180:\n        /* \"#utility.yul\":8855:8954   */\n      swap2\n      pop\n        /* \"#utility.yul\":8678:8960   */\n      pop\n        /* \"#utility.yul\":8605:8960   */\n      swap3\n      swap2\n      pop\n      pop\n      jump\t// out\n        /* \"#utility.yul\":8966:9490   */\n    tag_36:\n        /* \"#utility.yul\":9046:9052   */\n      0x00\n        /* \"#utility.yul\":9095:9097   */\n      0x20\n        /* \"#utility.yul\":9083:9092   */\n      dup3\n        /* \"#utility.yul\":9074:9081   */\n      dup5\n        /* \"#utility.yul\":9070:9093   */\n      sub\n        /* \"#utility.yul\":9066:9098   */\n      slt\n        /* \"#utility.yul\":9063:9182   */\n      iszero\n      tag_182\n      jumpi\n        /* \"#utility.yul\":9101:9180   */\n      tag_183\n      tag_54\n      jump\t// in\n    tag_183:\n        /* \"#utility.yul\":9063:9182   */\n    tag_182:\n        /* \"#utility.yul\":9242:9243   */\n      0x00\n        /* \"#utility.yul\":9231:9240   */\n      dup3\n        /* \"#utility.yul\":9227:9244   */\n      add\n        /* \"#utility.yul\":9221:9245   */\n      mload\n        /* \"#utility.yul\":9272:9290   */\n      0xffffffffffffffff\n        /* \"#utility.yul\":9264:9270   */\n      dup2\n        /* \"#utility.yul\":9261:9291   */\n      gt\n        /* \"#utility.yul\":9258:9375   */\n      iszero\n      tag_184\n      jumpi\n        /* \"#utility.yul\":9294:9373   */\n      tag_185\n      tag_55\n      jump\t// in\n    tag_185:\n        /* \"#utility.yul\":9258:9375   */\n    tag_184:\n        /* \"#utility.yul\":9399:9473   */\n      tag_186\n        /* \"#utility.yul\":9465:9472   */\n      dup5\n        /* \"#utility.yul\":9456:9462   */\n      dup3\n        /* \"#utility.yul\":9445:9454   */\n      dup6\n        /* \"#utility.yul\":9441:9463   */\n      add\n        /* \"#utility.yul\":9399:9473   */\n      tag_77\n      jump\t// in\n    tag_186:\n        /* \"#utility.yul\":9389:9473   */\n      swap2\n      pop\n        /* \"#utility.yul\":9192:9483   */\n      pop\n        /* \"#utility.yul\":8966:9490   */\n      swap3\n      swap2\n      pop\n      pop\n      jump\t// out\n        /* \"#utility.yul\":9496:9639   */\n    tag_78:\n        /* \"#utility.yul\":9553:9558   */\n      0x00\n        /* \"#utility.yul\":9584:9590   */\n      dup2\n        /* \"#utility.yul\":9578:9591   */\n      mload\n        /* \"#utility.yul\":9569:9591   */\n      swap1\n      pop\n        /* \"#utility.yul\":9600:9633   */\n      tag_188\n        /* \"#utility.yul\":9627:9632   */\n      dup2\n        /* \"#utility.yul\":9600:9633   */\n      tag_56\n      jump\t// in\n    tag_188:\n        /* \"#utility.yul\":9496:9639   */\n      swap3\n      swap2\n      pop\n      pop\n      jump\t// out\n        /* \"#utility.yul\":9645:9996   */\n    tag_40:\n        /* \"#utility.yul\":9715:9721   */\n      0x00\n        /* \"#utility.yul\":9764:9766   */\n      0x20\n        /* \"#utility.yul\":9752:9761   */\n      dup3\n        /* \"#utility.yul\":9743:9750   */\n      dup5\n        /* \"#utility.yul\":9739:9762   */\n      sub\n        /* \"#utility.yul\":9735:9767   */\n      slt\n        /* \"#utility.yul\":9732:9851   */\n      iszero\n      tag_190\n      jumpi\n        /* \"#utility.yul\":9770:9849   */\n      tag_191\n      tag_54\n      jump\t// in\n    tag_191:\n        /* \"#utility.yul\":9732:9851   */\n    tag_190:\n        /* \"#utility.yul\":9890:9891   */\n      0x00\n        /* \"#utility.yul\":9915:9979   */\n      tag_192\n        /* \"#utility.yul\":9971:9978   */\n      dup5\n        /* \"#utility.yul\":9962:9968   */\n      dup3\n        /* \"#utility.yul\":9951:9960   */\n      dup6\n        /* \"#utility.yul\":9947:9969   */\n      add\n        /* \"#utility.yul\":9915:9979   */\n      tag_78\n      jump\t// in\n    tag_192:\n        /* \"#utility.yul\":9905:9979   */\n      swap2\n      pop\n        /* \"#utility.yul\":9861:9989   */\n      pop\n        /* \"#utility.yul\":9645:9996   */\n      swap3\n      swap2\n      pop\n      pop\n      jump\t// out\n        /* \"#utility.yul\":10002:10182   */\n    tag_79:\n        /* \"#utility.yul\":10050:10127   */\n      0x4e487b7100000000000000000000000000000000000000000000000000000000\n        /* \"#utility.yul\":10047:10048   */\n      0x00\n        /* \"#utility.yul\":10040:10128   */\n      mstore\n        /* \"#utility.yul\":10147:10151   */\n      0x11\n        /* \"#utility.yul\":10144:10145   */\n      0x04\n        /* \"#utility.yul\":10137:10152   */\n      mstore\n        /* \"#utility.yul\":10171:10175   */\n      0x24\n        /* \"#utility.yul\":10168:10169   */\n      0x00\n        /* \"#utility.yul\":10161:10176   */\n      revert\n        /* \"#utility.yul\":10188:10379   */\n    tag_44:\n        /* \"#utility.yul\":10228:10231   */\n      0x00\n        /* \"#utility.yul\":10247:10267   */\n      tag_195\n        /* \"#utility.yul\":10265:10266   */\n      dup3\n        /* \"#utility.yul\":10247:10267   */\n      tag_51\n      jump\t// in\n    tag_195:\n        /* \"#utility.yul\":10242:10267   */\n      swap2\n      pop\n        /* \"#utility.yul\":10281:10301   */\n      tag_196\n        /* \"#utility.yul\":10299:10300   */\n      dup4\n        /* \"#utility.yul\":10281:10301   */\n      tag_51\n      jump\t// in\n    tag_196:\n        /* \"#utility.yul\":10276:10301   */\n      swap3\n      pop\n        /* \"#utility.yul\":10324:10325   */\n      dup3\n        /* \"#utility.yul\":10321:10322   */\n      dup3\n        /* \"#utility.yul\":10317:10326   */\n      add\n        /* \"#utility.yul\":10310:10326   */\n      swap1\n      pop\n        /* \"#utility.yul\":10345:10348   */\n      dup1\n        /* \"#utility.yul\":10342:10343   */\n      dup3\n        /* \"#utility.yul\":10339:10349   */\n      gt\n        /* \"#utility.yul\":10336:10372   */\n      iszero\n      tag_197\n      jumpi\n        /* \"#utility.yul\":10352:10370   */\n      tag_198\n      tag_79\n      jump\t// in\n    tag_198:\n        /* \"#utility.yul\":10336:10372   */\n    tag_197:\n        /* \"#utility.yul\":10188:10379   */\n      swap3\n      swap2\n      pop\n      pop\n      jump\t// out\n\n    auxdata: 0xa2646970667358221220c66cebd3a50e739bf8086d2c4e711dd7cfb4b4eeca981d4c92ee2b90a94b1add64736f6c63430008160033\n}\n\nsub_1: assembly {\n        /* \"contracts/Abstract.sol\":403:845  contract derived is AbstractContract{... */\n      mstore(0x40, 0x80)\n      callvalue\n      dup1\n      iszero\n      tag_1\n      jumpi\n      0x00\n      dup1\n      revert\n    tag_1:\n      pop\n      dataSize(sub_0)\n      dup1\n      dataOffset(sub_0)\n      0x00\n      codecopy\n      0x00\n      return\n    stop\n\n    sub_0: assembly {\n            /* \"contracts/Abstract.sol\":403:845  contract derived is AbstractContract{... */\n          mstore(0x40, 0x80)\n          callvalue\n          dup1\n          iszero\n          tag_1\n          jumpi\n          0x00\n          dup1\n          revert\n        tag_1:\n          pop\n          jumpi(tag_2, lt(calldatasize, 0x04))\n          shr(0xe0, calldataload(0x00))\n          dup1\n          0x1ab06ee5\n          eq\n          tag_3\n          jumpi\n          dup1\n          0x4f2be91f\n          eq\n          tag_4\n          jumpi\n          dup1\n          0x5dcc63fb\n          eq\n          tag_5\n          jumpi\n        tag_2:\n          0x00\n          dup1\n          revert\n            /* \"contracts/Abstract.sol\":661:752  function set(uint _a, uint _b)public override {... */\n        tag_3:\n          tag_6\n          0x04\n          dup1\n          calldatasize\n          sub\n          dup2\n          add\n          swap1\n          tag_7\n          swap2\n          swap1\n          tag_8\n          jump\t// in\n        tag_7:\n          tag_9\n          jump\t// in\n        tag_6:\n          stop\n            /* \"contracts/Abstract.sol\":758:842  function add()public view override returns(uint ){... */\n        tag_4:\n          tag_10\n          tag_11\n          jump\t// in\n        tag_10:\n          mload(0x40)\n          tag_12\n          swap2\n          swap1\n          tag_13\n          jump\t// in\n        tag_12:\n          mload(0x40)\n          dup1\n          swap2\n          sub\n          swap1\n          return\n            /* \"contracts/Abstract.sol\":541:652  function getstring(string memory _str)public pure override returns(string memory){... */\n        tag_5:\n          tag_14\n          0x04\n          dup1\n          calldatasize\n          sub\n          dup2\n          add\n          swap1\n          tag_15\n          swap2\n          swap1\n          tag_16\n          jump\t// in\n        tag_15:\n          tag_17\n          jump\t// in\n        tag_14:\n          mload(0x40)\n          tag_18\n          swap2\n          swap1\n          tag_19\n          jump\t// in\n        tag_18:\n          mload(0x40)\n          dup1\n          swap2\n          sub\n          swap1\n          return\n            /* \"contracts/Abstract.sol\":661:752  function set(uint _a, uint _b)public override {... */\n        tag_9:\n            /* \"contracts/Abstract.sol\":723:725  _a */\n          dup2\n            /* \"contracts/Abstract.sol\":718:722  num1 */\n          0x00\n            /* \"contracts/Abstract.sol\":718:725  num1=_a */\n          dup2\n          swap1\n          sstore\n          pop\n            /* \"contracts/Abstract.sol\":741:743  _b */\n          dup1\n            /* \"contracts/Abstract.sol\":736:740  num2 */\n          0x01\n            /* \"contracts/Abstract.sol\":736:743  num2=_b */\n          dup2\n          swap1\n          sstore\n          pop\n            /* \"contracts/Abstract.sol\":661:752  function set(uint _a, uint _b)public override {... */\n          pop\n          pop\n          jump\t// out\n            /* \"contracts/Abstract.sol\":758:842  function add()public view override returns(uint ){... */\n        tag_11:\n            /* \"contracts/Abstract.sol\":801:805  uint */\n          0x00\n            /* \"contracts/Abstract.sol\":830:834  num2 */\n          sload(0x01)\n            /* \"contracts/Abstract.sol\":825:829  num1 */\n          sload(0x00)\n            /* \"contracts/Abstract.sol\":825:834  num1+num2 */\n          tag_22\n          swap2\n          swap1\n          tag_23\n          jump\t// in\n        tag_22:\n            /* \"contracts/Abstract.sol\":818:834  return num1+num2 */\n          swap1\n          pop\n            /* \"contracts/Abstract.sol\":758:842  function add()public view override returns(uint ){... */\n          swap1\n          jump\t// out\n            /* \"contracts/Abstract.sol\":541:652  function getstring(string memory _str)public pure override returns(string memory){... */\n        tag_17:\n            /* \"contracts/Abstract.sol\":608:621  string memory */\n          0x60\n            /* \"contracts/Abstract.sol\":640:644  _str */\n          dup2\n            /* \"contracts/Abstract.sol\":633:644  return _str */\n          swap1\n          pop\n            /* \"contracts/Abstract.sol\":541:652  function getstring(string memory _str)public pure override returns(string memory){... */\n          swap2\n          swap1\n          pop\n          jump\t// out\n            /* \"#utility.yul\":7:82   */\n        tag_25:\n            /* \"#utility.yul\":40:46   */\n          0x00\n            /* \"#utility.yul\":73:75   */\n          0x40\n            /* \"#utility.yul\":67:76   */\n          mload\n            /* \"#utility.yul\":57:76   */\n          swap1\n          pop\n            /* \"#utility.yul\":7:82   */\n          swap1\n          jump\t// out\n            /* \"#utility.yul\":88:205   */\n        tag_26:\n            /* \"#utility.yul\":197:198   */\n          0x00\n            /* \"#utility.yul\":194:195   */\n          dup1\n            /* \"#utility.yul\":187:199   */\n          revert\n            /* \"#utility.yul\":211:328   */\n        tag_27:\n            /* \"#utility.yul\":320:321   */\n          0x00\n            /* \"#utility.yul\":317:318   */\n          dup1\n            /* \"#utility.yul\":310:322   */\n          revert\n            /* \"#utility.yul\":334:411   */\n        tag_28:\n            /* \"#utility.yul\":371:378   */\n          0x00\n            /* \"#utility.yul\":400:405   */\n          dup2\n            /* \"#utility.yul\":389:405   */\n          swap1\n          pop\n            /* \"#utility.yul\":334:411   */\n          swap2\n          swap1\n          pop\n          jump\t// out\n            /* \"#utility.yul\":417:539   */\n        tag_29:\n            /* \"#utility.yul\":490:514   */\n          tag_53\n            /* \"#utility.yul\":508:513   */\n          dup2\n            /* \"#utility.yul\":490:514   */\n          tag_28\n          jump\t// in\n        tag_53:\n            /* \"#utility.yul\":483:488   */\n          dup2\n            /* \"#utility.yul\":480:515   */\n          eq\n            /* \"#utility.yul\":470:533   */\n          tag_54\n          jumpi\n            /* \"#utility.yul\":529:530   */\n          0x00\n            /* \"#utility.yul\":526:527   */\n          dup1\n            /* \"#utility.yul\":519:531   */\n          revert\n            /* \"#utility.yul\":470:533   */\n        tag_54:\n            /* \"#utility.yul\":417:539   */\n          pop\n          jump\t// out\n            /* \"#utility.yul\":545:684   */\n        tag_30:\n            /* \"#utility.yul\":591:596   */\n          0x00\n            /* \"#utility.yul\":629:635   */\n          dup2\n            /* \"#utility.yul\":616:636   */\n          calldataload\n            /* \"#utility.yul\":607:636   */\n          swap1\n          pop\n            /* \"#utility.yul\":645:678   */\n          tag_56\n            /* \"#utility.yul\":672:677   */\n          dup2\n            /* \"#utility.yul\":645:678   */\n          tag_29\n          jump\t// in\n        tag_56:\n            /* \"#utility.yul\":545:684   */\n          swap3\n          swap2\n          pop\n          pop\n          jump\t// out\n            /* \"#utility.yul\":690:1164   */\n        tag_8:\n            /* \"#utility.yul\":758:764   */\n          0x00\n            /* \"#utility.yul\":766:772   */\n          dup1\n            /* \"#utility.yul\":815:817   */\n          0x40\n            /* \"#utility.yul\":803:812   */\n          dup4\n            /* \"#utility.yul\":794:801   */\n          dup6\n            /* \"#utility.yul\":790:813   */\n          sub\n            /* \"#utility.yul\":786:818   */\n          slt\n            /* \"#utility.yul\":783:902   */\n          iszero\n          tag_58\n          jumpi\n            /* \"#utility.yul\":821:900   */\n          tag_59\n          tag_26\n          jump\t// in\n        tag_59:\n            /* \"#utility.yul\":783:902   */\n        tag_58:\n            /* \"#utility.yul\":941:942   */\n          0x00\n            /* \"#utility.yul\":966:1019   */\n          tag_60\n            /* \"#utility.yul\":1011:1018   */\n          dup6\n            /* \"#utility.yul\":1002:1008   */\n          dup3\n            /* \"#utility.yul\":991:1000   */\n          dup7\n            /* \"#utility.yul\":987:1009   */\n          add\n            /* \"#utility.yul\":966:1019   */\n          tag_30\n          jump\t// in\n        tag_60:\n            /* \"#utility.yul\":956:1019   */\n          swap3\n          pop\n            /* \"#utility.yul\":912:1029   */\n          pop\n            /* \"#utility.yul\":1068:1070   */\n          0x20\n            /* \"#utility.yul\":1094:1147   */\n          tag_61\n            /* \"#utility.yul\":1139:1146   */\n          dup6\n            /* \"#utility.yul\":1130:1136   */\n          dup3\n            /* \"#utility.yul\":1119:1128   */\n          dup7\n            /* \"#utility.yul\":1115:1137   */\n          add\n            /* \"#utility.yul\":1094:1147   */\n          tag_30\n          jump\t// in\n        tag_61:\n            /* \"#utility.yul\":1084:1147   */\n          swap2\n          pop\n            /* \"#utility.yul\":1039:1157   */\n          pop\n            /* \"#utility.yul\":690:1164   */\n          swap3\n          pop\n          swap3\n          swap1\n          pop\n          jump\t// out\n            /* \"#utility.yul\":1170:1288   */\n        tag_31:\n            /* \"#utility.yul\":1257:1281   */\n          tag_63\n            /* \"#utility.yul\":1275:1280   */\n          dup2\n            /* \"#utility.yul\":1257:1281   */\n          tag_28\n          jump\t// in\n        tag_63:\n            /* \"#utility.yul\":1252:1255   */\n          dup3\n            /* \"#utility.yul\":1245:1282   */\n          mstore\n            /* \"#utility.yul\":1170:1288   */\n          pop\n          pop\n          jump\t// out\n            /* \"#utility.yul\":1294:1516   */\n        tag_13:\n            /* \"#utility.yul\":1387:1391   */\n          0x00\n            /* \"#utility.yul\":1425:1427   */\n          0x20\n            /* \"#utility.yul\":1414:1423   */\n          dup3\n            /* \"#utility.yul\":1410:1428   */\n          add\n            /* \"#utility.yul\":1402:1428   */\n          swap1\n          pop\n            /* \"#utility.yul\":1438:1509   */\n          tag_65\n            /* \"#utility.yul\":1506:1507   */\n          0x00\n            /* \"#utility.yul\":1495:1504   */\n          dup4\n            /* \"#utility.yul\":1491:1508   */\n          add\n            /* \"#utility.yul\":1482:1488   */\n          dup5\n            /* \"#utility.yul\":1438:1509   */\n          tag_31\n          jump\t// in\n        tag_65:\n            /* \"#utility.yul\":1294:1516   */\n          swap3\n          swap2\n          pop\n          pop\n          jump\t// out\n            /* \"#utility.yul\":1522:1639   */\n        tag_32:\n            /* \"#utility.yul\":1631:1632   */\n          0x00\n            /* \"#utility.yul\":1628:1629   */\n          dup1\n            /* \"#utility.yul\":1621:1633   */\n          revert\n            /* \"#utility.yul\":1645:1762   */\n        tag_33:\n            /* \"#utility.yul\":1754:1755   */\n          0x00\n            /* \"#utility.yul\":1751:1752   */\n          dup1\n            /* \"#utility.yul\":1744:1756   */\n          revert\n            /* \"#utility.yul\":1768:1870   */\n        tag_34:\n            /* \"#utility.yul\":1809:1815   */\n          0x00\n            /* \"#utility.yul\":1860:1862   */\n          0x1f\n            /* \"#utility.yul\":1856:1863   */\n          not\n            /* \"#utility.yul\":1851:1853   */\n          0x1f\n            /* \"#utility.yul\":1844:1849   */\n          dup4\n            /* \"#utility.yul\":1840:1854   */\n          add\n            /* \"#utility.yul\":1836:1864   */\n          and\n            /* \"#utility.yul\":1826:1864   */\n          swap1\n          pop\n            /* \"#utility.yul\":1768:1870   */\n          swap2\n          swap1\n          pop\n          jump\t// out\n            /* \"#utility.yul\":1876:2056   */\n        tag_35:\n            /* \"#utility.yul\":1924:2001   */\n          0x4e487b7100000000000000000000000000000000000000000000000000000000\n            /* \"#utility.yul\":1921:1922   */\n          0x00\n            /* \"#utility.yul\":1914:2002   */\n          mstore\n            /* \"#utility.yul\":2021:2025   */\n          0x41\n            /* \"#utility.yul\":2018:2019   */\n          0x04\n            /* \"#utility.yul\":2011:2026   */\n          mstore\n            /* \"#utility.yul\":2045:2049   */\n          0x24\n            /* \"#utility.yul\":2042:2043   */\n          0x00\n            /* \"#utility.yul\":2035:2050   */\n          revert\n            /* \"#utility.yul\":2062:2343   */\n        tag_36:\n            /* \"#utility.yul\":2145:2172   */\n          tag_71\n            /* \"#utility.yul\":2167:2171   */\n          dup3\n            /* \"#utility.yul\":2145:2172   */\n          tag_34\n          jump\t// in\n        tag_71:\n            /* \"#utility.yul\":2137:2143   */\n          dup2\n            /* \"#utility.yul\":2133:2173   */\n          add\n            /* \"#utility.yul\":2275:2281   */\n          dup2\n            /* \"#utility.yul\":2263:2273   */\n          dup2\n            /* \"#utility.yul\":2260:2282   */\n          lt\n            /* \"#utility.yul\":2239:2257   */\n          0xffffffffffffffff\n            /* \"#utility.yul\":2227:2237   */\n          dup3\n            /* \"#utility.yul\":2224:2258   */\n          gt\n            /* \"#utility.yul\":2221:2283   */\n          or\n            /* \"#utility.yul\":2218:2306   */\n          iszero\n          tag_72\n          jumpi\n            /* \"#utility.yul\":2286:2304   */\n          tag_73\n          tag_35\n          jump\t// in\n        tag_73:\n            /* \"#utility.yul\":2218:2306   */\n        tag_72:\n            /* \"#utility.yul\":2326:2336   */\n          dup1\n            /* \"#utility.yul\":2322:2324   */\n          0x40\n            /* \"#utility.yul\":2315:2337   */\n          mstore\n            /* \"#utility.yul\":2105:2343   */\n          pop\n            /* \"#utility.yul\":2062:2343   */\n          pop\n          pop\n          jump\t// out\n            /* \"#utility.yul\":2349:2478   */\n        tag_37:\n            /* \"#utility.yul\":2383:2389   */\n          0x00\n            /* \"#utility.yul\":2410:2430   */\n          tag_75\n          tag_25\n          jump\t// in\n        tag_75:\n            /* \"#utility.yul\":2400:2430   */\n          swap1\n          pop\n            /* \"#utility.yul\":2439:2472   */\n          tag_76\n            /* \"#utility.yul\":2467:2471   */\n          dup3\n            /* \"#utility.yul\":2459:2465   */\n          dup3\n            /* \"#utility.yul\":2439:2472   */\n          tag_36\n          jump\t// in\n        tag_76:\n            /* \"#utility.yul\":2349:2478   */\n          swap2\n          swap1\n          pop\n          jump\t// out\n            /* \"#utility.yul\":2484:2792   */\n        tag_38:\n            /* \"#utility.yul\":2546:2550   */\n          0x00\n            /* \"#utility.yul\":2636:2654   */\n          0xffffffffffffffff\n            /* \"#utility.yul\":2628:2634   */\n          dup3\n            /* \"#utility.yul\":2625:2655   */\n          gt\n            /* \"#utility.yul\":2622:2678   */\n          iszero\n          tag_78\n          jumpi\n            /* \"#utility.yul\":2658:2676   */\n          tag_79\n          tag_35\n          jump\t// in\n        tag_79:\n            /* \"#utility.yul\":2622:2678   */\n        tag_78:\n            /* \"#utility.yul\":2696:2725   */\n          tag_80\n            /* \"#utility.yul\":2718:2724   */\n          dup3\n            /* \"#utility.yul\":2696:2725   */\n          tag_34\n          jump\t// in\n        tag_80:\n            /* \"#utility.yul\":2688:2725   */\n          swap1\n          pop\n            /* \"#utility.yul\":2780:2784   */\n          0x20\n            /* \"#utility.yul\":2774:2778   */\n          dup2\n            /* \"#utility.yul\":2770:2785   */\n          add\n            /* \"#utility.yul\":2762:2785   */\n          swap1\n          pop\n            /* \"#utility.yul\":2484:2792   */\n          swap2\n          swap1\n          pop\n          jump\t// out\n            /* \"#utility.yul\":2798:2944   */\n        tag_39:\n            /* \"#utility.yul\":2895:2901   */\n          dup3\n            /* \"#utility.yul\":2890:2893   */\n          dup2\n            /* \"#utility.yul\":2885:2888   */\n          dup4\n            /* \"#utility.yul\":2872:2902   */\n          calldatacopy\n            /* \"#utility.yul\":2936:2937   */\n          0x00\n            /* \"#utility.yul\":2927:2933   */\n          dup4\n            /* \"#utility.yul\":2922:2925   */\n          dup4\n            /* \"#utility.yul\":2918:2934   */\n          add\n            /* \"#utility.yul\":2911:2938   */\n          mstore\n            /* \"#utility.yul\":2798:2944   */\n          pop\n          pop\n          pop\n          jump\t// out\n            /* \"#utility.yul\":2950:3375   */\n        tag_40:\n            /* \"#utility.yul\":3028:3033   */\n          0x00\n            /* \"#utility.yul\":3053:3119   */\n          tag_83\n            /* \"#utility.yul\":3069:3118   */\n          tag_84\n            /* \"#utility.yul\":3111:3117   */\n          dup5\n            /* \"#utility.yul\":3069:3118   */\n          tag_38\n          jump\t// in\n        tag_84:\n            /* \"#utility.yul\":3053:3119   */\n          tag_37\n          jump\t// in\n        tag_83:\n            /* \"#utility.yul\":3044:3119   */\n          swap1\n          pop\n            /* \"#utility.yul\":3142:3148   */\n          dup3\n            /* \"#utility.yul\":3135:3140   */\n          dup2\n            /* \"#utility.yul\":3128:3149   */\n          mstore\n            /* \"#utility.yul\":3180:3184   */\n          0x20\n            /* \"#utility.yul\":3173:3178   */\n          dup2\n            /* \"#utility.yul\":3169:3185   */\n          add\n            /* \"#utility.yul\":3218:3221   */\n          dup5\n            /* \"#utility.yul\":3209:3215   */\n          dup5\n            /* \"#utility.yul\":3204:3207   */\n          dup5\n            /* \"#utility.yul\":3200:3216   */\n          add\n            /* \"#utility.yul\":3197:3222   */\n          gt\n            /* \"#utility.yul\":3194:3306   */\n          iszero\n          tag_85\n          jumpi\n            /* \"#utility.yul\":3225:3304   */\n          tag_86\n          tag_33\n          jump\t// in\n        tag_86:\n            /* \"#utility.yul\":3194:3306   */\n        tag_85:\n            /* \"#utility.yul\":3315:3369   */\n          tag_87\n            /* \"#utility.yul\":3362:3368   */\n          dup5\n            /* \"#utility.yul\":3357:3360   */\n          dup3\n            /* \"#utility.yul\":3352:3355   */\n          dup6\n            /* \"#utility.yul\":3315:3369   */\n          tag_39\n          jump\t// in\n        tag_87:\n            /* \"#utility.yul\":3034:3375   */\n          pop\n            /* \"#utility.yul\":2950:3375   */\n          swap4\n          swap3\n          pop\n          pop\n          pop\n          jump\t// out\n            /* \"#utility.yul\":3395:3735   */\n        tag_41:\n            /* \"#utility.yul\":3451:3456   */\n          0x00\n            /* \"#utility.yul\":3500:3503   */\n          dup3\n            /* \"#utility.yul\":3493:3497   */\n          0x1f\n            /* \"#utility.yul\":3485:3491   */\n          dup4\n            /* \"#utility.yul\":3481:3498   */\n          add\n            /* \"#utility.yul\":3477:3504   */\n          slt\n            /* \"#utility.yul\":3467:3589   */\n          tag_89\n          jumpi\n            /* \"#utility.yul\":3508:3587   */\n          tag_90\n          tag_32\n          jump\t// in\n        tag_90:\n            /* \"#utility.yul\":3467:3589   */\n        tag_89:\n            /* \"#utility.yul\":3625:3631   */\n          dup2\n            /* \"#utility.yul\":3612:3632   */\n          calldataload\n            /* \"#utility.yul\":3650:3729   */\n          tag_91\n            /* \"#utility.yul\":3725:3728   */\n          dup5\n            /* \"#utility.yul\":3717:3723   */\n          dup3\n            /* \"#utility.yul\":3710:3714   */\n          0x20\n            /* \"#utility.yul\":3702:3708   */\n          dup7\n            /* \"#utility.yul\":3698:3715   */\n          add\n            /* \"#utility.yul\":3650:3729   */\n          tag_40\n          jump\t// in\n        tag_91:\n            /* \"#utility.yul\":3641:3729   */\n          swap2\n          pop\n            /* \"#utility.yul\":3457:3735   */\n          pop\n            /* \"#utility.yul\":3395:3735   */\n          swap3\n          swap2\n          pop\n          pop\n          jump\t// out\n            /* \"#utility.yul\":3741:4250   */\n        tag_16:\n            /* \"#utility.yul\":3810:3816   */\n          0x00\n            /* \"#utility.yul\":3859:3861   */\n          0x20\n            /* \"#utility.yul\":3847:3856   */\n          dup3\n            /* \"#utility.yul\":3838:3845   */\n          dup5\n            /* \"#utility.yul\":3834:3857   */\n          sub\n            /* \"#utility.yul\":3830:3862   */\n          slt\n            /* \"#utility.yul\":3827:3946   */\n          iszero\n          tag_93\n          jumpi\n            /* \"#utility.yul\":3865:3944   */\n          tag_94\n          tag_26\n          jump\t// in\n        tag_94:\n            /* \"#utility.yul\":3827:3946   */\n        tag_93:\n            /* \"#utility.yul\":4013:4014   */\n          0x00\n            /* \"#utility.yul\":4002:4011   */\n          dup3\n            /* \"#utility.yul\":3998:4015   */\n          add\n            /* \"#utility.yul\":3985:4016   */\n          calldataload\n            /* \"#utility.yul\":4043:4061   */\n          0xffffffffffffffff\n            /* \"#utility.yul\":4035:4041   */\n          dup2\n            /* \"#utility.yul\":4032:4062   */\n          gt\n            /* \"#utility.yul\":4029:4146   */\n          iszero\n          tag_95\n          jumpi\n            /* \"#utility.yul\":4065:4144   */\n          tag_96\n          tag_27\n          jump\t// in\n        tag_96:\n            /* \"#utility.yul\":4029:4146   */\n        tag_95:\n            /* \"#utility.yul\":4170:4233   */\n          tag_97\n            /* \"#utility.yul\":4225:4232   */\n          dup5\n            /* \"#utility.yul\":4216:4222   */\n          dup3\n            /* \"#utility.yul\":4205:4214   */\n          dup6\n            /* \"#utility.yul\":4201:4223   */\n          add\n            /* \"#utility.yul\":4170:4233   */\n          tag_41\n          jump\t// in\n        tag_97:\n            /* \"#utility.yul\":4160:4233   */\n          swap2\n          pop\n            /* \"#utility.yul\":3956:4243   */\n          pop\n            /* \"#utility.yul\":3741:4250   */\n          swap3\n          swap2\n          pop\n          pop\n          jump\t// out\n            /* \"#utility.yul\":4256:4355   */\n        tag_42:\n            /* \"#utility.yul\":4308:4314   */\n          0x00\n            /* \"#utility.yul\":4342:4347   */\n          dup2\n            /* \"#utility.yul\":4336:4348   */\n          mload\n            /* \"#utility.yul\":4326:4348   */\n          swap1\n          pop\n            /* \"#utility.yul\":4256:4355   */\n          swap2\n          swap1\n          pop\n          jump\t// out\n            /* \"#utility.yul\":4361:4530   */\n        tag_43:\n            /* \"#utility.yul\":4445:4456   */\n          0x00\n            /* \"#utility.yul\":4479:4485   */\n          dup3\n            /* \"#utility.yul\":4474:4477   */\n          dup3\n            /* \"#utility.yul\":4467:4486   */\n          mstore\n            /* \"#utility.yul\":4519:4523   */\n          0x20\n            /* \"#utility.yul\":4514:4517   */\n          dup3\n            /* \"#utility.yul\":4510:4524   */\n          add\n            /* \"#utility.yul\":4495:4524   */\n          swap1\n          pop\n            /* \"#utility.yul\":4361:4530   */\n          swap3\n          swap2\n          pop\n          pop\n          jump\t// out\n            /* \"#utility.yul\":4536:4782   */\n        tag_44:\n            /* \"#utility.yul\":4617:4618   */\n          0x00\n            /* \"#utility.yul\":4627:4740   */\n        tag_101:\n            /* \"#utility.yul\":4641:4647   */\n          dup4\n            /* \"#utility.yul\":4638:4639   */\n          dup2\n            /* \"#utility.yul\":4635:4648   */\n          lt\n            /* \"#utility.yul\":4627:4740   */\n          iszero\n          tag_103\n          jumpi\n            /* \"#utility.yul\":4726:4727   */\n          dup1\n            /* \"#utility.yul\":4721:4724   */\n          dup3\n            /* \"#utility.yul\":4717:4728   */\n          add\n            /* \"#utility.yul\":4711:4729   */\n          mload\n            /* \"#utility.yul\":4707:4708   */\n          dup2\n            /* \"#utility.yul\":4702:4705   */\n          dup5\n            /* \"#utility.yul\":4698:4709   */\n          add\n            /* \"#utility.yul\":4691:4730   */\n          mstore\n            /* \"#utility.yul\":4663:4665   */\n          0x20\n            /* \"#utility.yul\":4660:4661   */\n          dup2\n            /* \"#utility.yul\":4656:4666   */\n          add\n            /* \"#utility.yul\":4651:4666   */\n          swap1\n          pop\n            /* \"#utility.yul\":4627:4740   */\n          jump(tag_101)\n        tag_103:\n            /* \"#utility.yul\":4774:4775   */\n          0x00\n            /* \"#utility.yul\":4765:4771   */\n          dup5\n            /* \"#utility.yul\":4760:4763   */\n          dup5\n            /* \"#utility.yul\":4756:4772   */\n          add\n            /* \"#utility.yul\":4749:4776   */\n          mstore\n            /* \"#utility.yul\":4598:4782   */\n          pop\n            /* \"#utility.yul\":4536:4782   */\n          pop\n          pop\n          pop\n          jump\t// out\n            /* \"#utility.yul\":4788:5165   */\n        tag_45:\n            /* \"#utility.yul\":4876:4879   */\n          0x00\n            /* \"#utility.yul\":4904:4943   */\n          tag_105\n            /* \"#utility.yul\":4937:4942   */\n          dup3\n            /* \"#utility.yul\":4904:4943   */\n          tag_42\n          jump\t// in\n        tag_105:\n            /* \"#utility.yul\":4959:5030   */\n          tag_106\n            /* \"#utility.yul\":5023:5029   */\n          dup2\n            /* \"#utility.yul\":5018:5021   */\n          dup6\n            /* \"#utility.yul\":4959:5030   */\n          tag_43\n          jump\t// in\n        tag_106:\n            /* \"#utility.yul\":4952:5030   */\n          swap4\n          pop\n            /* \"#utility.yul\":5039:5104   */\n          tag_107\n            /* \"#utility.yul\":5097:5103   */\n          dup2\n            /* \"#utility.yul\":5092:5095   */\n          dup6\n            /* \"#utility.yul\":5085:5089   */\n          0x20\n            /* \"#utility.yul\":5078:5083   */\n          dup7\n            /* \"#utility.yul\":5074:5090   */\n          add\n            /* \"#utility.yul\":5039:5104   */\n          tag_44\n          jump\t// in\n        tag_107:\n            /* \"#utility.yul\":5129:5158   */\n          tag_108\n            /* \"#utility.yul\":5151:5157   */\n          dup2\n            /* \"#utility.yul\":5129:5158   */\n          tag_34\n          jump\t// in\n        tag_108:\n            /* \"#utility.yul\":5124:5127   */\n          dup5\n            /* \"#utility.yul\":5120:5159   */\n          add\n            /* \"#utility.yul\":5113:5159   */\n          swap2\n          pop\n            /* \"#utility.yul\":4880:5165   */\n          pop\n            /* \"#utility.yul\":4788:5165   */\n          swap3\n          swap2\n          pop\n          pop\n          jump\t// out\n            /* \"#utility.yul\":5171:5484   */\n        tag_19:\n            /* \"#utility.yul\":5284:5288   */\n          0x00\n            /* \"#utility.yul\":5322:5324   */\n          0x20\n            /* \"#utility.yul\":5311:5320   */\n          dup3\n            /* \"#utility.yul\":5307:5325   */\n          add\n            /* \"#utility.yul\":5299:5325   */\n          swap1\n          pop\n            /* \"#utility.yul\":5371:5380   */\n          dup2\n            /* \"#utility.yul\":5365:5369   */\n          dup2\n            /* \"#utility.yul\":5361:5381   */\n          sub\n            /* \"#utility.yul\":5357:5358   */\n          0x00\n            /* \"#utility.yul\":5346:5355   */\n          dup4\n            /* \"#utility.yul\":5342:5359   */\n          add\n            /* \"#utility.yul\":5335:5382   */\n          mstore\n            /* \"#utility.yul\":5399:5477   */\n          tag_110\n            /* \"#utility.yul\":5472:5476   */\n          dup2\n            /* \"#utility.yul\":5463:5469   */\n          dup5\n            /* \"#utility.yul\":5399:5477   */\n          tag_45\n          jump\t// in\n        tag_110:\n            /* \"#utility.yul\":5391:5477   */\n          swap1\n          pop\n            /* \"#utility.yul\":5171:5484   */\n          swap3\n          swap2\n          pop\n          pop\n          jump\t// out\n            /* \"#utility.yul\":5490:5670   */\n        tag_46:\n            /* \"#utility.yul\":5538:5615   */\n          0x4e487b7100000000000000000000000000000000000000000000000000000000\n            /* \"#utility.yul\":5535:5536   */\n          0x00\n            /* \"#utility.yul\":5528:5616   */\n          mstore\n            /* \"#utility.yul\":5635:5639   */\n          0x11\n            /* \"#utility.yul\":5632:5633   */\n          0x04\n            /* \"#utility.yul\":5625:5640   */\n          mstore\n            /* \"#utility.yul\":5659:5663   */\n          0x24\n            /* \"#utility.yul\":5656:5657   */\n          0x00\n            /* \"#utility.yul\":5649:5664   */\n          revert\n            /* \"#utility.yul\":5676:5867   */\n        tag_23:\n            /* \"#utility.yul\":5716:5719   */\n          0x00\n            /* \"#utility.yul\":5735:5755   */\n          tag_113\n            /* \"#utility.yul\":5753:5754   */\n          dup3\n            /* \"#utility.yul\":5735:5755   */\n          tag_28\n          jump\t// in\n        tag_113:\n            /* \"#utility.yul\":5730:5755   */\n          swap2\n          pop\n            /* \"#utility.yul\":5769:5789   */\n          tag_114\n            /* \"#utility.yul\":5787:5788   */\n          dup4\n            /* \"#utility.yul\":5769:5789   */\n          tag_28\n          jump\t// in\n        tag_114:\n            /* \"#utility.yul\":5764:5789   */\n          swap3\n          pop\n            /* \"#utility.yul\":5812:5813   */\n          dup3\n            /* \"#utility.yul\":5809:5810   */\n          dup3\n            /* \"#utility.yul\":5805:5814   */\n          add\n            /* \"#utility.yul\":5798:5814   */\n          swap1\n          pop\n            /* \"#utility.yul\":5833:5836   */\n          dup1\n            /* \"#utility.yul\":5830:5831   */\n          dup3\n            /* \"#utility.yul\":5827:5837   */\n          gt\n            /* \"#utility.yul\":5824:5860   */\n          iszero\n          tag_115\n          jumpi\n            /* \"#utility.yul\":5840:5858   */\n          tag_116\n          tag_46\n          jump\t// in\n        tag_116:\n            /* \"#utility.yul\":5824:5860   */\n        tag_115:\n            /* \"#utility.yul\":5676:5867   */\n          swap3\n          swap2\n          pop\n          pop\n          jump\t// out\n\n        auxdata: 0xa2646970667358221220b6e6f5dc8f3567e9272c80f93da14ce8604b425ec56add8c91f08887b685fc8d64736f6c63430008160033\n    }\n}\n",
				"bytecode": {
					"linkReferences": {},
					"object": "608060405234801561000f575f80fd5b5060405161001c9061007a565b604051809103905ff080158015610035573d5f803e3d5ffd5b5060025f6101000a81548173ffffffffffffffffffffffffffffffffffffffff021916908373ffffffffffffffffffffffffffffffffffffffff160217905550610087565b610457806108e383390190565b61084f806100945f395ff3fe608060405234801561000f575f80fd5b506004361061004a575f3560e01c806319eb4a901461004e5780631ab06ee51461006d5780634f2be91f146100895780635dcc63fb146100a7575b5f80fd5b6100566100d7565b604051610064929190610368565b60405180910390f35b610087600480360381019061008291906103d1565b610296565b005b6100916102a7565b60405161009e919061040f565b60405180910390f35b6100c160048036038101906100bc9190610554565b6102bc565b6040516100ce919061059b565b60405180910390f35b60605f60025f9054906101000a900473ffffffffffffffffffffffffffffffffffffffff1673ffffffffffffffffffffffffffffffffffffffff16631ab06ee5600a600b6040518363ffffffff1660e01b8152600401610138929190610636565b5f604051808303815f87803b15801561014f575f80fd5b505af1158015610161573d5f803e3d5ffd5b5050505060025f9054906101000a900473ffffffffffffffffffffffffffffffffffffffff1673ffffffffffffffffffffffffffffffffffffffff16635dcc63fb6040518163ffffffff1660e01b81526004016101bd906106a7565b5f60405180830381865afa1580156101d7573d5f803e3d5ffd5b505050506040513d5f823e3d601f19601f820116820180604052508101906101ff9190610733565b60025f9054906101000a900473ffffffffffffffffffffffffffffffffffffffff1673ffffffffffffffffffffffffffffffffffffffff16634f2be91f6040518163ffffffff1660e01b81526004016020604051808303815f875af115801561026a573d5f803e3d5ffd5b505050506040513d601f19601f8201168201806040525081019061028e919061078e565b915091509091565b815f81905550806001819055505050565b5f6001545f546102b791906107e6565b905090565b6060819050919050565b5f81519050919050565b5f82825260208201905092915050565b5f5b838110156102fd5780820151818401526020810190506102e2565b5f8484015250505050565b5f601f19601f8301169050919050565b5f610322826102c6565b61032c81856102d0565b935061033c8185602086016102e0565b61034581610308565b840191505092915050565b5f819050919050565b61036281610350565b82525050565b5f6040820190508181035f8301526103808185610318565b905061038f6020830184610359565b9392505050565b5f604051905090565b5f80fd5b5f80fd5b6103b081610350565b81146103ba575f80fd5b50565b5f813590506103cb816103a7565b92915050565b5f80604083850312156103e7576103e661039f565b5b5f6103f4858286016103bd565b9250506020610405858286016103bd565b9150509250929050565b5f6020820190506104225f830184610359565b92915050565b5f80fd5b5f80fd5b7f4e487b71000000000000000000000000000000000000000000000000000000005f52604160045260245ffd5b61046682610308565b810181811067ffffffffffffffff8211171561048557610484610430565b5b80604052505050565b5f610497610396565b90506104a3828261045d565b919050565b5f67ffffffffffffffff8211156104c2576104c1610430565b5b6104cb82610308565b9050602081019050919050565b828183375f83830152505050565b5f6104f86104f3846104a8565b61048e565b9050828152602081018484840111156105145761051361042c565b5b61051f8482856104d8565b509392505050565b5f82601f83011261053b5761053a610428565b5b813561054b8482602086016104e6565b91505092915050565b5f602082840312156105695761056861039f565b5b5f82013567ffffffffffffffff811115610586576105856103a3565b5b61059284828501610527565b91505092915050565b5f6020820190508181035f8301526105b38184610318565b905092915050565b5f819050919050565b5f819050919050565b5f6105e76105e26105dd846105bb565b6105c4565b610350565b9050919050565b6105f7816105cd565b82525050565b5f819050919050565b5f61062061061b610616846105fd565b6105c4565b610350565b9050919050565b61063081610606565b82525050565b5f6040820190506106495f8301856105ee565b6106566020830184610627565b9392505050565b7f736861686e696c736861726d61000000000000000000000000000000000000005f82015250565b5f610691600d836102d0565b915061069c8261065d565b602082019050919050565b5f6020820190508181035f8301526106be81610685565b9050919050565b5f6106d76106d2846104a8565b61048e565b9050828152602081018484840111156106f3576106f261042c565b5b6106fe8482856102e0565b509392505050565b5f82601f83011261071a57610719610428565b5b815161072a8482602086016106c5565b91505092915050565b5f602082840312156107485761074761039f565b5b5f82015167ffffffffffffffff811115610765576107646103a3565b5b61077184828501610706565b91505092915050565b5f81519050610788816103a7565b92915050565b5f602082840312156107a3576107a261039f565b5b5f6107b08482850161077a565b91505092915050565b7f4e487b71000000000000000000000000000000000000000000000000000000005f52601160045260245ffd5b5f6107f082610350565b91506107fb83610350565b9250828201905080821115610813576108126107b9565b5b9291505056fea2646970667358221220c66cebd3a50e739bf8086d2c4e711dd7cfb4b4eeca981d4c92ee2b90a94b1add64736f6c63430008160033608060405234801561000f575f80fd5b5061043a8061001d5f395ff3fe608060405234801561000f575f80fd5b506004361061003f575f3560e01c80631ab06ee5146100435780634f2be91f1461005f5780635dcc63fb1461007d575b5f80fd5b61005d60048036038101906100589190610121565b6100ad565b005b6100676100be565b604051610074919061016e565b60405180910390f35b610097600480360381019061009291906102c3565b6100d3565b6040516100a49190610384565b60405180910390f35b815f81905550806001819055505050565b5f6001545f546100ce91906103d1565b905090565b6060819050919050565b5f604051905090565b5f80fd5b5f80fd5b5f819050919050565b610100816100ee565b811461010a575f80fd5b50565b5f8135905061011b816100f7565b92915050565b5f8060408385031215610137576101366100e6565b5b5f6101448582860161010d565b92505060206101558582860161010d565b9150509250929050565b610168816100ee565b82525050565b5f6020820190506101815f83018461015f565b92915050565b5f80fd5b5f80fd5b5f601f19601f8301169050919050565b7f4e487b71000000000000000000000000000000000000000000000000000000005f52604160045260245ffd5b6101d58261018f565b810181811067ffffffffffffffff821117156101f4576101f361019f565b5b80604052505050565b5f6102066100dd565b905061021282826101cc565b919050565b5f67ffffffffffffffff8211156102315761023061019f565b5b61023a8261018f565b9050602081019050919050565b828183375f83830152505050565b5f61026761026284610217565b6101fd565b9050828152602081018484840111156102835761028261018b565b5b61028e848285610247565b509392505050565b5f82601f8301126102aa576102a9610187565b5b81356102ba848260208601610255565b91505092915050565b5f602082840312156102d8576102d76100e6565b5b5f82013567ffffffffffffffff8111156102f5576102f46100ea565b5b61030184828501610296565b91505092915050565b5f81519050919050565b5f82825260208201905092915050565b5f5b83811015610341578082015181840152602081019050610326565b5f8484015250505050565b5f6103568261030a565b6103608185610314565b9350610370818560208601610324565b6103798161018f565b840191505092915050565b5f6020820190508181035f83015261039c818461034c565b905092915050565b7f4e487b71000000000000000000000000000000000000000000000000000000005f52601160045260245ffd5b5f6103db826100ee565b91506103e6836100ee565b92508282019050808211156103fe576103fd6103a4565b5b9291505056fea2646970667358221220b6e6f5dc8f3567e9272c80f93da14ce8604b425ec56add8c91f08887b685fc8d64736f6c63430008160033",
					"opcodes": "PUSH1 0x80 PUSH1 0x40 MSTORE CALLVALUE DUP1 ISZERO PUSH2 0xF JUMPI PUSH0 DUP1 REVERT JUMPDEST POP PUSH1 0x40 MLOAD PUSH2 0x1C SWAP1 PUSH2 0x7A JUMP JUMPDEST PUSH1 0x40 MLOAD DUP1 SWAP2 SUB SWAP1 PUSH0 CREATE DUP1 ISZERO DUP1 ISZERO PUSH2 0x35 JUMPI RETURNDATASIZE PUSH0 DUP1 RETURNDATACOPY RETURNDATASIZE PUSH0 REVERT JUMPDEST POP PUSH1 0x2 PUSH0 PUSH2 0x100 EXP DUP2 SLOAD DUP2 PUSH20 0xFFFFFFFFFFFFFFFFFFFFFFFFFFFFFFFFFFFFFFFF MUL NOT AND SWAP1 DUP4 PUSH20 0xFFFFFFFFFFFFFFFFFFFFFFFFFFFFFFFFFFFFFFFF AND MUL OR SWAP1 SSTORE POP PUSH2 0x87 JUMP JUMPDEST PUSH2 0x457 DUP1 PUSH2 0x8E3 DUP4 CODECOPY ADD SWAP1 JUMP JUMPDEST PUSH2 0x84F DUP1 PUSH2 0x94 PUSH0 CODECOPY PUSH0 RETURN INVALID PUSH1 0x80 PUSH1 0x40 MSTORE CALLVALUE DUP1 ISZERO PUSH2 0xF JUMPI PUSH0 DUP1 REVERT JUMPDEST POP PUSH1 0x4 CALLDATASIZE LT PUSH2 0x4A JUMPI PUSH0 CALLDATALOAD PUSH1 0xE0 SHR DUP1 PUSH4 0x19EB4A90 EQ PUSH2 0x4E JUMPI DUP1 PUSH4 0x1AB06EE5 EQ PUSH2 0x6D JUMPI DUP1 PUSH4 0x4F2BE91F EQ PUSH2 0x89 JUMPI DUP1 PUSH4 0x5DCC63FB EQ PUSH2 0xA7 JUMPI JUMPDEST PUSH0 DUP1 REVERT JUMPDEST PUSH2 0x56 PUSH2 0xD7 JUMP JUMPDEST PUSH1 0x40 MLOAD PUSH2 0x64 SWAP3 SWAP2 SWAP1 PUSH2 0x368 JUMP JUMPDEST PUSH1 0x40 MLOAD DUP1 SWAP2 SUB SWAP1 RETURN JUMPDEST PUSH2 0x87 PUSH1 0x4 DUP1 CALLDATASIZE SUB DUP2 ADD SWAP1 PUSH2 0x82 SWAP2 SWAP1 PUSH2 0x3D1 JUMP JUMPDEST PUSH2 0x296 JUMP JUMPDEST STOP JUMPDEST PUSH2 0x91 PUSH2 0x2A7 JUMP JUMPDEST PUSH1 0x40 MLOAD PUSH2 0x9E SWAP2 SWAP1 PUSH2 0x40F JUMP JUMPDEST PUSH1 0x40 MLOAD DUP1 SWAP2 SUB SWAP1 RETURN JUMPDEST PUSH2 0xC1 PUSH1 0x4 DUP1 CALLDATASIZE SUB DUP2 ADD SWAP1 PUSH2 0xBC SWAP2 SWAP1 PUSH2 0x554 JUMP JUMPDEST PUSH2 0x2BC JUMP JUMPDEST PUSH1 0x40 MLOAD PUSH2 0xCE SWAP2 SWAP1 PUSH2 0x59B JUMP JUMPDEST PUSH1 0x40 MLOAD DUP1 SWAP2 SUB SWAP1 RETURN JUMPDEST PUSH1 0x60 PUSH0 PUSH1 0x2 PUSH0 SWAP1 SLOAD SWAP1 PUSH2 0x100 EXP SWAP1 DIV PUSH20 0xFFFFFFFFFFFFFFFFFFFFFFFFFFFFFFFFFFFFFFFF AND PUSH20 0xFFFFFFFFFFFFFFFFFFFFFFFFFFFFFFFFFFFFFFFF AND PUSH4 0x1AB06EE5 PUSH1 0xA PUSH1 0xB PUSH1 0x40 MLOAD DUP4 PUSH4 0xFFFFFFFF AND PUSH1 0xE0 SHL DUP2 MSTORE PUSH1 0x4 ADD PUSH2 0x138 SWAP3 SWAP2 SWAP1 PUSH2 0x636 JUMP JUMPDEST PUSH0 PUSH1 0x40 MLOAD DUP1 DUP4 SUB DUP2 PUSH0 DUP8 DUP1 EXTCODESIZE ISZERO DUP1 ISZERO PUSH2 0x14F JUMPI PUSH0 DUP1 REVERT JUMPDEST POP GAS CALL ISZERO DUP1 ISZERO PUSH2 0x161 JUMPI RETURNDATASIZE PUSH0 DUP1 RETURNDATACOPY RETURNDATASIZE PUSH0 REVERT JUMPDEST POP POP POP POP PUSH1 0x2 PUSH0 SWAP1 SLOAD SWAP1 PUSH2 0x100 EXP SWAP1 DIV PUSH20 0xFFFFFFFFFFFFFFFFFFFFFFFFFFFFFFFFFFFFFFFF AND PUSH20 0xFFFFFFFFFFFFFFFFFFFFFFFFFFFFFFFFFFFFFFFF AND PUSH4 0x5DCC63FB PUSH1 0x40 MLOAD DUP2 PUSH4 0xFFFFFFFF AND PUSH1 0xE0 SHL DUP2 MSTORE PUSH1 0x4 ADD PUSH2 0x1BD SWAP1 PUSH2 0x6A7 JUMP JUMPDEST PUSH0 PUSH1 0x40 MLOAD DUP1 DUP4 SUB DUP2 DUP7 GAS STATICCALL ISZERO DUP1 ISZERO PUSH2 0x1D7 JUMPI RETURNDATASIZE PUSH0 DUP1 RETURNDATACOPY RETURNDATASIZE PUSH0 REVERT JUMPDEST POP POP POP POP PUSH1 0x40 MLOAD RETURNDATASIZE PUSH0 DUP3 RETURNDATACOPY RETURNDATASIZE PUSH1 0x1F NOT PUSH1 0x1F DUP3 ADD AND DUP3 ADD DUP1 PUSH1 0x40 MSTORE POP DUP2 ADD SWAP1 PUSH2 0x1FF SWAP2 SWAP1 PUSH2 0x733 JUMP JUMPDEST PUSH1 0x2 PUSH0 SWAP1 SLOAD SWAP1 PUSH2 0x100 EXP SWAP1 DIV PUSH20 0xFFFFFFFFFFFFFFFFFFFFFFFFFFFFFFFFFFFFFFFF AND PUSH20 0xFFFFFFFFFFFFFFFFFFFFFFFFFFFFFFFFFFFFFFFF AND PUSH4 0x4F2BE91F PUSH1 0x40 MLOAD DUP2 PUSH4 0xFFFFFFFF AND PUSH1 0xE0 SHL DUP2 MSTORE PUSH1 0x4 ADD PUSH1 0x20 PUSH1 0x40 MLOAD DUP1 DUP4 SUB DUP2 PUSH0 DUP8 GAS CALL ISZERO DUP1 ISZERO PUSH2 0x26A JUMPI RETURNDATASIZE PUSH0 DUP1 RETURNDATACOPY RETURNDATASIZE PUSH0 REVERT JUMPDEST POP POP POP POP PUSH1 0x40 MLOAD RETURNDATASIZE PUSH1 0x1F NOT PUSH1 0x1F DUP3 ADD AND DUP3 ADD DUP1 PUSH1 0x40 MSTORE POP DUP2 ADD SWAP1 PUSH2 0x28E SWAP2 SWAP1 PUSH2 0x78E JUMP JUMPDEST SWAP2 POP SWAP2 POP SWAP1 SWAP2 JUMP JUMPDEST DUP2 PUSH0 DUP2 SWAP1 SSTORE POP DUP1 PUSH1 0x1 DUP2 SWAP1 SSTORE POP POP POP JUMP JUMPDEST PUSH0 PUSH1 0x1 SLOAD PUSH0 SLOAD PUSH2 0x2B7 SWAP2 SWAP1 PUSH2 0x7E6 JUMP JUMPDEST SWAP1 POP SWAP1 JUMP JUMPDEST PUSH1 0x60 DUP2 SWAP1 POP SWAP2 SWAP1 POP JUMP JUMPDEST PUSH0 DUP2 MLOAD SWAP1 POP SWAP2 SWAP1 POP JUMP JUMPDEST PUSH0 DUP3 DUP3 MSTORE PUSH1 0x20 DUP3 ADD SWAP1 POP SWAP3 SWAP2 POP POP JUMP JUMPDEST PUSH0 JUMPDEST DUP4 DUP2 LT ISZERO PUSH2 0x2FD JUMPI DUP1 DUP3 ADD MLOAD DUP2 DUP5 ADD MSTORE PUSH1 0x20 DUP2 ADD SWAP1 POP PUSH2 0x2E2 JUMP JUMPDEST PUSH0 DUP5 DUP5 ADD MSTORE POP POP POP POP JUMP JUMPDEST PUSH0 PUSH1 0x1F NOT PUSH1 0x1F DUP4 ADD AND SWAP1 POP SWAP2 SWAP1 POP JUMP JUMPDEST PUSH0 PUSH2 0x322 DUP3 PUSH2 0x2C6 JUMP JUMPDEST PUSH2 0x32C DUP2 DUP6 PUSH2 0x2D0 JUMP JUMPDEST SWAP4 POP PUSH2 0x33C DUP2 DUP6 PUSH1 0x20 DUP7 ADD PUSH2 0x2E0 JUMP JUMPDEST PUSH2 0x345 DUP2 PUSH2 0x308 JUMP JUMPDEST DUP5 ADD SWAP2 POP POP SWAP3 SWAP2 POP POP JUMP JUMPDEST PUSH0 DUP2 SWAP1 POP SWAP2 SWAP1 POP JUMP JUMPDEST PUSH2 0x362 DUP2 PUSH2 0x350 JUMP JUMPDEST DUP3 MSTORE POP POP JUMP JUMPDEST PUSH0 PUSH1 0x40 DUP3 ADD SWAP1 POP DUP2 DUP2 SUB PUSH0 DUP4 ADD MSTORE PUSH2 0x380 DUP2 DUP6 PUSH2 0x318 JUMP JUMPDEST SWAP1 POP PUSH2 0x38F PUSH1 0x20 DUP4 ADD DUP5 PUSH2 0x359 JUMP JUMPDEST SWAP4 SWAP3 POP POP POP JUMP JUMPDEST PUSH0 PUSH1 0x40 MLOAD SWAP1 POP SWAP1 JUMP JUMPDEST PUSH0 DUP1 REVERT JUMPDEST PUSH0 DUP1 REVERT JUMPDEST PUSH2 0x3B0 DUP2 PUSH2 0x350 JUMP JUMPDEST DUP2 EQ PUSH2 0x3BA JUMPI PUSH0 DUP1 REVERT JUMPDEST POP JUMP JUMPDEST PUSH0 DUP2 CALLDATALOAD SWAP1 POP PUSH2 0x3CB DUP2 PUSH2 0x3A7 JUMP JUMPDEST SWAP3 SWAP2 POP POP JUMP JUMPDEST PUSH0 DUP1 PUSH1 0x40 DUP4 DUP6 SUB SLT ISZERO PUSH2 0x3E7 JUMPI PUSH2 0x3E6 PUSH2 0x39F JUMP JUMPDEST JUMPDEST PUSH0 PUSH2 0x3F4 DUP6 DUP3 DUP7 ADD PUSH2 0x3BD JUMP JUMPDEST SWAP3 POP POP PUSH1 0x20 PUSH2 0x405 DUP6 DUP3 DUP7 ADD PUSH2 0x3BD JUMP JUMPDEST SWAP2 POP POP SWAP3 POP SWAP3 SWAP1 POP JUMP JUMPDEST PUSH0 PUSH1 0x20 DUP3 ADD SWAP1 POP PUSH2 0x422 PUSH0 DUP4 ADD DUP5 PUSH2 0x359 JUMP JUMPDEST SWAP3 SWAP2 POP POP JUMP JUMPDEST PUSH0 DUP1 REVERT JUMPDEST PUSH0 DUP1 REVERT JUMPDEST PUSH32 0x4E487B7100000000000000000000000000000000000000000000000000000000 PUSH0 MSTORE PUSH1 0x41 PUSH1 0x4 MSTORE PUSH1 0x24 PUSH0 REVERT JUMPDEST PUSH2 0x466 DUP3 PUSH2 0x308 JUMP JUMPDEST DUP2 ADD DUP2 DUP2 LT PUSH8 0xFFFFFFFFFFFFFFFF DUP3 GT OR ISZERO PUSH2 0x485 JUMPI PUSH2 0x484 PUSH2 0x430 JUMP JUMPDEST JUMPDEST DUP1 PUSH1 0x40 MSTORE POP POP POP JUMP JUMPDEST PUSH0 PUSH2 0x497 PUSH2 0x396 JUMP JUMPDEST SWAP1 POP PUSH2 0x4A3 DUP3 DUP3 PUSH2 0x45D JUMP JUMPDEST SWAP2 SWAP1 POP JUMP JUMPDEST PUSH0 PUSH8 0xFFFFFFFFFFFFFFFF DUP3 GT ISZERO PUSH2 0x4C2 JUMPI PUSH2 0x4C1 PUSH2 0x430 JUMP JUMPDEST JUMPDEST PUSH2 0x4CB DUP3 PUSH2 0x308 JUMP JUMPDEST SWAP1 POP PUSH1 0x20 DUP2 ADD SWAP1 POP SWAP2 SWAP1 POP JUMP JUMPDEST DUP3 DUP2 DUP4 CALLDATACOPY PUSH0 DUP4 DUP4 ADD MSTORE POP POP POP JUMP JUMPDEST PUSH0 PUSH2 0x4F8 PUSH2 0x4F3 DUP5 PUSH2 0x4A8 JUMP JUMPDEST PUSH2 0x48E JUMP JUMPDEST SWAP1 POP DUP3 DUP2 MSTORE PUSH1 0x20 DUP2 ADD DUP5 DUP5 DUP5 ADD GT ISZERO PUSH2 0x514 JUMPI PUSH2 0x513 PUSH2 0x42C JUMP JUMPDEST JUMPDEST PUSH2 0x51F DUP5 DUP3 DUP6 PUSH2 0x4D8 JUMP JUMPDEST POP SWAP4 SWAP3 POP POP POP JUMP JUMPDEST PUSH0 DUP3 PUSH1 0x1F DUP4 ADD SLT PUSH2 0x53B JUMPI PUSH2 0x53A PUSH2 0x428 JUMP JUMPDEST JUMPDEST DUP2 CALLDATALOAD PUSH2 0x54B DUP5 DUP3 PUSH1 0x20 DUP7 ADD PUSH2 0x4E6 JUMP JUMPDEST SWAP2 POP POP SWAP3 SWAP2 POP POP JUMP JUMPDEST PUSH0 PUSH1 0x20 DUP3 DUP5 SUB SLT ISZERO PUSH2 0x569 JUMPI PUSH2 0x568 PUSH2 0x39F JUMP JUMPDEST JUMPDEST PUSH0 DUP3 ADD CALLDATALOAD PUSH8 0xFFFFFFFFFFFFFFFF DUP2 GT ISZERO PUSH2 0x586 JUMPI PUSH2 0x585 PUSH2 0x3A3 JUMP JUMPDEST JUMPDEST PUSH2 0x592 DUP5 DUP3 DUP6 ADD PUSH2 0x527 JUMP JUMPDEST SWAP2 POP POP SWAP3 SWAP2 POP POP JUMP JUMPDEST PUSH0 PUSH1 0x20 DUP3 ADD SWAP1 POP DUP2 DUP2 SUB PUSH0 DUP4 ADD MSTORE PUSH2 0x5B3 DUP2 DUP5 PUSH2 0x318 JUMP JUMPDEST SWAP1 POP SWAP3 SWAP2 POP POP JUMP JUMPDEST PUSH0 DUP2 SWAP1 POP SWAP2 SWAP1 POP JUMP JUMPDEST PUSH0 DUP2 SWAP1 POP SWAP2 SWAP1 POP JUMP JUMPDEST PUSH0 PUSH2 0x5E7 PUSH2 0x5E2 PUSH2 0x5DD DUP5 PUSH2 0x5BB JUMP JUMPDEST PUSH2 0x5C4 JUMP JUMPDEST PUSH2 0x350 JUMP JUMPDEST SWAP1 POP SWAP2 SWAP1 POP JUMP JUMPDEST PUSH2 0x5F7 DUP2 PUSH2 0x5CD JUMP JUMPDEST DUP3 MSTORE POP POP JUMP JUMPDEST PUSH0 DUP2 SWAP1 POP SWAP2 SWAP1 POP JUMP JUMPDEST PUSH0 PUSH2 0x620 PUSH2 0x61B PUSH2 0x616 DUP5 PUSH2 0x5FD JUMP JUMPDEST PUSH2 0x5C4 JUMP JUMPDEST PUSH2 0x350 JUMP JUMPDEST SWAP1 POP SWAP2 SWAP1 POP JUMP JUMPDEST PUSH2 0x630 DUP2 PUSH2 0x606 JUMP JUMPDEST DUP3 MSTORE POP POP JUMP JUMPDEST PUSH0 PUSH1 0x40 DUP3 ADD SWAP1 POP PUSH2 0x649 PUSH0 DUP4 ADD DUP6 PUSH2 0x5EE JUMP JUMPDEST PUSH2 0x656 PUSH1 0x20 DUP4 ADD DUP5 PUSH2 0x627 JUMP JUMPDEST SWAP4 SWAP3 POP POP POP JUMP JUMPDEST PUSH32 0x736861686E696C736861726D6100000000000000000000000000000000000000 PUSH0 DUP3 ADD MSTORE POP JUMP JUMPDEST PUSH0 PUSH2 0x691 PUSH1 0xD DUP4 PUSH2 0x2D0 JUMP JUMPDEST SWAP2 POP PUSH2 0x69C DUP3 PUSH2 0x65D JUMP JUMPDEST PUSH1 0x20 DUP3 ADD SWAP1 POP SWAP2 SWAP1 POP JUMP JUMPDEST PUSH0 PUSH1 0x20 DUP3 ADD SWAP1 POP DUP2 DUP2 SUB PUSH0 DUP4 ADD MSTORE PUSH2 0x6BE DUP2 PUSH2 0x685 JUMP JUMPDEST SWAP1 POP SWAP2 SWAP1 POP JUMP JUMPDEST PUSH0 PUSH2 0x6D7 PUSH2 0x6D2 DUP5 PUSH2 0x4A8 JUMP JUMPDEST PUSH2 0x48E JUMP JUMPDEST SWAP1 POP DUP3 DUP2 MSTORE PUSH1 0x20 DUP2 ADD DUP5 DUP5 DUP5 ADD GT ISZERO PUSH2 0x6F3 JUMPI PUSH2 0x6F2 PUSH2 0x42C JUMP JUMPDEST JUMPDEST PUSH2 0x6FE DUP5 DUP3 DUP6 PUSH2 0x2E0 JUMP JUMPDEST POP SWAP4 SWAP3 POP POP POP JUMP JUMPDEST PUSH0 DUP3 PUSH1 0x1F DUP4 ADD SLT PUSH2 0x71A JUMPI PUSH2 0x719 PUSH2 0x428 JUMP JUMPDEST JUMPDEST DUP2 MLOAD PUSH2 0x72A DUP5 DUP3 PUSH1 0x20 DUP7 ADD PUSH2 0x6C5 JUMP JUMPDEST SWAP2 POP POP SWAP3 SWAP2 POP POP JUMP JUMPDEST PUSH0 PUSH1 0x20 DUP3 DUP5 SUB SLT ISZERO PUSH2 0x748 JUMPI PUSH2 0x747 PUSH2 0x39F JUMP JUMPDEST JUMPDEST PUSH0 DUP3 ADD MLOAD PUSH8 0xFFFFFFFFFFFFFFFF DUP2 GT ISZERO PUSH2 0x765 JUMPI PUSH2 0x764 PUSH2 0x3A3 JUMP JUMPDEST JUMPDEST PUSH2 0x771 DUP5 DUP3 DUP6 ADD PUSH2 0x706 JUMP JUMPDEST SWAP2 POP POP SWAP3 SWAP2 POP POP JUMP JUMPDEST PUSH0 DUP2 MLOAD SWAP1 POP PUSH2 0x788 DUP2 PUSH2 0x3A7 JUMP JUMPDEST SWAP3 SWAP2 POP POP JUMP JUMPDEST PUSH0 PUSH1 0x20 DUP3 DUP5 SUB SLT ISZERO PUSH2 0x7A3 JUMPI PUSH2 0x7A2 PUSH2 0x39F JUMP JUMPDEST JUMPDEST PUSH0 PUSH2 0x7B0 DUP5 DUP3 DUP6 ADD PUSH2 0x77A JUMP JUMPDEST SWAP2 POP POP SWAP3 SWAP2 POP POP JUMP JUMPDEST PUSH32 0x4E487B7100000000000000000000000000000000000000000000000000000000 PUSH0 MSTORE PUSH1 0x11 PUSH1 0x4 MSTORE PUSH1 0x24 PUSH0 REVERT JUMPDEST PUSH0 PUSH2 0x7F0 DUP3 PUSH2 0x350 JUMP JUMPDEST SWAP2 POP PUSH2 0x7FB DUP4 PUSH2 0x350 JUMP JUMPDEST SWAP3 POP DUP3 DUP3 ADD SWAP1 POP DUP1 DUP3 GT ISZERO PUSH2 0x813 JUMPI PUSH2 0x812 PUSH2 0x7B9 JUMP JUMPDEST JUMPDEST SWAP3 SWAP2 POP POP JUMP INVALID LOG2 PUSH5 0x6970667358 0x22 SLT KECCAK256 0xC6 PUSH13 0xEBD3A50E739BF8086D2C4E711D 0xD7 0xCF 0xB4 0xB4 0xEE 0xCA SWAP9 SAR 0x4C SWAP3 0xEE 0x2B SWAP1 0xA9 0x4B BYTE 0xDD PUSH5 0x736F6C6343 STOP ADDMOD AND STOP CALLER PUSH1 0x80 PUSH1 0x40 MSTORE CALLVALUE DUP1 ISZERO PUSH2 0xF JUMPI PUSH0 DUP1 REVERT JUMPDEST POP PUSH2 0x43A DUP1 PUSH2 0x1D PUSH0 CODECOPY PUSH0 RETURN INVALID PUSH1 0x80 PUSH1 0x40 MSTORE CALLVALUE DUP1 ISZERO PUSH2 0xF JUMPI PUSH0 DUP1 REVERT JUMPDEST POP PUSH1 0x4 CALLDATASIZE LT PUSH2 0x3F JUMPI PUSH0 CALLDATALOAD PUSH1 0xE0 SHR DUP1 PUSH4 0x1AB06EE5 EQ PUSH2 0x43 JUMPI DUP1 PUSH4 0x4F2BE91F EQ PUSH2 0x5F JUMPI DUP1 PUSH4 0x5DCC63FB EQ PUSH2 0x7D JUMPI JUMPDEST PUSH0 DUP1 REVERT JUMPDEST PUSH2 0x5D PUSH1 0x4 DUP1 CALLDATASIZE SUB DUP2 ADD SWAP1 PUSH2 0x58 SWAP2 SWAP1 PUSH2 0x121 JUMP JUMPDEST PUSH2 0xAD JUMP JUMPDEST STOP JUMPDEST PUSH2 0x67 PUSH2 0xBE JUMP JUMPDEST PUSH1 0x40 MLOAD PUSH2 0x74 SWAP2 SWAP1 PUSH2 0x16E JUMP JUMPDEST PUSH1 0x40 MLOAD DUP1 SWAP2 SUB SWAP1 RETURN JUMPDEST PUSH2 0x97 PUSH1 0x4 DUP1 CALLDATASIZE SUB DUP2 ADD SWAP1 PUSH2 0x92 SWAP2 SWAP1 PUSH2 0x2C3 JUMP JUMPDEST PUSH2 0xD3 JUMP JUMPDEST PUSH1 0x40 MLOAD PUSH2 0xA4 SWAP2 SWAP1 PUSH2 0x384 JUMP JUMPDEST PUSH1 0x40 MLOAD DUP1 SWAP2 SUB SWAP1 RETURN JUMPDEST DUP2 PUSH0 DUP2 SWAP1 SSTORE POP DUP1 PUSH1 0x1 DUP2 SWAP1 SSTORE POP POP POP JUMP JUMPDEST PUSH0 PUSH1 0x1 SLOAD PUSH0 SLOAD PUSH2 0xCE SWAP2 SWAP1 PUSH2 0x3D1 JUMP JUMPDEST SWAP1 POP SWAP1 JUMP JUMPDEST PUSH1 0x60 DUP2 SWAP1 POP SWAP2 SWAP1 POP JUMP JUMPDEST PUSH0 PUSH1 0x40 MLOAD SWAP1 POP SWAP1 JUMP JUMPDEST PUSH0 DUP1 REVERT JUMPDEST PUSH0 DUP1 REVERT JUMPDEST PUSH0 DUP2 SWAP1 POP SWAP2 SWAP1 POP JUMP JUMPDEST PUSH2 0x100 DUP2 PUSH2 0xEE JUMP JUMPDEST DUP2 EQ PUSH2 0x10A JUMPI PUSH0 DUP1 REVERT JUMPDEST POP JUMP JUMPDEST PUSH0 DUP2 CALLDATALOAD SWAP1 POP PUSH2 0x11B DUP2 PUSH2 0xF7 JUMP JUMPDEST SWAP3 SWAP2 POP POP JUMP JUMPDEST PUSH0 DUP1 PUSH1 0x40 DUP4 DUP6 SUB SLT ISZERO PUSH2 0x137 JUMPI PUSH2 0x136 PUSH2 0xE6 JUMP JUMPDEST JUMPDEST PUSH0 PUSH2 0x144 DUP6 DUP3 DUP7 ADD PUSH2 0x10D JUMP JUMPDEST SWAP3 POP POP PUSH1 0x20 PUSH2 0x155 DUP6 DUP3 DUP7 ADD PUSH2 0x10D JUMP JUMPDEST SWAP2 POP POP SWAP3 POP SWAP3 SWAP1 POP JUMP JUMPDEST PUSH2 0x168 DUP2 PUSH2 0xEE JUMP JUMPDEST DUP3 MSTORE POP POP JUMP JUMPDEST PUSH0 PUSH1 0x20 DUP3 ADD SWAP1 POP PUSH2 0x181 PUSH0 DUP4 ADD DUP5 PUSH2 0x15F JUMP JUMPDEST SWAP3 SWAP2 POP POP JUMP JUMPDEST PUSH0 DUP1 REVERT JUMPDEST PUSH0 DUP1 REVERT JUMPDEST PUSH0 PUSH1 0x1F NOT PUSH1 0x1F DUP4 ADD AND SWAP1 POP SWAP2 SWAP1 POP JUMP JUMPDEST PUSH32 0x4E487B7100000000000000000000000000000000000000000000000000000000 PUSH0 MSTORE PUSH1 0x41 PUSH1 0x4 MSTORE PUSH1 0x24 PUSH0 REVERT JUMPDEST PUSH2 0x1D5 DUP3 PUSH2 0x18F JUMP JUMPDEST DUP2 ADD DUP2 DUP2 LT PUSH8 0xFFFFFFFFFFFFFFFF DUP3 GT OR ISZERO PUSH2 0x1F4 JUMPI PUSH2 0x1F3 PUSH2 0x19F JUMP JUMPDEST JUMPDEST DUP1 PUSH1 0x40 MSTORE POP POP POP JUMP JUMPDEST PUSH0 PUSH2 0x206 PUSH2 0xDD JUMP JUMPDEST SWAP1 POP PUSH2 0x212 DUP3 DUP3 PUSH2 0x1CC JUMP JUMPDEST SWAP2 SWAP1 POP JUMP JUMPDEST PUSH0 PUSH8 0xFFFFFFFFFFFFFFFF DUP3 GT ISZERO PUSH2 0x231 JUMPI PUSH2 0x230 PUSH2 0x19F JUMP JUMPDEST JUMPDEST PUSH2 0x23A DUP3 PUSH2 0x18F JUMP JUMPDEST SWAP1 POP PUSH1 0x20 DUP2 ADD SWAP1 POP SWAP2 SWAP1 POP JUMP JUMPDEST DUP3 DUP2 DUP4 CALLDATACOPY PUSH0 DUP4 DUP4 ADD MSTORE POP POP POP JUMP JUMPDEST PUSH0 PUSH2 0x267 PUSH2 0x262 DUP5 PUSH2 0x217 JUMP JUMPDEST PUSH2 0x1FD JUMP JUMPDEST SWAP1 POP DUP3 DUP2 MSTORE PUSH1 0x20 DUP2 ADD DUP5 DUP5 DUP5 ADD GT ISZERO PUSH2 0x283 JUMPI PUSH2 0x282 PUSH2 0x18B JUMP JUMPDEST JUMPDEST PUSH2 0x28E DUP5 DUP3 DUP6 PUSH2 0x247 JUMP JUMPDEST POP SWAP4 SWAP3 POP POP POP JUMP JUMPDEST PUSH0 DUP3 PUSH1 0x1F DUP4 ADD SLT PUSH2 0x2AA JUMPI PUSH2 0x2A9 PUSH2 0x187 JUMP JUMPDEST JUMPDEST DUP2 CALLDATALOAD PUSH2 0x2BA DUP5 DUP3 PUSH1 0x20 DUP7 ADD PUSH2 0x255 JUMP JUMPDEST SWAP2 POP POP SWAP3 SWAP2 POP POP JUMP JUMPDEST PUSH0 PUSH1 0x20 DUP3 DUP5 SUB SLT ISZERO PUSH2 0x2D8 JUMPI PUSH2 0x2D7 PUSH2 0xE6 JUMP JUMPDEST JUMPDEST PUSH0 DUP3 ADD CALLDATALOAD PUSH8 0xFFFFFFFFFFFFFFFF DUP2 GT ISZERO PUSH2 0x2F5 JUMPI PUSH2 0x2F4 PUSH2 0xEA JUMP JUMPDEST JUMPDEST PUSH2 0x301 DUP5 DUP3 DUP6 ADD PUSH2 0x296 JUMP JUMPDEST SWAP2 POP POP SWAP3 SWAP2 POP POP JUMP JUMPDEST PUSH0 DUP2 MLOAD SWAP1 POP SWAP2 SWAP1 POP JUMP JUMPDEST PUSH0 DUP3 DUP3 MSTORE PUSH1 0x20 DUP3 ADD SWAP1 POP SWAP3 SWAP2 POP POP JUMP JUMPDEST PUSH0 JUMPDEST DUP4 DUP2 LT ISZERO PUSH2 0x341 JUMPI DUP1 DUP3 ADD MLOAD DUP2 DUP5 ADD MSTORE PUSH1 0x20 DUP2 ADD SWAP1 POP PUSH2 0x326 JUMP JUMPDEST PUSH0 DUP5 DUP5 ADD MSTORE POP POP POP POP JUMP JUMPDEST PUSH0 PUSH2 0x356 DUP3 PUSH2 0x30A JUMP JUMPDEST PUSH2 0x360 DUP2 DUP6 PUSH2 0x314 JUMP JUMPDEST SWAP4 POP PUSH2 0x370 DUP2 DUP6 PUSH1 0x20 DUP7 ADD PUSH2 0x324 JUMP JUMPDEST PUSH2 0x379 DUP2 PUSH2 0x18F JUMP JUMPDEST DUP5 ADD SWAP2 POP POP SWAP3 SWAP2 POP POP JUMP JUMPDEST PUSH0 PUSH1 0x20 DUP3 ADD SWAP1 POP DUP2 DUP2 SUB PUSH0 DUP4 ADD MSTORE PUSH2 0x39C DUP2 DUP5 PUSH2 0x34C JUMP JUMPDEST SWAP1 POP SWAP3 SWAP2 POP POP JUMP JUMPDEST PUSH32 0x4E487B7100000000000000000000000000000000000000000000000000000000 PUSH0 MSTORE PUSH1 0x11 PUSH1 0x4 MSTORE PUSH1 0x24 PUSH0 REVERT JUMPDEST PUSH0 PUSH2 0x3DB DUP3 PUSH2 0xEE JUMP JUMPDEST SWAP2 POP PUSH2 0x3E6 DUP4 PUSH2 0xEE JUMP JUMPDEST SWAP3 POP DUP3 DUP3 ADD SWAP1 POP DUP1 DUP3 GT ISZERO PUSH2 0x3FE JUMPI PUSH2 0x3FD PUSH2 0x3A4 JUMP JUMPDEST JUMPDEST SWAP3 SWAP2 POP POP JUMP INVALID LOG2 PUSH5 0x6970667358 0x22 SLT KECCAK256 0xB6 0xE6 CREATE2 0xDC DUP16 CALLDATALOAD PUSH8 0xE9272C80F93DA14C 0xE8 PUSH1 0x4B TIMESTAMP 0x5E 0xC5 PUSH11 0xDD8C91F08887B685FC8D64 PUSH20 0x6F6C634300081600330000000000000000000000 "
				},
				"gasEstimates": {
					"creation": {
						"codeDepositCost": "425400",
						"executionCost": "infinite",
						"totalCost": "infinite"
					},
					"external": {
						"add()": "infinite",
						"getValues()": "infinite",
						"getstring(string)": "infinite",
						"set(uint256,uint256)": "infinite"
					}
				},
				"methodIdentifiers": {
					"add()": "4f2be91f",
					"getValues()": "19eb4a90",
					"getstring(string)": "5dcc63fb",
					"set(uint256,uint256)": "1ab06ee5"
				}
			},
			"storageLayout": {
				"storage": [
					{
						"astId": 27,
						"contract": "contracts/Abstract.sol:Call",
						"label": "num1",
						"offset": 0,
						"slot": "0",
						"type": "t_uint256"
					},
					{
						"astId": 29,
						"contract": "contracts/Abstract.sol:Call",
						"label": "num2",
						"offset": 0,
						"slot": "1",
						"type": "t_uint256"
					},
					{
						"astId": 74,
						"contract": "contracts/Abstract.sol:Call",
						"label": "abs",
						"offset": 0,
						"slot": "2",
						"type": "t_contract(AbstractContract)23"
					}
				],
				"types": {
					"t_contract(AbstractContract)23": {
						"encoding": "inplace",
						"label": "contract AbstractContract",
						"numberOfBytes": "20"
					},
					"t_uint256": {
						"encoding": "inplace",
						"label": "uint256",
						"numberOfBytes": "32"
					}
				}
			},
			"userdoc": {
				"kind": "user",
				"methods": {},
				"version": 1
			}
		}
	}
}