{
	"contracts/interfaceImplimentation.sol": {
		"Call": {
			"abi": [
				{
					"inputs": [],
					"stateMutability": "nonpayable",
					"type": "constructor"
				},
				{
					"inputs": [],
					"name": "add",
					"outputs": [
						{
							"internalType": "uint256",
							"name": "",
							"type": "uint256"
						}
					],
					"stateMutability": "view",
					"type": "function"
				},
				{
					"inputs": [
						{
							"internalType": "uint256",
							"name": "_a",
							"type": "uint256"
						},
						{
							"internalType": "uint256",
							"name": "_b",
							"type": "uint256"
						}
					],
					"name": "getNum",
					"outputs": [],
					"stateMutability": "nonpayable",
					"type": "function"
				},
				{
					"inputs": [],
					"name": "getValues",
					"outputs": [
						{
							"internalType": "string",
							"name": "",
							"type": "string"
						},
						{
							"internalType": "uint256",
							"name": "",
							"type": "uint256"
						}
					],
					"stateMutability": "nonpayable",
					"type": "function"
				},
				{
					"inputs": [
						{
							"internalType": "string",
							"name": "_str",
							"type": "string"
						}
					],
					"name": "getstr",
					"outputs": [
						{
							"internalType": "string",
							"name": "",
							"type": "string"
						}
					],
					"stateMutability": "pure",
					"type": "function"
				}
			],
			"devdoc": {
				"kind": "dev",
				"methods": {},
				"version": 1
			},
			"evm": {
				"assembly": "    /* \"contracts/interfaceImplimentation.sol\":693:1262  contract Call is interfaceImplementation{... */\n  mstore(0x40, 0x80)\n    /* \"contracts/interfaceImplimentation.sol\":953:1020  constructor(){... */\n  callvalue\n  dup1\n  iszero\n  tag_1\n  jumpi\n  0x00\n  dup1\n  revert\ntag_1:\n  pop\n    /* \"contracts/interfaceImplimentation.sol\":983:1012  new interfaceImplementation() */\n  mload(0x40)\n  tag_4\n  swap1\n  tag_5\n  jump\t// in\ntag_4:\n  mload(0x40)\n  dup1\n  swap2\n  sub\n  swap1\n  0x00\n  create\n  dup1\n  iszero\n  dup1\n  iszero\n  tag_6\n  jumpi\n  returndatasize\n  0x00\n  dup1\n  returndatacopy\n  revert(0x00, returndatasize)\ntag_6:\n  pop\n    /* \"contracts/interfaceImplimentation.sol\":977:980  obj */\n  0x02\n  0x00\n    /* \"contracts/interfaceImplimentation.sol\":977:1012  obj = new interfaceImplementation() */\n  0x0100\n  exp\n  dup2\n  sload\n  dup2\n  0xffffffffffffffffffffffffffffffffffffffff\n  mul\n  not\n  and\n  swap1\n  dup4\n  0xffffffffffffffffffffffffffffffffffffffff\n  and\n  mul\n  or\n  swap1\n  sstore\n  pop\n    /* \"contracts/interfaceImplimentation.sol\":693:1262  contract Call is interfaceImplementation{... */\n  jump(tag_7)\ntag_5:\n  dataSize(sub_1)\n  dup1\n  dataOffset(sub_1)\n  dup4\n  codecopy\n  add\n  swap1\n  jump\t// out\ntag_7:\n  dataSize(sub_0)\n  dup1\n  dataOffset(sub_0)\n  0x00\n  codecopy\n  0x00\n  return\nstop\n\nsub_0: assembly {\n        /* \"contracts/interfaceImplimentation.sol\":693:1262  contract Call is interfaceImplementation{... */\n      mstore(0x40, 0x80)\n      callvalue\n      dup1\n      iszero\n      tag_1\n      jumpi\n      0x00\n      dup1\n      revert\n    tag_1:\n      pop\n      jumpi(tag_2, lt(calldatasize, 0x04))\n      shr(0xe0, calldataload(0x00))\n      dup1\n      0x19eb4a90\n      eq\n      tag_3\n      jumpi\n      dup1\n      0x4f2be91f\n      eq\n      tag_4\n      jumpi\n      dup1\n      0x67d498f9\n      eq\n      tag_5\n      jumpi\n      dup1\n      0xce9299bb\n      eq\n      tag_6\n      jumpi\n    tag_2:\n      0x00\n      dup1\n      revert\n        /* \"contracts/interfaceImplimentation.sol\":1105:1257  function getValues()public returns (string memory,uint)... */\n    tag_3:\n      tag_7\n      tag_8\n      jump\t// in\n    tag_7:\n      mload(0x40)\n      tag_9\n      swap3\n      swap2\n      swap1\n      tag_10\n      jump\t// in\n    tag_9:\n      mload(0x40)\n      dup1\n      swap2\n      sub\n      swap1\n      return\n        /* \"contracts/interfaceImplimentation.sol\":600:686  function add()public view  override returns (uint){... */\n    tag_4:\n      tag_11\n      tag_12\n      jump\t// in\n    tag_11:\n      mload(0x40)\n      tag_13\n      swap2\n      swap1\n      tag_14\n      jump\t// in\n    tag_13:\n      mload(0x40)\n      dup1\n      swap2\n      sub\n      swap1\n      return\n        /* \"contracts/interfaceImplimentation.sol\":283:394  function getstr(string memory _str )public pure override returns (string memory){... */\n    tag_5:\n      tag_15\n      0x04\n      dup1\n      calldatasize\n      sub\n      dup2\n      add\n      swap1\n      tag_16\n      swap2\n      swap1\n      tag_17\n      jump\t// in\n    tag_16:\n      tag_18\n      jump\t// in\n    tag_15:\n      mload(0x40)\n      tag_19\n      swap2\n      swap1\n      tag_20\n      jump\t// in\n    tag_19:\n      mload(0x40)\n      dup1\n      swap2\n      sub\n      swap1\n      return\n        /* \"contracts/interfaceImplimentation.sol\":444:537  function getNum(uint _a,uint _b) public override{... */\n    tag_6:\n      tag_21\n      0x04\n      dup1\n      calldatasize\n      sub\n      dup2\n      add\n      swap1\n      tag_22\n      swap2\n      swap1\n      tag_23\n      jump\t// in\n    tag_22:\n      tag_24\n      jump\t// in\n    tag_21:\n      stop\n        /* \"contracts/interfaceImplimentation.sol\":1105:1257  function getValues()public returns (string memory,uint)... */\n    tag_8:\n        /* \"contracts/interfaceImplimentation.sol\":1141:1154  string memory */\n      0x60\n        /* \"contracts/interfaceImplimentation.sol\":1155:1159  uint */\n      0x00\n        /* \"contracts/interfaceImplimentation.sol\":1178:1181  obj */\n      0x02\n      0x00\n      swap1\n      sload\n      swap1\n      0x0100\n      exp\n      swap1\n      div\n      0xffffffffffffffffffffffffffffffffffffffff\n      and\n        /* \"contracts/interfaceImplimentation.sol\":1178:1188  obj.getNum */\n      0xffffffffffffffffffffffffffffffffffffffff\n      and\n      0xce9299bb\n        /* \"contracts/interfaceImplimentation.sol\":1189:1191  11 */\n      0x0b\n        /* \"contracts/interfaceImplimentation.sol\":1193:1195  12 */\n      0x0c\n        /* \"contracts/interfaceImplimentation.sol\":1178:1196  obj.getNum(11, 12) */\n      mload(0x40)\n      dup4\n      0xffffffff\n      and\n      0xe0\n      shl\n      dup2\n      mstore\n      0x04\n      add\n      tag_26\n      swap3\n      swap2\n      swap1\n      tag_27\n      jump\t// in\n    tag_26:\n      0x00\n      mload(0x40)\n      dup1\n      dup4\n      sub\n      dup2\n      0x00\n      dup8\n      dup1\n      extcodesize\n      iszero\n      dup1\n      iszero\n      tag_28\n      jumpi\n      0x00\n      dup1\n      revert\n    tag_28:\n      pop\n      gas\n      call\n      iszero\n      dup1\n      iszero\n      tag_30\n      jumpi\n      returndatasize\n      0x00\n      dup1\n      returndatacopy\n      revert(0x00, returndatasize)\n    tag_30:\n      pop\n      pop\n      pop\n      pop\n        /* \"contracts/interfaceImplimentation.sol\":1216:1219  obj */\n      0x02\n      0x00\n      swap1\n      sload\n      swap1\n      0x0100\n      exp\n      swap1\n      div\n      0xffffffffffffffffffffffffffffffffffffffff\n      and\n        /* \"contracts/interfaceImplimentation.sol\":1216:1226  obj.getstr */\n      0xffffffffffffffffffffffffffffffffffffffff\n      and\n      0x67d498f9\n        /* \"contracts/interfaceImplimentation.sol\":1216:1238  obj.getstr(\"shahnill\") */\n      mload(0x40)\n      dup2\n      0xffffffff\n      and\n      0xe0\n      shl\n      dup2\n      mstore\n      0x04\n      add\n      tag_31\n      swap1\n      tag_32\n      jump\t// in\n    tag_31:\n      0x00\n      mload(0x40)\n      dup1\n      dup4\n      sub\n      dup2\n      0x00\n      dup8\n      gas\n      call\n      iszero\n      dup1\n      iszero\n      tag_34\n      jumpi\n      returndatasize\n      0x00\n      dup1\n      returndatacopy\n      revert(0x00, returndatasize)\n    tag_34:\n      pop\n      pop\n      pop\n      pop\n      mload(0x40)\n      returndatasize\n      0x00\n      dup3\n      returndatacopy\n      returndatasize\n      not(0x1f)\n      0x1f\n      dup3\n      add\n      and\n      dup3\n      add\n      dup1\n      0x40\n      mstore\n      pop\n      dup2\n      add\n      swap1\n      tag_35\n      swap2\n      swap1\n      tag_36\n      jump\t// in\n    tag_35:\n        /* \"contracts/interfaceImplimentation.sol\":1239:1242  obj */\n      0x02\n      0x00\n      swap1\n      sload\n      swap1\n      0x0100\n      exp\n      swap1\n      div\n      0xffffffffffffffffffffffffffffffffffffffff\n      and\n        /* \"contracts/interfaceImplimentation.sol\":1239:1246  obj.add */\n      0xffffffffffffffffffffffffffffffffffffffff\n      and\n      0x4f2be91f\n        /* \"contracts/interfaceImplimentation.sol\":1239:1248  obj.add() */\n      mload(0x40)\n      dup2\n      0xffffffff\n      and\n      0xe0\n      shl\n      dup2\n      mstore\n      0x04\n      add\n      0x20\n      mload(0x40)\n      dup1\n      dup4\n      sub\n      dup2\n      0x00\n      dup8\n      gas\n      call\n      iszero\n      dup1\n      iszero\n      tag_38\n      jumpi\n      returndatasize\n      0x00\n      dup1\n      returndatacopy\n      revert(0x00, returndatasize)\n    tag_38:\n      pop\n      pop\n      pop\n      pop\n      mload(0x40)\n      returndatasize\n      not(0x1f)\n      0x1f\n      dup3\n      add\n      and\n      dup3\n      add\n      dup1\n      0x40\n      mstore\n      pop\n      dup2\n      add\n      swap1\n      tag_39\n      swap2\n      swap1\n      tag_40\n      jump\t// in\n    tag_39:\n        /* \"contracts/interfaceImplimentation.sol\":1208:1249  return (obj.getstr(\"shahnill\"),obj.add()) */\n      swap2\n      pop\n      swap2\n      pop\n        /* \"contracts/interfaceImplimentation.sol\":1105:1257  function getValues()public returns (string memory,uint)... */\n      swap1\n      swap2\n      jump\t// out\n        /* \"contracts/interfaceImplimentation.sol\":600:686  function add()public view  override returns (uint){... */\n    tag_12:\n        /* \"contracts/interfaceImplimentation.sol\":645:649  uint */\n      0x00\n        /* \"contracts/interfaceImplimentation.sol\":673:677  num2 */\n      sload(0x01)\n        /* \"contracts/interfaceImplimentation.sol\":668:672  num1 */\n      sload(0x00)\n        /* \"contracts/interfaceImplimentation.sol\":668:677  num1+num2 */\n      tag_42\n      swap2\n      swap1\n      tag_43\n      jump\t// in\n    tag_42:\n        /* \"contracts/interfaceImplimentation.sol\":660:677  return  num1+num2 */\n      swap1\n      pop\n        /* \"contracts/interfaceImplimentation.sol\":600:686  function add()public view  override returns (uint){... */\n      swap1\n      jump\t// out\n        /* \"contracts/interfaceImplimentation.sol\":283:394  function getstr(string memory _str )public pure override returns (string memory){... */\n    tag_18:\n        /* \"contracts/interfaceImplimentation.sol\":349:362  string memory */\n      0x60\n        /* \"contracts/interfaceImplimentation.sol\":381:385  _str */\n      dup2\n        /* \"contracts/interfaceImplimentation.sol\":374:385  return _str */\n      swap1\n      pop\n        /* \"contracts/interfaceImplimentation.sol\":283:394  function getstr(string memory _str )public pure override returns (string memory){... */\n      swap2\n      swap1\n      pop\n      jump\t// out\n        /* \"contracts/interfaceImplimentation.sol\":444:537  function getNum(uint _a,uint _b) public override{... */\n    tag_24:\n        /* \"contracts/interfaceImplimentation.sol\":508:510  _a */\n      dup2\n        /* \"contracts/interfaceImplimentation.sol\":503:507  num1 */\n      0x00\n        /* \"contracts/interfaceImplimentation.sol\":503:510  num1=_a */\n      dup2\n      swap1\n      sstore\n      pop\n        /* \"contracts/interfaceImplimentation.sol\":526:528  _b */\n      dup1\n        /* \"contracts/interfaceImplimentation.sol\":521:525  num2 */\n      0x01\n        /* \"contracts/interfaceImplimentation.sol\":521:528  num2=_b */\n      dup2\n      swap1\n      sstore\n      pop\n        /* \"contracts/interfaceImplimentation.sol\":444:537  function getNum(uint _a,uint _b) public override{... */\n      pop\n      pop\n      jump\t// out\n        /* \"#utility.yul\":7:106   */\n    tag_46:\n        /* \"#utility.yul\":59:65   */\n      0x00\n        /* \"#utility.yul\":93:98   */\n      dup2\n        /* \"#utility.yul\":87:99   */\n      mload\n        /* \"#utility.yul\":77:99   */\n      swap1\n      pop\n        /* \"#utility.yul\":7:106   */\n      swap2\n      swap1\n      pop\n      jump\t// out\n        /* \"#utility.yul\":112:281   */\n    tag_47:\n        /* \"#utility.yul\":196:207   */\n      0x00\n        /* \"#utility.yul\":230:236   */\n      dup3\n        /* \"#utility.yul\":225:228   */\n      dup3\n        /* \"#utility.yul\":218:237   */\n      mstore\n        /* \"#utility.yul\":270:274   */\n      0x20\n        /* \"#utility.yul\":265:268   */\n      dup3\n        /* \"#utility.yul\":261:275   */\n      add\n        /* \"#utility.yul\":246:275   */\n      swap1\n      pop\n        /* \"#utility.yul\":112:281   */\n      swap3\n      swap2\n      pop\n      pop\n      jump\t// out\n        /* \"#utility.yul\":287:533   */\n    tag_48:\n        /* \"#utility.yul\":368:369   */\n      0x00\n        /* \"#utility.yul\":378:491   */\n    tag_84:\n        /* \"#utility.yul\":392:398   */\n      dup4\n        /* \"#utility.yul\":389:390   */\n      dup2\n        /* \"#utility.yul\":386:399   */\n      lt\n        /* \"#utility.yul\":378:491   */\n      iszero\n      tag_86\n      jumpi\n        /* \"#utility.yul\":477:478   */\n      dup1\n        /* \"#utility.yul\":472:475   */\n      dup3\n        /* \"#utility.yul\":468:479   */\n      add\n        /* \"#utility.yul\":462:480   */\n      mload\n        /* \"#utility.yul\":458:459   */\n      dup2\n        /* \"#utility.yul\":453:456   */\n      dup5\n        /* \"#utility.yul\":449:460   */\n      add\n        /* \"#utility.yul\":442:481   */\n      mstore\n        /* \"#utility.yul\":414:416   */\n      0x20\n        /* \"#utility.yul\":411:412   */\n      dup2\n        /* \"#utility.yul\":407:417   */\n      add\n        /* \"#utility.yul\":402:417   */\n      swap1\n      pop\n        /* \"#utility.yul\":378:491   */\n      jump(tag_84)\n    tag_86:\n        /* \"#utility.yul\":525:526   */\n      0x00\n        /* \"#utility.yul\":516:522   */\n      dup5\n        /* \"#utility.yul\":511:514   */\n      dup5\n        /* \"#utility.yul\":507:523   */\n      add\n        /* \"#utility.yul\":500:527   */\n      mstore\n        /* \"#utility.yul\":349:533   */\n      pop\n        /* \"#utility.yul\":287:533   */\n      pop\n      pop\n      pop\n      jump\t// out\n        /* \"#utility.yul\":539:641   */\n    tag_49:\n        /* \"#utility.yul\":580:586   */\n      0x00\n        /* \"#utility.yul\":631:633   */\n      0x1f\n        /* \"#utility.yul\":627:634   */\n      not\n        /* \"#utility.yul\":622:624   */\n      0x1f\n        /* \"#utility.yul\":615:620   */\n      dup4\n        /* \"#utility.yul\":611:625   */\n      add\n        /* \"#utility.yul\":607:635   */\n      and\n        /* \"#utility.yul\":597:635   */\n      swap1\n      pop\n        /* \"#utility.yul\":539:641   */\n      swap2\n      swap1\n      pop\n      jump\t// out\n        /* \"#utility.yul\":647:1024   */\n    tag_50:\n        /* \"#utility.yul\":735:738   */\n      0x00\n        /* \"#utility.yul\":763:802   */\n      tag_89\n        /* \"#utility.yul\":796:801   */\n      dup3\n        /* \"#utility.yul\":763:802   */\n      tag_46\n      jump\t// in\n    tag_89:\n        /* \"#utility.yul\":818:889   */\n      tag_90\n        /* \"#utility.yul\":882:888   */\n      dup2\n        /* \"#utility.yul\":877:880   */\n      dup6\n        /* \"#utility.yul\":818:889   */\n      tag_47\n      jump\t// in\n    tag_90:\n        /* \"#utility.yul\":811:889   */\n      swap4\n      pop\n        /* \"#utility.yul\":898:963   */\n      tag_91\n        /* \"#utility.yul\":956:962   */\n      dup2\n        /* \"#utility.yul\":951:954   */\n      dup6\n        /* \"#utility.yul\":944:948   */\n      0x20\n        /* \"#utility.yul\":937:942   */\n      dup7\n        /* \"#utility.yul\":933:949   */\n      add\n        /* \"#utility.yul\":898:963   */\n      tag_48\n      jump\t// in\n    tag_91:\n        /* \"#utility.yul\":988:1017   */\n      tag_92\n        /* \"#utility.yul\":1010:1016   */\n      dup2\n        /* \"#utility.yul\":988:1017   */\n      tag_49\n      jump\t// in\n    tag_92:\n        /* \"#utility.yul\":983:986   */\n      dup5\n        /* \"#utility.yul\":979:1018   */\n      add\n        /* \"#utility.yul\":972:1018   */\n      swap2\n      pop\n        /* \"#utility.yul\":739:1024   */\n      pop\n        /* \"#utility.yul\":647:1024   */\n      swap3\n      swap2\n      pop\n      pop\n      jump\t// out\n        /* \"#utility.yul\":1030:1107   */\n    tag_51:\n        /* \"#utility.yul\":1067:1074   */\n      0x00\n        /* \"#utility.yul\":1096:1101   */\n      dup2\n        /* \"#utility.yul\":1085:1101   */\n      swap1\n      pop\n        /* \"#utility.yul\":1030:1107   */\n      swap2\n      swap1\n      pop\n      jump\t// out\n        /* \"#utility.yul\":1113:1231   */\n    tag_52:\n        /* \"#utility.yul\":1200:1224   */\n      tag_95\n        /* \"#utility.yul\":1218:1223   */\n      dup2\n        /* \"#utility.yul\":1200:1224   */\n      tag_51\n      jump\t// in\n    tag_95:\n        /* \"#utility.yul\":1195:1198   */\n      dup3\n        /* \"#utility.yul\":1188:1225   */\n      mstore\n        /* \"#utility.yul\":1113:1231   */\n      pop\n      pop\n      jump\t// out\n        /* \"#utility.yul\":1237:1660   */\n    tag_10:\n        /* \"#utility.yul\":1378:1382   */\n      0x00\n        /* \"#utility.yul\":1416:1418   */\n      0x40\n        /* \"#utility.yul\":1405:1414   */\n      dup3\n        /* \"#utility.yul\":1401:1419   */\n      add\n        /* \"#utility.yul\":1393:1419   */\n      swap1\n      pop\n        /* \"#utility.yul\":1465:1474   */\n      dup2\n        /* \"#utility.yul\":1459:1463   */\n      dup2\n        /* \"#utility.yul\":1455:1475   */\n      sub\n        /* \"#utility.yul\":1451:1452   */\n      0x00\n        /* \"#utility.yul\":1440:1449   */\n      dup4\n        /* \"#utility.yul\":1436:1453   */\n      add\n        /* \"#utility.yul\":1429:1476   */\n      mstore\n        /* \"#utility.yul\":1493:1571   */\n      tag_97\n        /* \"#utility.yul\":1566:1570   */\n      dup2\n        /* \"#utility.yul\":1557:1563   */\n      dup6\n        /* \"#utility.yul\":1493:1571   */\n      tag_50\n      jump\t// in\n    tag_97:\n        /* \"#utility.yul\":1485:1571   */\n      swap1\n      pop\n        /* \"#utility.yul\":1581:1653   */\n      tag_98\n        /* \"#utility.yul\":1649:1651   */\n      0x20\n        /* \"#utility.yul\":1638:1647   */\n      dup4\n        /* \"#utility.yul\":1634:1652   */\n      add\n        /* \"#utility.yul\":1625:1631   */\n      dup5\n        /* \"#utility.yul\":1581:1653   */\n      tag_52\n      jump\t// in\n    tag_98:\n        /* \"#utility.yul\":1237:1660   */\n      swap4\n      swap3\n      pop\n      pop\n      pop\n      jump\t// out\n        /* \"#utility.yul\":1666:1888   */\n    tag_14:\n        /* \"#utility.yul\":1759:1763   */\n      0x00\n        /* \"#utility.yul\":1797:1799   */\n      0x20\n        /* \"#utility.yul\":1786:1795   */\n      dup3\n        /* \"#utility.yul\":1782:1800   */\n      add\n        /* \"#utility.yul\":1774:1800   */\n      swap1\n      pop\n        /* \"#utility.yul\":1810:1881   */\n      tag_100\n        /* \"#utility.yul\":1878:1879   */\n      0x00\n        /* \"#utility.yul\":1867:1876   */\n      dup4\n        /* \"#utility.yul\":1863:1880   */\n      add\n        /* \"#utility.yul\":1854:1860   */\n      dup5\n        /* \"#utility.yul\":1810:1881   */\n      tag_52\n      jump\t// in\n    tag_100:\n        /* \"#utility.yul\":1666:1888   */\n      swap3\n      swap2\n      pop\n      pop\n      jump\t// out\n        /* \"#utility.yul\":1894:1969   */\n    tag_53:\n        /* \"#utility.yul\":1927:1933   */\n      0x00\n        /* \"#utility.yul\":1960:1962   */\n      0x40\n        /* \"#utility.yul\":1954:1963   */\n      mload\n        /* \"#utility.yul\":1944:1963   */\n      swap1\n      pop\n        /* \"#utility.yul\":1894:1969   */\n      swap1\n      jump\t// out\n        /* \"#utility.yul\":1975:2092   */\n    tag_54:\n        /* \"#utility.yul\":2084:2085   */\n      0x00\n        /* \"#utility.yul\":2081:2082   */\n      dup1\n        /* \"#utility.yul\":2074:2086   */\n      revert\n        /* \"#utility.yul\":2098:2215   */\n    tag_55:\n        /* \"#utility.yul\":2207:2208   */\n      0x00\n        /* \"#utility.yul\":2204:2205   */\n      dup1\n        /* \"#utility.yul\":2197:2209   */\n      revert\n        /* \"#utility.yul\":2221:2338   */\n    tag_56:\n        /* \"#utility.yul\":2330:2331   */\n      0x00\n        /* \"#utility.yul\":2327:2328   */\n      dup1\n        /* \"#utility.yul\":2320:2332   */\n      revert\n        /* \"#utility.yul\":2344:2461   */\n    tag_57:\n        /* \"#utility.yul\":2453:2454   */\n      0x00\n        /* \"#utility.yul\":2450:2451   */\n      dup1\n        /* \"#utility.yul\":2443:2455   */\n      revert\n        /* \"#utility.yul\":2467:2647   */\n    tag_58:\n        /* \"#utility.yul\":2515:2592   */\n      0x4e487b7100000000000000000000000000000000000000000000000000000000\n        /* \"#utility.yul\":2512:2513   */\n      0x00\n        /* \"#utility.yul\":2505:2593   */\n      mstore\n        /* \"#utility.yul\":2612:2616   */\n      0x41\n        /* \"#utility.yul\":2609:2610   */\n      0x04\n        /* \"#utility.yul\":2602:2617   */\n      mstore\n        /* \"#utility.yul\":2636:2640   */\n      0x24\n        /* \"#utility.yul\":2633:2634   */\n      0x00\n        /* \"#utility.yul\":2626:2641   */\n      revert\n        /* \"#utility.yul\":2653:2934   */\n    tag_59:\n        /* \"#utility.yul\":2736:2763   */\n      tag_108\n        /* \"#utility.yul\":2758:2762   */\n      dup3\n        /* \"#utility.yul\":2736:2763   */\n      tag_49\n      jump\t// in\n    tag_108:\n        /* \"#utility.yul\":2728:2734   */\n      dup2\n        /* \"#utility.yul\":2724:2764   */\n      add\n        /* \"#utility.yul\":2866:2872   */\n      dup2\n        /* \"#utility.yul\":2854:2864   */\n      dup2\n        /* \"#utility.yul\":2851:2873   */\n      lt\n        /* \"#utility.yul\":2830:2848   */\n      0xffffffffffffffff\n        /* \"#utility.yul\":2818:2828   */\n      dup3\n        /* \"#utility.yul\":2815:2849   */\n      gt\n        /* \"#utility.yul\":2812:2874   */\n      or\n        /* \"#utility.yul\":2809:2897   */\n      iszero\n      tag_109\n      jumpi\n        /* \"#utility.yul\":2877:2895   */\n      tag_110\n      tag_58\n      jump\t// in\n    tag_110:\n        /* \"#utility.yul\":2809:2897   */\n    tag_109:\n        /* \"#utility.yul\":2917:2927   */\n      dup1\n        /* \"#utility.yul\":2913:2915   */\n      0x40\n        /* \"#utility.yul\":2906:2928   */\n      mstore\n        /* \"#utility.yul\":2696:2934   */\n      pop\n        /* \"#utility.yul\":2653:2934   */\n      pop\n      pop\n      jump\t// out\n        /* \"#utility.yul\":2940:3069   */\n    tag_60:\n        /* \"#utility.yul\":2974:2980   */\n      0x00\n        /* \"#utility.yul\":3001:3021   */\n      tag_112\n      tag_53\n      jump\t// in\n    tag_112:\n        /* \"#utility.yul\":2991:3021   */\n      swap1\n      pop\n        /* \"#utility.yul\":3030:3063   */\n      tag_113\n        /* \"#utility.yul\":3058:3062   */\n      dup3\n        /* \"#utility.yul\":3050:3056   */\n      dup3\n        /* \"#utility.yul\":3030:3063   */\n      tag_59\n      jump\t// in\n    tag_113:\n        /* \"#utility.yul\":2940:3069   */\n      swap2\n      swap1\n      pop\n      jump\t// out\n        /* \"#utility.yul\":3075:3383   */\n    tag_61:\n        /* \"#utility.yul\":3137:3141   */\n      0x00\n        /* \"#utility.yul\":3227:3245   */\n      0xffffffffffffffff\n        /* \"#utility.yul\":3219:3225   */\n      dup3\n        /* \"#utility.yul\":3216:3246   */\n      gt\n        /* \"#utility.yul\":3213:3269   */\n      iszero\n      tag_115\n      jumpi\n        /* \"#utility.yul\":3249:3267   */\n      tag_116\n      tag_58\n      jump\t// in\n    tag_116:\n        /* \"#utility.yul\":3213:3269   */\n    tag_115:\n        /* \"#utility.yul\":3287:3316   */\n      tag_117\n        /* \"#utility.yul\":3309:3315   */\n      dup3\n        /* \"#utility.yul\":3287:3316   */\n      tag_49\n      jump\t// in\n    tag_117:\n        /* \"#utility.yul\":3279:3316   */\n      swap1\n      pop\n        /* \"#utility.yul\":3371:3375   */\n      0x20\n        /* \"#utility.yul\":3365:3369   */\n      dup2\n        /* \"#utility.yul\":3361:3376   */\n      add\n        /* \"#utility.yul\":3353:3376   */\n      swap1\n      pop\n        /* \"#utility.yul\":3075:3383   */\n      swap2\n      swap1\n      pop\n      jump\t// out\n        /* \"#utility.yul\":3389:3535   */\n    tag_62:\n        /* \"#utility.yul\":3486:3492   */\n      dup3\n        /* \"#utility.yul\":3481:3484   */\n      dup2\n        /* \"#utility.yul\":3476:3479   */\n      dup4\n        /* \"#utility.yul\":3463:3493   */\n      calldatacopy\n        /* \"#utility.yul\":3527:3528   */\n      0x00\n        /* \"#utility.yul\":3518:3524   */\n      dup4\n        /* \"#utility.yul\":3513:3516   */\n      dup4\n        /* \"#utility.yul\":3509:3525   */\n      add\n        /* \"#utility.yul\":3502:3529   */\n      mstore\n        /* \"#utility.yul\":3389:3535   */\n      pop\n      pop\n      pop\n      jump\t// out\n        /* \"#utility.yul\":3541:3966   */\n    tag_63:\n        /* \"#utility.yul\":3619:3624   */\n      0x00\n        /* \"#utility.yul\":3644:3710   */\n      tag_120\n        /* \"#utility.yul\":3660:3709   */\n      tag_121\n        /* \"#utility.yul\":3702:3708   */\n      dup5\n        /* \"#utility.yul\":3660:3709   */\n      tag_61\n      jump\t// in\n    tag_121:\n        /* \"#utility.yul\":3644:3710   */\n      tag_60\n      jump\t// in\n    tag_120:\n        /* \"#utility.yul\":3635:3710   */\n      swap1\n      pop\n        /* \"#utility.yul\":3733:3739   */\n      dup3\n        /* \"#utility.yul\":3726:3731   */\n      dup2\n        /* \"#utility.yul\":3719:3740   */\n      mstore\n        /* \"#utility.yul\":3771:3775   */\n      0x20\n        /* \"#utility.yul\":3764:3769   */\n      dup2\n        /* \"#utility.yul\":3760:3776   */\n      add\n        /* \"#utility.yul\":3809:3812   */\n      dup5\n        /* \"#utility.yul\":3800:3806   */\n      dup5\n        /* \"#utility.yul\":3795:3798   */\n      dup5\n        /* \"#utility.yul\":3791:3807   */\n      add\n        /* \"#utility.yul\":3788:3813   */\n      gt\n        /* \"#utility.yul\":3785:3897   */\n      iszero\n      tag_122\n      jumpi\n        /* \"#utility.yul\":3816:3895   */\n      tag_123\n      tag_57\n      jump\t// in\n    tag_123:\n        /* \"#utility.yul\":3785:3897   */\n    tag_122:\n        /* \"#utility.yul\":3906:3960   */\n      tag_124\n        /* \"#utility.yul\":3953:3959   */\n      dup5\n        /* \"#utility.yul\":3948:3951   */\n      dup3\n        /* \"#utility.yul\":3943:3946   */\n      dup6\n        /* \"#utility.yul\":3906:3960   */\n      tag_62\n      jump\t// in\n    tag_124:\n        /* \"#utility.yul\":3625:3966   */\n      pop\n        /* \"#utility.yul\":3541:3966   */\n      swap4\n      swap3\n      pop\n      pop\n      pop\n      jump\t// out\n        /* \"#utility.yul\":3986:4326   */\n    tag_64:\n        /* \"#utility.yul\":4042:4047   */\n      0x00\n        /* \"#utility.yul\":4091:4094   */\n      dup3\n        /* \"#utility.yul\":4084:4088   */\n      0x1f\n        /* \"#utility.yul\":4076:4082   */\n      dup4\n        /* \"#utility.yul\":4072:4089   */\n      add\n        /* \"#utility.yul\":4068:4095   */\n      slt\n        /* \"#utility.yul\":4058:4180   */\n      tag_126\n      jumpi\n        /* \"#utility.yul\":4099:4178   */\n      tag_127\n      tag_56\n      jump\t// in\n    tag_127:\n        /* \"#utility.yul\":4058:4180   */\n    tag_126:\n        /* \"#utility.yul\":4216:4222   */\n      dup2\n        /* \"#utility.yul\":4203:4223   */\n      calldataload\n        /* \"#utility.yul\":4241:4320   */\n      tag_128\n        /* \"#utility.yul\":4316:4319   */\n      dup5\n        /* \"#utility.yul\":4308:4314   */\n      dup3\n        /* \"#utility.yul\":4301:4305   */\n      0x20\n        /* \"#utility.yul\":4293:4299   */\n      dup7\n        /* \"#utility.yul\":4289:4306   */\n      add\n        /* \"#utility.yul\":4241:4320   */\n      tag_63\n      jump\t// in\n    tag_128:\n        /* \"#utility.yul\":4232:4320   */\n      swap2\n      pop\n        /* \"#utility.yul\":4048:4326   */\n      pop\n        /* \"#utility.yul\":3986:4326   */\n      swap3\n      swap2\n      pop\n      pop\n      jump\t// out\n        /* \"#utility.yul\":4332:4841   */\n    tag_17:\n        /* \"#utility.yul\":4401:4407   */\n      0x00\n        /* \"#utility.yul\":4450:4452   */\n      0x20\n        /* \"#utility.yul\":4438:4447   */\n      dup3\n        /* \"#utility.yul\":4429:4436   */\n      dup5\n        /* \"#utility.yul\":4425:4448   */\n      sub\n        /* \"#utility.yul\":4421:4453   */\n      slt\n        /* \"#utility.yul\":4418:4537   */\n      iszero\n      tag_130\n      jumpi\n        /* \"#utility.yul\":4456:4535   */\n      tag_131\n      tag_54\n      jump\t// in\n    tag_131:\n        /* \"#utility.yul\":4418:4537   */\n    tag_130:\n        /* \"#utility.yul\":4604:4605   */\n      0x00\n        /* \"#utility.yul\":4593:4602   */\n      dup3\n        /* \"#utility.yul\":4589:4606   */\n      add\n        /* \"#utility.yul\":4576:4607   */\n      calldataload\n        /* \"#utility.yul\":4634:4652   */\n      0xffffffffffffffff\n        /* \"#utility.yul\":4626:4632   */\n      dup2\n        /* \"#utility.yul\":4623:4653   */\n      gt\n        /* \"#utility.yul\":4620:4737   */\n      iszero\n      tag_132\n      jumpi\n        /* \"#utility.yul\":4656:4735   */\n      tag_133\n      tag_55\n      jump\t// in\n    tag_133:\n        /* \"#utility.yul\":4620:4737   */\n    tag_132:\n        /* \"#utility.yul\":4761:4824   */\n      tag_134\n        /* \"#utility.yul\":4816:4823   */\n      dup5\n        /* \"#utility.yul\":4807:4813   */\n      dup3\n        /* \"#utility.yul\":4796:4805   */\n      dup6\n        /* \"#utility.yul\":4792:4814   */\n      add\n        /* \"#utility.yul\":4761:4824   */\n      tag_64\n      jump\t// in\n    tag_134:\n        /* \"#utility.yul\":4751:4824   */\n      swap2\n      pop\n        /* \"#utility.yul\":4547:4834   */\n      pop\n        /* \"#utility.yul\":4332:4841   */\n      swap3\n      swap2\n      pop\n      pop\n      jump\t// out\n        /* \"#utility.yul\":4847:5160   */\n    tag_20:\n        /* \"#utility.yul\":4960:4964   */\n      0x00\n        /* \"#utility.yul\":4998:5000   */\n      0x20\n        /* \"#utility.yul\":4987:4996   */\n      dup3\n        /* \"#utility.yul\":4983:5001   */\n      add\n        /* \"#utility.yul\":4975:5001   */\n      swap1\n      pop\n        /* \"#utility.yul\":5047:5056   */\n      dup2\n        /* \"#utility.yul\":5041:5045   */\n      dup2\n        /* \"#utility.yul\":5037:5057   */\n      sub\n        /* \"#utility.yul\":5033:5034   */\n      0x00\n        /* \"#utility.yul\":5022:5031   */\n      dup4\n        /* \"#utility.yul\":5018:5035   */\n      add\n        /* \"#utility.yul\":5011:5058   */\n      mstore\n        /* \"#utility.yul\":5075:5153   */\n      tag_136\n        /* \"#utility.yul\":5148:5152   */\n      dup2\n        /* \"#utility.yul\":5139:5145   */\n      dup5\n        /* \"#utility.yul\":5075:5153   */\n      tag_50\n      jump\t// in\n    tag_136:\n        /* \"#utility.yul\":5067:5153   */\n      swap1\n      pop\n        /* \"#utility.yul\":4847:5160   */\n      swap3\n      swap2\n      pop\n      pop\n      jump\t// out\n        /* \"#utility.yul\":5166:5288   */\n    tag_65:\n        /* \"#utility.yul\":5239:5263   */\n      tag_138\n        /* \"#utility.yul\":5257:5262   */\n      dup2\n        /* \"#utility.yul\":5239:5263   */\n      tag_51\n      jump\t// in\n    tag_138:\n        /* \"#utility.yul\":5232:5237   */\n      dup2\n        /* \"#utility.yul\":5229:5264   */\n      eq\n        /* \"#utility.yul\":5219:5282   */\n      tag_139\n      jumpi\n        /* \"#utility.yul\":5278:5279   */\n      0x00\n        /* \"#utility.yul\":5275:5276   */\n      dup1\n        /* \"#utility.yul\":5268:5280   */\n      revert\n        /* \"#utility.yul\":5219:5282   */\n    tag_139:\n        /* \"#utility.yul\":5166:5288   */\n      pop\n      jump\t// out\n        /* \"#utility.yul\":5294:5433   */\n    tag_66:\n        /* \"#utility.yul\":5340:5345   */\n      0x00\n        /* \"#utility.yul\":5378:5384   */\n      dup2\n        /* \"#utility.yul\":5365:5385   */\n      calldataload\n        /* \"#utility.yul\":5356:5385   */\n      swap1\n      pop\n        /* \"#utility.yul\":5394:5427   */\n      tag_141\n        /* \"#utility.yul\":5421:5426   */\n      dup2\n        /* \"#utility.yul\":5394:5427   */\n      tag_65\n      jump\t// in\n    tag_141:\n        /* \"#utility.yul\":5294:5433   */\n      swap3\n      swap2\n      pop\n      pop\n      jump\t// out\n        /* \"#utility.yul\":5439:5913   */\n    tag_23:\n        /* \"#utility.yul\":5507:5513   */\n      0x00\n        /* \"#utility.yul\":5515:5521   */\n      dup1\n        /* \"#utility.yul\":5564:5566   */\n      0x40\n        /* \"#utility.yul\":5552:5561   */\n      dup4\n        /* \"#utility.yul\":5543:5550   */\n      dup6\n        /* \"#utility.yul\":5539:5562   */\n      sub\n        /* \"#utility.yul\":5535:5567   */\n      slt\n        /* \"#utility.yul\":5532:5651   */\n      iszero\n      tag_143\n      jumpi\n        /* \"#utility.yul\":5570:5649   */\n      tag_144\n      tag_54\n      jump\t// in\n    tag_144:\n        /* \"#utility.yul\":5532:5651   */\n    tag_143:\n        /* \"#utility.yul\":5690:5691   */\n      0x00\n        /* \"#utility.yul\":5715:5768   */\n      tag_145\n        /* \"#utility.yul\":5760:5767   */\n      dup6\n        /* \"#utility.yul\":5751:5757   */\n      dup3\n        /* \"#utility.yul\":5740:5749   */\n      dup7\n        /* \"#utility.yul\":5736:5758   */\n      add\n        /* \"#utility.yul\":5715:5768   */\n      tag_66\n      jump\t// in\n    tag_145:\n        /* \"#utility.yul\":5705:5768   */\n      swap3\n      pop\n        /* \"#utility.yul\":5661:5778   */\n      pop\n        /* \"#utility.yul\":5817:5819   */\n      0x20\n        /* \"#utility.yul\":5843:5896   */\n      tag_146\n        /* \"#utility.yul\":5888:5895   */\n      dup6\n        /* \"#utility.yul\":5879:5885   */\n      dup3\n        /* \"#utility.yul\":5868:5877   */\n      dup7\n        /* \"#utility.yul\":5864:5886   */\n      add\n        /* \"#utility.yul\":5843:5896   */\n      tag_66\n      jump\t// in\n    tag_146:\n        /* \"#utility.yul\":5833:5896   */\n      swap2\n      pop\n        /* \"#utility.yul\":5788:5906   */\n      pop\n        /* \"#utility.yul\":5439:5913   */\n      swap3\n      pop\n      swap3\n      swap1\n      pop\n      jump\t// out\n        /* \"#utility.yul\":5919:6005   */\n    tag_67:\n        /* \"#utility.yul\":5965:5972   */\n      0x00\n        /* \"#utility.yul\":5994:5999   */\n      dup2\n        /* \"#utility.yul\":5983:5999   */\n      swap1\n      pop\n        /* \"#utility.yul\":5919:6005   */\n      swap2\n      swap1\n      pop\n      jump\t// out\n        /* \"#utility.yul\":6011:6071   */\n    tag_68:\n        /* \"#utility.yul\":6039:6042   */\n      0x00\n        /* \"#utility.yul\":6060:6065   */\n      dup2\n        /* \"#utility.yul\":6053:6065   */\n      swap1\n      pop\n        /* \"#utility.yul\":6011:6071   */\n      swap2\n      swap1\n      pop\n      jump\t// out\n        /* \"#utility.yul\":6077:6237   */\n    tag_69:\n        /* \"#utility.yul\":6136:6145   */\n      0x00\n        /* \"#utility.yul\":6169:6231   */\n      tag_150\n        /* \"#utility.yul\":6187:6230   */\n      tag_151\n        /* \"#utility.yul\":6196:6229   */\n      tag_152\n        /* \"#utility.yul\":6223:6228   */\n      dup5\n        /* \"#utility.yul\":6196:6229   */\n      tag_67\n      jump\t// in\n    tag_152:\n        /* \"#utility.yul\":6187:6230   */\n      tag_68\n      jump\t// in\n    tag_151:\n        /* \"#utility.yul\":6169:6231   */\n      tag_51\n      jump\t// in\n    tag_150:\n        /* \"#utility.yul\":6156:6231   */\n      swap1\n      pop\n        /* \"#utility.yul\":6077:6237   */\n      swap2\n      swap1\n      pop\n      jump\t// out\n        /* \"#utility.yul\":6243:6392   */\n    tag_70:\n        /* \"#utility.yul\":6339:6385   */\n      tag_154\n        /* \"#utility.yul\":6379:6384   */\n      dup2\n        /* \"#utility.yul\":6339:6385   */\n      tag_69\n      jump\t// in\n    tag_154:\n        /* \"#utility.yul\":6334:6337   */\n      dup3\n        /* \"#utility.yul\":6327:6386   */\n      mstore\n        /* \"#utility.yul\":6243:6392   */\n      pop\n      pop\n      jump\t// out\n        /* \"#utility.yul\":6398:6484   */\n    tag_71:\n        /* \"#utility.yul\":6444:6451   */\n      0x00\n        /* \"#utility.yul\":6473:6478   */\n      dup2\n        /* \"#utility.yul\":6462:6478   */\n      swap1\n      pop\n        /* \"#utility.yul\":6398:6484   */\n      swap2\n      swap1\n      pop\n      jump\t// out\n        /* \"#utility.yul\":6490:6650   */\n    tag_72:\n        /* \"#utility.yul\":6549:6558   */\n      0x00\n        /* \"#utility.yul\":6582:6644   */\n      tag_157\n        /* \"#utility.yul\":6600:6643   */\n      tag_158\n        /* \"#utility.yul\":6609:6642   */\n      tag_159\n        /* \"#utility.yul\":6636:6641   */\n      dup5\n        /* \"#utility.yul\":6609:6642   */\n      tag_71\n      jump\t// in\n    tag_159:\n        /* \"#utility.yul\":6600:6643   */\n      tag_68\n      jump\t// in\n    tag_158:\n        /* \"#utility.yul\":6582:6644   */\n      tag_51\n      jump\t// in\n    tag_157:\n        /* \"#utility.yul\":6569:6644   */\n      swap1\n      pop\n        /* \"#utility.yul\":6490:6650   */\n      swap2\n      swap1\n      pop\n      jump\t// out\n        /* \"#utility.yul\":6656:6805   */\n    tag_73:\n        /* \"#utility.yul\":6752:6798   */\n      tag_161\n        /* \"#utility.yul\":6792:6797   */\n      dup2\n        /* \"#utility.yul\":6752:6798   */\n      tag_72\n      jump\t// in\n    tag_161:\n        /* \"#utility.yul\":6747:6750   */\n      dup3\n        /* \"#utility.yul\":6740:6799   */\n      mstore\n        /* \"#utility.yul\":6656:6805   */\n      pop\n      pop\n      jump\t// out\n        /* \"#utility.yul\":6811:7179   */\n    tag_27:\n        /* \"#utility.yul\":6950:6954   */\n      0x00\n        /* \"#utility.yul\":6988:6990   */\n      0x40\n        /* \"#utility.yul\":6977:6986   */\n      dup3\n        /* \"#utility.yul\":6973:6991   */\n      add\n        /* \"#utility.yul\":6965:6991   */\n      swap1\n      pop\n        /* \"#utility.yul\":7001:7081   */\n      tag_163\n        /* \"#utility.yul\":7078:7079   */\n      0x00\n        /* \"#utility.yul\":7067:7076   */\n      dup4\n        /* \"#utility.yul\":7063:7080   */\n      add\n        /* \"#utility.yul\":7054:7060   */\n      dup6\n        /* \"#utility.yul\":7001:7081   */\n      tag_70\n      jump\t// in\n    tag_163:\n        /* \"#utility.yul\":7091:7172   */\n      tag_164\n        /* \"#utility.yul\":7168:7170   */\n      0x20\n        /* \"#utility.yul\":7157:7166   */\n      dup4\n        /* \"#utility.yul\":7153:7171   */\n      add\n        /* \"#utility.yul\":7144:7150   */\n      dup5\n        /* \"#utility.yul\":7091:7172   */\n      tag_73\n      jump\t// in\n    tag_164:\n        /* \"#utility.yul\":6811:7179   */\n      swap4\n      swap3\n      pop\n      pop\n      pop\n      jump\t// out\n        /* \"#utility.yul\":7185:7343   */\n    tag_74:\n        /* \"#utility.yul\":7325:7335   */\n      0x736861686e696c6c000000000000000000000000000000000000000000000000\n        /* \"#utility.yul\":7321:7322   */\n      0x00\n        /* \"#utility.yul\":7313:7319   */\n      dup3\n        /* \"#utility.yul\":7309:7323   */\n      add\n        /* \"#utility.yul\":7302:7336   */\n      mstore\n        /* \"#utility.yul\":7185:7343   */\n      pop\n      jump\t// out\n        /* \"#utility.yul\":7349:7714   */\n    tag_75:\n        /* \"#utility.yul\":7491:7494   */\n      0x00\n        /* \"#utility.yul\":7512:7578   */\n      tag_167\n        /* \"#utility.yul\":7576:7577   */\n      0x08\n        /* \"#utility.yul\":7571:7574   */\n      dup4\n        /* \"#utility.yul\":7512:7578   */\n      tag_47\n      jump\t// in\n    tag_167:\n        /* \"#utility.yul\":7505:7578   */\n      swap2\n      pop\n        /* \"#utility.yul\":7587:7680   */\n      tag_168\n        /* \"#utility.yul\":7676:7679   */\n      dup3\n        /* \"#utility.yul\":7587:7680   */\n      tag_74\n      jump\t// in\n    tag_168:\n        /* \"#utility.yul\":7705:7707   */\n      0x20\n        /* \"#utility.yul\":7700:7703   */\n      dup3\n        /* \"#utility.yul\":7696:7708   */\n      add\n        /* \"#utility.yul\":7689:7708   */\n      swap1\n      pop\n        /* \"#utility.yul\":7349:7714   */\n      swap2\n      swap1\n      pop\n      jump\t// out\n        /* \"#utility.yul\":7720:8139   */\n    tag_32:\n        /* \"#utility.yul\":7886:7890   */\n      0x00\n        /* \"#utility.yul\":7924:7926   */\n      0x20\n        /* \"#utility.yul\":7913:7922   */\n      dup3\n        /* \"#utility.yul\":7909:7927   */\n      add\n        /* \"#utility.yul\":7901:7927   */\n      swap1\n      pop\n        /* \"#utility.yul\":7973:7982   */\n      dup2\n        /* \"#utility.yul\":7967:7971   */\n      dup2\n        /* \"#utility.yul\":7963:7983   */\n      sub\n        /* \"#utility.yul\":7959:7960   */\n      0x00\n        /* \"#utility.yul\":7948:7957   */\n      dup4\n        /* \"#utility.yul\":7944:7961   */\n      add\n        /* \"#utility.yul\":7937:7984   */\n      mstore\n        /* \"#utility.yul\":8001:8132   */\n      tag_170\n        /* \"#utility.yul\":8127:8131   */\n      dup2\n        /* \"#utility.yul\":8001:8132   */\n      tag_75\n      jump\t// in\n    tag_170:\n        /* \"#utility.yul\":7993:8132   */\n      swap1\n      pop\n        /* \"#utility.yul\":7720:8139   */\n      swap2\n      swap1\n      pop\n      jump\t// out\n        /* \"#utility.yul\":8145:8579   */\n    tag_76:\n        /* \"#utility.yul\":8234:8239   */\n      0x00\n        /* \"#utility.yul\":8259:8325   */\n      tag_172\n        /* \"#utility.yul\":8275:8324   */\n      tag_173\n        /* \"#utility.yul\":8317:8323   */\n      dup5\n        /* \"#utility.yul\":8275:8324   */\n      tag_61\n      jump\t// in\n    tag_173:\n        /* \"#utility.yul\":8259:8325   */\n      tag_60\n      jump\t// in\n    tag_172:\n        /* \"#utility.yul\":8250:8325   */\n      swap1\n      pop\n        /* \"#utility.yul\":8348:8354   */\n      dup3\n        /* \"#utility.yul\":8341:8346   */\n      dup2\n        /* \"#utility.yul\":8334:8355   */\n      mstore\n        /* \"#utility.yul\":8386:8390   */\n      0x20\n        /* \"#utility.yul\":8379:8384   */\n      dup2\n        /* \"#utility.yul\":8375:8391   */\n      add\n        /* \"#utility.yul\":8424:8427   */\n      dup5\n        /* \"#utility.yul\":8415:8421   */\n      dup5\n        /* \"#utility.yul\":8410:8413   */\n      dup5\n        /* \"#utility.yul\":8406:8422   */\n      add\n        /* \"#utility.yul\":8403:8428   */\n      gt\n        /* \"#utility.yul\":8400:8512   */\n      iszero\n      tag_174\n      jumpi\n        /* \"#utility.yul\":8431:8510   */\n      tag_175\n      tag_57\n      jump\t// in\n    tag_175:\n        /* \"#utility.yul\":8400:8512   */\n    tag_174:\n        /* \"#utility.yul\":8521:8573   */\n      tag_176\n        /* \"#utility.yul\":8566:8572   */\n      dup5\n        /* \"#utility.yul\":8561:8564   */\n      dup3\n        /* \"#utility.yul\":8556:8559   */\n      dup6\n        /* \"#utility.yul\":8521:8573   */\n      tag_48\n      jump\t// in\n    tag_176:\n        /* \"#utility.yul\":8240:8579   */\n      pop\n        /* \"#utility.yul\":8145:8579   */\n      swap4\n      swap3\n      pop\n      pop\n      pop\n      jump\t// out\n        /* \"#utility.yul\":8599:8954   */\n    tag_77:\n        /* \"#utility.yul\":8666:8671   */\n      0x00\n        /* \"#utility.yul\":8715:8718   */\n      dup3\n        /* \"#utility.yul\":8708:8712   */\n      0x1f\n        /* \"#utility.yul\":8700:8706   */\n      dup4\n        /* \"#utility.yul\":8696:8713   */\n      add\n        /* \"#utility.yul\":8692:8719   */\n      slt\n        /* \"#utility.yul\":8682:8804   */\n      tag_178\n      jumpi\n        /* \"#utility.yul\":8723:8802   */\n      tag_179\n      tag_56\n      jump\t// in\n    tag_179:\n        /* \"#utility.yul\":8682:8804   */\n    tag_178:\n        /* \"#utility.yul\":8833:8839   */\n      dup2\n        /* \"#utility.yul\":8827:8840   */\n      mload\n        /* \"#utility.yul\":8858:8948   */\n      tag_180\n        /* \"#utility.yul\":8944:8947   */\n      dup5\n        /* \"#utility.yul\":8936:8942   */\n      dup3\n        /* \"#utility.yul\":8929:8933   */\n      0x20\n        /* \"#utility.yul\":8921:8927   */\n      dup7\n        /* \"#utility.yul\":8917:8934   */\n      add\n        /* \"#utility.yul\":8858:8948   */\n      tag_76\n      jump\t// in\n    tag_180:\n        /* \"#utility.yul\":8849:8948   */\n      swap2\n      pop\n        /* \"#utility.yul\":8672:8954   */\n      pop\n        /* \"#utility.yul\":8599:8954   */\n      swap3\n      swap2\n      pop\n      pop\n      jump\t// out\n        /* \"#utility.yul\":8960:9484   */\n    tag_36:\n        /* \"#utility.yul\":9040:9046   */\n      0x00\n        /* \"#utility.yul\":9089:9091   */\n      0x20\n        /* \"#utility.yul\":9077:9086   */\n      dup3\n        /* \"#utility.yul\":9068:9075   */\n      dup5\n        /* \"#utility.yul\":9064:9087   */\n      sub\n        /* \"#utility.yul\":9060:9092   */\n      slt\n        /* \"#utility.yul\":9057:9176   */\n      iszero\n      tag_182\n      jumpi\n        /* \"#utility.yul\":9095:9174   */\n      tag_183\n      tag_54\n      jump\t// in\n    tag_183:\n        /* \"#utility.yul\":9057:9176   */\n    tag_182:\n        /* \"#utility.yul\":9236:9237   */\n      0x00\n        /* \"#utility.yul\":9225:9234   */\n      dup3\n        /* \"#utility.yul\":9221:9238   */\n      add\n        /* \"#utility.yul\":9215:9239   */\n      mload\n        /* \"#utility.yul\":9266:9284   */\n      0xffffffffffffffff\n        /* \"#utility.yul\":9258:9264   */\n      dup2\n        /* \"#utility.yul\":9255:9285   */\n      gt\n        /* \"#utility.yul\":9252:9369   */\n      iszero\n      tag_184\n      jumpi\n        /* \"#utility.yul\":9288:9367   */\n      tag_185\n      tag_55\n      jump\t// in\n    tag_185:\n        /* \"#utility.yul\":9252:9369   */\n    tag_184:\n        /* \"#utility.yul\":9393:9467   */\n      tag_186\n        /* \"#utility.yul\":9459:9466   */\n      dup5\n        /* \"#utility.yul\":9450:9456   */\n      dup3\n        /* \"#utility.yul\":9439:9448   */\n      dup6\n        /* \"#utility.yul\":9435:9457   */\n      add\n        /* \"#utility.yul\":9393:9467   */\n      tag_77\n      jump\t// in\n    tag_186:\n        /* \"#utility.yul\":9383:9467   */\n      swap2\n      pop\n        /* \"#utility.yul\":9186:9477   */\n      pop\n        /* \"#utility.yul\":8960:9484   */\n      swap3\n      swap2\n      pop\n      pop\n      jump\t// out\n        /* \"#utility.yul\":9490:9633   */\n    tag_78:\n        /* \"#utility.yul\":9547:9552   */\n      0x00\n        /* \"#utility.yul\":9578:9584   */\n      dup2\n        /* \"#utility.yul\":9572:9585   */\n      mload\n        /* \"#utility.yul\":9563:9585   */\n      swap1\n      pop\n        /* \"#utility.yul\":9594:9627   */\n      tag_188\n        /* \"#utility.yul\":9621:9626   */\n      dup2\n        /* \"#utility.yul\":9594:9627   */\n      tag_65\n      jump\t// in\n    tag_188:\n        /* \"#utility.yul\":9490:9633   */\n      swap3\n      swap2\n      pop\n      pop\n      jump\t// out\n        /* \"#utility.yul\":9639:9990   */\n    tag_40:\n        /* \"#utility.yul\":9709:9715   */\n      0x00\n        /* \"#utility.yul\":9758:9760   */\n      0x20\n        /* \"#utility.yul\":9746:9755   */\n      dup3\n        /* \"#utility.yul\":9737:9744   */\n      dup5\n        /* \"#utility.yul\":9733:9756   */\n      sub\n        /* \"#utility.yul\":9729:9761   */\n      slt\n        /* \"#utility.yul\":9726:9845   */\n      iszero\n      tag_190\n      jumpi\n        /* \"#utility.yul\":9764:9843   */\n      tag_191\n      tag_54\n      jump\t// in\n    tag_191:\n        /* \"#utility.yul\":9726:9845   */\n    tag_190:\n        /* \"#utility.yul\":9884:9885   */\n      0x00\n        /* \"#utility.yul\":9909:9973   */\n      tag_192\n        /* \"#utility.yul\":9965:9972   */\n      dup5\n        /* \"#utility.yul\":9956:9962   */\n      dup3\n        /* \"#utility.yul\":9945:9954   */\n      dup6\n        /* \"#utility.yul\":9941:9963   */\n      add\n        /* \"#utility.yul\":9909:9973   */\n      tag_78\n      jump\t// in\n    tag_192:\n        /* \"#utility.yul\":9899:9973   */\n      swap2\n      pop\n        /* \"#utility.yul\":9855:9983   */\n      pop\n        /* \"#utility.yul\":9639:9990   */\n      swap3\n      swap2\n      pop\n      pop\n      jump\t// out\n        /* \"#utility.yul\":9996:10176   */\n    tag_79:\n        /* \"#utility.yul\":10044:10121   */\n      0x4e487b7100000000000000000000000000000000000000000000000000000000\n        /* \"#utility.yul\":10041:10042   */\n      0x00\n        /* \"#utility.yul\":10034:10122   */\n      mstore\n        /* \"#utility.yul\":10141:10145   */\n      0x11\n        /* \"#utility.yul\":10138:10139   */\n      0x04\n        /* \"#utility.yul\":10131:10146   */\n      mstore\n        /* \"#utility.yul\":10165:10169   */\n      0x24\n        /* \"#utility.yul\":10162:10163   */\n      0x00\n        /* \"#utility.yul\":10155:10170   */\n      revert\n        /* \"#utility.yul\":10182:10373   */\n    tag_43:\n        /* \"#utility.yul\":10222:10225   */\n      0x00\n        /* \"#utility.yul\":10241:10261   */\n      tag_195\n        /* \"#utility.yul\":10259:10260   */\n      dup3\n        /* \"#utility.yul\":10241:10261   */\n      tag_51\n      jump\t// in\n    tag_195:\n        /* \"#utility.yul\":10236:10261   */\n      swap2\n      pop\n        /* \"#utility.yul\":10275:10295   */\n      tag_196\n        /* \"#utility.yul\":10293:10294   */\n      dup4\n        /* \"#utility.yul\":10275:10295   */\n      tag_51\n      jump\t// in\n    tag_196:\n        /* \"#utility.yul\":10270:10295   */\n      swap3\n      pop\n        /* \"#utility.yul\":10318:10319   */\n      dup3\n        /* \"#utility.yul\":10315:10316   */\n      dup3\n        /* \"#utility.yul\":10311:10320   */\n      add\n        /* \"#utility.yul\":10304:10320   */\n      swap1\n      pop\n        /* \"#utility.yul\":10339:10342   */\n      dup1\n        /* \"#utility.yul\":10336:10337   */\n      dup3\n        /* \"#utility.yul\":10333:10343   */\n      gt\n        /* \"#utility.yul\":10330:10366   */\n      iszero\n      tag_197\n      jumpi\n        /* \"#utility.yul\":10346:10364   */\n      tag_198\n      tag_79\n      jump\t// in\n    tag_198:\n        /* \"#utility.yul\":10330:10366   */\n    tag_197:\n        /* \"#utility.yul\":10182:10373   */\n      swap3\n      swap2\n      pop\n      pop\n      jump\t// out\n\n    auxdata: 0xa26469706673582212205bac6aa3902dda83a4af75ae5241403671ee76dda55eb56763fef9bb681094ea64736f6c63430008160033\n}\n\nsub_1: assembly {\n        /* \"contracts/interfaceImplimentation.sol\":92:689  contract interfaceImplementation is InterfaceExample{... */\n      mstore(0x40, 0x80)\n      callvalue\n      dup1\n      iszero\n      tag_1\n      jumpi\n      0x00\n      dup1\n      revert\n    tag_1:\n      pop\n      dataSize(sub_0)\n      dup1\n      dataOffset(sub_0)\n      0x00\n      codecopy\n      0x00\n      return\n    stop\n\n    sub_0: assembly {\n            /* \"contracts/interfaceImplimentation.sol\":92:689  contract interfaceImplementation is InterfaceExample{... */\n          mstore(0x40, 0x80)\n          callvalue\n          dup1\n          iszero\n          tag_1\n          jumpi\n          0x00\n          dup1\n          revert\n        tag_1:\n          pop\n          jumpi(tag_2, lt(calldatasize, 0x04))\n          shr(0xe0, calldataload(0x00))\n          dup1\n          0x4f2be91f\n          eq\n          tag_3\n          jumpi\n          dup1\n          0x67d498f9\n          eq\n          tag_4\n          jumpi\n          dup1\n          0xce9299bb\n          eq\n          tag_5\n          jumpi\n        tag_2:\n          0x00\n          dup1\n          revert\n            /* \"contracts/interfaceImplimentation.sol\":600:686  function add()public view  override returns (uint){... */\n        tag_3:\n          tag_6\n          tag_7\n          jump\t// in\n        tag_6:\n          mload(0x40)\n          tag_8\n          swap2\n          swap1\n          tag_9\n          jump\t// in\n        tag_8:\n          mload(0x40)\n          dup1\n          swap2\n          sub\n          swap1\n          return\n            /* \"contracts/interfaceImplimentation.sol\":283:394  function getstr(string memory _str )public pure override returns (string memory){... */\n        tag_4:\n          tag_10\n          0x04\n          dup1\n          calldatasize\n          sub\n          dup2\n          add\n          swap1\n          tag_11\n          swap2\n          swap1\n          tag_12\n          jump\t// in\n        tag_11:\n          tag_13\n          jump\t// in\n        tag_10:\n          mload(0x40)\n          tag_14\n          swap2\n          swap1\n          tag_15\n          jump\t// in\n        tag_14:\n          mload(0x40)\n          dup1\n          swap2\n          sub\n          swap1\n          return\n            /* \"contracts/interfaceImplimentation.sol\":444:537  function getNum(uint _a,uint _b) public override{... */\n        tag_5:\n          tag_16\n          0x04\n          dup1\n          calldatasize\n          sub\n          dup2\n          add\n          swap1\n          tag_17\n          swap2\n          swap1\n          tag_18\n          jump\t// in\n        tag_17:\n          tag_19\n          jump\t// in\n        tag_16:\n          stop\n            /* \"contracts/interfaceImplimentation.sol\":600:686  function add()public view  override returns (uint){... */\n        tag_7:\n            /* \"contracts/interfaceImplimentation.sol\":645:649  uint */\n          0x00\n            /* \"contracts/interfaceImplimentation.sol\":673:677  num2 */\n          sload(0x01)\n            /* \"contracts/interfaceImplimentation.sol\":668:672  num1 */\n          sload(0x00)\n            /* \"contracts/interfaceImplimentation.sol\":668:677  num1+num2 */\n          tag_21\n          swap2\n          swap1\n          tag_22\n          jump\t// in\n        tag_21:\n            /* \"contracts/interfaceImplimentation.sol\":660:677  return  num1+num2 */\n          swap1\n          pop\n            /* \"contracts/interfaceImplimentation.sol\":600:686  function add()public view  override returns (uint){... */\n          swap1\n          jump\t// out\n            /* \"contracts/interfaceImplimentation.sol\":283:394  function getstr(string memory _str )public pure override returns (string memory){... */\n        tag_13:\n            /* \"contracts/interfaceImplimentation.sol\":349:362  string memory */\n          0x60\n            /* \"contracts/interfaceImplimentation.sol\":381:385  _str */\n          dup2\n            /* \"contracts/interfaceImplimentation.sol\":374:385  return _str */\n          swap1\n          pop\n            /* \"contracts/interfaceImplimentation.sol\":283:394  function getstr(string memory _str )public pure override returns (string memory){... */\n          swap2\n          swap1\n          pop\n          jump\t// out\n            /* \"contracts/interfaceImplimentation.sol\":444:537  function getNum(uint _a,uint _b) public override{... */\n        tag_19:\n            /* \"contracts/interfaceImplimentation.sol\":508:510  _a */\n          dup2\n            /* \"contracts/interfaceImplimentation.sol\":503:507  num1 */\n          0x00\n            /* \"contracts/interfaceImplimentation.sol\":503:510  num1=_a */\n          dup2\n          swap1\n          sstore\n          pop\n            /* \"contracts/interfaceImplimentation.sol\":526:528  _b */\n          dup1\n            /* \"contracts/interfaceImplimentation.sol\":521:525  num2 */\n          0x01\n            /* \"contracts/interfaceImplimentation.sol\":521:528  num2=_b */\n          dup2\n          swap1\n          sstore\n          pop\n            /* \"contracts/interfaceImplimentation.sol\":444:537  function getNum(uint _a,uint _b) public override{... */\n          pop\n          pop\n          jump\t// out\n            /* \"#utility.yul\":7:84   */\n        tag_25:\n            /* \"#utility.yul\":44:51   */\n          0x00\n            /* \"#utility.yul\":73:78   */\n          dup2\n            /* \"#utility.yul\":62:78   */\n          swap1\n          pop\n            /* \"#utility.yul\":7:84   */\n          swap2\n          swap1\n          pop\n          jump\t// out\n            /* \"#utility.yul\":90:208   */\n        tag_26:\n            /* \"#utility.yul\":177:201   */\n          tag_50\n            /* \"#utility.yul\":195:200   */\n          dup2\n            /* \"#utility.yul\":177:201   */\n          tag_25\n          jump\t// in\n        tag_50:\n            /* \"#utility.yul\":172:175   */\n          dup3\n            /* \"#utility.yul\":165:202   */\n          mstore\n            /* \"#utility.yul\":90:208   */\n          pop\n          pop\n          jump\t// out\n            /* \"#utility.yul\":214:436   */\n        tag_9:\n            /* \"#utility.yul\":307:311   */\n          0x00\n            /* \"#utility.yul\":345:347   */\n          0x20\n            /* \"#utility.yul\":334:343   */\n          dup3\n            /* \"#utility.yul\":330:348   */\n          add\n            /* \"#utility.yul\":322:348   */\n          swap1\n          pop\n            /* \"#utility.yul\":358:429   */\n          tag_52\n            /* \"#utility.yul\":426:427   */\n          0x00\n            /* \"#utility.yul\":415:424   */\n          dup4\n            /* \"#utility.yul\":411:428   */\n          add\n            /* \"#utility.yul\":402:408   */\n          dup5\n            /* \"#utility.yul\":358:429   */\n          tag_26\n          jump\t// in\n        tag_52:\n            /* \"#utility.yul\":214:436   */\n          swap3\n          swap2\n          pop\n          pop\n          jump\t// out\n            /* \"#utility.yul\":442:517   */\n        tag_27:\n            /* \"#utility.yul\":475:481   */\n          0x00\n            /* \"#utility.yul\":508:510   */\n          0x40\n            /* \"#utility.yul\":502:511   */\n          mload\n            /* \"#utility.yul\":492:511   */\n          swap1\n          pop\n            /* \"#utility.yul\":442:517   */\n          swap1\n          jump\t// out\n            /* \"#utility.yul\":523:640   */\n        tag_28:\n            /* \"#utility.yul\":632:633   */\n          0x00\n            /* \"#utility.yul\":629:630   */\n          dup1\n            /* \"#utility.yul\":622:634   */\n          revert\n            /* \"#utility.yul\":646:763   */\n        tag_29:\n            /* \"#utility.yul\":755:756   */\n          0x00\n            /* \"#utility.yul\":752:753   */\n          dup1\n            /* \"#utility.yul\":745:757   */\n          revert\n            /* \"#utility.yul\":769:886   */\n        tag_30:\n            /* \"#utility.yul\":878:879   */\n          0x00\n            /* \"#utility.yul\":875:876   */\n          dup1\n            /* \"#utility.yul\":868:880   */\n          revert\n            /* \"#utility.yul\":892:1009   */\n        tag_31:\n            /* \"#utility.yul\":1001:1002   */\n          0x00\n            /* \"#utility.yul\":998:999   */\n          dup1\n            /* \"#utility.yul\":991:1003   */\n          revert\n            /* \"#utility.yul\":1015:1117   */\n        tag_32:\n            /* \"#utility.yul\":1056:1062   */\n          0x00\n            /* \"#utility.yul\":1107:1109   */\n          0x1f\n            /* \"#utility.yul\":1103:1110   */\n          not\n            /* \"#utility.yul\":1098:1100   */\n          0x1f\n            /* \"#utility.yul\":1091:1096   */\n          dup4\n            /* \"#utility.yul\":1087:1101   */\n          add\n            /* \"#utility.yul\":1083:1111   */\n          and\n            /* \"#utility.yul\":1073:1111   */\n          swap1\n          pop\n            /* \"#utility.yul\":1015:1117   */\n          swap2\n          swap1\n          pop\n          jump\t// out\n            /* \"#utility.yul\":1123:1303   */\n        tag_33:\n            /* \"#utility.yul\":1171:1248   */\n          0x4e487b7100000000000000000000000000000000000000000000000000000000\n            /* \"#utility.yul\":1168:1169   */\n          0x00\n            /* \"#utility.yul\":1161:1249   */\n          mstore\n            /* \"#utility.yul\":1268:1272   */\n          0x41\n            /* \"#utility.yul\":1265:1266   */\n          0x04\n            /* \"#utility.yul\":1258:1273   */\n          mstore\n            /* \"#utility.yul\":1292:1296   */\n          0x24\n            /* \"#utility.yul\":1289:1290   */\n          0x00\n            /* \"#utility.yul\":1282:1297   */\n          revert\n            /* \"#utility.yul\":1309:1590   */\n        tag_34:\n            /* \"#utility.yul\":1392:1419   */\n          tag_61\n            /* \"#utility.yul\":1414:1418   */\n          dup3\n            /* \"#utility.yul\":1392:1419   */\n          tag_32\n          jump\t// in\n        tag_61:\n            /* \"#utility.yul\":1384:1390   */\n          dup2\n            /* \"#utility.yul\":1380:1420   */\n          add\n            /* \"#utility.yul\":1522:1528   */\n          dup2\n            /* \"#utility.yul\":1510:1520   */\n          dup2\n            /* \"#utility.yul\":1507:1529   */\n          lt\n            /* \"#utility.yul\":1486:1504   */\n          0xffffffffffffffff\n            /* \"#utility.yul\":1474:1484   */\n          dup3\n            /* \"#utility.yul\":1471:1505   */\n          gt\n            /* \"#utility.yul\":1468:1530   */\n          or\n            /* \"#utility.yul\":1465:1553   */\n          iszero\n          tag_62\n          jumpi\n            /* \"#utility.yul\":1533:1551   */\n          tag_63\n          tag_33\n          jump\t// in\n        tag_63:\n            /* \"#utility.yul\":1465:1553   */\n        tag_62:\n            /* \"#utility.yul\":1573:1583   */\n          dup1\n            /* \"#utility.yul\":1569:1571   */\n          0x40\n            /* \"#utility.yul\":1562:1584   */\n          mstore\n            /* \"#utility.yul\":1352:1590   */\n          pop\n            /* \"#utility.yul\":1309:1590   */\n          pop\n          pop\n          jump\t// out\n            /* \"#utility.yul\":1596:1725   */\n        tag_35:\n            /* \"#utility.yul\":1630:1636   */\n          0x00\n            /* \"#utility.yul\":1657:1677   */\n          tag_65\n          tag_27\n          jump\t// in\n        tag_65:\n            /* \"#utility.yul\":1647:1677   */\n          swap1\n          pop\n            /* \"#utility.yul\":1686:1719   */\n          tag_66\n            /* \"#utility.yul\":1714:1718   */\n          dup3\n            /* \"#utility.yul\":1706:1712   */\n          dup3\n            /* \"#utility.yul\":1686:1719   */\n          tag_34\n          jump\t// in\n        tag_66:\n            /* \"#utility.yul\":1596:1725   */\n          swap2\n          swap1\n          pop\n          jump\t// out\n            /* \"#utility.yul\":1731:2039   */\n        tag_36:\n            /* \"#utility.yul\":1793:1797   */\n          0x00\n            /* \"#utility.yul\":1883:1901   */\n          0xffffffffffffffff\n            /* \"#utility.yul\":1875:1881   */\n          dup3\n            /* \"#utility.yul\":1872:1902   */\n          gt\n            /* \"#utility.yul\":1869:1925   */\n          iszero\n          tag_68\n          jumpi\n            /* \"#utility.yul\":1905:1923   */\n          tag_69\n          tag_33\n          jump\t// in\n        tag_69:\n            /* \"#utility.yul\":1869:1925   */\n        tag_68:\n            /* \"#utility.yul\":1943:1972   */\n          tag_70\n            /* \"#utility.yul\":1965:1971   */\n          dup3\n            /* \"#utility.yul\":1943:1972   */\n          tag_32\n          jump\t// in\n        tag_70:\n            /* \"#utility.yul\":1935:1972   */\n          swap1\n          pop\n            /* \"#utility.yul\":2027:2031   */\n          0x20\n            /* \"#utility.yul\":2021:2025   */\n          dup2\n            /* \"#utility.yul\":2017:2032   */\n          add\n            /* \"#utility.yul\":2009:2032   */\n          swap1\n          pop\n            /* \"#utility.yul\":1731:2039   */\n          swap2\n          swap1\n          pop\n          jump\t// out\n            /* \"#utility.yul\":2045:2191   */\n        tag_37:\n            /* \"#utility.yul\":2142:2148   */\n          dup3\n            /* \"#utility.yul\":2137:2140   */\n          dup2\n            /* \"#utility.yul\":2132:2135   */\n          dup4\n            /* \"#utility.yul\":2119:2149   */\n          calldatacopy\n            /* \"#utility.yul\":2183:2184   */\n          0x00\n            /* \"#utility.yul\":2174:2180   */\n          dup4\n            /* \"#utility.yul\":2169:2172   */\n          dup4\n            /* \"#utility.yul\":2165:2181   */\n          add\n            /* \"#utility.yul\":2158:2185   */\n          mstore\n            /* \"#utility.yul\":2045:2191   */\n          pop\n          pop\n          pop\n          jump\t// out\n            /* \"#utility.yul\":2197:2622   */\n        tag_38:\n            /* \"#utility.yul\":2275:2280   */\n          0x00\n            /* \"#utility.yul\":2300:2366   */\n          tag_73\n            /* \"#utility.yul\":2316:2365   */\n          tag_74\n            /* \"#utility.yul\":2358:2364   */\n          dup5\n            /* \"#utility.yul\":2316:2365   */\n          tag_36\n          jump\t// in\n        tag_74:\n            /* \"#utility.yul\":2300:2366   */\n          tag_35\n          jump\t// in\n        tag_73:\n            /* \"#utility.yul\":2291:2366   */\n          swap1\n          pop\n            /* \"#utility.yul\":2389:2395   */\n          dup3\n            /* \"#utility.yul\":2382:2387   */\n          dup2\n            /* \"#utility.yul\":2375:2396   */\n          mstore\n            /* \"#utility.yul\":2427:2431   */\n          0x20\n            /* \"#utility.yul\":2420:2425   */\n          dup2\n            /* \"#utility.yul\":2416:2432   */\n          add\n            /* \"#utility.yul\":2465:2468   */\n          dup5\n            /* \"#utility.yul\":2456:2462   */\n          dup5\n            /* \"#utility.yul\":2451:2454   */\n          dup5\n            /* \"#utility.yul\":2447:2463   */\n          add\n            /* \"#utility.yul\":2444:2469   */\n          gt\n            /* \"#utility.yul\":2441:2553   */\n          iszero\n          tag_75\n          jumpi\n            /* \"#utility.yul\":2472:2551   */\n          tag_76\n          tag_31\n          jump\t// in\n        tag_76:\n            /* \"#utility.yul\":2441:2553   */\n        tag_75:\n            /* \"#utility.yul\":2562:2616   */\n          tag_77\n            /* \"#utility.yul\":2609:2615   */\n          dup5\n            /* \"#utility.yul\":2604:2607   */\n          dup3\n            /* \"#utility.yul\":2599:2602   */\n          dup6\n            /* \"#utility.yul\":2562:2616   */\n          tag_37\n          jump\t// in\n        tag_77:\n            /* \"#utility.yul\":2281:2622   */\n          pop\n            /* \"#utility.yul\":2197:2622   */\n          swap4\n          swap3\n          pop\n          pop\n          pop\n          jump\t// out\n            /* \"#utility.yul\":2642:2982   */\n        tag_39:\n            /* \"#utility.yul\":2698:2703   */\n          0x00\n            /* \"#utility.yul\":2747:2750   */\n          dup3\n            /* \"#utility.yul\":2740:2744   */\n          0x1f\n            /* \"#utility.yul\":2732:2738   */\n          dup4\n            /* \"#utility.yul\":2728:2745   */\n          add\n            /* \"#utility.yul\":2724:2751   */\n          slt\n            /* \"#utility.yul\":2714:2836   */\n          tag_79\n          jumpi\n            /* \"#utility.yul\":2755:2834   */\n          tag_80\n          tag_30\n          jump\t// in\n        tag_80:\n            /* \"#utility.yul\":2714:2836   */\n        tag_79:\n            /* \"#utility.yul\":2872:2878   */\n          dup2\n            /* \"#utility.yul\":2859:2879   */\n          calldataload\n            /* \"#utility.yul\":2897:2976   */\n          tag_81\n            /* \"#utility.yul\":2972:2975   */\n          dup5\n            /* \"#utility.yul\":2964:2970   */\n          dup3\n            /* \"#utility.yul\":2957:2961   */\n          0x20\n            /* \"#utility.yul\":2949:2955   */\n          dup7\n            /* \"#utility.yul\":2945:2962   */\n          add\n            /* \"#utility.yul\":2897:2976   */\n          tag_38\n          jump\t// in\n        tag_81:\n            /* \"#utility.yul\":2888:2976   */\n          swap2\n          pop\n            /* \"#utility.yul\":2704:2982   */\n          pop\n            /* \"#utility.yul\":2642:2982   */\n          swap3\n          swap2\n          pop\n          pop\n          jump\t// out\n            /* \"#utility.yul\":2988:3497   */\n        tag_12:\n            /* \"#utility.yul\":3057:3063   */\n          0x00\n            /* \"#utility.yul\":3106:3108   */\n          0x20\n            /* \"#utility.yul\":3094:3103   */\n          dup3\n            /* \"#utility.yul\":3085:3092   */\n          dup5\n            /* \"#utility.yul\":3081:3104   */\n          sub\n            /* \"#utility.yul\":3077:3109   */\n          slt\n            /* \"#utility.yul\":3074:3193   */\n          iszero\n          tag_83\n          jumpi\n            /* \"#utility.yul\":3112:3191   */\n          tag_84\n          tag_28\n          jump\t// in\n        tag_84:\n            /* \"#utility.yul\":3074:3193   */\n        tag_83:\n            /* \"#utility.yul\":3260:3261   */\n          0x00\n            /* \"#utility.yul\":3249:3258   */\n          dup3\n            /* \"#utility.yul\":3245:3262   */\n          add\n            /* \"#utility.yul\":3232:3263   */\n          calldataload\n            /* \"#utility.yul\":3290:3308   */\n          0xffffffffffffffff\n            /* \"#utility.yul\":3282:3288   */\n          dup2\n            /* \"#utility.yul\":3279:3309   */\n          gt\n            /* \"#utility.yul\":3276:3393   */\n          iszero\n          tag_85\n          jumpi\n            /* \"#utility.yul\":3312:3391   */\n          tag_86\n          tag_29\n          jump\t// in\n        tag_86:\n            /* \"#utility.yul\":3276:3393   */\n        tag_85:\n            /* \"#utility.yul\":3417:3480   */\n          tag_87\n            /* \"#utility.yul\":3472:3479   */\n          dup5\n            /* \"#utility.yul\":3463:3469   */\n          dup3\n            /* \"#utility.yul\":3452:3461   */\n          dup6\n            /* \"#utility.yul\":3448:3470   */\n          add\n            /* \"#utility.yul\":3417:3480   */\n          tag_39\n          jump\t// in\n        tag_87:\n            /* \"#utility.yul\":3407:3480   */\n          swap2\n          pop\n            /* \"#utility.yul\":3203:3490   */\n          pop\n            /* \"#utility.yul\":2988:3497   */\n          swap3\n          swap2\n          pop\n          pop\n          jump\t// out\n            /* \"#utility.yul\":3503:3602   */\n        tag_40:\n            /* \"#utility.yul\":3555:3561   */\n          0x00\n            /* \"#utility.yul\":3589:3594   */\n          dup2\n            /* \"#utility.yul\":3583:3595   */\n          mload\n            /* \"#utility.yul\":3573:3595   */\n          swap1\n          pop\n            /* \"#utility.yul\":3503:3602   */\n          swap2\n          swap1\n          pop\n          jump\t// out\n            /* \"#utility.yul\":3608:3777   */\n        tag_41:\n            /* \"#utility.yul\":3692:3703   */\n          0x00\n            /* \"#utility.yul\":3726:3732   */\n          dup3\n            /* \"#utility.yul\":3721:3724   */\n          dup3\n            /* \"#utility.yul\":3714:3733   */\n          mstore\n            /* \"#utility.yul\":3766:3770   */\n          0x20\n            /* \"#utility.yul\":3761:3764   */\n          dup3\n            /* \"#utility.yul\":3757:3771   */\n          add\n            /* \"#utility.yul\":3742:3771   */\n          swap1\n          pop\n            /* \"#utility.yul\":3608:3777   */\n          swap3\n          swap2\n          pop\n          pop\n          jump\t// out\n            /* \"#utility.yul\":3783:4029   */\n        tag_42:\n            /* \"#utility.yul\":3864:3865   */\n          0x00\n            /* \"#utility.yul\":3874:3987   */\n        tag_91:\n            /* \"#utility.yul\":3888:3894   */\n          dup4\n            /* \"#utility.yul\":3885:3886   */\n          dup2\n            /* \"#utility.yul\":3882:3895   */\n          lt\n            /* \"#utility.yul\":3874:3987   */\n          iszero\n          tag_93\n          jumpi\n            /* \"#utility.yul\":3973:3974   */\n          dup1\n            /* \"#utility.yul\":3968:3971   */\n          dup3\n            /* \"#utility.yul\":3964:3975   */\n          add\n            /* \"#utility.yul\":3958:3976   */\n          mload\n            /* \"#utility.yul\":3954:3955   */\n          dup2\n            /* \"#utility.yul\":3949:3952   */\n          dup5\n            /* \"#utility.yul\":3945:3956   */\n          add\n            /* \"#utility.yul\":3938:3977   */\n          mstore\n            /* \"#utility.yul\":3910:3912   */\n          0x20\n            /* \"#utility.yul\":3907:3908   */\n          dup2\n            /* \"#utility.yul\":3903:3913   */\n          add\n            /* \"#utility.yul\":3898:3913   */\n          swap1\n          pop\n            /* \"#utility.yul\":3874:3987   */\n          jump(tag_91)\n        tag_93:\n            /* \"#utility.yul\":4021:4022   */\n          0x00\n            /* \"#utility.yul\":4012:4018   */\n          dup5\n            /* \"#utility.yul\":4007:4010   */\n          dup5\n            /* \"#utility.yul\":4003:4019   */\n          add\n            /* \"#utility.yul\":3996:4023   */\n          mstore\n            /* \"#utility.yul\":3845:4029   */\n          pop\n            /* \"#utility.yul\":3783:4029   */\n          pop\n          pop\n          pop\n          jump\t// out\n            /* \"#utility.yul\":4035:4412   */\n        tag_43:\n            /* \"#utility.yul\":4123:4126   */\n          0x00\n            /* \"#utility.yul\":4151:4190   */\n          tag_95\n            /* \"#utility.yul\":4184:4189   */\n          dup3\n            /* \"#utility.yul\":4151:4190   */\n          tag_40\n          jump\t// in\n        tag_95:\n            /* \"#utility.yul\":4206:4277   */\n          tag_96\n            /* \"#utility.yul\":4270:4276   */\n          dup2\n            /* \"#utility.yul\":4265:4268   */\n          dup6\n            /* \"#utility.yul\":4206:4277   */\n          tag_41\n          jump\t// in\n        tag_96:\n            /* \"#utility.yul\":4199:4277   */\n          swap4\n          pop\n            /* \"#utility.yul\":4286:4351   */\n          tag_97\n            /* \"#utility.yul\":4344:4350   */\n          dup2\n            /* \"#utility.yul\":4339:4342   */\n          dup6\n            /* \"#utility.yul\":4332:4336   */\n          0x20\n            /* \"#utility.yul\":4325:4330   */\n          dup7\n            /* \"#utility.yul\":4321:4337   */\n          add\n            /* \"#utility.yul\":4286:4351   */\n          tag_42\n          jump\t// in\n        tag_97:\n            /* \"#utility.yul\":4376:4405   */\n          tag_98\n            /* \"#utility.yul\":4398:4404   */\n          dup2\n            /* \"#utility.yul\":4376:4405   */\n          tag_32\n          jump\t// in\n        tag_98:\n            /* \"#utility.yul\":4371:4374   */\n          dup5\n            /* \"#utility.yul\":4367:4406   */\n          add\n            /* \"#utility.yul\":4360:4406   */\n          swap2\n          pop\n            /* \"#utility.yul\":4127:4412   */\n          pop\n            /* \"#utility.yul\":4035:4412   */\n          swap3\n          swap2\n          pop\n          pop\n          jump\t// out\n            /* \"#utility.yul\":4418:4731   */\n        tag_15:\n            /* \"#utility.yul\":4531:4535   */\n          0x00\n            /* \"#utility.yul\":4569:4571   */\n          0x20\n            /* \"#utility.yul\":4558:4567   */\n          dup3\n            /* \"#utility.yul\":4554:4572   */\n          add\n            /* \"#utility.yul\":4546:4572   */\n          swap1\n          pop\n            /* \"#utility.yul\":4618:4627   */\n          dup2\n            /* \"#utility.yul\":4612:4616   */\n          dup2\n            /* \"#utility.yul\":4608:4628   */\n          sub\n            /* \"#utility.yul\":4604:4605   */\n          0x00\n            /* \"#utility.yul\":4593:4602   */\n          dup4\n            /* \"#utility.yul\":4589:4606   */\n          add\n            /* \"#utility.yul\":4582:4629   */\n          mstore\n            /* \"#utility.yul\":4646:4724   */\n          tag_100\n            /* \"#utility.yul\":4719:4723   */\n          dup2\n            /* \"#utility.yul\":4710:4716   */\n          dup5\n            /* \"#utility.yul\":4646:4724   */\n          tag_43\n          jump\t// in\n        tag_100:\n            /* \"#utility.yul\":4638:4724   */\n          swap1\n          pop\n            /* \"#utility.yul\":4418:4731   */\n          swap3\n          swap2\n          pop\n          pop\n          jump\t// out\n            /* \"#utility.yul\":4737:4859   */\n        tag_44:\n            /* \"#utility.yul\":4810:4834   */\n          tag_102\n            /* \"#utility.yul\":4828:4833   */\n          dup2\n            /* \"#utility.yul\":4810:4834   */\n          tag_25\n          jump\t// in\n        tag_102:\n            /* \"#utility.yul\":4803:4808   */\n          dup2\n            /* \"#utility.yul\":4800:4835   */\n          eq\n            /* \"#utility.yul\":4790:4853   */\n          tag_103\n          jumpi\n            /* \"#utility.yul\":4849:4850   */\n          0x00\n            /* \"#utility.yul\":4846:4847   */\n          dup1\n            /* \"#utility.yul\":4839:4851   */\n          revert\n            /* \"#utility.yul\":4790:4853   */\n        tag_103:\n            /* \"#utility.yul\":4737:4859   */\n          pop\n          jump\t// out\n            /* \"#utility.yul\":4865:5004   */\n        tag_45:\n            /* \"#utility.yul\":4911:4916   */\n          0x00\n            /* \"#utility.yul\":4949:4955   */\n          dup2\n            /* \"#utility.yul\":4936:4956   */\n          calldataload\n            /* \"#utility.yul\":4927:4956   */\n          swap1\n          pop\n            /* \"#utility.yul\":4965:4998   */\n          tag_105\n            /* \"#utility.yul\":4992:4997   */\n          dup2\n            /* \"#utility.yul\":4965:4998   */\n          tag_44\n          jump\t// in\n        tag_105:\n            /* \"#utility.yul\":4865:5004   */\n          swap3\n          swap2\n          pop\n          pop\n          jump\t// out\n            /* \"#utility.yul\":5010:5484   */\n        tag_18:\n            /* \"#utility.yul\":5078:5084   */\n          0x00\n            /* \"#utility.yul\":5086:5092   */\n          dup1\n            /* \"#utility.yul\":5135:5137   */\n          0x40\n            /* \"#utility.yul\":5123:5132   */\n          dup4\n            /* \"#utility.yul\":5114:5121   */\n          dup6\n            /* \"#utility.yul\":5110:5133   */\n          sub\n            /* \"#utility.yul\":5106:5138   */\n          slt\n            /* \"#utility.yul\":5103:5222   */\n          iszero\n          tag_107\n          jumpi\n            /* \"#utility.yul\":5141:5220   */\n          tag_108\n          tag_28\n          jump\t// in\n        tag_108:\n            /* \"#utility.yul\":5103:5222   */\n        tag_107:\n            /* \"#utility.yul\":5261:5262   */\n          0x00\n            /* \"#utility.yul\":5286:5339   */\n          tag_109\n            /* \"#utility.yul\":5331:5338   */\n          dup6\n            /* \"#utility.yul\":5322:5328   */\n          dup3\n            /* \"#utility.yul\":5311:5320   */\n          dup7\n            /* \"#utility.yul\":5307:5329   */\n          add\n            /* \"#utility.yul\":5286:5339   */\n          tag_45\n          jump\t// in\n        tag_109:\n            /* \"#utility.yul\":5276:5339   */\n          swap3\n          pop\n            /* \"#utility.yul\":5232:5349   */\n          pop\n            /* \"#utility.yul\":5388:5390   */\n          0x20\n            /* \"#utility.yul\":5414:5467   */\n          tag_110\n            /* \"#utility.yul\":5459:5466   */\n          dup6\n            /* \"#utility.yul\":5450:5456   */\n          dup3\n            /* \"#utility.yul\":5439:5448   */\n          dup7\n            /* \"#utility.yul\":5435:5457   */\n          add\n            /* \"#utility.yul\":5414:5467   */\n          tag_45\n          jump\t// in\n        tag_110:\n            /* \"#utility.yul\":5404:5467   */\n          swap2\n          pop\n            /* \"#utility.yul\":5359:5477   */\n          pop\n            /* \"#utility.yul\":5010:5484   */\n          swap3\n          pop\n          swap3\n          swap1\n          pop\n          jump\t// out\n            /* \"#utility.yul\":5490:5670   */\n        tag_46:\n            /* \"#utility.yul\":5538:5615   */\n          0x4e487b7100000000000000000000000000000000000000000000000000000000\n            /* \"#utility.yul\":5535:5536   */\n          0x00\n            /* \"#utility.yul\":5528:5616   */\n          mstore\n            /* \"#utility.yul\":5635:5639   */\n          0x11\n            /* \"#utility.yul\":5632:5633   */\n          0x04\n            /* \"#utility.yul\":5625:5640   */\n          mstore\n            /* \"#utility.yul\":5659:5663   */\n          0x24\n            /* \"#utility.yul\":5656:5657   */\n          0x00\n            /* \"#utility.yul\":5649:5664   */\n          revert\n            /* \"#utility.yul\":5676:5867   */\n        tag_22:\n            /* \"#utility.yul\":5716:5719   */\n          0x00\n            /* \"#utility.yul\":5735:5755   */\n          tag_113\n            /* \"#utility.yul\":5753:5754   */\n          dup3\n            /* \"#utility.yul\":5735:5755   */\n          tag_25\n          jump\t// in\n        tag_113:\n            /* \"#utility.yul\":5730:5755   */\n          swap2\n          pop\n            /* \"#utility.yul\":5769:5789   */\n          tag_114\n            /* \"#utility.yul\":5787:5788   */\n          dup4\n            /* \"#utility.yul\":5769:5789   */\n          tag_25\n          jump\t// in\n        tag_114:\n            /* \"#utility.yul\":5764:5789   */\n          swap3\n          pop\n            /* \"#utility.yul\":5812:5813   */\n          dup3\n            /* \"#utility.yul\":5809:5810   */\n          dup3\n            /* \"#utility.yul\":5805:5814   */\n          add\n            /* \"#utility.yul\":5798:5814   */\n          swap1\n          pop\n            /* \"#utility.yul\":5833:5836   */\n          dup1\n            /* \"#utility.yul\":5830:5831   */\n          dup3\n            /* \"#utility.yul\":5827:5837   */\n          gt\n            /* \"#utility.yul\":5824:5860   */\n          iszero\n          tag_115\n          jumpi\n            /* \"#utility.yul\":5840:5858   */\n          tag_116\n          tag_46\n          jump\t// in\n        tag_116:\n            /* \"#utility.yul\":5824:5860   */\n        tag_115:\n            /* \"#utility.yul\":5676:5867   */\n          swap3\n          swap2\n          pop\n          pop\n          jump\t// out\n\n        auxdata: 0xa264697066735822122099137db30da2d8f8d254caaea31a22d9a21fe4df8903d9846dc69feac39d6b1764736f6c63430008160033\n    }\n}\n",
				"bytecode": {
					"linkReferences": {},
					"object": "608060405234801561000f575f80fd5b5060405161001c9061007a565b604051809103905ff080158015610035573d5f803e3d5ffd5b5060025f6101000a81548173ffffffffffffffffffffffffffffffffffffffff021916908373ffffffffffffffffffffffffffffffffffffffff160217905550610087565b610457806108e483390190565b610850806100945f395ff3fe608060405234801561000f575f80fd5b506004361061004a575f3560e01c806319eb4a901461004e5780634f2be91f1461006d57806367d498f91461008b578063ce9299bb146100bb575b5f80fd5b6100566100d7565b604051610064929190610369565b60405180910390f35b610075610297565b6040516100829190610397565b60405180910390f35b6100a560048036038101906100a091906104ed565b6102ac565b6040516100b29190610534565b60405180910390f35b6100d560048036038101906100d0919061057e565b6102b6565b005b60605f60025f9054906101000a900473ffffffffffffffffffffffffffffffffffffffff1673ffffffffffffffffffffffffffffffffffffffff1663ce9299bb600b600c6040518363ffffffff1660e01b8152600401610138929190610637565b5f604051808303815f87803b15801561014f575f80fd5b505af1158015610161573d5f803e3d5ffd5b5050505060025f9054906101000a900473ffffffffffffffffffffffffffffffffffffffff1673ffffffffffffffffffffffffffffffffffffffff166367d498f96040518163ffffffff1660e01b81526004016101bd906106a8565b5f604051808303815f875af11580156101d8573d5f803e3d5ffd5b505050506040513d5f823e3d601f19601f820116820180604052508101906102009190610734565b60025f9054906101000a900473ffffffffffffffffffffffffffffffffffffffff1673ffffffffffffffffffffffffffffffffffffffff16634f2be91f6040518163ffffffff1660e01b81526004016020604051808303815f875af115801561026b573d5f803e3d5ffd5b505050506040513d601f19601f8201168201806040525081019061028f919061078f565b915091509091565b5f6001545f546102a791906107e7565b905090565b6060819050919050565b815f81905550806001819055505050565b5f81519050919050565b5f82825260208201905092915050565b5f5b838110156102fe5780820151818401526020810190506102e3565b5f8484015250505050565b5f601f19601f8301169050919050565b5f610323826102c7565b61032d81856102d1565b935061033d8185602086016102e1565b61034681610309565b840191505092915050565b5f819050919050565b61036381610351565b82525050565b5f6040820190508181035f8301526103818185610319565b9050610390602083018461035a565b9392505050565b5f6020820190506103aa5f83018461035a565b92915050565b5f604051905090565b5f80fd5b5f80fd5b5f80fd5b5f80fd5b7f4e487b71000000000000000000000000000000000000000000000000000000005f52604160045260245ffd5b6103ff82610309565b810181811067ffffffffffffffff8211171561041e5761041d6103c9565b5b80604052505050565b5f6104306103b0565b905061043c82826103f6565b919050565b5f67ffffffffffffffff82111561045b5761045a6103c9565b5b61046482610309565b9050602081019050919050565b828183375f83830152505050565b5f61049161048c84610441565b610427565b9050828152602081018484840111156104ad576104ac6103c5565b5b6104b8848285610471565b509392505050565b5f82601f8301126104d4576104d36103c1565b5b81356104e484826020860161047f565b91505092915050565b5f60208284031215610502576105016103b9565b5b5f82013567ffffffffffffffff81111561051f5761051e6103bd565b5b61052b848285016104c0565b91505092915050565b5f6020820190508181035f83015261054c8184610319565b905092915050565b61055d81610351565b8114610567575f80fd5b50565b5f8135905061057881610554565b92915050565b5f8060408385031215610594576105936103b9565b5b5f6105a18582860161056a565b92505060206105b28582860161056a565b9150509250929050565b5f819050919050565b5f819050919050565b5f6105e86105e36105de846105bc565b6105c5565b610351565b9050919050565b6105f8816105ce565b82525050565b5f819050919050565b5f61062161061c610617846105fe565b6105c5565b610351565b9050919050565b61063181610607565b82525050565b5f60408201905061064a5f8301856105ef565b6106576020830184610628565b9392505050565b7f736861686e696c6c0000000000000000000000000000000000000000000000005f82015250565b5f6106926008836102d1565b915061069d8261065e565b602082019050919050565b5f6020820190508181035f8301526106bf81610686565b9050919050565b5f6106d86106d384610441565b610427565b9050828152602081018484840111156106f4576106f36103c5565b5b6106ff8482856102e1565b509392505050565b5f82601f83011261071b5761071a6103c1565b5b815161072b8482602086016106c6565b91505092915050565b5f60208284031215610749576107486103b9565b5b5f82015167ffffffffffffffff811115610766576107656103bd565b5b61077284828501610707565b91505092915050565b5f8151905061078981610554565b92915050565b5f602082840312156107a4576107a36103b9565b5b5f6107b18482850161077b565b91505092915050565b7f4e487b71000000000000000000000000000000000000000000000000000000005f52601160045260245ffd5b5f6107f182610351565b91506107fc83610351565b9250828201905080821115610814576108136107ba565b5b9291505056fea26469706673582212205bac6aa3902dda83a4af75ae5241403671ee76dda55eb56763fef9bb681094ea64736f6c63430008160033608060405234801561000f575f80fd5b5061043a8061001d5f395ff3fe608060405234801561000f575f80fd5b506004361061003f575f3560e01c80634f2be91f1461004357806367d498f914610061578063ce9299bb14610091575b5f80fd5b61004b6100ad565b60405161005891906100f5565b60405180910390f35b61007b6004803603810190610076919061025b565b6100c2565b604051610088919061031c565b60405180910390f35b6100ab60048036038101906100a69190610366565b6100cc565b005b5f6001545f546100bd91906103d1565b905090565b6060819050919050565b815f81905550806001819055505050565b5f819050919050565b6100ef816100dd565b82525050565b5f6020820190506101085f8301846100e6565b92915050565b5f604051905090565b5f80fd5b5f80fd5b5f80fd5b5f80fd5b5f601f19601f8301169050919050565b7f4e487b71000000000000000000000000000000000000000000000000000000005f52604160045260245ffd5b61016d82610127565b810181811067ffffffffffffffff8211171561018c5761018b610137565b5b80604052505050565b5f61019e61010e565b90506101aa8282610164565b919050565b5f67ffffffffffffffff8211156101c9576101c8610137565b5b6101d282610127565b9050602081019050919050565b828183375f83830152505050565b5f6101ff6101fa846101af565b610195565b90508281526020810184848401111561021b5761021a610123565b5b6102268482856101df565b509392505050565b5f82601f8301126102425761024161011f565b5b81356102528482602086016101ed565b91505092915050565b5f602082840312156102705761026f610117565b5b5f82013567ffffffffffffffff81111561028d5761028c61011b565b5b6102998482850161022e565b91505092915050565b5f81519050919050565b5f82825260208201905092915050565b5f5b838110156102d95780820151818401526020810190506102be565b5f8484015250505050565b5f6102ee826102a2565b6102f881856102ac565b93506103088185602086016102bc565b61031181610127565b840191505092915050565b5f6020820190508181035f83015261033481846102e4565b905092915050565b610345816100dd565b811461034f575f80fd5b50565b5f813590506103608161033c565b92915050565b5f806040838503121561037c5761037b610117565b5b5f61038985828601610352565b925050602061039a85828601610352565b9150509250929050565b7f4e487b71000000000000000000000000000000000000000000000000000000005f52601160045260245ffd5b5f6103db826100dd565b91506103e6836100dd565b92508282019050808211156103fe576103fd6103a4565b5b9291505056fea264697066735822122099137db30da2d8f8d254caaea31a22d9a21fe4df8903d9846dc69feac39d6b1764736f6c63430008160033",
					"opcodes": "PUSH1 0x80 PUSH1 0x40 MSTORE CALLVALUE DUP1 ISZERO PUSH2 0xF JUMPI PUSH0 DUP1 REVERT JUMPDEST POP PUSH1 0x40 MLOAD PUSH2 0x1C SWAP1 PUSH2 0x7A JUMP JUMPDEST PUSH1 0x40 MLOAD DUP1 SWAP2 SUB SWAP1 PUSH0 CREATE DUP1 ISZERO DUP1 ISZERO PUSH2 0x35 JUMPI RETURNDATASIZE PUSH0 DUP1 RETURNDATACOPY RETURNDATASIZE PUSH0 REVERT JUMPDEST POP PUSH1 0x2 PUSH0 PUSH2 0x100 EXP DUP2 SLOAD DUP2 PUSH20 0xFFFFFFFFFFFFFFFFFFFFFFFFFFFFFFFFFFFFFFFF MUL NOT AND SWAP1 DUP4 PUSH20 0xFFFFFFFFFFFFFFFFFFFFFFFFFFFFFFFFFFFFFFFF AND MUL OR SWAP1 SSTORE POP PUSH2 0x87 JUMP JUMPDEST PUSH2 0x457 DUP1 PUSH2 0x8E4 DUP4 CODECOPY ADD SWAP1 JUMP JUMPDEST PUSH2 0x850 DUP1 PUSH2 0x94 PUSH0 CODECOPY PUSH0 RETURN INVALID PUSH1 0x80 PUSH1 0x40 MSTORE CALLVALUE DUP1 ISZERO PUSH2 0xF JUMPI PUSH0 DUP1 REVERT JUMPDEST POP PUSH1 0x4 CALLDATASIZE LT PUSH2 0x4A JUMPI PUSH0 CALLDATALOAD PUSH1 0xE0 SHR DUP1 PUSH4 0x19EB4A90 EQ PUSH2 0x4E JUMPI DUP1 PUSH4 0x4F2BE91F EQ PUSH2 0x6D JUMPI DUP1 PUSH4 0x67D498F9 EQ PUSH2 0x8B JUMPI DUP1 PUSH4 0xCE9299BB EQ PUSH2 0xBB JUMPI JUMPDEST PUSH0 DUP1 REVERT JUMPDEST PUSH2 0x56 PUSH2 0xD7 JUMP JUMPDEST PUSH1 0x40 MLOAD PUSH2 0x64 SWAP3 SWAP2 SWAP1 PUSH2 0x369 JUMP JUMPDEST PUSH1 0x40 MLOAD DUP1 SWAP2 SUB SWAP1 RETURN JUMPDEST PUSH2 0x75 PUSH2 0x297 JUMP JUMPDEST PUSH1 0x40 MLOAD PUSH2 0x82 SWAP2 SWAP1 PUSH2 0x397 JUMP JUMPDEST PUSH1 0x40 MLOAD DUP1 SWAP2 SUB SWAP1 RETURN JUMPDEST PUSH2 0xA5 PUSH1 0x4 DUP1 CALLDATASIZE SUB DUP2 ADD SWAP1 PUSH2 0xA0 SWAP2 SWAP1 PUSH2 0x4ED JUMP JUMPDEST PUSH2 0x2AC JUMP JUMPDEST PUSH1 0x40 MLOAD PUSH2 0xB2 SWAP2 SWAP1 PUSH2 0x534 JUMP JUMPDEST PUSH1 0x40 MLOAD DUP1 SWAP2 SUB SWAP1 RETURN JUMPDEST PUSH2 0xD5 PUSH1 0x4 DUP1 CALLDATASIZE SUB DUP2 ADD SWAP1 PUSH2 0xD0 SWAP2 SWAP1 PUSH2 0x57E JUMP JUMPDEST PUSH2 0x2B6 JUMP JUMPDEST STOP JUMPDEST PUSH1 0x60 PUSH0 PUSH1 0x2 PUSH0 SWAP1 SLOAD SWAP1 PUSH2 0x100 EXP SWAP1 DIV PUSH20 0xFFFFFFFFFFFFFFFFFFFFFFFFFFFFFFFFFFFFFFFF AND PUSH20 0xFFFFFFFFFFFFFFFFFFFFFFFFFFFFFFFFFFFFFFFF AND PUSH4 0xCE9299BB PUSH1 0xB PUSH1 0xC PUSH1 0x40 MLOAD DUP4 PUSH4 0xFFFFFFFF AND PUSH1 0xE0 SHL DUP2 MSTORE PUSH1 0x4 ADD PUSH2 0x138 SWAP3 SWAP2 SWAP1 PUSH2 0x637 JUMP JUMPDEST PUSH0 PUSH1 0x40 MLOAD DUP1 DUP4 SUB DUP2 PUSH0 DUP8 DUP1 EXTCODESIZE ISZERO DUP1 ISZERO PUSH2 0x14F JUMPI PUSH0 DUP1 REVERT JUMPDEST POP GAS CALL ISZERO DUP1 ISZERO PUSH2 0x161 JUMPI RETURNDATASIZE PUSH0 DUP1 RETURNDATACOPY RETURNDATASIZE PUSH0 REVERT JUMPDEST POP POP POP POP PUSH1 0x2 PUSH0 SWAP1 SLOAD SWAP1 PUSH2 0x100 EXP SWAP1 DIV PUSH20 0xFFFFFFFFFFFFFFFFFFFFFFFFFFFFFFFFFFFFFFFF AND PUSH20 0xFFFFFFFFFFFFFFFFFFFFFFFFFFFFFFFFFFFFFFFF AND PUSH4 0x67D498F9 PUSH1 0x40 MLOAD DUP2 PUSH4 0xFFFFFFFF AND PUSH1 0xE0 SHL DUP2 MSTORE PUSH1 0x4 ADD PUSH2 0x1BD SWAP1 PUSH2 0x6A8 JUMP JUMPDEST PUSH0 PUSH1 0x40 MLOAD DUP1 DUP4 SUB DUP2 PUSH0 DUP8 GAS CALL ISZERO DUP1 ISZERO PUSH2 0x1D8 JUMPI RETURNDATASIZE PUSH0 DUP1 RETURNDATACOPY RETURNDATASIZE PUSH0 REVERT JUMPDEST POP POP POP POP PUSH1 0x40 MLOAD RETURNDATASIZE PUSH0 DUP3 RETURNDATACOPY RETURNDATASIZE PUSH1 0x1F NOT PUSH1 0x1F DUP3 ADD AND DUP3 ADD DUP1 PUSH1 0x40 MSTORE POP DUP2 ADD SWAP1 PUSH2 0x200 SWAP2 SWAP1 PUSH2 0x734 JUMP JUMPDEST PUSH1 0x2 PUSH0 SWAP1 SLOAD SWAP1 PUSH2 0x100 EXP SWAP1 DIV PUSH20 0xFFFFFFFFFFFFFFFFFFFFFFFFFFFFFFFFFFFFFFFF AND PUSH20 0xFFFFFFFFFFFFFFFFFFFFFFFFFFFFFFFFFFFFFFFF AND PUSH4 0x4F2BE91F PUSH1 0x40 MLOAD DUP2 PUSH4 0xFFFFFFFF AND PUSH1 0xE0 SHL DUP2 MSTORE PUSH1 0x4 ADD PUSH1 0x20 PUSH1 0x40 MLOAD DUP1 DUP4 SUB DUP2 PUSH0 DUP8 GAS CALL ISZERO DUP1 ISZERO PUSH2 0x26B JUMPI RETURNDATASIZE PUSH0 DUP1 RETURNDATACOPY RETURNDATASIZE PUSH0 REVERT JUMPDEST POP POP POP POP PUSH1 0x40 MLOAD RETURNDATASIZE PUSH1 0x1F NOT PUSH1 0x1F DUP3 ADD AND DUP3 ADD DUP1 PUSH1 0x40 MSTORE POP DUP2 ADD SWAP1 PUSH2 0x28F SWAP2 SWAP1 PUSH2 0x78F JUMP JUMPDEST SWAP2 POP SWAP2 POP SWAP1 SWAP2 JUMP JUMPDEST PUSH0 PUSH1 0x1 SLOAD PUSH0 SLOAD PUSH2 0x2A7 SWAP2 SWAP1 PUSH2 0x7E7 JUMP JUMPDEST SWAP1 POP SWAP1 JUMP JUMPDEST PUSH1 0x60 DUP2 SWAP1 POP SWAP2 SWAP1 POP JUMP JUMPDEST DUP2 PUSH0 DUP2 SWAP1 SSTORE POP DUP1 PUSH1 0x1 DUP2 SWAP1 SSTORE POP POP POP JUMP JUMPDEST PUSH0 DUP2 MLOAD SWAP1 POP SWAP2 SWAP1 POP JUMP JUMPDEST PUSH0 DUP3 DUP3 MSTORE PUSH1 0x20 DUP3 ADD SWAP1 POP SWAP3 SWAP2 POP POP JUMP JUMPDEST PUSH0 JUMPDEST DUP4 DUP2 LT ISZERO PUSH2 0x2FE JUMPI DUP1 DUP3 ADD MLOAD DUP2 DUP5 ADD MSTORE PUSH1 0x20 DUP2 ADD SWAP1 POP PUSH2 0x2E3 JUMP JUMPDEST PUSH0 DUP5 DUP5 ADD MSTORE POP POP POP POP JUMP JUMPDEST PUSH0 PUSH1 0x1F NOT PUSH1 0x1F DUP4 ADD AND SWAP1 POP SWAP2 SWAP1 POP JUMP JUMPDEST PUSH0 PUSH2 0x323 DUP3 PUSH2 0x2C7 JUMP JUMPDEST PUSH2 0x32D DUP2 DUP6 PUSH2 0x2D1 JUMP JUMPDEST SWAP4 POP PUSH2 0x33D DUP2 DUP6 PUSH1 0x20 DUP7 ADD PUSH2 0x2E1 JUMP JUMPDEST PUSH2 0x346 DUP2 PUSH2 0x309 JUMP JUMPDEST DUP5 ADD SWAP2 POP POP SWAP3 SWAP2 POP POP JUMP JUMPDEST PUSH0 DUP2 SWAP1 POP SWAP2 SWAP1 POP JUMP JUMPDEST PUSH2 0x363 DUP2 PUSH2 0x351 JUMP JUMPDEST DUP3 MSTORE POP POP JUMP JUMPDEST PUSH0 PUSH1 0x40 DUP3 ADD SWAP1 POP DUP2 DUP2 SUB PUSH0 DUP4 ADD MSTORE PUSH2 0x381 DUP2 DUP6 PUSH2 0x319 JUMP JUMPDEST SWAP1 POP PUSH2 0x390 PUSH1 0x20 DUP4 ADD DUP5 PUSH2 0x35A JUMP JUMPDEST SWAP4 SWAP3 POP POP POP JUMP JUMPDEST PUSH0 PUSH1 0x20 DUP3 ADD SWAP1 POP PUSH2 0x3AA PUSH0 DUP4 ADD DUP5 PUSH2 0x35A JUMP JUMPDEST SWAP3 SWAP2 POP POP JUMP JUMPDEST PUSH0 PUSH1 0x40 MLOAD SWAP1 POP SWAP1 JUMP JUMPDEST PUSH0 DUP1 REVERT JUMPDEST PUSH0 DUP1 REVERT JUMPDEST PUSH0 DUP1 REVERT JUMPDEST PUSH0 DUP1 REVERT JUMPDEST PUSH32 0x4E487B7100000000000000000000000000000000000000000000000000000000 PUSH0 MSTORE PUSH1 0x41 PUSH1 0x4 MSTORE PUSH1 0x24 PUSH0 REVERT JUMPDEST PUSH2 0x3FF DUP3 PUSH2 0x309 JUMP JUMPDEST DUP2 ADD DUP2 DUP2 LT PUSH8 0xFFFFFFFFFFFFFFFF DUP3 GT OR ISZERO PUSH2 0x41E JUMPI PUSH2 0x41D PUSH2 0x3C9 JUMP JUMPDEST JUMPDEST DUP1 PUSH1 0x40 MSTORE POP POP POP JUMP JUMPDEST PUSH0 PUSH2 0x430 PUSH2 0x3B0 JUMP JUMPDEST SWAP1 POP PUSH2 0x43C DUP3 DUP3 PUSH2 0x3F6 JUMP JUMPDEST SWAP2 SWAP1 POP JUMP JUMPDEST PUSH0 PUSH8 0xFFFFFFFFFFFFFFFF DUP3 GT ISZERO PUSH2 0x45B JUMPI PUSH2 0x45A PUSH2 0x3C9 JUMP JUMPDEST JUMPDEST PUSH2 0x464 DUP3 PUSH2 0x309 JUMP JUMPDEST SWAP1 POP PUSH1 0x20 DUP2 ADD SWAP1 POP SWAP2 SWAP1 POP JUMP JUMPDEST DUP3 DUP2 DUP4 CALLDATACOPY PUSH0 DUP4 DUP4 ADD MSTORE POP POP POP JUMP JUMPDEST PUSH0 PUSH2 0x491 PUSH2 0x48C DUP5 PUSH2 0x441 JUMP JUMPDEST PUSH2 0x427 JUMP JUMPDEST SWAP1 POP DUP3 DUP2 MSTORE PUSH1 0x20 DUP2 ADD DUP5 DUP5 DUP5 ADD GT ISZERO PUSH2 0x4AD JUMPI PUSH2 0x4AC PUSH2 0x3C5 JUMP JUMPDEST JUMPDEST PUSH2 0x4B8 DUP5 DUP3 DUP6 PUSH2 0x471 JUMP JUMPDEST POP SWAP4 SWAP3 POP POP POP JUMP JUMPDEST PUSH0 DUP3 PUSH1 0x1F DUP4 ADD SLT PUSH2 0x4D4 JUMPI PUSH2 0x4D3 PUSH2 0x3C1 JUMP JUMPDEST JUMPDEST DUP2 CALLDATALOAD PUSH2 0x4E4 DUP5 DUP3 PUSH1 0x20 DUP7 ADD PUSH2 0x47F JUMP JUMPDEST SWAP2 POP POP SWAP3 SWAP2 POP POP JUMP JUMPDEST PUSH0 PUSH1 0x20 DUP3 DUP5 SUB SLT ISZERO PUSH2 0x502 JUMPI PUSH2 0x501 PUSH2 0x3B9 JUMP JUMPDEST JUMPDEST PUSH0 DUP3 ADD CALLDATALOAD PUSH8 0xFFFFFFFFFFFFFFFF DUP2 GT ISZERO PUSH2 0x51F JUMPI PUSH2 0x51E PUSH2 0x3BD JUMP JUMPDEST JUMPDEST PUSH2 0x52B DUP5 DUP3 DUP6 ADD PUSH2 0x4C0 JUMP JUMPDEST SWAP2 POP POP SWAP3 SWAP2 POP POP JUMP JUMPDEST PUSH0 PUSH1 0x20 DUP3 ADD SWAP1 POP DUP2 DUP2 SUB PUSH0 DUP4 ADD MSTORE PUSH2 0x54C DUP2 DUP5 PUSH2 0x319 JUMP JUMPDEST SWAP1 POP SWAP3 SWAP2 POP POP JUMP JUMPDEST PUSH2 0x55D DUP2 PUSH2 0x351 JUMP JUMPDEST DUP2 EQ PUSH2 0x567 JUMPI PUSH0 DUP1 REVERT JUMPDEST POP JUMP JUMPDEST PUSH0 DUP2 CALLDATALOAD SWAP1 POP PUSH2 0x578 DUP2 PUSH2 0x554 JUMP JUMPDEST SWAP3 SWAP2 POP POP JUMP JUMPDEST PUSH0 DUP1 PUSH1 0x40 DUP4 DUP6 SUB SLT ISZERO PUSH2 0x594 JUMPI PUSH2 0x593 PUSH2 0x3B9 JUMP JUMPDEST JUMPDEST PUSH0 PUSH2 0x5A1 DUP6 DUP3 DUP7 ADD PUSH2 0x56A JUMP JUMPDEST SWAP3 POP POP PUSH1 0x20 PUSH2 0x5B2 DUP6 DUP3 DUP7 ADD PUSH2 0x56A JUMP JUMPDEST SWAP2 POP POP SWAP3 POP SWAP3 SWAP1 POP JUMP JUMPDEST PUSH0 DUP2 SWAP1 POP SWAP2 SWAP1 POP JUMP JUMPDEST PUSH0 DUP2 SWAP1 POP SWAP2 SWAP1 POP JUMP JUMPDEST PUSH0 PUSH2 0x5E8 PUSH2 0x5E3 PUSH2 0x5DE DUP5 PUSH2 0x5BC JUMP JUMPDEST PUSH2 0x5C5 JUMP JUMPDEST PUSH2 0x351 JUMP JUMPDEST SWAP1 POP SWAP2 SWAP1 POP JUMP JUMPDEST PUSH2 0x5F8 DUP2 PUSH2 0x5CE JUMP JUMPDEST DUP3 MSTORE POP POP JUMP JUMPDEST PUSH0 DUP2 SWAP1 POP SWAP2 SWAP1 POP JUMP JUMPDEST PUSH0 PUSH2 0x621 PUSH2 0x61C PUSH2 0x617 DUP5 PUSH2 0x5FE JUMP JUMPDEST PUSH2 0x5C5 JUMP JUMPDEST PUSH2 0x351 JUMP JUMPDEST SWAP1 POP SWAP2 SWAP1 POP JUMP JUMPDEST PUSH2 0x631 DUP2 PUSH2 0x607 JUMP JUMPDEST DUP3 MSTORE POP POP JUMP JUMPDEST PUSH0 PUSH1 0x40 DUP3 ADD SWAP1 POP PUSH2 0x64A PUSH0 DUP4 ADD DUP6 PUSH2 0x5EF JUMP JUMPDEST PUSH2 0x657 PUSH1 0x20 DUP4 ADD DUP5 PUSH2 0x628 JUMP JUMPDEST SWAP4 SWAP3 POP POP POP JUMP JUMPDEST PUSH32 0x736861686E696C6C000000000000000000000000000000000000000000000000 PUSH0 DUP3 ADD MSTORE POP JUMP JUMPDEST PUSH0 PUSH2 0x692 PUSH1 0x8 DUP4 PUSH2 0x2D1 JUMP JUMPDEST SWAP2 POP PUSH2 0x69D DUP3 PUSH2 0x65E JUMP JUMPDEST PUSH1 0x20 DUP3 ADD SWAP1 POP SWAP2 SWAP1 POP JUMP JUMPDEST PUSH0 PUSH1 0x20 DUP3 ADD SWAP1 POP DUP2 DUP2 SUB PUSH0 DUP4 ADD MSTORE PUSH2 0x6BF DUP2 PUSH2 0x686 JUMP JUMPDEST SWAP1 POP SWAP2 SWAP1 POP JUMP JUMPDEST PUSH0 PUSH2 0x6D8 PUSH2 0x6D3 DUP5 PUSH2 0x441 JUMP JUMPDEST PUSH2 0x427 JUMP JUMPDEST SWAP1 POP DUP3 DUP2 MSTORE PUSH1 0x20 DUP2 ADD DUP5 DUP5 DUP5 ADD GT ISZERO PUSH2 0x6F4 JUMPI PUSH2 0x6F3 PUSH2 0x3C5 JUMP JUMPDEST JUMPDEST PUSH2 0x6FF DUP5 DUP3 DUP6 PUSH2 0x2E1 JUMP JUMPDEST POP SWAP4 SWAP3 POP POP POP JUMP JUMPDEST PUSH0 DUP3 PUSH1 0x1F DUP4 ADD SLT PUSH2 0x71B JUMPI PUSH2 0x71A PUSH2 0x3C1 JUMP JUMPDEST JUMPDEST DUP2 MLOAD PUSH2 0x72B DUP5 DUP3 PUSH1 0x20 DUP7 ADD PUSH2 0x6C6 JUMP JUMPDEST SWAP2 POP POP SWAP3 SWAP2 POP POP JUMP JUMPDEST PUSH0 PUSH1 0x20 DUP3 DUP5 SUB SLT ISZERO PUSH2 0x749 JUMPI PUSH2 0x748 PUSH2 0x3B9 JUMP JUMPDEST JUMPDEST PUSH0 DUP3 ADD MLOAD PUSH8 0xFFFFFFFFFFFFFFFF DUP2 GT ISZERO PUSH2 0x766 JUMPI PUSH2 0x765 PUSH2 0x3BD JUMP JUMPDEST JUMPDEST PUSH2 0x772 DUP5 DUP3 DUP6 ADD PUSH2 0x707 JUMP JUMPDEST SWAP2 POP POP SWAP3 SWAP2 POP POP JUMP JUMPDEST PUSH0 DUP2 MLOAD SWAP1 POP PUSH2 0x789 DUP2 PUSH2 0x554 JUMP JUMPDEST SWAP3 SWAP2 POP POP JUMP JUMPDEST PUSH0 PUSH1 0x20 DUP3 DUP5 SUB SLT ISZERO PUSH2 0x7A4 JUMPI PUSH2 0x7A3 PUSH2 0x3B9 JUMP JUMPDEST JUMPDEST PUSH0 PUSH2 0x7B1 DUP5 DUP3 DUP6 ADD PUSH2 0x77B JUMP JUMPDEST SWAP2 POP POP SWAP3 SWAP2 POP POP JUMP JUMPDEST PUSH32 0x4E487B7100000000000000000000000000000000000000000000000000000000 PUSH0 MSTORE PUSH1 0x11 PUSH1 0x4 MSTORE PUSH1 0x24 PUSH0 REVERT JUMPDEST PUSH0 PUSH2 0x7F1 DUP3 PUSH2 0x351 JUMP JUMPDEST SWAP2 POP PUSH2 0x7FC DUP4 PUSH2 0x351 JUMP JUMPDEST SWAP3 POP DUP3 DUP3 ADD SWAP1 POP DUP1 DUP3 GT ISZERO PUSH2 0x814 JUMPI PUSH2 0x813 PUSH2 0x7BA JUMP JUMPDEST JUMPDEST SWAP3 SWAP2 POP POP JUMP INVALID LOG2 PUSH5 0x6970667358 0x22 SLT KECCAK256 JUMPDEST 0xAC PUSH11 0xA3902DDA83A4AF75AE5241 BLOCKHASH CALLDATASIZE PUSH18 0xEE76DDA55EB56763FEF9BB681094EA64736F PUSH13 0x63430008160033608060405234 DUP1 ISZERO PUSH2 0xF JUMPI PUSH0 DUP1 REVERT JUMPDEST POP PUSH2 0x43A DUP1 PUSH2 0x1D PUSH0 CODECOPY PUSH0 RETURN INVALID PUSH1 0x80 PUSH1 0x40 MSTORE CALLVALUE DUP1 ISZERO PUSH2 0xF JUMPI PUSH0 DUP1 REVERT JUMPDEST POP PUSH1 0x4 CALLDATASIZE LT PUSH2 0x3F JUMPI PUSH0 CALLDATALOAD PUSH1 0xE0 SHR DUP1 PUSH4 0x4F2BE91F EQ PUSH2 0x43 JUMPI DUP1 PUSH4 0x67D498F9 EQ PUSH2 0x61 JUMPI DUP1 PUSH4 0xCE9299BB EQ PUSH2 0x91 JUMPI JUMPDEST PUSH0 DUP1 REVERT JUMPDEST PUSH2 0x4B PUSH2 0xAD JUMP JUMPDEST PUSH1 0x40 MLOAD PUSH2 0x58 SWAP2 SWAP1 PUSH2 0xF5 JUMP JUMPDEST PUSH1 0x40 MLOAD DUP1 SWAP2 SUB SWAP1 RETURN JUMPDEST PUSH2 0x7B PUSH1 0x4 DUP1 CALLDATASIZE SUB DUP2 ADD SWAP1 PUSH2 0x76 SWAP2 SWAP1 PUSH2 0x25B JUMP JUMPDEST PUSH2 0xC2 JUMP JUMPDEST PUSH1 0x40 MLOAD PUSH2 0x88 SWAP2 SWAP1 PUSH2 0x31C JUMP JUMPDEST PUSH1 0x40 MLOAD DUP1 SWAP2 SUB SWAP1 RETURN JUMPDEST PUSH2 0xAB PUSH1 0x4 DUP1 CALLDATASIZE SUB DUP2 ADD SWAP1 PUSH2 0xA6 SWAP2 SWAP1 PUSH2 0x366 JUMP JUMPDEST PUSH2 0xCC JUMP JUMPDEST STOP JUMPDEST PUSH0 PUSH1 0x1 SLOAD PUSH0 SLOAD PUSH2 0xBD SWAP2 SWAP1 PUSH2 0x3D1 JUMP JUMPDEST SWAP1 POP SWAP1 JUMP JUMPDEST PUSH1 0x60 DUP2 SWAP1 POP SWAP2 SWAP1 POP JUMP JUMPDEST DUP2 PUSH0 DUP2 SWAP1 SSTORE POP DUP1 PUSH1 0x1 DUP2 SWAP1 SSTORE POP POP POP JUMP JUMPDEST PUSH0 DUP2 SWAP1 POP SWAP2 SWAP1 POP JUMP JUMPDEST PUSH2 0xEF DUP2 PUSH2 0xDD JUMP JUMPDEST DUP3 MSTORE POP POP JUMP JUMPDEST PUSH0 PUSH1 0x20 DUP3 ADD SWAP1 POP PUSH2 0x108 PUSH0 DUP4 ADD DUP5 PUSH2 0xE6 JUMP JUMPDEST SWAP3 SWAP2 POP POP JUMP JUMPDEST PUSH0 PUSH1 0x40 MLOAD SWAP1 POP SWAP1 JUMP JUMPDEST PUSH0 DUP1 REVERT JUMPDEST PUSH0 DUP1 REVERT JUMPDEST PUSH0 DUP1 REVERT JUMPDEST PUSH0 DUP1 REVERT JUMPDEST PUSH0 PUSH1 0x1F NOT PUSH1 0x1F DUP4 ADD AND SWAP1 POP SWAP2 SWAP1 POP JUMP JUMPDEST PUSH32 0x4E487B7100000000000000000000000000000000000000000000000000000000 PUSH0 MSTORE PUSH1 0x41 PUSH1 0x4 MSTORE PUSH1 0x24 PUSH0 REVERT JUMPDEST PUSH2 0x16D DUP3 PUSH2 0x127 JUMP JUMPDEST DUP2 ADD DUP2 DUP2 LT PUSH8 0xFFFFFFFFFFFFFFFF DUP3 GT OR ISZERO PUSH2 0x18C JUMPI PUSH2 0x18B PUSH2 0x137 JUMP JUMPDEST JUMPDEST DUP1 PUSH1 0x40 MSTORE POP POP POP JUMP JUMPDEST PUSH0 PUSH2 0x19E PUSH2 0x10E JUMP JUMPDEST SWAP1 POP PUSH2 0x1AA DUP3 DUP3 PUSH2 0x164 JUMP JUMPDEST SWAP2 SWAP1 POP JUMP JUMPDEST PUSH0 PUSH8 0xFFFFFFFFFFFFFFFF DUP3 GT ISZERO PUSH2 0x1C9 JUMPI PUSH2 0x1C8 PUSH2 0x137 JUMP JUMPDEST JUMPDEST PUSH2 0x1D2 DUP3 PUSH2 0x127 JUMP JUMPDEST SWAP1 POP PUSH1 0x20 DUP2 ADD SWAP1 POP SWAP2 SWAP1 POP JUMP JUMPDEST DUP3 DUP2 DUP4 CALLDATACOPY PUSH0 DUP4 DUP4 ADD MSTORE POP POP POP JUMP JUMPDEST PUSH0 PUSH2 0x1FF PUSH2 0x1FA DUP5 PUSH2 0x1AF JUMP JUMPDEST PUSH2 0x195 JUMP JUMPDEST SWAP1 POP DUP3 DUP2 MSTORE PUSH1 0x20 DUP2 ADD DUP5 DUP5 DUP5 ADD GT ISZERO PUSH2 0x21B JUMPI PUSH2 0x21A PUSH2 0x123 JUMP JUMPDEST JUMPDEST PUSH2 0x226 DUP5 DUP3 DUP6 PUSH2 0x1DF JUMP JUMPDEST POP SWAP4 SWAP3 POP POP POP JUMP JUMPDEST PUSH0 DUP3 PUSH1 0x1F DUP4 ADD SLT PUSH2 0x242 JUMPI PUSH2 0x241 PUSH2 0x11F JUMP JUMPDEST JUMPDEST DUP2 CALLDATALOAD PUSH2 0x252 DUP5 DUP3 PUSH1 0x20 DUP7 ADD PUSH2 0x1ED JUMP JUMPDEST SWAP2 POP POP SWAP3 SWAP2 POP POP JUMP JUMPDEST PUSH0 PUSH1 0x20 DUP3 DUP5 SUB SLT ISZERO PUSH2 0x270 JUMPI PUSH2 0x26F PUSH2 0x117 JUMP JUMPDEST JUMPDEST PUSH0 DUP3 ADD CALLDATALOAD PUSH8 0xFFFFFFFFFFFFFFFF DUP2 GT ISZERO PUSH2 0x28D JUMPI PUSH2 0x28C PUSH2 0x11B JUMP JUMPDEST JUMPDEST PUSH2 0x299 DUP5 DUP3 DUP6 ADD PUSH2 0x22E JUMP JUMPDEST SWAP2 POP POP SWAP3 SWAP2 POP POP JUMP JUMPDEST PUSH0 DUP2 MLOAD SWAP1 POP SWAP2 SWAP1 POP JUMP JUMPDEST PUSH0 DUP3 DUP3 MSTORE PUSH1 0x20 DUP3 ADD SWAP1 POP SWAP3 SWAP2 POP POP JUMP JUMPDEST PUSH0 JUMPDEST DUP4 DUP2 LT ISZERO PUSH2 0x2D9 JUMPI DUP1 DUP3 ADD MLOAD DUP2 DUP5 ADD MSTORE PUSH1 0x20 DUP2 ADD SWAP1 POP PUSH2 0x2BE JUMP JUMPDEST PUSH0 DUP5 DUP5 ADD MSTORE POP POP POP POP JUMP JUMPDEST PUSH0 PUSH2 0x2EE DUP3 PUSH2 0x2A2 JUMP JUMPDEST PUSH2 0x2F8 DUP2 DUP6 PUSH2 0x2AC JUMP JUMPDEST SWAP4 POP PUSH2 0x308 DUP2 DUP6 PUSH1 0x20 DUP7 ADD PUSH2 0x2BC JUMP JUMPDEST PUSH2 0x311 DUP2 PUSH2 0x127 JUMP JUMPDEST DUP5 ADD SWAP2 POP POP SWAP3 SWAP2 POP POP JUMP JUMPDEST PUSH0 PUSH1 0x20 DUP3 ADD SWAP1 POP DUP2 DUP2 SUB PUSH0 DUP4 ADD MSTORE PUSH2 0x334 DUP2 DUP5 PUSH2 0x2E4 JUMP JUMPDEST SWAP1 POP SWAP3 SWAP2 POP POP JUMP JUMPDEST PUSH2 0x345 DUP2 PUSH2 0xDD JUMP JUMPDEST DUP2 EQ PUSH2 0x34F JUMPI PUSH0 DUP1 REVERT JUMPDEST POP JUMP JUMPDEST PUSH0 DUP2 CALLDATALOAD SWAP1 POP PUSH2 0x360 DUP2 PUSH2 0x33C JUMP JUMPDEST SWAP3 SWAP2 POP POP JUMP JUMPDEST PUSH0 DUP1 PUSH1 0x40 DUP4 DUP6 SUB SLT ISZERO PUSH2 0x37C JUMPI PUSH2 0x37B PUSH2 0x117 JUMP JUMPDEST JUMPDEST PUSH0 PUSH2 0x389 DUP6 DUP3 DUP7 ADD PUSH2 0x352 JUMP JUMPDEST SWAP3 POP POP PUSH1 0x20 PUSH2 0x39A DUP6 DUP3 DUP7 ADD PUSH2 0x352 JUMP JUMPDEST SWAP2 POP POP SWAP3 POP SWAP3 SWAP1 POP JUMP JUMPDEST PUSH32 0x4E487B7100000000000000000000000000000000000000000000000000000000 PUSH0 MSTORE PUSH1 0x11 PUSH1 0x4 MSTORE PUSH1 0x24 PUSH0 REVERT JUMPDEST PUSH0 PUSH2 0x3DB DUP3 PUSH2 0xDD JUMP JUMPDEST SWAP2 POP PUSH2 0x3E6 DUP4 PUSH2 0xDD JUMP JUMPDEST SWAP3 POP DUP3 DUP3 ADD SWAP1 POP DUP1 DUP3 GT ISZERO PUSH2 0x3FE JUMPI PUSH2 0x3FD PUSH2 0x3A4 JUMP JUMPDEST JUMPDEST SWAP3 SWAP2 POP POP JUMP INVALID LOG2 PUSH5 0x6970667358 0x22 SLT KECCAK256 SWAP10 SGT PUSH30 0xB30DA2D8F8D254CAAEA31A22D9A21FE4DF8903D9846DC69FEAC39D6B1764 PUSH20 0x6F6C634300081600330000000000000000000000 "
				},
				"gasEstimates": {
					"creation": {
						"codeDepositCost": "425600",
						"executionCost": "infinite",
						"totalCost": "infinite"
					},
					"external": {
						"add()": "infinite",
						"getNum(uint256,uint256)": "infinite",
						"getValues()": "infinite",
						"getstr(string)": "infinite"
					}
				},
				"methodIdentifiers": {
					"add()": "4f2be91f",
					"getNum(uint256,uint256)": "ce9299bb",
					"getValues()": "19eb4a90",
					"getstr(string)": "67d498f9"
				}
			},
			"storageLayout": {
				"storage": [
					{
						"astId": 28,
						"contract": "contracts/interfaceImplimentation.sol:Call",
						"label": "num1",
						"offset": 0,
						"slot": "0",
						"type": "t_uint256"
					},
					{
						"astId": 30,
						"contract": "contracts/interfaceImplimentation.sol:Call",
						"label": "num2",
						"offset": 0,
						"slot": "1",
						"type": "t_uint256"
					},
					{
						"astId": 75,
						"contract": "contracts/interfaceImplimentation.sol:Call",
						"label": "obj",
						"offset": 0,
						"slot": "2",
						"type": "t_contract(InterfaceExample)21"
					}
				],
				"types": {
					"t_contract(InterfaceExample)21": {
						"encoding": "inplace",
						"label": "contract InterfaceExample",
						"numberOfBytes": "20"
					},
					"t_uint256": {
						"encoding": "inplace",
						"label": "uint256",
						"numberOfBytes": "32"
					}
				}
			},
			"userdoc": {
				"kind": "user",
				"methods": {},
				"version": 1
			}
		}
	}
}