{
	"contracts/interfaceImplimentation.sol": {
		"interfaceImplementation": {
			"abi": [
				{
					"inputs": [],
					"name": "add",
					"outputs": [
						{
							"internalType": "uint256",
							"name": "",
							"type": "uint256"
						}
					],
					"stateMutability": "view",
					"type": "function"
				},
				{
					"inputs": [
						{
							"internalType": "uint256",
							"name": "_a",
							"type": "uint256"
						},
						{
							"internalType": "uint256",
							"name": "_b",
							"type": "uint256"
						}
					],
					"name": "getNum",
					"outputs": [],
					"stateMutability": "nonpayable",
					"type": "function"
				},
				{
					"inputs": [
						{
							"internalType": "string",
							"name": "_str",
							"type": "string"
						}
					],
					"name": "getstr",
					"outputs": [
						{
							"internalType": "string",
							"name": "",
							"type": "string"
						}
					],
					"stateMutability": "pure",
					"type": "function"
				}
			],
			"devdoc": {
				"kind": "dev",
				"methods": {},
				"version": 1
			},
			"evm": {
				"assembly": "    /* \"contracts/interfaceImplimentation.sol\":92:689  contract interfaceImplementation is InterfaceExample{... */\n  mstore(0x40, 0x80)\n  callvalue\n  dup1\n  iszero\n  tag_1\n  jumpi\n  0x00\n  dup1\n  revert\ntag_1:\n  pop\n  dataSize(sub_0)\n  dup1\n  dataOffset(sub_0)\n  0x00\n  codecopy\n  0x00\n  return\nstop\n\nsub_0: assembly {\n        /* \"contracts/interfaceImplimentation.sol\":92:689  contract interfaceImplementation is InterfaceExample{... */\n      mstore(0x40, 0x80)\n      callvalue\n      dup1\n      iszero\n      tag_1\n      jumpi\n      0x00\n      dup1\n      revert\n    tag_1:\n      pop\n      jumpi(tag_2, lt(calldatasize, 0x04))\n      shr(0xe0, calldataload(0x00))\n      dup1\n      0x4f2be91f\n      eq\n      tag_3\n      jumpi\n      dup1\n      0x67d498f9\n      eq\n      tag_4\n      jumpi\n      dup1\n      0xce9299bb\n      eq\n      tag_5\n      jumpi\n    tag_2:\n      0x00\n      dup1\n      revert\n        /* \"contracts/interfaceImplimentation.sol\":600:686  function add()public view  override returns (uint){... */\n    tag_3:\n      tag_6\n      tag_7\n      jump\t// in\n    tag_6:\n      mload(0x40)\n      tag_8\n      swap2\n      swap1\n      tag_9\n      jump\t// in\n    tag_8:\n      mload(0x40)\n      dup1\n      swap2\n      sub\n      swap1\n      return\n        /* \"contracts/interfaceImplimentation.sol\":283:394  function getstr(string memory _str )public pure override returns (string memory){... */\n    tag_4:\n      tag_10\n      0x04\n      dup1\n      calldatasize\n      sub\n      dup2\n      add\n      swap1\n      tag_11\n      swap2\n      swap1\n      tag_12\n      jump\t// in\n    tag_11:\n      tag_13\n      jump\t// in\n    tag_10:\n      mload(0x40)\n      tag_14\n      swap2\n      swap1\n      tag_15\n      jump\t// in\n    tag_14:\n      mload(0x40)\n      dup1\n      swap2\n      sub\n      swap1\n      return\n        /* \"contracts/interfaceImplimentation.sol\":444:537  function getNum(uint _a,uint _b) public override{... */\n    tag_5:\n      tag_16\n      0x04\n      dup1\n      calldatasize\n      sub\n      dup2\n      add\n      swap1\n      tag_17\n      swap2\n      swap1\n      tag_18\n      jump\t// in\n    tag_17:\n      tag_19\n      jump\t// in\n    tag_16:\n      stop\n        /* \"contracts/interfaceImplimentation.sol\":600:686  function add()public view  override returns (uint){... */\n    tag_7:\n        /* \"contracts/interfaceImplimentation.sol\":645:649  uint */\n      0x00\n        /* \"contracts/interfaceImplimentation.sol\":673:677  num2 */\n      sload(0x01)\n        /* \"contracts/interfaceImplimentation.sol\":668:672  num1 */\n      sload(0x00)\n        /* \"contracts/interfaceImplimentation.sol\":668:677  num1+num2 */\n      tag_21\n      swap2\n      swap1\n      tag_22\n      jump\t// in\n    tag_21:\n        /* \"contracts/interfaceImplimentation.sol\":660:677  return  num1+num2 */\n      swap1\n      pop\n        /* \"contracts/interfaceImplimentation.sol\":600:686  function add()public view  override returns (uint){... */\n      swap1\n      jump\t// out\n        /* \"contracts/interfaceImplimentation.sol\":283:394  function getstr(string memory _str )public pure override returns (string memory){... */\n    tag_13:\n        /* \"contracts/interfaceImplimentation.sol\":349:362  string memory */\n      0x60\n        /* \"contracts/interfaceImplimentation.sol\":381:385  _str */\n      dup2\n        /* \"contracts/interfaceImplimentation.sol\":374:385  return _str */\n      swap1\n      pop\n        /* \"contracts/interfaceImplimentation.sol\":283:394  function getstr(string memory _str )public pure override returns (string memory){... */\n      swap2\n      swap1\n      pop\n      jump\t// out\n        /* \"contracts/interfaceImplimentation.sol\":444:537  function getNum(uint _a,uint _b) public override{... */\n    tag_19:\n        /* \"contracts/interfaceImplimentation.sol\":508:510  _a */\n      dup2\n        /* \"contracts/interfaceImplimentation.sol\":503:507  num1 */\n      0x00\n        /* \"contracts/interfaceImplimentation.sol\":503:510  num1=_a */\n      dup2\n      swap1\n      sstore\n      pop\n        /* \"contracts/interfaceImplimentation.sol\":526:528  _b */\n      dup1\n        /* \"contracts/interfaceImplimentation.sol\":521:525  num2 */\n      0x01\n        /* \"contracts/interfaceImplimentation.sol\":521:528  num2=_b */\n      dup2\n      swap1\n      sstore\n      pop\n        /* \"contracts/interfaceImplimentation.sol\":444:537  function getNum(uint _a,uint _b) public override{... */\n      pop\n      pop\n      jump\t// out\n        /* \"#utility.yul\":7:84   */\n    tag_25:\n        /* \"#utility.yul\":44:51   */\n      0x00\n        /* \"#utility.yul\":73:78   */\n      dup2\n        /* \"#utility.yul\":62:78   */\n      swap1\n      pop\n        /* \"#utility.yul\":7:84   */\n      swap2\n      swap1\n      pop\n      jump\t// out\n        /* \"#utility.yul\":90:208   */\n    tag_26:\n        /* \"#utility.yul\":177:201   */\n      tag_50\n        /* \"#utility.yul\":195:200   */\n      dup2\n        /* \"#utility.yul\":177:201   */\n      tag_25\n      jump\t// in\n    tag_50:\n        /* \"#utility.yul\":172:175   */\n      dup3\n        /* \"#utility.yul\":165:202   */\n      mstore\n        /* \"#utility.yul\":90:208   */\n      pop\n      pop\n      jump\t// out\n        /* \"#utility.yul\":214:436   */\n    tag_9:\n        /* \"#utility.yul\":307:311   */\n      0x00\n        /* \"#utility.yul\":345:347   */\n      0x20\n        /* \"#utility.yul\":334:343   */\n      dup3\n        /* \"#utility.yul\":330:348   */\n      add\n        /* \"#utility.yul\":322:348   */\n      swap1\n      pop\n        /* \"#utility.yul\":358:429   */\n      tag_52\n        /* \"#utility.yul\":426:427   */\n      0x00\n        /* \"#utility.yul\":415:424   */\n      dup4\n        /* \"#utility.yul\":411:428   */\n      add\n        /* \"#utility.yul\":402:408   */\n      dup5\n        /* \"#utility.yul\":358:429   */\n      tag_26\n      jump\t// in\n    tag_52:\n        /* \"#utility.yul\":214:436   */\n      swap3\n      swap2\n      pop\n      pop\n      jump\t// out\n        /* \"#utility.yul\":442:517   */\n    tag_27:\n        /* \"#utility.yul\":475:481   */\n      0x00\n        /* \"#utility.yul\":508:510   */\n      0x40\n        /* \"#utility.yul\":502:511   */\n      mload\n        /* \"#utility.yul\":492:511   */\n      swap1\n      pop\n        /* \"#utility.yul\":442:517   */\n      swap1\n      jump\t// out\n        /* \"#utility.yul\":523:640   */\n    tag_28:\n        /* \"#utility.yul\":632:633   */\n      0x00\n        /* \"#utility.yul\":629:630   */\n      dup1\n        /* \"#utility.yul\":622:634   */\n      revert\n        /* \"#utility.yul\":646:763   */\n    tag_29:\n        /* \"#utility.yul\":755:756   */\n      0x00\n        /* \"#utility.yul\":752:753   */\n      dup1\n        /* \"#utility.yul\":745:757   */\n      revert\n        /* \"#utility.yul\":769:886   */\n    tag_30:\n        /* \"#utility.yul\":878:879   */\n      0x00\n        /* \"#utility.yul\":875:876   */\n      dup1\n        /* \"#utility.yul\":868:880   */\n      revert\n        /* \"#utility.yul\":892:1009   */\n    tag_31:\n        /* \"#utility.yul\":1001:1002   */\n      0x00\n        /* \"#utility.yul\":998:999   */\n      dup1\n        /* \"#utility.yul\":991:1003   */\n      revert\n        /* \"#utility.yul\":1015:1117   */\n    tag_32:\n        /* \"#utility.yul\":1056:1062   */\n      0x00\n        /* \"#utility.yul\":1107:1109   */\n      0x1f\n        /* \"#utility.yul\":1103:1110   */\n      not\n        /* \"#utility.yul\":1098:1100   */\n      0x1f\n        /* \"#utility.yul\":1091:1096   */\n      dup4\n        /* \"#utility.yul\":1087:1101   */\n      add\n        /* \"#utility.yul\":1083:1111   */\n      and\n        /* \"#utility.yul\":1073:1111   */\n      swap1\n      pop\n        /* \"#utility.yul\":1015:1117   */\n      swap2\n      swap1\n      pop\n      jump\t// out\n        /* \"#utility.yul\":1123:1303   */\n    tag_33:\n        /* \"#utility.yul\":1171:1248   */\n      0x4e487b7100000000000000000000000000000000000000000000000000000000\n        /* \"#utility.yul\":1168:1169   */\n      0x00\n        /* \"#utility.yul\":1161:1249   */\n      mstore\n        /* \"#utility.yul\":1268:1272   */\n      0x41\n        /* \"#utility.yul\":1265:1266   */\n      0x04\n        /* \"#utility.yul\":1258:1273   */\n      mstore\n        /* \"#utility.yul\":1292:1296   */\n      0x24\n        /* \"#utility.yul\":1289:1290   */\n      0x00\n        /* \"#utility.yul\":1282:1297   */\n      revert\n        /* \"#utility.yul\":1309:1590   */\n    tag_34:\n        /* \"#utility.yul\":1392:1419   */\n      tag_61\n        /* \"#utility.yul\":1414:1418   */\n      dup3\n        /* \"#utility.yul\":1392:1419   */\n      tag_32\n      jump\t// in\n    tag_61:\n        /* \"#utility.yul\":1384:1390   */\n      dup2\n        /* \"#utility.yul\":1380:1420   */\n      add\n        /* \"#utility.yul\":1522:1528   */\n      dup2\n        /* \"#utility.yul\":1510:1520   */\n      dup2\n        /* \"#utility.yul\":1507:1529   */\n      lt\n        /* \"#utility.yul\":1486:1504   */\n      0xffffffffffffffff\n        /* \"#utility.yul\":1474:1484   */\n      dup3\n        /* \"#utility.yul\":1471:1505   */\n      gt\n        /* \"#utility.yul\":1468:1530   */\n      or\n        /* \"#utility.yul\":1465:1553   */\n      iszero\n      tag_62\n      jumpi\n        /* \"#utility.yul\":1533:1551   */\n      tag_63\n      tag_33\n      jump\t// in\n    tag_63:\n        /* \"#utility.yul\":1465:1553   */\n    tag_62:\n        /* \"#utility.yul\":1573:1583   */\n      dup1\n        /* \"#utility.yul\":1569:1571   */\n      0x40\n        /* \"#utility.yul\":1562:1584   */\n      mstore\n        /* \"#utility.yul\":1352:1590   */\n      pop\n        /* \"#utility.yul\":1309:1590   */\n      pop\n      pop\n      jump\t// out\n        /* \"#utility.yul\":1596:1725   */\n    tag_35:\n        /* \"#utility.yul\":1630:1636   */\n      0x00\n        /* \"#utility.yul\":1657:1677   */\n      tag_65\n      tag_27\n      jump\t// in\n    tag_65:\n        /* \"#utility.yul\":1647:1677   */\n      swap1\n      pop\n        /* \"#utility.yul\":1686:1719   */\n      tag_66\n        /* \"#utility.yul\":1714:1718   */\n      dup3\n        /* \"#utility.yul\":1706:1712   */\n      dup3\n        /* \"#utility.yul\":1686:1719   */\n      tag_34\n      jump\t// in\n    tag_66:\n        /* \"#utility.yul\":1596:1725   */\n      swap2\n      swap1\n      pop\n      jump\t// out\n        /* \"#utility.yul\":1731:2039   */\n    tag_36:\n        /* \"#utility.yul\":1793:1797   */\n      0x00\n        /* \"#utility.yul\":1883:1901   */\n      0xffffffffffffffff\n        /* \"#utility.yul\":1875:1881   */\n      dup3\n        /* \"#utility.yul\":1872:1902   */\n      gt\n        /* \"#utility.yul\":1869:1925   */\n      iszero\n      tag_68\n      jumpi\n        /* \"#utility.yul\":1905:1923   */\n      tag_69\n      tag_33\n      jump\t// in\n    tag_69:\n        /* \"#utility.yul\":1869:1925   */\n    tag_68:\n        /* \"#utility.yul\":1943:1972   */\n      tag_70\n        /* \"#utility.yul\":1965:1971   */\n      dup3\n        /* \"#utility.yul\":1943:1972   */\n      tag_32\n      jump\t// in\n    tag_70:\n        /* \"#utility.yul\":1935:1972   */\n      swap1\n      pop\n        /* \"#utility.yul\":2027:2031   */\n      0x20\n        /* \"#utility.yul\":2021:2025   */\n      dup2\n        /* \"#utility.yul\":2017:2032   */\n      add\n        /* \"#utility.yul\":2009:2032   */\n      swap1\n      pop\n        /* \"#utility.yul\":1731:2039   */\n      swap2\n      swap1\n      pop\n      jump\t// out\n        /* \"#utility.yul\":2045:2191   */\n    tag_37:\n        /* \"#utility.yul\":2142:2148   */\n      dup3\n        /* \"#utility.yul\":2137:2140   */\n      dup2\n        /* \"#utility.yul\":2132:2135   */\n      dup4\n        /* \"#utility.yul\":2119:2149   */\n      calldatacopy\n        /* \"#utility.yul\":2183:2184   */\n      0x00\n        /* \"#utility.yul\":2174:2180   */\n      dup4\n        /* \"#utility.yul\":2169:2172   */\n      dup4\n        /* \"#utility.yul\":2165:2181   */\n      add\n        /* \"#utility.yul\":2158:2185   */\n      mstore\n        /* \"#utility.yul\":2045:2191   */\n      pop\n      pop\n      pop\n      jump\t// out\n        /* \"#utility.yul\":2197:2622   */\n    tag_38:\n        /* \"#utility.yul\":2275:2280   */\n      0x00\n        /* \"#utility.yul\":2300:2366   */\n      tag_73\n        /* \"#utility.yul\":2316:2365   */\n      tag_74\n        /* \"#utility.yul\":2358:2364   */\n      dup5\n        /* \"#utility.yul\":2316:2365   */\n      tag_36\n      jump\t// in\n    tag_74:\n        /* \"#utility.yul\":2300:2366   */\n      tag_35\n      jump\t// in\n    tag_73:\n        /* \"#utility.yul\":2291:2366   */\n      swap1\n      pop\n        /* \"#utility.yul\":2389:2395   */\n      dup3\n        /* \"#utility.yul\":2382:2387   */\n      dup2\n        /* \"#utility.yul\":2375:2396   */\n      mstore\n        /* \"#utility.yul\":2427:2431   */\n      0x20\n        /* \"#utility.yul\":2420:2425   */\n      dup2\n        /* \"#utility.yul\":2416:2432   */\n      add\n        /* \"#utility.yul\":2465:2468   */\n      dup5\n        /* \"#utility.yul\":2456:2462   */\n      dup5\n        /* \"#utility.yul\":2451:2454   */\n      dup5\n        /* \"#utility.yul\":2447:2463   */\n      add\n        /* \"#utility.yul\":2444:2469   */\n      gt\n        /* \"#utility.yul\":2441:2553   */\n      iszero\n      tag_75\n      jumpi\n        /* \"#utility.yul\":2472:2551   */\n      tag_76\n      tag_31\n      jump\t// in\n    tag_76:\n        /* \"#utility.yul\":2441:2553   */\n    tag_75:\n        /* \"#utility.yul\":2562:2616   */\n      tag_77\n        /* \"#utility.yul\":2609:2615   */\n      dup5\n        /* \"#utility.yul\":2604:2607   */\n      dup3\n        /* \"#utility.yul\":2599:2602   */\n      dup6\n        /* \"#utility.yul\":2562:2616   */\n      tag_37\n      jump\t// in\n    tag_77:\n        /* \"#utility.yul\":2281:2622   */\n      pop\n        /* \"#utility.yul\":2197:2622   */\n      swap4\n      swap3\n      pop\n      pop\n      pop\n      jump\t// out\n        /* \"#utility.yul\":2642:2982   */\n    tag_39:\n        /* \"#utility.yul\":2698:2703   */\n      0x00\n        /* \"#utility.yul\":2747:2750   */\n      dup3\n        /* \"#utility.yul\":2740:2744   */\n      0x1f\n        /* \"#utility.yul\":2732:2738   */\n      dup4\n        /* \"#utility.yul\":2728:2745   */\n      add\n        /* \"#utility.yul\":2724:2751   */\n      slt\n        /* \"#utility.yul\":2714:2836   */\n      tag_79\n      jumpi\n        /* \"#utility.yul\":2755:2834   */\n      tag_80\n      tag_30\n      jump\t// in\n    tag_80:\n        /* \"#utility.yul\":2714:2836   */\n    tag_79:\n        /* \"#utility.yul\":2872:2878   */\n      dup2\n        /* \"#utility.yul\":2859:2879   */\n      calldataload\n        /* \"#utility.yul\":2897:2976   */\n      tag_81\n        /* \"#utility.yul\":2972:2975   */\n      dup5\n        /* \"#utility.yul\":2964:2970   */\n      dup3\n        /* \"#utility.yul\":2957:2961   */\n      0x20\n        /* \"#utility.yul\":2949:2955   */\n      dup7\n        /* \"#utility.yul\":2945:2962   */\n      add\n        /* \"#utility.yul\":2897:2976   */\n      tag_38\n      jump\t// in\n    tag_81:\n        /* \"#utility.yul\":2888:2976   */\n      swap2\n      pop\n        /* \"#utility.yul\":2704:2982   */\n      pop\n        /* \"#utility.yul\":2642:2982   */\n      swap3\n      swap2\n      pop\n      pop\n      jump\t// out\n        /* \"#utility.yul\":2988:3497   */\n    tag_12:\n        /* \"#utility.yul\":3057:3063   */\n      0x00\n        /* \"#utility.yul\":3106:3108   */\n      0x20\n        /* \"#utility.yul\":3094:3103   */\n      dup3\n        /* \"#utility.yul\":3085:3092   */\n      dup5\n        /* \"#utility.yul\":3081:3104   */\n      sub\n        /* \"#utility.yul\":3077:3109   */\n      slt\n        /* \"#utility.yul\":3074:3193   */\n      iszero\n      tag_83\n      jumpi\n        /* \"#utility.yul\":3112:3191   */\n      tag_84\n      tag_28\n      jump\t// in\n    tag_84:\n        /* \"#utility.yul\":3074:3193   */\n    tag_83:\n        /* \"#utility.yul\":3260:3261   */\n      0x00\n        /* \"#utility.yul\":3249:3258   */\n      dup3\n        /* \"#utility.yul\":3245:3262   */\n      add\n        /* \"#utility.yul\":3232:3263   */\n      calldataload\n        /* \"#utility.yul\":3290:3308   */\n      0xffffffffffffffff\n        /* \"#utility.yul\":3282:3288   */\n      dup2\n        /* \"#utility.yul\":3279:3309   */\n      gt\n        /* \"#utility.yul\":3276:3393   */\n      iszero\n      tag_85\n      jumpi\n        /* \"#utility.yul\":3312:3391   */\n      tag_86\n      tag_29\n      jump\t// in\n    tag_86:\n        /* \"#utility.yul\":3276:3393   */\n    tag_85:\n        /* \"#utility.yul\":3417:3480   */\n      tag_87\n        /* \"#utility.yul\":3472:3479   */\n      dup5\n        /* \"#utility.yul\":3463:3469   */\n      dup3\n        /* \"#utility.yul\":3452:3461   */\n      dup6\n        /* \"#utility.yul\":3448:3470   */\n      add\n        /* \"#utility.yul\":3417:3480   */\n      tag_39\n      jump\t// in\n    tag_87:\n        /* \"#utility.yul\":3407:3480   */\n      swap2\n      pop\n        /* \"#utility.yul\":3203:3490   */\n      pop\n        /* \"#utility.yul\":2988:3497   */\n      swap3\n      swap2\n      pop\n      pop\n      jump\t// out\n        /* \"#utility.yul\":3503:3602   */\n    tag_40:\n        /* \"#utility.yul\":3555:3561   */\n      0x00\n        /* \"#utility.yul\":3589:3594   */\n      dup2\n        /* \"#utility.yul\":3583:3595   */\n      mload\n        /* \"#utility.yul\":3573:3595   */\n      swap1\n      pop\n        /* \"#utility.yul\":3503:3602   */\n      swap2\n      swap1\n      pop\n      jump\t// out\n        /* \"#utility.yul\":3608:3777   */\n    tag_41:\n        /* \"#utility.yul\":3692:3703   */\n      0x00\n        /* \"#utility.yul\":3726:3732   */\n      dup3\n        /* \"#utility.yul\":3721:3724   */\n      dup3\n        /* \"#utility.yul\":3714:3733   */\n      mstore\n        /* \"#utility.yul\":3766:3770   */\n      0x20\n        /* \"#utility.yul\":3761:3764   */\n      dup3\n        /* \"#utility.yul\":3757:3771   */\n      add\n        /* \"#utility.yul\":3742:3771   */\n      swap1\n      pop\n        /* \"#utility.yul\":3608:3777   */\n      swap3\n      swap2\n      pop\n      pop\n      jump\t// out\n        /* \"#utility.yul\":3783:4029   */\n    tag_42:\n        /* \"#utility.yul\":3864:3865   */\n      0x00\n        /* \"#utility.yul\":3874:3987   */\n    tag_91:\n        /* \"#utility.yul\":3888:3894   */\n      dup4\n        /* \"#utility.yul\":3885:3886   */\n      dup2\n        /* \"#utility.yul\":3882:3895   */\n      lt\n        /* \"#utility.yul\":3874:3987   */\n      iszero\n      tag_93\n      jumpi\n        /* \"#utility.yul\":3973:3974   */\n      dup1\n        /* \"#utility.yul\":3968:3971   */\n      dup3\n        /* \"#utility.yul\":3964:3975   */\n      add\n        /* \"#utility.yul\":3958:3976   */\n      mload\n        /* \"#utility.yul\":3954:3955   */\n      dup2\n        /* \"#utility.yul\":3949:3952   */\n      dup5\n        /* \"#utility.yul\":3945:3956   */\n      add\n        /* \"#utility.yul\":3938:3977   */\n      mstore\n        /* \"#utility.yul\":3910:3912   */\n      0x20\n        /* \"#utility.yul\":3907:3908   */\n      dup2\n        /* \"#utility.yul\":3903:3913   */\n      add\n        /* \"#utility.yul\":3898:3913   */\n      swap1\n      pop\n        /* \"#utility.yul\":3874:3987   */\n      jump(tag_91)\n    tag_93:\n        /* \"#utility.yul\":4021:4022   */\n      0x00\n        /* \"#utility.yul\":4012:4018   */\n      dup5\n        /* \"#utility.yul\":4007:4010   */\n      dup5\n        /* \"#utility.yul\":4003:4019   */\n      add\n        /* \"#utility.yul\":3996:4023   */\n      mstore\n        /* \"#utility.yul\":3845:4029   */\n      pop\n        /* \"#utility.yul\":3783:4029   */\n      pop\n      pop\n      pop\n      jump\t// out\n        /* \"#utility.yul\":4035:4412   */\n    tag_43:\n        /* \"#utility.yul\":4123:4126   */\n      0x00\n        /* \"#utility.yul\":4151:4190   */\n      tag_95\n        /* \"#utility.yul\":4184:4189   */\n      dup3\n        /* \"#utility.yul\":4151:4190   */\n      tag_40\n      jump\t// in\n    tag_95:\n        /* \"#utility.yul\":4206:4277   */\n      tag_96\n        /* \"#utility.yul\":4270:4276   */\n      dup2\n        /* \"#utility.yul\":4265:4268   */\n      dup6\n        /* \"#utility.yul\":4206:4277   */\n      tag_41\n      jump\t// in\n    tag_96:\n        /* \"#utility.yul\":4199:4277   */\n      swap4\n      pop\n        /* \"#utility.yul\":4286:4351   */\n      tag_97\n        /* \"#utility.yul\":4344:4350   */\n      dup2\n        /* \"#utility.yul\":4339:4342   */\n      dup6\n        /* \"#utility.yul\":4332:4336   */\n      0x20\n        /* \"#utility.yul\":4325:4330   */\n      dup7\n        /* \"#utility.yul\":4321:4337   */\n      add\n        /* \"#utility.yul\":4286:4351   */\n      tag_42\n      jump\t// in\n    tag_97:\n        /* \"#utility.yul\":4376:4405   */\n      tag_98\n        /* \"#utility.yul\":4398:4404   */\n      dup2\n        /* \"#utility.yul\":4376:4405   */\n      tag_32\n      jump\t// in\n    tag_98:\n        /* \"#utility.yul\":4371:4374   */\n      dup5\n        /* \"#utility.yul\":4367:4406   */\n      add\n        /* \"#utility.yul\":4360:4406   */\n      swap2\n      pop\n        /* \"#utility.yul\":4127:4412   */\n      pop\n        /* \"#utility.yul\":4035:4412   */\n      swap3\n      swap2\n      pop\n      pop\n      jump\t// out\n        /* \"#utility.yul\":4418:4731   */\n    tag_15:\n        /* \"#utility.yul\":4531:4535   */\n      0x00\n        /* \"#utility.yul\":4569:4571   */\n      0x20\n        /* \"#utility.yul\":4558:4567   */\n      dup3\n        /* \"#utility.yul\":4554:4572   */\n      add\n        /* \"#utility.yul\":4546:4572   */\n      swap1\n      pop\n        /* \"#utility.yul\":4618:4627   */\n      dup2\n        /* \"#utility.yul\":4612:4616   */\n      dup2\n        /* \"#utility.yul\":4608:4628   */\n      sub\n        /* \"#utility.yul\":4604:4605   */\n      0x00\n        /* \"#utility.yul\":4593:4602   */\n      dup4\n        /* \"#utility.yul\":4589:4606   */\n      add\n        /* \"#utility.yul\":4582:4629   */\n      mstore\n        /* \"#utility.yul\":4646:4724   */\n      tag_100\n        /* \"#utility.yul\":4719:4723   */\n      dup2\n        /* \"#utility.yul\":4710:4716   */\n      dup5\n        /* \"#utility.yul\":4646:4724   */\n      tag_43\n      jump\t// in\n    tag_100:\n        /* \"#utility.yul\":4638:4724   */\n      swap1\n      pop\n        /* \"#utility.yul\":4418:4731   */\n      swap3\n      swap2\n      pop\n      pop\n      jump\t// out\n        /* \"#utility.yul\":4737:4859   */\n    tag_44:\n        /* \"#utility.yul\":4810:4834   */\n      tag_102\n        /* \"#utility.yul\":4828:4833   */\n      dup2\n        /* \"#utility.yul\":4810:4834   */\n      tag_25\n      jump\t// in\n    tag_102:\n        /* \"#utility.yul\":4803:4808   */\n      dup2\n        /* \"#utility.yul\":4800:4835   */\n      eq\n        /* \"#utility.yul\":4790:4853   */\n      tag_103\n      jumpi\n        /* \"#utility.yul\":4849:4850   */\n      0x00\n        /* \"#utility.yul\":4846:4847   */\n      dup1\n        /* \"#utility.yul\":4839:4851   */\n      revert\n        /* \"#utility.yul\":4790:4853   */\n    tag_103:\n        /* \"#utility.yul\":4737:4859   */\n      pop\n      jump\t// out\n        /* \"#utility.yul\":4865:5004   */\n    tag_45:\n        /* \"#utility.yul\":4911:4916   */\n      0x00\n        /* \"#utility.yul\":4949:4955   */\n      dup2\n        /* \"#utility.yul\":4936:4956   */\n      calldataload\n        /* \"#utility.yul\":4927:4956   */\n      swap1\n      pop\n        /* \"#utility.yul\":4965:4998   */\n      tag_105\n        /* \"#utility.yul\":4992:4997   */\n      dup2\n        /* \"#utility.yul\":4965:4998   */\n      tag_44\n      jump\t// in\n    tag_105:\n        /* \"#utility.yul\":4865:5004   */\n      swap3\n      swap2\n      pop\n      pop\n      jump\t// out\n        /* \"#utility.yul\":5010:5484   */\n    tag_18:\n        /* \"#utility.yul\":5078:5084   */\n      0x00\n        /* \"#utility.yul\":5086:5092   */\n      dup1\n        /* \"#utility.yul\":5135:5137   */\n      0x40\n        /* \"#utility.yul\":5123:5132   */\n      dup4\n        /* \"#utility.yul\":5114:5121   */\n      dup6\n        /* \"#utility.yul\":5110:5133   */\n      sub\n        /* \"#utility.yul\":5106:5138   */\n      slt\n        /* \"#utility.yul\":5103:5222   */\n      iszero\n      tag_107\n      jumpi\n        /* \"#utility.yul\":5141:5220   */\n      tag_108\n      tag_28\n      jump\t// in\n    tag_108:\n        /* \"#utility.yul\":5103:5222   */\n    tag_107:\n        /* \"#utility.yul\":5261:5262   */\n      0x00\n        /* \"#utility.yul\":5286:5339   */\n      tag_109\n        /* \"#utility.yul\":5331:5338   */\n      dup6\n        /* \"#utility.yul\":5322:5328   */\n      dup3\n        /* \"#utility.yul\":5311:5320   */\n      dup7\n        /* \"#utility.yul\":5307:5329   */\n      add\n        /* \"#utility.yul\":5286:5339   */\n      tag_45\n      jump\t// in\n    tag_109:\n        /* \"#utility.yul\":5276:5339   */\n      swap3\n      pop\n        /* \"#utility.yul\":5232:5349   */\n      pop\n        /* \"#utility.yul\":5388:5390   */\n      0x20\n        /* \"#utility.yul\":5414:5467   */\n      tag_110\n        /* \"#utility.yul\":5459:5466   */\n      dup6\n        /* \"#utility.yul\":5450:5456   */\n      dup3\n        /* \"#utility.yul\":5439:5448   */\n      dup7\n        /* \"#utility.yul\":5435:5457   */\n      add\n        /* \"#utility.yul\":5414:5467   */\n      tag_45\n      jump\t// in\n    tag_110:\n        /* \"#utility.yul\":5404:5467   */\n      swap2\n      pop\n        /* \"#utility.yul\":5359:5477   */\n      pop\n        /* \"#utility.yul\":5010:5484   */\n      swap3\n      pop\n      swap3\n      swap1\n      pop\n      jump\t// out\n        /* \"#utility.yul\":5490:5670   */\n    tag_46:\n        /* \"#utility.yul\":5538:5615   */\n      0x4e487b7100000000000000000000000000000000000000000000000000000000\n        /* \"#utility.yul\":5535:5536   */\n      0x00\n        /* \"#utility.yul\":5528:5616   */\n      mstore\n        /* \"#utility.yul\":5635:5639   */\n      0x11\n        /* \"#utility.yul\":5632:5633   */\n      0x04\n        /* \"#utility.yul\":5625:5640   */\n      mstore\n        /* \"#utility.yul\":5659:5663   */\n      0x24\n        /* \"#utility.yul\":5656:5657   */\n      0x00\n        /* \"#utility.yul\":5649:5664   */\n      revert\n        /* \"#utility.yul\":5676:5867   */\n    tag_22:\n        /* \"#utility.yul\":5716:5719   */\n      0x00\n        /* \"#utility.yul\":5735:5755   */\n      tag_113\n        /* \"#utility.yul\":5753:5754   */\n      dup3\n        /* \"#utility.yul\":5735:5755   */\n      tag_25\n      jump\t// in\n    tag_113:\n        /* \"#utility.yul\":5730:5755   */\n      swap2\n      pop\n        /* \"#utility.yul\":5769:5789   */\n      tag_114\n        /* \"#utility.yul\":5787:5788   */\n      dup4\n        /* \"#utility.yul\":5769:5789   */\n      tag_25\n      jump\t// in\n    tag_114:\n        /* \"#utility.yul\":5764:5789   */\n      swap3\n      pop\n        /* \"#utility.yul\":5812:5813   */\n      dup3\n        /* \"#utility.yul\":5809:5810   */\n      dup3\n        /* \"#utility.yul\":5805:5814   */\n      add\n        /* \"#utility.yul\":5798:5814   */\n      swap1\n      pop\n        /* \"#utility.yul\":5833:5836   */\n      dup1\n        /* \"#utility.yul\":5830:5831   */\n      dup3\n        /* \"#utility.yul\":5827:5837   */\n      gt\n        /* \"#utility.yul\":5824:5860   */\n      iszero\n      tag_115\n      jumpi\n        /* \"#utility.yul\":5840:5858   */\n      tag_116\n      tag_46\n      jump\t// in\n    tag_116:\n        /* \"#utility.yul\":5824:5860   */\n    tag_115:\n        /* \"#utility.yul\":5676:5867   */\n      swap3\n      swap2\n      pop\n      pop\n      jump\t// out\n\n    auxdata: 0xa264697066735822122099137db30da2d8f8d254caaea31a22d9a21fe4df8903d9846dc69feac39d6b1764736f6c63430008160033\n}\n",
				"bytecode": {
					"linkReferences": {},
					"object": "608060405234801561000f575f80fd5b5061043a8061001d5f395ff3fe608060405234801561000f575f80fd5b506004361061003f575f3560e01c80634f2be91f1461004357806367d498f914610061578063ce9299bb14610091575b5f80fd5b61004b6100ad565b60405161005891906100f5565b60405180910390f35b61007b6004803603810190610076919061025b565b6100c2565b604051610088919061031c565b60405180910390f35b6100ab60048036038101906100a69190610366565b6100cc565b005b5f6001545f546100bd91906103d1565b905090565b6060819050919050565b815f81905550806001819055505050565b5f819050919050565b6100ef816100dd565b82525050565b5f6020820190506101085f8301846100e6565b92915050565b5f604051905090565b5f80fd5b5f80fd5b5f80fd5b5f80fd5b5f601f19601f8301169050919050565b7f4e487b71000000000000000000000000000000000000000000000000000000005f52604160045260245ffd5b61016d82610127565b810181811067ffffffffffffffff8211171561018c5761018b610137565b5b80604052505050565b5f61019e61010e565b90506101aa8282610164565b919050565b5f67ffffffffffffffff8211156101c9576101c8610137565b5b6101d282610127565b9050602081019050919050565b828183375f83830152505050565b5f6101ff6101fa846101af565b610195565b90508281526020810184848401111561021b5761021a610123565b5b6102268482856101df565b509392505050565b5f82601f8301126102425761024161011f565b5b81356102528482602086016101ed565b91505092915050565b5f602082840312156102705761026f610117565b5b5f82013567ffffffffffffffff81111561028d5761028c61011b565b5b6102998482850161022e565b91505092915050565b5f81519050919050565b5f82825260208201905092915050565b5f5b838110156102d95780820151818401526020810190506102be565b5f8484015250505050565b5f6102ee826102a2565b6102f881856102ac565b93506103088185602086016102bc565b61031181610127565b840191505092915050565b5f6020820190508181035f83015261033481846102e4565b905092915050565b610345816100dd565b811461034f575f80fd5b50565b5f813590506103608161033c565b92915050565b5f806040838503121561037c5761037b610117565b5b5f61038985828601610352565b925050602061039a85828601610352565b9150509250929050565b7f4e487b71000000000000000000000000000000000000000000000000000000005f52601160045260245ffd5b5f6103db826100dd565b91506103e6836100dd565b92508282019050808211156103fe576103fd6103a4565b5b9291505056fea264697066735822122099137db30da2d8f8d254caaea31a22d9a21fe4df8903d9846dc69feac39d6b1764736f6c63430008160033",
					"opcodes": "PUSH1 0x80 PUSH1 0x40 MSTORE CALLVALUE DUP1 ISZERO PUSH2 0xF JUMPI PUSH0 DUP1 REVERT JUMPDEST POP PUSH2 0x43A DUP1 PUSH2 0x1D PUSH0 CODECOPY PUSH0 RETURN INVALID PUSH1 0x80 PUSH1 0x40 MSTORE CALLVALUE DUP1 ISZERO PUSH2 0xF JUMPI PUSH0 DUP1 REVERT JUMPDEST POP PUSH1 0x4 CALLDATASIZE LT PUSH2 0x3F JUMPI PUSH0 CALLDATALOAD PUSH1 0xE0 SHR DUP1 PUSH4 0x4F2BE91F EQ PUSH2 0x43 JUMPI DUP1 PUSH4 0x67D498F9 EQ PUSH2 0x61 JUMPI DUP1 PUSH4 0xCE9299BB EQ PUSH2 0x91 JUMPI JUMPDEST PUSH0 DUP1 REVERT JUMPDEST PUSH2 0x4B PUSH2 0xAD JUMP JUMPDEST PUSH1 0x40 MLOAD PUSH2 0x58 SWAP2 SWAP1 PUSH2 0xF5 JUMP JUMPDEST PUSH1 0x40 MLOAD DUP1 SWAP2 SUB SWAP1 RETURN JUMPDEST PUSH2 0x7B PUSH1 0x4 DUP1 CALLDATASIZE SUB DUP2 ADD SWAP1 PUSH2 0x76 SWAP2 SWAP1 PUSH2 0x25B JUMP JUMPDEST PUSH2 0xC2 JUMP JUMPDEST PUSH1 0x40 MLOAD PUSH2 0x88 SWAP2 SWAP1 PUSH2 0x31C JUMP JUMPDEST PUSH1 0x40 MLOAD DUP1 SWAP2 SUB SWAP1 RETURN JUMPDEST PUSH2 0xAB PUSH1 0x4 DUP1 CALLDATASIZE SUB DUP2 ADD SWAP1 PUSH2 0xA6 SWAP2 SWAP1 PUSH2 0x366 JUMP JUMPDEST PUSH2 0xCC JUMP JUMPDEST STOP JUMPDEST PUSH0 PUSH1 0x1 SLOAD PUSH0 SLOAD PUSH2 0xBD SWAP2 SWAP1 PUSH2 0x3D1 JUMP JUMPDEST SWAP1 POP SWAP1 JUMP JUMPDEST PUSH1 0x60 DUP2 SWAP1 POP SWAP2 SWAP1 POP JUMP JUMPDEST DUP2 PUSH0 DUP2 SWAP1 SSTORE POP DUP1 PUSH1 0x1 DUP2 SWAP1 SSTORE POP POP POP JUMP JUMPDEST PUSH0 DUP2 SWAP1 POP SWAP2 SWAP1 POP JUMP JUMPDEST PUSH2 0xEF DUP2 PUSH2 0xDD JUMP JUMPDEST DUP3 MSTORE POP POP JUMP JUMPDEST PUSH0 PUSH1 0x20 DUP3 ADD SWAP1 POP PUSH2 0x108 PUSH0 DUP4 ADD DUP5 PUSH2 0xE6 JUMP JUMPDEST SWAP3 SWAP2 POP POP JUMP JUMPDEST PUSH0 PUSH1 0x40 MLOAD SWAP1 POP SWAP1 JUMP JUMPDEST PUSH0 DUP1 REVERT JUMPDEST PUSH0 DUP1 REVERT JUMPDEST PUSH0 DUP1 REVERT JUMPDEST PUSH0 DUP1 REVERT JUMPDEST PUSH0 PUSH1 0x1F NOT PUSH1 0x1F DUP4 ADD AND SWAP1 POP SWAP2 SWAP1 POP JUMP JUMPDEST PUSH32 0x4E487B7100000000000000000000000000000000000000000000000000000000 PUSH0 MSTORE PUSH1 0x41 PUSH1 0x4 MSTORE PUSH1 0x24 PUSH0 REVERT JUMPDEST PUSH2 0x16D DUP3 PUSH2 0x127 JUMP JUMPDEST DUP2 ADD DUP2 DUP2 LT PUSH8 0xFFFFFFFFFFFFFFFF DUP3 GT OR ISZERO PUSH2 0x18C JUMPI PUSH2 0x18B PUSH2 0x137 JUMP JUMPDEST JUMPDEST DUP1 PUSH1 0x40 MSTORE POP POP POP JUMP JUMPDEST PUSH0 PUSH2 0x19E PUSH2 0x10E JUMP JUMPDEST SWAP1 POP PUSH2 0x1AA DUP3 DUP3 PUSH2 0x164 JUMP JUMPDEST SWAP2 SWAP1 POP JUMP JUMPDEST PUSH0 PUSH8 0xFFFFFFFFFFFFFFFF DUP3 GT ISZERO PUSH2 0x1C9 JUMPI PUSH2 0x1C8 PUSH2 0x137 JUMP JUMPDEST JUMPDEST PUSH2 0x1D2 DUP3 PUSH2 0x127 JUMP JUMPDEST SWAP1 POP PUSH1 0x20 DUP2 ADD SWAP1 POP SWAP2 SWAP1 POP JUMP JUMPDEST DUP3 DUP2 DUP4 CALLDATACOPY PUSH0 DUP4 DUP4 ADD MSTORE POP POP POP JUMP JUMPDEST PUSH0 PUSH2 0x1FF PUSH2 0x1FA DUP5 PUSH2 0x1AF JUMP JUMPDEST PUSH2 0x195 JUMP JUMPDEST SWAP1 POP DUP3 DUP2 MSTORE PUSH1 0x20 DUP2 ADD DUP5 DUP5 DUP5 ADD GT ISZERO PUSH2 0x21B JUMPI PUSH2 0x21A PUSH2 0x123 JUMP JUMPDEST JUMPDEST PUSH2 0x226 DUP5 DUP3 DUP6 PUSH2 0x1DF JUMP JUMPDEST POP SWAP4 SWAP3 POP POP POP JUMP JUMPDEST PUSH0 DUP3 PUSH1 0x1F DUP4 ADD SLT PUSH2 0x242 JUMPI PUSH2 0x241 PUSH2 0x11F JUMP JUMPDEST JUMPDEST DUP2 CALLDATALOAD PUSH2 0x252 DUP5 DUP3 PUSH1 0x20 DUP7 ADD PUSH2 0x1ED JUMP JUMPDEST SWAP2 POP POP SWAP3 SWAP2 POP POP JUMP JUMPDEST PUSH0 PUSH1 0x20 DUP3 DUP5 SUB SLT ISZERO PUSH2 0x270 JUMPI PUSH2 0x26F PUSH2 0x117 JUMP JUMPDEST JUMPDEST PUSH0 DUP3 ADD CALLDATALOAD PUSH8 0xFFFFFFFFFFFFFFFF DUP2 GT ISZERO PUSH2 0x28D JUMPI PUSH2 0x28C PUSH2 0x11B JUMP JUMPDEST JUMPDEST PUSH2 0x299 DUP5 DUP3 DUP6 ADD PUSH2 0x22E JUMP JUMPDEST SWAP2 POP POP SWAP3 SWAP2 POP POP JUMP JUMPDEST PUSH0 DUP2 MLOAD SWAP1 POP SWAP2 SWAP1 POP JUMP JUMPDEST PUSH0 DUP3 DUP3 MSTORE PUSH1 0x20 DUP3 ADD SWAP1 POP SWAP3 SWAP2 POP POP JUMP JUMPDEST PUSH0 JUMPDEST DUP4 DUP2 LT ISZERO PUSH2 0x2D9 JUMPI DUP1 DUP3 ADD MLOAD DUP2 DUP5 ADD MSTORE PUSH1 0x20 DUP2 ADD SWAP1 POP PUSH2 0x2BE JUMP JUMPDEST PUSH0 DUP5 DUP5 ADD MSTORE POP POP POP POP JUMP JUMPDEST PUSH0 PUSH2 0x2EE DUP3 PUSH2 0x2A2 JUMP JUMPDEST PUSH2 0x2F8 DUP2 DUP6 PUSH2 0x2AC JUMP JUMPDEST SWAP4 POP PUSH2 0x308 DUP2 DUP6 PUSH1 0x20 DUP7 ADD PUSH2 0x2BC JUMP JUMPDEST PUSH2 0x311 DUP2 PUSH2 0x127 JUMP JUMPDEST DUP5 ADD SWAP2 POP POP SWAP3 SWAP2 POP POP JUMP JUMPDEST PUSH0 PUSH1 0x20 DUP3 ADD SWAP1 POP DUP2 DUP2 SUB PUSH0 DUP4 ADD MSTORE PUSH2 0x334 DUP2 DUP5 PUSH2 0x2E4 JUMP JUMPDEST SWAP1 POP SWAP3 SWAP2 POP POP JUMP JUMPDEST PUSH2 0x345 DUP2 PUSH2 0xDD JUMP JUMPDEST DUP2 EQ PUSH2 0x34F JUMPI PUSH0 DUP1 REVERT JUMPDEST POP JUMP JUMPDEST PUSH0 DUP2 CALLDATALOAD SWAP1 POP PUSH2 0x360 DUP2 PUSH2 0x33C JUMP JUMPDEST SWAP3 SWAP2 POP POP JUMP JUMPDEST PUSH0 DUP1 PUSH1 0x40 DUP4 DUP6 SUB SLT ISZERO PUSH2 0x37C JUMPI PUSH2 0x37B PUSH2 0x117 JUMP JUMPDEST JUMPDEST PUSH0 PUSH2 0x389 DUP6 DUP3 DUP7 ADD PUSH2 0x352 JUMP JUMPDEST SWAP3 POP POP PUSH1 0x20 PUSH2 0x39A DUP6 DUP3 DUP7 ADD PUSH2 0x352 JUMP JUMPDEST SWAP2 POP POP SWAP3 POP SWAP3 SWAP1 POP JUMP JUMPDEST PUSH32 0x4E487B7100000000000000000000000000000000000000000000000000000000 PUSH0 MSTORE PUSH1 0x11 PUSH1 0x4 MSTORE PUSH1 0x24 PUSH0 REVERT JUMPDEST PUSH0 PUSH2 0x3DB DUP3 PUSH2 0xDD JUMP JUMPDEST SWAP2 POP PUSH2 0x3E6 DUP4 PUSH2 0xDD JUMP JUMPDEST SWAP3 POP DUP3 DUP3 ADD SWAP1 POP DUP1 DUP3 GT ISZERO PUSH2 0x3FE JUMPI PUSH2 0x3FD PUSH2 0x3A4 JUMP JUMPDEST JUMPDEST SWAP3 SWAP2 POP POP JUMP INVALID LOG2 PUSH5 0x6970667358 0x22 SLT KECCAK256 SWAP10 SGT PUSH30 0xB30DA2D8F8D254CAAEA31A22D9A21FE4DF8903D9846DC69FEAC39D6B1764 PUSH20 0x6F6C634300081600330000000000000000000000 "
				},
				"gasEstimates": {
					"creation": {
						"codeDepositCost": "216400",
						"executionCost": "255",
						"totalCost": "216655"
					},
					"external": {
						"add()": "infinite",
						"getNum(uint256,uint256)": "infinite",
						"getstr(string)": "infinite"
					}
				},
				"methodIdentifiers": {
					"add()": "4f2be91f",
					"getNum(uint256,uint256)": "ce9299bb",
					"getstr(string)": "67d498f9"
				}
			},
			"storageLayout": {
				"storage": [
					{
						"astId": 28,
						"contract": "contracts/interfaceImplimentation.sol:interfaceImplementation",
						"label": "num1",
						"offset": 0,
						"slot": "0",
						"type": "t_uint256"
					},
					{
						"astId": 30,
						"contract": "contracts/interfaceImplimentation.sol:interfaceImplementation",
						"label": "num2",
						"offset": 0,
						"slot": "1",
						"type": "t_uint256"
					}
				],
				"types": {
					"t_uint256": {
						"encoding": "inplace",
						"label": "uint256",
						"numberOfBytes": "32"
					}
				}
			},
			"userdoc": {
				"kind": "user",
				"methods": {},
				"version": 1
			}
		}
	}
}