{
	"data": {
		"bytecode": {
			"linkReferences": {},
			"object": "6080604052348015600e575f80fd5b506103248061001c5f395ff3fe608060405234801561000f575f80fd5b5060043610610029575f3560e01c806348da28401461002d575b5f80fd5b6100476004803603810190610042919061013b565b61005e565b6040516100559291906101f8565b60405180910390f35b60605f80838561006e9190610253565b905060ff8110158061008057505f8111155b156100c0576040517f08c379a00000000000000000000000000000000000000000000000000000000081526004016100b7906102d0565b60405180910390fd5b806040518060400160405280600981526020017f756e646572666c6f7700000000000000000000000000000000000000000000008152509092509250509250929050565b5f80fd5b5f819050919050565b61011a81610108565b8114610124575f80fd5b50565b5f8135905061013581610111565b92915050565b5f806040838503121561015157610150610104565b5b5f61015e85828601610127565b925050602061016f85828601610127565b9150509250929050565b5f81519050919050565b5f82825260208201905092915050565b8281835e5f83830152505050565b5f601f19601f8301169050919050565b5f6101bb82610179565b6101c58185610183565b93506101d5818560208601610193565b6101de816101a1565b840191505092915050565b6101f281610108565b82525050565b5f6040820190508181035f83015261021081856101b1565b905061021f60208301846101e9565b9392505050565b7f4e487b71000000000000000000000000000000000000000000000000000000005f52601160045260245ffd5b5f61025d82610108565b915061026883610108565b92508282019050808211156102805761027f610226565b5b92915050565b7f6f766572666c6f770000000000000000000000000000000000000000000000005f82015250565b5f6102ba600883610183565b91506102c582610286565b602082019050919050565b5f6020820190508181035f8301526102e7816102ae565b905091905056fea2646970667358221220121146e12d6ff43616861de3efcb55f722f75bff322df559f69a7a68ef07bc7164736f6c634300081a0033",
			"opcodes": "PUSH1 0x80 PUSH1 0x40 MSTORE CALLVALUE DUP1 ISZERO PUSH1 0xE JUMPI PUSH0 DUP1 REVERT JUMPDEST POP PUSH2 0x324 DUP1 PUSH2 0x1C PUSH0 CODECOPY PUSH0 RETURN INVALID PUSH1 0x80 PUSH1 0x40 MSTORE CALLVALUE DUP1 ISZERO PUSH2 0xF JUMPI PUSH0 DUP1 REVERT JUMPDEST POP PUSH1 0x4 CALLDATASIZE LT PUSH2 0x29 JUMPI PUSH0 CALLDATALOAD PUSH1 0xE0 SHR DUP1 PUSH4 0x48DA2840 EQ PUSH2 0x2D JUMPI JUMPDEST PUSH0 DUP1 REVERT JUMPDEST PUSH2 0x47 PUSH1 0x4 DUP1 CALLDATASIZE SUB DUP2 ADD SWAP1 PUSH2 0x42 SWAP2 SWAP1 PUSH2 0x13B JUMP JUMPDEST PUSH2 0x5E JUMP JUMPDEST PUSH1 0x40 MLOAD PUSH2 0x55 SWAP3 SWAP2 SWAP1 PUSH2 0x1F8 JUMP JUMPDEST PUSH1 0x40 MLOAD DUP1 SWAP2 SUB SWAP1 RETURN JUMPDEST PUSH1 0x60 PUSH0 DUP1 DUP4 DUP6 PUSH2 0x6E SWAP2 SWAP1 PUSH2 0x253 JUMP JUMPDEST SWAP1 POP PUSH1 0xFF DUP2 LT ISZERO DUP1 PUSH2 0x80 JUMPI POP PUSH0 DUP2 GT ISZERO JUMPDEST ISZERO PUSH2 0xC0 JUMPI PUSH1 0x40 MLOAD PUSH32 0x8C379A000000000000000000000000000000000000000000000000000000000 DUP2 MSTORE PUSH1 0x4 ADD PUSH2 0xB7 SWAP1 PUSH2 0x2D0 JUMP JUMPDEST PUSH1 0x40 MLOAD DUP1 SWAP2 SUB SWAP1 REVERT JUMPDEST DUP1 PUSH1 0x40 MLOAD DUP1 PUSH1 0x40 ADD PUSH1 0x40 MSTORE DUP1 PUSH1 0x9 DUP2 MSTORE PUSH1 0x20 ADD PUSH32 0x756E646572666C6F770000000000000000000000000000000000000000000000 DUP2 MSTORE POP SWAP1 SWAP3 POP SWAP3 POP POP SWAP3 POP SWAP3 SWAP1 POP JUMP JUMPDEST PUSH0 DUP1 REVERT JUMPDEST PUSH0 DUP2 SWAP1 POP SWAP2 SWAP1 POP JUMP JUMPDEST PUSH2 0x11A DUP2 PUSH2 0x108 JUMP JUMPDEST DUP2 EQ PUSH2 0x124 JUMPI PUSH0 DUP1 REVERT JUMPDEST POP JUMP JUMPDEST PUSH0 DUP2 CALLDATALOAD SWAP1 POP PUSH2 0x135 DUP2 PUSH2 0x111 JUMP JUMPDEST SWAP3 SWAP2 POP POP JUMP JUMPDEST PUSH0 DUP1 PUSH1 0x40 DUP4 DUP6 SUB SLT ISZERO PUSH2 0x151 JUMPI PUSH2 0x150 PUSH2 0x104 JUMP JUMPDEST JUMPDEST PUSH0 PUSH2 0x15E DUP6 DUP3 DUP7 ADD PUSH2 0x127 JUMP JUMPDEST SWAP3 POP POP PUSH1 0x20 PUSH2 0x16F DUP6 DUP3 DUP7 ADD PUSH2 0x127 JUMP JUMPDEST SWAP2 POP POP SWAP3 POP SWAP3 SWAP1 POP JUMP JUMPDEST PUSH0 DUP2 MLOAD SWAP1 POP SWAP2 SWAP1 POP JUMP JUMPDEST PUSH0 DUP3 DUP3 MSTORE PUSH1 0x20 DUP3 ADD SWAP1 POP SWAP3 SWAP2 POP POP JUMP JUMPDEST DUP3 DUP2 DUP4 MCOPY PUSH0 DUP4 DUP4 ADD MSTORE POP POP POP JUMP JUMPDEST PUSH0 PUSH1 0x1F NOT PUSH1 0x1F DUP4 ADD AND SWAP1 POP SWAP2 SWAP1 POP JUMP JUMPDEST PUSH0 PUSH2 0x1BB DUP3 PUSH2 0x179 JUMP JUMPDEST PUSH2 0x1C5 DUP2 DUP6 PUSH2 0x183 JUMP JUMPDEST SWAP4 POP PUSH2 0x1D5 DUP2 DUP6 PUSH1 0x20 DUP7 ADD PUSH2 0x193 JUMP JUMPDEST PUSH2 0x1DE DUP2 PUSH2 0x1A1 JUMP JUMPDEST DUP5 ADD SWAP2 POP POP SWAP3 SWAP2 POP POP JUMP JUMPDEST PUSH2 0x1F2 DUP2 PUSH2 0x108 JUMP JUMPDEST DUP3 MSTORE POP POP JUMP JUMPDEST PUSH0 PUSH1 0x40 DUP3 ADD SWAP1 POP DUP2 DUP2 SUB PUSH0 DUP4 ADD MSTORE PUSH2 0x210 DUP2 DUP6 PUSH2 0x1B1 JUMP JUMPDEST SWAP1 POP PUSH2 0x21F PUSH1 0x20 DUP4 ADD DUP5 PUSH2 0x1E9 JUMP JUMPDEST SWAP4 SWAP3 POP POP POP JUMP JUMPDEST PUSH32 0x4E487B7100000000000000000000000000000000000000000000000000000000 PUSH0 MSTORE PUSH1 0x11 PUSH1 0x4 MSTORE PUSH1 0x24 PUSH0 REVERT JUMPDEST PUSH0 PUSH2 0x25D DUP3 PUSH2 0x108 JUMP JUMPDEST SWAP2 POP PUSH2 0x268 DUP4 PUSH2 0x108 JUMP JUMPDEST SWAP3 POP DUP3 DUP3 ADD SWAP1 POP DUP1 DUP3 GT ISZERO PUSH2 0x280 JUMPI PUSH2 0x27F PUSH2 0x226 JUMP JUMPDEST JUMPDEST SWAP3 SWAP2 POP POP JUMP JUMPDEST PUSH32 0x6F766572666C6F77000000000000000000000000000000000000000000000000 PUSH0 DUP3 ADD MSTORE POP JUMP JUMPDEST PUSH0 PUSH2 0x2BA PUSH1 0x8 DUP4 PUSH2 0x183 JUMP JUMPDEST SWAP2 POP PUSH2 0x2C5 DUP3 PUSH2 0x286 JUMP JUMPDEST PUSH1 0x20 DUP3 ADD SWAP1 POP SWAP2 SWAP1 POP JUMP JUMPDEST PUSH0 PUSH1 0x20 DUP3 ADD SWAP1 POP DUP2 DUP2 SUB PUSH0 DUP4 ADD MSTORE PUSH2 0x2E7 DUP2 PUSH2 0x2AE JUMP JUMPDEST SWAP1 POP SWAP2 SWAP1 POP JUMP INVALID LOG2 PUSH5 0x6970667358 0x22 SLT KECCAK256 SLT GT CHAINID 0xE1 0x2D PUSH16 0xF43616861DE3EFCB55F722F75BFF322D CREATE2 MSIZE 0xF6 SWAP11 PUSH27 0x68EF07BC7164736F6C634300081A00330000000000000000000000 "
		},
		"gasEstimates": {
			"creation": {
				"codeDepositCost": "160800",
				"executionCost": "206",
				"totalCost": "161006"
			},
			"external": {
				"revertError(uint256,uint256)": "infinite"
			}
		},
		"methodIdentifiers": {
			"revertError(uint256,uint256)": "48da2840"
		}
	},
	"abi": [
		{
			"inputs": [
				{
					"internalType": "uint256",
					"name": "_a",
					"type": "uint256"
				},
				{
					"internalType": "uint256",
					"name": "_b",
					"type": "uint256"
				}
			],
			"name": "revertError",
			"outputs": [
				{
					"internalType": "string",
					"name": "",
					"type": "string"
				},
				{
					"internalType": "uint256",
					"name": "",
					"type": "uint256"
				}
			],
			"stateMutability": "pure",
			"type": "function"
		}
	]
}