{
	"data": {
		"bytecode": {
			"linkReferences": {},
			"object": "60806040527f8dfdabba5f359b923928ed0fea88cbbe1a62fe53236d3fb9867b476dec1f33b45f1b5f55348015610034575f80fd5b5061036d806100425f395ff3fe608060405234801561000f575f80fd5b5060043610610034575f3560e01c806385bb7d6914610038578063af7c2d2e14610056575b5f80fd5b610040610086565b60405161004d91906100d5565b60405180910390f35b610070600480360381019061006b919061023b565b61008b565b60405161007d919061029c565b60405180910390f35b5f5481565b5f80548260405160200161009f9190610321565b60405160208183030381529060405280519060200120149050919050565b5f819050919050565b6100cf816100bd565b82525050565b5f6020820190506100e85f8301846100c6565b92915050565b5f604051905090565b5f80fd5b5f80fd5b5f80fd5b5f80fd5b5f601f19601f8301169050919050565b7f4e487b71000000000000000000000000000000000000000000000000000000005f52604160045260245ffd5b61014d82610107565b810181811067ffffffffffffffff8211171561016c5761016b610117565b5b80604052505050565b5f61017e6100ee565b905061018a8282610144565b919050565b5f67ffffffffffffffff8211156101a9576101a8610117565b5b6101b282610107565b9050602081019050919050565b828183375f83830152505050565b5f6101df6101da8461018f565b610175565b9050828152602081018484840111156101fb576101fa610103565b5b6102068482856101bf565b509392505050565b5f82601f830112610222576102216100ff565b5b81356102328482602086016101cd565b91505092915050565b5f602082840312156102505761024f6100f7565b5b5f82013567ffffffffffffffff81111561026d5761026c6100fb565b5b6102798482850161020e565b91505092915050565b5f8115159050919050565b61029681610282565b82525050565b5f6020820190506102af5f83018461028d565b92915050565b5f81519050919050565b5f81905092915050565b5f5b838110156102e65780820151818401526020810190506102cb565b5f8484015250505050565b5f6102fb826102b5565b61030581856102bf565b93506103158185602086016102c9565b80840191505092915050565b5f61032c82846102f1565b91508190509291505056fea26469706673582212200b423ee3ad4b685d3efe97c5682952f8df1743cecbf223dbeaffa37fec092f8264736f6c63430008170033",
			"opcodes": "PUSH1 0x80 PUSH1 0x40 MSTORE PUSH32 0x8DFDABBA5F359B923928ED0FEA88CBBE1A62FE53236D3FB9867B476DEC1F33B4 PUSH0 SHL PUSH0 SSTORE CALLVALUE DUP1 ISZERO PUSH2 0x34 JUMPI PUSH0 DUP1 REVERT JUMPDEST POP PUSH2 0x36D DUP1 PUSH2 0x42 PUSH0 CODECOPY PUSH0 RETURN INVALID PUSH1 0x80 PUSH1 0x40 MSTORE CALLVALUE DUP1 ISZERO PUSH2 0xF JUMPI PUSH0 DUP1 REVERT JUMPDEST POP PUSH1 0x4 CALLDATASIZE LT PUSH2 0x34 JUMPI PUSH0 CALLDATALOAD PUSH1 0xE0 SHR DUP1 PUSH4 0x85BB7D69 EQ PUSH2 0x38 JUMPI DUP1 PUSH4 0xAF7C2D2E EQ PUSH2 0x56 JUMPI JUMPDEST PUSH0 DUP1 REVERT JUMPDEST PUSH2 0x40 PUSH2 0x86 JUMP JUMPDEST PUSH1 0x40 MLOAD PUSH2 0x4D SWAP2 SWAP1 PUSH2 0xD5 JUMP JUMPDEST PUSH1 0x40 MLOAD DUP1 SWAP2 SUB SWAP1 RETURN JUMPDEST PUSH2 0x70 PUSH1 0x4 DUP1 CALLDATASIZE SUB DUP2 ADD SWAP1 PUSH2 0x6B SWAP2 SWAP1 PUSH2 0x23B JUMP JUMPDEST PUSH2 0x8B JUMP JUMPDEST PUSH1 0x40 MLOAD PUSH2 0x7D SWAP2 SWAP1 PUSH2 0x29C JUMP JUMPDEST PUSH1 0x40 MLOAD DUP1 SWAP2 SUB SWAP1 RETURN JUMPDEST PUSH0 SLOAD DUP2 JUMP JUMPDEST PUSH0 DUP1 SLOAD DUP3 PUSH1 0x40 MLOAD PUSH1 0x20 ADD PUSH2 0x9F SWAP2 SWAP1 PUSH2 0x321 JUMP JUMPDEST PUSH1 0x40 MLOAD PUSH1 0x20 DUP2 DUP4 SUB SUB DUP2 MSTORE SWAP1 PUSH1 0x40 MSTORE DUP1 MLOAD SWAP1 PUSH1 0x20 ADD KECCAK256 EQ SWAP1 POP SWAP2 SWAP1 POP JUMP JUMPDEST PUSH0 DUP2 SWAP1 POP SWAP2 SWAP1 POP JUMP JUMPDEST PUSH2 0xCF DUP2 PUSH2 0xBD JUMP JUMPDEST DUP3 MSTORE POP POP JUMP JUMPDEST PUSH0 PUSH1 0x20 DUP3 ADD SWAP1 POP PUSH2 0xE8 PUSH0 DUP4 ADD DUP5 PUSH2 0xC6 JUMP JUMPDEST SWAP3 SWAP2 POP POP JUMP JUMPDEST PUSH0 PUSH1 0x40 MLOAD SWAP1 POP SWAP1 JUMP JUMPDEST PUSH0 DUP1 REVERT JUMPDEST PUSH0 DUP1 REVERT JUMPDEST PUSH0 DUP1 REVERT JUMPDEST PUSH0 DUP1 REVERT JUMPDEST PUSH0 PUSH1 0x1F NOT PUSH1 0x1F DUP4 ADD AND SWAP1 POP SWAP2 SWAP1 POP JUMP JUMPDEST PUSH32 0x4E487B7100000000000000000000000000000000000000000000000000000000 PUSH0 MSTORE PUSH1 0x41 PUSH1 0x4 MSTORE PUSH1 0x24 PUSH0 REVERT JUMPDEST PUSH2 0x14D DUP3 PUSH2 0x107 JUMP JUMPDEST DUP2 ADD DUP2 DUP2 LT PUSH8 0xFFFFFFFFFFFFFFFF DUP3 GT OR ISZERO PUSH2 0x16C JUMPI PUSH2 0x16B PUSH2 0x117 JUMP JUMPDEST JUMPDEST DUP1 PUSH1 0x40 MSTORE POP POP POP JUMP JUMPDEST PUSH0 PUSH2 0x17E PUSH2 0xEE JUMP JUMPDEST SWAP1 POP PUSH2 0x18A DUP3 DUP3 PUSH2 0x144 JUMP JUMPDEST SWAP2 SWAP1 POP JUMP JUMPDEST PUSH0 PUSH8 0xFFFFFFFFFFFFFFFF DUP3 GT ISZERO PUSH2 0x1A9 JUMPI PUSH2 0x1A8 PUSH2 0x117 JUMP JUMPDEST JUMPDEST PUSH2 0x1B2 DUP3 PUSH2 0x107 JUMP JUMPDEST SWAP1 POP PUSH1 0x20 DUP2 ADD SWAP1 POP SWAP2 SWAP1 POP JUMP JUMPDEST DUP3 DUP2 DUP4 CALLDATACOPY PUSH0 DUP4 DUP4 ADD MSTORE POP POP POP JUMP JUMPDEST PUSH0 PUSH2 0x1DF PUSH2 0x1DA DUP5 PUSH2 0x18F JUMP JUMPDEST PUSH2 0x175 JUMP JUMPDEST SWAP1 POP DUP3 DUP2 MSTORE PUSH1 0x20 DUP2 ADD DUP5 DUP5 DUP5 ADD GT ISZERO PUSH2 0x1FB JUMPI PUSH2 0x1FA PUSH2 0x103 JUMP JUMPDEST JUMPDEST PUSH2 0x206 DUP5 DUP3 DUP6 PUSH2 0x1BF JUMP JUMPDEST POP SWAP4 SWAP3 POP POP POP JUMP JUMPDEST PUSH0 DUP3 PUSH1 0x1F DUP4 ADD SLT PUSH2 0x222 JUMPI PUSH2 0x221 PUSH2 0xFF JUMP JUMPDEST JUMPDEST DUP2 CALLDATALOAD PUSH2 0x232 DUP5 DUP3 PUSH1 0x20 DUP7 ADD PUSH2 0x1CD JUMP JUMPDEST SWAP2 POP POP SWAP3 SWAP2 POP POP JUMP JUMPDEST PUSH0 PUSH1 0x20 DUP3 DUP5 SUB SLT ISZERO PUSH2 0x250 JUMPI PUSH2 0x24F PUSH2 0xF7 JUMP JUMPDEST JUMPDEST PUSH0 DUP3 ADD CALLDATALOAD PUSH8 0xFFFFFFFFFFFFFFFF DUP2 GT ISZERO PUSH2 0x26D JUMPI PUSH2 0x26C PUSH2 0xFB JUMP JUMPDEST JUMPDEST PUSH2 0x279 DUP5 DUP3 DUP6 ADD PUSH2 0x20E JUMP JUMPDEST SWAP2 POP POP SWAP3 SWAP2 POP POP JUMP JUMPDEST PUSH0 DUP2 ISZERO ISZERO SWAP1 POP SWAP2 SWAP1 POP JUMP JUMPDEST PUSH2 0x296 DUP2 PUSH2 0x282 JUMP JUMPDEST DUP3 MSTORE POP POP JUMP JUMPDEST PUSH0 PUSH1 0x20 DUP3 ADD SWAP1 POP PUSH2 0x2AF PUSH0 DUP4 ADD DUP5 PUSH2 0x28D JUMP JUMPDEST SWAP3 SWAP2 POP POP JUMP JUMPDEST PUSH0 DUP2 MLOAD SWAP1 POP SWAP2 SWAP1 POP JUMP JUMPDEST PUSH0 DUP2 SWAP1 POP SWAP3 SWAP2 POP POP JUMP JUMPDEST PUSH0 JUMPDEST DUP4 DUP2 LT ISZERO PUSH2 0x2E6 JUMPI DUP1 DUP3 ADD MLOAD DUP2 DUP5 ADD MSTORE PUSH1 0x20 DUP2 ADD SWAP1 POP PUSH2 0x2CB JUMP JUMPDEST PUSH0 DUP5 DUP5 ADD MSTORE POP POP POP POP JUMP JUMPDEST PUSH0 PUSH2 0x2FB DUP3 PUSH2 0x2B5 JUMP JUMPDEST PUSH2 0x305 DUP2 DUP6 PUSH2 0x2BF JUMP JUMPDEST SWAP4 POP PUSH2 0x315 DUP2 DUP6 PUSH1 0x20 DUP7 ADD PUSH2 0x2C9 JUMP JUMPDEST DUP1 DUP5 ADD SWAP2 POP POP SWAP3 SWAP2 POP POP JUMP JUMPDEST PUSH0 PUSH2 0x32C DUP3 DUP5 PUSH2 0x2F1 JUMP JUMPDEST SWAP2 POP DUP2 SWAP1 POP SWAP3 SWAP2 POP POP JUMP INVALID LOG2 PUSH5 0x6970667358 0x22 SLT KECCAK256 SIGNEXTEND TIMESTAMP RETURNDATACOPY 0xE3 0xAD 0x4B PUSH9 0x5D3EFE97C5682952F8 0xDF OR NUMBER 0xCE 0xCB CALLCODE 0x23 0xDB 0xEA SELFDESTRUCT LOG3 PUSH32 0xEC092F8264736F6C634300081700330000000000000000000000000000000000 "
		},
		"gasEstimates": {
			"creation": {
				"codeDepositCost": "175400",
				"executionCost": "22328",
				"totalCost": "197728"
			},
			"external": {
				"answer()": "2402",
				"guessTheMagicalWord(string)": "infinite"
			}
		},
		"methodIdentifiers": {
			"answer()": "85bb7d69",
			"guessTheMagicalWord(string)": "af7c2d2e"
		}
	},
	"abi": [
		{
			"inputs": [],
			"name": "answer",
			"outputs": [
				{
					"internalType": "bytes32",
					"name": "",
					"type": "bytes32"
				}
			],
			"stateMutability": "view",
			"type": "function"
		},
		{
			"inputs": [
				{
					"internalType": "string",
					"name": "_name",
					"type": "string"
				}
			],
			"name": "guessTheMagicalWord",
			"outputs": [
				{
					"internalType": "bool",
					"name": "",
					"type": "bool"
				}
			],
			"stateMutability": "view",
			"type": "function"
		}
	]
}