{
	"data": {
		"bytecode": {
			"linkReferences": {},
			"object": "608060405234801561000f575f80fd5b5060f08061001c5f395ff3fe6080604052348015600e575f80fd5b5060043610603a575f3560e01c806388a6360e14603e5780638acc7b47146052578063e02b87bb14605a575b5f80fd5b5f5460405190815260200160405180910390f35b60586060565b005b60586073565b5f80549080606c836093565b9190505550565b5f80549080606c8360a8565b634e487b7160e01b5f52601160045260245ffd5b5f6001820160a15760a1607f565b5060010190565b5f8160b35760b3607f565b505f19019056fea2646970667358221220a1439f1a7349df9b8edcbe69ac02c882fdbfec35073003d25b4c7276619eec0b64736f6c63430008170033",
			"opcodes": "PUSH1 0x80 PUSH1 0x40 MSTORE CALLVALUE DUP1 ISZERO PUSH2 0xF JUMPI PUSH0 DUP1 REVERT JUMPDEST POP PUSH1 0xF0 DUP1 PUSH2 0x1C PUSH0 CODECOPY PUSH0 RETURN INVALID PUSH1 0x80 PUSH1 0x40 MSTORE CALLVALUE DUP1 ISZERO PUSH1 0xE JUMPI PUSH0 DUP1 REVERT JUMPDEST POP PUSH1 0x4 CALLDATASIZE LT PUSH1 0x3A JUMPI PUSH0 CALLDATALOAD PUSH1 0xE0 SHR DUP1 PUSH4 0x88A6360E EQ PUSH1 0x3E JUMPI DUP1 PUSH4 0x8ACC7B47 EQ PUSH1 0x52 JUMPI DUP1 PUSH4 0xE02B87BB EQ PUSH1 0x5A JUMPI JUMPDEST PUSH0 DUP1 REVERT JUMPDEST PUSH0 SLOAD PUSH1 0x40 MLOAD SWAP1 DUP2 MSTORE PUSH1 0x20 ADD PUSH1 0x40 MLOAD DUP1 SWAP2 SUB SWAP1 RETURN JUMPDEST PUSH1 0x58 PUSH1 0x60 JUMP JUMPDEST STOP JUMPDEST PUSH1 0x58 PUSH1 0x73 JUMP JUMPDEST PUSH0 DUP1 SLOAD SWAP1 DUP1 PUSH1 0x6C DUP4 PUSH1 0x93 JUMP JUMPDEST SWAP2 SWAP1 POP SSTORE POP JUMP JUMPDEST PUSH0 DUP1 SLOAD SWAP1 DUP1 PUSH1 0x6C DUP4 PUSH1 0xA8 JUMP JUMPDEST PUSH4 0x4E487B71 PUSH1 0xE0 SHL PUSH0 MSTORE PUSH1 0x11 PUSH1 0x4 MSTORE PUSH1 0x24 PUSH0 REVERT JUMPDEST PUSH0 PUSH1 0x1 DUP3 ADD PUSH1 0xA1 JUMPI PUSH1 0xA1 PUSH1 0x7F JUMP JUMPDEST POP PUSH1 0x1 ADD SWAP1 JUMP JUMPDEST PUSH0 DUP2 PUSH1 0xB3 JUMPI PUSH1 0xB3 PUSH1 0x7F JUMP JUMPDEST POP PUSH0 NOT ADD SWAP1 JUMP INVALID LOG2 PUSH5 0x6970667358 0x22 SLT KECCAK256 LOG1 NUMBER SWAP16 BYTE PUSH20 0x49DF9B8EDCBE69AC02C882FDBFEC35073003D25B 0x4C PUSH19 0x76619EEC0B64736F6C63430008170033000000 "
		},
		"gasEstimates": {
			"creation": {
				"codeDepositCost": "48000",
				"executionCost": "97",
				"totalCost": "48097"
			},
			"external": {
				"addNFT()": "24427",
				"deleteNFT()": "24445",
				"getNFT()": "2244"
			}
		},
		"methodIdentifiers": {
			"addNFT()": "8acc7b47",
			"deleteNFT()": "e02b87bb",
			"getNFT()": "88a6360e"
		}
	},
	"abi": [
		{
			"inputs": [],
			"name": "addNFT",
			"outputs": [],
			"stateMutability": "nonpayable",
			"type": "function"
		},
		{
			"inputs": [],
			"name": "deleteNFT",
			"outputs": [],
			"stateMutability": "nonpayable",
			"type": "function"
		},
		{
			"inputs": [],
			"name": "getNFT",
			"outputs": [
				{
					"internalType": "uint256",
					"name": "",
					"type": "uint256"
				}
			],
			"stateMutability": "view",
			"type": "function"
		}
	]
}