{
	"data": {
		"bytecode": {
			"linkReferences": {},
			"object": "608060405234801561000f575f80fd5b506105b28061001d5f395ff3fe608060405260043610610021575f3560e01c8063197277311461009c57610061565b36610061577f77c519d196f19e5eb09000bb8a061656bdb6b346d384f3908eba2e6089c3ff7b33346040516100579291906101ce565b60405180910390a1005b7f77c519d196f19e5eb09000bb8a061656bdb6b346d384f3908eba2e6089c3ff7b3334604051610092929190610252565b60405180910390a1005b6100b660048036038101906100b19190610403565b6100cc565b6040516100c3919061045d565b60405180910390f35b5f7f77c519d196f19e5eb09000bb8a061656bdb6b346d384f3908eba2e6089c3ff7b333485604051610100939291906104e0565b60405180910390a16001826101159190610549565b905092915050565b5f73ffffffffffffffffffffffffffffffffffffffff82169050919050565b5f6101468261011d565b9050919050565b6101568161013c565b82525050565b5f819050919050565b61016e8161015c565b82525050565b5f82825260208201905092915050565b7f52656369657665722052656369766500000000000000000000000000000000005f82015250565b5f6101b8600f83610174565b91506101c382610184565b602082019050919050565b5f6060820190506101e15f83018561014d565b6101ee6020830184610165565b81810360408301526101ff816101ac565b90509392505050565b7f52656369657665722046616c6c6261636b0000000000000000000000000000005f82015250565b5f61023c601183610174565b915061024782610208565b602082019050919050565b5f6060820190506102655f83018561014d565b6102726020830184610165565b818103604083015261028381610230565b90509392505050565b5f604051905090565b5f80fd5b5f80fd5b5f80fd5b5f80fd5b5f601f19601f8301169050919050565b7f4e487b71000000000000000000000000000000000000000000000000000000005f52604160045260245ffd5b6102eb826102a5565b810181811067ffffffffffffffff8211171561030a576103096102b5565b5b80604052505050565b5f61031c61028c565b905061032882826102e2565b919050565b5f67ffffffffffffffff821115610347576103466102b5565b5b610350826102a5565b9050602081019050919050565b828183375f83830152505050565b5f61037d6103788461032d565b610313565b905082815260208101848484011115610399576103986102a1565b5b6103a484828561035d565b509392505050565b5f82601f8301126103c0576103bf61029d565b5b81356103d084826020860161036b565b91505092915050565b6103e28161015c565b81146103ec575f80fd5b50565b5f813590506103fd816103d9565b92915050565b5f806040838503121561041957610418610295565b5b5f83013567ffffffffffffffff81111561043657610435610299565b5b610442858286016103ac565b9250506020610453858286016103ef565b9150509250929050565b5f6020820190506104705f830184610165565b92915050565b5f81519050919050565b5f5b8381101561049d578082015181840152602081019050610482565b5f8484015250505050565b5f6104b282610476565b6104bc8185610174565b93506104cc818560208601610480565b6104d5816102a5565b840191505092915050565b5f6060820190506104f35f83018661014d565b6105006020830185610165565b818103604083015261051281846104a8565b9050949350505050565b7f4e487b71000000000000000000000000000000000000000000000000000000005f52601160045260245ffd5b5f6105538261015c565b915061055e8361015c565b92508282019050808211156105765761057561051c565b5b9291505056fea2646970667358221220fb2ca3c73394d31fc8f2e1ca7590cc007e1821d38d5b8368ee55582120b72ebc64736f6c63430008160033",
			"opcodes": "PUSH1 0x80 PUSH1 0x40 MSTORE CALLVALUE DUP1 ISZERO PUSH2 0xF JUMPI PUSH0 DUP1 REVERT JUMPDEST POP PUSH2 0x5B2 DUP1 PUSH2 0x1D PUSH0 CODECOPY PUSH0 RETURN INVALID PUSH1 0x80 PUSH1 0x40 MSTORE PUSH1 0x4 CALLDATASIZE LT PUSH2 0x21 JUMPI PUSH0 CALLDATALOAD PUSH1 0xE0 SHR DUP1 PUSH4 0x19727731 EQ PUSH2 0x9C JUMPI PUSH2 0x61 JUMP JUMPDEST CALLDATASIZE PUSH2 0x61 JUMPI PUSH32 0x77C519D196F19E5EB09000BB8A061656BDB6B346D384F3908EBA2E6089C3FF7B CALLER CALLVALUE PUSH1 0x40 MLOAD PUSH2 0x57 SWAP3 SWAP2 SWAP1 PUSH2 0x1CE JUMP JUMPDEST PUSH1 0x40 MLOAD DUP1 SWAP2 SUB SWAP1 LOG1 STOP JUMPDEST PUSH32 0x77C519D196F19E5EB09000BB8A061656BDB6B346D384F3908EBA2E6089C3FF7B CALLER CALLVALUE PUSH1 0x40 MLOAD PUSH2 0x92 SWAP3 SWAP2 SWAP1 PUSH2 0x252 JUMP JUMPDEST PUSH1 0x40 MLOAD DUP1 SWAP2 SUB SWAP1 LOG1 STOP JUMPDEST PUSH2 0xB6 PUSH1 0x4 DUP1 CALLDATASIZE SUB DUP2 ADD SWAP1 PUSH2 0xB1 SWAP2 SWAP1 PUSH2 0x403 JUMP JUMPDEST PUSH2 0xCC JUMP JUMPDEST PUSH1 0x40 MLOAD PUSH2 0xC3 SWAP2 SWAP1 PUSH2 0x45D JUMP JUMPDEST PUSH1 0x40 MLOAD DUP1 SWAP2 SUB SWAP1 RETURN JUMPDEST PUSH0 PUSH32 0x77C519D196F19E5EB09000BB8A061656BDB6B346D384F3908EBA2E6089C3FF7B CALLER CALLVALUE DUP6 PUSH1 0x40 MLOAD PUSH2 0x100 SWAP4 SWAP3 SWAP2 SWAP1 PUSH2 0x4E0 JUMP JUMPDEST PUSH1 0x40 MLOAD DUP1 SWAP2 SUB SWAP1 LOG1 PUSH1 0x1 DUP3 PUSH2 0x115 SWAP2 SWAP1 PUSH2 0x549 JUMP JUMPDEST SWAP1 POP SWAP3 SWAP2 POP POP JUMP JUMPDEST PUSH0 PUSH20 0xFFFFFFFFFFFFFFFFFFFFFFFFFFFFFFFFFFFFFFFF DUP3 AND SWAP1 POP SWAP2 SWAP1 POP JUMP JUMPDEST PUSH0 PUSH2 0x146 DUP3 PUSH2 0x11D JUMP JUMPDEST SWAP1 POP SWAP2 SWAP1 POP JUMP JUMPDEST PUSH2 0x156 DUP2 PUSH2 0x13C JUMP JUMPDEST DUP3 MSTORE POP POP JUMP JUMPDEST PUSH0 DUP2 SWAP1 POP SWAP2 SWAP1 POP JUMP JUMPDEST PUSH2 0x16E DUP2 PUSH2 0x15C JUMP JUMPDEST DUP3 MSTORE POP POP JUMP JUMPDEST PUSH0 DUP3 DUP3 MSTORE PUSH1 0x20 DUP3 ADD SWAP1 POP SWAP3 SWAP2 POP POP JUMP JUMPDEST PUSH32 0x5265636965766572205265636976650000000000000000000000000000000000 PUSH0 DUP3 ADD MSTORE POP JUMP JUMPDEST PUSH0 PUSH2 0x1B8 PUSH1 0xF DUP4 PUSH2 0x174 JUMP JUMPDEST SWAP2 POP PUSH2 0x1C3 DUP3 PUSH2 0x184 JUMP JUMPDEST PUSH1 0x20 DUP3 ADD SWAP1 POP SWAP2 SWAP1 POP JUMP JUMPDEST PUSH0 PUSH1 0x60 DUP3 ADD SWAP1 POP PUSH2 0x1E1 PUSH0 DUP4 ADD DUP6 PUSH2 0x14D JUMP JUMPDEST PUSH2 0x1EE PUSH1 0x20 DUP4 ADD DUP5 PUSH2 0x165 JUMP JUMPDEST DUP2 DUP2 SUB PUSH1 0x40 DUP4 ADD MSTORE PUSH2 0x1FF DUP2 PUSH2 0x1AC JUMP JUMPDEST SWAP1 POP SWAP4 SWAP3 POP POP POP JUMP JUMPDEST PUSH32 0x52656369657665722046616C6C6261636B000000000000000000000000000000 PUSH0 DUP3 ADD MSTORE POP JUMP JUMPDEST PUSH0 PUSH2 0x23C PUSH1 0x11 DUP4 PUSH2 0x174 JUMP JUMPDEST SWAP2 POP PUSH2 0x247 DUP3 PUSH2 0x208 JUMP JUMPDEST PUSH1 0x20 DUP3 ADD SWAP1 POP SWAP2 SWAP1 POP JUMP JUMPDEST PUSH0 PUSH1 0x60 DUP3 ADD SWAP1 POP PUSH2 0x265 PUSH0 DUP4 ADD DUP6 PUSH2 0x14D JUMP JUMPDEST PUSH2 0x272 PUSH1 0x20 DUP4 ADD DUP5 PUSH2 0x165 JUMP JUMPDEST DUP2 DUP2 SUB PUSH1 0x40 DUP4 ADD MSTORE PUSH2 0x283 DUP2 PUSH2 0x230 JUMP JUMPDEST SWAP1 POP SWAP4 SWAP3 POP POP POP JUMP JUMPDEST PUSH0 PUSH1 0x40 MLOAD SWAP1 POP SWAP1 JUMP JUMPDEST PUSH0 DUP1 REVERT JUMPDEST PUSH0 DUP1 REVERT JUMPDEST PUSH0 DUP1 REVERT JUMPDEST PUSH0 DUP1 REVERT JUMPDEST PUSH0 PUSH1 0x1F NOT PUSH1 0x1F DUP4 ADD AND SWAP1 POP SWAP2 SWAP1 POP JUMP JUMPDEST PUSH32 0x4E487B7100000000000000000000000000000000000000000000000000000000 PUSH0 MSTORE PUSH1 0x41 PUSH1 0x4 MSTORE PUSH1 0x24 PUSH0 REVERT JUMPDEST PUSH2 0x2EB DUP3 PUSH2 0x2A5 JUMP JUMPDEST DUP2 ADD DUP2 DUP2 LT PUSH8 0xFFFFFFFFFFFFFFFF DUP3 GT OR ISZERO PUSH2 0x30A JUMPI PUSH2 0x309 PUSH2 0x2B5 JUMP JUMPDEST JUMPDEST DUP1 PUSH1 0x40 MSTORE POP POP POP JUMP JUMPDEST PUSH0 PUSH2 0x31C PUSH2 0x28C JUMP JUMPDEST SWAP1 POP PUSH2 0x328 DUP3 DUP3 PUSH2 0x2E2 JUMP JUMPDEST SWAP2 SWAP1 POP JUMP JUMPDEST PUSH0 PUSH8 0xFFFFFFFFFFFFFFFF DUP3 GT ISZERO PUSH2 0x347 JUMPI PUSH2 0x346 PUSH2 0x2B5 JUMP JUMPDEST JUMPDEST PUSH2 0x350 DUP3 PUSH2 0x2A5 JUMP JUMPDEST SWAP1 POP PUSH1 0x20 DUP2 ADD SWAP1 POP SWAP2 SWAP1 POP JUMP JUMPDEST DUP3 DUP2 DUP4 CALLDATACOPY PUSH0 DUP4 DUP4 ADD MSTORE POP POP POP JUMP JUMPDEST PUSH0 PUSH2 0x37D PUSH2 0x378 DUP5 PUSH2 0x32D JUMP JUMPDEST PUSH2 0x313 JUMP JUMPDEST SWAP1 POP DUP3 DUP2 MSTORE PUSH1 0x20 DUP2 ADD DUP5 DUP5 DUP5 ADD GT ISZERO PUSH2 0x399 JUMPI PUSH2 0x398 PUSH2 0x2A1 JUMP JUMPDEST JUMPDEST PUSH2 0x3A4 DUP5 DUP3 DUP6 PUSH2 0x35D JUMP JUMPDEST POP SWAP4 SWAP3 POP POP POP JUMP JUMPDEST PUSH0 DUP3 PUSH1 0x1F DUP4 ADD SLT PUSH2 0x3C0 JUMPI PUSH2 0x3BF PUSH2 0x29D JUMP JUMPDEST JUMPDEST DUP2 CALLDATALOAD PUSH2 0x3D0 DUP5 DUP3 PUSH1 0x20 DUP7 ADD PUSH2 0x36B JUMP JUMPDEST SWAP2 POP POP SWAP3 SWAP2 POP POP JUMP JUMPDEST PUSH2 0x3E2 DUP2 PUSH2 0x15C JUMP JUMPDEST DUP2 EQ PUSH2 0x3EC JUMPI PUSH0 DUP1 REVERT JUMPDEST POP JUMP JUMPDEST PUSH0 DUP2 CALLDATALOAD SWAP1 POP PUSH2 0x3FD DUP2 PUSH2 0x3D9 JUMP JUMPDEST SWAP3 SWAP2 POP POP JUMP JUMPDEST PUSH0 DUP1 PUSH1 0x40 DUP4 DUP6 SUB SLT ISZERO PUSH2 0x419 JUMPI PUSH2 0x418 PUSH2 0x295 JUMP JUMPDEST JUMPDEST PUSH0 DUP4 ADD CALLDATALOAD PUSH8 0xFFFFFFFFFFFFFFFF DUP2 GT ISZERO PUSH2 0x436 JUMPI PUSH2 0x435 PUSH2 0x299 JUMP JUMPDEST JUMPDEST PUSH2 0x442 DUP6 DUP3 DUP7 ADD PUSH2 0x3AC JUMP JUMPDEST SWAP3 POP POP PUSH1 0x20 PUSH2 0x453 DUP6 DUP3 DUP7 ADD PUSH2 0x3EF JUMP JUMPDEST SWAP2 POP POP SWAP3 POP SWAP3 SWAP1 POP JUMP JUMPDEST PUSH0 PUSH1 0x20 DUP3 ADD SWAP1 POP PUSH2 0x470 PUSH0 DUP4 ADD DUP5 PUSH2 0x165 JUMP JUMPDEST SWAP3 SWAP2 POP POP JUMP JUMPDEST PUSH0 DUP2 MLOAD SWAP1 POP SWAP2 SWAP1 POP JUMP JUMPDEST PUSH0 JUMPDEST DUP4 DUP2 LT ISZERO PUSH2 0x49D JUMPI DUP1 DUP3 ADD MLOAD DUP2 DUP5 ADD MSTORE PUSH1 0x20 DUP2 ADD SWAP1 POP PUSH2 0x482 JUMP JUMPDEST PUSH0 DUP5 DUP5 ADD MSTORE POP POP POP POP JUMP JUMPDEST PUSH0 PUSH2 0x4B2 DUP3 PUSH2 0x476 JUMP JUMPDEST PUSH2 0x4BC DUP2 DUP6 PUSH2 0x174 JUMP JUMPDEST SWAP4 POP PUSH2 0x4CC DUP2 DUP6 PUSH1 0x20 DUP7 ADD PUSH2 0x480 JUMP JUMPDEST PUSH2 0x4D5 DUP2 PUSH2 0x2A5 JUMP JUMPDEST DUP5 ADD SWAP2 POP POP SWAP3 SWAP2 POP POP JUMP JUMPDEST PUSH0 PUSH1 0x60 DUP3 ADD SWAP1 POP PUSH2 0x4F3 PUSH0 DUP4 ADD DUP7 PUSH2 0x14D JUMP JUMPDEST PUSH2 0x500 PUSH1 0x20 DUP4 ADD DUP6 PUSH2 0x165 JUMP JUMPDEST DUP2 DUP2 SUB PUSH1 0x40 DUP4 ADD MSTORE PUSH2 0x512 DUP2 DUP5 PUSH2 0x4A8 JUMP JUMPDEST SWAP1 POP SWAP5 SWAP4 POP POP POP POP JUMP JUMPDEST PUSH32 0x4E487B7100000000000000000000000000000000000000000000000000000000 PUSH0 MSTORE PUSH1 0x11 PUSH1 0x4 MSTORE PUSH1 0x24 PUSH0 REVERT JUMPDEST PUSH0 PUSH2 0x553 DUP3 PUSH2 0x15C JUMP JUMPDEST SWAP2 POP PUSH2 0x55E DUP4 PUSH2 0x15C JUMP JUMPDEST SWAP3 POP DUP3 DUP3 ADD SWAP1 POP DUP1 DUP3 GT ISZERO PUSH2 0x576 JUMPI PUSH2 0x575 PUSH2 0x51C JUMP JUMPDEST JUMPDEST SWAP3 SWAP2 POP POP JUMP INVALID LOG2 PUSH5 0x6970667358 0x22 SLT KECCAK256 0xFB 0x2C LOG3 0xC7 CALLER SWAP5 0xD3 0x1F 0xC8 CALLCODE 0xE1 0xCA PUSH22 0x90CC007E1821D38D5B8368EE55582120B72EBC64736F PUSH13 0x63430008160033000000000000 "
		},
		"gasEstimates": {
			"creation": {
				"codeDepositCost": "291600",
				"executionCost": "329",
				"totalCost": "291929"
			},
			"external": {
				"": "2643",
				"xyz(string,uint256)": "infinite"
			}
		},
		"methodIdentifiers": {
			"xyz(string,uint256)": "19727731"
		}
	},
	"abi": [
		{
			"anonymous": false,
			"inputs": [
				{
					"indexed": false,
					"internalType": "address",
					"name": "caller",
					"type": "address"
				},
				{
					"indexed": false,
					"internalType": "uint256",
					"name": "amount",
					"type": "uint256"
				},
				{
					"indexed": false,
					"internalType": "string",
					"name": "message",
					"type": "string"
				}
			],
			"name": "Recieved",
			"type": "event"
		},
		{
			"stateMutability": "payable",
			"type": "fallback"
		},
		{
			"inputs": [
				{
					"internalType": "string",
					"name": "_msg",
					"type": "string"
				},
				{
					"internalType": "uint256",
					"name": "_x",
					"type": "uint256"
				}
			],
			"name": "xyz",
			"outputs": [
				{
					"internalType": "uint256",
					"name": "",
					"type": "uint256"
				}
			],
			"stateMutability": "payable",
			"type": "function"
		},
		{
			"stateMutability": "payable",
			"type": "receive"
		}
	]
}