{
	"data": {
		"bytecode": {
			"linkReferences": {},
			"object": "608060405260095f55600a6001553480156017575f80fd5b5061029d806100255f395ff3fe608060405234801561000f575f80fd5b506004361061004a575f3560e01c80632df6c25a1461004e5780637393e2951461006c57806377025d451461008a578063eda5a9f4146100a9575b5f80fd5b6100566100c5565b604051610063919061012d565b60405180910390f35b6100746100d7565b604051610081919061012d565b60405180910390f35b6100926100e4565b6040516100a0929190610146565b60405180910390f35b6100c360048036038101906100be919061019b565b61010c565b005b5f600a600181905550805f8190555090565b5f80601490508091505090565b5f806001545f546100f591906101f3565b91506001545f546101069190610234565b90509091565b805f8190555050565b5f819050919050565b61012781610115565b82525050565b5f6020820190506101405f83018461011e565b92915050565b5f6040820190506101595f83018561011e565b610166602083018461011e565b9392505050565b5f80fd5b61017a81610115565b8114610184575f80fd5b50565b5f8135905061019581610171565b92915050565b5f602082840312156101b0576101af61016d565b5b5f6101bd84828501610187565b91505092915050565b7f4e487b71000000000000000000000000000000000000000000000000000000005f52601160045260245ffd5b5f6101fd82610115565b915061020883610115565b925082820261021681610115565b9150828204841483151761022d5761022c6101c6565b5b5092915050565b5f61023e82610115565b915061024983610115565b9250828201905080821115610261576102606101c6565b5b9291505056fea2646970667358221220d7a046098f87d5a7055c5658457855a28161e69d946c0c5f241d5d5ded67579b64736f6c634300081a0033",
			"opcodes": "PUSH1 0x80 PUSH1 0x40 MSTORE PUSH1 0x9 PUSH0 SSTORE PUSH1 0xA PUSH1 0x1 SSTORE CALLVALUE DUP1 ISZERO PUSH1 0x17 JUMPI PUSH0 DUP1 REVERT JUMPDEST POP PUSH2 0x29D DUP1 PUSH2 0x25 PUSH0 CODECOPY PUSH0 RETURN INVALID PUSH1 0x80 PUSH1 0x40 MSTORE CALLVALUE DUP1 ISZERO PUSH2 0xF JUMPI PUSH0 DUP1 REVERT JUMPDEST POP PUSH1 0x4 CALLDATASIZE LT PUSH2 0x4A JUMPI PUSH0 CALLDATALOAD PUSH1 0xE0 SHR DUP1 PUSH4 0x2DF6C25A EQ PUSH2 0x4E JUMPI DUP1 PUSH4 0x7393E295 EQ PUSH2 0x6C JUMPI DUP1 PUSH4 0x77025D45 EQ PUSH2 0x8A JUMPI DUP1 PUSH4 0xEDA5A9F4 EQ PUSH2 0xA9 JUMPI JUMPDEST PUSH0 DUP1 REVERT JUMPDEST PUSH2 0x56 PUSH2 0xC5 JUMP JUMPDEST PUSH1 0x40 MLOAD PUSH2 0x63 SWAP2 SWAP1 PUSH2 0x12D JUMP JUMPDEST PUSH1 0x40 MLOAD DUP1 SWAP2 SUB SWAP1 RETURN JUMPDEST PUSH2 0x74 PUSH2 0xD7 JUMP JUMPDEST PUSH1 0x40 MLOAD PUSH2 0x81 SWAP2 SWAP1 PUSH2 0x12D JUMP JUMPDEST PUSH1 0x40 MLOAD DUP1 SWAP2 SUB SWAP1 RETURN JUMPDEST PUSH2 0x92 PUSH2 0xE4 JUMP JUMPDEST PUSH1 0x40 MLOAD PUSH2 0xA0 SWAP3 SWAP2 SWAP1 PUSH2 0x146 JUMP JUMPDEST PUSH1 0x40 MLOAD DUP1 SWAP2 SUB SWAP1 RETURN JUMPDEST PUSH2 0xC3 PUSH1 0x4 DUP1 CALLDATASIZE SUB DUP2 ADD SWAP1 PUSH2 0xBE SWAP2 SWAP1 PUSH2 0x19B JUMP JUMPDEST PUSH2 0x10C JUMP JUMPDEST STOP JUMPDEST PUSH0 PUSH1 0xA PUSH1 0x1 DUP2 SWAP1 SSTORE POP DUP1 PUSH0 DUP2 SWAP1 SSTORE POP SWAP1 JUMP JUMPDEST PUSH0 DUP1 PUSH1 0x14 SWAP1 POP DUP1 SWAP2 POP POP SWAP1 JUMP JUMPDEST PUSH0 DUP1 PUSH1 0x1 SLOAD PUSH0 SLOAD PUSH2 0xF5 SWAP2 SWAP1 PUSH2 0x1F3 JUMP JUMPDEST SWAP2 POP PUSH1 0x1 SLOAD PUSH0 SLOAD PUSH2 0x106 SWAP2 SWAP1 PUSH2 0x234 JUMP JUMPDEST SWAP1 POP SWAP1 SWAP2 JUMP JUMPDEST DUP1 PUSH0 DUP2 SWAP1 SSTORE POP POP JUMP JUMPDEST PUSH0 DUP2 SWAP1 POP SWAP2 SWAP1 POP JUMP JUMPDEST PUSH2 0x127 DUP2 PUSH2 0x115 JUMP JUMPDEST DUP3 MSTORE POP POP JUMP JUMPDEST PUSH0 PUSH1 0x20 DUP3 ADD SWAP1 POP PUSH2 0x140 PUSH0 DUP4 ADD DUP5 PUSH2 0x11E JUMP JUMPDEST SWAP3 SWAP2 POP POP JUMP JUMPDEST PUSH0 PUSH1 0x40 DUP3 ADD SWAP1 POP PUSH2 0x159 PUSH0 DUP4 ADD DUP6 PUSH2 0x11E JUMP JUMPDEST PUSH2 0x166 PUSH1 0x20 DUP4 ADD DUP5 PUSH2 0x11E JUMP JUMPDEST SWAP4 SWAP3 POP POP POP JUMP JUMPDEST PUSH0 DUP1 REVERT JUMPDEST PUSH2 0x17A DUP2 PUSH2 0x115 JUMP JUMPDEST DUP2 EQ PUSH2 0x184 JUMPI PUSH0 DUP1 REVERT JUMPDEST POP JUMP JUMPDEST PUSH0 DUP2 CALLDATALOAD SWAP1 POP PUSH2 0x195 DUP2 PUSH2 0x171 JUMP JUMPDEST SWAP3 SWAP2 POP POP JUMP JUMPDEST PUSH0 PUSH1 0x20 DUP3 DUP5 SUB SLT ISZERO PUSH2 0x1B0 JUMPI PUSH2 0x1AF PUSH2 0x16D JUMP JUMPDEST JUMPDEST PUSH0 PUSH2 0x1BD DUP5 DUP3 DUP6 ADD PUSH2 0x187 JUMP JUMPDEST SWAP2 POP POP SWAP3 SWAP2 POP POP JUMP JUMPDEST PUSH32 0x4E487B7100000000000000000000000000000000000000000000000000000000 PUSH0 MSTORE PUSH1 0x11 PUSH1 0x4 MSTORE PUSH1 0x24 PUSH0 REVERT JUMPDEST PUSH0 PUSH2 0x1FD DUP3 PUSH2 0x115 JUMP JUMPDEST SWAP2 POP PUSH2 0x208 DUP4 PUSH2 0x115 JUMP JUMPDEST SWAP3 POP DUP3 DUP3 MUL PUSH2 0x216 DUP2 PUSH2 0x115 JUMP JUMPDEST SWAP2 POP DUP3 DUP3 DIV DUP5 EQ DUP4 ISZERO OR PUSH2 0x22D JUMPI PUSH2 0x22C PUSH2 0x1C6 JUMP JUMPDEST JUMPDEST POP SWAP3 SWAP2 POP POP JUMP JUMPDEST PUSH0 PUSH2 0x23E DUP3 PUSH2 0x115 JUMP JUMPDEST SWAP2 POP PUSH2 0x249 DUP4 PUSH2 0x115 JUMP JUMPDEST SWAP3 POP DUP3 DUP3 ADD SWAP1 POP DUP1 DUP3 GT ISZERO PUSH2 0x261 JUMPI PUSH2 0x260 PUSH2 0x1C6 JUMP JUMPDEST JUMPDEST SWAP3 SWAP2 POP POP JUMP INVALID LOG2 PUSH5 0x6970667358 0x22 SLT KECCAK256 0xD7 LOG0 CHAINID MULMOD DUP16 DUP8 0xD5 0xA7 SDIV TLOAD JUMP PC GASLIMIT PUSH25 0x55A28161E69D946C0C5F241D5D5DED67579B64736F6C634300 ADDMOD BYTE STOP CALLER "
		},
		"gasEstimates": {
			"creation": {
				"codeDepositCost": "133800",
				"executionCost": "44386",
				"totalCost": "178186"
			},
			"external": {
				"getNumbypure()": "345",
				"getNumbyview()": "infinite",
				"getnumacces(uint256)": "22558",
				"getnummodify()": "27429"
			}
		},
		"methodIdentifiers": {
			"getNumbypure()": "7393e295",
			"getNumbyview()": "77025d45",
			"getnumacces(uint256)": "eda5a9f4",
			"getnummodify()": "2df6c25a"
		}
	},
	"abi": [
		{
			"inputs": [],
			"name": "getNumbypure",
			"outputs": [
				{
					"internalType": "uint256",
					"name": "",
					"type": "uint256"
				}
			],
			"stateMutability": "pure",
			"type": "function"
		},
		{
			"inputs": [],
			"name": "getNumbyview",
			"outputs": [
				{
					"internalType": "uint256",
					"name": "product",
					"type": "uint256"
				},
				{
					"internalType": "uint256",
					"name": "total",
					"type": "uint256"
				}
			],
			"stateMutability": "view",
			"type": "function"
		},
		{
			"inputs": [
				{
					"internalType": "uint256",
					"name": "product",
					"type": "uint256"
				}
			],
			"name": "getnumacces",
			"outputs": [],
			"stateMutability": "nonpayable",
			"type": "function"
		},
		{
			"inputs": [],
			"name": "getnummodify",
			"outputs": [
				{
					"internalType": "uint256",
					"name": "product",
					"type": "uint256"
				}
			],
			"stateMutability": "nonpayable",
			"type": "function"
		}
	]
}